{
	"contracts/Voting.sol": {
		"Voting": {
			"abi": [
				{
					"inputs": [
						{
							"internalType": "string",
							"name": "_electionName",
							"type": "string"
						}
					],
					"stateMutability": "nonpayable",
					"type": "constructor"
				},
				{
					"inputs": [
						{
							"internalType": "address",
							"name": "",
							"type": "address"
						}
					],
					"name": "AddressToVoter",
					"outputs": [
						{
							"internalType": "string",
							"name": "voterName",
							"type": "string"
						},
						{
							"internalType": "bool",
							"name": "voted",
							"type": "bool"
						}
					],
					"stateMutability": "view",
					"type": "function"
				},
				{
					"inputs": [
						{
							"internalType": "uint256",
							"name": "",
							"type": "uint256"
						}
					],
					"name": "CandidateList",
					"outputs": [
						{
							"internalType": "string",
							"name": "candidateName",
							"type": "string"
						},
						{
							"internalType": "address",
							"name": "candidateAddress",
							"type": "address"
						},
						{
							"internalType": "uint256",
							"name": "numberOfVotes",
							"type": "uint256"
						},
						{
							"internalType": "string",
							"name": "symbol",
							"type": "string"
						}
					],
					"stateMutability": "view",
					"type": "function"
				},
				{
					"inputs": [],
					"name": "ElectionName",
					"outputs": [
						{
							"internalType": "string",
							"name": "",
							"type": "string"
						}
					],
					"stateMutability": "view",
					"type": "function"
				},
				{
					"inputs": [],
					"name": "OragnizerAddress",
					"outputs": [
						{
							"internalType": "address",
							"name": "",
							"type": "address"
						}
					],
					"stateMutability": "view",
					"type": "function"
				},
				{
					"inputs": [
						{
							"internalType": "string",
							"name": "",
							"type": "string"
						}
					],
					"name": "SymbolToCandidate",
					"outputs": [
						{
							"internalType": "string",
							"name": "candidateName",
							"type": "string"
						},
						{
							"internalType": "address",
							"name": "candidateAddress",
							"type": "address"
						},
						{
							"internalType": "uint256",
							"name": "numberOfVotes",
							"type": "uint256"
						},
						{
							"internalType": "string",
							"name": "symbol",
							"type": "string"
						}
					],
					"stateMutability": "view",
					"type": "function"
				},
				{
					"inputs": [
						{
							"internalType": "uint256",
							"name": "",
							"type": "uint256"
						}
					],
					"name": "VoteCount",
					"outputs": [
						{
							"internalType": "uint256",
							"name": "",
							"type": "uint256"
						}
					],
					"stateMutability": "view",
					"type": "function"
				},
				{
					"inputs": [
						{
							"internalType": "address",
							"name": "_candidateAddress",
							"type": "address"
						},
						{
							"internalType": "string",
							"name": "_candidateName",
							"type": "string"
						},
						{
							"internalType": "string",
							"name": "_symbol",
							"type": "string"
						}
					],
					"name": "addCandidates",
					"outputs": [],
					"stateMutability": "nonpayable",
					"type": "function"
				},
				{
					"inputs": [
						{
							"internalType": "address",
							"name": "_voterAddress",
							"type": "address"
						},
						{
							"internalType": "string",
							"name": "_voterName",
							"type": "string"
						}
					],
					"name": "addVoter",
					"outputs": [],
					"stateMutability": "nonpayable",
					"type": "function"
				},
				{
					"inputs": [],
					"name": "candidatesCount",
					"outputs": [
						{
							"internalType": "uint256",
							"name": "",
							"type": "uint256"
						}
					],
					"stateMutability": "view",
					"type": "function"
				},
				{
					"inputs": [
						{
							"internalType": "string",
							"name": "_symbol",
							"type": "string"
						}
					],
					"name": "getCandidate",
					"outputs": [
						{
							"components": [
								{
									"internalType": "string",
									"name": "candidateName",
									"type": "string"
								},
								{
									"internalType": "address",
									"name": "candidateAddress",
									"type": "address"
								},
								{
									"internalType": "uint256",
									"name": "numberOfVotes",
									"type": "uint256"
								},
								{
									"internalType": "string",
									"name": "symbol",
									"type": "string"
								}
							],
							"internalType": "struct Voting.Candidate",
							"name": "",
							"type": "tuple"
						}
					],
					"stateMutability": "view",
					"type": "function"
				},
				{
					"inputs": [],
					"name": "getCandidates",
					"outputs": [
						{
							"components": [
								{
									"internalType": "string",
									"name": "candidateName",
									"type": "string"
								},
								{
									"internalType": "address",
									"name": "candidateAddress",
									"type": "address"
								},
								{
									"internalType": "uint256",
									"name": "numberOfVotes",
									"type": "uint256"
								},
								{
									"internalType": "string",
									"name": "symbol",
									"type": "string"
								}
							],
							"internalType": "struct Voting.Candidate[]",
							"name": "",
							"type": "tuple[]"
						}
					],
					"stateMutability": "view",
					"type": "function"
				},
				{
					"inputs": [],
					"name": "state",
					"outputs": [
						{
							"internalType": "enum Voting.State",
							"name": "",
							"type": "uint8"
						}
					],
					"stateMutability": "view",
					"type": "function"
				},
				{
					"inputs": [],
					"name": "totalVoters",
					"outputs": [
						{
							"internalType": "uint256",
							"name": "",
							"type": "uint256"
						}
					],
					"stateMutability": "view",
					"type": "function"
				},
				{
					"inputs": [],
					"name": "totalVotes",
					"outputs": [
						{
							"internalType": "uint256",
							"name": "",
							"type": "uint256"
						}
					],
					"stateMutability": "view",
					"type": "function"
				}
			],
			"devdoc": {
				"kind": "dev",
				"methods": {},
				"version": 1
			},
			"evm": {
				"assembly": "    /* \"contracts/Voting.sol\":62:2399  contract Voting {\r... */\n  mstore(0x40, 0x80)\n    /* \"contracts/Voting.sol\":930:1095  constructor(string memory _electionName){\r... */\n  callvalue\n  dup1\n  iszero\n  tag_1\n  jumpi\n  0x00\n  dup1\n  revert\ntag_1:\n  pop\n  mload(0x40)\n  sub(codesize, bytecodeSize)\n  dup1\n  bytecodeSize\n  dup4\n  codecopy\n  dup2\n  dup2\n  add\n  0x40\n  mstore\n  dup2\n  add\n  swap1\n  tag_2\n  swap2\n  swap1\n  tag_3\n  jump\t// in\ntag_2:\n    /* \"contracts/Voting.sol\":1000:1010  msg.sender */\n  caller\n    /* \"contracts/Voting.sol\":981:997  OragnizerAddress */\n  0x08\n  0x01\n    /* \"contracts/Voting.sol\":981:1010  OragnizerAddress = msg.sender */\n  0x0100\n  exp\n  dup2\n  sload\n  dup2\n  0xffffffffffffffffffffffffffffffffffffffff\n  mul\n  not\n  and\n  swap1\n  dup4\n  0xffffffffffffffffffffffffffffffffffffffff\n  and\n  mul\n  or\n  swap1\n  sstore\n  pop\n    /* \"contracts/Voting.sol\":1036:1049  _electionName */\n  dup1\n    /* \"contracts/Voting.sol\":1021:1033  ElectionName */\n  0x09\n    /* \"contracts/Voting.sol\":1021:1049  ElectionName = _electionName */\n  swap1\n  dup1\n  mload\n  swap1\n  0x20\n  add\n  swap1\n  tag_6\n  swap3\n  swap2\n  swap1\n  tag_7\n  jump\t// in\ntag_6:\n  pop\n    /* \"contracts/Voting.sol\":1070:1083  State.Created */\n  0x00\n    /* \"contracts/Voting.sol\":1062:1067  state */\n  0x08\n  0x00\n    /* \"contracts/Voting.sol\":1062:1083  state = State.Created */\n  0x0100\n  exp\n  dup2\n  sload\n  dup2\n  0xff\n  mul\n  not\n  and\n  swap1\n  dup4\n  0x02\n  dup2\n  gt\n  iszero\n  tag_8\n  jumpi\n  tag_9\n  tag_10\n  jump\t// in\ntag_9:\ntag_8:\n  mul\n  or\n  swap1\n  sstore\n  pop\n    /* \"contracts/Voting.sol\":930:1095  constructor(string memory _electionName){\r... */\n  pop\n    /* \"contracts/Voting.sol\":62:2399  contract Voting {\r... */\n  jump(tag_11)\ntag_7:\n  dup3\n  dup1\n  sload\n  tag_12\n  swap1\n  tag_13\n  jump\t// in\ntag_12:\n  swap1\n  0x00\n  mstore\n  keccak256(0x00, 0x20)\n  swap1\n  0x1f\n  add\n  0x20\n  swap1\n  div\n  dup2\n  add\n  swap3\n  dup3\n  tag_15\n  jumpi\n  0x00\n  dup6\n  sstore\n  jump(tag_14)\ntag_15:\n  dup3\n  0x1f\n  lt\n  tag_16\n  jumpi\n  dup1\n  mload\n  not(0xff)\n  and\n  dup4\n  dup1\n  add\n  or\n  dup6\n  sstore\n  jump(tag_14)\ntag_16:\n  dup3\n  dup1\n  add\n  0x01\n  add\n  dup6\n  sstore\n  dup3\n  iszero\n  tag_14\n  jumpi\n  swap2\n  dup3\n  add\ntag_17:\n  dup3\n  dup2\n  gt\n  iszero\n  tag_18\n  jumpi\n  dup3\n  mload\n  dup3\n  sstore\n  swap2\n  0x20\n  add\n  swap2\n  swap1\n  0x01\n  add\n  swap1\n  jump(tag_17)\ntag_18:\ntag_14:\n  pop\n  swap1\n  pop\n  tag_19\n  swap2\n  swap1\n  tag_20\n  jump\t// in\ntag_19:\n  pop\n  swap1\n  jump\t// out\ntag_20:\ntag_21:\n  dup1\n  dup3\n  gt\n  iszero\n  tag_22\n  jumpi\n  0x00\n  dup2\n  0x00\n  swap1\n  sstore\n  pop\n  0x01\n  add\n  jump(tag_21)\ntag_22:\n  pop\n  swap1\n  jump\t// out\n    /* \"#utility.yul\":7:428   */\ntag_24:\n    /* \"#utility.yul\":96:101   */\n  0x00\n    /* \"#utility.yul\":121:187   */\n  tag_26\n    /* \"#utility.yul\":137:186   */\n  tag_27\n    /* \"#utility.yul\":179:185   */\n  dup5\n    /* \"#utility.yul\":137:186   */\n  tag_28\n  jump\t// in\ntag_27:\n    /* \"#utility.yul\":121:187   */\n  tag_29\n  jump\t// in\ntag_26:\n    /* \"#utility.yul\":112:187   */\n  swap1\n  pop\n    /* \"#utility.yul\":210:216   */\n  dup3\n    /* \"#utility.yul\":203:208   */\n  dup2\n    /* \"#utility.yul\":196:217   */\n  mstore\n    /* \"#utility.yul\":248:252   */\n  0x20\n    /* \"#utility.yul\":241:246   */\n  dup2\n    /* \"#utility.yul\":237:253   */\n  add\n    /* \"#utility.yul\":286:289   */\n  dup5\n    /* \"#utility.yul\":277:283   */\n  dup5\n    /* \"#utility.yul\":272:275   */\n  dup5\n    /* \"#utility.yul\":268:284   */\n  add\n    /* \"#utility.yul\":265:290   */\n  gt\n    /* \"#utility.yul\":262:374   */\n  iszero\n  tag_30\n  jumpi\n    /* \"#utility.yul\":293:372   */\n  tag_31\n  tag_32\n  jump\t// in\ntag_31:\n    /* \"#utility.yul\":262:374   */\ntag_30:\n    /* \"#utility.yul\":383:422   */\n  tag_33\n    /* \"#utility.yul\":415:421   */\n  dup5\n    /* \"#utility.yul\":410:413   */\n  dup3\n    /* \"#utility.yul\":405:408   */\n  dup6\n    /* \"#utility.yul\":383:422   */\n  tag_34\n  jump\t// in\ntag_33:\n    /* \"#utility.yul\":102:428   */\n  pop\n    /* \"#utility.yul\":7:428   */\n  swap4\n  swap3\n  pop\n  pop\n  pop\n  jump\t// out\n    /* \"#utility.yul\":448:803   */\ntag_35:\n    /* \"#utility.yul\":515:520   */\n  0x00\n    /* \"#utility.yul\":564:567   */\n  dup3\n    /* \"#utility.yul\":557:561   */\n  0x1f\n    /* \"#utility.yul\":549:555   */\n  dup4\n    /* \"#utility.yul\":545:562   */\n  add\n    /* \"#utility.yul\":541:568   */\n  slt\n    /* \"#utility.yul\":531:653   */\n  tag_37\n  jumpi\n    /* \"#utility.yul\":572:651   */\n  tag_38\n  tag_39\n  jump\t// in\ntag_38:\n    /* \"#utility.yul\":531:653   */\ntag_37:\n    /* \"#utility.yul\":682:688   */\n  dup2\n    /* \"#utility.yul\":676:689   */\n  mload\n    /* \"#utility.yul\":707:797   */\n  tag_40\n    /* \"#utility.yul\":793:796   */\n  dup5\n    /* \"#utility.yul\":785:791   */\n  dup3\n    /* \"#utility.yul\":778:782   */\n  0x20\n    /* \"#utility.yul\":770:776   */\n  dup7\n    /* \"#utility.yul\":766:783   */\n  add\n    /* \"#utility.yul\":707:797   */\n  tag_24\n  jump\t// in\ntag_40:\n    /* \"#utility.yul\":698:797   */\n  swap2\n  pop\n    /* \"#utility.yul\":521:803   */\n  pop\n    /* \"#utility.yul\":448:803   */\n  swap3\n  swap2\n  pop\n  pop\n  jump\t// out\n    /* \"#utility.yul\":809:1333   */\ntag_3:\n    /* \"#utility.yul\":889:895   */\n  0x00\n    /* \"#utility.yul\":938:940   */\n  0x20\n    /* \"#utility.yul\":926:935   */\n  dup3\n    /* \"#utility.yul\":917:924   */\n  dup5\n    /* \"#utility.yul\":913:936   */\n  sub\n    /* \"#utility.yul\":909:941   */\n  slt\n    /* \"#utility.yul\":906:1025   */\n  iszero\n  tag_42\n  jumpi\n    /* \"#utility.yul\":944:1023   */\n  tag_43\n  tag_44\n  jump\t// in\ntag_43:\n    /* \"#utility.yul\":906:1025   */\ntag_42:\n    /* \"#utility.yul\":1085:1086   */\n  0x00\n    /* \"#utility.yul\":1074:1083   */\n  dup3\n    /* \"#utility.yul\":1070:1087   */\n  add\n    /* \"#utility.yul\":1064:1088   */\n  mload\n    /* \"#utility.yul\":1115:1133   */\n  0xffffffffffffffff\n    /* \"#utility.yul\":1107:1113   */\n  dup2\n    /* \"#utility.yul\":1104:1134   */\n  gt\n    /* \"#utility.yul\":1101:1218   */\n  iszero\n  tag_45\n  jumpi\n    /* \"#utility.yul\":1137:1216   */\n  tag_46\n  tag_47\n  jump\t// in\ntag_46:\n    /* \"#utility.yul\":1101:1218   */\ntag_45:\n    /* \"#utility.yul\":1242:1316   */\n  tag_48\n    /* \"#utility.yul\":1308:1315   */\n  dup5\n    /* \"#utility.yul\":1299:1305   */\n  dup3\n    /* \"#utility.yul\":1288:1297   */\n  dup6\n    /* \"#utility.yul\":1284:1306   */\n  add\n    /* \"#utility.yul\":1242:1316   */\n  tag_35\n  jump\t// in\ntag_48:\n    /* \"#utility.yul\":1232:1316   */\n  swap2\n  pop\n    /* \"#utility.yul\":1035:1326   */\n  pop\n    /* \"#utility.yul\":809:1333   */\n  swap3\n  swap2\n  pop\n  pop\n  jump\t// out\n    /* \"#utility.yul\":1339:1468   */\ntag_29:\n    /* \"#utility.yul\":1373:1379   */\n  0x00\n    /* \"#utility.yul\":1400:1420   */\n  tag_50\n  tag_51\n  jump\t// in\ntag_50:\n    /* \"#utility.yul\":1390:1420   */\n  swap1\n  pop\n    /* \"#utility.yul\":1429:1462   */\n  tag_52\n    /* \"#utility.yul\":1457:1461   */\n  dup3\n    /* \"#utility.yul\":1449:1455   */\n  dup3\n    /* \"#utility.yul\":1429:1462   */\n  tag_53\n  jump\t// in\ntag_52:\n    /* \"#utility.yul\":1339:1468   */\n  swap2\n  swap1\n  pop\n  jump\t// out\n    /* \"#utility.yul\":1474:1549   */\ntag_51:\n    /* \"#utility.yul\":1507:1513   */\n  0x00\n    /* \"#utility.yul\":1540:1542   */\n  0x40\n    /* \"#utility.yul\":1534:1543   */\n  mload\n    /* \"#utility.yul\":1524:1543   */\n  swap1\n  pop\n    /* \"#utility.yul\":1474:1549   */\n  swap1\n  jump\t// out\n    /* \"#utility.yul\":1555:1863   */\ntag_28:\n    /* \"#utility.yul\":1617:1621   */\n  0x00\n    /* \"#utility.yul\":1707:1725   */\n  0xffffffffffffffff\n    /* \"#utility.yul\":1699:1705   */\n  dup3\n    /* \"#utility.yul\":1696:1726   */\n  gt\n    /* \"#utility.yul\":1693:1749   */\n  iszero\n  tag_56\n  jumpi\n    /* \"#utility.yul\":1729:1747   */\n  tag_57\n  tag_58\n  jump\t// in\ntag_57:\n    /* \"#utility.yul\":1693:1749   */\ntag_56:\n    /* \"#utility.yul\":1767:1796   */\n  tag_59\n    /* \"#utility.yul\":1789:1795   */\n  dup3\n    /* \"#utility.yul\":1767:1796   */\n  tag_60\n  jump\t// in\ntag_59:\n    /* \"#utility.yul\":1759:1796   */\n  swap1\n  pop\n    /* \"#utility.yul\":1851:1855   */\n  0x20\n    /* \"#utility.yul\":1845:1849   */\n  dup2\n    /* \"#utility.yul\":1841:1856   */\n  add\n    /* \"#utility.yul\":1833:1856   */\n  swap1\n  pop\n    /* \"#utility.yul\":1555:1863   */\n  swap2\n  swap1\n  pop\n  jump\t// out\n    /* \"#utility.yul\":1869:2176   */\ntag_34:\n    /* \"#utility.yul\":1937:1938   */\n  0x00\n    /* \"#utility.yul\":1947:2060   */\ntag_62:\n    /* \"#utility.yul\":1961:1967   */\n  dup4\n    /* \"#utility.yul\":1958:1959   */\n  dup2\n    /* \"#utility.yul\":1955:1968   */\n  lt\n    /* \"#utility.yul\":1947:2060   */\n  iszero\n  tag_64\n  jumpi\n    /* \"#utility.yul\":2046:2047   */\n  dup1\n    /* \"#utility.yul\":2041:2044   */\n  dup3\n    /* \"#utility.yul\":2037:2048   */\n  add\n    /* \"#utility.yul\":2031:2049   */\n  mload\n    /* \"#utility.yul\":2027:2028   */\n  dup2\n    /* \"#utility.yul\":2022:2025   */\n  dup5\n    /* \"#utility.yul\":2018:2029   */\n  add\n    /* \"#utility.yul\":2011:2050   */\n  mstore\n    /* \"#utility.yul\":1983:1985   */\n  0x20\n    /* \"#utility.yul\":1980:1981   */\n  dup2\n    /* \"#utility.yul\":1976:1986   */\n  add\n    /* \"#utility.yul\":1971:1986   */\n  swap1\n  pop\n    /* \"#utility.yul\":1947:2060   */\n  jump(tag_62)\ntag_64:\n    /* \"#utility.yul\":2078:2084   */\n  dup4\n    /* \"#utility.yul\":2075:2076   */\n  dup2\n    /* \"#utility.yul\":2072:2085   */\n  gt\n    /* \"#utility.yul\":2069:2170   */\n  iszero\n  tag_65\n  jumpi\n    /* \"#utility.yul\":2158:2159   */\n  0x00\n    /* \"#utility.yul\":2149:2155   */\n  dup5\n    /* \"#utility.yul\":2144:2147   */\n  dup5\n    /* \"#utility.yul\":2140:2156   */\n  add\n    /* \"#utility.yul\":2133:2160   */\n  mstore\n    /* \"#utility.yul\":2069:2170   */\ntag_65:\n    /* \"#utility.yul\":1918:2176   */\n  pop\n    /* \"#utility.yul\":1869:2176   */\n  pop\n  pop\n  pop\n  jump\t// out\n    /* \"#utility.yul\":2182:2502   */\ntag_13:\n    /* \"#utility.yul\":2226:2232   */\n  0x00\n    /* \"#utility.yul\":2263:2264   */\n  0x02\n    /* \"#utility.yul\":2257:2261   */\n  dup3\n    /* \"#utility.yul\":2253:2265   */\n  div\n    /* \"#utility.yul\":2243:2265   */\n  swap1\n  pop\n    /* \"#utility.yul\":2310:2311   */\n  0x01\n    /* \"#utility.yul\":2304:2308   */\n  dup3\n    /* \"#utility.yul\":2300:2312   */\n  and\n    /* \"#utility.yul\":2331:2349   */\n  dup1\n    /* \"#utility.yul\":2321:2402   */\n  tag_67\n  jumpi\n    /* \"#utility.yul\":2387:2391   */\n  0x7f\n    /* \"#utility.yul\":2379:2385   */\n  dup3\n    /* \"#utility.yul\":2375:2392   */\n  and\n    /* \"#utility.yul\":2365:2392   */\n  swap2\n  pop\n    /* \"#utility.yul\":2321:2402   */\ntag_67:\n    /* \"#utility.yul\":2449:2451   */\n  0x20\n    /* \"#utility.yul\":2441:2447   */\n  dup3\n    /* \"#utility.yul\":2438:2452   */\n  lt\n    /* \"#utility.yul\":2418:2436   */\n  dup2\n    /* \"#utility.yul\":2415:2453   */\n  eq\n    /* \"#utility.yul\":2412:2496   */\n  iszero\n  tag_68\n  jumpi\n    /* \"#utility.yul\":2468:2486   */\n  tag_69\n  tag_70\n  jump\t// in\ntag_69:\n    /* \"#utility.yul\":2412:2496   */\ntag_68:\n    /* \"#utility.yul\":2233:2502   */\n  pop\n    /* \"#utility.yul\":2182:2502   */\n  swap2\n  swap1\n  pop\n  jump\t// out\n    /* \"#utility.yul\":2508:2789   */\ntag_53:\n    /* \"#utility.yul\":2591:2618   */\n  tag_72\n    /* \"#utility.yul\":2613:2617   */\n  dup3\n    /* \"#utility.yul\":2591:2618   */\n  tag_60\n  jump\t// in\ntag_72:\n    /* \"#utility.yul\":2583:2589   */\n  dup2\n    /* \"#utility.yul\":2579:2619   */\n  add\n    /* \"#utility.yul\":2721:2727   */\n  dup2\n    /* \"#utility.yul\":2709:2719   */\n  dup2\n    /* \"#utility.yul\":2706:2728   */\n  lt\n    /* \"#utility.yul\":2685:2703   */\n  0xffffffffffffffff\n    /* \"#utility.yul\":2673:2683   */\n  dup3\n    /* \"#utility.yul\":2670:2704   */\n  gt\n    /* \"#utility.yul\":2667:2729   */\n  or\n    /* \"#utility.yul\":2664:2752   */\n  iszero\n  tag_73\n  jumpi\n    /* \"#utility.yul\":2732:2750   */\n  tag_74\n  tag_58\n  jump\t// in\ntag_74:\n    /* \"#utility.yul\":2664:2752   */\ntag_73:\n    /* \"#utility.yul\":2772:2782   */\n  dup1\n    /* \"#utility.yul\":2768:2770   */\n  0x40\n    /* \"#utility.yul\":2761:2783   */\n  mstore\n    /* \"#utility.yul\":2551:2789   */\n  pop\n    /* \"#utility.yul\":2508:2789   */\n  pop\n  pop\n  jump\t// out\n    /* \"#utility.yul\":2795:2975   */\ntag_10:\n    /* \"#utility.yul\":2843:2920   */\n  0x4e487b7100000000000000000000000000000000000000000000000000000000\n    /* \"#utility.yul\":2840:2841   */\n  0x00\n    /* \"#utility.yul\":2833:2921   */\n  mstore\n    /* \"#utility.yul\":2940:2944   */\n  0x21\n    /* \"#utility.yul\":2937:2938   */\n  0x04\n    /* \"#utility.yul\":2930:2945   */\n  mstore\n    /* \"#utility.yul\":2964:2968   */\n  0x24\n    /* \"#utility.yul\":2961:2962   */\n  0x00\n    /* \"#utility.yul\":2954:2969   */\n  revert\n    /* \"#utility.yul\":2981:3161   */\ntag_70:\n    /* \"#utility.yul\":3029:3106   */\n  0x4e487b7100000000000000000000000000000000000000000000000000000000\n    /* \"#utility.yul\":3026:3027   */\n  0x00\n    /* \"#utility.yul\":3019:3107   */\n  mstore\n    /* \"#utility.yul\":3126:3130   */\n  0x22\n    /* \"#utility.yul\":3123:3124   */\n  0x04\n    /* \"#utility.yul\":3116:3131   */\n  mstore\n    /* \"#utility.yul\":3150:3154   */\n  0x24\n    /* \"#utility.yul\":3147:3148   */\n  0x00\n    /* \"#utility.yul\":3140:3155   */\n  revert\n    /* \"#utility.yul\":3167:3347   */\ntag_58:\n    /* \"#utility.yul\":3215:3292   */\n  0x4e487b7100000000000000000000000000000000000000000000000000000000\n    /* \"#utility.yul\":3212:3213   */\n  0x00\n    /* \"#utility.yul\":3205:3293   */\n  mstore\n    /* \"#utility.yul\":3312:3316   */\n  0x41\n    /* \"#utility.yul\":3309:3310   */\n  0x04\n    /* \"#utility.yul\":3302:3317   */\n  mstore\n    /* \"#utility.yul\":3336:3340   */\n  0x24\n    /* \"#utility.yul\":3333:3334   */\n  0x00\n    /* \"#utility.yul\":3326:3341   */\n  revert\n    /* \"#utility.yul\":3353:3470   */\ntag_39:\n    /* \"#utility.yul\":3462:3463   */\n  0x00\n    /* \"#utility.yul\":3459:3460   */\n  dup1\n    /* \"#utility.yul\":3452:3464   */\n  revert\n    /* \"#utility.yul\":3476:3593   */\ntag_32:\n    /* \"#utility.yul\":3585:3586   */\n  0x00\n    /* \"#utility.yul\":3582:3583   */\n  dup1\n    /* \"#utility.yul\":3575:3587   */\n  revert\n    /* \"#utility.yul\":3599:3716   */\ntag_47:\n    /* \"#utility.yul\":3708:3709   */\n  0x00\n    /* \"#utility.yul\":3705:3706   */\n  dup1\n    /* \"#utility.yul\":3698:3710   */\n  revert\n    /* \"#utility.yul\":3722:3839   */\ntag_44:\n    /* \"#utility.yul\":3831:3832   */\n  0x00\n    /* \"#utility.yul\":3828:3829   */\n  dup1\n    /* \"#utility.yul\":3821:3833   */\n  revert\n    /* \"#utility.yul\":3845:3947   */\ntag_60:\n    /* \"#utility.yul\":3886:3892   */\n  0x00\n    /* \"#utility.yul\":3937:3939   */\n  0x1f\n    /* \"#utility.yul\":3933:3940   */\n  not\n    /* \"#utility.yul\":3928:3930   */\n  0x1f\n    /* \"#utility.yul\":3921:3926   */\n  dup4\n    /* \"#utility.yul\":3917:3931   */\n  add\n    /* \"#utility.yul\":3913:3941   */\n  and\n    /* \"#utility.yul\":3903:3941   */\n  swap1\n  pop\n    /* \"#utility.yul\":3845:3947   */\n  swap2\n  swap1\n  pop\n  jump\t// out\n    /* \"contracts/Voting.sol\":62:2399  contract Voting {\r... */\ntag_11:\n  dataSize(sub_0)\n  dup1\n  dataOffset(sub_0)\n  0x00\n  codecopy\n  0x00\n  return\nstop\n\nsub_0: assembly {\n        /* \"contracts/Voting.sol\":62:2399  contract Voting {\r... */\n      mstore(0x40, 0x80)\n      callvalue\n      dup1\n      iszero\n      tag_1\n      jumpi\n      0x00\n      dup1\n      revert\n    tag_1:\n      pop\n      jumpi(tag_2, lt(calldatasize, 0x04))\n      shr(0xe0, calldataload(0x00))\n      dup1\n      0x62c49251\n      gt\n      tag_17\n      jumpi\n      dup1\n      0x8949e009\n      gt\n      tag_18\n      jumpi\n      dup1\n      0x8949e009\n      eq\n      tag_13\n      jumpi\n      dup1\n      0xc19d93fb\n      eq\n      tag_14\n      jumpi\n      dup1\n      0xd9e95a98\n      eq\n      tag_15\n      jumpi\n      dup1\n      0xf276669d\n      eq\n      tag_16\n      jumpi\n      jump(tag_2)\n    tag_18:\n      dup1\n      0x62c49251\n      eq\n      tag_10\n      jumpi\n      dup1\n      0x72753be5\n      eq\n      tag_11\n      jumpi\n      dup1\n      0x80843e25\n      eq\n      tag_12\n      jumpi\n      jump(tag_2)\n    tag_17:\n      dup1\n      0x12c06342\n      gt\n      tag_19\n      jumpi\n      dup1\n      0x12c06342\n      eq\n      tag_6\n      jumpi\n      dup1\n      0x2d35a8a2\n      eq\n      tag_7\n      jumpi\n      dup1\n      0x46702b16\n      eq\n      tag_8\n      jumpi\n      dup1\n      0x5f5300ff\n      eq\n      tag_9\n      jumpi\n      jump(tag_2)\n    tag_19:\n      dup1\n      0x0132be09\n      eq\n      tag_3\n      jumpi\n      dup1\n      0x06a49fce\n      eq\n      tag_4\n      jumpi\n      dup1\n      0x0d15fd77\n      eq\n      tag_5\n      jumpi\n    tag_2:\n      0x00\n      dup1\n      revert\n        /* \"contracts/Voting.sol\":495:540  mapping (uint256 => uint256) public VoteCount */\n    tag_3:\n      tag_20\n      0x04\n      dup1\n      calldatasize\n      sub\n      dup2\n      add\n      swap1\n      tag_21\n      swap2\n      swap1\n      tag_22\n      jump\t// in\n    tag_21:\n      tag_23\n      jump\t// in\n    tag_20:\n      mload(0x40)\n      tag_24\n      swap2\n      swap1\n      tag_25\n      jump\t// in\n    tag_24:\n      mload(0x40)\n      dup1\n      swap2\n      sub\n      swap1\n      return\n        /* \"contracts/Voting.sol\":1600:1920  function getCandidates() public view returns (Candidate[] memory){\r... */\n    tag_4:\n      tag_26\n      tag_27\n      jump\t// in\n    tag_26:\n      mload(0x40)\n      tag_28\n      swap2\n      swap1\n      tag_29\n      jump\t// in\n    tag_28:\n      mload(0x40)\n      dup1\n      swap2\n      sub\n      swap1\n      return\n        /* \"contracts/Voting.sol\":744:769  uint256 public totalVotes */\n    tag_5:\n      tag_30\n      tag_31\n      jump\t// in\n    tag_30:\n      mload(0x40)\n      tag_32\n      swap2\n      swap1\n      tag_25\n      jump\t// in\n    tag_32:\n      mload(0x40)\n      dup1\n      swap2\n      sub\n      swap1\n      return\n        /* \"contracts/Voting.sol\":402:450  mapping (address => Voter) public AddressToVoter */\n    tag_6:\n      tag_33\n      0x04\n      dup1\n      calldatasize\n      sub\n      dup2\n      add\n      swap1\n      tag_34\n      swap2\n      swap1\n      tag_35\n      jump\t// in\n    tag_34:\n      tag_36\n      jump\t// in\n    tag_33:\n      mload(0x40)\n      tag_37\n      swap3\n      swap2\n      swap1\n      tag_38\n      jump\t// in\n    tag_37:\n      mload(0x40)\n      dup1\n      swap2\n      sub\n      swap1\n      return\n        /* \"contracts/Voting.sol\":670:700  uint256 public candidatesCount */\n    tag_7:\n      tag_39\n      tag_40\n      jump\t// in\n    tag_39:\n      mload(0x40)\n      tag_41\n      swap2\n      swap1\n      tag_25\n      jump\t// in\n    tag_41:\n      mload(0x40)\n      dup1\n      swap2\n      sub\n      swap1\n      return\n        /* \"contracts/Voting.sol\":605:659  mapping (string => Candidate) public SymbolToCandidate */\n    tag_8:\n      tag_42\n      0x04\n      dup1\n      calldatasize\n      sub\n      dup2\n      add\n      swap1\n      tag_43\n      swap2\n      swap1\n      tag_44\n      jump\t// in\n    tag_43:\n      tag_45\n      jump\t// in\n    tag_42:\n      mload(0x40)\n      tag_46\n      swap5\n      swap4\n      swap3\n      swap2\n      swap1\n      tag_47\n      jump\t// in\n    tag_46:\n      mload(0x40)\n      dup1\n      swap2\n      sub\n      swap1\n      return\n        /* \"contracts/Voting.sol\":711:737  uint256 public totalVoters */\n    tag_9:\n      tag_48\n      tag_49\n      jump\t// in\n    tag_48:\n      mload(0x40)\n      tag_50\n      swap2\n      swap1\n      tag_25\n      jump\t// in\n    tag_50:\n      mload(0x40)\n      dup1\n      swap2\n      sub\n      swap1\n      return\n        /* \"contracts/Voting.sol\":1103:1590  function addCandidates(address _candidateAddress, string memory _candidateName, string memory _symbol) public InState(State.Created) OfficialOnly{\r... */\n    tag_10:\n      tag_51\n      0x04\n      dup1\n      calldatasize\n      sub\n      dup2\n      add\n      swap1\n      tag_52\n      swap2\n      swap1\n      tag_53\n      jump\t// in\n    tag_52:\n      tag_54\n      jump\t// in\n    tag_51:\n      stop\n        /* \"contracts/Voting.sol\":547:598  mapping (uint256 => Candidate) public CandidateList */\n    tag_11:\n      tag_55\n      0x04\n      dup1\n      calldatasize\n      sub\n      dup2\n      add\n      swap1\n      tag_56\n      swap2\n      swap1\n      tag_22\n      jump\t// in\n    tag_56:\n      tag_57\n      jump\t// in\n    tag_55:\n      mload(0x40)\n      tag_58\n      swap5\n      swap4\n      swap3\n      swap2\n      swap1\n      tag_47\n      jump\t// in\n    tag_58:\n      mload(0x40)\n      dup1\n      swap2\n      sub\n      swap1\n      return\n        /* \"contracts/Voting.sol\":892:919  string public  ElectionName */\n    tag_12:\n      tag_59\n      tag_60\n      jump\t// in\n    tag_59:\n      mload(0x40)\n      tag_61\n      swap2\n      swap1\n      tag_62\n      jump\t// in\n    tag_61:\n      mload(0x40)\n      dup1\n      swap2\n      sub\n      swap1\n      return\n        /* \"contracts/Voting.sol\":848:879  address public OragnizerAddress */\n    tag_13:\n      tag_63\n      tag_64\n      jump\t// in\n    tag_63:\n      mload(0x40)\n      tag_65\n      swap2\n      swap1\n      tag_66\n      jump\t// in\n    tag_65:\n      mload(0x40)\n      dup1\n      swap2\n      sub\n      swap1\n      return\n        /* \"contracts/Voting.sol\":821:839  State public state */\n    tag_14:\n      tag_67\n      tag_68\n      jump\t// in\n    tag_67:\n      mload(0x40)\n      tag_69\n      swap2\n      swap1\n      tag_70\n      jump\t// in\n    tag_69:\n      mload(0x40)\n      dup1\n      swap2\n      sub\n      swap1\n      return\n        /* \"contracts/Voting.sol\":2072:2192  function addVoter(address _voterAddress, string memory _voterName) public InState(State.Created) OfficialOnly {\r... */\n    tag_15:\n      tag_71\n      0x04\n      dup1\n      calldatasize\n      sub\n      dup2\n      add\n      swap1\n      tag_72\n      swap2\n      swap1\n      tag_73\n      jump\t// in\n    tag_72:\n      tag_74\n      jump\t// in\n    tag_71:\n      stop\n        /* \"contracts/Voting.sol\":1930:2064  function getCandidate(string memory _symbol) public view returns(Candidate memory){\r... */\n    tag_16:\n      tag_75\n      0x04\n      dup1\n      calldatasize\n      sub\n      dup2\n      add\n      swap1\n      tag_76\n      swap2\n      swap1\n      tag_44\n      jump\t// in\n    tag_76:\n      tag_77\n      jump\t// in\n    tag_75:\n      mload(0x40)\n      tag_78\n      swap2\n      swap1\n      tag_79\n      jump\t// in\n    tag_78:\n      mload(0x40)\n      dup1\n      swap2\n      sub\n      swap1\n      return\n        /* \"contracts/Voting.sol\":495:540  mapping (uint256 => uint256) public VoteCount */\n    tag_23:\n      mstore(0x20, 0x02)\n      dup1\n      0x00\n      mstore\n      keccak256(0x00, 0x40)\n      0x00\n      swap2\n      pop\n      swap1\n      pop\n      sload\n      dup2\n      jump\t// out\n        /* \"contracts/Voting.sol\":1600:1920  function getCandidates() public view returns (Candidate[] memory){\r... */\n    tag_27:\n        /* \"contracts/Voting.sol\":1646:1664  Candidate[] memory */\n      0x60\n        /* \"contracts/Voting.sol\":1674:1699  Candidate[] memory trrips */\n      0x00\n        /* \"contracts/Voting.sol\":1718:1733  candidatesCount */\n      sload(0x05)\n        /* \"contracts/Voting.sol\":1702:1734  new Candidate[](candidatesCount) */\n      0xffffffffffffffff\n      dup2\n      gt\n      iszero\n      tag_81\n      jumpi\n      tag_82\n      tag_83\n      jump\t// in\n    tag_82:\n    tag_81:\n      mload(0x40)\n      swap1\n      dup1\n      dup3\n      mstore\n      dup1\n      0x20\n      mul\n      0x20\n      add\n      dup3\n      add\n      0x40\n      mstore\n      dup1\n      iszero\n      tag_84\n      jumpi\n      dup2\n      0x20\n      add\n    tag_85:\n      tag_86\n      tag_87\n      jump\t// in\n    tag_86:\n      dup2\n      mstore\n      0x20\n      add\n      swap1\n      0x01\n      swap1\n      sub\n      swap1\n      dup2\n      tag_85\n      jumpi\n      swap1\n      pop\n    tag_84:\n      pop\n        /* \"contracts/Voting.sol\":1674:1734  Candidate[] memory trrips = new Candidate[](candidatesCount) */\n      swap1\n      pop\n        /* \"contracts/Voting.sol\":1748:1754  uint i */\n      0x00\n        /* \"contracts/Voting.sol\":1743:1889  for (uint i = 0; i < candidatesCount; i++) {\r... */\n    tag_88:\n        /* \"contracts/Voting.sol\":1764:1779  candidatesCount */\n      sload(0x05)\n        /* \"contracts/Voting.sol\":1760:1761  i */\n      dup2\n        /* \"contracts/Voting.sol\":1760:1779  i < candidatesCount */\n      lt\n        /* \"contracts/Voting.sol\":1743:1889  for (uint i = 0; i < candidatesCount; i++) {\r... */\n      iszero\n      tag_89\n      jumpi\n        /* \"contracts/Voting.sol\":1799:1826  Candidate storage candidate */\n      0x00\n        /* \"contracts/Voting.sol\":1829:1842  CandidateList */\n      0x03\n        /* \"contracts/Voting.sol\":1829:1845  CandidateList[i] */\n      0x00\n        /* \"contracts/Voting.sol\":1843:1844  i */\n      dup4\n        /* \"contracts/Voting.sol\":1829:1845  CandidateList[i] */\n      dup2\n      mstore\n      0x20\n      add\n      swap1\n      dup2\n      mstore\n      0x20\n      add\n      0x00\n      keccak256\n        /* \"contracts/Voting.sol\":1799:1845  Candidate storage candidate = CandidateList[i] */\n      swap1\n      pop\n        /* \"contracts/Voting.sol\":1870:1879  candidate */\n      dup1\n        /* \"contracts/Voting.sol\":1858:1879  trrips[i] = candidate */\n      mload(0x40)\n      dup1\n      0x80\n      add\n      0x40\n      mstore\n      swap1\n      dup2\n      0x00\n      dup3\n      add\n      dup1\n      sload\n      tag_91\n      swap1\n      tag_92\n      jump\t// in\n    tag_91:\n      dup1\n      0x1f\n      add\n      0x20\n      dup1\n      swap2\n      div\n      mul\n      0x20\n      add\n      mload(0x40)\n      swap1\n      dup2\n      add\n      0x40\n      mstore\n      dup1\n      swap3\n      swap2\n      swap1\n      dup2\n      dup2\n      mstore\n      0x20\n      add\n      dup3\n      dup1\n      sload\n      tag_93\n      swap1\n      tag_92\n      jump\t// in\n    tag_93:\n      dup1\n      iszero\n      tag_94\n      jumpi\n      dup1\n      0x1f\n      lt\n      tag_95\n      jumpi\n      0x0100\n      dup1\n      dup4\n      sload\n      div\n      mul\n      dup4\n      mstore\n      swap2\n      0x20\n      add\n      swap2\n      jump(tag_94)\n    tag_95:\n      dup3\n      add\n      swap2\n      swap1\n      0x00\n      mstore\n      keccak256(0x00, 0x20)\n      swap1\n    tag_96:\n      dup2\n      sload\n      dup2\n      mstore\n      swap1\n      0x01\n      add\n      swap1\n      0x20\n      add\n      dup1\n      dup4\n      gt\n      tag_96\n      jumpi\n      dup3\n      swap1\n      sub\n      0x1f\n      and\n      dup3\n      add\n      swap2\n    tag_94:\n      pop\n      pop\n      pop\n      pop\n      pop\n      dup2\n      mstore\n      0x20\n      add\n      0x01\n      dup3\n      add\n      0x00\n      swap1\n      sload\n      swap1\n      0x0100\n      exp\n      swap1\n      div\n      0xffffffffffffffffffffffffffffffffffffffff\n      and\n      0xffffffffffffffffffffffffffffffffffffffff\n      and\n      0xffffffffffffffffffffffffffffffffffffffff\n      and\n      dup2\n      mstore\n      0x20\n      add\n      0x02\n      dup3\n      add\n      sload\n      dup2\n      mstore\n      0x20\n      add\n      0x03\n      dup3\n      add\n      dup1\n      sload\n      tag_97\n      swap1\n      tag_92\n      jump\t// in\n    tag_97:\n      dup1\n      0x1f\n      add\n      0x20\n      dup1\n      swap2\n      div\n      mul\n      0x20\n      add\n      mload(0x40)\n      swap1\n      dup2\n      add\n      0x40\n      mstore\n      dup1\n      swap3\n      swap2\n      swap1\n      dup2\n      dup2\n      mstore\n      0x20\n      add\n      dup3\n      dup1\n      sload\n      tag_98\n      swap1\n      tag_92\n      jump\t// in\n    tag_98:\n      dup1\n      iszero\n      tag_99\n      jumpi\n      dup1\n      0x1f\n      lt\n      tag_100\n      jumpi\n      0x0100\n      dup1\n      dup4\n      sload\n      div\n      mul\n      dup4\n      mstore\n      swap2\n      0x20\n      add\n      swap2\n      jump(tag_99)\n    tag_100:\n      dup3\n      add\n      swap2\n      swap1\n      0x00\n      mstore\n      keccak256(0x00, 0x20)\n      swap1\n    tag_101:\n      dup2\n      sload\n      dup2\n      mstore\n      swap1\n      0x01\n      add\n      swap1\n      0x20\n      add\n      dup1\n      dup4\n      gt\n      tag_101\n      jumpi\n      dup3\n      swap1\n      sub\n      0x1f\n      and\n      dup3\n      add\n      swap2\n    tag_99:\n      pop\n      pop\n      pop\n      pop\n      pop\n      dup2\n      mstore\n      pop\n      pop\n        /* \"contracts/Voting.sol\":1858:1864  trrips */\n      dup4\n        /* \"contracts/Voting.sol\":1865:1866  i */\n      dup4\n        /* \"contracts/Voting.sol\":1858:1867  trrips[i] */\n      dup2\n      mload\n      dup2\n      lt\n      tag_102\n      jumpi\n      tag_103\n      tag_104\n      jump\t// in\n    tag_103:\n    tag_102:\n      0x20\n      mul\n      0x20\n      add\n      add\n        /* \"contracts/Voting.sol\":1858:1879  trrips[i] = candidate */\n      dup2\n      swap1\n      mstore\n      pop\n        /* \"contracts/Voting.sol\":1786:1889  {\r... */\n      pop\n        /* \"contracts/Voting.sol\":1781:1784  i++ */\n      dup1\n      dup1\n      tag_105\n      swap1\n      tag_106\n      jump\t// in\n    tag_105:\n      swap2\n      pop\n      pop\n        /* \"contracts/Voting.sol\":1743:1889  for (uint i = 0; i < candidatesCount; i++) {\r... */\n      jump(tag_88)\n    tag_89:\n      pop\n        /* \"contracts/Voting.sol\":1904:1910  trrips */\n      dup1\n        /* \"contracts/Voting.sol\":1897:1910  return trrips */\n      swap2\n      pop\n      pop\n        /* \"contracts/Voting.sol\":1600:1920  function getCandidates() public view returns (Candidate[] memory){\r... */\n      swap1\n      jump\t// out\n        /* \"contracts/Voting.sol\":744:769  uint256 public totalVotes */\n    tag_31:\n      sload(0x07)\n      dup2\n      jump\t// out\n        /* \"contracts/Voting.sol\":402:450  mapping (address => Voter) public AddressToVoter */\n    tag_36:\n      mstore(0x20, 0x00)\n      dup1\n      0x00\n      mstore\n      keccak256(0x00, 0x40)\n      0x00\n      swap2\n      pop\n      swap1\n      pop\n      dup1\n      0x00\n      add\n      dup1\n      sload\n      tag_107\n      swap1\n      tag_92\n      jump\t// in\n    tag_107:\n      dup1\n      0x1f\n      add\n      0x20\n      dup1\n      swap2\n      div\n      mul\n      0x20\n      add\n      mload(0x40)\n      swap1\n      dup2\n      add\n      0x40\n      mstore\n      dup1\n      swap3\n      swap2\n      swap1\n      dup2\n      dup2\n      mstore\n      0x20\n      add\n      dup3\n      dup1\n      sload\n      tag_108\n      swap1\n      tag_92\n      jump\t// in\n    tag_108:\n      dup1\n      iszero\n      tag_109\n      jumpi\n      dup1\n      0x1f\n      lt\n      tag_110\n      jumpi\n      0x0100\n      dup1\n      dup4\n      sload\n      div\n      mul\n      dup4\n      mstore\n      swap2\n      0x20\n      add\n      swap2\n      jump(tag_109)\n    tag_110:\n      dup3\n      add\n      swap2\n      swap1\n      0x00\n      mstore\n      keccak256(0x00, 0x20)\n      swap1\n    tag_111:\n      dup2\n      sload\n      dup2\n      mstore\n      swap1\n      0x01\n      add\n      swap1\n      0x20\n      add\n      dup1\n      dup4\n      gt\n      tag_111\n      jumpi\n      dup3\n      swap1\n      sub\n      0x1f\n      and\n      dup3\n      add\n      swap2\n    tag_109:\n      pop\n      pop\n      pop\n      pop\n      pop\n      swap1\n      dup1\n      0x01\n      add\n      0x00\n      swap1\n      sload\n      swap1\n      0x0100\n      exp\n      swap1\n      div\n      0xff\n      and\n      swap1\n      pop\n      dup3\n      jump\t// out\n        /* \"contracts/Voting.sol\":670:700  uint256 public candidatesCount */\n    tag_40:\n      sload(0x05)\n      dup2\n      jump\t// out\n        /* \"contracts/Voting.sol\":605:659  mapping (string => Candidate) public SymbolToCandidate */\n    tag_45:\n      0x04\n      dup2\n      dup1\n      mload\n      0x20\n      dup2\n      add\n      dup3\n      add\n      dup1\n      mload\n      dup5\n      dup3\n      mstore\n      0x20\n      dup4\n      add\n      0x20\n      dup6\n      add\n      keccak256\n      dup2\n      dup4\n      mstore\n      dup1\n      swap6\n      pop\n      pop\n      pop\n      pop\n      pop\n      pop\n      0x00\n      swap2\n      pop\n      swap1\n      pop\n      dup1\n      0x00\n      add\n      dup1\n      sload\n      tag_112\n      swap1\n      tag_92\n      jump\t// in\n    tag_112:\n      dup1\n      0x1f\n      add\n      0x20\n      dup1\n      swap2\n      div\n      mul\n      0x20\n      add\n      mload(0x40)\n      swap1\n      dup2\n      add\n      0x40\n      mstore\n      dup1\n      swap3\n      swap2\n      swap1\n      dup2\n      dup2\n      mstore\n      0x20\n      add\n      dup3\n      dup1\n      sload\n      tag_113\n      swap1\n      tag_92\n      jump\t// in\n    tag_113:\n      dup1\n      iszero\n      tag_114\n      jumpi\n      dup1\n      0x1f\n      lt\n      tag_115\n      jumpi\n      0x0100\n      dup1\n      dup4\n      sload\n      div\n      mul\n      dup4\n      mstore\n      swap2\n      0x20\n      add\n      swap2\n      jump(tag_114)\n    tag_115:\n      dup3\n      add\n      swap2\n      swap1\n      0x00\n      mstore\n      keccak256(0x00, 0x20)\n      swap1\n    tag_116:\n      dup2\n      sload\n      dup2\n      mstore\n      swap1\n      0x01\n      add\n      swap1\n      0x20\n      add\n      dup1\n      dup4\n      gt\n      tag_116\n      jumpi\n      dup3\n      swap1\n      sub\n      0x1f\n      and\n      dup3\n      add\n      swap2\n    tag_114:\n      pop\n      pop\n      pop\n      pop\n      pop\n      swap1\n      dup1\n      0x01\n      add\n      0x00\n      swap1\n      sload\n      swap1\n      0x0100\n      exp\n      swap1\n      div\n      0xffffffffffffffffffffffffffffffffffffffff\n      and\n      swap1\n      dup1\n      0x02\n      add\n      sload\n      swap1\n      dup1\n      0x03\n      add\n      dup1\n      sload\n      tag_117\n      swap1\n      tag_92\n      jump\t// in\n    tag_117:\n      dup1\n      0x1f\n      add\n      0x20\n      dup1\n      swap2\n      div\n      mul\n      0x20\n      add\n      mload(0x40)\n      swap1\n      dup2\n      add\n      0x40\n      mstore\n      dup1\n      swap3\n      swap2\n      swap1\n      dup2\n      dup2\n      mstore\n      0x20\n      add\n      dup3\n      dup1\n      sload\n      tag_118\n      swap1\n      tag_92\n      jump\t// in\n    tag_118:\n      dup1\n      iszero\n      tag_119\n      jumpi\n      dup1\n      0x1f\n      lt\n      tag_120\n      jumpi\n      0x0100\n      dup1\n      dup4\n      sload\n      div\n      mul\n      dup4\n      mstore\n      swap2\n      0x20\n      add\n      swap2\n      jump(tag_119)\n    tag_120:\n      dup3\n      add\n      swap2\n      swap1\n      0x00\n      mstore\n      keccak256(0x00, 0x20)\n      swap1\n    tag_121:\n      dup2\n      sload\n      dup2\n      mstore\n      swap1\n      0x01\n      add\n      swap1\n      0x20\n      add\n      dup1\n      dup4\n      gt\n      tag_121\n      jumpi\n      dup3\n      swap1\n      sub\n      0x1f\n      and\n      dup3\n      add\n      swap2\n    tag_119:\n      pop\n      pop\n      pop\n      pop\n      pop\n      swap1\n      pop\n      dup5\n      jump\t// out\n        /* \"contracts/Voting.sol\":711:737  uint256 public totalVoters */\n    tag_49:\n      sload(0x06)\n      dup2\n      jump\t// out\n        /* \"contracts/Voting.sol\":1103:1590  function addCandidates(address _candidateAddress, string memory _candidateName, string memory _symbol) public InState(State.Created) OfficialOnly{\r... */\n    tag_54:\n        /* \"contracts/Voting.sol\":1221:1234  State.Created */\n      0x00\n        /* \"contracts/Voting.sol\":2260:2266  _state */\n      dup1\n        /* \"contracts/Voting.sol\":2251:2266  state == _state */\n      0x02\n      dup2\n      gt\n      iszero\n      tag_123\n      jumpi\n      tag_124\n      tag_125\n      jump\t// in\n    tag_124:\n    tag_123:\n        /* \"contracts/Voting.sol\":2251:2256  state */\n      0x08\n      0x00\n      swap1\n      sload\n      swap1\n      0x0100\n      exp\n      swap1\n      div\n      0xff\n      and\n        /* \"contracts/Voting.sol\":2251:2266  state == _state */\n      0x02\n      dup2\n      gt\n      iszero\n      tag_126\n      jumpi\n      tag_127\n      tag_125\n      jump\t// in\n    tag_127:\n    tag_126:\n      eq\n        /* \"contracts/Voting.sol\":2243:2267  require(state == _state) */\n      tag_128\n      jumpi\n      0x00\n      dup1\n      revert\n    tag_128:\n        /* \"contracts/Voting.sol\":2359:2369  msg.sender */\n      caller\n        /* \"contracts/Voting.sol\":2339:2369  OragnizerAddress == msg.sender */\n      0xffffffffffffffffffffffffffffffffffffffff\n      and\n        /* \"contracts/Voting.sol\":2339:2355  OragnizerAddress */\n      0x08\n      0x01\n      swap1\n      sload\n      swap1\n      0x0100\n      exp\n      swap1\n      div\n      0xffffffffffffffffffffffffffffffffffffffff\n      and\n        /* \"contracts/Voting.sol\":2339:2369  OragnizerAddress == msg.sender */\n      0xffffffffffffffffffffffffffffffffffffffff\n      and\n      eq\n        /* \"contracts/Voting.sol\":2330:2370  require( OragnizerAddress == msg.sender) */\n      tag_130\n      jumpi\n      0x00\n      dup1\n      revert\n    tag_130:\n        /* \"contracts/Voting.sol\":1259:1285  Candidate memory candidate */\n      tag_132\n      tag_87\n      jump\t// in\n    tag_132:\n        /* \"contracts/Voting.sol\":1325:1342  _candidateAddress */\n      dup5\n        /* \"contracts/Voting.sol\":1296:1305  candidate */\n      dup2\n        /* \"contracts/Voting.sol\":1296:1322  candidate.candidateAddress */\n      0x20\n      add\n        /* \"contracts/Voting.sol\":1296:1342  candidate.candidateAddress = _candidateAddress */\n      swap1\n      0xffffffffffffffffffffffffffffffffffffffff\n      and\n      swap1\n      dup2\n      0xffffffffffffffffffffffffffffffffffffffff\n      and\n      dup2\n      mstore\n      pop\n      pop\n        /* \"contracts/Voting.sol\":1379:1393  _candidateName */\n      dup4\n        /* \"contracts/Voting.sol\":1353:1362  candidate */\n      dup2\n        /* \"contracts/Voting.sol\":1353:1376  candidate.candidateName */\n      0x00\n      add\n        /* \"contracts/Voting.sol\":1353:1393  candidate.candidateName = _candidateName */\n      dup2\n      swap1\n      mstore\n      pop\n        /* \"contracts/Voting.sol\":1423:1430  _symbol */\n      dup3\n        /* \"contracts/Voting.sol\":1404:1413  candidate */\n      dup2\n        /* \"contracts/Voting.sol\":1404:1420  candidate.symbol */\n      0x60\n      add\n        /* \"contracts/Voting.sol\":1404:1430  candidate.symbol = _symbol */\n      dup2\n      swap1\n      mstore\n      pop\n        /* \"contracts/Voting.sol\":1474:1483  candidate */\n      dup1\n        /* \"contracts/Voting.sol\":1441:1454  CandidateList */\n      0x03\n        /* \"contracts/Voting.sol\":1441:1471  CandidateList[candidatesCount] */\n      0x00\n        /* \"contracts/Voting.sol\":1455:1470  candidatesCount */\n      sload(0x05)\n        /* \"contracts/Voting.sol\":1441:1471  CandidateList[candidatesCount] */\n      dup2\n      mstore\n      0x20\n      add\n      swap1\n      dup2\n      mstore\n      0x20\n      add\n      0x00\n      keccak256\n        /* \"contracts/Voting.sol\":1441:1483  CandidateList[candidatesCount] = candidate */\n      0x00\n      dup3\n      add\n      mload\n      dup2\n      0x00\n      add\n      swap1\n      dup1\n      mload\n      swap1\n      0x20\n      add\n      swap1\n      tag_133\n      swap3\n      swap2\n      swap1\n      tag_134\n      jump\t// in\n    tag_133:\n      pop\n      0x20\n      dup3\n      add\n      mload\n      dup2\n      0x01\n      add\n      exp(0x0100, 0x00)\n      dup2\n      sload\n      dup2\n      0xffffffffffffffffffffffffffffffffffffffff\n      mul\n      not\n      and\n      swap1\n      dup4\n      0xffffffffffffffffffffffffffffffffffffffff\n      and\n      mul\n      or\n      swap1\n      sstore\n      pop\n      0x40\n      dup3\n      add\n      mload\n      dup2\n      0x02\n      add\n      sstore\n      0x60\n      dup3\n      add\n      mload\n      dup2\n      0x03\n      add\n      swap1\n      dup1\n      mload\n      swap1\n      0x20\n      add\n      swap1\n      tag_135\n      swap3\n      swap2\n      swap1\n      tag_134\n      jump\t// in\n    tag_135:\n      pop\n      swap1\n      pop\n      pop\n        /* \"contracts/Voting.sol\":1523:1532  candidate */\n      dup1\n        /* \"contracts/Voting.sol\":1494:1511  SymbolToCandidate */\n      0x04\n        /* \"contracts/Voting.sol\":1512:1519  _symbol */\n      dup5\n        /* \"contracts/Voting.sol\":1494:1520  SymbolToCandidate[_symbol] */\n      mload(0x40)\n      tag_136\n      swap2\n      swap1\n      tag_137\n      jump\t// in\n    tag_136:\n      swap1\n      dup2\n      mstore\n      0x20\n      add\n      mload(0x40)\n      dup1\n      swap2\n      sub\n      swap1\n      keccak256\n        /* \"contracts/Voting.sol\":1494:1532  SymbolToCandidate[_symbol] = candidate */\n      0x00\n      dup3\n      add\n      mload\n      dup2\n      0x00\n      add\n      swap1\n      dup1\n      mload\n      swap1\n      0x20\n      add\n      swap1\n      tag_138\n      swap3\n      swap2\n      swap1\n      tag_134\n      jump\t// in\n    tag_138:\n      pop\n      0x20\n      dup3\n      add\n      mload\n      dup2\n      0x01\n      add\n      exp(0x0100, 0x00)\n      dup2\n      sload\n      dup2\n      0xffffffffffffffffffffffffffffffffffffffff\n      mul\n      not\n      and\n      swap1\n      dup4\n      0xffffffffffffffffffffffffffffffffffffffff\n      and\n      mul\n      or\n      swap1\n      sstore\n      pop\n      0x40\n      dup3\n      add\n      mload\n      dup2\n      0x02\n      add\n      sstore\n      0x60\n      dup3\n      add\n      mload\n      dup2\n      0x03\n      add\n      swap1\n      dup1\n      mload\n      swap1\n      0x20\n      add\n      swap1\n      tag_139\n      swap3\n      swap2\n      swap1\n      tag_134\n      jump\t// in\n    tag_139:\n      pop\n      swap1\n      pop\n      pop\n        /* \"contracts/Voting.sol\":1579:1580  1 */\n      0x01\n        /* \"contracts/Voting.sol\":1561:1576  candidatesCount */\n      sload(0x05)\n        /* \"contracts/Voting.sol\":1561:1580  candidatesCount + 1 */\n      tag_140\n      swap2\n      swap1\n      tag_141\n      jump\t// in\n    tag_140:\n        /* \"contracts/Voting.sol\":1543:1558  candidatesCount */\n      0x05\n        /* \"contracts/Voting.sol\":1543:1580  candidatesCount = candidatesCount + 1 */\n      dup2\n      swap1\n      sstore\n      pop\n        /* \"contracts/Voting.sol\":1248:1590  {\r... */\n      pop\n        /* \"contracts/Voting.sol\":1103:1590  function addCandidates(address _candidateAddress, string memory _candidateName, string memory _symbol) public InState(State.Created) OfficialOnly{\r... */\n      pop\n      pop\n      pop\n      pop\n      jump\t// out\n        /* \"contracts/Voting.sol\":547:598  mapping (uint256 => Candidate) public CandidateList */\n    tag_57:\n      mstore(0x20, 0x03)\n      dup1\n      0x00\n      mstore\n      keccak256(0x00, 0x40)\n      0x00\n      swap2\n      pop\n      swap1\n      pop\n      dup1\n      0x00\n      add\n      dup1\n      sload\n      tag_142\n      swap1\n      tag_92\n      jump\t// in\n    tag_142:\n      dup1\n      0x1f\n      add\n      0x20\n      dup1\n      swap2\n      div\n      mul\n      0x20\n      add\n      mload(0x40)\n      swap1\n      dup2\n      add\n      0x40\n      mstore\n      dup1\n      swap3\n      swap2\n      swap1\n      dup2\n      dup2\n      mstore\n      0x20\n      add\n      dup3\n      dup1\n      sload\n      tag_143\n      swap1\n      tag_92\n      jump\t// in\n    tag_143:\n      dup1\n      iszero\n      tag_144\n      jumpi\n      dup1\n      0x1f\n      lt\n      tag_145\n      jumpi\n      0x0100\n      dup1\n      dup4\n      sload\n      div\n      mul\n      dup4\n      mstore\n      swap2\n      0x20\n      add\n      swap2\n      jump(tag_144)\n    tag_145:\n      dup3\n      add\n      swap2\n      swap1\n      0x00\n      mstore\n      keccak256(0x00, 0x20)\n      swap1\n    tag_146:\n      dup2\n      sload\n      dup2\n      mstore\n      swap1\n      0x01\n      add\n      swap1\n      0x20\n      add\n      dup1\n      dup4\n      gt\n      tag_146\n      jumpi\n      dup3\n      swap1\n      sub\n      0x1f\n      and\n      dup3\n      add\n      swap2\n    tag_144:\n      pop\n      pop\n      pop\n      pop\n      pop\n      swap1\n      dup1\n      0x01\n      add\n      0x00\n      swap1\n      sload\n      swap1\n      0x0100\n      exp\n      swap1\n      div\n      0xffffffffffffffffffffffffffffffffffffffff\n      and\n      swap1\n      dup1\n      0x02\n      add\n      sload\n      swap1\n      dup1\n      0x03\n      add\n      dup1\n      sload\n      tag_147\n      swap1\n      tag_92\n      jump\t// in\n    tag_147:\n      dup1\n      0x1f\n      add\n      0x20\n      dup1\n      swap2\n      div\n      mul\n      0x20\n      add\n      mload(0x40)\n      swap1\n      dup2\n      add\n      0x40\n      mstore\n      dup1\n      swap3\n      swap2\n      swap1\n      dup2\n      dup2\n      mstore\n      0x20\n      add\n      dup3\n      dup1\n      sload\n      tag_148\n      swap1\n      tag_92\n      jump\t// in\n    tag_148:\n      dup1\n      iszero\n      tag_149\n      jumpi\n      dup1\n      0x1f\n      lt\n      tag_150\n      jumpi\n      0x0100\n      dup1\n      dup4\n      sload\n      div\n      mul\n      dup4\n      mstore\n      swap2\n      0x20\n      add\n      swap2\n      jump(tag_149)\n    tag_150:\n      dup3\n      add\n      swap2\n      swap1\n      0x00\n      mstore\n      keccak256(0x00, 0x20)\n      swap1\n    tag_151:\n      dup2\n      sload\n      dup2\n      mstore\n      swap1\n      0x01\n      add\n      swap1\n      0x20\n      add\n      dup1\n      dup4\n      gt\n      tag_151\n      jumpi\n      dup3\n      swap1\n      sub\n      0x1f\n      and\n      dup3\n      add\n      swap2\n    tag_149:\n      pop\n      pop\n      pop\n      pop\n      pop\n      swap1\n      pop\n      dup5\n      jump\t// out\n        /* \"contracts/Voting.sol\":892:919  string public  ElectionName */\n    tag_60:\n      0x09\n      dup1\n      sload\n      tag_152\n      swap1\n      tag_92\n      jump\t// in\n    tag_152:\n      dup1\n      0x1f\n      add\n      0x20\n      dup1\n      swap2\n      div\n      mul\n      0x20\n      add\n      mload(0x40)\n      swap1\n      dup2\n      add\n      0x40\n      mstore\n      dup1\n      swap3\n      swap2\n      swap1\n      dup2\n      dup2\n      mstore\n      0x20\n      add\n      dup3\n      dup1\n      sload\n      tag_153\n      swap1\n      tag_92\n      jump\t// in\n    tag_153:\n      dup1\n      iszero\n      tag_154\n      jumpi\n      dup1\n      0x1f\n      lt\n      tag_155\n      jumpi\n      0x0100\n      dup1\n      dup4\n      sload\n      div\n      mul\n      dup4\n      mstore\n      swap2\n      0x20\n      add\n      swap2\n      jump(tag_154)\n    tag_155:\n      dup3\n      add\n      swap2\n      swap1\n      0x00\n      mstore\n      keccak256(0x00, 0x20)\n      swap1\n    tag_156:\n      dup2\n      sload\n      dup2\n      mstore\n      swap1\n      0x01\n      add\n      swap1\n      0x20\n      add\n      dup1\n      dup4\n      gt\n      tag_156\n      jumpi\n      dup3\n      swap1\n      sub\n      0x1f\n      and\n      dup3\n      add\n      swap2\n    tag_154:\n      pop\n      pop\n      pop\n      pop\n      pop\n      dup2\n      jump\t// out\n        /* \"contracts/Voting.sol\":848:879  address public OragnizerAddress */\n    tag_64:\n      0x08\n      0x01\n      swap1\n      sload\n      swap1\n      0x0100\n      exp\n      swap1\n      div\n      0xffffffffffffffffffffffffffffffffffffffff\n      and\n      dup2\n      jump\t// out\n        /* \"contracts/Voting.sol\":821:839  State public state */\n    tag_68:\n      0x08\n      0x00\n      swap1\n      sload\n      swap1\n      0x0100\n      exp\n      swap1\n      div\n      0xff\n      and\n      dup2\n      jump\t// out\n        /* \"contracts/Voting.sol\":2072:2192  function addVoter(address _voterAddress, string memory _voterName) public InState(State.Created) OfficialOnly {\r... */\n    tag_74:\n        /* \"contracts/Voting.sol\":2154:2167  State.Created */\n      0x00\n        /* \"contracts/Voting.sol\":2260:2266  _state */\n      dup1\n        /* \"contracts/Voting.sol\":2251:2266  state == _state */\n      0x02\n      dup2\n      gt\n      iszero\n      tag_158\n      jumpi\n      tag_159\n      tag_125\n      jump\t// in\n    tag_159:\n    tag_158:\n        /* \"contracts/Voting.sol\":2251:2256  state */\n      0x08\n      0x00\n      swap1\n      sload\n      swap1\n      0x0100\n      exp\n      swap1\n      div\n      0xff\n      and\n        /* \"contracts/Voting.sol\":2251:2266  state == _state */\n      0x02\n      dup2\n      gt\n      iszero\n      tag_160\n      jumpi\n      tag_161\n      tag_125\n      jump\t// in\n    tag_161:\n    tag_160:\n      eq\n        /* \"contracts/Voting.sol\":2243:2267  require(state == _state) */\n      tag_162\n      jumpi\n      0x00\n      dup1\n      revert\n    tag_162:\n        /* \"contracts/Voting.sol\":2359:2369  msg.sender */\n      caller\n        /* \"contracts/Voting.sol\":2339:2369  OragnizerAddress == msg.sender */\n      0xffffffffffffffffffffffffffffffffffffffff\n      and\n        /* \"contracts/Voting.sol\":2339:2355  OragnizerAddress */\n      0x08\n      0x01\n      swap1\n      sload\n      swap1\n      0x0100\n      exp\n      swap1\n      div\n      0xffffffffffffffffffffffffffffffffffffffff\n      and\n        /* \"contracts/Voting.sol\":2339:2369  OragnizerAddress == msg.sender */\n      0xffffffffffffffffffffffffffffffffffffffff\n      and\n      eq\n        /* \"contracts/Voting.sol\":2330:2370  require( OragnizerAddress == msg.sender) */\n      tag_164\n      jumpi\n      0x00\n      dup1\n      revert\n    tag_164:\n        /* \"contracts/Voting.sol\":2072:2192  function addVoter(address _voterAddress, string memory _voterName) public InState(State.Created) OfficialOnly {\r... */\n      pop\n      pop\n      pop\n      jump\t// out\n        /* \"contracts/Voting.sol\":1930:2064  function getCandidate(string memory _symbol) public view returns(Candidate memory){\r... */\n    tag_77:\n        /* \"contracts/Voting.sol\":1995:2011  Candidate memory */\n      tag_166\n      tag_87\n      jump\t// in\n    tag_166:\n        /* \"contracts/Voting.sol\":2030:2047  SymbolToCandidate */\n      0x04\n        /* \"contracts/Voting.sol\":2048:2055  _symbol */\n      dup3\n        /* \"contracts/Voting.sol\":2030:2056  SymbolToCandidate[_symbol] */\n      mload(0x40)\n      tag_168\n      swap2\n      swap1\n      tag_137\n      jump\t// in\n    tag_168:\n      swap1\n      dup2\n      mstore\n      0x20\n      add\n      mload(0x40)\n      dup1\n      swap2\n      sub\n      swap1\n      keccak256\n        /* \"contracts/Voting.sol\":2023:2056  return SymbolToCandidate[_symbol] */\n      mload(0x40)\n      dup1\n      0x80\n      add\n      0x40\n      mstore\n      swap1\n      dup2\n      0x00\n      dup3\n      add\n      dup1\n      sload\n      tag_169\n      swap1\n      tag_92\n      jump\t// in\n    tag_169:\n      dup1\n      0x1f\n      add\n      0x20\n      dup1\n      swap2\n      div\n      mul\n      0x20\n      add\n      mload(0x40)\n      swap1\n      dup2\n      add\n      0x40\n      mstore\n      dup1\n      swap3\n      swap2\n      swap1\n      dup2\n      dup2\n      mstore\n      0x20\n      add\n      dup3\n      dup1\n      sload\n      tag_170\n      swap1\n      tag_92\n      jump\t// in\n    tag_170:\n      dup1\n      iszero\n      tag_171\n      jumpi\n      dup1\n      0x1f\n      lt\n      tag_172\n      jumpi\n      0x0100\n      dup1\n      dup4\n      sload\n      div\n      mul\n      dup4\n      mstore\n      swap2\n      0x20\n      add\n      swap2\n      jump(tag_171)\n    tag_172:\n      dup3\n      add\n      swap2\n      swap1\n      0x00\n      mstore\n      keccak256(0x00, 0x20)\n      swap1\n    tag_173:\n      dup2\n      sload\n      dup2\n      mstore\n      swap1\n      0x01\n      add\n      swap1\n      0x20\n      add\n      dup1\n      dup4\n      gt\n      tag_173\n      jumpi\n      dup3\n      swap1\n      sub\n      0x1f\n      and\n      dup3\n      add\n      swap2\n    tag_171:\n      pop\n      pop\n      pop\n      pop\n      pop\n      dup2\n      mstore\n      0x20\n      add\n      0x01\n      dup3\n      add\n      0x00\n      swap1\n      sload\n      swap1\n      0x0100\n      exp\n      swap1\n      div\n      0xffffffffffffffffffffffffffffffffffffffff\n      and\n      0xffffffffffffffffffffffffffffffffffffffff\n      and\n      0xffffffffffffffffffffffffffffffffffffffff\n      and\n      dup2\n      mstore\n      0x20\n      add\n      0x02\n      dup3\n      add\n      sload\n      dup2\n      mstore\n      0x20\n      add\n      0x03\n      dup3\n      add\n      dup1\n      sload\n      tag_174\n      swap1\n      tag_92\n      jump\t// in\n    tag_174:\n      dup1\n      0x1f\n      add\n      0x20\n      dup1\n      swap2\n      div\n      mul\n      0x20\n      add\n      mload(0x40)\n      swap1\n      dup2\n      add\n      0x40\n      mstore\n      dup1\n      swap3\n      swap2\n      swap1\n      dup2\n      dup2\n      mstore\n      0x20\n      add\n      dup3\n      dup1\n      sload\n      tag_175\n      swap1\n      tag_92\n      jump\t// in\n    tag_175:\n      dup1\n      iszero\n      tag_176\n      jumpi\n      dup1\n      0x1f\n      lt\n      tag_177\n      jumpi\n      0x0100\n      dup1\n      dup4\n      sload\n      div\n      mul\n      dup4\n      mstore\n      swap2\n      0x20\n      add\n      swap2\n      jump(tag_176)\n    tag_177:\n      dup3\n      add\n      swap2\n      swap1\n      0x00\n      mstore\n      keccak256(0x00, 0x20)\n      swap1\n    tag_178:\n      dup2\n      sload\n      dup2\n      mstore\n      swap1\n      0x01\n      add\n      swap1\n      0x20\n      add\n      dup1\n      dup4\n      gt\n      tag_178\n      jumpi\n      dup3\n      swap1\n      sub\n      0x1f\n      and\n      dup3\n      add\n      swap2\n    tag_176:\n      pop\n      pop\n      pop\n      pop\n      pop\n      dup2\n      mstore\n      pop\n      pop\n      swap1\n      pop\n        /* \"contracts/Voting.sol\":1930:2064  function getCandidate(string memory _symbol) public view returns(Candidate memory){\r... */\n      swap2\n      swap1\n      pop\n      jump\t// out\n    tag_87:\n      mload(0x40)\n      dup1\n      0x80\n      add\n      0x40\n      mstore\n      dup1\n      0x60\n      dup2\n      mstore\n      0x20\n      add\n      and(0xffffffffffffffffffffffffffffffffffffffff, 0x00)\n      dup2\n      mstore\n      0x20\n      add\n      0x00\n      dup2\n      mstore\n      0x20\n      add\n      0x60\n      dup2\n      mstore\n      pop\n      swap1\n      jump\t// out\n    tag_134:\n      dup3\n      dup1\n      sload\n      tag_179\n      swap1\n      tag_92\n      jump\t// in\n    tag_179:\n      swap1\n      0x00\n      mstore\n      keccak256(0x00, 0x20)\n      swap1\n      0x1f\n      add\n      0x20\n      swap1\n      div\n      dup2\n      add\n      swap3\n      dup3\n      tag_181\n      jumpi\n      0x00\n      dup6\n      sstore\n      jump(tag_180)\n    tag_181:\n      dup3\n      0x1f\n      lt\n      tag_182\n      jumpi\n      dup1\n      mload\n      not(0xff)\n      and\n      dup4\n      dup1\n      add\n      or\n      dup6\n      sstore\n      jump(tag_180)\n    tag_182:\n      dup3\n      dup1\n      add\n      0x01\n      add\n      dup6\n      sstore\n      dup3\n      iszero\n      tag_180\n      jumpi\n      swap2\n      dup3\n      add\n    tag_183:\n      dup3\n      dup2\n      gt\n      iszero\n      tag_184\n      jumpi\n      dup3\n      mload\n      dup3\n      sstore\n      swap2\n      0x20\n      add\n      swap2\n      swap1\n      0x01\n      add\n      swap1\n      jump(tag_183)\n    tag_184:\n    tag_180:\n      pop\n      swap1\n      pop\n      tag_185\n      swap2\n      swap1\n      tag_186\n      jump\t// in\n    tag_185:\n      pop\n      swap1\n      jump\t// out\n    tag_186:\n    tag_187:\n      dup1\n      dup3\n      gt\n      iszero\n      tag_188\n      jumpi\n      0x00\n      dup2\n      0x00\n      swap1\n      sstore\n      pop\n      0x01\n      add\n      jump(tag_187)\n    tag_188:\n      pop\n      swap1\n      jump\t// out\n        /* \"#utility.yul\":7:419   */\n    tag_190:\n        /* \"#utility.yul\":85:90   */\n      0x00\n        /* \"#utility.yul\":110:176   */\n      tag_192\n        /* \"#utility.yul\":126:175   */\n      tag_193\n        /* \"#utility.yul\":168:174   */\n      dup5\n        /* \"#utility.yul\":126:175   */\n      tag_194\n      jump\t// in\n    tag_193:\n        /* \"#utility.yul\":110:176   */\n      tag_195\n      jump\t// in\n    tag_192:\n        /* \"#utility.yul\":101:176   */\n      swap1\n      pop\n        /* \"#utility.yul\":199:205   */\n      dup3\n        /* \"#utility.yul\":192:197   */\n      dup2\n        /* \"#utility.yul\":185:206   */\n      mstore\n        /* \"#utility.yul\":237:241   */\n      0x20\n        /* \"#utility.yul\":230:235   */\n      dup2\n        /* \"#utility.yul\":226:242   */\n      add\n        /* \"#utility.yul\":275:278   */\n      dup5\n        /* \"#utility.yul\":266:272   */\n      dup5\n        /* \"#utility.yul\":261:264   */\n      dup5\n        /* \"#utility.yul\":257:273   */\n      add\n        /* \"#utility.yul\":254:279   */\n      gt\n        /* \"#utility.yul\":251:363   */\n      iszero\n      tag_196\n      jumpi\n        /* \"#utility.yul\":282:361   */\n      tag_197\n      tag_198\n      jump\t// in\n    tag_197:\n        /* \"#utility.yul\":251:363   */\n    tag_196:\n        /* \"#utility.yul\":372:413   */\n      tag_199\n        /* \"#utility.yul\":406:412   */\n      dup5\n        /* \"#utility.yul\":401:404   */\n      dup3\n        /* \"#utility.yul\":396:399   */\n      dup6\n        /* \"#utility.yul\":372:413   */\n      tag_200\n      jump\t// in\n    tag_199:\n        /* \"#utility.yul\":91:419   */\n      pop\n        /* \"#utility.yul\":7:419   */\n      swap4\n      swap3\n      pop\n      pop\n      pop\n      jump\t// out\n        /* \"#utility.yul\":425:564   */\n    tag_201:\n        /* \"#utility.yul\":471:476   */\n      0x00\n        /* \"#utility.yul\":509:515   */\n      dup2\n        /* \"#utility.yul\":496:516   */\n      calldataload\n        /* \"#utility.yul\":487:516   */\n      swap1\n      pop\n        /* \"#utility.yul\":525:558   */\n      tag_203\n        /* \"#utility.yul\":552:557   */\n      dup2\n        /* \"#utility.yul\":525:558   */\n      tag_204\n      jump\t// in\n    tag_203:\n        /* \"#utility.yul\":425:564   */\n      swap3\n      swap2\n      pop\n      pop\n      jump\t// out\n        /* \"#utility.yul\":584:924   */\n    tag_205:\n        /* \"#utility.yul\":640:645   */\n      0x00\n        /* \"#utility.yul\":689:692   */\n      dup3\n        /* \"#utility.yul\":682:686   */\n      0x1f\n        /* \"#utility.yul\":674:680   */\n      dup4\n        /* \"#utility.yul\":670:687   */\n      add\n        /* \"#utility.yul\":666:693   */\n      slt\n        /* \"#utility.yul\":656:778   */\n      tag_207\n      jumpi\n        /* \"#utility.yul\":697:776   */\n      tag_208\n      tag_209\n      jump\t// in\n    tag_208:\n        /* \"#utility.yul\":656:778   */\n    tag_207:\n        /* \"#utility.yul\":814:820   */\n      dup2\n        /* \"#utility.yul\":801:821   */\n      calldataload\n        /* \"#utility.yul\":839:918   */\n      tag_210\n        /* \"#utility.yul\":914:917   */\n      dup5\n        /* \"#utility.yul\":906:912   */\n      dup3\n        /* \"#utility.yul\":899:903   */\n      0x20\n        /* \"#utility.yul\":891:897   */\n      dup7\n        /* \"#utility.yul\":887:904   */\n      add\n        /* \"#utility.yul\":839:918   */\n      tag_190\n      jump\t// in\n    tag_210:\n        /* \"#utility.yul\":830:918   */\n      swap2\n      pop\n        /* \"#utility.yul\":646:924   */\n      pop\n        /* \"#utility.yul\":584:924   */\n      swap3\n      swap2\n      pop\n      pop\n      jump\t// out\n        /* \"#utility.yul\":930:1069   */\n    tag_211:\n        /* \"#utility.yul\":976:981   */\n      0x00\n        /* \"#utility.yul\":1014:1020   */\n      dup2\n        /* \"#utility.yul\":1001:1021   */\n      calldataload\n        /* \"#utility.yul\":992:1021   */\n      swap1\n      pop\n        /* \"#utility.yul\":1030:1063   */\n      tag_213\n        /* \"#utility.yul\":1057:1062   */\n      dup2\n        /* \"#utility.yul\":1030:1063   */\n      tag_214\n      jump\t// in\n    tag_213:\n        /* \"#utility.yul\":930:1069   */\n      swap3\n      swap2\n      pop\n      pop\n      jump\t// out\n        /* \"#utility.yul\":1075:1404   */\n    tag_35:\n        /* \"#utility.yul\":1134:1140   */\n      0x00\n        /* \"#utility.yul\":1183:1185   */\n      0x20\n        /* \"#utility.yul\":1171:1180   */\n      dup3\n        /* \"#utility.yul\":1162:1169   */\n      dup5\n        /* \"#utility.yul\":1158:1181   */\n      sub\n        /* \"#utility.yul\":1154:1186   */\n      slt\n        /* \"#utility.yul\":1151:1270   */\n      iszero\n      tag_216\n      jumpi\n        /* \"#utility.yul\":1189:1268   */\n      tag_217\n      tag_218\n      jump\t// in\n    tag_217:\n        /* \"#utility.yul\":1151:1270   */\n    tag_216:\n        /* \"#utility.yul\":1309:1310   */\n      0x00\n        /* \"#utility.yul\":1334:1387   */\n      tag_219\n        /* \"#utility.yul\":1379:1386   */\n      dup5\n        /* \"#utility.yul\":1370:1376   */\n      dup3\n        /* \"#utility.yul\":1359:1368   */\n      dup6\n        /* \"#utility.yul\":1355:1377   */\n      add\n        /* \"#utility.yul\":1334:1387   */\n      tag_201\n      jump\t// in\n    tag_219:\n        /* \"#utility.yul\":1324:1387   */\n      swap2\n      pop\n        /* \"#utility.yul\":1280:1397   */\n      pop\n        /* \"#utility.yul\":1075:1404   */\n      swap3\n      swap2\n      pop\n      pop\n      jump\t// out\n        /* \"#utility.yul\":1410:2064   */\n    tag_73:\n        /* \"#utility.yul\":1488:1494   */\n      0x00\n        /* \"#utility.yul\":1496:1502   */\n      dup1\n        /* \"#utility.yul\":1545:1547   */\n      0x40\n        /* \"#utility.yul\":1533:1542   */\n      dup4\n        /* \"#utility.yul\":1524:1531   */\n      dup6\n        /* \"#utility.yul\":1520:1543   */\n      sub\n        /* \"#utility.yul\":1516:1548   */\n      slt\n        /* \"#utility.yul\":1513:1632   */\n      iszero\n      tag_221\n      jumpi\n        /* \"#utility.yul\":1551:1630   */\n      tag_222\n      tag_218\n      jump\t// in\n    tag_222:\n        /* \"#utility.yul\":1513:1632   */\n    tag_221:\n        /* \"#utility.yul\":1671:1672   */\n      0x00\n        /* \"#utility.yul\":1696:1749   */\n      tag_223\n        /* \"#utility.yul\":1741:1748   */\n      dup6\n        /* \"#utility.yul\":1732:1738   */\n      dup3\n        /* \"#utility.yul\":1721:1730   */\n      dup7\n        /* \"#utility.yul\":1717:1739   */\n      add\n        /* \"#utility.yul\":1696:1749   */\n      tag_201\n      jump\t// in\n    tag_223:\n        /* \"#utility.yul\":1686:1749   */\n      swap3\n      pop\n        /* \"#utility.yul\":1642:1759   */\n      pop\n        /* \"#utility.yul\":1826:1828   */\n      0x20\n        /* \"#utility.yul\":1815:1824   */\n      dup4\n        /* \"#utility.yul\":1811:1829   */\n      add\n        /* \"#utility.yul\":1798:1830   */\n      calldataload\n        /* \"#utility.yul\":1857:1875   */\n      0xffffffffffffffff\n        /* \"#utility.yul\":1849:1855   */\n      dup2\n        /* \"#utility.yul\":1846:1876   */\n      gt\n        /* \"#utility.yul\":1843:1960   */\n      iszero\n      tag_224\n      jumpi\n        /* \"#utility.yul\":1879:1958   */\n      tag_225\n      tag_226\n      jump\t// in\n    tag_225:\n        /* \"#utility.yul\":1843:1960   */\n    tag_224:\n        /* \"#utility.yul\":1984:2047   */\n      tag_227\n        /* \"#utility.yul\":2039:2046   */\n      dup6\n        /* \"#utility.yul\":2030:2036   */\n      dup3\n        /* \"#utility.yul\":2019:2028   */\n      dup7\n        /* \"#utility.yul\":2015:2037   */\n      add\n        /* \"#utility.yul\":1984:2047   */\n      tag_205\n      jump\t// in\n    tag_227:\n        /* \"#utility.yul\":1974:2047   */\n      swap2\n      pop\n        /* \"#utility.yul\":1769:2057   */\n      pop\n        /* \"#utility.yul\":1410:2064   */\n      swap3\n      pop\n      swap3\n      swap1\n      pop\n      jump\t// out\n        /* \"#utility.yul\":2070:3049   */\n    tag_53:\n        /* \"#utility.yul\":2167:2173   */\n      0x00\n        /* \"#utility.yul\":2175:2181   */\n      dup1\n        /* \"#utility.yul\":2183:2189   */\n      0x00\n        /* \"#utility.yul\":2232:2234   */\n      0x60\n        /* \"#utility.yul\":2220:2229   */\n      dup5\n        /* \"#utility.yul\":2211:2218   */\n      dup7\n        /* \"#utility.yul\":2207:2230   */\n      sub\n        /* \"#utility.yul\":2203:2235   */\n      slt\n        /* \"#utility.yul\":2200:2319   */\n      iszero\n      tag_229\n      jumpi\n        /* \"#utility.yul\":2238:2317   */\n      tag_230\n      tag_218\n      jump\t// in\n    tag_230:\n        /* \"#utility.yul\":2200:2319   */\n    tag_229:\n        /* \"#utility.yul\":2358:2359   */\n      0x00\n        /* \"#utility.yul\":2383:2436   */\n      tag_231\n        /* \"#utility.yul\":2428:2435   */\n      dup7\n        /* \"#utility.yul\":2419:2425   */\n      dup3\n        /* \"#utility.yul\":2408:2417   */\n      dup8\n        /* \"#utility.yul\":2404:2426   */\n      add\n        /* \"#utility.yul\":2383:2436   */\n      tag_201\n      jump\t// in\n    tag_231:\n        /* \"#utility.yul\":2373:2436   */\n      swap4\n      pop\n        /* \"#utility.yul\":2329:2446   */\n      pop\n        /* \"#utility.yul\":2513:2515   */\n      0x20\n        /* \"#utility.yul\":2502:2511   */\n      dup5\n        /* \"#utility.yul\":2498:2516   */\n      add\n        /* \"#utility.yul\":2485:2517   */\n      calldataload\n        /* \"#utility.yul\":2544:2562   */\n      0xffffffffffffffff\n        /* \"#utility.yul\":2536:2542   */\n      dup2\n        /* \"#utility.yul\":2533:2563   */\n      gt\n        /* \"#utility.yul\":2530:2647   */\n      iszero\n      tag_232\n      jumpi\n        /* \"#utility.yul\":2566:2645   */\n      tag_233\n      tag_226\n      jump\t// in\n    tag_233:\n        /* \"#utility.yul\":2530:2647   */\n    tag_232:\n        /* \"#utility.yul\":2671:2734   */\n      tag_234\n        /* \"#utility.yul\":2726:2733   */\n      dup7\n        /* \"#utility.yul\":2717:2723   */\n      dup3\n        /* \"#utility.yul\":2706:2715   */\n      dup8\n        /* \"#utility.yul\":2702:2724   */\n      add\n        /* \"#utility.yul\":2671:2734   */\n      tag_205\n      jump\t// in\n    tag_234:\n        /* \"#utility.yul\":2661:2734   */\n      swap3\n      pop\n        /* \"#utility.yul\":2456:2744   */\n      pop\n        /* \"#utility.yul\":2811:2813   */\n      0x40\n        /* \"#utility.yul\":2800:2809   */\n      dup5\n        /* \"#utility.yul\":2796:2814   */\n      add\n        /* \"#utility.yul\":2783:2815   */\n      calldataload\n        /* \"#utility.yul\":2842:2860   */\n      0xffffffffffffffff\n        /* \"#utility.yul\":2834:2840   */\n      dup2\n        /* \"#utility.yul\":2831:2861   */\n      gt\n        /* \"#utility.yul\":2828:2945   */\n      iszero\n      tag_235\n      jumpi\n        /* \"#utility.yul\":2864:2943   */\n      tag_236\n      tag_226\n      jump\t// in\n    tag_236:\n        /* \"#utility.yul\":2828:2945   */\n    tag_235:\n        /* \"#utility.yul\":2969:3032   */\n      tag_237\n        /* \"#utility.yul\":3024:3031   */\n      dup7\n        /* \"#utility.yul\":3015:3021   */\n      dup3\n        /* \"#utility.yul\":3004:3013   */\n      dup8\n        /* \"#utility.yul\":3000:3022   */\n      add\n        /* \"#utility.yul\":2969:3032   */\n      tag_205\n      jump\t// in\n    tag_237:\n        /* \"#utility.yul\":2959:3032   */\n      swap2\n      pop\n        /* \"#utility.yul\":2754:3042   */\n      pop\n        /* \"#utility.yul\":2070:3049   */\n      swap3\n      pop\n      swap3\n      pop\n      swap3\n      jump\t// out\n        /* \"#utility.yul\":3055:3564   */\n    tag_44:\n        /* \"#utility.yul\":3124:3130   */\n      0x00\n        /* \"#utility.yul\":3173:3175   */\n      0x20\n        /* \"#utility.yul\":3161:3170   */\n      dup3\n        /* \"#utility.yul\":3152:3159   */\n      dup5\n        /* \"#utility.yul\":3148:3171   */\n      sub\n        /* \"#utility.yul\":3144:3176   */\n      slt\n        /* \"#utility.yul\":3141:3260   */\n      iszero\n      tag_239\n      jumpi\n        /* \"#utility.yul\":3179:3258   */\n      tag_240\n      tag_218\n      jump\t// in\n    tag_240:\n        /* \"#utility.yul\":3141:3260   */\n    tag_239:\n        /* \"#utility.yul\":3327:3328   */\n      0x00\n        /* \"#utility.yul\":3316:3325   */\n      dup3\n        /* \"#utility.yul\":3312:3329   */\n      add\n        /* \"#utility.yul\":3299:3330   */\n      calldataload\n        /* \"#utility.yul\":3357:3375   */\n      0xffffffffffffffff\n        /* \"#utility.yul\":3349:3355   */\n      dup2\n        /* \"#utility.yul\":3346:3376   */\n      gt\n        /* \"#utility.yul\":3343:3460   */\n      iszero\n      tag_241\n      jumpi\n        /* \"#utility.yul\":3379:3458   */\n      tag_242\n      tag_226\n      jump\t// in\n    tag_242:\n        /* \"#utility.yul\":3343:3460   */\n    tag_241:\n        /* \"#utility.yul\":3484:3547   */\n      tag_243\n        /* \"#utility.yul\":3539:3546   */\n      dup5\n        /* \"#utility.yul\":3530:3536   */\n      dup3\n        /* \"#utility.yul\":3519:3528   */\n      dup6\n        /* \"#utility.yul\":3515:3537   */\n      add\n        /* \"#utility.yul\":3484:3547   */\n      tag_205\n      jump\t// in\n    tag_243:\n        /* \"#utility.yul\":3474:3547   */\n      swap2\n      pop\n        /* \"#utility.yul\":3270:3557   */\n      pop\n        /* \"#utility.yul\":3055:3564   */\n      swap3\n      swap2\n      pop\n      pop\n      jump\t// out\n        /* \"#utility.yul\":3570:3899   */\n    tag_22:\n        /* \"#utility.yul\":3629:3635   */\n      0x00\n        /* \"#utility.yul\":3678:3680   */\n      0x20\n        /* \"#utility.yul\":3666:3675   */\n      dup3\n        /* \"#utility.yul\":3657:3664   */\n      dup5\n        /* \"#utility.yul\":3653:3676   */\n      sub\n        /* \"#utility.yul\":3649:3681   */\n      slt\n        /* \"#utility.yul\":3646:3765   */\n      iszero\n      tag_245\n      jumpi\n        /* \"#utility.yul\":3684:3763   */\n      tag_246\n      tag_218\n      jump\t// in\n    tag_246:\n        /* \"#utility.yul\":3646:3765   */\n    tag_245:\n        /* \"#utility.yul\":3804:3805   */\n      0x00\n        /* \"#utility.yul\":3829:3882   */\n      tag_247\n        /* \"#utility.yul\":3874:3881   */\n      dup5\n        /* \"#utility.yul\":3865:3871   */\n      dup3\n        /* \"#utility.yul\":3854:3863   */\n      dup6\n        /* \"#utility.yul\":3850:3872   */\n      add\n        /* \"#utility.yul\":3829:3882   */\n      tag_211\n      jump\t// in\n    tag_247:\n        /* \"#utility.yul\":3819:3882   */\n      swap2\n      pop\n        /* \"#utility.yul\":3775:3892   */\n      pop\n        /* \"#utility.yul\":3570:3899   */\n      swap3\n      swap2\n      pop\n      pop\n      jump\t// out\n        /* \"#utility.yul\":3905:4161   */\n    tag_248:\n        /* \"#utility.yul\":4024:4034   */\n      0x00\n        /* \"#utility.yul\":4059:4155   */\n      tag_250\n        /* \"#utility.yul\":4151:4154   */\n      dup4\n        /* \"#utility.yul\":4143:4149   */\n      dup4\n        /* \"#utility.yul\":4059:4155   */\n      tag_251\n      jump\t// in\n    tag_250:\n        /* \"#utility.yul\":4045:4155   */\n      swap1\n      pop\n        /* \"#utility.yul\":3905:4161   */\n      swap3\n      swap2\n      pop\n      pop\n      jump\t// out\n        /* \"#utility.yul\":4167:4275   */\n    tag_252:\n        /* \"#utility.yul\":4244:4268   */\n      tag_254\n        /* \"#utility.yul\":4262:4267   */\n      dup2\n        /* \"#utility.yul\":4244:4268   */\n      tag_255\n      jump\t// in\n    tag_254:\n        /* \"#utility.yul\":4239:4242   */\n      dup3\n        /* \"#utility.yul\":4232:4269   */\n      mstore\n        /* \"#utility.yul\":4167:4275   */\n      pop\n      pop\n      jump\t// out\n        /* \"#utility.yul\":4281:4399   */\n    tag_256:\n        /* \"#utility.yul\":4368:4392   */\n      tag_258\n        /* \"#utility.yul\":4386:4391   */\n      dup2\n        /* \"#utility.yul\":4368:4392   */\n      tag_255\n      jump\t// in\n    tag_258:\n        /* \"#utility.yul\":4363:4366   */\n      dup3\n        /* \"#utility.yul\":4356:4393   */\n      mstore\n        /* \"#utility.yul\":4281:4399   */\n      pop\n      pop\n      jump\t// out\n        /* \"#utility.yul\":4467:5578   */\n    tag_259:\n        /* \"#utility.yul\":4636:4639   */\n      0x00\n        /* \"#utility.yul\":4665:4744   */\n      tag_261\n        /* \"#utility.yul\":4738:4743   */\n      dup3\n        /* \"#utility.yul\":4665:4744   */\n      tag_262\n      jump\t// in\n    tag_261:\n        /* \"#utility.yul\":4760:4871   */\n      tag_263\n        /* \"#utility.yul\":4864:4870   */\n      dup2\n        /* \"#utility.yul\":4859:4862   */\n      dup6\n        /* \"#utility.yul\":4760:4871   */\n      tag_264\n      jump\t// in\n    tag_263:\n        /* \"#utility.yul\":4753:4871   */\n      swap4\n      pop\n        /* \"#utility.yul\":4897:4900   */\n      dup4\n        /* \"#utility.yul\":4942:4946   */\n      0x20\n        /* \"#utility.yul\":4934:4940   */\n      dup3\n        /* \"#utility.yul\":4930:4947   */\n      mul\n        /* \"#utility.yul\":4925:4928   */\n      dup6\n        /* \"#utility.yul\":4921:4948   */\n      add\n        /* \"#utility.yul\":4972:5053   */\n      tag_265\n        /* \"#utility.yul\":5047:5052   */\n      dup6\n        /* \"#utility.yul\":4972:5053   */\n      tag_266\n      jump\t// in\n    tag_265:\n        /* \"#utility.yul\":5076:5083   */\n      dup1\n        /* \"#utility.yul\":5107:5108   */\n      0x00\n        /* \"#utility.yul\":5092:5533   */\n    tag_267:\n        /* \"#utility.yul\":5117:5123   */\n      dup6\n        /* \"#utility.yul\":5114:5115   */\n      dup2\n        /* \"#utility.yul\":5111:5124   */\n      lt\n        /* \"#utility.yul\":5092:5533   */\n      iszero\n      tag_269\n      jumpi\n        /* \"#utility.yul\":5188:5197   */\n      dup5\n        /* \"#utility.yul\":5182:5186   */\n      dup5\n        /* \"#utility.yul\":5178:5198   */\n      sub\n        /* \"#utility.yul\":5173:5176   */\n      dup10\n        /* \"#utility.yul\":5166:5199   */\n      mstore\n        /* \"#utility.yul\":5239:5245   */\n      dup2\n        /* \"#utility.yul\":5233:5246   */\n      mload\n        /* \"#utility.yul\":5267:5381   */\n      tag_270\n        /* \"#utility.yul\":5376:5380   */\n      dup6\n        /* \"#utility.yul\":5361:5374   */\n      dup3\n        /* \"#utility.yul\":5267:5381   */\n      tag_248\n      jump\t// in\n    tag_270:\n        /* \"#utility.yul\":5259:5381   */\n      swap5\n      pop\n        /* \"#utility.yul\":5404:5489   */\n      tag_271\n        /* \"#utility.yul\":5482:5488   */\n      dup4\n        /* \"#utility.yul\":5404:5489   */\n      tag_272\n      jump\t// in\n    tag_271:\n        /* \"#utility.yul\":5394:5489   */\n      swap3\n      pop\n        /* \"#utility.yul\":5518:5522   */\n      0x20\n        /* \"#utility.yul\":5513:5516   */\n      dup11\n        /* \"#utility.yul\":5509:5523   */\n      add\n        /* \"#utility.yul\":5502:5523   */\n      swap10\n      pop\n        /* \"#utility.yul\":5152:5533   */\n      pop\n        /* \"#utility.yul\":5139:5140   */\n      0x01\n        /* \"#utility.yul\":5136:5137   */\n      dup2\n        /* \"#utility.yul\":5132:5141   */\n      add\n        /* \"#utility.yul\":5127:5141   */\n      swap1\n      pop\n        /* \"#utility.yul\":5092:5533   */\n      jump(tag_267)\n    tag_269:\n        /* \"#utility.yul\":5096:5110   */\n      pop\n        /* \"#utility.yul\":5549:5553   */\n      dup3\n        /* \"#utility.yul\":5542:5553   */\n      swap8\n      pop\n        /* \"#utility.yul\":5569:5572   */\n      dup8\n        /* \"#utility.yul\":5562:5572   */\n      swap6\n      pop\n        /* \"#utility.yul\":4641:5578   */\n      pop\n      pop\n      pop\n      pop\n      pop\n        /* \"#utility.yul\":4467:5578   */\n      swap3\n      swap2\n      pop\n      pop\n      jump\t// out\n        /* \"#utility.yul\":5584:5693   */\n    tag_273:\n        /* \"#utility.yul\":5665:5686   */\n      tag_275\n        /* \"#utility.yul\":5680:5685   */\n      dup2\n        /* \"#utility.yul\":5665:5686   */\n      tag_276\n      jump\t// in\n    tag_275:\n        /* \"#utility.yul\":5660:5663   */\n      dup3\n        /* \"#utility.yul\":5653:5687   */\n      mstore\n        /* \"#utility.yul\":5584:5693   */\n      pop\n      pop\n      jump\t// out\n        /* \"#utility.yul\":5699:5842   */\n    tag_277:\n        /* \"#utility.yul\":5792:5835   */\n      tag_279\n        /* \"#utility.yul\":5829:5834   */\n      dup2\n        /* \"#utility.yul\":5792:5835   */\n      tag_280\n      jump\t// in\n    tag_279:\n        /* \"#utility.yul\":5787:5790   */\n      dup3\n        /* \"#utility.yul\":5780:5836   */\n      mstore\n        /* \"#utility.yul\":5699:5842   */\n      pop\n      pop\n      jump\t// out\n        /* \"#utility.yul\":5848:6192   */\n    tag_281:\n        /* \"#utility.yul\":5926:5929   */\n      0x00\n        /* \"#utility.yul\":5954:5993   */\n      tag_283\n        /* \"#utility.yul\":5987:5992   */\n      dup3\n        /* \"#utility.yul\":5954:5993   */\n      tag_284\n      jump\t// in\n    tag_283:\n        /* \"#utility.yul\":6009:6070   */\n      tag_285\n        /* \"#utility.yul\":6063:6069   */\n      dup2\n        /* \"#utility.yul\":6058:6061   */\n      dup6\n        /* \"#utility.yul\":6009:6070   */\n      tag_286\n      jump\t// in\n    tag_285:\n        /* \"#utility.yul\":6002:6070   */\n      swap4\n      pop\n        /* \"#utility.yul\":6079:6131   */\n      tag_287\n        /* \"#utility.yul\":6124:6130   */\n      dup2\n        /* \"#utility.yul\":6119:6122   */\n      dup6\n        /* \"#utility.yul\":6112:6116   */\n      0x20\n        /* \"#utility.yul\":6105:6110   */\n      dup7\n        /* \"#utility.yul\":6101:6117   */\n      add\n        /* \"#utility.yul\":6079:6131   */\n      tag_288\n      jump\t// in\n    tag_287:\n        /* \"#utility.yul\":6156:6185   */\n      tag_289\n        /* \"#utility.yul\":6178:6184   */\n      dup2\n        /* \"#utility.yul\":6156:6185   */\n      tag_290\n      jump\t// in\n    tag_289:\n        /* \"#utility.yul\":6151:6154   */\n      dup5\n        /* \"#utility.yul\":6147:6186   */\n      add\n        /* \"#utility.yul\":6140:6186   */\n      swap2\n      pop\n        /* \"#utility.yul\":5930:6192   */\n      pop\n        /* \"#utility.yul\":5848:6192   */\n      swap3\n      swap2\n      pop\n      pop\n      jump\t// out\n        /* \"#utility.yul\":6198:6562   */\n    tag_291:\n        /* \"#utility.yul\":6286:6289   */\n      0x00\n        /* \"#utility.yul\":6314:6353   */\n      tag_293\n        /* \"#utility.yul\":6347:6352   */\n      dup3\n        /* \"#utility.yul\":6314:6353   */\n      tag_284\n      jump\t// in\n    tag_293:\n        /* \"#utility.yul\":6369:6440   */\n      tag_294\n        /* \"#utility.yul\":6433:6439   */\n      dup2\n        /* \"#utility.yul\":6428:6431   */\n      dup6\n        /* \"#utility.yul\":6369:6440   */\n      tag_295\n      jump\t// in\n    tag_294:\n        /* \"#utility.yul\":6362:6440   */\n      swap4\n      pop\n        /* \"#utility.yul\":6449:6501   */\n      tag_296\n        /* \"#utility.yul\":6494:6500   */\n      dup2\n        /* \"#utility.yul\":6489:6492   */\n      dup6\n        /* \"#utility.yul\":6482:6486   */\n      0x20\n        /* \"#utility.yul\":6475:6480   */\n      dup7\n        /* \"#utility.yul\":6471:6487   */\n      add\n        /* \"#utility.yul\":6449:6501   */\n      tag_288\n      jump\t// in\n    tag_296:\n        /* \"#utility.yul\":6526:6555   */\n      tag_297\n        /* \"#utility.yul\":6548:6554   */\n      dup2\n        /* \"#utility.yul\":6526:6555   */\n      tag_290\n      jump\t// in\n    tag_297:\n        /* \"#utility.yul\":6521:6524   */\n      dup5\n        /* \"#utility.yul\":6517:6556   */\n      add\n        /* \"#utility.yul\":6510:6556   */\n      swap2\n      pop\n        /* \"#utility.yul\":6290:6562   */\n      pop\n        /* \"#utility.yul\":6198:6562   */\n      swap3\n      swap2\n      pop\n      pop\n      jump\t// out\n        /* \"#utility.yul\":6568:6945   */\n    tag_298:\n        /* \"#utility.yul\":6674:6677   */\n      0x00\n        /* \"#utility.yul\":6702:6741   */\n      tag_300\n        /* \"#utility.yul\":6735:6740   */\n      dup3\n        /* \"#utility.yul\":6702:6741   */\n      tag_284\n      jump\t// in\n    tag_300:\n        /* \"#utility.yul\":6757:6846   */\n      tag_301\n        /* \"#utility.yul\":6839:6845   */\n      dup2\n        /* \"#utility.yul\":6834:6837   */\n      dup6\n        /* \"#utility.yul\":6757:6846   */\n      tag_302\n      jump\t// in\n    tag_301:\n        /* \"#utility.yul\":6750:6846   */\n      swap4\n      pop\n        /* \"#utility.yul\":6855:6907   */\n      tag_303\n        /* \"#utility.yul\":6900:6906   */\n      dup2\n        /* \"#utility.yul\":6895:6898   */\n      dup6\n        /* \"#utility.yul\":6888:6892   */\n      0x20\n        /* \"#utility.yul\":6881:6886   */\n      dup7\n        /* \"#utility.yul\":6877:6893   */\n      add\n        /* \"#utility.yul\":6855:6907   */\n      tag_288\n      jump\t// in\n    tag_303:\n        /* \"#utility.yul\":6932:6938   */\n      dup1\n        /* \"#utility.yul\":6927:6930   */\n      dup5\n        /* \"#utility.yul\":6923:6939   */\n      add\n        /* \"#utility.yul\":6916:6939   */\n      swap2\n      pop\n        /* \"#utility.yul\":6678:6945   */\n      pop\n        /* \"#utility.yul\":6568:6945   */\n      swap3\n      swap2\n      pop\n      pop\n      jump\t// out\n        /* \"#utility.yul\":7009:8056   */\n    tag_251:\n        /* \"#utility.yul\":7118:7121   */\n      0x00\n        /* \"#utility.yul\":7154:7158   */\n      0x80\n        /* \"#utility.yul\":7149:7152   */\n      dup4\n        /* \"#utility.yul\":7145:7159   */\n      add\n        /* \"#utility.yul\":7250:7254   */\n      0x00\n        /* \"#utility.yul\":7243:7248   */\n      dup4\n        /* \"#utility.yul\":7239:7255   */\n      add\n        /* \"#utility.yul\":7233:7256   */\n      mload\n        /* \"#utility.yul\":7303:7306   */\n      dup5\n        /* \"#utility.yul\":7297:7301   */\n      dup3\n        /* \"#utility.yul\":7293:7307   */\n      sub\n        /* \"#utility.yul\":7286:7290   */\n      0x00\n        /* \"#utility.yul\":7281:7284   */\n      dup7\n        /* \"#utility.yul\":7277:7291   */\n      add\n        /* \"#utility.yul\":7270:7308   */\n      mstore\n        /* \"#utility.yul\":7329:7402   */\n      tag_305\n        /* \"#utility.yul\":7397:7401   */\n      dup3\n        /* \"#utility.yul\":7383:7395   */\n      dup3\n        /* \"#utility.yul\":7329:7402   */\n      tag_281\n      jump\t// in\n    tag_305:\n        /* \"#utility.yul\":7321:7402   */\n      swap2\n      pop\n        /* \"#utility.yul\":7169:7413   */\n      pop\n        /* \"#utility.yul\":7507:7511   */\n      0x20\n        /* \"#utility.yul\":7500:7505   */\n      dup4\n        /* \"#utility.yul\":7496:7512   */\n      add\n        /* \"#utility.yul\":7490:7513   */\n      mload\n        /* \"#utility.yul\":7526:7589   */\n      tag_306\n        /* \"#utility.yul\":7583:7587   */\n      0x20\n        /* \"#utility.yul\":7578:7581   */\n      dup7\n        /* \"#utility.yul\":7574:7588   */\n      add\n        /* \"#utility.yul\":7560:7572   */\n      dup3\n        /* \"#utility.yul\":7526:7589   */\n      tag_252\n      jump\t// in\n    tag_306:\n        /* \"#utility.yul\":7423:7599   */\n      pop\n        /* \"#utility.yul\":7690:7694   */\n      0x40\n        /* \"#utility.yul\":7683:7688   */\n      dup4\n        /* \"#utility.yul\":7679:7695   */\n      add\n        /* \"#utility.yul\":7673:7696   */\n      mload\n        /* \"#utility.yul\":7709:7772   */\n      tag_307\n        /* \"#utility.yul\":7766:7770   */\n      0x40\n        /* \"#utility.yul\":7761:7764   */\n      dup7\n        /* \"#utility.yul\":7757:7771   */\n      add\n        /* \"#utility.yul\":7743:7755   */\n      dup3\n        /* \"#utility.yul\":7709:7772   */\n      tag_308\n      jump\t// in\n    tag_307:\n        /* \"#utility.yul\":7609:7782   */\n      pop\n        /* \"#utility.yul\":7866:7870   */\n      0x60\n        /* \"#utility.yul\":7859:7864   */\n      dup4\n        /* \"#utility.yul\":7855:7871   */\n      add\n        /* \"#utility.yul\":7849:7872   */\n      mload\n        /* \"#utility.yul\":7919:7922   */\n      dup5\n        /* \"#utility.yul\":7913:7917   */\n      dup3\n        /* \"#utility.yul\":7909:7923   */\n      sub\n        /* \"#utility.yul\":7902:7906   */\n      0x60\n        /* \"#utility.yul\":7897:7900   */\n      dup7\n        /* \"#utility.yul\":7893:7907   */\n      add\n        /* \"#utility.yul\":7886:7924   */\n      mstore\n        /* \"#utility.yul\":7945:8018   */\n      tag_309\n        /* \"#utility.yul\":8013:8017   */\n      dup3\n        /* \"#utility.yul\":7999:8011   */\n      dup3\n        /* \"#utility.yul\":7945:8018   */\n      tag_281\n      jump\t// in\n    tag_309:\n        /* \"#utility.yul\":7937:8018   */\n      swap2\n      pop\n        /* \"#utility.yul\":7792:8029   */\n      pop\n        /* \"#utility.yul\":8046:8050   */\n      dup1\n        /* \"#utility.yul\":8039:8050   */\n      swap2\n      pop\n        /* \"#utility.yul\":7123:8056   */\n      pop\n        /* \"#utility.yul\":7009:8056   */\n      swap3\n      swap2\n      pop\n      pop\n      jump\t// out\n        /* \"#utility.yul\":8120:9177   */\n    tag_310:\n        /* \"#utility.yul\":8239:8242   */\n      0x00\n        /* \"#utility.yul\":8275:8279   */\n      0x80\n        /* \"#utility.yul\":8270:8273   */\n      dup4\n        /* \"#utility.yul\":8266:8280   */\n      add\n        /* \"#utility.yul\":8371:8375   */\n      0x00\n        /* \"#utility.yul\":8364:8369   */\n      dup4\n        /* \"#utility.yul\":8360:8376   */\n      add\n        /* \"#utility.yul\":8354:8377   */\n      mload\n        /* \"#utility.yul\":8424:8427   */\n      dup5\n        /* \"#utility.yul\":8418:8422   */\n      dup3\n        /* \"#utility.yul\":8414:8428   */\n      sub\n        /* \"#utility.yul\":8407:8411   */\n      0x00\n        /* \"#utility.yul\":8402:8405   */\n      dup7\n        /* \"#utility.yul\":8398:8412   */\n      add\n        /* \"#utility.yul\":8391:8429   */\n      mstore\n        /* \"#utility.yul\":8450:8523   */\n      tag_312\n        /* \"#utility.yul\":8518:8522   */\n      dup3\n        /* \"#utility.yul\":8504:8516   */\n      dup3\n        /* \"#utility.yul\":8450:8523   */\n      tag_281\n      jump\t// in\n    tag_312:\n        /* \"#utility.yul\":8442:8523   */\n      swap2\n      pop\n        /* \"#utility.yul\":8290:8534   */\n      pop\n        /* \"#utility.yul\":8628:8632   */\n      0x20\n        /* \"#utility.yul\":8621:8626   */\n      dup4\n        /* \"#utility.yul\":8617:8633   */\n      add\n        /* \"#utility.yul\":8611:8634   */\n      mload\n        /* \"#utility.yul\":8647:8710   */\n      tag_313\n        /* \"#utility.yul\":8704:8708   */\n      0x20\n        /* \"#utility.yul\":8699:8702   */\n      dup7\n        /* \"#utility.yul\":8695:8709   */\n      add\n        /* \"#utility.yul\":8681:8693   */\n      dup3\n        /* \"#utility.yul\":8647:8710   */\n      tag_252\n      jump\t// in\n    tag_313:\n        /* \"#utility.yul\":8544:8720   */\n      pop\n        /* \"#utility.yul\":8811:8815   */\n      0x40\n        /* \"#utility.yul\":8804:8809   */\n      dup4\n        /* \"#utility.yul\":8800:8816   */\n      add\n        /* \"#utility.yul\":8794:8817   */\n      mload\n        /* \"#utility.yul\":8830:8893   */\n      tag_314\n        /* \"#utility.yul\":8887:8891   */\n      0x40\n        /* \"#utility.yul\":8882:8885   */\n      dup7\n        /* \"#utility.yul\":8878:8892   */\n      add\n        /* \"#utility.yul\":8864:8876   */\n      dup3\n        /* \"#utility.yul\":8830:8893   */\n      tag_308\n      jump\t// in\n    tag_314:\n        /* \"#utility.yul\":8730:8903   */\n      pop\n        /* \"#utility.yul\":8987:8991   */\n      0x60\n        /* \"#utility.yul\":8980:8985   */\n      dup4\n        /* \"#utility.yul\":8976:8992   */\n      add\n        /* \"#utility.yul\":8970:8993   */\n      mload\n        /* \"#utility.yul\":9040:9043   */\n      dup5\n        /* \"#utility.yul\":9034:9038   */\n      dup3\n        /* \"#utility.yul\":9030:9044   */\n      sub\n        /* \"#utility.yul\":9023:9027   */\n      0x60\n        /* \"#utility.yul\":9018:9021   */\n      dup7\n        /* \"#utility.yul\":9014:9028   */\n      add\n        /* \"#utility.yul\":9007:9045   */\n      mstore\n        /* \"#utility.yul\":9066:9139   */\n      tag_315\n        /* \"#utility.yul\":9134:9138   */\n      dup3\n        /* \"#utility.yul\":9120:9132   */\n      dup3\n        /* \"#utility.yul\":9066:9139   */\n      tag_281\n      jump\t// in\n    tag_315:\n        /* \"#utility.yul\":9058:9139   */\n      swap2\n      pop\n        /* \"#utility.yul\":8913:9150   */\n      pop\n        /* \"#utility.yul\":9167:9171   */\n      dup1\n        /* \"#utility.yul\":9160:9171   */\n      swap2\n      pop\n        /* \"#utility.yul\":8244:9177   */\n      pop\n        /* \"#utility.yul\":8120:9177   */\n      swap3\n      swap2\n      pop\n      pop\n      jump\t// out\n        /* \"#utility.yul\":9183:9291   */\n    tag_308:\n        /* \"#utility.yul\":9260:9284   */\n      tag_317\n        /* \"#utility.yul\":9278:9283   */\n      dup2\n        /* \"#utility.yul\":9260:9284   */\n      tag_318\n      jump\t// in\n    tag_317:\n        /* \"#utility.yul\":9255:9258   */\n      dup3\n        /* \"#utility.yul\":9248:9285   */\n      mstore\n        /* \"#utility.yul\":9183:9291   */\n      pop\n      pop\n      jump\t// out\n        /* \"#utility.yul\":9297:9415   */\n    tag_319:\n        /* \"#utility.yul\":9384:9408   */\n      tag_321\n        /* \"#utility.yul\":9402:9407   */\n      dup2\n        /* \"#utility.yul\":9384:9408   */\n      tag_318\n      jump\t// in\n    tag_321:\n        /* \"#utility.yul\":9379:9382   */\n      dup3\n        /* \"#utility.yul\":9372:9409   */\n      mstore\n        /* \"#utility.yul\":9297:9415   */\n      pop\n      pop\n      jump\t// out\n        /* \"#utility.yul\":9421:9696   */\n    tag_137:\n        /* \"#utility.yul\":9553:9556   */\n      0x00\n        /* \"#utility.yul\":9575:9670   */\n      tag_323\n        /* \"#utility.yul\":9666:9669   */\n      dup3\n        /* \"#utility.yul\":9657:9663   */\n      dup5\n        /* \"#utility.yul\":9575:9670   */\n      tag_298\n      jump\t// in\n    tag_323:\n        /* \"#utility.yul\":9568:9670   */\n      swap2\n      pop\n        /* \"#utility.yul\":9687:9690   */\n      dup2\n        /* \"#utility.yul\":9680:9690   */\n      swap1\n      pop\n        /* \"#utility.yul\":9421:9696   */\n      swap3\n      swap2\n      pop\n      pop\n      jump\t// out\n        /* \"#utility.yul\":9702:9924   */\n    tag_66:\n        /* \"#utility.yul\":9795:9799   */\n      0x00\n        /* \"#utility.yul\":9833:9835   */\n      0x20\n        /* \"#utility.yul\":9822:9831   */\n      dup3\n        /* \"#utility.yul\":9818:9836   */\n      add\n        /* \"#utility.yul\":9810:9836   */\n      swap1\n      pop\n        /* \"#utility.yul\":9846:9917   */\n      tag_325\n        /* \"#utility.yul\":9914:9915   */\n      0x00\n        /* \"#utility.yul\":9903:9912   */\n      dup4\n        /* \"#utility.yul\":9899:9916   */\n      add\n        /* \"#utility.yul\":9890:9896   */\n      dup5\n        /* \"#utility.yul\":9846:9917   */\n      tag_256\n      jump\t// in\n    tag_325:\n        /* \"#utility.yul\":9702:9924   */\n      swap3\n      swap2\n      pop\n      pop\n      jump\t// out\n        /* \"#utility.yul\":9930:10403   */\n    tag_29:\n        /* \"#utility.yul\":10123:10127   */\n      0x00\n        /* \"#utility.yul\":10161:10163   */\n      0x20\n        /* \"#utility.yul\":10150:10159   */\n      dup3\n        /* \"#utility.yul\":10146:10164   */\n      add\n        /* \"#utility.yul\":10138:10164   */\n      swap1\n      pop\n        /* \"#utility.yul\":10210:10219   */\n      dup2\n        /* \"#utility.yul\":10204:10208   */\n      dup2\n        /* \"#utility.yul\":10200:10220   */\n      sub\n        /* \"#utility.yul\":10196:10197   */\n      0x00\n        /* \"#utility.yul\":10185:10194   */\n      dup4\n        /* \"#utility.yul\":10181:10198   */\n      add\n        /* \"#utility.yul\":10174:10221   */\n      mstore\n        /* \"#utility.yul\":10238:10396   */\n      tag_327\n        /* \"#utility.yul\":10391:10395   */\n      dup2\n        /* \"#utility.yul\":10382:10388   */\n      dup5\n        /* \"#utility.yul\":10238:10396   */\n      tag_259\n      jump\t// in\n    tag_327:\n        /* \"#utility.yul\":10230:10396   */\n      swap1\n      pop\n        /* \"#utility.yul\":9930:10403   */\n      swap3\n      swap2\n      pop\n      pop\n      jump\t// out\n        /* \"#utility.yul\":10409:10643   */\n    tag_70:\n        /* \"#utility.yul\":10508:10512   */\n      0x00\n        /* \"#utility.yul\":10546:10548   */\n      0x20\n        /* \"#utility.yul\":10535:10544   */\n      dup3\n        /* \"#utility.yul\":10531:10549   */\n      add\n        /* \"#utility.yul\":10523:10549   */\n      swap1\n      pop\n        /* \"#utility.yul\":10559:10636   */\n      tag_329\n        /* \"#utility.yul\":10633:10634   */\n      0x00\n        /* \"#utility.yul\":10622:10631   */\n      dup4\n        /* \"#utility.yul\":10618:10635   */\n      add\n        /* \"#utility.yul\":10609:10615   */\n      dup5\n        /* \"#utility.yul\":10559:10636   */\n      tag_277\n      jump\t// in\n    tag_329:\n        /* \"#utility.yul\":10409:10643   */\n      swap3\n      swap2\n      pop\n      pop\n      jump\t// out\n        /* \"#utility.yul\":10649:10962   */\n    tag_62:\n        /* \"#utility.yul\":10762:10766   */\n      0x00\n        /* \"#utility.yul\":10800:10802   */\n      0x20\n        /* \"#utility.yul\":10789:10798   */\n      dup3\n        /* \"#utility.yul\":10785:10803   */\n      add\n        /* \"#utility.yul\":10777:10803   */\n      swap1\n      pop\n        /* \"#utility.yul\":10849:10858   */\n      dup2\n        /* \"#utility.yul\":10843:10847   */\n      dup2\n        /* \"#utility.yul\":10839:10859   */\n      sub\n        /* \"#utility.yul\":10835:10836   */\n      0x00\n        /* \"#utility.yul\":10824:10833   */\n      dup4\n        /* \"#utility.yul\":10820:10837   */\n      add\n        /* \"#utility.yul\":10813:10860   */\n      mstore\n        /* \"#utility.yul\":10877:10955   */\n      tag_331\n        /* \"#utility.yul\":10950:10954   */\n      dup2\n        /* \"#utility.yul\":10941:10947   */\n      dup5\n        /* \"#utility.yul\":10877:10955   */\n      tag_291\n      jump\t// in\n    tag_331:\n        /* \"#utility.yul\":10869:10955   */\n      swap1\n      pop\n        /* \"#utility.yul\":10649:10962   */\n      swap3\n      swap2\n      pop\n      pop\n      jump\t// out\n        /* \"#utility.yul\":10968:11703   */\n    tag_47:\n        /* \"#utility.yul\":11185:11189   */\n      0x00\n        /* \"#utility.yul\":11223:11226   */\n      0x80\n        /* \"#utility.yul\":11212:11221   */\n      dup3\n        /* \"#utility.yul\":11208:11227   */\n      add\n        /* \"#utility.yul\":11200:11227   */\n      swap1\n      pop\n        /* \"#utility.yul\":11273:11282   */\n      dup2\n        /* \"#utility.yul\":11267:11271   */\n      dup2\n        /* \"#utility.yul\":11263:11283   */\n      sub\n        /* \"#utility.yul\":11259:11260   */\n      0x00\n        /* \"#utility.yul\":11248:11257   */\n      dup4\n        /* \"#utility.yul\":11244:11261   */\n      add\n        /* \"#utility.yul\":11237:11284   */\n      mstore\n        /* \"#utility.yul\":11301:11379   */\n      tag_333\n        /* \"#utility.yul\":11374:11378   */\n      dup2\n        /* \"#utility.yul\":11365:11371   */\n      dup8\n        /* \"#utility.yul\":11301:11379   */\n      tag_291\n      jump\t// in\n    tag_333:\n        /* \"#utility.yul\":11293:11379   */\n      swap1\n      pop\n        /* \"#utility.yul\":11389:11461   */\n      tag_334\n        /* \"#utility.yul\":11457:11459   */\n      0x20\n        /* \"#utility.yul\":11446:11455   */\n      dup4\n        /* \"#utility.yul\":11442:11460   */\n      add\n        /* \"#utility.yul\":11433:11439   */\n      dup7\n        /* \"#utility.yul\":11389:11461   */\n      tag_256\n      jump\t// in\n    tag_334:\n        /* \"#utility.yul\":11471:11543   */\n      tag_335\n        /* \"#utility.yul\":11539:11541   */\n      0x40\n        /* \"#utility.yul\":11528:11537   */\n      dup4\n        /* \"#utility.yul\":11524:11542   */\n      add\n        /* \"#utility.yul\":11515:11521   */\n      dup6\n        /* \"#utility.yul\":11471:11543   */\n      tag_319\n      jump\t// in\n    tag_335:\n        /* \"#utility.yul\":11590:11599   */\n      dup2\n        /* \"#utility.yul\":11584:11588   */\n      dup2\n        /* \"#utility.yul\":11580:11600   */\n      sub\n        /* \"#utility.yul\":11575:11577   */\n      0x60\n        /* \"#utility.yul\":11564:11573   */\n      dup4\n        /* \"#utility.yul\":11560:11578   */\n      add\n        /* \"#utility.yul\":11553:11601   */\n      mstore\n        /* \"#utility.yul\":11618:11696   */\n      tag_336\n        /* \"#utility.yul\":11691:11695   */\n      dup2\n        /* \"#utility.yul\":11682:11688   */\n      dup5\n        /* \"#utility.yul\":11618:11696   */\n      tag_291\n      jump\t// in\n    tag_336:\n        /* \"#utility.yul\":11610:11696   */\n      swap1\n      pop\n        /* \"#utility.yul\":10968:11703   */\n      swap6\n      swap5\n      pop\n      pop\n      pop\n      pop\n      pop\n      jump\t// out\n        /* \"#utility.yul\":11709:12120   */\n    tag_38:\n        /* \"#utility.yul\":11844:11848   */\n      0x00\n        /* \"#utility.yul\":11882:11884   */\n      0x40\n        /* \"#utility.yul\":11871:11880   */\n      dup3\n        /* \"#utility.yul\":11867:11885   */\n      add\n        /* \"#utility.yul\":11859:11885   */\n      swap1\n      pop\n        /* \"#utility.yul\":11931:11940   */\n      dup2\n        /* \"#utility.yul\":11925:11929   */\n      dup2\n        /* \"#utility.yul\":11921:11941   */\n      sub\n        /* \"#utility.yul\":11917:11918   */\n      0x00\n        /* \"#utility.yul\":11906:11915   */\n      dup4\n        /* \"#utility.yul\":11902:11919   */\n      add\n        /* \"#utility.yul\":11895:11942   */\n      mstore\n        /* \"#utility.yul\":11959:12037   */\n      tag_338\n        /* \"#utility.yul\":12032:12036   */\n      dup2\n        /* \"#utility.yul\":12023:12029   */\n      dup6\n        /* \"#utility.yul\":11959:12037   */\n      tag_291\n      jump\t// in\n    tag_338:\n        /* \"#utility.yul\":11951:12037   */\n      swap1\n      pop\n        /* \"#utility.yul\":12047:12113   */\n      tag_339\n        /* \"#utility.yul\":12109:12111   */\n      0x20\n        /* \"#utility.yul\":12098:12107   */\n      dup4\n        /* \"#utility.yul\":12094:12112   */\n      add\n        /* \"#utility.yul\":12085:12091   */\n      dup5\n        /* \"#utility.yul\":12047:12113   */\n      tag_273\n      jump\t// in\n    tag_339:\n        /* \"#utility.yul\":11709:12120   */\n      swap4\n      swap3\n      pop\n      pop\n      pop\n      jump\t// out\n        /* \"#utility.yul\":12126:12499   */\n    tag_79:\n        /* \"#utility.yul\":12269:12273   */\n      0x00\n        /* \"#utility.yul\":12307:12309   */\n      0x20\n        /* \"#utility.yul\":12296:12305   */\n      dup3\n        /* \"#utility.yul\":12292:12310   */\n      add\n        /* \"#utility.yul\":12284:12310   */\n      swap1\n      pop\n        /* \"#utility.yul\":12356:12365   */\n      dup2\n        /* \"#utility.yul\":12350:12354   */\n      dup2\n        /* \"#utility.yul\":12346:12366   */\n      sub\n        /* \"#utility.yul\":12342:12343   */\n      0x00\n        /* \"#utility.yul\":12331:12340   */\n      dup4\n        /* \"#utility.yul\":12327:12344   */\n      add\n        /* \"#utility.yul\":12320:12367   */\n      mstore\n        /* \"#utility.yul\":12384:12492   */\n      tag_341\n        /* \"#utility.yul\":12487:12491   */\n      dup2\n        /* \"#utility.yul\":12478:12484   */\n      dup5\n        /* \"#utility.yul\":12384:12492   */\n      tag_310\n      jump\t// in\n    tag_341:\n        /* \"#utility.yul\":12376:12492   */\n      swap1\n      pop\n        /* \"#utility.yul\":12126:12499   */\n      swap3\n      swap2\n      pop\n      pop\n      jump\t// out\n        /* \"#utility.yul\":12505:12727   */\n    tag_25:\n        /* \"#utility.yul\":12598:12602   */\n      0x00\n        /* \"#utility.yul\":12636:12638   */\n      0x20\n        /* \"#utility.yul\":12625:12634   */\n      dup3\n        /* \"#utility.yul\":12621:12639   */\n      add\n        /* \"#utility.yul\":12613:12639   */\n      swap1\n      pop\n        /* \"#utility.yul\":12649:12720   */\n      tag_343\n        /* \"#utility.yul\":12717:12718   */\n      0x00\n        /* \"#utility.yul\":12706:12715   */\n      dup4\n        /* \"#utility.yul\":12702:12719   */\n      add\n        /* \"#utility.yul\":12693:12699   */\n      dup5\n        /* \"#utility.yul\":12649:12720   */\n      tag_319\n      jump\t// in\n    tag_343:\n        /* \"#utility.yul\":12505:12727   */\n      swap3\n      swap2\n      pop\n      pop\n      jump\t// out\n        /* \"#utility.yul\":12733:12862   */\n    tag_195:\n        /* \"#utility.yul\":12767:12773   */\n      0x00\n        /* \"#utility.yul\":12794:12814   */\n      tag_345\n      tag_346\n      jump\t// in\n    tag_345:\n        /* \"#utility.yul\":12784:12814   */\n      swap1\n      pop\n        /* \"#utility.yul\":12823:12856   */\n      tag_347\n        /* \"#utility.yul\":12851:12855   */\n      dup3\n        /* \"#utility.yul\":12843:12849   */\n      dup3\n        /* \"#utility.yul\":12823:12856   */\n      tag_348\n      jump\t// in\n    tag_347:\n        /* \"#utility.yul\":12733:12862   */\n      swap2\n      swap1\n      pop\n      jump\t// out\n        /* \"#utility.yul\":12868:12943   */\n    tag_346:\n        /* \"#utility.yul\":12901:12907   */\n      0x00\n        /* \"#utility.yul\":12934:12936   */\n      0x40\n        /* \"#utility.yul\":12928:12937   */\n      mload\n        /* \"#utility.yul\":12918:12937   */\n      swap1\n      pop\n        /* \"#utility.yul\":12868:12943   */\n      swap1\n      jump\t// out\n        /* \"#utility.yul\":12949:13257   */\n    tag_194:\n        /* \"#utility.yul\":13011:13015   */\n      0x00\n        /* \"#utility.yul\":13101:13119   */\n      0xffffffffffffffff\n        /* \"#utility.yul\":13093:13099   */\n      dup3\n        /* \"#utility.yul\":13090:13120   */\n      gt\n        /* \"#utility.yul\":13087:13143   */\n      iszero\n      tag_351\n      jumpi\n        /* \"#utility.yul\":13123:13141   */\n      tag_352\n      tag_83\n      jump\t// in\n    tag_352:\n        /* \"#utility.yul\":13087:13143   */\n    tag_351:\n        /* \"#utility.yul\":13161:13190   */\n      tag_353\n        /* \"#utility.yul\":13183:13189   */\n      dup3\n        /* \"#utility.yul\":13161:13190   */\n      tag_290\n      jump\t// in\n    tag_353:\n        /* \"#utility.yul\":13153:13190   */\n      swap1\n      pop\n        /* \"#utility.yul\":13245:13249   */\n      0x20\n        /* \"#utility.yul\":13239:13243   */\n      dup2\n        /* \"#utility.yul\":13235:13250   */\n      add\n        /* \"#utility.yul\":13227:13250   */\n      swap1\n      pop\n        /* \"#utility.yul\":12949:13257   */\n      swap2\n      swap1\n      pop\n      jump\t// out\n        /* \"#utility.yul\":13263:13420   */\n    tag_266:\n        /* \"#utility.yul\":13355:13359   */\n      0x00\n        /* \"#utility.yul\":13378:13381   */\n      dup2\n        /* \"#utility.yul\":13370:13381   */\n      swap1\n      pop\n        /* \"#utility.yul\":13408:13412   */\n      0x20\n        /* \"#utility.yul\":13403:13406   */\n      dup3\n        /* \"#utility.yul\":13399:13413   */\n      add\n        /* \"#utility.yul\":13391:13413   */\n      swap1\n      pop\n        /* \"#utility.yul\":13263:13420   */\n      swap2\n      swap1\n      pop\n      jump\t// out\n        /* \"#utility.yul\":13426:13565   */\n    tag_262:\n        /* \"#utility.yul\":13518:13524   */\n      0x00\n        /* \"#utility.yul\":13552:13557   */\n      dup2\n        /* \"#utility.yul\":13546:13558   */\n      mload\n        /* \"#utility.yul\":13536:13558   */\n      swap1\n      pop\n        /* \"#utility.yul\":13426:13565   */\n      swap2\n      swap1\n      pop\n      jump\t// out\n        /* \"#utility.yul\":13571:13670   */\n    tag_284:\n        /* \"#utility.yul\":13623:13629   */\n      0x00\n        /* \"#utility.yul\":13657:13662   */\n      dup2\n        /* \"#utility.yul\":13651:13663   */\n      mload\n        /* \"#utility.yul\":13641:13663   */\n      swap1\n      pop\n        /* \"#utility.yul\":13571:13670   */\n      swap2\n      swap1\n      pop\n      jump\t// out\n        /* \"#utility.yul\":13676:13814   */\n    tag_272:\n        /* \"#utility.yul\":13771:13775   */\n      0x00\n        /* \"#utility.yul\":13803:13807   */\n      0x20\n        /* \"#utility.yul\":13798:13801   */\n      dup3\n        /* \"#utility.yul\":13794:13808   */\n      add\n        /* \"#utility.yul\":13786:13808   */\n      swap1\n      pop\n        /* \"#utility.yul\":13676:13814   */\n      swap2\n      swap1\n      pop\n      jump\t// out\n        /* \"#utility.yul\":13820:14029   */\n    tag_264:\n        /* \"#utility.yul\":13944:13955   */\n      0x00\n        /* \"#utility.yul\":13978:13984   */\n      dup3\n        /* \"#utility.yul\":13973:13976   */\n      dup3\n        /* \"#utility.yul\":13966:13985   */\n      mstore\n        /* \"#utility.yul\":14018:14022   */\n      0x20\n        /* \"#utility.yul\":14013:14016   */\n      dup3\n        /* \"#utility.yul\":14009:14023   */\n      add\n        /* \"#utility.yul\":13994:14023   */\n      swap1\n      pop\n        /* \"#utility.yul\":13820:14029   */\n      swap3\n      swap2\n      pop\n      pop\n      jump\t// out\n        /* \"#utility.yul\":14035:14194   */\n    tag_286:\n        /* \"#utility.yul\":14109:14120   */\n      0x00\n        /* \"#utility.yul\":14143:14149   */\n      dup3\n        /* \"#utility.yul\":14138:14141   */\n      dup3\n        /* \"#utility.yul\":14131:14150   */\n      mstore\n        /* \"#utility.yul\":14183:14187   */\n      0x20\n        /* \"#utility.yul\":14178:14181   */\n      dup3\n        /* \"#utility.yul\":14174:14188   */\n      add\n        /* \"#utility.yul\":14159:14188   */\n      swap1\n      pop\n        /* \"#utility.yul\":14035:14194   */\n      swap3\n      swap2\n      pop\n      pop\n      jump\t// out\n        /* \"#utility.yul\":14200:14369   */\n    tag_295:\n        /* \"#utility.yul\":14284:14295   */\n      0x00\n        /* \"#utility.yul\":14318:14324   */\n      dup3\n        /* \"#utility.yul\":14313:14316   */\n      dup3\n        /* \"#utility.yul\":14306:14325   */\n      mstore\n        /* \"#utility.yul\":14358:14362   */\n      0x20\n        /* \"#utility.yul\":14353:14356   */\n      dup3\n        /* \"#utility.yul\":14349:14363   */\n      add\n        /* \"#utility.yul\":14334:14363   */\n      swap1\n      pop\n        /* \"#utility.yul\":14200:14369   */\n      swap3\n      swap2\n      pop\n      pop\n      jump\t// out\n        /* \"#utility.yul\":14375:14523   */\n    tag_302:\n        /* \"#utility.yul\":14477:14488   */\n      0x00\n        /* \"#utility.yul\":14514:14517   */\n      dup2\n        /* \"#utility.yul\":14499:14517   */\n      swap1\n      pop\n        /* \"#utility.yul\":14375:14523   */\n      swap3\n      swap2\n      pop\n      pop\n      jump\t// out\n        /* \"#utility.yul\":14529:14834   */\n    tag_141:\n        /* \"#utility.yul\":14569:14572   */\n      0x00\n        /* \"#utility.yul\":14588:14608   */\n      tag_363\n        /* \"#utility.yul\":14606:14607   */\n      dup3\n        /* \"#utility.yul\":14588:14608   */\n      tag_318\n      jump\t// in\n    tag_363:\n        /* \"#utility.yul\":14583:14608   */\n      swap2\n      pop\n        /* \"#utility.yul\":14622:14642   */\n      tag_364\n        /* \"#utility.yul\":14640:14641   */\n      dup4\n        /* \"#utility.yul\":14622:14642   */\n      tag_318\n      jump\t// in\n    tag_364:\n        /* \"#utility.yul\":14617:14642   */\n      swap3\n      pop\n        /* \"#utility.yul\":14776:14777   */\n      dup3\n        /* \"#utility.yul\":14708:14774   */\n      0xffffffffffffffffffffffffffffffffffffffffffffffffffffffffffffffff\n        /* \"#utility.yul\":14704:14778   */\n      sub\n        /* \"#utility.yul\":14701:14702   */\n      dup3\n        /* \"#utility.yul\":14698:14779   */\n      gt\n        /* \"#utility.yul\":14695:14802   */\n      iszero\n      tag_365\n      jumpi\n        /* \"#utility.yul\":14782:14800   */\n      tag_366\n      tag_367\n      jump\t// in\n    tag_366:\n        /* \"#utility.yul\":14695:14802   */\n    tag_365:\n        /* \"#utility.yul\":14826:14827   */\n      dup3\n        /* \"#utility.yul\":14823:14824   */\n      dup3\n        /* \"#utility.yul\":14819:14828   */\n      add\n        /* \"#utility.yul\":14812:14828   */\n      swap1\n      pop\n        /* \"#utility.yul\":14529:14834   */\n      swap3\n      swap2\n      pop\n      pop\n      jump\t// out\n        /* \"#utility.yul\":14840:14936   */\n    tag_255:\n        /* \"#utility.yul\":14877:14884   */\n      0x00\n        /* \"#utility.yul\":14906:14930   */\n      tag_369\n        /* \"#utility.yul\":14924:14929   */\n      dup3\n        /* \"#utility.yul\":14906:14930   */\n      tag_370\n      jump\t// in\n    tag_369:\n        /* \"#utility.yul\":14895:14930   */\n      swap1\n      pop\n        /* \"#utility.yul\":14840:14936   */\n      swap2\n      swap1\n      pop\n      jump\t// out\n        /* \"#utility.yul\":14942:15032   */\n    tag_276:\n        /* \"#utility.yul\":14976:14983   */\n      0x00\n        /* \"#utility.yul\":15019:15024   */\n      dup2\n        /* \"#utility.yul\":15012:15025   */\n      iszero\n        /* \"#utility.yul\":15005:15026   */\n      iszero\n        /* \"#utility.yul\":14994:15026   */\n      swap1\n      pop\n        /* \"#utility.yul\":14942:15032   */\n      swap2\n      swap1\n      pop\n      jump\t// out\n        /* \"#utility.yul\":15038:15165   */\n    tag_372:\n        /* \"#utility.yul\":15083:15090   */\n      0x00\n        /* \"#utility.yul\":15112:15117   */\n      dup2\n        /* \"#utility.yul\":15101:15117   */\n      swap1\n      pop\n        /* \"#utility.yul\":15118:15159   */\n      tag_374\n        /* \"#utility.yul\":15153:15158   */\n      dup3\n        /* \"#utility.yul\":15118:15159   */\n      tag_375\n      jump\t// in\n    tag_374:\n        /* \"#utility.yul\":15038:15165   */\n      swap2\n      swap1\n      pop\n      jump\t// out\n        /* \"#utility.yul\":15171:15297   */\n    tag_370:\n        /* \"#utility.yul\":15208:15215   */\n      0x00\n        /* \"#utility.yul\":15248:15290   */\n      0xffffffffffffffffffffffffffffffffffffffff\n        /* \"#utility.yul\":15241:15246   */\n      dup3\n        /* \"#utility.yul\":15237:15291   */\n      and\n        /* \"#utility.yul\":15226:15291   */\n      swap1\n      pop\n        /* \"#utility.yul\":15171:15297   */\n      swap2\n      swap1\n      pop\n      jump\t// out\n        /* \"#utility.yul\":15303:15380   */\n    tag_318:\n        /* \"#utility.yul\":15340:15347   */\n      0x00\n        /* \"#utility.yul\":15369:15374   */\n      dup2\n        /* \"#utility.yul\":15358:15374   */\n      swap1\n      pop\n        /* \"#utility.yul\":15303:15380   */\n      swap2\n      swap1\n      pop\n      jump\t// out\n        /* \"#utility.yul\":15386:15513   */\n    tag_280:\n        /* \"#utility.yul\":15442:15451   */\n      0x00\n        /* \"#utility.yul\":15475:15507   */\n      tag_379\n        /* \"#utility.yul\":15501:15506   */\n      dup3\n        /* \"#utility.yul\":15475:15507   */\n      tag_372\n      jump\t// in\n    tag_379:\n        /* \"#utility.yul\":15462:15507   */\n      swap1\n      pop\n        /* \"#utility.yul\":15386:15513   */\n      swap2\n      swap1\n      pop\n      jump\t// out\n        /* \"#utility.yul\":15519:15673   */\n    tag_200:\n        /* \"#utility.yul\":15603:15609   */\n      dup3\n        /* \"#utility.yul\":15598:15601   */\n      dup2\n        /* \"#utility.yul\":15593:15596   */\n      dup4\n        /* \"#utility.yul\":15580:15610   */\n      calldatacopy\n        /* \"#utility.yul\":15665:15666   */\n      0x00\n        /* \"#utility.yul\":15656:15662   */\n      dup4\n        /* \"#utility.yul\":15651:15654   */\n      dup4\n        /* \"#utility.yul\":15647:15663   */\n      add\n        /* \"#utility.yul\":15640:15667   */\n      mstore\n        /* \"#utility.yul\":15519:15673   */\n      pop\n      pop\n      pop\n      jump\t// out\n        /* \"#utility.yul\":15679:15986   */\n    tag_288:\n        /* \"#utility.yul\":15747:15748   */\n      0x00\n        /* \"#utility.yul\":15757:15870   */\n    tag_382:\n        /* \"#utility.yul\":15771:15777   */\n      dup4\n        /* \"#utility.yul\":15768:15769   */\n      dup2\n        /* \"#utility.yul\":15765:15778   */\n      lt\n        /* \"#utility.yul\":15757:15870   */\n      iszero\n      tag_384\n      jumpi\n        /* \"#utility.yul\":15856:15857   */\n      dup1\n        /* \"#utility.yul\":15851:15854   */\n      dup3\n        /* \"#utility.yul\":15847:15858   */\n      add\n        /* \"#utility.yul\":15841:15859   */\n      mload\n        /* \"#utility.yul\":15837:15838   */\n      dup2\n        /* \"#utility.yul\":15832:15835   */\n      dup5\n        /* \"#utility.yul\":15828:15839   */\n      add\n        /* \"#utility.yul\":15821:15860   */\n      mstore\n        /* \"#utility.yul\":15793:15795   */\n      0x20\n        /* \"#utility.yul\":15790:15791   */\n      dup2\n        /* \"#utility.yul\":15786:15796   */\n      add\n        /* \"#utility.yul\":15781:15796   */\n      swap1\n      pop\n        /* \"#utility.yul\":15757:15870   */\n      jump(tag_382)\n    tag_384:\n        /* \"#utility.yul\":15888:15894   */\n      dup4\n        /* \"#utility.yul\":15885:15886   */\n      dup2\n        /* \"#utility.yul\":15882:15895   */\n      gt\n        /* \"#utility.yul\":15879:15980   */\n      iszero\n      tag_385\n      jumpi\n        /* \"#utility.yul\":15968:15969   */\n      0x00\n        /* \"#utility.yul\":15959:15965   */\n      dup5\n        /* \"#utility.yul\":15954:15957   */\n      dup5\n        /* \"#utility.yul\":15950:15966   */\n      add\n        /* \"#utility.yul\":15943:15970   */\n      mstore\n        /* \"#utility.yul\":15879:15980   */\n    tag_385:\n        /* \"#utility.yul\":15728:15986   */\n      pop\n        /* \"#utility.yul\":15679:15986   */\n      pop\n      pop\n      pop\n      jump\t// out\n        /* \"#utility.yul\":15992:16312   */\n    tag_92:\n        /* \"#utility.yul\":16036:16042   */\n      0x00\n        /* \"#utility.yul\":16073:16074   */\n      0x02\n        /* \"#utility.yul\":16067:16071   */\n      dup3\n        /* \"#utility.yul\":16063:16075   */\n      div\n        /* \"#utility.yul\":16053:16075   */\n      swap1\n      pop\n        /* \"#utility.yul\":16120:16121   */\n      0x01\n        /* \"#utility.yul\":16114:16118   */\n      dup3\n        /* \"#utility.yul\":16110:16122   */\n      and\n        /* \"#utility.yul\":16141:16159   */\n      dup1\n        /* \"#utility.yul\":16131:16212   */\n      tag_387\n      jumpi\n        /* \"#utility.yul\":16197:16201   */\n      0x7f\n        /* \"#utility.yul\":16189:16195   */\n      dup3\n        /* \"#utility.yul\":16185:16202   */\n      and\n        /* \"#utility.yul\":16175:16202   */\n      swap2\n      pop\n        /* \"#utility.yul\":16131:16212   */\n    tag_387:\n        /* \"#utility.yul\":16259:16261   */\n      0x20\n        /* \"#utility.yul\":16251:16257   */\n      dup3\n        /* \"#utility.yul\":16248:16262   */\n      lt\n        /* \"#utility.yul\":16228:16246   */\n      dup2\n        /* \"#utility.yul\":16225:16263   */\n      eq\n        /* \"#utility.yul\":16222:16306   */\n      iszero\n      tag_388\n      jumpi\n        /* \"#utility.yul\":16278:16296   */\n      tag_389\n      tag_390\n      jump\t// in\n    tag_389:\n        /* \"#utility.yul\":16222:16306   */\n    tag_388:\n        /* \"#utility.yul\":16043:16312   */\n      pop\n        /* \"#utility.yul\":15992:16312   */\n      swap2\n      swap1\n      pop\n      jump\t// out\n        /* \"#utility.yul\":16318:16599   */\n    tag_348:\n        /* \"#utility.yul\":16401:16428   */\n      tag_392\n        /* \"#utility.yul\":16423:16427   */\n      dup3\n        /* \"#utility.yul\":16401:16428   */\n      tag_290\n      jump\t// in\n    tag_392:\n        /* \"#utility.yul\":16393:16399   */\n      dup2\n        /* \"#utility.yul\":16389:16429   */\n      add\n        /* \"#utility.yul\":16531:16537   */\n      dup2\n        /* \"#utility.yul\":16519:16529   */\n      dup2\n        /* \"#utility.yul\":16516:16538   */\n      lt\n        /* \"#utility.yul\":16495:16513   */\n      0xffffffffffffffff\n        /* \"#utility.yul\":16483:16493   */\n      dup3\n        /* \"#utility.yul\":16480:16514   */\n      gt\n        /* \"#utility.yul\":16477:16539   */\n      or\n        /* \"#utility.yul\":16474:16562   */\n      iszero\n      tag_393\n      jumpi\n        /* \"#utility.yul\":16542:16560   */\n      tag_394\n      tag_83\n      jump\t// in\n    tag_394:\n        /* \"#utility.yul\":16474:16562   */\n    tag_393:\n        /* \"#utility.yul\":16582:16592   */\n      dup1\n        /* \"#utility.yul\":16578:16580   */\n      0x40\n        /* \"#utility.yul\":16571:16593   */\n      mstore\n        /* \"#utility.yul\":16361:16599   */\n      pop\n        /* \"#utility.yul\":16318:16599   */\n      pop\n      pop\n      jump\t// out\n        /* \"#utility.yul\":16605:16838   */\n    tag_106:\n        /* \"#utility.yul\":16644:16647   */\n      0x00\n        /* \"#utility.yul\":16667:16691   */\n      tag_396\n        /* \"#utility.yul\":16685:16690   */\n      dup3\n        /* \"#utility.yul\":16667:16691   */\n      tag_318\n      jump\t// in\n    tag_396:\n        /* \"#utility.yul\":16658:16691   */\n      swap2\n      pop\n        /* \"#utility.yul\":16713:16779   */\n      0xffffffffffffffffffffffffffffffffffffffffffffffffffffffffffffffff\n        /* \"#utility.yul\":16706:16711   */\n      dup3\n        /* \"#utility.yul\":16703:16780   */\n      eq\n        /* \"#utility.yul\":16700:16803   */\n      iszero\n      tag_397\n      jumpi\n        /* \"#utility.yul\":16783:16801   */\n      tag_398\n      tag_367\n      jump\t// in\n    tag_398:\n        /* \"#utility.yul\":16700:16803   */\n    tag_397:\n        /* \"#utility.yul\":16830:16831   */\n      0x01\n        /* \"#utility.yul\":16823:16828   */\n      dup3\n        /* \"#utility.yul\":16819:16832   */\n      add\n        /* \"#utility.yul\":16812:16832   */\n      swap1\n      pop\n        /* \"#utility.yul\":16605:16838   */\n      swap2\n      swap1\n      pop\n      jump\t// out\n        /* \"#utility.yul\":16844:17024   */\n    tag_367:\n        /* \"#utility.yul\":16892:16969   */\n      0x4e487b7100000000000000000000000000000000000000000000000000000000\n        /* \"#utility.yul\":16889:16890   */\n      0x00\n        /* \"#utility.yul\":16882:16970   */\n      mstore\n        /* \"#utility.yul\":16989:16993   */\n      0x11\n        /* \"#utility.yul\":16986:16987   */\n      0x04\n        /* \"#utility.yul\":16979:16994   */\n      mstore\n        /* \"#utility.yul\":17013:17017   */\n      0x24\n        /* \"#utility.yul\":17010:17011   */\n      0x00\n        /* \"#utility.yul\":17003:17018   */\n      revert\n        /* \"#utility.yul\":17030:17210   */\n    tag_125:\n        /* \"#utility.yul\":17078:17155   */\n      0x4e487b7100000000000000000000000000000000000000000000000000000000\n        /* \"#utility.yul\":17075:17076   */\n      0x00\n        /* \"#utility.yul\":17068:17156   */\n      mstore\n        /* \"#utility.yul\":17175:17179   */\n      0x21\n        /* \"#utility.yul\":17172:17173   */\n      0x04\n        /* \"#utility.yul\":17165:17180   */\n      mstore\n        /* \"#utility.yul\":17199:17203   */\n      0x24\n        /* \"#utility.yul\":17196:17197   */\n      0x00\n        /* \"#utility.yul\":17189:17204   */\n      revert\n        /* \"#utility.yul\":17216:17396   */\n    tag_390:\n        /* \"#utility.yul\":17264:17341   */\n      0x4e487b7100000000000000000000000000000000000000000000000000000000\n        /* \"#utility.yul\":17261:17262   */\n      0x00\n        /* \"#utility.yul\":17254:17342   */\n      mstore\n        /* \"#utility.yul\":17361:17365   */\n      0x22\n        /* \"#utility.yul\":17358:17359   */\n      0x04\n        /* \"#utility.yul\":17351:17366   */\n      mstore\n        /* \"#utility.yul\":17385:17389   */\n      0x24\n        /* \"#utility.yul\":17382:17383   */\n      0x00\n        /* \"#utility.yul\":17375:17390   */\n      revert\n        /* \"#utility.yul\":17402:17582   */\n    tag_104:\n        /* \"#utility.yul\":17450:17527   */\n      0x4e487b7100000000000000000000000000000000000000000000000000000000\n        /* \"#utility.yul\":17447:17448   */\n      0x00\n        /* \"#utility.yul\":17440:17528   */\n      mstore\n        /* \"#utility.yul\":17547:17551   */\n      0x32\n        /* \"#utility.yul\":17544:17545   */\n      0x04\n        /* \"#utility.yul\":17537:17552   */\n      mstore\n        /* \"#utility.yul\":17571:17575   */\n      0x24\n        /* \"#utility.yul\":17568:17569   */\n      0x00\n        /* \"#utility.yul\":17561:17576   */\n      revert\n        /* \"#utility.yul\":17588:17768   */\n    tag_83:\n        /* \"#utility.yul\":17636:17713   */\n      0x4e487b7100000000000000000000000000000000000000000000000000000000\n        /* \"#utility.yul\":17633:17634   */\n      0x00\n        /* \"#utility.yul\":17626:17714   */\n      mstore\n        /* \"#utility.yul\":17733:17737   */\n      0x41\n        /* \"#utility.yul\":17730:17731   */\n      0x04\n        /* \"#utility.yul\":17723:17738   */\n      mstore\n        /* \"#utility.yul\":17757:17761   */\n      0x24\n        /* \"#utility.yul\":17754:17755   */\n      0x00\n        /* \"#utility.yul\":17747:17762   */\n      revert\n        /* \"#utility.yul\":17774:17891   */\n    tag_209:\n        /* \"#utility.yul\":17883:17884   */\n      0x00\n        /* \"#utility.yul\":17880:17881   */\n      dup1\n        /* \"#utility.yul\":17873:17885   */\n      revert\n        /* \"#utility.yul\":17897:18014   */\n    tag_198:\n        /* \"#utility.yul\":18006:18007   */\n      0x00\n        /* \"#utility.yul\":18003:18004   */\n      dup1\n        /* \"#utility.yul\":17996:18008   */\n      revert\n        /* \"#utility.yul\":18020:18137   */\n    tag_226:\n        /* \"#utility.yul\":18129:18130   */\n      0x00\n        /* \"#utility.yul\":18126:18127   */\n      dup1\n        /* \"#utility.yul\":18119:18131   */\n      revert\n        /* \"#utility.yul\":18143:18260   */\n    tag_218:\n        /* \"#utility.yul\":18252:18253   */\n      0x00\n        /* \"#utility.yul\":18249:18250   */\n      dup1\n        /* \"#utility.yul\":18242:18254   */\n      revert\n        /* \"#utility.yul\":18266:18368   */\n    tag_290:\n        /* \"#utility.yul\":18307:18313   */\n      0x00\n        /* \"#utility.yul\":18358:18360   */\n      0x1f\n        /* \"#utility.yul\":18354:18361   */\n      not\n        /* \"#utility.yul\":18349:18351   */\n      0x1f\n        /* \"#utility.yul\":18342:18347   */\n      dup4\n        /* \"#utility.yul\":18338:18352   */\n      add\n        /* \"#utility.yul\":18334:18362   */\n      and\n        /* \"#utility.yul\":18324:18362   */\n      swap1\n      pop\n        /* \"#utility.yul\":18266:18368   */\n      swap2\n      swap1\n      pop\n      jump\t// out\n        /* \"#utility.yul\":18374:18487   */\n    tag_375:\n        /* \"#utility.yul\":18455:18456   */\n      0x03\n        /* \"#utility.yul\":18448:18453   */\n      dup2\n        /* \"#utility.yul\":18445:18457   */\n      lt\n        /* \"#utility.yul\":18435:18481   */\n      tag_410\n      jumpi\n        /* \"#utility.yul\":18461:18479   */\n      tag_411\n      tag_125\n      jump\t// in\n    tag_411:\n        /* \"#utility.yul\":18435:18481   */\n    tag_410:\n        /* \"#utility.yul\":18374:18487   */\n      pop\n      jump\t// out\n        /* \"#utility.yul\":18493:18615   */\n    tag_204:\n        /* \"#utility.yul\":18566:18590   */\n      tag_413\n        /* \"#utility.yul\":18584:18589   */\n      dup2\n        /* \"#utility.yul\":18566:18590   */\n      tag_255\n      jump\t// in\n    tag_413:\n        /* \"#utility.yul\":18559:18564   */\n      dup2\n        /* \"#utility.yul\":18556:18591   */\n      eq\n        /* \"#utility.yul\":18546:18609   */\n      tag_414\n      jumpi\n        /* \"#utility.yul\":18605:18606   */\n      0x00\n        /* \"#utility.yul\":18602:18603   */\n      dup1\n        /* \"#utility.yul\":18595:18607   */\n      revert\n        /* \"#utility.yul\":18546:18609   */\n    tag_414:\n        /* \"#utility.yul\":18493:18615   */\n      pop\n      jump\t// out\n        /* \"#utility.yul\":18621:18743   */\n    tag_214:\n        /* \"#utility.yul\":18694:18718   */\n      tag_416\n        /* \"#utility.yul\":18712:18717   */\n      dup2\n        /* \"#utility.yul\":18694:18718   */\n      tag_318\n      jump\t// in\n    tag_416:\n        /* \"#utility.yul\":18687:18692   */\n      dup2\n        /* \"#utility.yul\":18684:18719   */\n      eq\n        /* \"#utility.yul\":18674:18737   */\n      tag_417\n      jumpi\n        /* \"#utility.yul\":18733:18734   */\n      0x00\n        /* \"#utility.yul\":18730:18731   */\n      dup1\n        /* \"#utility.yul\":18723:18735   */\n      revert\n        /* \"#utility.yul\":18674:18737   */\n    tag_417:\n        /* \"#utility.yul\":18621:18743   */\n      pop\n      jump\t// out\n\n    auxdata: 0xa2646970667358221220f63100e603184a3a4b378e3cfbb66170ace008b63960aa3f4c5c48031fcbd86664736f6c63430008070033\n}\n",
				"bytecode": {
					"linkReferences": {},
					"object": "60806040523480156200001157600080fd5b5060405162001d2838038062001d288339818101604052810190620000379190620001f4565b33600860016101000a81548173ffffffffffffffffffffffffffffffffffffffff021916908373ffffffffffffffffffffffffffffffffffffffff160217905550806009908051906020019062000090929190620000c6565b506000600860006101000a81548160ff02191690836002811115620000ba57620000b962000346565b5b021790555050620003f8565b828054620000d490620002da565b90600052602060002090601f016020900481019282620000f8576000855562000144565b82601f106200011357805160ff191683800117855562000144565b8280016001018555821562000144579182015b828111156200014357825182559160200191906001019062000126565b5b50905062000153919062000157565b5090565b5b808211156200017257600081600090555060010162000158565b5090565b60006200018d62000187846200026e565b62000245565b905082815260208101848484011115620001ac57620001ab620003d8565b5b620001b9848285620002a4565b509392505050565b600082601f830112620001d957620001d8620003d3565b5b8151620001eb84826020860162000176565b91505092915050565b6000602082840312156200020d576200020c620003e2565b5b600082015167ffffffffffffffff8111156200022e576200022d620003dd565b5b6200023c84828501620001c1565b91505092915050565b60006200025162000264565b90506200025f828262000310565b919050565b6000604051905090565b600067ffffffffffffffff8211156200028c576200028b620003a4565b5b6200029782620003e7565b9050602081019050919050565b60005b83811015620002c4578082015181840152602081019050620002a7565b83811115620002d4576000848401525b50505050565b60006002820490506001821680620002f357607f821691505b602082108114156200030a576200030962000375565b5b50919050565b6200031b82620003e7565b810181811067ffffffffffffffff821117156200033d576200033c620003a4565b5b80604052505050565b7f4e487b7100000000000000000000000000000000000000000000000000000000600052602160045260246000fd5b7f4e487b7100000000000000000000000000000000000000000000000000000000600052602260045260246000fd5b7f4e487b7100000000000000000000000000000000000000000000000000000000600052604160045260246000fd5b600080fd5b600080fd5b600080fd5b600080fd5b6000601f19601f8301169050919050565b61192080620004086000396000f3fe608060405234801561001057600080fd5b50600436106100ea5760003560e01c806362c492511161008c5780638949e009116100665780638949e00914610268578063c19d93fb14610286578063d9e95a98146102a4578063f276669d146102c0576100ea565b806362c49251146101fb57806372753be51461021757806380843e251461024a576100ea565b806312c06342116100c857806312c063421461015b5780632d35a8a21461018c57806346702b16146101aa5780635f5300ff146101dd576100ea565b80630132be09146100ef57806306a49fce1461011f5780630d15fd771461013d575b600080fd5b61010960048036038101906101049190611148565b6102f0565b6040516101169190611505565b60405180910390f35b610127610308565b6040516101349190611401565b60405180910390f35b610145610552565b6040516101529190611505565b60405180910390f35b61017560048036038101906101709190610feb565b610558565b6040516101839291906114b3565b60405180910390f35b610194610611565b6040516101a19190611505565b60405180910390f35b6101c460048036038101906101bf91906110ff565b610617565b6040516101d49493929190611460565b60405180910390f35b6101e561078d565b6040516101f29190611505565b60405180910390f35b61021560048036038101906102109190611074565b610793565b005b610231600480360381019061022c9190611148565b6109ed565b6040516102419493929190611460565b60405180910390f35b610252610b4d565b60405161025f919061143e565b60405180910390f35b610270610bdb565b60405161027d91906113e6565b60405180910390f35b61028e610c01565b60405161029b9190611423565b60405180910390f35b6102be60048036038101906102b99190611018565b610c14565b005b6102da60048036038101906102d591906110ff565b610cb4565b6040516102e791906114e3565b60405180910390f35b60026020528060005260406000206000915090505481565b6060600060055467ffffffffffffffff81111561032857610327611854565b5b60405190808252806020026020018201604052801561036157816020015b61034e610e70565b8152602001906001900390816103465790505b50905060005b60055481101561054a576000600360008381526020019081526020016000209050806040518060800160405290816000820180546103a4906116ec565b80601f01602080910402602001604051908101604052809291908181526020018280546103d0906116ec565b801561041d5780601f106103f25761010080835404028352916020019161041d565b820191906000526020600020905b81548152906001019060200180831161040057829003601f168201915b505050505081526020016001820160009054906101000a900473ffffffffffffffffffffffffffffffffffffffff1673ffffffffffffffffffffffffffffffffffffffff1673ffffffffffffffffffffffffffffffffffffffff16815260200160028201548152602001600382018054610496906116ec565b80601f01602080910402602001604051908101604052809291908181526020018280546104c2906116ec565b801561050f5780601f106104e45761010080835404028352916020019161050f565b820191906000526020600020905b8154815290600101906020018083116104f257829003601f168201915b50505050508152505083838151811061052b5761052a611825565b5b60200260200101819052505080806105429061174f565b915050610367565b508091505090565b60075481565b600060205280600052604060002060009150905080600001805461057b906116ec565b80601f01602080910402602001604051908101604052809291908181526020018280546105a7906116ec565b80156105f45780601f106105c9576101008083540402835291602001916105f4565b820191906000526020600020905b8154815290600101906020018083116105d757829003601f168201915b5050505050908060010160009054906101000a900460ff16905082565b60055481565b600481805160208101820180518482526020830160208501208183528095505050505050600091509050806000018054610650906116ec565b80601f016020809104026020016040519081016040528092919081815260200182805461067c906116ec565b80156106c95780601f1061069e576101008083540402835291602001916106c9565b820191906000526020600020905b8154815290600101906020018083116106ac57829003601f168201915b5050505050908060010160009054906101000a900473ffffffffffffffffffffffffffffffffffffffff169080600201549080600301805461070a906116ec565b80601f0160208091040260200160405190810160405280929190818152602001828054610736906116ec565b80156107835780601f1061075857610100808354040283529160200191610783565b820191906000526020600020905b81548152906001019060200180831161076657829003601f168201915b5050505050905084565b60065481565b60008060028111156107a8576107a76117c7565b5b600860009054906101000a900460ff1660028111156107ca576107c96117c7565b5b146107d457600080fd5b3373ffffffffffffffffffffffffffffffffffffffff16600860019054906101000a900473ffffffffffffffffffffffffffffffffffffffff1673ffffffffffffffffffffffffffffffffffffffff161461082e57600080fd5b610836610e70565b84816020019073ffffffffffffffffffffffffffffffffffffffff16908173ffffffffffffffffffffffffffffffffffffffff16815250508381600001819052508281606001819052508060036000600554815260200190815260200160002060008201518160000190805190602001906108b2929190610eae565b5060208201518160010160006101000a81548173ffffffffffffffffffffffffffffffffffffffff021916908373ffffffffffffffffffffffffffffffffffffffff160217905550604082015181600201556060820151816003019080519060200190610920929190610eae565b509050508060048460405161093591906113cf565b9081526020016040518091039020600082015181600001908051906020019061095f929190610eae565b5060208201518160010160006101000a81548173ffffffffffffffffffffffffffffffffffffffff021916908373ffffffffffffffffffffffffffffffffffffffff1602179055506040820151816002015560608201518160030190805190602001906109cd929190610eae565b5090505060016005546109e091906115e7565b6005819055505050505050565b6003602052806000526040600020600091509050806000018054610a10906116ec565b80601f0160208091040260200160405190810160405280929190818152602001828054610a3c906116ec565b8015610a895780601f10610a5e57610100808354040283529160200191610a89565b820191906000526020600020905b815481529060010190602001808311610a6c57829003601f168201915b5050505050908060010160009054906101000a900473ffffffffffffffffffffffffffffffffffffffff1690806002015490806003018054610aca906116ec565b80601f0160208091040260200160405190810160405280929190818152602001828054610af6906116ec565b8015610b435780601f10610b1857610100808354040283529160200191610b43565b820191906000526020600020905b815481529060010190602001808311610b2657829003601f168201915b5050505050905084565b60098054610b5a906116ec565b80601f0160208091040260200160405190810160405280929190818152602001828054610b86906116ec565b8015610bd35780601f10610ba857610100808354040283529160200191610bd3565b820191906000526020600020905b815481529060010190602001808311610bb657829003601f168201915b505050505081565b600860019054906101000a900473ffffffffffffffffffffffffffffffffffffffff1681565b600860009054906101000a900460ff1681565b6000806002811115610c2957610c286117c7565b5b600860009054906101000a900460ff166002811115610c4b57610c4a6117c7565b5b14610c5557600080fd5b3373ffffffffffffffffffffffffffffffffffffffff16600860019054906101000a900473ffffffffffffffffffffffffffffffffffffffff1673ffffffffffffffffffffffffffffffffffffffff1614610caf57600080fd5b505050565b610cbc610e70565b600482604051610ccc91906113cf565b9081526020016040518091039020604051806080016040529081600082018054610cf5906116ec565b80601f0160208091040260200160405190810160405280929190818152602001828054610d21906116ec565b8015610d6e5780601f10610d4357610100808354040283529160200191610d6e565b820191906000526020600020905b815481529060010190602001808311610d5157829003601f168201915b505050505081526020016001820160009054906101000a900473ffffffffffffffffffffffffffffffffffffffff1673ffffffffffffffffffffffffffffffffffffffff1673ffffffffffffffffffffffffffffffffffffffff16815260200160028201548152602001600382018054610de7906116ec565b80601f0160208091040260200160405190810160405280929190818152602001828054610e13906116ec565b8015610e605780601f10610e3557610100808354040283529160200191610e60565b820191906000526020600020905b815481529060010190602001808311610e4357829003601f168201915b5050505050815250509050919050565b604051806080016040528060608152602001600073ffffffffffffffffffffffffffffffffffffffff16815260200160008152602001606081525090565b828054610eba906116ec565b90600052602060002090601f016020900481019282610edc5760008555610f23565b82601f10610ef557805160ff1916838001178555610f23565b82800160010185558215610f23579182015b82811115610f22578251825591602001919060010190610f07565b5b509050610f309190610f34565b5090565b5b80821115610f4d576000816000905550600101610f35565b5090565b6000610f64610f5f84611545565b611520565b905082815260208101848484011115610f8057610f7f611888565b5b610f8b8482856116aa565b509392505050565b600081359050610fa2816118bc565b92915050565b600082601f830112610fbd57610fbc611883565b5b8135610fcd848260208601610f51565b91505092915050565b600081359050610fe5816118d3565b92915050565b60006020828403121561100157611000611892565b5b600061100f84828501610f93565b91505092915050565b6000806040838503121561102f5761102e611892565b5b600061103d85828601610f93565b925050602083013567ffffffffffffffff81111561105e5761105d61188d565b5b61106a85828601610fa8565b9150509250929050565b60008060006060848603121561108d5761108c611892565b5b600061109b86828701610f93565b935050602084013567ffffffffffffffff8111156110bc576110bb61188d565b5b6110c886828701610fa8565b925050604084013567ffffffffffffffff8111156110e9576110e861188d565b5b6110f586828701610fa8565b9150509250925092565b60006020828403121561111557611114611892565b5b600082013567ffffffffffffffff8111156111335761113261188d565b5b61113f84828501610fa8565b91505092915050565b60006020828403121561115e5761115d611892565b5b600061116c84828501610fd6565b91505092915050565b600061118183836112dd565b905092915050565b6111928161163d565b82525050565b6111a18161163d565b82525050565b60006111b282611586565b6111bc81856115a9565b9350836020820285016111ce85611576565b8060005b8581101561120a57848403895281516111eb8582611175565b94506111f68361159c565b925060208a019950506001810190506111d2565b50829750879550505050505092915050565b6112258161164f565b82525050565b61123481611698565b82525050565b600061124582611591565b61124f81856115ba565b935061125f8185602086016116b9565b61126881611897565b840191505092915050565b600061127e82611591565b61128881856115cb565b93506112988185602086016116b9565b6112a181611897565b840191505092915050565b60006112b782611591565b6112c181856115dc565b93506112d18185602086016116b9565b80840191505092915050565b600060808301600083015184820360008601526112fa828261123a565b915050602083015161130f6020860182611189565b50604083015161132260408601826113b1565b506060830151848203606086015261133a828261123a565b9150508091505092915050565b60006080830160008301518482036000860152611364828261123a565b91505060208301516113796020860182611189565b50604083015161138c60408601826113b1565b50606083015184820360608601526113a4828261123a565b9150508091505092915050565b6113ba8161168e565b82525050565b6113c98161168e565b82525050565b60006113db82846112ac565b915081905092915050565b60006020820190506113fb6000830184611198565b92915050565b6000602082019050818103600083015261141b81846111a7565b905092915050565b6000602082019050611438600083018461122b565b92915050565b600060208201905081810360008301526114588184611273565b905092915050565b6000608082019050818103600083015261147a8187611273565b90506114896020830186611198565b61149660408301856113c0565b81810360608301526114a88184611273565b905095945050505050565b600060408201905081810360008301526114cd8185611273565b90506114dc602083018461121c565b9392505050565b600060208201905081810360008301526114fd8184611347565b905092915050565b600060208201905061151a60008301846113c0565b92915050565b600061152a61153b565b9050611536828261171e565b919050565b6000604051905090565b600067ffffffffffffffff8211156115605761155f611854565b5b61156982611897565b9050602081019050919050565b6000819050602082019050919050565b600081519050919050565b600081519050919050565b6000602082019050919050565b600082825260208201905092915050565b600082825260208201905092915050565b600082825260208201905092915050565b600081905092915050565b60006115f28261168e565b91506115fd8361168e565b9250827fffffffffffffffffffffffffffffffffffffffffffffffffffffffffffffffff0382111561163257611631611798565b5b828201905092915050565b60006116488261166e565b9050919050565b60008115159050919050565b6000819050611669826118a8565b919050565b600073ffffffffffffffffffffffffffffffffffffffff82169050919050565b6000819050919050565b60006116a38261165b565b9050919050565b82818337600083830152505050565b60005b838110156116d75780820151818401526020810190506116bc565b838111156116e6576000848401525b50505050565b6000600282049050600182168061170457607f821691505b60208210811415611718576117176117f6565b5b50919050565b61172782611897565b810181811067ffffffffffffffff8211171561174657611745611854565b5b80604052505050565b600061175a8261168e565b91507fffffffffffffffffffffffffffffffffffffffffffffffffffffffffffffffff82141561178d5761178c611798565b5b600182019050919050565b7f4e487b7100000000000000000000000000000000000000000000000000000000600052601160045260246000fd5b7f4e487b7100000000000000000000000000000000000000000000000000000000600052602160045260246000fd5b7f4e487b7100000000000000000000000000000000000000000000000000000000600052602260045260246000fd5b7f4e487b7100000000000000000000000000000000000000000000000000000000600052603260045260246000fd5b7f4e487b7100000000000000000000000000000000000000000000000000000000600052604160045260246000fd5b600080fd5b600080fd5b600080fd5b600080fd5b6000601f19601f8301169050919050565b600381106118b9576118b86117c7565b5b50565b6118c58161163d565b81146118d057600080fd5b50565b6118dc8161168e565b81146118e757600080fd5b5056fea2646970667358221220f63100e603184a3a4b378e3cfbb66170ace008b63960aa3f4c5c48031fcbd86664736f6c63430008070033",
					"opcodes": "PUSH1 0x80 PUSH1 0x40 MSTORE CALLVALUE DUP1 ISZERO PUSH3 0x11 JUMPI PUSH1 0x0 DUP1 REVERT JUMPDEST POP PUSH1 0x40 MLOAD PUSH3 0x1D28 CODESIZE SUB DUP1 PUSH3 0x1D28 DUP4 CODECOPY DUP2 DUP2 ADD PUSH1 0x40 MSTORE DUP2 ADD SWAP1 PUSH3 0x37 SWAP2 SWAP1 PUSH3 0x1F4 JUMP JUMPDEST CALLER PUSH1 0x8 PUSH1 0x1 PUSH2 0x100 EXP DUP2 SLOAD DUP2 PUSH20 0xFFFFFFFFFFFFFFFFFFFFFFFFFFFFFFFFFFFFFFFF MUL NOT AND SWAP1 DUP4 PUSH20 0xFFFFFFFFFFFFFFFFFFFFFFFFFFFFFFFFFFFFFFFF AND MUL OR SWAP1 SSTORE POP DUP1 PUSH1 0x9 SWAP1 DUP1 MLOAD SWAP1 PUSH1 0x20 ADD SWAP1 PUSH3 0x90 SWAP3 SWAP2 SWAP1 PUSH3 0xC6 JUMP JUMPDEST POP PUSH1 0x0 PUSH1 0x8 PUSH1 0x0 PUSH2 0x100 EXP DUP2 SLOAD DUP2 PUSH1 0xFF MUL NOT AND SWAP1 DUP4 PUSH1 0x2 DUP2 GT ISZERO PUSH3 0xBA JUMPI PUSH3 0xB9 PUSH3 0x346 JUMP JUMPDEST JUMPDEST MUL OR SWAP1 SSTORE POP POP PUSH3 0x3F8 JUMP JUMPDEST DUP3 DUP1 SLOAD PUSH3 0xD4 SWAP1 PUSH3 0x2DA JUMP JUMPDEST SWAP1 PUSH1 0x0 MSTORE PUSH1 0x20 PUSH1 0x0 KECCAK256 SWAP1 PUSH1 0x1F ADD PUSH1 0x20 SWAP1 DIV DUP2 ADD SWAP3 DUP3 PUSH3 0xF8 JUMPI PUSH1 0x0 DUP6 SSTORE PUSH3 0x144 JUMP JUMPDEST DUP3 PUSH1 0x1F LT PUSH3 0x113 JUMPI DUP1 MLOAD PUSH1 0xFF NOT AND DUP4 DUP1 ADD OR DUP6 SSTORE PUSH3 0x144 JUMP JUMPDEST DUP3 DUP1 ADD PUSH1 0x1 ADD DUP6 SSTORE DUP3 ISZERO PUSH3 0x144 JUMPI SWAP2 DUP3 ADD JUMPDEST DUP3 DUP2 GT ISZERO PUSH3 0x143 JUMPI DUP3 MLOAD DUP3 SSTORE SWAP2 PUSH1 0x20 ADD SWAP2 SWAP1 PUSH1 0x1 ADD SWAP1 PUSH3 0x126 JUMP JUMPDEST JUMPDEST POP SWAP1 POP PUSH3 0x153 SWAP2 SWAP1 PUSH3 0x157 JUMP JUMPDEST POP SWAP1 JUMP JUMPDEST JUMPDEST DUP1 DUP3 GT ISZERO PUSH3 0x172 JUMPI PUSH1 0x0 DUP2 PUSH1 0x0 SWAP1 SSTORE POP PUSH1 0x1 ADD PUSH3 0x158 JUMP JUMPDEST POP SWAP1 JUMP JUMPDEST PUSH1 0x0 PUSH3 0x18D PUSH3 0x187 DUP5 PUSH3 0x26E JUMP JUMPDEST PUSH3 0x245 JUMP JUMPDEST SWAP1 POP DUP3 DUP2 MSTORE PUSH1 0x20 DUP2 ADD DUP5 DUP5 DUP5 ADD GT ISZERO PUSH3 0x1AC JUMPI PUSH3 0x1AB PUSH3 0x3D8 JUMP JUMPDEST JUMPDEST PUSH3 0x1B9 DUP5 DUP3 DUP6 PUSH3 0x2A4 JUMP JUMPDEST POP SWAP4 SWAP3 POP POP POP JUMP JUMPDEST PUSH1 0x0 DUP3 PUSH1 0x1F DUP4 ADD SLT PUSH3 0x1D9 JUMPI PUSH3 0x1D8 PUSH3 0x3D3 JUMP JUMPDEST JUMPDEST DUP2 MLOAD PUSH3 0x1EB DUP5 DUP3 PUSH1 0x20 DUP7 ADD PUSH3 0x176 JUMP JUMPDEST SWAP2 POP POP SWAP3 SWAP2 POP POP JUMP JUMPDEST PUSH1 0x0 PUSH1 0x20 DUP3 DUP5 SUB SLT ISZERO PUSH3 0x20D JUMPI PUSH3 0x20C PUSH3 0x3E2 JUMP JUMPDEST JUMPDEST PUSH1 0x0 DUP3 ADD MLOAD PUSH8 0xFFFFFFFFFFFFFFFF DUP2 GT ISZERO PUSH3 0x22E JUMPI PUSH3 0x22D PUSH3 0x3DD JUMP JUMPDEST JUMPDEST PUSH3 0x23C DUP5 DUP3 DUP6 ADD PUSH3 0x1C1 JUMP JUMPDEST SWAP2 POP POP SWAP3 SWAP2 POP POP JUMP JUMPDEST PUSH1 0x0 PUSH3 0x251 PUSH3 0x264 JUMP JUMPDEST SWAP1 POP PUSH3 0x25F DUP3 DUP3 PUSH3 0x310 JUMP JUMPDEST SWAP2 SWAP1 POP JUMP JUMPDEST PUSH1 0x0 PUSH1 0x40 MLOAD SWAP1 POP SWAP1 JUMP JUMPDEST PUSH1 0x0 PUSH8 0xFFFFFFFFFFFFFFFF DUP3 GT ISZERO PUSH3 0x28C JUMPI PUSH3 0x28B PUSH3 0x3A4 JUMP JUMPDEST JUMPDEST PUSH3 0x297 DUP3 PUSH3 0x3E7 JUMP JUMPDEST SWAP1 POP PUSH1 0x20 DUP2 ADD SWAP1 POP SWAP2 SWAP1 POP JUMP JUMPDEST PUSH1 0x0 JUMPDEST DUP4 DUP2 LT ISZERO PUSH3 0x2C4 JUMPI DUP1 DUP3 ADD MLOAD DUP2 DUP5 ADD MSTORE PUSH1 0x20 DUP2 ADD SWAP1 POP PUSH3 0x2A7 JUMP JUMPDEST DUP4 DUP2 GT ISZERO PUSH3 0x2D4 JUMPI PUSH1 0x0 DUP5 DUP5 ADD MSTORE JUMPDEST POP POP POP POP JUMP JUMPDEST PUSH1 0x0 PUSH1 0x2 DUP3 DIV SWAP1 POP PUSH1 0x1 DUP3 AND DUP1 PUSH3 0x2F3 JUMPI PUSH1 0x7F DUP3 AND SWAP2 POP JUMPDEST PUSH1 0x20 DUP3 LT DUP2 EQ ISZERO PUSH3 0x30A JUMPI PUSH3 0x309 PUSH3 0x375 JUMP JUMPDEST JUMPDEST POP SWAP2 SWAP1 POP JUMP JUMPDEST PUSH3 0x31B DUP3 PUSH3 0x3E7 JUMP JUMPDEST DUP2 ADD DUP2 DUP2 LT PUSH8 0xFFFFFFFFFFFFFFFF DUP3 GT OR ISZERO PUSH3 0x33D JUMPI PUSH3 0x33C PUSH3 0x3A4 JUMP JUMPDEST JUMPDEST DUP1 PUSH1 0x40 MSTORE POP POP POP JUMP JUMPDEST PUSH32 0x4E487B7100000000000000000000000000000000000000000000000000000000 PUSH1 0x0 MSTORE PUSH1 0x21 PUSH1 0x4 MSTORE PUSH1 0x24 PUSH1 0x0 REVERT JUMPDEST PUSH32 0x4E487B7100000000000000000000000000000000000000000000000000000000 PUSH1 0x0 MSTORE PUSH1 0x22 PUSH1 0x4 MSTORE PUSH1 0x24 PUSH1 0x0 REVERT JUMPDEST PUSH32 0x4E487B7100000000000000000000000000000000000000000000000000000000 PUSH1 0x0 MSTORE PUSH1 0x41 PUSH1 0x4 MSTORE PUSH1 0x24 PUSH1 0x0 REVERT JUMPDEST PUSH1 0x0 DUP1 REVERT JUMPDEST PUSH1 0x0 DUP1 REVERT JUMPDEST PUSH1 0x0 DUP1 REVERT JUMPDEST PUSH1 0x0 DUP1 REVERT JUMPDEST PUSH1 0x0 PUSH1 0x1F NOT PUSH1 0x1F DUP4 ADD AND SWAP1 POP SWAP2 SWAP1 POP JUMP JUMPDEST PUSH2 0x1920 DUP1 PUSH3 0x408 PUSH1 0x0 CODECOPY PUSH1 0x0 RETURN INVALID PUSH1 0x80 PUSH1 0x40 MSTORE CALLVALUE DUP1 ISZERO PUSH2 0x10 JUMPI PUSH1 0x0 DUP1 REVERT JUMPDEST POP PUSH1 0x4 CALLDATASIZE LT PUSH2 0xEA JUMPI PUSH1 0x0 CALLDATALOAD PUSH1 0xE0 SHR DUP1 PUSH4 0x62C49251 GT PUSH2 0x8C JUMPI DUP1 PUSH4 0x8949E009 GT PUSH2 0x66 JUMPI DUP1 PUSH4 0x8949E009 EQ PUSH2 0x268 JUMPI DUP1 PUSH4 0xC19D93FB EQ PUSH2 0x286 JUMPI DUP1 PUSH4 0xD9E95A98 EQ PUSH2 0x2A4 JUMPI DUP1 PUSH4 0xF276669D EQ PUSH2 0x2C0 JUMPI PUSH2 0xEA JUMP JUMPDEST DUP1 PUSH4 0x62C49251 EQ PUSH2 0x1FB JUMPI DUP1 PUSH4 0x72753BE5 EQ PUSH2 0x217 JUMPI DUP1 PUSH4 0x80843E25 EQ PUSH2 0x24A JUMPI PUSH2 0xEA JUMP JUMPDEST DUP1 PUSH4 0x12C06342 GT PUSH2 0xC8 JUMPI DUP1 PUSH4 0x12C06342 EQ PUSH2 0x15B JUMPI DUP1 PUSH4 0x2D35A8A2 EQ PUSH2 0x18C JUMPI DUP1 PUSH4 0x46702B16 EQ PUSH2 0x1AA JUMPI DUP1 PUSH4 0x5F5300FF EQ PUSH2 0x1DD JUMPI PUSH2 0xEA JUMP JUMPDEST DUP1 PUSH4 0x132BE09 EQ PUSH2 0xEF JUMPI DUP1 PUSH4 0x6A49FCE EQ PUSH2 0x11F JUMPI DUP1 PUSH4 0xD15FD77 EQ PUSH2 0x13D JUMPI JUMPDEST PUSH1 0x0 DUP1 REVERT JUMPDEST PUSH2 0x109 PUSH1 0x4 DUP1 CALLDATASIZE SUB DUP2 ADD SWAP1 PUSH2 0x104 SWAP2 SWAP1 PUSH2 0x1148 JUMP JUMPDEST PUSH2 0x2F0 JUMP JUMPDEST PUSH1 0x40 MLOAD PUSH2 0x116 SWAP2 SWAP1 PUSH2 0x1505 JUMP JUMPDEST PUSH1 0x40 MLOAD DUP1 SWAP2 SUB SWAP1 RETURN JUMPDEST PUSH2 0x127 PUSH2 0x308 JUMP JUMPDEST PUSH1 0x40 MLOAD PUSH2 0x134 SWAP2 SWAP1 PUSH2 0x1401 JUMP JUMPDEST PUSH1 0x40 MLOAD DUP1 SWAP2 SUB SWAP1 RETURN JUMPDEST PUSH2 0x145 PUSH2 0x552 JUMP JUMPDEST PUSH1 0x40 MLOAD PUSH2 0x152 SWAP2 SWAP1 PUSH2 0x1505 JUMP JUMPDEST PUSH1 0x40 MLOAD DUP1 SWAP2 SUB SWAP1 RETURN JUMPDEST PUSH2 0x175 PUSH1 0x4 DUP1 CALLDATASIZE SUB DUP2 ADD SWAP1 PUSH2 0x170 SWAP2 SWAP1 PUSH2 0xFEB JUMP JUMPDEST PUSH2 0x558 JUMP JUMPDEST PUSH1 0x40 MLOAD PUSH2 0x183 SWAP3 SWAP2 SWAP1 PUSH2 0x14B3 JUMP JUMPDEST PUSH1 0x40 MLOAD DUP1 SWAP2 SUB SWAP1 RETURN JUMPDEST PUSH2 0x194 PUSH2 0x611 JUMP JUMPDEST PUSH1 0x40 MLOAD PUSH2 0x1A1 SWAP2 SWAP1 PUSH2 0x1505 JUMP JUMPDEST PUSH1 0x40 MLOAD DUP1 SWAP2 SUB SWAP1 RETURN JUMPDEST PUSH2 0x1C4 PUSH1 0x4 DUP1 CALLDATASIZE SUB DUP2 ADD SWAP1 PUSH2 0x1BF SWAP2 SWAP1 PUSH2 0x10FF JUMP JUMPDEST PUSH2 0x617 JUMP JUMPDEST PUSH1 0x40 MLOAD PUSH2 0x1D4 SWAP5 SWAP4 SWAP3 SWAP2 SWAP1 PUSH2 0x1460 JUMP JUMPDEST PUSH1 0x40 MLOAD DUP1 SWAP2 SUB SWAP1 RETURN JUMPDEST PUSH2 0x1E5 PUSH2 0x78D JUMP JUMPDEST PUSH1 0x40 MLOAD PUSH2 0x1F2 SWAP2 SWAP1 PUSH2 0x1505 JUMP JUMPDEST PUSH1 0x40 MLOAD DUP1 SWAP2 SUB SWAP1 RETURN JUMPDEST PUSH2 0x215 PUSH1 0x4 DUP1 CALLDATASIZE SUB DUP2 ADD SWAP1 PUSH2 0x210 SWAP2 SWAP1 PUSH2 0x1074 JUMP JUMPDEST PUSH2 0x793 JUMP JUMPDEST STOP JUMPDEST PUSH2 0x231 PUSH1 0x4 DUP1 CALLDATASIZE SUB DUP2 ADD SWAP1 PUSH2 0x22C SWAP2 SWAP1 PUSH2 0x1148 JUMP JUMPDEST PUSH2 0x9ED JUMP JUMPDEST PUSH1 0x40 MLOAD PUSH2 0x241 SWAP5 SWAP4 SWAP3 SWAP2 SWAP1 PUSH2 0x1460 JUMP JUMPDEST PUSH1 0x40 MLOAD DUP1 SWAP2 SUB SWAP1 RETURN JUMPDEST PUSH2 0x252 PUSH2 0xB4D JUMP JUMPDEST PUSH1 0x40 MLOAD PUSH2 0x25F SWAP2 SWAP1 PUSH2 0x143E JUMP JUMPDEST PUSH1 0x40 MLOAD DUP1 SWAP2 SUB SWAP1 RETURN JUMPDEST PUSH2 0x270 PUSH2 0xBDB JUMP JUMPDEST PUSH1 0x40 MLOAD PUSH2 0x27D SWAP2 SWAP1 PUSH2 0x13E6 JUMP JUMPDEST PUSH1 0x40 MLOAD DUP1 SWAP2 SUB SWAP1 RETURN JUMPDEST PUSH2 0x28E PUSH2 0xC01 JUMP JUMPDEST PUSH1 0x40 MLOAD PUSH2 0x29B SWAP2 SWAP1 PUSH2 0x1423 JUMP JUMPDEST PUSH1 0x40 MLOAD DUP1 SWAP2 SUB SWAP1 RETURN JUMPDEST PUSH2 0x2BE PUSH1 0x4 DUP1 CALLDATASIZE SUB DUP2 ADD SWAP1 PUSH2 0x2B9 SWAP2 SWAP1 PUSH2 0x1018 JUMP JUMPDEST PUSH2 0xC14 JUMP JUMPDEST STOP JUMPDEST PUSH2 0x2DA PUSH1 0x4 DUP1 CALLDATASIZE SUB DUP2 ADD SWAP1 PUSH2 0x2D5 SWAP2 SWAP1 PUSH2 0x10FF JUMP JUMPDEST PUSH2 0xCB4 JUMP JUMPDEST PUSH1 0x40 MLOAD PUSH2 0x2E7 SWAP2 SWAP1 PUSH2 0x14E3 JUMP JUMPDEST PUSH1 0x40 MLOAD DUP1 SWAP2 SUB SWAP1 RETURN JUMPDEST PUSH1 0x2 PUSH1 0x20 MSTORE DUP1 PUSH1 0x0 MSTORE PUSH1 0x40 PUSH1 0x0 KECCAK256 PUSH1 0x0 SWAP2 POP SWAP1 POP SLOAD DUP2 JUMP JUMPDEST PUSH1 0x60 PUSH1 0x0 PUSH1 0x5 SLOAD PUSH8 0xFFFFFFFFFFFFFFFF DUP2 GT ISZERO PUSH2 0x328 JUMPI PUSH2 0x327 PUSH2 0x1854 JUMP JUMPDEST JUMPDEST PUSH1 0x40 MLOAD SWAP1 DUP1 DUP3 MSTORE DUP1 PUSH1 0x20 MUL PUSH1 0x20 ADD DUP3 ADD PUSH1 0x40 MSTORE DUP1 ISZERO PUSH2 0x361 JUMPI DUP2 PUSH1 0x20 ADD JUMPDEST PUSH2 0x34E PUSH2 0xE70 JUMP JUMPDEST DUP2 MSTORE PUSH1 0x20 ADD SWAP1 PUSH1 0x1 SWAP1 SUB SWAP1 DUP2 PUSH2 0x346 JUMPI SWAP1 POP JUMPDEST POP SWAP1 POP PUSH1 0x0 JUMPDEST PUSH1 0x5 SLOAD DUP2 LT ISZERO PUSH2 0x54A JUMPI PUSH1 0x0 PUSH1 0x3 PUSH1 0x0 DUP4 DUP2 MSTORE PUSH1 0x20 ADD SWAP1 DUP2 MSTORE PUSH1 0x20 ADD PUSH1 0x0 KECCAK256 SWAP1 POP DUP1 PUSH1 0x40 MLOAD DUP1 PUSH1 0x80 ADD PUSH1 0x40 MSTORE SWAP1 DUP2 PUSH1 0x0 DUP3 ADD DUP1 SLOAD PUSH2 0x3A4 SWAP1 PUSH2 0x16EC JUMP JUMPDEST DUP1 PUSH1 0x1F ADD PUSH1 0x20 DUP1 SWAP2 DIV MUL PUSH1 0x20 ADD PUSH1 0x40 MLOAD SWAP1 DUP2 ADD PUSH1 0x40 MSTORE DUP1 SWAP3 SWAP2 SWAP1 DUP2 DUP2 MSTORE PUSH1 0x20 ADD DUP3 DUP1 SLOAD PUSH2 0x3D0 SWAP1 PUSH2 0x16EC JUMP JUMPDEST DUP1 ISZERO PUSH2 0x41D JUMPI DUP1 PUSH1 0x1F LT PUSH2 0x3F2 JUMPI PUSH2 0x100 DUP1 DUP4 SLOAD DIV MUL DUP4 MSTORE SWAP2 PUSH1 0x20 ADD SWAP2 PUSH2 0x41D JUMP JUMPDEST DUP3 ADD SWAP2 SWAP1 PUSH1 0x0 MSTORE PUSH1 0x20 PUSH1 0x0 KECCAK256 SWAP1 JUMPDEST DUP2 SLOAD DUP2 MSTORE SWAP1 PUSH1 0x1 ADD SWAP1 PUSH1 0x20 ADD DUP1 DUP4 GT PUSH2 0x400 JUMPI DUP3 SWAP1 SUB PUSH1 0x1F AND DUP3 ADD SWAP2 JUMPDEST POP POP POP POP POP DUP2 MSTORE PUSH1 0x20 ADD PUSH1 0x1 DUP3 ADD PUSH1 0x0 SWAP1 SLOAD SWAP1 PUSH2 0x100 EXP SWAP1 DIV PUSH20 0xFFFFFFFFFFFFFFFFFFFFFFFFFFFFFFFFFFFFFFFF AND PUSH20 0xFFFFFFFFFFFFFFFFFFFFFFFFFFFFFFFFFFFFFFFF AND PUSH20 0xFFFFFFFFFFFFFFFFFFFFFFFFFFFFFFFFFFFFFFFF AND DUP2 MSTORE PUSH1 0x20 ADD PUSH1 0x2 DUP3 ADD SLOAD DUP2 MSTORE PUSH1 0x20 ADD PUSH1 0x3 DUP3 ADD DUP1 SLOAD PUSH2 0x496 SWAP1 PUSH2 0x16EC JUMP JUMPDEST DUP1 PUSH1 0x1F ADD PUSH1 0x20 DUP1 SWAP2 DIV MUL PUSH1 0x20 ADD PUSH1 0x40 MLOAD SWAP1 DUP2 ADD PUSH1 0x40 MSTORE DUP1 SWAP3 SWAP2 SWAP1 DUP2 DUP2 MSTORE PUSH1 0x20 ADD DUP3 DUP1 SLOAD PUSH2 0x4C2 SWAP1 PUSH2 0x16EC JUMP JUMPDEST DUP1 ISZERO PUSH2 0x50F JUMPI DUP1 PUSH1 0x1F LT PUSH2 0x4E4 JUMPI PUSH2 0x100 DUP1 DUP4 SLOAD DIV MUL DUP4 MSTORE SWAP2 PUSH1 0x20 ADD SWAP2 PUSH2 0x50F JUMP JUMPDEST DUP3 ADD SWAP2 SWAP1 PUSH1 0x0 MSTORE PUSH1 0x20 PUSH1 0x0 KECCAK256 SWAP1 JUMPDEST DUP2 SLOAD DUP2 MSTORE SWAP1 PUSH1 0x1 ADD SWAP1 PUSH1 0x20 ADD DUP1 DUP4 GT PUSH2 0x4F2 JUMPI DUP3 SWAP1 SUB PUSH1 0x1F AND DUP3 ADD SWAP2 JUMPDEST POP POP POP POP POP DUP2 MSTORE POP POP DUP4 DUP4 DUP2 MLOAD DUP2 LT PUSH2 0x52B JUMPI PUSH2 0x52A PUSH2 0x1825 JUMP JUMPDEST JUMPDEST PUSH1 0x20 MUL PUSH1 0x20 ADD ADD DUP2 SWAP1 MSTORE POP POP DUP1 DUP1 PUSH2 0x542 SWAP1 PUSH2 0x174F JUMP JUMPDEST SWAP2 POP POP PUSH2 0x367 JUMP JUMPDEST POP DUP1 SWAP2 POP POP SWAP1 JUMP JUMPDEST PUSH1 0x7 SLOAD DUP2 JUMP JUMPDEST PUSH1 0x0 PUSH1 0x20 MSTORE DUP1 PUSH1 0x0 MSTORE PUSH1 0x40 PUSH1 0x0 KECCAK256 PUSH1 0x0 SWAP2 POP SWAP1 POP DUP1 PUSH1 0x0 ADD DUP1 SLOAD PUSH2 0x57B SWAP1 PUSH2 0x16EC JUMP JUMPDEST DUP1 PUSH1 0x1F ADD PUSH1 0x20 DUP1 SWAP2 DIV MUL PUSH1 0x20 ADD PUSH1 0x40 MLOAD SWAP1 DUP2 ADD PUSH1 0x40 MSTORE DUP1 SWAP3 SWAP2 SWAP1 DUP2 DUP2 MSTORE PUSH1 0x20 ADD DUP3 DUP1 SLOAD PUSH2 0x5A7 SWAP1 PUSH2 0x16EC JUMP JUMPDEST DUP1 ISZERO PUSH2 0x5F4 JUMPI DUP1 PUSH1 0x1F LT PUSH2 0x5C9 JUMPI PUSH2 0x100 DUP1 DUP4 SLOAD DIV MUL DUP4 MSTORE SWAP2 PUSH1 0x20 ADD SWAP2 PUSH2 0x5F4 JUMP JUMPDEST DUP3 ADD SWAP2 SWAP1 PUSH1 0x0 MSTORE PUSH1 0x20 PUSH1 0x0 KECCAK256 SWAP1 JUMPDEST DUP2 SLOAD DUP2 MSTORE SWAP1 PUSH1 0x1 ADD SWAP1 PUSH1 0x20 ADD DUP1 DUP4 GT PUSH2 0x5D7 JUMPI DUP3 SWAP1 SUB PUSH1 0x1F AND DUP3 ADD SWAP2 JUMPDEST POP POP POP POP POP SWAP1 DUP1 PUSH1 0x1 ADD PUSH1 0x0 SWAP1 SLOAD SWAP1 PUSH2 0x100 EXP SWAP1 DIV PUSH1 0xFF AND SWAP1 POP DUP3 JUMP JUMPDEST PUSH1 0x5 SLOAD DUP2 JUMP JUMPDEST PUSH1 0x4 DUP2 DUP1 MLOAD PUSH1 0x20 DUP2 ADD DUP3 ADD DUP1 MLOAD DUP5 DUP3 MSTORE PUSH1 0x20 DUP4 ADD PUSH1 0x20 DUP6 ADD KECCAK256 DUP2 DUP4 MSTORE DUP1 SWAP6 POP POP POP POP POP POP PUSH1 0x0 SWAP2 POP SWAP1 POP DUP1 PUSH1 0x0 ADD DUP1 SLOAD PUSH2 0x650 SWAP1 PUSH2 0x16EC JUMP JUMPDEST DUP1 PUSH1 0x1F ADD PUSH1 0x20 DUP1 SWAP2 DIV MUL PUSH1 0x20 ADD PUSH1 0x40 MLOAD SWAP1 DUP2 ADD PUSH1 0x40 MSTORE DUP1 SWAP3 SWAP2 SWAP1 DUP2 DUP2 MSTORE PUSH1 0x20 ADD DUP3 DUP1 SLOAD PUSH2 0x67C SWAP1 PUSH2 0x16EC JUMP JUMPDEST DUP1 ISZERO PUSH2 0x6C9 JUMPI DUP1 PUSH1 0x1F LT PUSH2 0x69E JUMPI PUSH2 0x100 DUP1 DUP4 SLOAD DIV MUL DUP4 MSTORE SWAP2 PUSH1 0x20 ADD SWAP2 PUSH2 0x6C9 JUMP JUMPDEST DUP3 ADD SWAP2 SWAP1 PUSH1 0x0 MSTORE PUSH1 0x20 PUSH1 0x0 KECCAK256 SWAP1 JUMPDEST DUP2 SLOAD DUP2 MSTORE SWAP1 PUSH1 0x1 ADD SWAP1 PUSH1 0x20 ADD DUP1 DUP4 GT PUSH2 0x6AC JUMPI DUP3 SWAP1 SUB PUSH1 0x1F AND DUP3 ADD SWAP2 JUMPDEST POP POP POP POP POP SWAP1 DUP1 PUSH1 0x1 ADD PUSH1 0x0 SWAP1 SLOAD SWAP1 PUSH2 0x100 EXP SWAP1 DIV PUSH20 0xFFFFFFFFFFFFFFFFFFFFFFFFFFFFFFFFFFFFFFFF AND SWAP1 DUP1 PUSH1 0x2 ADD SLOAD SWAP1 DUP1 PUSH1 0x3 ADD DUP1 SLOAD PUSH2 0x70A SWAP1 PUSH2 0x16EC JUMP JUMPDEST DUP1 PUSH1 0x1F ADD PUSH1 0x20 DUP1 SWAP2 DIV MUL PUSH1 0x20 ADD PUSH1 0x40 MLOAD SWAP1 DUP2 ADD PUSH1 0x40 MSTORE DUP1 SWAP3 SWAP2 SWAP1 DUP2 DUP2 MSTORE PUSH1 0x20 ADD DUP3 DUP1 SLOAD PUSH2 0x736 SWAP1 PUSH2 0x16EC JUMP JUMPDEST DUP1 ISZERO PUSH2 0x783 JUMPI DUP1 PUSH1 0x1F LT PUSH2 0x758 JUMPI PUSH2 0x100 DUP1 DUP4 SLOAD DIV MUL DUP4 MSTORE SWAP2 PUSH1 0x20 ADD SWAP2 PUSH2 0x783 JUMP JUMPDEST DUP3 ADD SWAP2 SWAP1 PUSH1 0x0 MSTORE PUSH1 0x20 PUSH1 0x0 KECCAK256 SWAP1 JUMPDEST DUP2 SLOAD DUP2 MSTORE SWAP1 PUSH1 0x1 ADD SWAP1 PUSH1 0x20 ADD DUP1 DUP4 GT PUSH2 0x766 JUMPI DUP3 SWAP1 SUB PUSH1 0x1F AND DUP3 ADD SWAP2 JUMPDEST POP POP POP POP POP SWAP1 POP DUP5 JUMP JUMPDEST PUSH1 0x6 SLOAD DUP2 JUMP JUMPDEST PUSH1 0x0 DUP1 PUSH1 0x2 DUP2 GT ISZERO PUSH2 0x7A8 JUMPI PUSH2 0x7A7 PUSH2 0x17C7 JUMP JUMPDEST JUMPDEST PUSH1 0x8 PUSH1 0x0 SWAP1 SLOAD SWAP1 PUSH2 0x100 EXP SWAP1 DIV PUSH1 0xFF AND PUSH1 0x2 DUP2 GT ISZERO PUSH2 0x7CA JUMPI PUSH2 0x7C9 PUSH2 0x17C7 JUMP JUMPDEST JUMPDEST EQ PUSH2 0x7D4 JUMPI PUSH1 0x0 DUP1 REVERT JUMPDEST CALLER PUSH20 0xFFFFFFFFFFFFFFFFFFFFFFFFFFFFFFFFFFFFFFFF AND PUSH1 0x8 PUSH1 0x1 SWAP1 SLOAD SWAP1 PUSH2 0x100 EXP SWAP1 DIV PUSH20 0xFFFFFFFFFFFFFFFFFFFFFFFFFFFFFFFFFFFFFFFF AND PUSH20 0xFFFFFFFFFFFFFFFFFFFFFFFFFFFFFFFFFFFFFFFF AND EQ PUSH2 0x82E JUMPI PUSH1 0x0 DUP1 REVERT JUMPDEST PUSH2 0x836 PUSH2 0xE70 JUMP JUMPDEST DUP5 DUP2 PUSH1 0x20 ADD SWAP1 PUSH20 0xFFFFFFFFFFFFFFFFFFFFFFFFFFFFFFFFFFFFFFFF AND SWAP1 DUP2 PUSH20 0xFFFFFFFFFFFFFFFFFFFFFFFFFFFFFFFFFFFFFFFF AND DUP2 MSTORE POP POP DUP4 DUP2 PUSH1 0x0 ADD DUP2 SWAP1 MSTORE POP DUP3 DUP2 PUSH1 0x60 ADD DUP2 SWAP1 MSTORE POP DUP1 PUSH1 0x3 PUSH1 0x0 PUSH1 0x5 SLOAD DUP2 MSTORE PUSH1 0x20 ADD SWAP1 DUP2 MSTORE PUSH1 0x20 ADD PUSH1 0x0 KECCAK256 PUSH1 0x0 DUP3 ADD MLOAD DUP2 PUSH1 0x0 ADD SWAP1 DUP1 MLOAD SWAP1 PUSH1 0x20 ADD SWAP1 PUSH2 0x8B2 SWAP3 SWAP2 SWAP1 PUSH2 0xEAE JUMP JUMPDEST POP PUSH1 0x20 DUP3 ADD MLOAD DUP2 PUSH1 0x1 ADD PUSH1 0x0 PUSH2 0x100 EXP DUP2 SLOAD DUP2 PUSH20 0xFFFFFFFFFFFFFFFFFFFFFFFFFFFFFFFFFFFFFFFF MUL NOT AND SWAP1 DUP4 PUSH20 0xFFFFFFFFFFFFFFFFFFFFFFFFFFFFFFFFFFFFFFFF AND MUL OR SWAP1 SSTORE POP PUSH1 0x40 DUP3 ADD MLOAD DUP2 PUSH1 0x2 ADD SSTORE PUSH1 0x60 DUP3 ADD MLOAD DUP2 PUSH1 0x3 ADD SWAP1 DUP1 MLOAD SWAP1 PUSH1 0x20 ADD SWAP1 PUSH2 0x920 SWAP3 SWAP2 SWAP1 PUSH2 0xEAE JUMP JUMPDEST POP SWAP1 POP POP DUP1 PUSH1 0x4 DUP5 PUSH1 0x40 MLOAD PUSH2 0x935 SWAP2 SWAP1 PUSH2 0x13CF JUMP JUMPDEST SWAP1 DUP2 MSTORE PUSH1 0x20 ADD PUSH1 0x40 MLOAD DUP1 SWAP2 SUB SWAP1 KECCAK256 PUSH1 0x0 DUP3 ADD MLOAD DUP2 PUSH1 0x0 ADD SWAP1 DUP1 MLOAD SWAP1 PUSH1 0x20 ADD SWAP1 PUSH2 0x95F SWAP3 SWAP2 SWAP1 PUSH2 0xEAE JUMP JUMPDEST POP PUSH1 0x20 DUP3 ADD MLOAD DUP2 PUSH1 0x1 ADD PUSH1 0x0 PUSH2 0x100 EXP DUP2 SLOAD DUP2 PUSH20 0xFFFFFFFFFFFFFFFFFFFFFFFFFFFFFFFFFFFFFFFF MUL NOT AND SWAP1 DUP4 PUSH20 0xFFFFFFFFFFFFFFFFFFFFFFFFFFFFFFFFFFFFFFFF AND MUL OR SWAP1 SSTORE POP PUSH1 0x40 DUP3 ADD MLOAD DUP2 PUSH1 0x2 ADD SSTORE PUSH1 0x60 DUP3 ADD MLOAD DUP2 PUSH1 0x3 ADD SWAP1 DUP1 MLOAD SWAP1 PUSH1 0x20 ADD SWAP1 PUSH2 0x9CD SWAP3 SWAP2 SWAP1 PUSH2 0xEAE JUMP JUMPDEST POP SWAP1 POP POP PUSH1 0x1 PUSH1 0x5 SLOAD PUSH2 0x9E0 SWAP2 SWAP1 PUSH2 0x15E7 JUMP JUMPDEST PUSH1 0x5 DUP2 SWAP1 SSTORE POP POP POP POP POP POP JUMP JUMPDEST PUSH1 0x3 PUSH1 0x20 MSTORE DUP1 PUSH1 0x0 MSTORE PUSH1 0x40 PUSH1 0x0 KECCAK256 PUSH1 0x0 SWAP2 POP SWAP1 POP DUP1 PUSH1 0x0 ADD DUP1 SLOAD PUSH2 0xA10 SWAP1 PUSH2 0x16EC JUMP JUMPDEST DUP1 PUSH1 0x1F ADD PUSH1 0x20 DUP1 SWAP2 DIV MUL PUSH1 0x20 ADD PUSH1 0x40 MLOAD SWAP1 DUP2 ADD PUSH1 0x40 MSTORE DUP1 SWAP3 SWAP2 SWAP1 DUP2 DUP2 MSTORE PUSH1 0x20 ADD DUP3 DUP1 SLOAD PUSH2 0xA3C SWAP1 PUSH2 0x16EC JUMP JUMPDEST DUP1 ISZERO PUSH2 0xA89 JUMPI DUP1 PUSH1 0x1F LT PUSH2 0xA5E JUMPI PUSH2 0x100 DUP1 DUP4 SLOAD DIV MUL DUP4 MSTORE SWAP2 PUSH1 0x20 ADD SWAP2 PUSH2 0xA89 JUMP JUMPDEST DUP3 ADD SWAP2 SWAP1 PUSH1 0x0 MSTORE PUSH1 0x20 PUSH1 0x0 KECCAK256 SWAP1 JUMPDEST DUP2 SLOAD DUP2 MSTORE SWAP1 PUSH1 0x1 ADD SWAP1 PUSH1 0x20 ADD DUP1 DUP4 GT PUSH2 0xA6C JUMPI DUP3 SWAP1 SUB PUSH1 0x1F AND DUP3 ADD SWAP2 JUMPDEST POP POP POP POP POP SWAP1 DUP1 PUSH1 0x1 ADD PUSH1 0x0 SWAP1 SLOAD SWAP1 PUSH2 0x100 EXP SWAP1 DIV PUSH20 0xFFFFFFFFFFFFFFFFFFFFFFFFFFFFFFFFFFFFFFFF AND SWAP1 DUP1 PUSH1 0x2 ADD SLOAD SWAP1 DUP1 PUSH1 0x3 ADD DUP1 SLOAD PUSH2 0xACA SWAP1 PUSH2 0x16EC JUMP JUMPDEST DUP1 PUSH1 0x1F ADD PUSH1 0x20 DUP1 SWAP2 DIV MUL PUSH1 0x20 ADD PUSH1 0x40 MLOAD SWAP1 DUP2 ADD PUSH1 0x40 MSTORE DUP1 SWAP3 SWAP2 SWAP1 DUP2 DUP2 MSTORE PUSH1 0x20 ADD DUP3 DUP1 SLOAD PUSH2 0xAF6 SWAP1 PUSH2 0x16EC JUMP JUMPDEST DUP1 ISZERO PUSH2 0xB43 JUMPI DUP1 PUSH1 0x1F LT PUSH2 0xB18 JUMPI PUSH2 0x100 DUP1 DUP4 SLOAD DIV MUL DUP4 MSTORE SWAP2 PUSH1 0x20 ADD SWAP2 PUSH2 0xB43 JUMP JUMPDEST DUP3 ADD SWAP2 SWAP1 PUSH1 0x0 MSTORE PUSH1 0x20 PUSH1 0x0 KECCAK256 SWAP1 JUMPDEST DUP2 SLOAD DUP2 MSTORE SWAP1 PUSH1 0x1 ADD SWAP1 PUSH1 0x20 ADD DUP1 DUP4 GT PUSH2 0xB26 JUMPI DUP3 SWAP1 SUB PUSH1 0x1F AND DUP3 ADD SWAP2 JUMPDEST POP POP POP POP POP SWAP1 POP DUP5 JUMP JUMPDEST PUSH1 0x9 DUP1 SLOAD PUSH2 0xB5A SWAP1 PUSH2 0x16EC JUMP JUMPDEST DUP1 PUSH1 0x1F ADD PUSH1 0x20 DUP1 SWAP2 DIV MUL PUSH1 0x20 ADD PUSH1 0x40 MLOAD SWAP1 DUP2 ADD PUSH1 0x40 MSTORE DUP1 SWAP3 SWAP2 SWAP1 DUP2 DUP2 MSTORE PUSH1 0x20 ADD DUP3 DUP1 SLOAD PUSH2 0xB86 SWAP1 PUSH2 0x16EC JUMP JUMPDEST DUP1 ISZERO PUSH2 0xBD3 JUMPI DUP1 PUSH1 0x1F LT PUSH2 0xBA8 JUMPI PUSH2 0x100 DUP1 DUP4 SLOAD DIV MUL DUP4 MSTORE SWAP2 PUSH1 0x20 ADD SWAP2 PUSH2 0xBD3 JUMP JUMPDEST DUP3 ADD SWAP2 SWAP1 PUSH1 0x0 MSTORE PUSH1 0x20 PUSH1 0x0 KECCAK256 SWAP1 JUMPDEST DUP2 SLOAD DUP2 MSTORE SWAP1 PUSH1 0x1 ADD SWAP1 PUSH1 0x20 ADD DUP1 DUP4 GT PUSH2 0xBB6 JUMPI DUP3 SWAP1 SUB PUSH1 0x1F AND DUP3 ADD SWAP2 JUMPDEST POP POP POP POP POP DUP2 JUMP JUMPDEST PUSH1 0x8 PUSH1 0x1 SWAP1 SLOAD SWAP1 PUSH2 0x100 EXP SWAP1 DIV PUSH20 0xFFFFFFFFFFFFFFFFFFFFFFFFFFFFFFFFFFFFFFFF AND DUP2 JUMP JUMPDEST PUSH1 0x8 PUSH1 0x0 SWAP1 SLOAD SWAP1 PUSH2 0x100 EXP SWAP1 DIV PUSH1 0xFF AND DUP2 JUMP JUMPDEST PUSH1 0x0 DUP1 PUSH1 0x2 DUP2 GT ISZERO PUSH2 0xC29 JUMPI PUSH2 0xC28 PUSH2 0x17C7 JUMP JUMPDEST JUMPDEST PUSH1 0x8 PUSH1 0x0 SWAP1 SLOAD SWAP1 PUSH2 0x100 EXP SWAP1 DIV PUSH1 0xFF AND PUSH1 0x2 DUP2 GT ISZERO PUSH2 0xC4B JUMPI PUSH2 0xC4A PUSH2 0x17C7 JUMP JUMPDEST JUMPDEST EQ PUSH2 0xC55 JUMPI PUSH1 0x0 DUP1 REVERT JUMPDEST CALLER PUSH20 0xFFFFFFFFFFFFFFFFFFFFFFFFFFFFFFFFFFFFFFFF AND PUSH1 0x8 PUSH1 0x1 SWAP1 SLOAD SWAP1 PUSH2 0x100 EXP SWAP1 DIV PUSH20 0xFFFFFFFFFFFFFFFFFFFFFFFFFFFFFFFFFFFFFFFF AND PUSH20 0xFFFFFFFFFFFFFFFFFFFFFFFFFFFFFFFFFFFFFFFF AND EQ PUSH2 0xCAF JUMPI PUSH1 0x0 DUP1 REVERT JUMPDEST POP POP POP JUMP JUMPDEST PUSH2 0xCBC PUSH2 0xE70 JUMP JUMPDEST PUSH1 0x4 DUP3 PUSH1 0x40 MLOAD PUSH2 0xCCC SWAP2 SWAP1 PUSH2 0x13CF JUMP JUMPDEST SWAP1 DUP2 MSTORE PUSH1 0x20 ADD PUSH1 0x40 MLOAD DUP1 SWAP2 SUB SWAP1 KECCAK256 PUSH1 0x40 MLOAD DUP1 PUSH1 0x80 ADD PUSH1 0x40 MSTORE SWAP1 DUP2 PUSH1 0x0 DUP3 ADD DUP1 SLOAD PUSH2 0xCF5 SWAP1 PUSH2 0x16EC JUMP JUMPDEST DUP1 PUSH1 0x1F ADD PUSH1 0x20 DUP1 SWAP2 DIV MUL PUSH1 0x20 ADD PUSH1 0x40 MLOAD SWAP1 DUP2 ADD PUSH1 0x40 MSTORE DUP1 SWAP3 SWAP2 SWAP1 DUP2 DUP2 MSTORE PUSH1 0x20 ADD DUP3 DUP1 SLOAD PUSH2 0xD21 SWAP1 PUSH2 0x16EC JUMP JUMPDEST DUP1 ISZERO PUSH2 0xD6E JUMPI DUP1 PUSH1 0x1F LT PUSH2 0xD43 JUMPI PUSH2 0x100 DUP1 DUP4 SLOAD DIV MUL DUP4 MSTORE SWAP2 PUSH1 0x20 ADD SWAP2 PUSH2 0xD6E JUMP JUMPDEST DUP3 ADD SWAP2 SWAP1 PUSH1 0x0 MSTORE PUSH1 0x20 PUSH1 0x0 KECCAK256 SWAP1 JUMPDEST DUP2 SLOAD DUP2 MSTORE SWAP1 PUSH1 0x1 ADD SWAP1 PUSH1 0x20 ADD DUP1 DUP4 GT PUSH2 0xD51 JUMPI DUP3 SWAP1 SUB PUSH1 0x1F AND DUP3 ADD SWAP2 JUMPDEST POP POP POP POP POP DUP2 MSTORE PUSH1 0x20 ADD PUSH1 0x1 DUP3 ADD PUSH1 0x0 SWAP1 SLOAD SWAP1 PUSH2 0x100 EXP SWAP1 DIV PUSH20 0xFFFFFFFFFFFFFFFFFFFFFFFFFFFFFFFFFFFFFFFF AND PUSH20 0xFFFFFFFFFFFFFFFFFFFFFFFFFFFFFFFFFFFFFFFF AND PUSH20 0xFFFFFFFFFFFFFFFFFFFFFFFFFFFFFFFFFFFFFFFF AND DUP2 MSTORE PUSH1 0x20 ADD PUSH1 0x2 DUP3 ADD SLOAD DUP2 MSTORE PUSH1 0x20 ADD PUSH1 0x3 DUP3 ADD DUP1 SLOAD PUSH2 0xDE7 SWAP1 PUSH2 0x16EC JUMP JUMPDEST DUP1 PUSH1 0x1F ADD PUSH1 0x20 DUP1 SWAP2 DIV MUL PUSH1 0x20 ADD PUSH1 0x40 MLOAD SWAP1 DUP2 ADD PUSH1 0x40 MSTORE DUP1 SWAP3 SWAP2 SWAP1 DUP2 DUP2 MSTORE PUSH1 0x20 ADD DUP3 DUP1 SLOAD PUSH2 0xE13 SWAP1 PUSH2 0x16EC JUMP JUMPDEST DUP1 ISZERO PUSH2 0xE60 JUMPI DUP1 PUSH1 0x1F LT PUSH2 0xE35 JUMPI PUSH2 0x100 DUP1 DUP4 SLOAD DIV MUL DUP4 MSTORE SWAP2 PUSH1 0x20 ADD SWAP2 PUSH2 0xE60 JUMP JUMPDEST DUP3 ADD SWAP2 SWAP1 PUSH1 0x0 MSTORE PUSH1 0x20 PUSH1 0x0 KECCAK256 SWAP1 JUMPDEST DUP2 SLOAD DUP2 MSTORE SWAP1 PUSH1 0x1 ADD SWAP1 PUSH1 0x20 ADD DUP1 DUP4 GT PUSH2 0xE43 JUMPI DUP3 SWAP1 SUB PUSH1 0x1F AND DUP3 ADD SWAP2 JUMPDEST POP POP POP POP POP DUP2 MSTORE POP POP SWAP1 POP SWAP2 SWAP1 POP JUMP JUMPDEST PUSH1 0x40 MLOAD DUP1 PUSH1 0x80 ADD PUSH1 0x40 MSTORE DUP1 PUSH1 0x60 DUP2 MSTORE PUSH1 0x20 ADD PUSH1 0x0 PUSH20 0xFFFFFFFFFFFFFFFFFFFFFFFFFFFFFFFFFFFFFFFF AND DUP2 MSTORE PUSH1 0x20 ADD PUSH1 0x0 DUP2 MSTORE PUSH1 0x20 ADD PUSH1 0x60 DUP2 MSTORE POP SWAP1 JUMP JUMPDEST DUP3 DUP1 SLOAD PUSH2 0xEBA SWAP1 PUSH2 0x16EC JUMP JUMPDEST SWAP1 PUSH1 0x0 MSTORE PUSH1 0x20 PUSH1 0x0 KECCAK256 SWAP1 PUSH1 0x1F ADD PUSH1 0x20 SWAP1 DIV DUP2 ADD SWAP3 DUP3 PUSH2 0xEDC JUMPI PUSH1 0x0 DUP6 SSTORE PUSH2 0xF23 JUMP JUMPDEST DUP3 PUSH1 0x1F LT PUSH2 0xEF5 JUMPI DUP1 MLOAD PUSH1 0xFF NOT AND DUP4 DUP1 ADD OR DUP6 SSTORE PUSH2 0xF23 JUMP JUMPDEST DUP3 DUP1 ADD PUSH1 0x1 ADD DUP6 SSTORE DUP3 ISZERO PUSH2 0xF23 JUMPI SWAP2 DUP3 ADD JUMPDEST DUP3 DUP2 GT ISZERO PUSH2 0xF22 JUMPI DUP3 MLOAD DUP3 SSTORE SWAP2 PUSH1 0x20 ADD SWAP2 SWAP1 PUSH1 0x1 ADD SWAP1 PUSH2 0xF07 JUMP JUMPDEST JUMPDEST POP SWAP1 POP PUSH2 0xF30 SWAP2 SWAP1 PUSH2 0xF34 JUMP JUMPDEST POP SWAP1 JUMP JUMPDEST JUMPDEST DUP1 DUP3 GT ISZERO PUSH2 0xF4D JUMPI PUSH1 0x0 DUP2 PUSH1 0x0 SWAP1 SSTORE POP PUSH1 0x1 ADD PUSH2 0xF35 JUMP JUMPDEST POP SWAP1 JUMP JUMPDEST PUSH1 0x0 PUSH2 0xF64 PUSH2 0xF5F DUP5 PUSH2 0x1545 JUMP JUMPDEST PUSH2 0x1520 JUMP JUMPDEST SWAP1 POP DUP3 DUP2 MSTORE PUSH1 0x20 DUP2 ADD DUP5 DUP5 DUP5 ADD GT ISZERO PUSH2 0xF80 JUMPI PUSH2 0xF7F PUSH2 0x1888 JUMP JUMPDEST JUMPDEST PUSH2 0xF8B DUP5 DUP3 DUP6 PUSH2 0x16AA JUMP JUMPDEST POP SWAP4 SWAP3 POP POP POP JUMP JUMPDEST PUSH1 0x0 DUP2 CALLDATALOAD SWAP1 POP PUSH2 0xFA2 DUP2 PUSH2 0x18BC JUMP JUMPDEST SWAP3 SWAP2 POP POP JUMP JUMPDEST PUSH1 0x0 DUP3 PUSH1 0x1F DUP4 ADD SLT PUSH2 0xFBD JUMPI PUSH2 0xFBC PUSH2 0x1883 JUMP JUMPDEST JUMPDEST DUP2 CALLDATALOAD PUSH2 0xFCD DUP5 DUP3 PUSH1 0x20 DUP7 ADD PUSH2 0xF51 JUMP JUMPDEST SWAP2 POP POP SWAP3 SWAP2 POP POP JUMP JUMPDEST PUSH1 0x0 DUP2 CALLDATALOAD SWAP1 POP PUSH2 0xFE5 DUP2 PUSH2 0x18D3 JUMP JUMPDEST SWAP3 SWAP2 POP POP JUMP JUMPDEST PUSH1 0x0 PUSH1 0x20 DUP3 DUP5 SUB SLT ISZERO PUSH2 0x1001 JUMPI PUSH2 0x1000 PUSH2 0x1892 JUMP JUMPDEST JUMPDEST PUSH1 0x0 PUSH2 0x100F DUP5 DUP3 DUP6 ADD PUSH2 0xF93 JUMP JUMPDEST SWAP2 POP POP SWAP3 SWAP2 POP POP JUMP JUMPDEST PUSH1 0x0 DUP1 PUSH1 0x40 DUP4 DUP6 SUB SLT ISZERO PUSH2 0x102F JUMPI PUSH2 0x102E PUSH2 0x1892 JUMP JUMPDEST JUMPDEST PUSH1 0x0 PUSH2 0x103D DUP6 DUP3 DUP7 ADD PUSH2 0xF93 JUMP JUMPDEST SWAP3 POP POP PUSH1 0x20 DUP4 ADD CALLDATALOAD PUSH8 0xFFFFFFFFFFFFFFFF DUP2 GT ISZERO PUSH2 0x105E JUMPI PUSH2 0x105D PUSH2 0x188D JUMP JUMPDEST JUMPDEST PUSH2 0x106A DUP6 DUP3 DUP7 ADD PUSH2 0xFA8 JUMP JUMPDEST SWAP2 POP POP SWAP3 POP SWAP3 SWAP1 POP JUMP JUMPDEST PUSH1 0x0 DUP1 PUSH1 0x0 PUSH1 0x60 DUP5 DUP7 SUB SLT ISZERO PUSH2 0x108D JUMPI PUSH2 0x108C PUSH2 0x1892 JUMP JUMPDEST JUMPDEST PUSH1 0x0 PUSH2 0x109B DUP7 DUP3 DUP8 ADD PUSH2 0xF93 JUMP JUMPDEST SWAP4 POP POP PUSH1 0x20 DUP5 ADD CALLDATALOAD PUSH8 0xFFFFFFFFFFFFFFFF DUP2 GT ISZERO PUSH2 0x10BC JUMPI PUSH2 0x10BB PUSH2 0x188D JUMP JUMPDEST JUMPDEST PUSH2 0x10C8 DUP7 DUP3 DUP8 ADD PUSH2 0xFA8 JUMP JUMPDEST SWAP3 POP POP PUSH1 0x40 DUP5 ADD CALLDATALOAD PUSH8 0xFFFFFFFFFFFFFFFF DUP2 GT ISZERO PUSH2 0x10E9 JUMPI PUSH2 0x10E8 PUSH2 0x188D JUMP JUMPDEST JUMPDEST PUSH2 0x10F5 DUP7 DUP3 DUP8 ADD PUSH2 0xFA8 JUMP JUMPDEST SWAP2 POP POP SWAP3 POP SWAP3 POP SWAP3 JUMP JUMPDEST PUSH1 0x0 PUSH1 0x20 DUP3 DUP5 SUB SLT ISZERO PUSH2 0x1115 JUMPI PUSH2 0x1114 PUSH2 0x1892 JUMP JUMPDEST JUMPDEST PUSH1 0x0 DUP3 ADD CALLDATALOAD PUSH8 0xFFFFFFFFFFFFFFFF DUP2 GT ISZERO PUSH2 0x1133 JUMPI PUSH2 0x1132 PUSH2 0x188D JUMP JUMPDEST JUMPDEST PUSH2 0x113F DUP5 DUP3 DUP6 ADD PUSH2 0xFA8 JUMP JUMPDEST SWAP2 POP POP SWAP3 SWAP2 POP POP JUMP JUMPDEST PUSH1 0x0 PUSH1 0x20 DUP3 DUP5 SUB SLT ISZERO PUSH2 0x115E JUMPI PUSH2 0x115D PUSH2 0x1892 JUMP JUMPDEST JUMPDEST PUSH1 0x0 PUSH2 0x116C DUP5 DUP3 DUP6 ADD PUSH2 0xFD6 JUMP JUMPDEST SWAP2 POP POP SWAP3 SWAP2 POP POP JUMP JUMPDEST PUSH1 0x0 PUSH2 0x1181 DUP4 DUP4 PUSH2 0x12DD JUMP JUMPDEST SWAP1 POP SWAP3 SWAP2 POP POP JUMP JUMPDEST PUSH2 0x1192 DUP2 PUSH2 0x163D JUMP JUMPDEST DUP3 MSTORE POP POP JUMP JUMPDEST PUSH2 0x11A1 DUP2 PUSH2 0x163D JUMP JUMPDEST DUP3 MSTORE POP POP JUMP JUMPDEST PUSH1 0x0 PUSH2 0x11B2 DUP3 PUSH2 0x1586 JUMP JUMPDEST PUSH2 0x11BC DUP2 DUP6 PUSH2 0x15A9 JUMP JUMPDEST SWAP4 POP DUP4 PUSH1 0x20 DUP3 MUL DUP6 ADD PUSH2 0x11CE DUP6 PUSH2 0x1576 JUMP JUMPDEST DUP1 PUSH1 0x0 JUMPDEST DUP6 DUP2 LT ISZERO PUSH2 0x120A JUMPI DUP5 DUP5 SUB DUP10 MSTORE DUP2 MLOAD PUSH2 0x11EB DUP6 DUP3 PUSH2 0x1175 JUMP JUMPDEST SWAP5 POP PUSH2 0x11F6 DUP4 PUSH2 0x159C JUMP JUMPDEST SWAP3 POP PUSH1 0x20 DUP11 ADD SWAP10 POP POP PUSH1 0x1 DUP2 ADD SWAP1 POP PUSH2 0x11D2 JUMP JUMPDEST POP DUP3 SWAP8 POP DUP8 SWAP6 POP POP POP POP POP POP SWAP3 SWAP2 POP POP JUMP JUMPDEST PUSH2 0x1225 DUP2 PUSH2 0x164F JUMP JUMPDEST DUP3 MSTORE POP POP JUMP JUMPDEST PUSH2 0x1234 DUP2 PUSH2 0x1698 JUMP JUMPDEST DUP3 MSTORE POP POP JUMP JUMPDEST PUSH1 0x0 PUSH2 0x1245 DUP3 PUSH2 0x1591 JUMP JUMPDEST PUSH2 0x124F DUP2 DUP6 PUSH2 0x15BA JUMP JUMPDEST SWAP4 POP PUSH2 0x125F DUP2 DUP6 PUSH1 0x20 DUP7 ADD PUSH2 0x16B9 JUMP JUMPDEST PUSH2 0x1268 DUP2 PUSH2 0x1897 JUMP JUMPDEST DUP5 ADD SWAP2 POP POP SWAP3 SWAP2 POP POP JUMP JUMPDEST PUSH1 0x0 PUSH2 0x127E DUP3 PUSH2 0x1591 JUMP JUMPDEST PUSH2 0x1288 DUP2 DUP6 PUSH2 0x15CB JUMP JUMPDEST SWAP4 POP PUSH2 0x1298 DUP2 DUP6 PUSH1 0x20 DUP7 ADD PUSH2 0x16B9 JUMP JUMPDEST PUSH2 0x12A1 DUP2 PUSH2 0x1897 JUMP JUMPDEST DUP5 ADD SWAP2 POP POP SWAP3 SWAP2 POP POP JUMP JUMPDEST PUSH1 0x0 PUSH2 0x12B7 DUP3 PUSH2 0x1591 JUMP JUMPDEST PUSH2 0x12C1 DUP2 DUP6 PUSH2 0x15DC JUMP JUMPDEST SWAP4 POP PUSH2 0x12D1 DUP2 DUP6 PUSH1 0x20 DUP7 ADD PUSH2 0x16B9 JUMP JUMPDEST DUP1 DUP5 ADD SWAP2 POP POP SWAP3 SWAP2 POP POP JUMP JUMPDEST PUSH1 0x0 PUSH1 0x80 DUP4 ADD PUSH1 0x0 DUP4 ADD MLOAD DUP5 DUP3 SUB PUSH1 0x0 DUP7 ADD MSTORE PUSH2 0x12FA DUP3 DUP3 PUSH2 0x123A JUMP JUMPDEST SWAP2 POP POP PUSH1 0x20 DUP4 ADD MLOAD PUSH2 0x130F PUSH1 0x20 DUP7 ADD DUP3 PUSH2 0x1189 JUMP JUMPDEST POP PUSH1 0x40 DUP4 ADD MLOAD PUSH2 0x1322 PUSH1 0x40 DUP7 ADD DUP3 PUSH2 0x13B1 JUMP JUMPDEST POP PUSH1 0x60 DUP4 ADD MLOAD DUP5 DUP3 SUB PUSH1 0x60 DUP7 ADD MSTORE PUSH2 0x133A DUP3 DUP3 PUSH2 0x123A JUMP JUMPDEST SWAP2 POP POP DUP1 SWAP2 POP POP SWAP3 SWAP2 POP POP JUMP JUMPDEST PUSH1 0x0 PUSH1 0x80 DUP4 ADD PUSH1 0x0 DUP4 ADD MLOAD DUP5 DUP3 SUB PUSH1 0x0 DUP7 ADD MSTORE PUSH2 0x1364 DUP3 DUP3 PUSH2 0x123A JUMP JUMPDEST SWAP2 POP POP PUSH1 0x20 DUP4 ADD MLOAD PUSH2 0x1379 PUSH1 0x20 DUP7 ADD DUP3 PUSH2 0x1189 JUMP JUMPDEST POP PUSH1 0x40 DUP4 ADD MLOAD PUSH2 0x138C PUSH1 0x40 DUP7 ADD DUP3 PUSH2 0x13B1 JUMP JUMPDEST POP PUSH1 0x60 DUP4 ADD MLOAD DUP5 DUP3 SUB PUSH1 0x60 DUP7 ADD MSTORE PUSH2 0x13A4 DUP3 DUP3 PUSH2 0x123A JUMP JUMPDEST SWAP2 POP POP DUP1 SWAP2 POP POP SWAP3 SWAP2 POP POP JUMP JUMPDEST PUSH2 0x13BA DUP2 PUSH2 0x168E JUMP JUMPDEST DUP3 MSTORE POP POP JUMP JUMPDEST PUSH2 0x13C9 DUP2 PUSH2 0x168E JUMP JUMPDEST DUP3 MSTORE POP POP JUMP JUMPDEST PUSH1 0x0 PUSH2 0x13DB DUP3 DUP5 PUSH2 0x12AC JUMP JUMPDEST SWAP2 POP DUP2 SWAP1 POP SWAP3 SWAP2 POP POP JUMP JUMPDEST PUSH1 0x0 PUSH1 0x20 DUP3 ADD SWAP1 POP PUSH2 0x13FB PUSH1 0x0 DUP4 ADD DUP5 PUSH2 0x1198 JUMP JUMPDEST SWAP3 SWAP2 POP POP JUMP JUMPDEST PUSH1 0x0 PUSH1 0x20 DUP3 ADD SWAP1 POP DUP2 DUP2 SUB PUSH1 0x0 DUP4 ADD MSTORE PUSH2 0x141B DUP2 DUP5 PUSH2 0x11A7 JUMP JUMPDEST SWAP1 POP SWAP3 SWAP2 POP POP JUMP JUMPDEST PUSH1 0x0 PUSH1 0x20 DUP3 ADD SWAP1 POP PUSH2 0x1438 PUSH1 0x0 DUP4 ADD DUP5 PUSH2 0x122B JUMP JUMPDEST SWAP3 SWAP2 POP POP JUMP JUMPDEST PUSH1 0x0 PUSH1 0x20 DUP3 ADD SWAP1 POP DUP2 DUP2 SUB PUSH1 0x0 DUP4 ADD MSTORE PUSH2 0x1458 DUP2 DUP5 PUSH2 0x1273 JUMP JUMPDEST SWAP1 POP SWAP3 SWAP2 POP POP JUMP JUMPDEST PUSH1 0x0 PUSH1 0x80 DUP3 ADD SWAP1 POP DUP2 DUP2 SUB PUSH1 0x0 DUP4 ADD MSTORE PUSH2 0x147A DUP2 DUP8 PUSH2 0x1273 JUMP JUMPDEST SWAP1 POP PUSH2 0x1489 PUSH1 0x20 DUP4 ADD DUP7 PUSH2 0x1198 JUMP JUMPDEST PUSH2 0x1496 PUSH1 0x40 DUP4 ADD DUP6 PUSH2 0x13C0 JUMP JUMPDEST DUP2 DUP2 SUB PUSH1 0x60 DUP4 ADD MSTORE PUSH2 0x14A8 DUP2 DUP5 PUSH2 0x1273 JUMP JUMPDEST SWAP1 POP SWAP6 SWAP5 POP POP POP POP POP JUMP JUMPDEST PUSH1 0x0 PUSH1 0x40 DUP3 ADD SWAP1 POP DUP2 DUP2 SUB PUSH1 0x0 DUP4 ADD MSTORE PUSH2 0x14CD DUP2 DUP6 PUSH2 0x1273 JUMP JUMPDEST SWAP1 POP PUSH2 0x14DC PUSH1 0x20 DUP4 ADD DUP5 PUSH2 0x121C JUMP JUMPDEST SWAP4 SWAP3 POP POP POP JUMP JUMPDEST PUSH1 0x0 PUSH1 0x20 DUP3 ADD SWAP1 POP DUP2 DUP2 SUB PUSH1 0x0 DUP4 ADD MSTORE PUSH2 0x14FD DUP2 DUP5 PUSH2 0x1347 JUMP JUMPDEST SWAP1 POP SWAP3 SWAP2 POP POP JUMP JUMPDEST PUSH1 0x0 PUSH1 0x20 DUP3 ADD SWAP1 POP PUSH2 0x151A PUSH1 0x0 DUP4 ADD DUP5 PUSH2 0x13C0 JUMP JUMPDEST SWAP3 SWAP2 POP POP JUMP JUMPDEST PUSH1 0x0 PUSH2 0x152A PUSH2 0x153B JUMP JUMPDEST SWAP1 POP PUSH2 0x1536 DUP3 DUP3 PUSH2 0x171E JUMP JUMPDEST SWAP2 SWAP1 POP JUMP JUMPDEST PUSH1 0x0 PUSH1 0x40 MLOAD SWAP1 POP SWAP1 JUMP JUMPDEST PUSH1 0x0 PUSH8 0xFFFFFFFFFFFFFFFF DUP3 GT ISZERO PUSH2 0x1560 JUMPI PUSH2 0x155F PUSH2 0x1854 JUMP JUMPDEST JUMPDEST PUSH2 0x1569 DUP3 PUSH2 0x1897 JUMP JUMPDEST SWAP1 POP PUSH1 0x20 DUP2 ADD SWAP1 POP SWAP2 SWAP1 POP JUMP JUMPDEST PUSH1 0x0 DUP2 SWAP1 POP PUSH1 0x20 DUP3 ADD SWAP1 POP SWAP2 SWAP1 POP JUMP JUMPDEST PUSH1 0x0 DUP2 MLOAD SWAP1 POP SWAP2 SWAP1 POP JUMP JUMPDEST PUSH1 0x0 DUP2 MLOAD SWAP1 POP SWAP2 SWAP1 POP JUMP JUMPDEST PUSH1 0x0 PUSH1 0x20 DUP3 ADD SWAP1 POP SWAP2 SWAP1 POP JUMP JUMPDEST PUSH1 0x0 DUP3 DUP3 MSTORE PUSH1 0x20 DUP3 ADD SWAP1 POP SWAP3 SWAP2 POP POP JUMP JUMPDEST PUSH1 0x0 DUP3 DUP3 MSTORE PUSH1 0x20 DUP3 ADD SWAP1 POP SWAP3 SWAP2 POP POP JUMP JUMPDEST PUSH1 0x0 DUP3 DUP3 MSTORE PUSH1 0x20 DUP3 ADD SWAP1 POP SWAP3 SWAP2 POP POP JUMP JUMPDEST PUSH1 0x0 DUP2 SWAP1 POP SWAP3 SWAP2 POP POP JUMP JUMPDEST PUSH1 0x0 PUSH2 0x15F2 DUP3 PUSH2 0x168E JUMP JUMPDEST SWAP2 POP PUSH2 0x15FD DUP4 PUSH2 0x168E JUMP JUMPDEST SWAP3 POP DUP3 PUSH32 0xFFFFFFFFFFFFFFFFFFFFFFFFFFFFFFFFFFFFFFFFFFFFFFFFFFFFFFFFFFFFFFFF SUB DUP3 GT ISZERO PUSH2 0x1632 JUMPI PUSH2 0x1631 PUSH2 0x1798 JUMP JUMPDEST JUMPDEST DUP3 DUP3 ADD SWAP1 POP SWAP3 SWAP2 POP POP JUMP JUMPDEST PUSH1 0x0 PUSH2 0x1648 DUP3 PUSH2 0x166E JUMP JUMPDEST SWAP1 POP SWAP2 SWAP1 POP JUMP JUMPDEST PUSH1 0x0 DUP2 ISZERO ISZERO SWAP1 POP SWAP2 SWAP1 POP JUMP JUMPDEST PUSH1 0x0 DUP2 SWAP1 POP PUSH2 0x1669 DUP3 PUSH2 0x18A8 JUMP JUMPDEST SWAP2 SWAP1 POP JUMP JUMPDEST PUSH1 0x0 PUSH20 0xFFFFFFFFFFFFFFFFFFFFFFFFFFFFFFFFFFFFFFFF DUP3 AND SWAP1 POP SWAP2 SWAP1 POP JUMP JUMPDEST PUSH1 0x0 DUP2 SWAP1 POP SWAP2 SWAP1 POP JUMP JUMPDEST PUSH1 0x0 PUSH2 0x16A3 DUP3 PUSH2 0x165B JUMP JUMPDEST SWAP1 POP SWAP2 SWAP1 POP JUMP JUMPDEST DUP3 DUP2 DUP4 CALLDATACOPY PUSH1 0x0 DUP4 DUP4 ADD MSTORE POP POP POP JUMP JUMPDEST PUSH1 0x0 JUMPDEST DUP4 DUP2 LT ISZERO PUSH2 0x16D7 JUMPI DUP1 DUP3 ADD MLOAD DUP2 DUP5 ADD MSTORE PUSH1 0x20 DUP2 ADD SWAP1 POP PUSH2 0x16BC JUMP JUMPDEST DUP4 DUP2 GT ISZERO PUSH2 0x16E6 JUMPI PUSH1 0x0 DUP5 DUP5 ADD MSTORE JUMPDEST POP POP POP POP JUMP JUMPDEST PUSH1 0x0 PUSH1 0x2 DUP3 DIV SWAP1 POP PUSH1 0x1 DUP3 AND DUP1 PUSH2 0x1704 JUMPI PUSH1 0x7F DUP3 AND SWAP2 POP JUMPDEST PUSH1 0x20 DUP3 LT DUP2 EQ ISZERO PUSH2 0x1718 JUMPI PUSH2 0x1717 PUSH2 0x17F6 JUMP JUMPDEST JUMPDEST POP SWAP2 SWAP1 POP JUMP JUMPDEST PUSH2 0x1727 DUP3 PUSH2 0x1897 JUMP JUMPDEST DUP2 ADD DUP2 DUP2 LT PUSH8 0xFFFFFFFFFFFFFFFF DUP3 GT OR ISZERO PUSH2 0x1746 JUMPI PUSH2 0x1745 PUSH2 0x1854 JUMP JUMPDEST JUMPDEST DUP1 PUSH1 0x40 MSTORE POP POP POP JUMP JUMPDEST PUSH1 0x0 PUSH2 0x175A DUP3 PUSH2 0x168E JUMP JUMPDEST SWAP2 POP PUSH32 0xFFFFFFFFFFFFFFFFFFFFFFFFFFFFFFFFFFFFFFFFFFFFFFFFFFFFFFFFFFFFFFFF DUP3 EQ ISZERO PUSH2 0x178D JUMPI PUSH2 0x178C PUSH2 0x1798 JUMP JUMPDEST JUMPDEST PUSH1 0x1 DUP3 ADD SWAP1 POP SWAP2 SWAP1 POP JUMP JUMPDEST PUSH32 0x4E487B7100000000000000000000000000000000000000000000000000000000 PUSH1 0x0 MSTORE PUSH1 0x11 PUSH1 0x4 MSTORE PUSH1 0x24 PUSH1 0x0 REVERT JUMPDEST PUSH32 0x4E487B7100000000000000000000000000000000000000000000000000000000 PUSH1 0x0 MSTORE PUSH1 0x21 PUSH1 0x4 MSTORE PUSH1 0x24 PUSH1 0x0 REVERT JUMPDEST PUSH32 0x4E487B7100000000000000000000000000000000000000000000000000000000 PUSH1 0x0 MSTORE PUSH1 0x22 PUSH1 0x4 MSTORE PUSH1 0x24 PUSH1 0x0 REVERT JUMPDEST PUSH32 0x4E487B7100000000000000000000000000000000000000000000000000000000 PUSH1 0x0 MSTORE PUSH1 0x32 PUSH1 0x4 MSTORE PUSH1 0x24 PUSH1 0x0 REVERT JUMPDEST PUSH32 0x4E487B7100000000000000000000000000000000000000000000000000000000 PUSH1 0x0 MSTORE PUSH1 0x41 PUSH1 0x4 MSTORE PUSH1 0x24 PUSH1 0x0 REVERT JUMPDEST PUSH1 0x0 DUP1 REVERT JUMPDEST PUSH1 0x0 DUP1 REVERT JUMPDEST PUSH1 0x0 DUP1 REVERT JUMPDEST PUSH1 0x0 DUP1 REVERT JUMPDEST PUSH1 0x0 PUSH1 0x1F NOT PUSH1 0x1F DUP4 ADD AND SWAP1 POP SWAP2 SWAP1 POP JUMP JUMPDEST PUSH1 0x3 DUP2 LT PUSH2 0x18B9 JUMPI PUSH2 0x18B8 PUSH2 0x17C7 JUMP JUMPDEST JUMPDEST POP JUMP JUMPDEST PUSH2 0x18C5 DUP2 PUSH2 0x163D JUMP JUMPDEST DUP2 EQ PUSH2 0x18D0 JUMPI PUSH1 0x0 DUP1 REVERT JUMPDEST POP JUMP JUMPDEST PUSH2 0x18DC DUP2 PUSH2 0x168E JUMP JUMPDEST DUP2 EQ PUSH2 0x18E7 JUMPI PUSH1 0x0 DUP1 REVERT JUMPDEST POP JUMP INVALID LOG2 PUSH5 0x6970667358 0x22 SLT KECCAK256 0xF6 BALANCE STOP 0xE6 SUB XOR 0x4A GASPRICE 0x4B CALLDATACOPY DUP15 EXTCODECOPY 0xFB 0xB6 PUSH2 0x70AC 0xE0 ADDMOD 0xB6 CODECOPY PUSH1 0xAA EXTCODEHASH 0x4C 0x5C BASEFEE SUB 0x1F 0xCB 0xD8 PUSH7 0x64736F6C634300 ADDMOD SMOD STOP CALLER "
				},
				"gasEstimates": {
					"creation": {
						"codeDepositCost": "1286400",
						"executionCost": "infinite",
						"totalCost": "infinite"
					},
					"external": {
						"AddressToVoter(address)": "infinite",
						"CandidateList(uint256)": "infinite",
						"ElectionName()": "infinite",
						"OragnizerAddress()": "2586",
						"SymbolToCandidate(string)": "infinite",
						"VoteCount(uint256)": "infinite",
						"addCandidates(address,string,string)": "infinite",
						"addVoter(address,string)": "infinite",
						"candidatesCount()": "2474",
						"getCandidate(string)": "infinite",
						"getCandidates()": "infinite",
						"state()": "2604",
						"totalVoters()": "2518",
						"totalVotes()": "2497"
					}
				},
				"methodIdentifiers": {
					"AddressToVoter(address)": "12c06342",
					"CandidateList(uint256)": "72753be5",
					"ElectionName()": "80843e25",
					"OragnizerAddress()": "8949e009",
					"SymbolToCandidate(string)": "46702b16",
					"VoteCount(uint256)": "0132be09",
					"addCandidates(address,string,string)": "62c49251",
					"addVoter(address,string)": "d9e95a98",
					"candidatesCount()": "2d35a8a2",
					"getCandidate(string)": "f276669d",
					"getCandidates()": "06a49fce",
					"state()": "c19d93fb",
					"totalVoters()": "5f5300ff",
					"totalVotes()": "0d15fd77"
				}
			},
			"storageLayout": {
				"storage": [
					{
						"astId": 25,
						"contract": "contracts/Voting.sol:Voting",
						"label": "AddressToVoter",
						"offset": 0,
						"slot": "0",
						"type": "t_mapping(t_address,t_struct(Voter)11_storage)"
					},
					{
						"astId": 30,
						"contract": "contracts/Voting.sol:Voting",
						"label": "Votes",
						"offset": 0,
						"slot": "1",
						"type": "t_mapping(t_uint256,t_struct(Vote)6_storage)"
					},
					{
						"astId": 34,
						"contract": "contracts/Voting.sol:Voting",
						"label": "VoteCount",
						"offset": 0,
						"slot": "2",
						"type": "t_mapping(t_uint256,t_uint256)"
					},
					{
						"astId": 39,
						"contract": "contracts/Voting.sol:Voting",
						"label": "CandidateList",
						"offset": 0,
						"slot": "3",
						"type": "t_mapping(t_uint256,t_struct(Candidate)20_storage)"
					},
					{
						"astId": 44,
						"contract": "contracts/Voting.sol:Voting",
						"label": "SymbolToCandidate",
						"offset": 0,
						"slot": "4",
						"type": "t_mapping(t_string_memory_ptr,t_struct(Candidate)20_storage)"
					},
					{
						"astId": 46,
						"contract": "contracts/Voting.sol:Voting",
						"label": "candidatesCount",
						"offset": 0,
						"slot": "5",
						"type": "t_uint256"
					},
					{
						"astId": 48,
						"contract": "contracts/Voting.sol:Voting",
						"label": "totalVoters",
						"offset": 0,
						"slot": "6",
						"type": "t_uint256"
					},
					{
						"astId": 50,
						"contract": "contracts/Voting.sol:Voting",
						"label": "totalVotes",
						"offset": 0,
						"slot": "7",
						"type": "t_uint256"
					},
					{
						"astId": 57,
						"contract": "contracts/Voting.sol:Voting",
						"label": "state",
						"offset": 0,
						"slot": "8",
						"type": "t_enum(State)54"
					},
					{
						"astId": 59,
						"contract": "contracts/Voting.sol:Voting",
						"label": "OragnizerAddress",
						"offset": 1,
						"slot": "8",
						"type": "t_address"
					},
					{
						"astId": 61,
						"contract": "contracts/Voting.sol:Voting",
						"label": "ElectionName",
						"offset": 0,
						"slot": "9",
						"type": "t_string_storage"
					}
				],
				"types": {
					"t_address": {
						"encoding": "inplace",
						"label": "address",
						"numberOfBytes": "20"
					},
					"t_bool": {
						"encoding": "inplace",
						"label": "bool",
						"numberOfBytes": "1"
					},
					"t_enum(State)54": {
						"encoding": "inplace",
						"label": "enum Voting.State",
						"numberOfBytes": "1"
					},
					"t_mapping(t_address,t_struct(Voter)11_storage)": {
						"encoding": "mapping",
						"key": "t_address",
						"label": "mapping(address => struct Voting.Voter)",
						"numberOfBytes": "32",
						"value": "t_struct(Voter)11_storage"
					},
					"t_mapping(t_string_memory_ptr,t_struct(Candidate)20_storage)": {
						"encoding": "mapping",
						"key": "t_string_memory_ptr",
						"label": "mapping(string => struct Voting.Candidate)",
						"numberOfBytes": "32",
						"value": "t_struct(Candidate)20_storage"
					},
					"t_mapping(t_uint256,t_struct(Candidate)20_storage)": {
						"encoding": "mapping",
						"key": "t_uint256",
						"label": "mapping(uint256 => struct Voting.Candidate)",
						"numberOfBytes": "32",
						"value": "t_struct(Candidate)20_storage"
					},
					"t_mapping(t_uint256,t_struct(Vote)6_storage)": {
						"encoding": "mapping",
						"key": "t_uint256",
						"label": "mapping(uint256 => struct Voting.Vote)",
						"numberOfBytes": "32",
						"value": "t_struct(Vote)6_storage"
					},
					"t_mapping(t_uint256,t_uint256)": {
						"encoding": "mapping",
						"key": "t_uint256",
						"label": "mapping(uint256 => uint256)",
						"numberOfBytes": "32",
						"value": "t_uint256"
					},
					"t_string_memory_ptr": {
						"encoding": "bytes",
						"label": "string",
						"numberOfBytes": "32"
					},
					"t_string_storage": {
						"encoding": "bytes",
						"label": "string",
						"numberOfBytes": "32"
					},
					"t_struct(Candidate)20_storage": {
						"encoding": "inplace",
						"label": "struct Voting.Candidate",
						"members": [
							{
								"astId": 13,
								"contract": "contracts/Voting.sol:Voting",
								"label": "candidateName",
								"offset": 0,
								"slot": "0",
								"type": "t_string_storage"
							},
							{
								"astId": 15,
								"contract": "contracts/Voting.sol:Voting",
								"label": "candidateAddress",
								"offset": 0,
								"slot": "1",
								"type": "t_address"
							},
							{
								"astId": 17,
								"contract": "contracts/Voting.sol:Voting",
								"label": "numberOfVotes",
								"offset": 0,
								"slot": "2",
								"type": "t_uint256"
							},
							{
								"astId": 19,
								"contract": "contracts/Voting.sol:Voting",
								"label": "symbol",
								"offset": 0,
								"slot": "3",
								"type": "t_string_storage"
							}
						],
						"numberOfBytes": "128"
					},
					"t_struct(Vote)6_storage": {
						"encoding": "inplace",
						"label": "struct Voting.Vote",
						"members": [
							{
								"astId": 3,
								"contract": "contracts/Voting.sol:Voting",
								"label": "voterAddress",
								"offset": 0,
								"slot": "0",
								"type": "t_address"
							},
							{
								"astId": 5,
								"contract": "contracts/Voting.sol:Voting",
								"label": "symbol",
								"offset": 0,
								"slot": "1",
								"type": "t_uint256"
							}
						],
						"numberOfBytes": "64"
					},
					"t_struct(Voter)11_storage": {
						"encoding": "inplace",
						"label": "struct Voting.Voter",
						"members": [
							{
								"astId": 8,
								"contract": "contracts/Voting.sol:Voting",
								"label": "voterName",
								"offset": 0,
								"slot": "0",
								"type": "t_string_storage"
							},
							{
								"astId": 10,
								"contract": "contracts/Voting.sol:Voting",
								"label": "voted",
								"offset": 0,
								"slot": "1",
								"type": "t_bool"
							}
						],
						"numberOfBytes": "64"
					},
					"t_uint256": {
						"encoding": "inplace",
						"label": "uint256",
						"numberOfBytes": "32"
					}
				}
			},
			"userdoc": {
				"kind": "user",
				"methods": {},
				"version": 1
			}
		}
	}
}