{
	"contracts/Voting.sol": {
		"Voting": {
			"abi": [
				{
					"inputs": [
						{
							"internalType": "string",
							"name": "_electionName",
							"type": "string"
						}
					],
					"stateMutability": "nonpayable",
					"type": "constructor"
				},
				{
					"inputs": [
						{
							"internalType": "address",
							"name": "",
							"type": "address"
						}
					],
					"name": "AddressToVoter",
					"outputs": [
						{
							"internalType": "string",
							"name": "voterName",
							"type": "string"
						},
						{
							"internalType": "bool",
							"name": "voted",
							"type": "bool"
						}
					],
					"stateMutability": "view",
					"type": "function"
				},
				{
					"inputs": [
						{
							"internalType": "uint256",
							"name": "",
							"type": "uint256"
						}
					],
					"name": "CandidateList",
					"outputs": [
						{
							"internalType": "string",
							"name": "candidateName",
							"type": "string"
						},
						{
							"internalType": "address",
							"name": "candidateAddress",
							"type": "address"
						},
						{
							"internalType": "uint256",
							"name": "numberOfVotes",
							"type": "uint256"
						},
						{
							"internalType": "string",
							"name": "symbol",
							"type": "string"
						}
					],
					"stateMutability": "view",
					"type": "function"
				},
				{
					"inputs": [],
					"name": "ElectionName",
					"outputs": [
						{
							"internalType": "string",
							"name": "",
							"type": "string"
						}
					],
					"stateMutability": "view",
					"type": "function"
				},
				{
					"inputs": [],
					"name": "OragnizerAddress",
					"outputs": [
						{
							"internalType": "address",
							"name": "",
							"type": "address"
						}
					],
					"stateMutability": "view",
					"type": "function"
				},
				{
					"inputs": [
						{
							"internalType": "string",
							"name": "",
							"type": "string"
						}
					],
					"name": "SymbolToCandidate",
					"outputs": [
						{
							"internalType": "string",
							"name": "candidateName",
							"type": "string"
						},
						{
							"internalType": "address",
							"name": "candidateAddress",
							"type": "address"
						},
						{
							"internalType": "uint256",
							"name": "numberOfVotes",
							"type": "uint256"
						},
						{
							"internalType": "string",
							"name": "symbol",
							"type": "string"
						}
					],
					"stateMutability": "view",
					"type": "function"
				},
				{
					"inputs": [
						{
							"internalType": "uint256",
							"name": "",
							"type": "uint256"
						}
					],
					"name": "VoteCount",
					"outputs": [
						{
							"internalType": "uint256",
							"name": "",
							"type": "uint256"
						}
					],
					"stateMutability": "view",
					"type": "function"
				},
				{
					"inputs": [
						{
							"internalType": "address",
							"name": "_candidateAddress",
							"type": "address"
						},
						{
							"internalType": "string",
							"name": "_candidateName",
							"type": "string"
						},
						{
							"internalType": "string",
							"name": "_symbol",
							"type": "string"
						}
					],
					"name": "addCandidates",
					"outputs": [],
					"stateMutability": "nonpayable",
					"type": "function"
				},
				{
					"inputs": [
						{
							"internalType": "address",
							"name": "_voterAddress",
							"type": "address"
						},
						{
							"internalType": "string",
							"name": "_voterName",
							"type": "string"
						}
					],
					"name": "addVoter",
					"outputs": [],
					"stateMutability": "nonpayable",
					"type": "function"
				},
				{
					"inputs": [],
					"name": "candidatesCount",
					"outputs": [
						{
							"internalType": "uint256",
							"name": "",
							"type": "uint256"
						}
					],
					"stateMutability": "view",
					"type": "function"
				},
				{
					"inputs": [],
					"name": "state",
					"outputs": [
						{
							"internalType": "enum Voting.State",
							"name": "",
							"type": "uint8"
						}
					],
					"stateMutability": "view",
					"type": "function"
				},
				{
					"inputs": [],
					"name": "totalVoters",
					"outputs": [
						{
							"internalType": "uint256",
							"name": "",
							"type": "uint256"
						}
					],
					"stateMutability": "view",
					"type": "function"
				},
				{
					"inputs": [],
					"name": "totalVotes",
					"outputs": [
						{
							"internalType": "uint256",
							"name": "",
							"type": "uint256"
						}
					],
					"stateMutability": "view",
					"type": "function"
				}
			],
			"devdoc": {
				"kind": "dev",
				"methods": {},
				"version": 1
			},
			"evm": {
				"assembly": "    /* \"contracts/Voting.sol\":62:1878  contract Voting {\r... */\n  mstore(0x40, 0x80)\n    /* \"contracts/Voting.sol\":930:1095  constructor(string memory _electionName){\r... */\n  callvalue\n  dup1\n  iszero\n  tag_1\n  jumpi\n  0x00\n  dup1\n  revert\ntag_1:\n  pop\n  mload(0x40)\n  sub(codesize, bytecodeSize)\n  dup1\n  bytecodeSize\n  dup4\n  codecopy\n  dup2\n  dup2\n  add\n  0x40\n  mstore\n  dup2\n  add\n  swap1\n  tag_2\n  swap2\n  swap1\n  tag_3\n  jump\t// in\ntag_2:\n    /* \"contracts/Voting.sol\":1000:1010  msg.sender */\n  caller\n    /* \"contracts/Voting.sol\":981:997  OragnizerAddress */\n  0x08\n  0x01\n    /* \"contracts/Voting.sol\":981:1010  OragnizerAddress = msg.sender */\n  0x0100\n  exp\n  dup2\n  sload\n  dup2\n  0xffffffffffffffffffffffffffffffffffffffff\n  mul\n  not\n  and\n  swap1\n  dup4\n  0xffffffffffffffffffffffffffffffffffffffff\n  and\n  mul\n  or\n  swap1\n  sstore\n  pop\n    /* \"contracts/Voting.sol\":1036:1049  _electionName */\n  dup1\n    /* \"contracts/Voting.sol\":1021:1033  ElectionName */\n  0x09\n    /* \"contracts/Voting.sol\":1021:1049  ElectionName = _electionName */\n  swap1\n  dup1\n  mload\n  swap1\n  0x20\n  add\n  swap1\n  tag_6\n  swap3\n  swap2\n  swap1\n  tag_7\n  jump\t// in\ntag_6:\n  pop\n    /* \"contracts/Voting.sol\":1070:1083  State.Created */\n  0x00\n    /* \"contracts/Voting.sol\":1062:1067  state */\n  0x08\n  0x00\n    /* \"contracts/Voting.sol\":1062:1083  state = State.Created */\n  0x0100\n  exp\n  dup2\n  sload\n  dup2\n  0xff\n  mul\n  not\n  and\n  swap1\n  dup4\n  0x02\n  dup2\n  gt\n  iszero\n  tag_8\n  jumpi\n  tag_9\n  tag_10\n  jump\t// in\ntag_9:\ntag_8:\n  mul\n  or\n  swap1\n  sstore\n  pop\n    /* \"contracts/Voting.sol\":930:1095  constructor(string memory _electionName){\r... */\n  pop\n    /* \"contracts/Voting.sol\":62:1878  contract Voting {\r... */\n  jump(tag_11)\ntag_7:\n  dup3\n  dup1\n  sload\n  tag_12\n  swap1\n  tag_13\n  jump\t// in\ntag_12:\n  swap1\n  0x00\n  mstore\n  keccak256(0x00, 0x20)\n  swap1\n  0x1f\n  add\n  0x20\n  swap1\n  div\n  dup2\n  add\n  swap3\n  dup3\n  tag_15\n  jumpi\n  0x00\n  dup6\n  sstore\n  jump(tag_14)\ntag_15:\n  dup3\n  0x1f\n  lt\n  tag_16\n  jumpi\n  dup1\n  mload\n  not(0xff)\n  and\n  dup4\n  dup1\n  add\n  or\n  dup6\n  sstore\n  jump(tag_14)\ntag_16:\n  dup3\n  dup1\n  add\n  0x01\n  add\n  dup6\n  sstore\n  dup3\n  iszero\n  tag_14\n  jumpi\n  swap2\n  dup3\n  add\ntag_17:\n  dup3\n  dup2\n  gt\n  iszero\n  tag_18\n  jumpi\n  dup3\n  mload\n  dup3\n  sstore\n  swap2\n  0x20\n  add\n  swap2\n  swap1\n  0x01\n  add\n  swap1\n  jump(tag_17)\ntag_18:\ntag_14:\n  pop\n  swap1\n  pop\n  tag_19\n  swap2\n  swap1\n  tag_20\n  jump\t// in\ntag_19:\n  pop\n  swap1\n  jump\t// out\ntag_20:\ntag_21:\n  dup1\n  dup3\n  gt\n  iszero\n  tag_22\n  jumpi\n  0x00\n  dup2\n  0x00\n  swap1\n  sstore\n  pop\n  0x01\n  add\n  jump(tag_21)\ntag_22:\n  pop\n  swap1\n  jump\t// out\n    /* \"#utility.yul\":7:428   */\ntag_24:\n    /* \"#utility.yul\":96:101   */\n  0x00\n    /* \"#utility.yul\":121:187   */\n  tag_26\n    /* \"#utility.yul\":137:186   */\n  tag_27\n    /* \"#utility.yul\":179:185   */\n  dup5\n    /* \"#utility.yul\":137:186   */\n  tag_28\n  jump\t// in\ntag_27:\n    /* \"#utility.yul\":121:187   */\n  tag_29\n  jump\t// in\ntag_26:\n    /* \"#utility.yul\":112:187   */\n  swap1\n  pop\n    /* \"#utility.yul\":210:216   */\n  dup3\n    /* \"#utility.yul\":203:208   */\n  dup2\n    /* \"#utility.yul\":196:217   */\n  mstore\n    /* \"#utility.yul\":248:252   */\n  0x20\n    /* \"#utility.yul\":241:246   */\n  dup2\n    /* \"#utility.yul\":237:253   */\n  add\n    /* \"#utility.yul\":286:289   */\n  dup5\n    /* \"#utility.yul\":277:283   */\n  dup5\n    /* \"#utility.yul\":272:275   */\n  dup5\n    /* \"#utility.yul\":268:284   */\n  add\n    /* \"#utility.yul\":265:290   */\n  gt\n    /* \"#utility.yul\":262:374   */\n  iszero\n  tag_30\n  jumpi\n    /* \"#utility.yul\":293:372   */\n  tag_31\n  tag_32\n  jump\t// in\ntag_31:\n    /* \"#utility.yul\":262:374   */\ntag_30:\n    /* \"#utility.yul\":383:422   */\n  tag_33\n    /* \"#utility.yul\":415:421   */\n  dup5\n    /* \"#utility.yul\":410:413   */\n  dup3\n    /* \"#utility.yul\":405:408   */\n  dup6\n    /* \"#utility.yul\":383:422   */\n  tag_34\n  jump\t// in\ntag_33:\n    /* \"#utility.yul\":102:428   */\n  pop\n    /* \"#utility.yul\":7:428   */\n  swap4\n  swap3\n  pop\n  pop\n  pop\n  jump\t// out\n    /* \"#utility.yul\":448:803   */\ntag_35:\n    /* \"#utility.yul\":515:520   */\n  0x00\n    /* \"#utility.yul\":564:567   */\n  dup3\n    /* \"#utility.yul\":557:561   */\n  0x1f\n    /* \"#utility.yul\":549:555   */\n  dup4\n    /* \"#utility.yul\":545:562   */\n  add\n    /* \"#utility.yul\":541:568   */\n  slt\n    /* \"#utility.yul\":531:653   */\n  tag_37\n  jumpi\n    /* \"#utility.yul\":572:651   */\n  tag_38\n  tag_39\n  jump\t// in\ntag_38:\n    /* \"#utility.yul\":531:653   */\ntag_37:\n    /* \"#utility.yul\":682:688   */\n  dup2\n    /* \"#utility.yul\":676:689   */\n  mload\n    /* \"#utility.yul\":707:797   */\n  tag_40\n    /* \"#utility.yul\":793:796   */\n  dup5\n    /* \"#utility.yul\":785:791   */\n  dup3\n    /* \"#utility.yul\":778:782   */\n  0x20\n    /* \"#utility.yul\":770:776   */\n  dup7\n    /* \"#utility.yul\":766:783   */\n  add\n    /* \"#utility.yul\":707:797   */\n  tag_24\n  jump\t// in\ntag_40:\n    /* \"#utility.yul\":698:797   */\n  swap2\n  pop\n    /* \"#utility.yul\":521:803   */\n  pop\n    /* \"#utility.yul\":448:803   */\n  swap3\n  swap2\n  pop\n  pop\n  jump\t// out\n    /* \"#utility.yul\":809:1333   */\ntag_3:\n    /* \"#utility.yul\":889:895   */\n  0x00\n    /* \"#utility.yul\":938:940   */\n  0x20\n    /* \"#utility.yul\":926:935   */\n  dup3\n    /* \"#utility.yul\":917:924   */\n  dup5\n    /* \"#utility.yul\":913:936   */\n  sub\n    /* \"#utility.yul\":909:941   */\n  slt\n    /* \"#utility.yul\":906:1025   */\n  iszero\n  tag_42\n  jumpi\n    /* \"#utility.yul\":944:1023   */\n  tag_43\n  tag_44\n  jump\t// in\ntag_43:\n    /* \"#utility.yul\":906:1025   */\ntag_42:\n    /* \"#utility.yul\":1085:1086   */\n  0x00\n    /* \"#utility.yul\":1074:1083   */\n  dup3\n    /* \"#utility.yul\":1070:1087   */\n  add\n    /* \"#utility.yul\":1064:1088   */\n  mload\n    /* \"#utility.yul\":1115:1133   */\n  0xffffffffffffffff\n    /* \"#utility.yul\":1107:1113   */\n  dup2\n    /* \"#utility.yul\":1104:1134   */\n  gt\n    /* \"#utility.yul\":1101:1218   */\n  iszero\n  tag_45\n  jumpi\n    /* \"#utility.yul\":1137:1216   */\n  tag_46\n  tag_47\n  jump\t// in\ntag_46:\n    /* \"#utility.yul\":1101:1218   */\ntag_45:\n    /* \"#utility.yul\":1242:1316   */\n  tag_48\n    /* \"#utility.yul\":1308:1315   */\n  dup5\n    /* \"#utility.yul\":1299:1305   */\n  dup3\n    /* \"#utility.yul\":1288:1297   */\n  dup6\n    /* \"#utility.yul\":1284:1306   */\n  add\n    /* \"#utility.yul\":1242:1316   */\n  tag_35\n  jump\t// in\ntag_48:\n    /* \"#utility.yul\":1232:1316   */\n  swap2\n  pop\n    /* \"#utility.yul\":1035:1326   */\n  pop\n    /* \"#utility.yul\":809:1333   */\n  swap3\n  swap2\n  pop\n  pop\n  jump\t// out\n    /* \"#utility.yul\":1339:1468   */\ntag_29:\n    /* \"#utility.yul\":1373:1379   */\n  0x00\n    /* \"#utility.yul\":1400:1420   */\n  tag_50\n  tag_51\n  jump\t// in\ntag_50:\n    /* \"#utility.yul\":1390:1420   */\n  swap1\n  pop\n    /* \"#utility.yul\":1429:1462   */\n  tag_52\n    /* \"#utility.yul\":1457:1461   */\n  dup3\n    /* \"#utility.yul\":1449:1455   */\n  dup3\n    /* \"#utility.yul\":1429:1462   */\n  tag_53\n  jump\t// in\ntag_52:\n    /* \"#utility.yul\":1339:1468   */\n  swap2\n  swap1\n  pop\n  jump\t// out\n    /* \"#utility.yul\":1474:1549   */\ntag_51:\n    /* \"#utility.yul\":1507:1513   */\n  0x00\n    /* \"#utility.yul\":1540:1542   */\n  0x40\n    /* \"#utility.yul\":1534:1543   */\n  mload\n    /* \"#utility.yul\":1524:1543   */\n  swap1\n  pop\n    /* \"#utility.yul\":1474:1549   */\n  swap1\n  jump\t// out\n    /* \"#utility.yul\":1555:1863   */\ntag_28:\n    /* \"#utility.yul\":1617:1621   */\n  0x00\n    /* \"#utility.yul\":1707:1725   */\n  0xffffffffffffffff\n    /* \"#utility.yul\":1699:1705   */\n  dup3\n    /* \"#utility.yul\":1696:1726   */\n  gt\n    /* \"#utility.yul\":1693:1749   */\n  iszero\n  tag_56\n  jumpi\n    /* \"#utility.yul\":1729:1747   */\n  tag_57\n  tag_58\n  jump\t// in\ntag_57:\n    /* \"#utility.yul\":1693:1749   */\ntag_56:\n    /* \"#utility.yul\":1767:1796   */\n  tag_59\n    /* \"#utility.yul\":1789:1795   */\n  dup3\n    /* \"#utility.yul\":1767:1796   */\n  tag_60\n  jump\t// in\ntag_59:\n    /* \"#utility.yul\":1759:1796   */\n  swap1\n  pop\n    /* \"#utility.yul\":1851:1855   */\n  0x20\n    /* \"#utility.yul\":1845:1849   */\n  dup2\n    /* \"#utility.yul\":1841:1856   */\n  add\n    /* \"#utility.yul\":1833:1856   */\n  swap1\n  pop\n    /* \"#utility.yul\":1555:1863   */\n  swap2\n  swap1\n  pop\n  jump\t// out\n    /* \"#utility.yul\":1869:2176   */\ntag_34:\n    /* \"#utility.yul\":1937:1938   */\n  0x00\n    /* \"#utility.yul\":1947:2060   */\ntag_62:\n    /* \"#utility.yul\":1961:1967   */\n  dup4\n    /* \"#utility.yul\":1958:1959   */\n  dup2\n    /* \"#utility.yul\":1955:1968   */\n  lt\n    /* \"#utility.yul\":1947:2060   */\n  iszero\n  tag_64\n  jumpi\n    /* \"#utility.yul\":2046:2047   */\n  dup1\n    /* \"#utility.yul\":2041:2044   */\n  dup3\n    /* \"#utility.yul\":2037:2048   */\n  add\n    /* \"#utility.yul\":2031:2049   */\n  mload\n    /* \"#utility.yul\":2027:2028   */\n  dup2\n    /* \"#utility.yul\":2022:2025   */\n  dup5\n    /* \"#utility.yul\":2018:2029   */\n  add\n    /* \"#utility.yul\":2011:2050   */\n  mstore\n    /* \"#utility.yul\":1983:1985   */\n  0x20\n    /* \"#utility.yul\":1980:1981   */\n  dup2\n    /* \"#utility.yul\":1976:1986   */\n  add\n    /* \"#utility.yul\":1971:1986   */\n  swap1\n  pop\n    /* \"#utility.yul\":1947:2060   */\n  jump(tag_62)\ntag_64:\n    /* \"#utility.yul\":2078:2084   */\n  dup4\n    /* \"#utility.yul\":2075:2076   */\n  dup2\n    /* \"#utility.yul\":2072:2085   */\n  gt\n    /* \"#utility.yul\":2069:2170   */\n  iszero\n  tag_65\n  jumpi\n    /* \"#utility.yul\":2158:2159   */\n  0x00\n    /* \"#utility.yul\":2149:2155   */\n  dup5\n    /* \"#utility.yul\":2144:2147   */\n  dup5\n    /* \"#utility.yul\":2140:2156   */\n  add\n    /* \"#utility.yul\":2133:2160   */\n  mstore\n    /* \"#utility.yul\":2069:2170   */\ntag_65:\n    /* \"#utility.yul\":1918:2176   */\n  pop\n    /* \"#utility.yul\":1869:2176   */\n  pop\n  pop\n  pop\n  jump\t// out\n    /* \"#utility.yul\":2182:2502   */\ntag_13:\n    /* \"#utility.yul\":2226:2232   */\n  0x00\n    /* \"#utility.yul\":2263:2264   */\n  0x02\n    /* \"#utility.yul\":2257:2261   */\n  dup3\n    /* \"#utility.yul\":2253:2265   */\n  div\n    /* \"#utility.yul\":2243:2265   */\n  swap1\n  pop\n    /* \"#utility.yul\":2310:2311   */\n  0x01\n    /* \"#utility.yul\":2304:2308   */\n  dup3\n    /* \"#utility.yul\":2300:2312   */\n  and\n    /* \"#utility.yul\":2331:2349   */\n  dup1\n    /* \"#utility.yul\":2321:2402   */\n  tag_67\n  jumpi\n    /* \"#utility.yul\":2387:2391   */\n  0x7f\n    /* \"#utility.yul\":2379:2385   */\n  dup3\n    /* \"#utility.yul\":2375:2392   */\n  and\n    /* \"#utility.yul\":2365:2392   */\n  swap2\n  pop\n    /* \"#utility.yul\":2321:2402   */\ntag_67:\n    /* \"#utility.yul\":2449:2451   */\n  0x20\n    /* \"#utility.yul\":2441:2447   */\n  dup3\n    /* \"#utility.yul\":2438:2452   */\n  lt\n    /* \"#utility.yul\":2418:2436   */\n  dup2\n    /* \"#utility.yul\":2415:2453   */\n  eq\n    /* \"#utility.yul\":2412:2496   */\n  iszero\n  tag_68\n  jumpi\n    /* \"#utility.yul\":2468:2486   */\n  tag_69\n  tag_70\n  jump\t// in\ntag_69:\n    /* \"#utility.yul\":2412:2496   */\ntag_68:\n    /* \"#utility.yul\":2233:2502   */\n  pop\n    /* \"#utility.yul\":2182:2502   */\n  swap2\n  swap1\n  pop\n  jump\t// out\n    /* \"#utility.yul\":2508:2789   */\ntag_53:\n    /* \"#utility.yul\":2591:2618   */\n  tag_72\n    /* \"#utility.yul\":2613:2617   */\n  dup3\n    /* \"#utility.yul\":2591:2618   */\n  tag_60\n  jump\t// in\ntag_72:\n    /* \"#utility.yul\":2583:2589   */\n  dup2\n    /* \"#utility.yul\":2579:2619   */\n  add\n    /* \"#utility.yul\":2721:2727   */\n  dup2\n    /* \"#utility.yul\":2709:2719   */\n  dup2\n    /* \"#utility.yul\":2706:2728   */\n  lt\n    /* \"#utility.yul\":2685:2703   */\n  0xffffffffffffffff\n    /* \"#utility.yul\":2673:2683   */\n  dup3\n    /* \"#utility.yul\":2670:2704   */\n  gt\n    /* \"#utility.yul\":2667:2729   */\n  or\n    /* \"#utility.yul\":2664:2752   */\n  iszero\n  tag_73\n  jumpi\n    /* \"#utility.yul\":2732:2750   */\n  tag_74\n  tag_58\n  jump\t// in\ntag_74:\n    /* \"#utility.yul\":2664:2752   */\ntag_73:\n    /* \"#utility.yul\":2772:2782   */\n  dup1\n    /* \"#utility.yul\":2768:2770   */\n  0x40\n    /* \"#utility.yul\":2761:2783   */\n  mstore\n    /* \"#utility.yul\":2551:2789   */\n  pop\n    /* \"#utility.yul\":2508:2789   */\n  pop\n  pop\n  jump\t// out\n    /* \"#utility.yul\":2795:2975   */\ntag_10:\n    /* \"#utility.yul\":2843:2920   */\n  0x4e487b7100000000000000000000000000000000000000000000000000000000\n    /* \"#utility.yul\":2840:2841   */\n  0x00\n    /* \"#utility.yul\":2833:2921   */\n  mstore\n    /* \"#utility.yul\":2940:2944   */\n  0x21\n    /* \"#utility.yul\":2937:2938   */\n  0x04\n    /* \"#utility.yul\":2930:2945   */\n  mstore\n    /* \"#utility.yul\":2964:2968   */\n  0x24\n    /* \"#utility.yul\":2961:2962   */\n  0x00\n    /* \"#utility.yul\":2954:2969   */\n  revert\n    /* \"#utility.yul\":2981:3161   */\ntag_70:\n    /* \"#utility.yul\":3029:3106   */\n  0x4e487b7100000000000000000000000000000000000000000000000000000000\n    /* \"#utility.yul\":3026:3027   */\n  0x00\n    /* \"#utility.yul\":3019:3107   */\n  mstore\n    /* \"#utility.yul\":3126:3130   */\n  0x22\n    /* \"#utility.yul\":3123:3124   */\n  0x04\n    /* \"#utility.yul\":3116:3131   */\n  mstore\n    /* \"#utility.yul\":3150:3154   */\n  0x24\n    /* \"#utility.yul\":3147:3148   */\n  0x00\n    /* \"#utility.yul\":3140:3155   */\n  revert\n    /* \"#utility.yul\":3167:3347   */\ntag_58:\n    /* \"#utility.yul\":3215:3292   */\n  0x4e487b7100000000000000000000000000000000000000000000000000000000\n    /* \"#utility.yul\":3212:3213   */\n  0x00\n    /* \"#utility.yul\":3205:3293   */\n  mstore\n    /* \"#utility.yul\":3312:3316   */\n  0x41\n    /* \"#utility.yul\":3309:3310   */\n  0x04\n    /* \"#utility.yul\":3302:3317   */\n  mstore\n    /* \"#utility.yul\":3336:3340   */\n  0x24\n    /* \"#utility.yul\":3333:3334   */\n  0x00\n    /* \"#utility.yul\":3326:3341   */\n  revert\n    /* \"#utility.yul\":3353:3470   */\ntag_39:\n    /* \"#utility.yul\":3462:3463   */\n  0x00\n    /* \"#utility.yul\":3459:3460   */\n  dup1\n    /* \"#utility.yul\":3452:3464   */\n  revert\n    /* \"#utility.yul\":3476:3593   */\ntag_32:\n    /* \"#utility.yul\":3585:3586   */\n  0x00\n    /* \"#utility.yul\":3582:3583   */\n  dup1\n    /* \"#utility.yul\":3575:3587   */\n  revert\n    /* \"#utility.yul\":3599:3716   */\ntag_47:\n    /* \"#utility.yul\":3708:3709   */\n  0x00\n    /* \"#utility.yul\":3705:3706   */\n  dup1\n    /* \"#utility.yul\":3698:3710   */\n  revert\n    /* \"#utility.yul\":3722:3839   */\ntag_44:\n    /* \"#utility.yul\":3831:3832   */\n  0x00\n    /* \"#utility.yul\":3828:3829   */\n  dup1\n    /* \"#utility.yul\":3821:3833   */\n  revert\n    /* \"#utility.yul\":3845:3947   */\ntag_60:\n    /* \"#utility.yul\":3886:3892   */\n  0x00\n    /* \"#utility.yul\":3937:3939   */\n  0x1f\n    /* \"#utility.yul\":3933:3940   */\n  not\n    /* \"#utility.yul\":3928:3930   */\n  0x1f\n    /* \"#utility.yul\":3921:3926   */\n  dup4\n    /* \"#utility.yul\":3917:3931   */\n  add\n    /* \"#utility.yul\":3913:3941   */\n  and\n    /* \"#utility.yul\":3903:3941   */\n  swap1\n  pop\n    /* \"#utility.yul\":3845:3947   */\n  swap2\n  swap1\n  pop\n  jump\t// out\n    /* \"contracts/Voting.sol\":62:1878  contract Voting {\r... */\ntag_11:\n  dataSize(sub_0)\n  dup1\n  dataOffset(sub_0)\n  0x00\n  codecopy\n  0x00\n  return\nstop\n\nsub_0: assembly {\n        /* \"contracts/Voting.sol\":62:1878  contract Voting {\r... */\n      mstore(0x40, 0x80)\n      callvalue\n      dup1\n      iszero\n      tag_1\n      jumpi\n      0x00\n      dup1\n      revert\n    tag_1:\n      pop\n      jumpi(tag_2, lt(calldatasize, 0x04))\n      shr(0xe0, calldataload(0x00))\n      dup1\n      0x62c49251\n      gt\n      tag_15\n      jumpi\n      dup1\n      0x62c49251\n      eq\n      tag_9\n      jumpi\n      dup1\n      0x72753be5\n      eq\n      tag_10\n      jumpi\n      dup1\n      0x80843e25\n      eq\n      tag_11\n      jumpi\n      dup1\n      0x8949e009\n      eq\n      tag_12\n      jumpi\n      dup1\n      0xc19d93fb\n      eq\n      tag_13\n      jumpi\n      dup1\n      0xd9e95a98\n      eq\n      tag_14\n      jumpi\n      jump(tag_2)\n    tag_15:\n      dup1\n      0x0132be09\n      eq\n      tag_3\n      jumpi\n      dup1\n      0x0d15fd77\n      eq\n      tag_4\n      jumpi\n      dup1\n      0x12c06342\n      eq\n      tag_5\n      jumpi\n      dup1\n      0x2d35a8a2\n      eq\n      tag_6\n      jumpi\n      dup1\n      0x46702b16\n      eq\n      tag_7\n      jumpi\n      dup1\n      0x5f5300ff\n      eq\n      tag_8\n      jumpi\n    tag_2:\n      0x00\n      dup1\n      revert\n        /* \"contracts/Voting.sol\":495:540  mapping (uint256 => uint256) public VoteCount */\n    tag_3:\n      tag_16\n      0x04\n      dup1\n      calldatasize\n      sub\n      dup2\n      add\n      swap1\n      tag_17\n      swap2\n      swap1\n      tag_18\n      jump\t// in\n    tag_17:\n      tag_19\n      jump\t// in\n    tag_16:\n      mload(0x40)\n      tag_20\n      swap2\n      swap1\n      tag_21\n      jump\t// in\n    tag_20:\n      mload(0x40)\n      dup1\n      swap2\n      sub\n      swap1\n      return\n        /* \"contracts/Voting.sol\":744:769  uint256 public totalVotes */\n    tag_4:\n      tag_22\n      tag_23\n      jump\t// in\n    tag_22:\n      mload(0x40)\n      tag_24\n      swap2\n      swap1\n      tag_21\n      jump\t// in\n    tag_24:\n      mload(0x40)\n      dup1\n      swap2\n      sub\n      swap1\n      return\n        /* \"contracts/Voting.sol\":402:450  mapping (address => Voter) public AddressToVoter */\n    tag_5:\n      tag_25\n      0x04\n      dup1\n      calldatasize\n      sub\n      dup2\n      add\n      swap1\n      tag_26\n      swap2\n      swap1\n      tag_27\n      jump\t// in\n    tag_26:\n      tag_28\n      jump\t// in\n    tag_25:\n      mload(0x40)\n      tag_29\n      swap3\n      swap2\n      swap1\n      tag_30\n      jump\t// in\n    tag_29:\n      mload(0x40)\n      dup1\n      swap2\n      sub\n      swap1\n      return\n        /* \"contracts/Voting.sol\":670:700  uint256 public candidatesCount */\n    tag_6:\n      tag_31\n      tag_32\n      jump\t// in\n    tag_31:\n      mload(0x40)\n      tag_33\n      swap2\n      swap1\n      tag_21\n      jump\t// in\n    tag_33:\n      mload(0x40)\n      dup1\n      swap2\n      sub\n      swap1\n      return\n        /* \"contracts/Voting.sol\":605:659  mapping (string => Candidate) public SymbolToCandidate */\n    tag_7:\n      tag_34\n      0x04\n      dup1\n      calldatasize\n      sub\n      dup2\n      add\n      swap1\n      tag_35\n      swap2\n      swap1\n      tag_36\n      jump\t// in\n    tag_35:\n      tag_37\n      jump\t// in\n    tag_34:\n      mload(0x40)\n      tag_38\n      swap5\n      swap4\n      swap3\n      swap2\n      swap1\n      tag_39\n      jump\t// in\n    tag_38:\n      mload(0x40)\n      dup1\n      swap2\n      sub\n      swap1\n      return\n        /* \"contracts/Voting.sol\":711:737  uint256 public totalVoters */\n    tag_8:\n      tag_40\n      tag_41\n      jump\t// in\n    tag_40:\n      mload(0x40)\n      tag_42\n      swap2\n      swap1\n      tag_21\n      jump\t// in\n    tag_42:\n      mload(0x40)\n      dup1\n      swap2\n      sub\n      swap1\n      return\n        /* \"contracts/Voting.sol\":1103:1541  function addCandidates(address _candidateAddress, string memory _candidateName, string memory _symbol) public InState(State.Created) OfficialOnly{\r... */\n    tag_9:\n      tag_43\n      0x04\n      dup1\n      calldatasize\n      sub\n      dup2\n      add\n      swap1\n      tag_44\n      swap2\n      swap1\n      tag_45\n      jump\t// in\n    tag_44:\n      tag_46\n      jump\t// in\n    tag_43:\n      stop\n        /* \"contracts/Voting.sol\":547:598  mapping (uint256 => Candidate) public CandidateList */\n    tag_10:\n      tag_47\n      0x04\n      dup1\n      calldatasize\n      sub\n      dup2\n      add\n      swap1\n      tag_48\n      swap2\n      swap1\n      tag_18\n      jump\t// in\n    tag_48:\n      tag_49\n      jump\t// in\n    tag_47:\n      mload(0x40)\n      tag_50\n      swap5\n      swap4\n      swap3\n      swap2\n      swap1\n      tag_39\n      jump\t// in\n    tag_50:\n      mload(0x40)\n      dup1\n      swap2\n      sub\n      swap1\n      return\n        /* \"contracts/Voting.sol\":892:919  string public  ElectionName */\n    tag_11:\n      tag_51\n      tag_52\n      jump\t// in\n    tag_51:\n      mload(0x40)\n      tag_53\n      swap2\n      swap1\n      tag_54\n      jump\t// in\n    tag_53:\n      mload(0x40)\n      dup1\n      swap2\n      sub\n      swap1\n      return\n        /* \"contracts/Voting.sol\":848:879  address public OragnizerAddress */\n    tag_12:\n      tag_55\n      tag_56\n      jump\t// in\n    tag_55:\n      mload(0x40)\n      tag_57\n      swap2\n      swap1\n      tag_58\n      jump\t// in\n    tag_57:\n      mload(0x40)\n      dup1\n      swap2\n      sub\n      swap1\n      return\n        /* \"contracts/Voting.sol\":821:839  State public state */\n    tag_13:\n      tag_59\n      tag_60\n      jump\t// in\n    tag_59:\n      mload(0x40)\n      tag_61\n      swap2\n      swap1\n      tag_62\n      jump\t// in\n    tag_61:\n      mload(0x40)\n      dup1\n      swap2\n      sub\n      swap1\n      return\n        /* \"contracts/Voting.sol\":1551:1671  function addVoter(address _voterAddress, string memory _voterName) public InState(State.Created) OfficialOnly {\r... */\n    tag_14:\n      tag_63\n      0x04\n      dup1\n      calldatasize\n      sub\n      dup2\n      add\n      swap1\n      tag_64\n      swap2\n      swap1\n      tag_65\n      jump\t// in\n    tag_64:\n      tag_66\n      jump\t// in\n    tag_63:\n      stop\n        /* \"contracts/Voting.sol\":495:540  mapping (uint256 => uint256) public VoteCount */\n    tag_19:\n      mstore(0x20, 0x02)\n      dup1\n      0x00\n      mstore\n      keccak256(0x00, 0x40)\n      0x00\n      swap2\n      pop\n      swap1\n      pop\n      sload\n      dup2\n      jump\t// out\n        /* \"contracts/Voting.sol\":744:769  uint256 public totalVotes */\n    tag_23:\n      sload(0x07)\n      dup2\n      jump\t// out\n        /* \"contracts/Voting.sol\":402:450  mapping (address => Voter) public AddressToVoter */\n    tag_28:\n      mstore(0x20, 0x00)\n      dup1\n      0x00\n      mstore\n      keccak256(0x00, 0x40)\n      0x00\n      swap2\n      pop\n      swap1\n      pop\n      dup1\n      0x00\n      add\n      dup1\n      sload\n      tag_67\n      swap1\n      tag_68\n      jump\t// in\n    tag_67:\n      dup1\n      0x1f\n      add\n      0x20\n      dup1\n      swap2\n      div\n      mul\n      0x20\n      add\n      mload(0x40)\n      swap1\n      dup2\n      add\n      0x40\n      mstore\n      dup1\n      swap3\n      swap2\n      swap1\n      dup2\n      dup2\n      mstore\n      0x20\n      add\n      dup3\n      dup1\n      sload\n      tag_69\n      swap1\n      tag_68\n      jump\t// in\n    tag_69:\n      dup1\n      iszero\n      tag_70\n      jumpi\n      dup1\n      0x1f\n      lt\n      tag_71\n      jumpi\n      0x0100\n      dup1\n      dup4\n      sload\n      div\n      mul\n      dup4\n      mstore\n      swap2\n      0x20\n      add\n      swap2\n      jump(tag_70)\n    tag_71:\n      dup3\n      add\n      swap2\n      swap1\n      0x00\n      mstore\n      keccak256(0x00, 0x20)\n      swap1\n    tag_72:\n      dup2\n      sload\n      dup2\n      mstore\n      swap1\n      0x01\n      add\n      swap1\n      0x20\n      add\n      dup1\n      dup4\n      gt\n      tag_72\n      jumpi\n      dup3\n      swap1\n      sub\n      0x1f\n      and\n      dup3\n      add\n      swap2\n    tag_70:\n      pop\n      pop\n      pop\n      pop\n      pop\n      swap1\n      dup1\n      0x01\n      add\n      0x00\n      swap1\n      sload\n      swap1\n      0x0100\n      exp\n      swap1\n      div\n      0xff\n      and\n      swap1\n      pop\n      dup3\n      jump\t// out\n        /* \"contracts/Voting.sol\":670:700  uint256 public candidatesCount */\n    tag_32:\n      sload(0x05)\n      dup2\n      jump\t// out\n        /* \"contracts/Voting.sol\":605:659  mapping (string => Candidate) public SymbolToCandidate */\n    tag_37:\n      0x04\n      dup2\n      dup1\n      mload\n      0x20\n      dup2\n      add\n      dup3\n      add\n      dup1\n      mload\n      dup5\n      dup3\n      mstore\n      0x20\n      dup4\n      add\n      0x20\n      dup6\n      add\n      keccak256\n      dup2\n      dup4\n      mstore\n      dup1\n      swap6\n      pop\n      pop\n      pop\n      pop\n      pop\n      pop\n      0x00\n      swap2\n      pop\n      swap1\n      pop\n      dup1\n      0x00\n      add\n      dup1\n      sload\n      tag_73\n      swap1\n      tag_68\n      jump\t// in\n    tag_73:\n      dup1\n      0x1f\n      add\n      0x20\n      dup1\n      swap2\n      div\n      mul\n      0x20\n      add\n      mload(0x40)\n      swap1\n      dup2\n      add\n      0x40\n      mstore\n      dup1\n      swap3\n      swap2\n      swap1\n      dup2\n      dup2\n      mstore\n      0x20\n      add\n      dup3\n      dup1\n      sload\n      tag_74\n      swap1\n      tag_68\n      jump\t// in\n    tag_74:\n      dup1\n      iszero\n      tag_75\n      jumpi\n      dup1\n      0x1f\n      lt\n      tag_76\n      jumpi\n      0x0100\n      dup1\n      dup4\n      sload\n      div\n      mul\n      dup4\n      mstore\n      swap2\n      0x20\n      add\n      swap2\n      jump(tag_75)\n    tag_76:\n      dup3\n      add\n      swap2\n      swap1\n      0x00\n      mstore\n      keccak256(0x00, 0x20)\n      swap1\n    tag_77:\n      dup2\n      sload\n      dup2\n      mstore\n      swap1\n      0x01\n      add\n      swap1\n      0x20\n      add\n      dup1\n      dup4\n      gt\n      tag_77\n      jumpi\n      dup3\n      swap1\n      sub\n      0x1f\n      and\n      dup3\n      add\n      swap2\n    tag_75:\n      pop\n      pop\n      pop\n      pop\n      pop\n      swap1\n      dup1\n      0x01\n      add\n      0x00\n      swap1\n      sload\n      swap1\n      0x0100\n      exp\n      swap1\n      div\n      0xffffffffffffffffffffffffffffffffffffffff\n      and\n      swap1\n      dup1\n      0x02\n      add\n      sload\n      swap1\n      dup1\n      0x03\n      add\n      dup1\n      sload\n      tag_78\n      swap1\n      tag_68\n      jump\t// in\n    tag_78:\n      dup1\n      0x1f\n      add\n      0x20\n      dup1\n      swap2\n      div\n      mul\n      0x20\n      add\n      mload(0x40)\n      swap1\n      dup2\n      add\n      0x40\n      mstore\n      dup1\n      swap3\n      swap2\n      swap1\n      dup2\n      dup2\n      mstore\n      0x20\n      add\n      dup3\n      dup1\n      sload\n      tag_79\n      swap1\n      tag_68\n      jump\t// in\n    tag_79:\n      dup1\n      iszero\n      tag_80\n      jumpi\n      dup1\n      0x1f\n      lt\n      tag_81\n      jumpi\n      0x0100\n      dup1\n      dup4\n      sload\n      div\n      mul\n      dup4\n      mstore\n      swap2\n      0x20\n      add\n      swap2\n      jump(tag_80)\n    tag_81:\n      dup3\n      add\n      swap2\n      swap1\n      0x00\n      mstore\n      keccak256(0x00, 0x20)\n      swap1\n    tag_82:\n      dup2\n      sload\n      dup2\n      mstore\n      swap1\n      0x01\n      add\n      swap1\n      0x20\n      add\n      dup1\n      dup4\n      gt\n      tag_82\n      jumpi\n      dup3\n      swap1\n      sub\n      0x1f\n      and\n      dup3\n      add\n      swap2\n    tag_80:\n      pop\n      pop\n      pop\n      pop\n      pop\n      swap1\n      pop\n      dup5\n      jump\t// out\n        /* \"contracts/Voting.sol\":711:737  uint256 public totalVoters */\n    tag_41:\n      sload(0x06)\n      dup2\n      jump\t// out\n        /* \"contracts/Voting.sol\":1103:1541  function addCandidates(address _candidateAddress, string memory _candidateName, string memory _symbol) public InState(State.Created) OfficialOnly{\r... */\n    tag_46:\n        /* \"contracts/Voting.sol\":1221:1234  State.Created */\n      0x00\n        /* \"contracts/Voting.sol\":1739:1745  _state */\n      dup1\n        /* \"contracts/Voting.sol\":1730:1745  state == _state */\n      0x02\n      dup2\n      gt\n      iszero\n      tag_84\n      jumpi\n      tag_85\n      tag_86\n      jump\t// in\n    tag_85:\n    tag_84:\n        /* \"contracts/Voting.sol\":1730:1735  state */\n      0x08\n      0x00\n      swap1\n      sload\n      swap1\n      0x0100\n      exp\n      swap1\n      div\n      0xff\n      and\n        /* \"contracts/Voting.sol\":1730:1745  state == _state */\n      0x02\n      dup2\n      gt\n      iszero\n      tag_87\n      jumpi\n      tag_88\n      tag_86\n      jump\t// in\n    tag_88:\n    tag_87:\n      eq\n        /* \"contracts/Voting.sol\":1722:1746  require(state == _state) */\n      tag_89\n      jumpi\n      0x00\n      dup1\n      revert\n    tag_89:\n        /* \"contracts/Voting.sol\":1838:1848  msg.sender */\n      caller\n        /* \"contracts/Voting.sol\":1818:1848  OragnizerAddress == msg.sender */\n      0xffffffffffffffffffffffffffffffffffffffff\n      and\n        /* \"contracts/Voting.sol\":1818:1834  OragnizerAddress */\n      0x08\n      0x01\n      swap1\n      sload\n      swap1\n      0x0100\n      exp\n      swap1\n      div\n      0xffffffffffffffffffffffffffffffffffffffff\n      and\n        /* \"contracts/Voting.sol\":1818:1848  OragnizerAddress == msg.sender */\n      0xffffffffffffffffffffffffffffffffffffffff\n      and\n      eq\n        /* \"contracts/Voting.sol\":1809:1849  require( OragnizerAddress == msg.sender) */\n      tag_91\n      jumpi\n      0x00\n      dup1\n      revert\n    tag_91:\n        /* \"contracts/Voting.sol\":1259:1285  Candidate memory candidate */\n      tag_93\n      tag_94\n      jump\t// in\n    tag_93:\n        /* \"contracts/Voting.sol\":1325:1342  _candidateAddress */\n      dup5\n        /* \"contracts/Voting.sol\":1296:1305  candidate */\n      dup2\n        /* \"contracts/Voting.sol\":1296:1322  candidate.candidateAddress */\n      0x20\n      add\n        /* \"contracts/Voting.sol\":1296:1342  candidate.candidateAddress = _candidateAddress */\n      swap1\n      0xffffffffffffffffffffffffffffffffffffffff\n      and\n      swap1\n      dup2\n      0xffffffffffffffffffffffffffffffffffffffff\n      and\n      dup2\n      mstore\n      pop\n      pop\n        /* \"contracts/Voting.sol\":1379:1393  _candidateName */\n      dup4\n        /* \"contracts/Voting.sol\":1353:1362  candidate */\n      dup2\n        /* \"contracts/Voting.sol\":1353:1376  candidate.candidateName */\n      0x00\n      add\n        /* \"contracts/Voting.sol\":1353:1393  candidate.candidateName = _candidateName */\n      dup2\n      swap1\n      mstore\n      pop\n        /* \"contracts/Voting.sol\":1423:1430  _symbol */\n      dup3\n        /* \"contracts/Voting.sol\":1404:1413  candidate */\n      dup2\n        /* \"contracts/Voting.sol\":1404:1420  candidate.symbol */\n      0x60\n      add\n        /* \"contracts/Voting.sol\":1404:1430  candidate.symbol = _symbol */\n      dup2\n      swap1\n      mstore\n      pop\n        /* \"contracts/Voting.sol\":1474:1483  candidate */\n      dup1\n        /* \"contracts/Voting.sol\":1441:1454  CandidateList */\n      0x03\n        /* \"contracts/Voting.sol\":1441:1471  CandidateList[candidatesCount] */\n      0x00\n        /* \"contracts/Voting.sol\":1455:1470  candidatesCount */\n      sload(0x05)\n        /* \"contracts/Voting.sol\":1441:1471  CandidateList[candidatesCount] */\n      dup2\n      mstore\n      0x20\n      add\n      swap1\n      dup2\n      mstore\n      0x20\n      add\n      0x00\n      keccak256\n        /* \"contracts/Voting.sol\":1441:1483  CandidateList[candidatesCount] = candidate */\n      0x00\n      dup3\n      add\n      mload\n      dup2\n      0x00\n      add\n      swap1\n      dup1\n      mload\n      swap1\n      0x20\n      add\n      swap1\n      tag_95\n      swap3\n      swap2\n      swap1\n      tag_96\n      jump\t// in\n    tag_95:\n      pop\n      0x20\n      dup3\n      add\n      mload\n      dup2\n      0x01\n      add\n      exp(0x0100, 0x00)\n      dup2\n      sload\n      dup2\n      0xffffffffffffffffffffffffffffffffffffffff\n      mul\n      not\n      and\n      swap1\n      dup4\n      0xffffffffffffffffffffffffffffffffffffffff\n      and\n      mul\n      or\n      swap1\n      sstore\n      pop\n      0x40\n      dup3\n      add\n      mload\n      dup2\n      0x02\n      add\n      sstore\n      0x60\n      dup3\n      add\n      mload\n      dup2\n      0x03\n      add\n      swap1\n      dup1\n      mload\n      swap1\n      0x20\n      add\n      swap1\n      tag_97\n      swap3\n      swap2\n      swap1\n      tag_96\n      jump\t// in\n    tag_97:\n      pop\n      swap1\n      pop\n      pop\n        /* \"contracts/Voting.sol\":1530:1531  1 */\n      0x01\n        /* \"contracts/Voting.sol\":1512:1527  candidatesCount */\n      sload(0x05)\n        /* \"contracts/Voting.sol\":1512:1531  candidatesCount + 1 */\n      tag_98\n      swap2\n      swap1\n      tag_99\n      jump\t// in\n    tag_98:\n        /* \"contracts/Voting.sol\":1494:1509  candidatesCount */\n      0x05\n        /* \"contracts/Voting.sol\":1494:1531  candidatesCount = candidatesCount + 1 */\n      dup2\n      swap1\n      sstore\n      pop\n        /* \"contracts/Voting.sol\":1248:1541  {\r... */\n      pop\n        /* \"contracts/Voting.sol\":1103:1541  function addCandidates(address _candidateAddress, string memory _candidateName, string memory _symbol) public InState(State.Created) OfficialOnly{\r... */\n      pop\n      pop\n      pop\n      pop\n      jump\t// out\n        /* \"contracts/Voting.sol\":547:598  mapping (uint256 => Candidate) public CandidateList */\n    tag_49:\n      mstore(0x20, 0x03)\n      dup1\n      0x00\n      mstore\n      keccak256(0x00, 0x40)\n      0x00\n      swap2\n      pop\n      swap1\n      pop\n      dup1\n      0x00\n      add\n      dup1\n      sload\n      tag_100\n      swap1\n      tag_68\n      jump\t// in\n    tag_100:\n      dup1\n      0x1f\n      add\n      0x20\n      dup1\n      swap2\n      div\n      mul\n      0x20\n      add\n      mload(0x40)\n      swap1\n      dup2\n      add\n      0x40\n      mstore\n      dup1\n      swap3\n      swap2\n      swap1\n      dup2\n      dup2\n      mstore\n      0x20\n      add\n      dup3\n      dup1\n      sload\n      tag_101\n      swap1\n      tag_68\n      jump\t// in\n    tag_101:\n      dup1\n      iszero\n      tag_102\n      jumpi\n      dup1\n      0x1f\n      lt\n      tag_103\n      jumpi\n      0x0100\n      dup1\n      dup4\n      sload\n      div\n      mul\n      dup4\n      mstore\n      swap2\n      0x20\n      add\n      swap2\n      jump(tag_102)\n    tag_103:\n      dup3\n      add\n      swap2\n      swap1\n      0x00\n      mstore\n      keccak256(0x00, 0x20)\n      swap1\n    tag_104:\n      dup2\n      sload\n      dup2\n      mstore\n      swap1\n      0x01\n      add\n      swap1\n      0x20\n      add\n      dup1\n      dup4\n      gt\n      tag_104\n      jumpi\n      dup3\n      swap1\n      sub\n      0x1f\n      and\n      dup3\n      add\n      swap2\n    tag_102:\n      pop\n      pop\n      pop\n      pop\n      pop\n      swap1\n      dup1\n      0x01\n      add\n      0x00\n      swap1\n      sload\n      swap1\n      0x0100\n      exp\n      swap1\n      div\n      0xffffffffffffffffffffffffffffffffffffffff\n      and\n      swap1\n      dup1\n      0x02\n      add\n      sload\n      swap1\n      dup1\n      0x03\n      add\n      dup1\n      sload\n      tag_105\n      swap1\n      tag_68\n      jump\t// in\n    tag_105:\n      dup1\n      0x1f\n      add\n      0x20\n      dup1\n      swap2\n      div\n      mul\n      0x20\n      add\n      mload(0x40)\n      swap1\n      dup2\n      add\n      0x40\n      mstore\n      dup1\n      swap3\n      swap2\n      swap1\n      dup2\n      dup2\n      mstore\n      0x20\n      add\n      dup3\n      dup1\n      sload\n      tag_106\n      swap1\n      tag_68\n      jump\t// in\n    tag_106:\n      dup1\n      iszero\n      tag_107\n      jumpi\n      dup1\n      0x1f\n      lt\n      tag_108\n      jumpi\n      0x0100\n      dup1\n      dup4\n      sload\n      div\n      mul\n      dup4\n      mstore\n      swap2\n      0x20\n      add\n      swap2\n      jump(tag_107)\n    tag_108:\n      dup3\n      add\n      swap2\n      swap1\n      0x00\n      mstore\n      keccak256(0x00, 0x20)\n      swap1\n    tag_109:\n      dup2\n      sload\n      dup2\n      mstore\n      swap1\n      0x01\n      add\n      swap1\n      0x20\n      add\n      dup1\n      dup4\n      gt\n      tag_109\n      jumpi\n      dup3\n      swap1\n      sub\n      0x1f\n      and\n      dup3\n      add\n      swap2\n    tag_107:\n      pop\n      pop\n      pop\n      pop\n      pop\n      swap1\n      pop\n      dup5\n      jump\t// out\n        /* \"contracts/Voting.sol\":892:919  string public  ElectionName */\n    tag_52:\n      0x09\n      dup1\n      sload\n      tag_110\n      swap1\n      tag_68\n      jump\t// in\n    tag_110:\n      dup1\n      0x1f\n      add\n      0x20\n      dup1\n      swap2\n      div\n      mul\n      0x20\n      add\n      mload(0x40)\n      swap1\n      dup2\n      add\n      0x40\n      mstore\n      dup1\n      swap3\n      swap2\n      swap1\n      dup2\n      dup2\n      mstore\n      0x20\n      add\n      dup3\n      dup1\n      sload\n      tag_111\n      swap1\n      tag_68\n      jump\t// in\n    tag_111:\n      dup1\n      iszero\n      tag_112\n      jumpi\n      dup1\n      0x1f\n      lt\n      tag_113\n      jumpi\n      0x0100\n      dup1\n      dup4\n      sload\n      div\n      mul\n      dup4\n      mstore\n      swap2\n      0x20\n      add\n      swap2\n      jump(tag_112)\n    tag_113:\n      dup3\n      add\n      swap2\n      swap1\n      0x00\n      mstore\n      keccak256(0x00, 0x20)\n      swap1\n    tag_114:\n      dup2\n      sload\n      dup2\n      mstore\n      swap1\n      0x01\n      add\n      swap1\n      0x20\n      add\n      dup1\n      dup4\n      gt\n      tag_114\n      jumpi\n      dup3\n      swap1\n      sub\n      0x1f\n      and\n      dup3\n      add\n      swap2\n    tag_112:\n      pop\n      pop\n      pop\n      pop\n      pop\n      dup2\n      jump\t// out\n        /* \"contracts/Voting.sol\":848:879  address public OragnizerAddress */\n    tag_56:\n      0x08\n      0x01\n      swap1\n      sload\n      swap1\n      0x0100\n      exp\n      swap1\n      div\n      0xffffffffffffffffffffffffffffffffffffffff\n      and\n      dup2\n      jump\t// out\n        /* \"contracts/Voting.sol\":821:839  State public state */\n    tag_60:\n      0x08\n      0x00\n      swap1\n      sload\n      swap1\n      0x0100\n      exp\n      swap1\n      div\n      0xff\n      and\n      dup2\n      jump\t// out\n        /* \"contracts/Voting.sol\":1551:1671  function addVoter(address _voterAddress, string memory _voterName) public InState(State.Created) OfficialOnly {\r... */\n    tag_66:\n        /* \"contracts/Voting.sol\":1633:1646  State.Created */\n      0x00\n        /* \"contracts/Voting.sol\":1739:1745  _state */\n      dup1\n        /* \"contracts/Voting.sol\":1730:1745  state == _state */\n      0x02\n      dup2\n      gt\n      iszero\n      tag_116\n      jumpi\n      tag_117\n      tag_86\n      jump\t// in\n    tag_117:\n    tag_116:\n        /* \"contracts/Voting.sol\":1730:1735  state */\n      0x08\n      0x00\n      swap1\n      sload\n      swap1\n      0x0100\n      exp\n      swap1\n      div\n      0xff\n      and\n        /* \"contracts/Voting.sol\":1730:1745  state == _state */\n      0x02\n      dup2\n      gt\n      iszero\n      tag_118\n      jumpi\n      tag_119\n      tag_86\n      jump\t// in\n    tag_119:\n    tag_118:\n      eq\n        /* \"contracts/Voting.sol\":1722:1746  require(state == _state) */\n      tag_120\n      jumpi\n      0x00\n      dup1\n      revert\n    tag_120:\n        /* \"contracts/Voting.sol\":1838:1848  msg.sender */\n      caller\n        /* \"contracts/Voting.sol\":1818:1848  OragnizerAddress == msg.sender */\n      0xffffffffffffffffffffffffffffffffffffffff\n      and\n        /* \"contracts/Voting.sol\":1818:1834  OragnizerAddress */\n      0x08\n      0x01\n      swap1\n      sload\n      swap1\n      0x0100\n      exp\n      swap1\n      div\n      0xffffffffffffffffffffffffffffffffffffffff\n      and\n        /* \"contracts/Voting.sol\":1818:1848  OragnizerAddress == msg.sender */\n      0xffffffffffffffffffffffffffffffffffffffff\n      and\n      eq\n        /* \"contracts/Voting.sol\":1809:1849  require( OragnizerAddress == msg.sender) */\n      tag_122\n      jumpi\n      0x00\n      dup1\n      revert\n    tag_122:\n        /* \"contracts/Voting.sol\":1551:1671  function addVoter(address _voterAddress, string memory _voterName) public InState(State.Created) OfficialOnly {\r... */\n      pop\n      pop\n      pop\n      jump\t// out\n    tag_94:\n      mload(0x40)\n      dup1\n      0x80\n      add\n      0x40\n      mstore\n      dup1\n      0x60\n      dup2\n      mstore\n      0x20\n      add\n      and(0xffffffffffffffffffffffffffffffffffffffff, 0x00)\n      dup2\n      mstore\n      0x20\n      add\n      0x00\n      dup2\n      mstore\n      0x20\n      add\n      0x60\n      dup2\n      mstore\n      pop\n      swap1\n      jump\t// out\n    tag_96:\n      dup3\n      dup1\n      sload\n      tag_124\n      swap1\n      tag_68\n      jump\t// in\n    tag_124:\n      swap1\n      0x00\n      mstore\n      keccak256(0x00, 0x20)\n      swap1\n      0x1f\n      add\n      0x20\n      swap1\n      div\n      dup2\n      add\n      swap3\n      dup3\n      tag_126\n      jumpi\n      0x00\n      dup6\n      sstore\n      jump(tag_125)\n    tag_126:\n      dup3\n      0x1f\n      lt\n      tag_127\n      jumpi\n      dup1\n      mload\n      not(0xff)\n      and\n      dup4\n      dup1\n      add\n      or\n      dup6\n      sstore\n      jump(tag_125)\n    tag_127:\n      dup3\n      dup1\n      add\n      0x01\n      add\n      dup6\n      sstore\n      dup3\n      iszero\n      tag_125\n      jumpi\n      swap2\n      dup3\n      add\n    tag_128:\n      dup3\n      dup2\n      gt\n      iszero\n      tag_129\n      jumpi\n      dup3\n      mload\n      dup3\n      sstore\n      swap2\n      0x20\n      add\n      swap2\n      swap1\n      0x01\n      add\n      swap1\n      jump(tag_128)\n    tag_129:\n    tag_125:\n      pop\n      swap1\n      pop\n      tag_130\n      swap2\n      swap1\n      tag_131\n      jump\t// in\n    tag_130:\n      pop\n      swap1\n      jump\t// out\n    tag_131:\n    tag_132:\n      dup1\n      dup3\n      gt\n      iszero\n      tag_133\n      jumpi\n      0x00\n      dup2\n      0x00\n      swap1\n      sstore\n      pop\n      0x01\n      add\n      jump(tag_132)\n    tag_133:\n      pop\n      swap1\n      jump\t// out\n        /* \"#utility.yul\":7:419   */\n    tag_135:\n        /* \"#utility.yul\":85:90   */\n      0x00\n        /* \"#utility.yul\":110:176   */\n      tag_137\n        /* \"#utility.yul\":126:175   */\n      tag_138\n        /* \"#utility.yul\":168:174   */\n      dup5\n        /* \"#utility.yul\":126:175   */\n      tag_139\n      jump\t// in\n    tag_138:\n        /* \"#utility.yul\":110:176   */\n      tag_140\n      jump\t// in\n    tag_137:\n        /* \"#utility.yul\":101:176   */\n      swap1\n      pop\n        /* \"#utility.yul\":199:205   */\n      dup3\n        /* \"#utility.yul\":192:197   */\n      dup2\n        /* \"#utility.yul\":185:206   */\n      mstore\n        /* \"#utility.yul\":237:241   */\n      0x20\n        /* \"#utility.yul\":230:235   */\n      dup2\n        /* \"#utility.yul\":226:242   */\n      add\n        /* \"#utility.yul\":275:278   */\n      dup5\n        /* \"#utility.yul\":266:272   */\n      dup5\n        /* \"#utility.yul\":261:264   */\n      dup5\n        /* \"#utility.yul\":257:273   */\n      add\n        /* \"#utility.yul\":254:279   */\n      gt\n        /* \"#utility.yul\":251:363   */\n      iszero\n      tag_141\n      jumpi\n        /* \"#utility.yul\":282:361   */\n      tag_142\n      tag_143\n      jump\t// in\n    tag_142:\n        /* \"#utility.yul\":251:363   */\n    tag_141:\n        /* \"#utility.yul\":372:413   */\n      tag_144\n        /* \"#utility.yul\":406:412   */\n      dup5\n        /* \"#utility.yul\":401:404   */\n      dup3\n        /* \"#utility.yul\":396:399   */\n      dup6\n        /* \"#utility.yul\":372:413   */\n      tag_145\n      jump\t// in\n    tag_144:\n        /* \"#utility.yul\":91:419   */\n      pop\n        /* \"#utility.yul\":7:419   */\n      swap4\n      swap3\n      pop\n      pop\n      pop\n      jump\t// out\n        /* \"#utility.yul\":425:564   */\n    tag_146:\n        /* \"#utility.yul\":471:476   */\n      0x00\n        /* \"#utility.yul\":509:515   */\n      dup2\n        /* \"#utility.yul\":496:516   */\n      calldataload\n        /* \"#utility.yul\":487:516   */\n      swap1\n      pop\n        /* \"#utility.yul\":525:558   */\n      tag_148\n        /* \"#utility.yul\":552:557   */\n      dup2\n        /* \"#utility.yul\":525:558   */\n      tag_149\n      jump\t// in\n    tag_148:\n        /* \"#utility.yul\":425:564   */\n      swap3\n      swap2\n      pop\n      pop\n      jump\t// out\n        /* \"#utility.yul\":584:924   */\n    tag_150:\n        /* \"#utility.yul\":640:645   */\n      0x00\n        /* \"#utility.yul\":689:692   */\n      dup3\n        /* \"#utility.yul\":682:686   */\n      0x1f\n        /* \"#utility.yul\":674:680   */\n      dup4\n        /* \"#utility.yul\":670:687   */\n      add\n        /* \"#utility.yul\":666:693   */\n      slt\n        /* \"#utility.yul\":656:778   */\n      tag_152\n      jumpi\n        /* \"#utility.yul\":697:776   */\n      tag_153\n      tag_154\n      jump\t// in\n    tag_153:\n        /* \"#utility.yul\":656:778   */\n    tag_152:\n        /* \"#utility.yul\":814:820   */\n      dup2\n        /* \"#utility.yul\":801:821   */\n      calldataload\n        /* \"#utility.yul\":839:918   */\n      tag_155\n        /* \"#utility.yul\":914:917   */\n      dup5\n        /* \"#utility.yul\":906:912   */\n      dup3\n        /* \"#utility.yul\":899:903   */\n      0x20\n        /* \"#utility.yul\":891:897   */\n      dup7\n        /* \"#utility.yul\":887:904   */\n      add\n        /* \"#utility.yul\":839:918   */\n      tag_135\n      jump\t// in\n    tag_155:\n        /* \"#utility.yul\":830:918   */\n      swap2\n      pop\n        /* \"#utility.yul\":646:924   */\n      pop\n        /* \"#utility.yul\":584:924   */\n      swap3\n      swap2\n      pop\n      pop\n      jump\t// out\n        /* \"#utility.yul\":930:1069   */\n    tag_156:\n        /* \"#utility.yul\":976:981   */\n      0x00\n        /* \"#utility.yul\":1014:1020   */\n      dup2\n        /* \"#utility.yul\":1001:1021   */\n      calldataload\n        /* \"#utility.yul\":992:1021   */\n      swap1\n      pop\n        /* \"#utility.yul\":1030:1063   */\n      tag_158\n        /* \"#utility.yul\":1057:1062   */\n      dup2\n        /* \"#utility.yul\":1030:1063   */\n      tag_159\n      jump\t// in\n    tag_158:\n        /* \"#utility.yul\":930:1069   */\n      swap3\n      swap2\n      pop\n      pop\n      jump\t// out\n        /* \"#utility.yul\":1075:1404   */\n    tag_27:\n        /* \"#utility.yul\":1134:1140   */\n      0x00\n        /* \"#utility.yul\":1183:1185   */\n      0x20\n        /* \"#utility.yul\":1171:1180   */\n      dup3\n        /* \"#utility.yul\":1162:1169   */\n      dup5\n        /* \"#utility.yul\":1158:1181   */\n      sub\n        /* \"#utility.yul\":1154:1186   */\n      slt\n        /* \"#utility.yul\":1151:1270   */\n      iszero\n      tag_161\n      jumpi\n        /* \"#utility.yul\":1189:1268   */\n      tag_162\n      tag_163\n      jump\t// in\n    tag_162:\n        /* \"#utility.yul\":1151:1270   */\n    tag_161:\n        /* \"#utility.yul\":1309:1310   */\n      0x00\n        /* \"#utility.yul\":1334:1387   */\n      tag_164\n        /* \"#utility.yul\":1379:1386   */\n      dup5\n        /* \"#utility.yul\":1370:1376   */\n      dup3\n        /* \"#utility.yul\":1359:1368   */\n      dup6\n        /* \"#utility.yul\":1355:1377   */\n      add\n        /* \"#utility.yul\":1334:1387   */\n      tag_146\n      jump\t// in\n    tag_164:\n        /* \"#utility.yul\":1324:1387   */\n      swap2\n      pop\n        /* \"#utility.yul\":1280:1397   */\n      pop\n        /* \"#utility.yul\":1075:1404   */\n      swap3\n      swap2\n      pop\n      pop\n      jump\t// out\n        /* \"#utility.yul\":1410:2064   */\n    tag_65:\n        /* \"#utility.yul\":1488:1494   */\n      0x00\n        /* \"#utility.yul\":1496:1502   */\n      dup1\n        /* \"#utility.yul\":1545:1547   */\n      0x40\n        /* \"#utility.yul\":1533:1542   */\n      dup4\n        /* \"#utility.yul\":1524:1531   */\n      dup6\n        /* \"#utility.yul\":1520:1543   */\n      sub\n        /* \"#utility.yul\":1516:1548   */\n      slt\n        /* \"#utility.yul\":1513:1632   */\n      iszero\n      tag_166\n      jumpi\n        /* \"#utility.yul\":1551:1630   */\n      tag_167\n      tag_163\n      jump\t// in\n    tag_167:\n        /* \"#utility.yul\":1513:1632   */\n    tag_166:\n        /* \"#utility.yul\":1671:1672   */\n      0x00\n        /* \"#utility.yul\":1696:1749   */\n      tag_168\n        /* \"#utility.yul\":1741:1748   */\n      dup6\n        /* \"#utility.yul\":1732:1738   */\n      dup3\n        /* \"#utility.yul\":1721:1730   */\n      dup7\n        /* \"#utility.yul\":1717:1739   */\n      add\n        /* \"#utility.yul\":1696:1749   */\n      tag_146\n      jump\t// in\n    tag_168:\n        /* \"#utility.yul\":1686:1749   */\n      swap3\n      pop\n        /* \"#utility.yul\":1642:1759   */\n      pop\n        /* \"#utility.yul\":1826:1828   */\n      0x20\n        /* \"#utility.yul\":1815:1824   */\n      dup4\n        /* \"#utility.yul\":1811:1829   */\n      add\n        /* \"#utility.yul\":1798:1830   */\n      calldataload\n        /* \"#utility.yul\":1857:1875   */\n      0xffffffffffffffff\n        /* \"#utility.yul\":1849:1855   */\n      dup2\n        /* \"#utility.yul\":1846:1876   */\n      gt\n        /* \"#utility.yul\":1843:1960   */\n      iszero\n      tag_169\n      jumpi\n        /* \"#utility.yul\":1879:1958   */\n      tag_170\n      tag_171\n      jump\t// in\n    tag_170:\n        /* \"#utility.yul\":1843:1960   */\n    tag_169:\n        /* \"#utility.yul\":1984:2047   */\n      tag_172\n        /* \"#utility.yul\":2039:2046   */\n      dup6\n        /* \"#utility.yul\":2030:2036   */\n      dup3\n        /* \"#utility.yul\":2019:2028   */\n      dup7\n        /* \"#utility.yul\":2015:2037   */\n      add\n        /* \"#utility.yul\":1984:2047   */\n      tag_150\n      jump\t// in\n    tag_172:\n        /* \"#utility.yul\":1974:2047   */\n      swap2\n      pop\n        /* \"#utility.yul\":1769:2057   */\n      pop\n        /* \"#utility.yul\":1410:2064   */\n      swap3\n      pop\n      swap3\n      swap1\n      pop\n      jump\t// out\n        /* \"#utility.yul\":2070:3049   */\n    tag_45:\n        /* \"#utility.yul\":2167:2173   */\n      0x00\n        /* \"#utility.yul\":2175:2181   */\n      dup1\n        /* \"#utility.yul\":2183:2189   */\n      0x00\n        /* \"#utility.yul\":2232:2234   */\n      0x60\n        /* \"#utility.yul\":2220:2229   */\n      dup5\n        /* \"#utility.yul\":2211:2218   */\n      dup7\n        /* \"#utility.yul\":2207:2230   */\n      sub\n        /* \"#utility.yul\":2203:2235   */\n      slt\n        /* \"#utility.yul\":2200:2319   */\n      iszero\n      tag_174\n      jumpi\n        /* \"#utility.yul\":2238:2317   */\n      tag_175\n      tag_163\n      jump\t// in\n    tag_175:\n        /* \"#utility.yul\":2200:2319   */\n    tag_174:\n        /* \"#utility.yul\":2358:2359   */\n      0x00\n        /* \"#utility.yul\":2383:2436   */\n      tag_176\n        /* \"#utility.yul\":2428:2435   */\n      dup7\n        /* \"#utility.yul\":2419:2425   */\n      dup3\n        /* \"#utility.yul\":2408:2417   */\n      dup8\n        /* \"#utility.yul\":2404:2426   */\n      add\n        /* \"#utility.yul\":2383:2436   */\n      tag_146\n      jump\t// in\n    tag_176:\n        /* \"#utility.yul\":2373:2436   */\n      swap4\n      pop\n        /* \"#utility.yul\":2329:2446   */\n      pop\n        /* \"#utility.yul\":2513:2515   */\n      0x20\n        /* \"#utility.yul\":2502:2511   */\n      dup5\n        /* \"#utility.yul\":2498:2516   */\n      add\n        /* \"#utility.yul\":2485:2517   */\n      calldataload\n        /* \"#utility.yul\":2544:2562   */\n      0xffffffffffffffff\n        /* \"#utility.yul\":2536:2542   */\n      dup2\n        /* \"#utility.yul\":2533:2563   */\n      gt\n        /* \"#utility.yul\":2530:2647   */\n      iszero\n      tag_177\n      jumpi\n        /* \"#utility.yul\":2566:2645   */\n      tag_178\n      tag_171\n      jump\t// in\n    tag_178:\n        /* \"#utility.yul\":2530:2647   */\n    tag_177:\n        /* \"#utility.yul\":2671:2734   */\n      tag_179\n        /* \"#utility.yul\":2726:2733   */\n      dup7\n        /* \"#utility.yul\":2717:2723   */\n      dup3\n        /* \"#utility.yul\":2706:2715   */\n      dup8\n        /* \"#utility.yul\":2702:2724   */\n      add\n        /* \"#utility.yul\":2671:2734   */\n      tag_150\n      jump\t// in\n    tag_179:\n        /* \"#utility.yul\":2661:2734   */\n      swap3\n      pop\n        /* \"#utility.yul\":2456:2744   */\n      pop\n        /* \"#utility.yul\":2811:2813   */\n      0x40\n        /* \"#utility.yul\":2800:2809   */\n      dup5\n        /* \"#utility.yul\":2796:2814   */\n      add\n        /* \"#utility.yul\":2783:2815   */\n      calldataload\n        /* \"#utility.yul\":2842:2860   */\n      0xffffffffffffffff\n        /* \"#utility.yul\":2834:2840   */\n      dup2\n        /* \"#utility.yul\":2831:2861   */\n      gt\n        /* \"#utility.yul\":2828:2945   */\n      iszero\n      tag_180\n      jumpi\n        /* \"#utility.yul\":2864:2943   */\n      tag_181\n      tag_171\n      jump\t// in\n    tag_181:\n        /* \"#utility.yul\":2828:2945   */\n    tag_180:\n        /* \"#utility.yul\":2969:3032   */\n      tag_182\n        /* \"#utility.yul\":3024:3031   */\n      dup7\n        /* \"#utility.yul\":3015:3021   */\n      dup3\n        /* \"#utility.yul\":3004:3013   */\n      dup8\n        /* \"#utility.yul\":3000:3022   */\n      add\n        /* \"#utility.yul\":2969:3032   */\n      tag_150\n      jump\t// in\n    tag_182:\n        /* \"#utility.yul\":2959:3032   */\n      swap2\n      pop\n        /* \"#utility.yul\":2754:3042   */\n      pop\n        /* \"#utility.yul\":2070:3049   */\n      swap3\n      pop\n      swap3\n      pop\n      swap3\n      jump\t// out\n        /* \"#utility.yul\":3055:3564   */\n    tag_36:\n        /* \"#utility.yul\":3124:3130   */\n      0x00\n        /* \"#utility.yul\":3173:3175   */\n      0x20\n        /* \"#utility.yul\":3161:3170   */\n      dup3\n        /* \"#utility.yul\":3152:3159   */\n      dup5\n        /* \"#utility.yul\":3148:3171   */\n      sub\n        /* \"#utility.yul\":3144:3176   */\n      slt\n        /* \"#utility.yul\":3141:3260   */\n      iszero\n      tag_184\n      jumpi\n        /* \"#utility.yul\":3179:3258   */\n      tag_185\n      tag_163\n      jump\t// in\n    tag_185:\n        /* \"#utility.yul\":3141:3260   */\n    tag_184:\n        /* \"#utility.yul\":3327:3328   */\n      0x00\n        /* \"#utility.yul\":3316:3325   */\n      dup3\n        /* \"#utility.yul\":3312:3329   */\n      add\n        /* \"#utility.yul\":3299:3330   */\n      calldataload\n        /* \"#utility.yul\":3357:3375   */\n      0xffffffffffffffff\n        /* \"#utility.yul\":3349:3355   */\n      dup2\n        /* \"#utility.yul\":3346:3376   */\n      gt\n        /* \"#utility.yul\":3343:3460   */\n      iszero\n      tag_186\n      jumpi\n        /* \"#utility.yul\":3379:3458   */\n      tag_187\n      tag_171\n      jump\t// in\n    tag_187:\n        /* \"#utility.yul\":3343:3460   */\n    tag_186:\n        /* \"#utility.yul\":3484:3547   */\n      tag_188\n        /* \"#utility.yul\":3539:3546   */\n      dup5\n        /* \"#utility.yul\":3530:3536   */\n      dup3\n        /* \"#utility.yul\":3519:3528   */\n      dup6\n        /* \"#utility.yul\":3515:3537   */\n      add\n        /* \"#utility.yul\":3484:3547   */\n      tag_150\n      jump\t// in\n    tag_188:\n        /* \"#utility.yul\":3474:3547   */\n      swap2\n      pop\n        /* \"#utility.yul\":3270:3557   */\n      pop\n        /* \"#utility.yul\":3055:3564   */\n      swap3\n      swap2\n      pop\n      pop\n      jump\t// out\n        /* \"#utility.yul\":3570:3899   */\n    tag_18:\n        /* \"#utility.yul\":3629:3635   */\n      0x00\n        /* \"#utility.yul\":3678:3680   */\n      0x20\n        /* \"#utility.yul\":3666:3675   */\n      dup3\n        /* \"#utility.yul\":3657:3664   */\n      dup5\n        /* \"#utility.yul\":3653:3676   */\n      sub\n        /* \"#utility.yul\":3649:3681   */\n      slt\n        /* \"#utility.yul\":3646:3765   */\n      iszero\n      tag_190\n      jumpi\n        /* \"#utility.yul\":3684:3763   */\n      tag_191\n      tag_163\n      jump\t// in\n    tag_191:\n        /* \"#utility.yul\":3646:3765   */\n    tag_190:\n        /* \"#utility.yul\":3804:3805   */\n      0x00\n        /* \"#utility.yul\":3829:3882   */\n      tag_192\n        /* \"#utility.yul\":3874:3881   */\n      dup5\n        /* \"#utility.yul\":3865:3871   */\n      dup3\n        /* \"#utility.yul\":3854:3863   */\n      dup6\n        /* \"#utility.yul\":3850:3872   */\n      add\n        /* \"#utility.yul\":3829:3882   */\n      tag_156\n      jump\t// in\n    tag_192:\n        /* \"#utility.yul\":3819:3882   */\n      swap2\n      pop\n        /* \"#utility.yul\":3775:3892   */\n      pop\n        /* \"#utility.yul\":3570:3899   */\n      swap3\n      swap2\n      pop\n      pop\n      jump\t// out\n        /* \"#utility.yul\":3905:4023   */\n    tag_193:\n        /* \"#utility.yul\":3992:4016   */\n      tag_195\n        /* \"#utility.yul\":4010:4015   */\n      dup2\n        /* \"#utility.yul\":3992:4016   */\n      tag_196\n      jump\t// in\n    tag_195:\n        /* \"#utility.yul\":3987:3990   */\n      dup3\n        /* \"#utility.yul\":3980:4017   */\n      mstore\n        /* \"#utility.yul\":3905:4023   */\n      pop\n      pop\n      jump\t// out\n        /* \"#utility.yul\":4029:4138   */\n    tag_197:\n        /* \"#utility.yul\":4110:4131   */\n      tag_199\n        /* \"#utility.yul\":4125:4130   */\n      dup2\n        /* \"#utility.yul\":4110:4131   */\n      tag_200\n      jump\t// in\n    tag_199:\n        /* \"#utility.yul\":4105:4108   */\n      dup3\n        /* \"#utility.yul\":4098:4132   */\n      mstore\n        /* \"#utility.yul\":4029:4138   */\n      pop\n      pop\n      jump\t// out\n        /* \"#utility.yul\":4144:4287   */\n    tag_201:\n        /* \"#utility.yul\":4237:4280   */\n      tag_203\n        /* \"#utility.yul\":4274:4279   */\n      dup2\n        /* \"#utility.yul\":4237:4280   */\n      tag_204\n      jump\t// in\n    tag_203:\n        /* \"#utility.yul\":4232:4235   */\n      dup3\n        /* \"#utility.yul\":4225:4281   */\n      mstore\n        /* \"#utility.yul\":4144:4287   */\n      pop\n      pop\n      jump\t// out\n        /* \"#utility.yul\":4293:4657   */\n    tag_205:\n        /* \"#utility.yul\":4381:4384   */\n      0x00\n        /* \"#utility.yul\":4409:4448   */\n      tag_207\n        /* \"#utility.yul\":4442:4447   */\n      dup3\n        /* \"#utility.yul\":4409:4448   */\n      tag_208\n      jump\t// in\n    tag_207:\n        /* \"#utility.yul\":4464:4535   */\n      tag_209\n        /* \"#utility.yul\":4528:4534   */\n      dup2\n        /* \"#utility.yul\":4523:4526   */\n      dup6\n        /* \"#utility.yul\":4464:4535   */\n      tag_210\n      jump\t// in\n    tag_209:\n        /* \"#utility.yul\":4457:4535   */\n      swap4\n      pop\n        /* \"#utility.yul\":4544:4596   */\n      tag_211\n        /* \"#utility.yul\":4589:4595   */\n      dup2\n        /* \"#utility.yul\":4584:4587   */\n      dup6\n        /* \"#utility.yul\":4577:4581   */\n      0x20\n        /* \"#utility.yul\":4570:4575   */\n      dup7\n        /* \"#utility.yul\":4566:4582   */\n      add\n        /* \"#utility.yul\":4544:4596   */\n      tag_212\n      jump\t// in\n    tag_211:\n        /* \"#utility.yul\":4621:4650   */\n      tag_213\n        /* \"#utility.yul\":4643:4649   */\n      dup2\n        /* \"#utility.yul\":4621:4650   */\n      tag_214\n      jump\t// in\n    tag_213:\n        /* \"#utility.yul\":4616:4619   */\n      dup5\n        /* \"#utility.yul\":4612:4651   */\n      add\n        /* \"#utility.yul\":4605:4651   */\n      swap2\n      pop\n        /* \"#utility.yul\":4385:4657   */\n      pop\n        /* \"#utility.yul\":4293:4657   */\n      swap3\n      swap2\n      pop\n      pop\n      jump\t// out\n        /* \"#utility.yul\":4663:4781   */\n    tag_215:\n        /* \"#utility.yul\":4750:4774   */\n      tag_217\n        /* \"#utility.yul\":4768:4773   */\n      dup2\n        /* \"#utility.yul\":4750:4774   */\n      tag_218\n      jump\t// in\n    tag_217:\n        /* \"#utility.yul\":4745:4748   */\n      dup3\n        /* \"#utility.yul\":4738:4775   */\n      mstore\n        /* \"#utility.yul\":4663:4781   */\n      pop\n      pop\n      jump\t// out\n        /* \"#utility.yul\":4787:5009   */\n    tag_58:\n        /* \"#utility.yul\":4880:4884   */\n      0x00\n        /* \"#utility.yul\":4918:4920   */\n      0x20\n        /* \"#utility.yul\":4907:4916   */\n      dup3\n        /* \"#utility.yul\":4903:4921   */\n      add\n        /* \"#utility.yul\":4895:4921   */\n      swap1\n      pop\n        /* \"#utility.yul\":4931:5002   */\n      tag_220\n        /* \"#utility.yul\":4999:5000   */\n      0x00\n        /* \"#utility.yul\":4988:4997   */\n      dup4\n        /* \"#utility.yul\":4984:5001   */\n      add\n        /* \"#utility.yul\":4975:4981   */\n      dup5\n        /* \"#utility.yul\":4931:5002   */\n      tag_193\n      jump\t// in\n    tag_220:\n        /* \"#utility.yul\":4787:5009   */\n      swap3\n      swap2\n      pop\n      pop\n      jump\t// out\n        /* \"#utility.yul\":5015:5249   */\n    tag_62:\n        /* \"#utility.yul\":5114:5118   */\n      0x00\n        /* \"#utility.yul\":5152:5154   */\n      0x20\n        /* \"#utility.yul\":5141:5150   */\n      dup3\n        /* \"#utility.yul\":5137:5155   */\n      add\n        /* \"#utility.yul\":5129:5155   */\n      swap1\n      pop\n        /* \"#utility.yul\":5165:5242   */\n      tag_222\n        /* \"#utility.yul\":5239:5240   */\n      0x00\n        /* \"#utility.yul\":5228:5237   */\n      dup4\n        /* \"#utility.yul\":5224:5241   */\n      add\n        /* \"#utility.yul\":5215:5221   */\n      dup5\n        /* \"#utility.yul\":5165:5242   */\n      tag_201\n      jump\t// in\n    tag_222:\n        /* \"#utility.yul\":5015:5249   */\n      swap3\n      swap2\n      pop\n      pop\n      jump\t// out\n        /* \"#utility.yul\":5255:5568   */\n    tag_54:\n        /* \"#utility.yul\":5368:5372   */\n      0x00\n        /* \"#utility.yul\":5406:5408   */\n      0x20\n        /* \"#utility.yul\":5395:5404   */\n      dup3\n        /* \"#utility.yul\":5391:5409   */\n      add\n        /* \"#utility.yul\":5383:5409   */\n      swap1\n      pop\n        /* \"#utility.yul\":5455:5464   */\n      dup2\n        /* \"#utility.yul\":5449:5453   */\n      dup2\n        /* \"#utility.yul\":5445:5465   */\n      sub\n        /* \"#utility.yul\":5441:5442   */\n      0x00\n        /* \"#utility.yul\":5430:5439   */\n      dup4\n        /* \"#utility.yul\":5426:5443   */\n      add\n        /* \"#utility.yul\":5419:5466   */\n      mstore\n        /* \"#utility.yul\":5483:5561   */\n      tag_224\n        /* \"#utility.yul\":5556:5560   */\n      dup2\n        /* \"#utility.yul\":5547:5553   */\n      dup5\n        /* \"#utility.yul\":5483:5561   */\n      tag_205\n      jump\t// in\n    tag_224:\n        /* \"#utility.yul\":5475:5561   */\n      swap1\n      pop\n        /* \"#utility.yul\":5255:5568   */\n      swap3\n      swap2\n      pop\n      pop\n      jump\t// out\n        /* \"#utility.yul\":5574:6309   */\n    tag_39:\n        /* \"#utility.yul\":5791:5795   */\n      0x00\n        /* \"#utility.yul\":5829:5832   */\n      0x80\n        /* \"#utility.yul\":5818:5827   */\n      dup3\n        /* \"#utility.yul\":5814:5833   */\n      add\n        /* \"#utility.yul\":5806:5833   */\n      swap1\n      pop\n        /* \"#utility.yul\":5879:5888   */\n      dup2\n        /* \"#utility.yul\":5873:5877   */\n      dup2\n        /* \"#utility.yul\":5869:5889   */\n      sub\n        /* \"#utility.yul\":5865:5866   */\n      0x00\n        /* \"#utility.yul\":5854:5863   */\n      dup4\n        /* \"#utility.yul\":5850:5867   */\n      add\n        /* \"#utility.yul\":5843:5890   */\n      mstore\n        /* \"#utility.yul\":5907:5985   */\n      tag_226\n        /* \"#utility.yul\":5980:5984   */\n      dup2\n        /* \"#utility.yul\":5971:5977   */\n      dup8\n        /* \"#utility.yul\":5907:5985   */\n      tag_205\n      jump\t// in\n    tag_226:\n        /* \"#utility.yul\":5899:5985   */\n      swap1\n      pop\n        /* \"#utility.yul\":5995:6067   */\n      tag_227\n        /* \"#utility.yul\":6063:6065   */\n      0x20\n        /* \"#utility.yul\":6052:6061   */\n      dup4\n        /* \"#utility.yul\":6048:6066   */\n      add\n        /* \"#utility.yul\":6039:6045   */\n      dup7\n        /* \"#utility.yul\":5995:6067   */\n      tag_193\n      jump\t// in\n    tag_227:\n        /* \"#utility.yul\":6077:6149   */\n      tag_228\n        /* \"#utility.yul\":6145:6147   */\n      0x40\n        /* \"#utility.yul\":6134:6143   */\n      dup4\n        /* \"#utility.yul\":6130:6148   */\n      add\n        /* \"#utility.yul\":6121:6127   */\n      dup6\n        /* \"#utility.yul\":6077:6149   */\n      tag_215\n      jump\t// in\n    tag_228:\n        /* \"#utility.yul\":6196:6205   */\n      dup2\n        /* \"#utility.yul\":6190:6194   */\n      dup2\n        /* \"#utility.yul\":6186:6206   */\n      sub\n        /* \"#utility.yul\":6181:6183   */\n      0x60\n        /* \"#utility.yul\":6170:6179   */\n      dup4\n        /* \"#utility.yul\":6166:6184   */\n      add\n        /* \"#utility.yul\":6159:6207   */\n      mstore\n        /* \"#utility.yul\":6224:6302   */\n      tag_229\n        /* \"#utility.yul\":6297:6301   */\n      dup2\n        /* \"#utility.yul\":6288:6294   */\n      dup5\n        /* \"#utility.yul\":6224:6302   */\n      tag_205\n      jump\t// in\n    tag_229:\n        /* \"#utility.yul\":6216:6302   */\n      swap1\n      pop\n        /* \"#utility.yul\":5574:6309   */\n      swap6\n      swap5\n      pop\n      pop\n      pop\n      pop\n      pop\n      jump\t// out\n        /* \"#utility.yul\":6315:6726   */\n    tag_30:\n        /* \"#utility.yul\":6450:6454   */\n      0x00\n        /* \"#utility.yul\":6488:6490   */\n      0x40\n        /* \"#utility.yul\":6477:6486   */\n      dup3\n        /* \"#utility.yul\":6473:6491   */\n      add\n        /* \"#utility.yul\":6465:6491   */\n      swap1\n      pop\n        /* \"#utility.yul\":6537:6546   */\n      dup2\n        /* \"#utility.yul\":6531:6535   */\n      dup2\n        /* \"#utility.yul\":6527:6547   */\n      sub\n        /* \"#utility.yul\":6523:6524   */\n      0x00\n        /* \"#utility.yul\":6512:6521   */\n      dup4\n        /* \"#utility.yul\":6508:6525   */\n      add\n        /* \"#utility.yul\":6501:6548   */\n      mstore\n        /* \"#utility.yul\":6565:6643   */\n      tag_231\n        /* \"#utility.yul\":6638:6642   */\n      dup2\n        /* \"#utility.yul\":6629:6635   */\n      dup6\n        /* \"#utility.yul\":6565:6643   */\n      tag_205\n      jump\t// in\n    tag_231:\n        /* \"#utility.yul\":6557:6643   */\n      swap1\n      pop\n        /* \"#utility.yul\":6653:6719   */\n      tag_232\n        /* \"#utility.yul\":6715:6717   */\n      0x20\n        /* \"#utility.yul\":6704:6713   */\n      dup4\n        /* \"#utility.yul\":6700:6718   */\n      add\n        /* \"#utility.yul\":6691:6697   */\n      dup5\n        /* \"#utility.yul\":6653:6719   */\n      tag_197\n      jump\t// in\n    tag_232:\n        /* \"#utility.yul\":6315:6726   */\n      swap4\n      swap3\n      pop\n      pop\n      pop\n      jump\t// out\n        /* \"#utility.yul\":6732:6954   */\n    tag_21:\n        /* \"#utility.yul\":6825:6829   */\n      0x00\n        /* \"#utility.yul\":6863:6865   */\n      0x20\n        /* \"#utility.yul\":6852:6861   */\n      dup3\n        /* \"#utility.yul\":6848:6866   */\n      add\n        /* \"#utility.yul\":6840:6866   */\n      swap1\n      pop\n        /* \"#utility.yul\":6876:6947   */\n      tag_234\n        /* \"#utility.yul\":6944:6945   */\n      0x00\n        /* \"#utility.yul\":6933:6942   */\n      dup4\n        /* \"#utility.yul\":6929:6946   */\n      add\n        /* \"#utility.yul\":6920:6926   */\n      dup5\n        /* \"#utility.yul\":6876:6947   */\n      tag_215\n      jump\t// in\n    tag_234:\n        /* \"#utility.yul\":6732:6954   */\n      swap3\n      swap2\n      pop\n      pop\n      jump\t// out\n        /* \"#utility.yul\":6960:7089   */\n    tag_140:\n        /* \"#utility.yul\":6994:7000   */\n      0x00\n        /* \"#utility.yul\":7021:7041   */\n      tag_236\n      tag_237\n      jump\t// in\n    tag_236:\n        /* \"#utility.yul\":7011:7041   */\n      swap1\n      pop\n        /* \"#utility.yul\":7050:7083   */\n      tag_238\n        /* \"#utility.yul\":7078:7082   */\n      dup3\n        /* \"#utility.yul\":7070:7076   */\n      dup3\n        /* \"#utility.yul\":7050:7083   */\n      tag_239\n      jump\t// in\n    tag_238:\n        /* \"#utility.yul\":6960:7089   */\n      swap2\n      swap1\n      pop\n      jump\t// out\n        /* \"#utility.yul\":7095:7170   */\n    tag_237:\n        /* \"#utility.yul\":7128:7134   */\n      0x00\n        /* \"#utility.yul\":7161:7163   */\n      0x40\n        /* \"#utility.yul\":7155:7164   */\n      mload\n        /* \"#utility.yul\":7145:7164   */\n      swap1\n      pop\n        /* \"#utility.yul\":7095:7170   */\n      swap1\n      jump\t// out\n        /* \"#utility.yul\":7176:7484   */\n    tag_139:\n        /* \"#utility.yul\":7238:7242   */\n      0x00\n        /* \"#utility.yul\":7328:7346   */\n      0xffffffffffffffff\n        /* \"#utility.yul\":7320:7326   */\n      dup3\n        /* \"#utility.yul\":7317:7347   */\n      gt\n        /* \"#utility.yul\":7314:7370   */\n      iszero\n      tag_242\n      jumpi\n        /* \"#utility.yul\":7350:7368   */\n      tag_243\n      tag_244\n      jump\t// in\n    tag_243:\n        /* \"#utility.yul\":7314:7370   */\n    tag_242:\n        /* \"#utility.yul\":7388:7417   */\n      tag_245\n        /* \"#utility.yul\":7410:7416   */\n      dup3\n        /* \"#utility.yul\":7388:7417   */\n      tag_214\n      jump\t// in\n    tag_245:\n        /* \"#utility.yul\":7380:7417   */\n      swap1\n      pop\n        /* \"#utility.yul\":7472:7476   */\n      0x20\n        /* \"#utility.yul\":7466:7470   */\n      dup2\n        /* \"#utility.yul\":7462:7477   */\n      add\n        /* \"#utility.yul\":7454:7477   */\n      swap1\n      pop\n        /* \"#utility.yul\":7176:7484   */\n      swap2\n      swap1\n      pop\n      jump\t// out\n        /* \"#utility.yul\":7490:7589   */\n    tag_208:\n        /* \"#utility.yul\":7542:7548   */\n      0x00\n        /* \"#utility.yul\":7576:7581   */\n      dup2\n        /* \"#utility.yul\":7570:7582   */\n      mload\n        /* \"#utility.yul\":7560:7582   */\n      swap1\n      pop\n        /* \"#utility.yul\":7490:7589   */\n      swap2\n      swap1\n      pop\n      jump\t// out\n        /* \"#utility.yul\":7595:7764   */\n    tag_210:\n        /* \"#utility.yul\":7679:7690   */\n      0x00\n        /* \"#utility.yul\":7713:7719   */\n      dup3\n        /* \"#utility.yul\":7708:7711   */\n      dup3\n        /* \"#utility.yul\":7701:7720   */\n      mstore\n        /* \"#utility.yul\":7753:7757   */\n      0x20\n        /* \"#utility.yul\":7748:7751   */\n      dup3\n        /* \"#utility.yul\":7744:7758   */\n      add\n        /* \"#utility.yul\":7729:7758   */\n      swap1\n      pop\n        /* \"#utility.yul\":7595:7764   */\n      swap3\n      swap2\n      pop\n      pop\n      jump\t// out\n        /* \"#utility.yul\":7770:8075   */\n    tag_99:\n        /* \"#utility.yul\":7810:7813   */\n      0x00\n        /* \"#utility.yul\":7829:7849   */\n      tag_249\n        /* \"#utility.yul\":7847:7848   */\n      dup3\n        /* \"#utility.yul\":7829:7849   */\n      tag_218\n      jump\t// in\n    tag_249:\n        /* \"#utility.yul\":7824:7849   */\n      swap2\n      pop\n        /* \"#utility.yul\":7863:7883   */\n      tag_250\n        /* \"#utility.yul\":7881:7882   */\n      dup4\n        /* \"#utility.yul\":7863:7883   */\n      tag_218\n      jump\t// in\n    tag_250:\n        /* \"#utility.yul\":7858:7883   */\n      swap3\n      pop\n        /* \"#utility.yul\":8017:8018   */\n      dup3\n        /* \"#utility.yul\":7949:8015   */\n      0xffffffffffffffffffffffffffffffffffffffffffffffffffffffffffffffff\n        /* \"#utility.yul\":7945:8019   */\n      sub\n        /* \"#utility.yul\":7942:7943   */\n      dup3\n        /* \"#utility.yul\":7939:8020   */\n      gt\n        /* \"#utility.yul\":7936:8043   */\n      iszero\n      tag_251\n      jumpi\n        /* \"#utility.yul\":8023:8041   */\n      tag_252\n      tag_253\n      jump\t// in\n    tag_252:\n        /* \"#utility.yul\":7936:8043   */\n    tag_251:\n        /* \"#utility.yul\":8067:8068   */\n      dup3\n        /* \"#utility.yul\":8064:8065   */\n      dup3\n        /* \"#utility.yul\":8060:8069   */\n      add\n        /* \"#utility.yul\":8053:8069   */\n      swap1\n      pop\n        /* \"#utility.yul\":7770:8075   */\n      swap3\n      swap2\n      pop\n      pop\n      jump\t// out\n        /* \"#utility.yul\":8081:8177   */\n    tag_196:\n        /* \"#utility.yul\":8118:8125   */\n      0x00\n        /* \"#utility.yul\":8147:8171   */\n      tag_255\n        /* \"#utility.yul\":8165:8170   */\n      dup3\n        /* \"#utility.yul\":8147:8171   */\n      tag_256\n      jump\t// in\n    tag_255:\n        /* \"#utility.yul\":8136:8171   */\n      swap1\n      pop\n        /* \"#utility.yul\":8081:8177   */\n      swap2\n      swap1\n      pop\n      jump\t// out\n        /* \"#utility.yul\":8183:8273   */\n    tag_200:\n        /* \"#utility.yul\":8217:8224   */\n      0x00\n        /* \"#utility.yul\":8260:8265   */\n      dup2\n        /* \"#utility.yul\":8253:8266   */\n      iszero\n        /* \"#utility.yul\":8246:8267   */\n      iszero\n        /* \"#utility.yul\":8235:8267   */\n      swap1\n      pop\n        /* \"#utility.yul\":8183:8273   */\n      swap2\n      swap1\n      pop\n      jump\t// out\n        /* \"#utility.yul\":8279:8406   */\n    tag_258:\n        /* \"#utility.yul\":8324:8331   */\n      0x00\n        /* \"#utility.yul\":8353:8358   */\n      dup2\n        /* \"#utility.yul\":8342:8358   */\n      swap1\n      pop\n        /* \"#utility.yul\":8359:8400   */\n      tag_260\n        /* \"#utility.yul\":8394:8399   */\n      dup3\n        /* \"#utility.yul\":8359:8400   */\n      tag_261\n      jump\t// in\n    tag_260:\n        /* \"#utility.yul\":8279:8406   */\n      swap2\n      swap1\n      pop\n      jump\t// out\n        /* \"#utility.yul\":8412:8538   */\n    tag_256:\n        /* \"#utility.yul\":8449:8456   */\n      0x00\n        /* \"#utility.yul\":8489:8531   */\n      0xffffffffffffffffffffffffffffffffffffffff\n        /* \"#utility.yul\":8482:8487   */\n      dup3\n        /* \"#utility.yul\":8478:8532   */\n      and\n        /* \"#utility.yul\":8467:8532   */\n      swap1\n      pop\n        /* \"#utility.yul\":8412:8538   */\n      swap2\n      swap1\n      pop\n      jump\t// out\n        /* \"#utility.yul\":8544:8621   */\n    tag_218:\n        /* \"#utility.yul\":8581:8588   */\n      0x00\n        /* \"#utility.yul\":8610:8615   */\n      dup2\n        /* \"#utility.yul\":8599:8615   */\n      swap1\n      pop\n        /* \"#utility.yul\":8544:8621   */\n      swap2\n      swap1\n      pop\n      jump\t// out\n        /* \"#utility.yul\":8627:8754   */\n    tag_204:\n        /* \"#utility.yul\":8683:8692   */\n      0x00\n        /* \"#utility.yul\":8716:8748   */\n      tag_265\n        /* \"#utility.yul\":8742:8747   */\n      dup3\n        /* \"#utility.yul\":8716:8748   */\n      tag_258\n      jump\t// in\n    tag_265:\n        /* \"#utility.yul\":8703:8748   */\n      swap1\n      pop\n        /* \"#utility.yul\":8627:8754   */\n      swap2\n      swap1\n      pop\n      jump\t// out\n        /* \"#utility.yul\":8760:8914   */\n    tag_145:\n        /* \"#utility.yul\":8844:8850   */\n      dup3\n        /* \"#utility.yul\":8839:8842   */\n      dup2\n        /* \"#utility.yul\":8834:8837   */\n      dup4\n        /* \"#utility.yul\":8821:8851   */\n      calldatacopy\n        /* \"#utility.yul\":8906:8907   */\n      0x00\n        /* \"#utility.yul\":8897:8903   */\n      dup4\n        /* \"#utility.yul\":8892:8895   */\n      dup4\n        /* \"#utility.yul\":8888:8904   */\n      add\n        /* \"#utility.yul\":8881:8908   */\n      mstore\n        /* \"#utility.yul\":8760:8914   */\n      pop\n      pop\n      pop\n      jump\t// out\n        /* \"#utility.yul\":8920:9227   */\n    tag_212:\n        /* \"#utility.yul\":8988:8989   */\n      0x00\n        /* \"#utility.yul\":8998:9111   */\n    tag_268:\n        /* \"#utility.yul\":9012:9018   */\n      dup4\n        /* \"#utility.yul\":9009:9010   */\n      dup2\n        /* \"#utility.yul\":9006:9019   */\n      lt\n        /* \"#utility.yul\":8998:9111   */\n      iszero\n      tag_270\n      jumpi\n        /* \"#utility.yul\":9097:9098   */\n      dup1\n        /* \"#utility.yul\":9092:9095   */\n      dup3\n        /* \"#utility.yul\":9088:9099   */\n      add\n        /* \"#utility.yul\":9082:9100   */\n      mload\n        /* \"#utility.yul\":9078:9079   */\n      dup2\n        /* \"#utility.yul\":9073:9076   */\n      dup5\n        /* \"#utility.yul\":9069:9080   */\n      add\n        /* \"#utility.yul\":9062:9101   */\n      mstore\n        /* \"#utility.yul\":9034:9036   */\n      0x20\n        /* \"#utility.yul\":9031:9032   */\n      dup2\n        /* \"#utility.yul\":9027:9037   */\n      add\n        /* \"#utility.yul\":9022:9037   */\n      swap1\n      pop\n        /* \"#utility.yul\":8998:9111   */\n      jump(tag_268)\n    tag_270:\n        /* \"#utility.yul\":9129:9135   */\n      dup4\n        /* \"#utility.yul\":9126:9127   */\n      dup2\n        /* \"#utility.yul\":9123:9136   */\n      gt\n        /* \"#utility.yul\":9120:9221   */\n      iszero\n      tag_271\n      jumpi\n        /* \"#utility.yul\":9209:9210   */\n      0x00\n        /* \"#utility.yul\":9200:9206   */\n      dup5\n        /* \"#utility.yul\":9195:9198   */\n      dup5\n        /* \"#utility.yul\":9191:9207   */\n      add\n        /* \"#utility.yul\":9184:9211   */\n      mstore\n        /* \"#utility.yul\":9120:9221   */\n    tag_271:\n        /* \"#utility.yul\":8969:9227   */\n      pop\n        /* \"#utility.yul\":8920:9227   */\n      pop\n      pop\n      pop\n      jump\t// out\n        /* \"#utility.yul\":9233:9553   */\n    tag_68:\n        /* \"#utility.yul\":9277:9283   */\n      0x00\n        /* \"#utility.yul\":9314:9315   */\n      0x02\n        /* \"#utility.yul\":9308:9312   */\n      dup3\n        /* \"#utility.yul\":9304:9316   */\n      div\n        /* \"#utility.yul\":9294:9316   */\n      swap1\n      pop\n        /* \"#utility.yul\":9361:9362   */\n      0x01\n        /* \"#utility.yul\":9355:9359   */\n      dup3\n        /* \"#utility.yul\":9351:9363   */\n      and\n        /* \"#utility.yul\":9382:9400   */\n      dup1\n        /* \"#utility.yul\":9372:9453   */\n      tag_273\n      jumpi\n        /* \"#utility.yul\":9438:9442   */\n      0x7f\n        /* \"#utility.yul\":9430:9436   */\n      dup3\n        /* \"#utility.yul\":9426:9443   */\n      and\n        /* \"#utility.yul\":9416:9443   */\n      swap2\n      pop\n        /* \"#utility.yul\":9372:9453   */\n    tag_273:\n        /* \"#utility.yul\":9500:9502   */\n      0x20\n        /* \"#utility.yul\":9492:9498   */\n      dup3\n        /* \"#utility.yul\":9489:9503   */\n      lt\n        /* \"#utility.yul\":9469:9487   */\n      dup2\n        /* \"#utility.yul\":9466:9504   */\n      eq\n        /* \"#utility.yul\":9463:9547   */\n      iszero\n      tag_274\n      jumpi\n        /* \"#utility.yul\":9519:9537   */\n      tag_275\n      tag_276\n      jump\t// in\n    tag_275:\n        /* \"#utility.yul\":9463:9547   */\n    tag_274:\n        /* \"#utility.yul\":9284:9553   */\n      pop\n        /* \"#utility.yul\":9233:9553   */\n      swap2\n      swap1\n      pop\n      jump\t// out\n        /* \"#utility.yul\":9559:9840   */\n    tag_239:\n        /* \"#utility.yul\":9642:9669   */\n      tag_278\n        /* \"#utility.yul\":9664:9668   */\n      dup3\n        /* \"#utility.yul\":9642:9669   */\n      tag_214\n      jump\t// in\n    tag_278:\n        /* \"#utility.yul\":9634:9640   */\n      dup2\n        /* \"#utility.yul\":9630:9670   */\n      add\n        /* \"#utility.yul\":9772:9778   */\n      dup2\n        /* \"#utility.yul\":9760:9770   */\n      dup2\n        /* \"#utility.yul\":9757:9779   */\n      lt\n        /* \"#utility.yul\":9736:9754   */\n      0xffffffffffffffff\n        /* \"#utility.yul\":9724:9734   */\n      dup3\n        /* \"#utility.yul\":9721:9755   */\n      gt\n        /* \"#utility.yul\":9718:9780   */\n      or\n        /* \"#utility.yul\":9715:9803   */\n      iszero\n      tag_279\n      jumpi\n        /* \"#utility.yul\":9783:9801   */\n      tag_280\n      tag_244\n      jump\t// in\n    tag_280:\n        /* \"#utility.yul\":9715:9803   */\n    tag_279:\n        /* \"#utility.yul\":9823:9833   */\n      dup1\n        /* \"#utility.yul\":9819:9821   */\n      0x40\n        /* \"#utility.yul\":9812:9834   */\n      mstore\n        /* \"#utility.yul\":9602:9840   */\n      pop\n        /* \"#utility.yul\":9559:9840   */\n      pop\n      pop\n      jump\t// out\n        /* \"#utility.yul\":9846:10026   */\n    tag_253:\n        /* \"#utility.yul\":9894:9971   */\n      0x4e487b7100000000000000000000000000000000000000000000000000000000\n        /* \"#utility.yul\":9891:9892   */\n      0x00\n        /* \"#utility.yul\":9884:9972   */\n      mstore\n        /* \"#utility.yul\":9991:9995   */\n      0x11\n        /* \"#utility.yul\":9988:9989   */\n      0x04\n        /* \"#utility.yul\":9981:9996   */\n      mstore\n        /* \"#utility.yul\":10015:10019   */\n      0x24\n        /* \"#utility.yul\":10012:10013   */\n      0x00\n        /* \"#utility.yul\":10005:10020   */\n      revert\n        /* \"#utility.yul\":10032:10212   */\n    tag_86:\n        /* \"#utility.yul\":10080:10157   */\n      0x4e487b7100000000000000000000000000000000000000000000000000000000\n        /* \"#utility.yul\":10077:10078   */\n      0x00\n        /* \"#utility.yul\":10070:10158   */\n      mstore\n        /* \"#utility.yul\":10177:10181   */\n      0x21\n        /* \"#utility.yul\":10174:10175   */\n      0x04\n        /* \"#utility.yul\":10167:10182   */\n      mstore\n        /* \"#utility.yul\":10201:10205   */\n      0x24\n        /* \"#utility.yul\":10198:10199   */\n      0x00\n        /* \"#utility.yul\":10191:10206   */\n      revert\n        /* \"#utility.yul\":10218:10398   */\n    tag_276:\n        /* \"#utility.yul\":10266:10343   */\n      0x4e487b7100000000000000000000000000000000000000000000000000000000\n        /* \"#utility.yul\":10263:10264   */\n      0x00\n        /* \"#utility.yul\":10256:10344   */\n      mstore\n        /* \"#utility.yul\":10363:10367   */\n      0x22\n        /* \"#utility.yul\":10360:10361   */\n      0x04\n        /* \"#utility.yul\":10353:10368   */\n      mstore\n        /* \"#utility.yul\":10387:10391   */\n      0x24\n        /* \"#utility.yul\":10384:10385   */\n      0x00\n        /* \"#utility.yul\":10377:10392   */\n      revert\n        /* \"#utility.yul\":10404:10584   */\n    tag_244:\n        /* \"#utility.yul\":10452:10529   */\n      0x4e487b7100000000000000000000000000000000000000000000000000000000\n        /* \"#utility.yul\":10449:10450   */\n      0x00\n        /* \"#utility.yul\":10442:10530   */\n      mstore\n        /* \"#utility.yul\":10549:10553   */\n      0x41\n        /* \"#utility.yul\":10546:10547   */\n      0x04\n        /* \"#utility.yul\":10539:10554   */\n      mstore\n        /* \"#utility.yul\":10573:10577   */\n      0x24\n        /* \"#utility.yul\":10570:10571   */\n      0x00\n        /* \"#utility.yul\":10563:10578   */\n      revert\n        /* \"#utility.yul\":10590:10707   */\n    tag_154:\n        /* \"#utility.yul\":10699:10700   */\n      0x00\n        /* \"#utility.yul\":10696:10697   */\n      dup1\n        /* \"#utility.yul\":10689:10701   */\n      revert\n        /* \"#utility.yul\":10713:10830   */\n    tag_143:\n        /* \"#utility.yul\":10822:10823   */\n      0x00\n        /* \"#utility.yul\":10819:10820   */\n      dup1\n        /* \"#utility.yul\":10812:10824   */\n      revert\n        /* \"#utility.yul\":10836:10953   */\n    tag_171:\n        /* \"#utility.yul\":10945:10946   */\n      0x00\n        /* \"#utility.yul\":10942:10943   */\n      dup1\n        /* \"#utility.yul\":10935:10947   */\n      revert\n        /* \"#utility.yul\":10959:11076   */\n    tag_163:\n        /* \"#utility.yul\":11068:11069   */\n      0x00\n        /* \"#utility.yul\":11065:11066   */\n      dup1\n        /* \"#utility.yul\":11058:11070   */\n      revert\n        /* \"#utility.yul\":11082:11184   */\n    tag_214:\n        /* \"#utility.yul\":11123:11129   */\n      0x00\n        /* \"#utility.yul\":11174:11176   */\n      0x1f\n        /* \"#utility.yul\":11170:11177   */\n      not\n        /* \"#utility.yul\":11165:11167   */\n      0x1f\n        /* \"#utility.yul\":11158:11163   */\n      dup4\n        /* \"#utility.yul\":11154:11168   */\n      add\n        /* \"#utility.yul\":11150:11178   */\n      and\n        /* \"#utility.yul\":11140:11178   */\n      swap1\n      pop\n        /* \"#utility.yul\":11082:11184   */\n      swap2\n      swap1\n      pop\n      jump\t// out\n        /* \"#utility.yul\":11190:11303   */\n    tag_261:\n        /* \"#utility.yul\":11271:11272   */\n      0x03\n        /* \"#utility.yul\":11264:11269   */\n      dup2\n        /* \"#utility.yul\":11261:11273   */\n      lt\n        /* \"#utility.yul\":11251:11297   */\n      tag_291\n      jumpi\n        /* \"#utility.yul\":11277:11295   */\n      tag_292\n      tag_86\n      jump\t// in\n    tag_292:\n        /* \"#utility.yul\":11251:11297   */\n    tag_291:\n        /* \"#utility.yul\":11190:11303   */\n      pop\n      jump\t// out\n        /* \"#utility.yul\":11309:11431   */\n    tag_149:\n        /* \"#utility.yul\":11382:11406   */\n      tag_294\n        /* \"#utility.yul\":11400:11405   */\n      dup2\n        /* \"#utility.yul\":11382:11406   */\n      tag_196\n      jump\t// in\n    tag_294:\n        /* \"#utility.yul\":11375:11380   */\n      dup2\n        /* \"#utility.yul\":11372:11407   */\n      eq\n        /* \"#utility.yul\":11362:11425   */\n      tag_295\n      jumpi\n        /* \"#utility.yul\":11421:11422   */\n      0x00\n        /* \"#utility.yul\":11418:11419   */\n      dup1\n        /* \"#utility.yul\":11411:11423   */\n      revert\n        /* \"#utility.yul\":11362:11425   */\n    tag_295:\n        /* \"#utility.yul\":11309:11431   */\n      pop\n      jump\t// out\n        /* \"#utility.yul\":11437:11559   */\n    tag_159:\n        /* \"#utility.yul\":11510:11534   */\n      tag_297\n        /* \"#utility.yul\":11528:11533   */\n      dup2\n        /* \"#utility.yul\":11510:11534   */\n      tag_218\n      jump\t// in\n    tag_297:\n        /* \"#utility.yul\":11503:11508   */\n      dup2\n        /* \"#utility.yul\":11500:11535   */\n      eq\n        /* \"#utility.yul\":11490:11553   */\n      tag_298\n      jumpi\n        /* \"#utility.yul\":11549:11550   */\n      0x00\n        /* \"#utility.yul\":11546:11547   */\n      dup1\n        /* \"#utility.yul\":11539:11551   */\n      revert\n        /* \"#utility.yul\":11490:11553   */\n    tag_298:\n        /* \"#utility.yul\":11437:11559   */\n      pop\n      jump\t// out\n\n    auxdata: 0xa26469706673582212206e38de78d63016697cd4de004a6a38257f6c77d72022eb59b8f9fcfccb42554b64736f6c63430008070033\n}\n",
				"bytecode": {
					"linkReferences": {},
					"object": "60806040523480156200001157600080fd5b50604051620014e4380380620014e48339818101604052810190620000379190620001f4565b33600860016101000a81548173ffffffffffffffffffffffffffffffffffffffff021916908373ffffffffffffffffffffffffffffffffffffffff160217905550806009908051906020019062000090929190620000c6565b506000600860006101000a81548160ff02191690836002811115620000ba57620000b962000346565b5b021790555050620003f8565b828054620000d490620002da565b90600052602060002090601f016020900481019282620000f8576000855562000144565b82601f106200011357805160ff191683800117855562000144565b8280016001018555821562000144579182015b828111156200014357825182559160200191906001019062000126565b5b50905062000153919062000157565b5090565b5b808211156200017257600081600090555060010162000158565b5090565b60006200018d62000187846200026e565b62000245565b905082815260208101848484011115620001ac57620001ab620003d8565b5b620001b9848285620002a4565b509392505050565b600082601f830112620001d957620001d8620003d3565b5b8151620001eb84826020860162000176565b91505092915050565b6000602082840312156200020d576200020c620003e2565b5b600082015167ffffffffffffffff8111156200022e576200022d620003dd565b5b6200023c84828501620001c1565b91505092915050565b60006200025162000264565b90506200025f828262000310565b919050565b6000604051905090565b600067ffffffffffffffff8211156200028c576200028b620003a4565b5b6200029782620003e7565b9050602081019050919050565b60005b83811015620002c4578082015181840152602081019050620002a7565b83811115620002d4576000848401525b50505050565b60006002820490506001821680620002f357607f821691505b602082108114156200030a576200030962000375565b5b50919050565b6200031b82620003e7565b810181811067ffffffffffffffff821117156200033d576200033c620003a4565b5b80604052505050565b7f4e487b7100000000000000000000000000000000000000000000000000000000600052602160045260246000fd5b7f4e487b7100000000000000000000000000000000000000000000000000000000600052602260045260246000fd5b7f4e487b7100000000000000000000000000000000000000000000000000000000600052604160045260246000fd5b600080fd5b600080fd5b600080fd5b600080fd5b6000601f19601f8301169050919050565b6110dc80620004086000396000f3fe608060405234801561001057600080fd5b50600436106100b45760003560e01c806362c492511161007157806362c49251146101a757806372753be5146101c357806380843e25146101f65780638949e00914610214578063c19d93fb14610232578063d9e95a9814610250576100b4565b80630132be09146100b95780630d15fd77146100e957806312c06342146101075780632d35a8a21461013857806346702b16146101565780635f5300ff14610189575b600080fd5b6100d360048036038101906100ce9190610c11565b61026c565b6040516100e09190610d8e565b60405180910390f35b6100f1610284565b6040516100fe9190610d8e565b60405180910390f35b610121600480360381019061011c9190610ab4565b61028a565b60405161012f929190610d5e565b60405180910390f35b610140610343565b60405161014d9190610d8e565b60405180910390f35b610170600480360381019061016b9190610bc8565b610349565b6040516101809493929190610d0b565b60405180910390f35b6101916104bf565b60405161019e9190610d8e565b60405180910390f35b6101c160048036038101906101bc9190610b3d565b6104c5565b005b6101dd60048036038101906101d89190610c11565b610672565b6040516101ed9493929190610d0b565b60405180910390f35b6101fe6107d2565b60405161020b9190610ce9565b60405180910390f35b61021c610860565b6040516102299190610cb3565b60405180910390f35b61023a610886565b6040516102479190610cce565b60405180910390f35b61026a60048036038101906102659190610ae1565b610899565b005b60026020528060005260406000206000915090505481565b60075481565b60006020528060005260406000206000915090508060000180546102ad90610f20565b80601f01602080910402602001604051908101604052809291908181526020018280546102d990610f20565b80156103265780601f106102fb57610100808354040283529160200191610326565b820191906000526020600020905b81548152906001019060200180831161030957829003601f168201915b5050505050908060010160009054906101000a900460ff16905082565b60055481565b60048180516020810182018051848252602083016020850120818352809550505050505060009150905080600001805461038290610f20565b80601f01602080910402602001604051908101604052809291908181526020018280546103ae90610f20565b80156103fb5780601f106103d0576101008083540402835291602001916103fb565b820191906000526020600020905b8154815290600101906020018083116103de57829003601f168201915b5050505050908060010160009054906101000a900473ffffffffffffffffffffffffffffffffffffffff169080600201549080600301805461043c90610f20565b80601f016020809104026020016040519081016040528092919081815260200182805461046890610f20565b80156104b55780601f1061048a576101008083540402835291602001916104b5565b820191906000526020600020905b81548152906001019060200180831161049857829003601f168201915b5050505050905084565b60065481565b60008060028111156104da576104d9610fb2565b5b600860009054906101000a900460ff1660028111156104fc576104fb610fb2565b5b1461050657600080fd5b3373ffffffffffffffffffffffffffffffffffffffff16600860019054906101000a900473ffffffffffffffffffffffffffffffffffffffff1673ffffffffffffffffffffffffffffffffffffffff161461056057600080fd5b610568610939565b84816020019073ffffffffffffffffffffffffffffffffffffffff16908173ffffffffffffffffffffffffffffffffffffffff16815250508381600001819052508281606001819052508060036000600554815260200190815260200160002060008201518160000190805190602001906105e4929190610977565b5060208201518160010160006101000a81548173ffffffffffffffffffffffffffffffffffffffff021916908373ffffffffffffffffffffffffffffffffffffffff160217905550604082015181600201556060820151816003019080519060200190610652929190610977565b5090505060016005546106659190610e1b565b6005819055505050505050565b600360205280600052604060002060009150905080600001805461069590610f20565b80601f01602080910402602001604051908101604052809291908181526020018280546106c190610f20565b801561070e5780601f106106e35761010080835404028352916020019161070e565b820191906000526020600020905b8154815290600101906020018083116106f157829003601f168201915b5050505050908060010160009054906101000a900473ffffffffffffffffffffffffffffffffffffffff169080600201549080600301805461074f90610f20565b80601f016020809104026020016040519081016040528092919081815260200182805461077b90610f20565b80156107c85780601f1061079d576101008083540402835291602001916107c8565b820191906000526020600020905b8154815290600101906020018083116107ab57829003601f168201915b5050505050905084565b600980546107df90610f20565b80601f016020809104026020016040519081016040528092919081815260200182805461080b90610f20565b80156108585780601f1061082d57610100808354040283529160200191610858565b820191906000526020600020905b81548152906001019060200180831161083b57829003601f168201915b505050505081565b600860019054906101000a900473ffffffffffffffffffffffffffffffffffffffff1681565b600860009054906101000a900460ff1681565b60008060028111156108ae576108ad610fb2565b5b600860009054906101000a900460ff1660028111156108d0576108cf610fb2565b5b146108da57600080fd5b3373ffffffffffffffffffffffffffffffffffffffff16600860019054906101000a900473ffffffffffffffffffffffffffffffffffffffff1673ffffffffffffffffffffffffffffffffffffffff161461093457600080fd5b505050565b604051806080016040528060608152602001600073ffffffffffffffffffffffffffffffffffffffff16815260200160008152602001606081525090565b82805461098390610f20565b90600052602060002090601f0160209004810192826109a557600085556109ec565b82601f106109be57805160ff19168380011785556109ec565b828001600101855582156109ec579182015b828111156109eb5782518255916020019190600101906109d0565b5b5090506109f991906109fd565b5090565b5b80821115610a165760008160009055506001016109fe565b5090565b6000610a2d610a2884610dce565b610da9565b905082815260208101848484011115610a4957610a48611044565b5b610a54848285610ede565b509392505050565b600081359050610a6b81611078565b92915050565b600082601f830112610a8657610a8561103f565b5b8135610a96848260208601610a1a565b91505092915050565b600081359050610aae8161108f565b92915050565b600060208284031215610aca57610ac961104e565b5b6000610ad884828501610a5c565b91505092915050565b60008060408385031215610af857610af761104e565b5b6000610b0685828601610a5c565b925050602083013567ffffffffffffffff811115610b2757610b26611049565b5b610b3385828601610a71565b9150509250929050565b600080600060608486031215610b5657610b5561104e565b5b6000610b6486828701610a5c565b935050602084013567ffffffffffffffff811115610b8557610b84611049565b5b610b9186828701610a71565b925050604084013567ffffffffffffffff811115610bb257610bb1611049565b5b610bbe86828701610a71565b9150509250925092565b600060208284031215610bde57610bdd61104e565b5b600082013567ffffffffffffffff811115610bfc57610bfb611049565b5b610c0884828501610a71565b91505092915050565b600060208284031215610c2757610c2661104e565b5b6000610c3584828501610a9f565b91505092915050565b610c4781610e71565b82525050565b610c5681610e83565b82525050565b610c6581610ecc565b82525050565b6000610c7682610dff565b610c808185610e0a565b9350610c90818560208601610eed565b610c9981611053565b840191505092915050565b610cad81610ec2565b82525050565b6000602082019050610cc86000830184610c3e565b92915050565b6000602082019050610ce36000830184610c5c565b92915050565b60006020820190508181036000830152610d038184610c6b565b905092915050565b60006080820190508181036000830152610d258187610c6b565b9050610d346020830186610c3e565b610d416040830185610ca4565b8181036060830152610d538184610c6b565b905095945050505050565b60006040820190508181036000830152610d788185610c6b565b9050610d876020830184610c4d565b9392505050565b6000602082019050610da36000830184610ca4565b92915050565b6000610db3610dc4565b9050610dbf8282610f52565b919050565b6000604051905090565b600067ffffffffffffffff821115610de957610de8611010565b5b610df282611053565b9050602081019050919050565b600081519050919050565b600082825260208201905092915050565b6000610e2682610ec2565b9150610e3183610ec2565b9250827fffffffffffffffffffffffffffffffffffffffffffffffffffffffffffffffff03821115610e6657610e65610f83565b5b828201905092915050565b6000610e7c82610ea2565b9050919050565b60008115159050919050565b6000819050610e9d82611064565b919050565b600073ffffffffffffffffffffffffffffffffffffffff82169050919050565b6000819050919050565b6000610ed782610e8f565b9050919050565b82818337600083830152505050565b60005b83811015610f0b578082015181840152602081019050610ef0565b83811115610f1a576000848401525b50505050565b60006002820490506001821680610f3857607f821691505b60208210811415610f4c57610f4b610fe1565b5b50919050565b610f5b82611053565b810181811067ffffffffffffffff82111715610f7a57610f79611010565b5b80604052505050565b7f4e487b7100000000000000000000000000000000000000000000000000000000600052601160045260246000fd5b7f4e487b7100000000000000000000000000000000000000000000000000000000600052602160045260246000fd5b7f4e487b7100000000000000000000000000000000000000000000000000000000600052602260045260246000fd5b7f4e487b7100000000000000000000000000000000000000000000000000000000600052604160045260246000fd5b600080fd5b600080fd5b600080fd5b600080fd5b6000601f19601f8301169050919050565b6003811061107557611074610fb2565b5b50565b61108181610e71565b811461108c57600080fd5b50565b61109881610ec2565b81146110a357600080fd5b5056fea26469706673582212206e38de78d63016697cd4de004a6a38257f6c77d72022eb59b8f9fcfccb42554b64736f6c63430008070033",
					"opcodes": "PUSH1 0x80 PUSH1 0x40 MSTORE CALLVALUE DUP1 ISZERO PUSH3 0x11 JUMPI PUSH1 0x0 DUP1 REVERT JUMPDEST POP PUSH1 0x40 MLOAD PUSH3 0x14E4 CODESIZE SUB DUP1 PUSH3 0x14E4 DUP4 CODECOPY DUP2 DUP2 ADD PUSH1 0x40 MSTORE DUP2 ADD SWAP1 PUSH3 0x37 SWAP2 SWAP1 PUSH3 0x1F4 JUMP JUMPDEST CALLER PUSH1 0x8 PUSH1 0x1 PUSH2 0x100 EXP DUP2 SLOAD DUP2 PUSH20 0xFFFFFFFFFFFFFFFFFFFFFFFFFFFFFFFFFFFFFFFF MUL NOT AND SWAP1 DUP4 PUSH20 0xFFFFFFFFFFFFFFFFFFFFFFFFFFFFFFFFFFFFFFFF AND MUL OR SWAP1 SSTORE POP DUP1 PUSH1 0x9 SWAP1 DUP1 MLOAD SWAP1 PUSH1 0x20 ADD SWAP1 PUSH3 0x90 SWAP3 SWAP2 SWAP1 PUSH3 0xC6 JUMP JUMPDEST POP PUSH1 0x0 PUSH1 0x8 PUSH1 0x0 PUSH2 0x100 EXP DUP2 SLOAD DUP2 PUSH1 0xFF MUL NOT AND SWAP1 DUP4 PUSH1 0x2 DUP2 GT ISZERO PUSH3 0xBA JUMPI PUSH3 0xB9 PUSH3 0x346 JUMP JUMPDEST JUMPDEST MUL OR SWAP1 SSTORE POP POP PUSH3 0x3F8 JUMP JUMPDEST DUP3 DUP1 SLOAD PUSH3 0xD4 SWAP1 PUSH3 0x2DA JUMP JUMPDEST SWAP1 PUSH1 0x0 MSTORE PUSH1 0x20 PUSH1 0x0 KECCAK256 SWAP1 PUSH1 0x1F ADD PUSH1 0x20 SWAP1 DIV DUP2 ADD SWAP3 DUP3 PUSH3 0xF8 JUMPI PUSH1 0x0 DUP6 SSTORE PUSH3 0x144 JUMP JUMPDEST DUP3 PUSH1 0x1F LT PUSH3 0x113 JUMPI DUP1 MLOAD PUSH1 0xFF NOT AND DUP4 DUP1 ADD OR DUP6 SSTORE PUSH3 0x144 JUMP JUMPDEST DUP3 DUP1 ADD PUSH1 0x1 ADD DUP6 SSTORE DUP3 ISZERO PUSH3 0x144 JUMPI SWAP2 DUP3 ADD JUMPDEST DUP3 DUP2 GT ISZERO PUSH3 0x143 JUMPI DUP3 MLOAD DUP3 SSTORE SWAP2 PUSH1 0x20 ADD SWAP2 SWAP1 PUSH1 0x1 ADD SWAP1 PUSH3 0x126 JUMP JUMPDEST JUMPDEST POP SWAP1 POP PUSH3 0x153 SWAP2 SWAP1 PUSH3 0x157 JUMP JUMPDEST POP SWAP1 JUMP JUMPDEST JUMPDEST DUP1 DUP3 GT ISZERO PUSH3 0x172 JUMPI PUSH1 0x0 DUP2 PUSH1 0x0 SWAP1 SSTORE POP PUSH1 0x1 ADD PUSH3 0x158 JUMP JUMPDEST POP SWAP1 JUMP JUMPDEST PUSH1 0x0 PUSH3 0x18D PUSH3 0x187 DUP5 PUSH3 0x26E JUMP JUMPDEST PUSH3 0x245 JUMP JUMPDEST SWAP1 POP DUP3 DUP2 MSTORE PUSH1 0x20 DUP2 ADD DUP5 DUP5 DUP5 ADD GT ISZERO PUSH3 0x1AC JUMPI PUSH3 0x1AB PUSH3 0x3D8 JUMP JUMPDEST JUMPDEST PUSH3 0x1B9 DUP5 DUP3 DUP6 PUSH3 0x2A4 JUMP JUMPDEST POP SWAP4 SWAP3 POP POP POP JUMP JUMPDEST PUSH1 0x0 DUP3 PUSH1 0x1F DUP4 ADD SLT PUSH3 0x1D9 JUMPI PUSH3 0x1D8 PUSH3 0x3D3 JUMP JUMPDEST JUMPDEST DUP2 MLOAD PUSH3 0x1EB DUP5 DUP3 PUSH1 0x20 DUP7 ADD PUSH3 0x176 JUMP JUMPDEST SWAP2 POP POP SWAP3 SWAP2 POP POP JUMP JUMPDEST PUSH1 0x0 PUSH1 0x20 DUP3 DUP5 SUB SLT ISZERO PUSH3 0x20D JUMPI PUSH3 0x20C PUSH3 0x3E2 JUMP JUMPDEST JUMPDEST PUSH1 0x0 DUP3 ADD MLOAD PUSH8 0xFFFFFFFFFFFFFFFF DUP2 GT ISZERO PUSH3 0x22E JUMPI PUSH3 0x22D PUSH3 0x3DD JUMP JUMPDEST JUMPDEST PUSH3 0x23C DUP5 DUP3 DUP6 ADD PUSH3 0x1C1 JUMP JUMPDEST SWAP2 POP POP SWAP3 SWAP2 POP POP JUMP JUMPDEST PUSH1 0x0 PUSH3 0x251 PUSH3 0x264 JUMP JUMPDEST SWAP1 POP PUSH3 0x25F DUP3 DUP3 PUSH3 0x310 JUMP JUMPDEST SWAP2 SWAP1 POP JUMP JUMPDEST PUSH1 0x0 PUSH1 0x40 MLOAD SWAP1 POP SWAP1 JUMP JUMPDEST PUSH1 0x0 PUSH8 0xFFFFFFFFFFFFFFFF DUP3 GT ISZERO PUSH3 0x28C JUMPI PUSH3 0x28B PUSH3 0x3A4 JUMP JUMPDEST JUMPDEST PUSH3 0x297 DUP3 PUSH3 0x3E7 JUMP JUMPDEST SWAP1 POP PUSH1 0x20 DUP2 ADD SWAP1 POP SWAP2 SWAP1 POP JUMP JUMPDEST PUSH1 0x0 JUMPDEST DUP4 DUP2 LT ISZERO PUSH3 0x2C4 JUMPI DUP1 DUP3 ADD MLOAD DUP2 DUP5 ADD MSTORE PUSH1 0x20 DUP2 ADD SWAP1 POP PUSH3 0x2A7 JUMP JUMPDEST DUP4 DUP2 GT ISZERO PUSH3 0x2D4 JUMPI PUSH1 0x0 DUP5 DUP5 ADD MSTORE JUMPDEST POP POP POP POP JUMP JUMPDEST PUSH1 0x0 PUSH1 0x2 DUP3 DIV SWAP1 POP PUSH1 0x1 DUP3 AND DUP1 PUSH3 0x2F3 JUMPI PUSH1 0x7F DUP3 AND SWAP2 POP JUMPDEST PUSH1 0x20 DUP3 LT DUP2 EQ ISZERO PUSH3 0x30A JUMPI PUSH3 0x309 PUSH3 0x375 JUMP JUMPDEST JUMPDEST POP SWAP2 SWAP1 POP JUMP JUMPDEST PUSH3 0x31B DUP3 PUSH3 0x3E7 JUMP JUMPDEST DUP2 ADD DUP2 DUP2 LT PUSH8 0xFFFFFFFFFFFFFFFF DUP3 GT OR ISZERO PUSH3 0x33D JUMPI PUSH3 0x33C PUSH3 0x3A4 JUMP JUMPDEST JUMPDEST DUP1 PUSH1 0x40 MSTORE POP POP POP JUMP JUMPDEST PUSH32 0x4E487B7100000000000000000000000000000000000000000000000000000000 PUSH1 0x0 MSTORE PUSH1 0x21 PUSH1 0x4 MSTORE PUSH1 0x24 PUSH1 0x0 REVERT JUMPDEST PUSH32 0x4E487B7100000000000000000000000000000000000000000000000000000000 PUSH1 0x0 MSTORE PUSH1 0x22 PUSH1 0x4 MSTORE PUSH1 0x24 PUSH1 0x0 REVERT JUMPDEST PUSH32 0x4E487B7100000000000000000000000000000000000000000000000000000000 PUSH1 0x0 MSTORE PUSH1 0x41 PUSH1 0x4 MSTORE PUSH1 0x24 PUSH1 0x0 REVERT JUMPDEST PUSH1 0x0 DUP1 REVERT JUMPDEST PUSH1 0x0 DUP1 REVERT JUMPDEST PUSH1 0x0 DUP1 REVERT JUMPDEST PUSH1 0x0 DUP1 REVERT JUMPDEST PUSH1 0x0 PUSH1 0x1F NOT PUSH1 0x1F DUP4 ADD AND SWAP1 POP SWAP2 SWAP1 POP JUMP JUMPDEST PUSH2 0x10DC DUP1 PUSH3 0x408 PUSH1 0x0 CODECOPY PUSH1 0x0 RETURN INVALID PUSH1 0x80 PUSH1 0x40 MSTORE CALLVALUE DUP1 ISZERO PUSH2 0x10 JUMPI PUSH1 0x0 DUP1 REVERT JUMPDEST POP PUSH1 0x4 CALLDATASIZE LT PUSH2 0xB4 JUMPI PUSH1 0x0 CALLDATALOAD PUSH1 0xE0 SHR DUP1 PUSH4 0x62C49251 GT PUSH2 0x71 JUMPI DUP1 PUSH4 0x62C49251 EQ PUSH2 0x1A7 JUMPI DUP1 PUSH4 0x72753BE5 EQ PUSH2 0x1C3 JUMPI DUP1 PUSH4 0x80843E25 EQ PUSH2 0x1F6 JUMPI DUP1 PUSH4 0x8949E009 EQ PUSH2 0x214 JUMPI DUP1 PUSH4 0xC19D93FB EQ PUSH2 0x232 JUMPI DUP1 PUSH4 0xD9E95A98 EQ PUSH2 0x250 JUMPI PUSH2 0xB4 JUMP JUMPDEST DUP1 PUSH4 0x132BE09 EQ PUSH2 0xB9 JUMPI DUP1 PUSH4 0xD15FD77 EQ PUSH2 0xE9 JUMPI DUP1 PUSH4 0x12C06342 EQ PUSH2 0x107 JUMPI DUP1 PUSH4 0x2D35A8A2 EQ PUSH2 0x138 JUMPI DUP1 PUSH4 0x46702B16 EQ PUSH2 0x156 JUMPI DUP1 PUSH4 0x5F5300FF EQ PUSH2 0x189 JUMPI JUMPDEST PUSH1 0x0 DUP1 REVERT JUMPDEST PUSH2 0xD3 PUSH1 0x4 DUP1 CALLDATASIZE SUB DUP2 ADD SWAP1 PUSH2 0xCE SWAP2 SWAP1 PUSH2 0xC11 JUMP JUMPDEST PUSH2 0x26C JUMP JUMPDEST PUSH1 0x40 MLOAD PUSH2 0xE0 SWAP2 SWAP1 PUSH2 0xD8E JUMP JUMPDEST PUSH1 0x40 MLOAD DUP1 SWAP2 SUB SWAP1 RETURN JUMPDEST PUSH2 0xF1 PUSH2 0x284 JUMP JUMPDEST PUSH1 0x40 MLOAD PUSH2 0xFE SWAP2 SWAP1 PUSH2 0xD8E JUMP JUMPDEST PUSH1 0x40 MLOAD DUP1 SWAP2 SUB SWAP1 RETURN JUMPDEST PUSH2 0x121 PUSH1 0x4 DUP1 CALLDATASIZE SUB DUP2 ADD SWAP1 PUSH2 0x11C SWAP2 SWAP1 PUSH2 0xAB4 JUMP JUMPDEST PUSH2 0x28A JUMP JUMPDEST PUSH1 0x40 MLOAD PUSH2 0x12F SWAP3 SWAP2 SWAP1 PUSH2 0xD5E JUMP JUMPDEST PUSH1 0x40 MLOAD DUP1 SWAP2 SUB SWAP1 RETURN JUMPDEST PUSH2 0x140 PUSH2 0x343 JUMP JUMPDEST PUSH1 0x40 MLOAD PUSH2 0x14D SWAP2 SWAP1 PUSH2 0xD8E JUMP JUMPDEST PUSH1 0x40 MLOAD DUP1 SWAP2 SUB SWAP1 RETURN JUMPDEST PUSH2 0x170 PUSH1 0x4 DUP1 CALLDATASIZE SUB DUP2 ADD SWAP1 PUSH2 0x16B SWAP2 SWAP1 PUSH2 0xBC8 JUMP JUMPDEST PUSH2 0x349 JUMP JUMPDEST PUSH1 0x40 MLOAD PUSH2 0x180 SWAP5 SWAP4 SWAP3 SWAP2 SWAP1 PUSH2 0xD0B JUMP JUMPDEST PUSH1 0x40 MLOAD DUP1 SWAP2 SUB SWAP1 RETURN JUMPDEST PUSH2 0x191 PUSH2 0x4BF JUMP JUMPDEST PUSH1 0x40 MLOAD PUSH2 0x19E SWAP2 SWAP1 PUSH2 0xD8E JUMP JUMPDEST PUSH1 0x40 MLOAD DUP1 SWAP2 SUB SWAP1 RETURN JUMPDEST PUSH2 0x1C1 PUSH1 0x4 DUP1 CALLDATASIZE SUB DUP2 ADD SWAP1 PUSH2 0x1BC SWAP2 SWAP1 PUSH2 0xB3D JUMP JUMPDEST PUSH2 0x4C5 JUMP JUMPDEST STOP JUMPDEST PUSH2 0x1DD PUSH1 0x4 DUP1 CALLDATASIZE SUB DUP2 ADD SWAP1 PUSH2 0x1D8 SWAP2 SWAP1 PUSH2 0xC11 JUMP JUMPDEST PUSH2 0x672 JUMP JUMPDEST PUSH1 0x40 MLOAD PUSH2 0x1ED SWAP5 SWAP4 SWAP3 SWAP2 SWAP1 PUSH2 0xD0B JUMP JUMPDEST PUSH1 0x40 MLOAD DUP1 SWAP2 SUB SWAP1 RETURN JUMPDEST PUSH2 0x1FE PUSH2 0x7D2 JUMP JUMPDEST PUSH1 0x40 MLOAD PUSH2 0x20B SWAP2 SWAP1 PUSH2 0xCE9 JUMP JUMPDEST PUSH1 0x40 MLOAD DUP1 SWAP2 SUB SWAP1 RETURN JUMPDEST PUSH2 0x21C PUSH2 0x860 JUMP JUMPDEST PUSH1 0x40 MLOAD PUSH2 0x229 SWAP2 SWAP1 PUSH2 0xCB3 JUMP JUMPDEST PUSH1 0x40 MLOAD DUP1 SWAP2 SUB SWAP1 RETURN JUMPDEST PUSH2 0x23A PUSH2 0x886 JUMP JUMPDEST PUSH1 0x40 MLOAD PUSH2 0x247 SWAP2 SWAP1 PUSH2 0xCCE JUMP JUMPDEST PUSH1 0x40 MLOAD DUP1 SWAP2 SUB SWAP1 RETURN JUMPDEST PUSH2 0x26A PUSH1 0x4 DUP1 CALLDATASIZE SUB DUP2 ADD SWAP1 PUSH2 0x265 SWAP2 SWAP1 PUSH2 0xAE1 JUMP JUMPDEST PUSH2 0x899 JUMP JUMPDEST STOP JUMPDEST PUSH1 0x2 PUSH1 0x20 MSTORE DUP1 PUSH1 0x0 MSTORE PUSH1 0x40 PUSH1 0x0 KECCAK256 PUSH1 0x0 SWAP2 POP SWAP1 POP SLOAD DUP2 JUMP JUMPDEST PUSH1 0x7 SLOAD DUP2 JUMP JUMPDEST PUSH1 0x0 PUSH1 0x20 MSTORE DUP1 PUSH1 0x0 MSTORE PUSH1 0x40 PUSH1 0x0 KECCAK256 PUSH1 0x0 SWAP2 POP SWAP1 POP DUP1 PUSH1 0x0 ADD DUP1 SLOAD PUSH2 0x2AD SWAP1 PUSH2 0xF20 JUMP JUMPDEST DUP1 PUSH1 0x1F ADD PUSH1 0x20 DUP1 SWAP2 DIV MUL PUSH1 0x20 ADD PUSH1 0x40 MLOAD SWAP1 DUP2 ADD PUSH1 0x40 MSTORE DUP1 SWAP3 SWAP2 SWAP1 DUP2 DUP2 MSTORE PUSH1 0x20 ADD DUP3 DUP1 SLOAD PUSH2 0x2D9 SWAP1 PUSH2 0xF20 JUMP JUMPDEST DUP1 ISZERO PUSH2 0x326 JUMPI DUP1 PUSH1 0x1F LT PUSH2 0x2FB JUMPI PUSH2 0x100 DUP1 DUP4 SLOAD DIV MUL DUP4 MSTORE SWAP2 PUSH1 0x20 ADD SWAP2 PUSH2 0x326 JUMP JUMPDEST DUP3 ADD SWAP2 SWAP1 PUSH1 0x0 MSTORE PUSH1 0x20 PUSH1 0x0 KECCAK256 SWAP1 JUMPDEST DUP2 SLOAD DUP2 MSTORE SWAP1 PUSH1 0x1 ADD SWAP1 PUSH1 0x20 ADD DUP1 DUP4 GT PUSH2 0x309 JUMPI DUP3 SWAP1 SUB PUSH1 0x1F AND DUP3 ADD SWAP2 JUMPDEST POP POP POP POP POP SWAP1 DUP1 PUSH1 0x1 ADD PUSH1 0x0 SWAP1 SLOAD SWAP1 PUSH2 0x100 EXP SWAP1 DIV PUSH1 0xFF AND SWAP1 POP DUP3 JUMP JUMPDEST PUSH1 0x5 SLOAD DUP2 JUMP JUMPDEST PUSH1 0x4 DUP2 DUP1 MLOAD PUSH1 0x20 DUP2 ADD DUP3 ADD DUP1 MLOAD DUP5 DUP3 MSTORE PUSH1 0x20 DUP4 ADD PUSH1 0x20 DUP6 ADD KECCAK256 DUP2 DUP4 MSTORE DUP1 SWAP6 POP POP POP POP POP POP PUSH1 0x0 SWAP2 POP SWAP1 POP DUP1 PUSH1 0x0 ADD DUP1 SLOAD PUSH2 0x382 SWAP1 PUSH2 0xF20 JUMP JUMPDEST DUP1 PUSH1 0x1F ADD PUSH1 0x20 DUP1 SWAP2 DIV MUL PUSH1 0x20 ADD PUSH1 0x40 MLOAD SWAP1 DUP2 ADD PUSH1 0x40 MSTORE DUP1 SWAP3 SWAP2 SWAP1 DUP2 DUP2 MSTORE PUSH1 0x20 ADD DUP3 DUP1 SLOAD PUSH2 0x3AE SWAP1 PUSH2 0xF20 JUMP JUMPDEST DUP1 ISZERO PUSH2 0x3FB JUMPI DUP1 PUSH1 0x1F LT PUSH2 0x3D0 JUMPI PUSH2 0x100 DUP1 DUP4 SLOAD DIV MUL DUP4 MSTORE SWAP2 PUSH1 0x20 ADD SWAP2 PUSH2 0x3FB JUMP JUMPDEST DUP3 ADD SWAP2 SWAP1 PUSH1 0x0 MSTORE PUSH1 0x20 PUSH1 0x0 KECCAK256 SWAP1 JUMPDEST DUP2 SLOAD DUP2 MSTORE SWAP1 PUSH1 0x1 ADD SWAP1 PUSH1 0x20 ADD DUP1 DUP4 GT PUSH2 0x3DE JUMPI DUP3 SWAP1 SUB PUSH1 0x1F AND DUP3 ADD SWAP2 JUMPDEST POP POP POP POP POP SWAP1 DUP1 PUSH1 0x1 ADD PUSH1 0x0 SWAP1 SLOAD SWAP1 PUSH2 0x100 EXP SWAP1 DIV PUSH20 0xFFFFFFFFFFFFFFFFFFFFFFFFFFFFFFFFFFFFFFFF AND SWAP1 DUP1 PUSH1 0x2 ADD SLOAD SWAP1 DUP1 PUSH1 0x3 ADD DUP1 SLOAD PUSH2 0x43C SWAP1 PUSH2 0xF20 JUMP JUMPDEST DUP1 PUSH1 0x1F ADD PUSH1 0x20 DUP1 SWAP2 DIV MUL PUSH1 0x20 ADD PUSH1 0x40 MLOAD SWAP1 DUP2 ADD PUSH1 0x40 MSTORE DUP1 SWAP3 SWAP2 SWAP1 DUP2 DUP2 MSTORE PUSH1 0x20 ADD DUP3 DUP1 SLOAD PUSH2 0x468 SWAP1 PUSH2 0xF20 JUMP JUMPDEST DUP1 ISZERO PUSH2 0x4B5 JUMPI DUP1 PUSH1 0x1F LT PUSH2 0x48A JUMPI PUSH2 0x100 DUP1 DUP4 SLOAD DIV MUL DUP4 MSTORE SWAP2 PUSH1 0x20 ADD SWAP2 PUSH2 0x4B5 JUMP JUMPDEST DUP3 ADD SWAP2 SWAP1 PUSH1 0x0 MSTORE PUSH1 0x20 PUSH1 0x0 KECCAK256 SWAP1 JUMPDEST DUP2 SLOAD DUP2 MSTORE SWAP1 PUSH1 0x1 ADD SWAP1 PUSH1 0x20 ADD DUP1 DUP4 GT PUSH2 0x498 JUMPI DUP3 SWAP1 SUB PUSH1 0x1F AND DUP3 ADD SWAP2 JUMPDEST POP POP POP POP POP SWAP1 POP DUP5 JUMP JUMPDEST PUSH1 0x6 SLOAD DUP2 JUMP JUMPDEST PUSH1 0x0 DUP1 PUSH1 0x2 DUP2 GT ISZERO PUSH2 0x4DA JUMPI PUSH2 0x4D9 PUSH2 0xFB2 JUMP JUMPDEST JUMPDEST PUSH1 0x8 PUSH1 0x0 SWAP1 SLOAD SWAP1 PUSH2 0x100 EXP SWAP1 DIV PUSH1 0xFF AND PUSH1 0x2 DUP2 GT ISZERO PUSH2 0x4FC JUMPI PUSH2 0x4FB PUSH2 0xFB2 JUMP JUMPDEST JUMPDEST EQ PUSH2 0x506 JUMPI PUSH1 0x0 DUP1 REVERT JUMPDEST CALLER PUSH20 0xFFFFFFFFFFFFFFFFFFFFFFFFFFFFFFFFFFFFFFFF AND PUSH1 0x8 PUSH1 0x1 SWAP1 SLOAD SWAP1 PUSH2 0x100 EXP SWAP1 DIV PUSH20 0xFFFFFFFFFFFFFFFFFFFFFFFFFFFFFFFFFFFFFFFF AND PUSH20 0xFFFFFFFFFFFFFFFFFFFFFFFFFFFFFFFFFFFFFFFF AND EQ PUSH2 0x560 JUMPI PUSH1 0x0 DUP1 REVERT JUMPDEST PUSH2 0x568 PUSH2 0x939 JUMP JUMPDEST DUP5 DUP2 PUSH1 0x20 ADD SWAP1 PUSH20 0xFFFFFFFFFFFFFFFFFFFFFFFFFFFFFFFFFFFFFFFF AND SWAP1 DUP2 PUSH20 0xFFFFFFFFFFFFFFFFFFFFFFFFFFFFFFFFFFFFFFFF AND DUP2 MSTORE POP POP DUP4 DUP2 PUSH1 0x0 ADD DUP2 SWAP1 MSTORE POP DUP3 DUP2 PUSH1 0x60 ADD DUP2 SWAP1 MSTORE POP DUP1 PUSH1 0x3 PUSH1 0x0 PUSH1 0x5 SLOAD DUP2 MSTORE PUSH1 0x20 ADD SWAP1 DUP2 MSTORE PUSH1 0x20 ADD PUSH1 0x0 KECCAK256 PUSH1 0x0 DUP3 ADD MLOAD DUP2 PUSH1 0x0 ADD SWAP1 DUP1 MLOAD SWAP1 PUSH1 0x20 ADD SWAP1 PUSH2 0x5E4 SWAP3 SWAP2 SWAP1 PUSH2 0x977 JUMP JUMPDEST POP PUSH1 0x20 DUP3 ADD MLOAD DUP2 PUSH1 0x1 ADD PUSH1 0x0 PUSH2 0x100 EXP DUP2 SLOAD DUP2 PUSH20 0xFFFFFFFFFFFFFFFFFFFFFFFFFFFFFFFFFFFFFFFF MUL NOT AND SWAP1 DUP4 PUSH20 0xFFFFFFFFFFFFFFFFFFFFFFFFFFFFFFFFFFFFFFFF AND MUL OR SWAP1 SSTORE POP PUSH1 0x40 DUP3 ADD MLOAD DUP2 PUSH1 0x2 ADD SSTORE PUSH1 0x60 DUP3 ADD MLOAD DUP2 PUSH1 0x3 ADD SWAP1 DUP1 MLOAD SWAP1 PUSH1 0x20 ADD SWAP1 PUSH2 0x652 SWAP3 SWAP2 SWAP1 PUSH2 0x977 JUMP JUMPDEST POP SWAP1 POP POP PUSH1 0x1 PUSH1 0x5 SLOAD PUSH2 0x665 SWAP2 SWAP1 PUSH2 0xE1B JUMP JUMPDEST PUSH1 0x5 DUP2 SWAP1 SSTORE POP POP POP POP POP POP JUMP JUMPDEST PUSH1 0x3 PUSH1 0x20 MSTORE DUP1 PUSH1 0x0 MSTORE PUSH1 0x40 PUSH1 0x0 KECCAK256 PUSH1 0x0 SWAP2 POP SWAP1 POP DUP1 PUSH1 0x0 ADD DUP1 SLOAD PUSH2 0x695 SWAP1 PUSH2 0xF20 JUMP JUMPDEST DUP1 PUSH1 0x1F ADD PUSH1 0x20 DUP1 SWAP2 DIV MUL PUSH1 0x20 ADD PUSH1 0x40 MLOAD SWAP1 DUP2 ADD PUSH1 0x40 MSTORE DUP1 SWAP3 SWAP2 SWAP1 DUP2 DUP2 MSTORE PUSH1 0x20 ADD DUP3 DUP1 SLOAD PUSH2 0x6C1 SWAP1 PUSH2 0xF20 JUMP JUMPDEST DUP1 ISZERO PUSH2 0x70E JUMPI DUP1 PUSH1 0x1F LT PUSH2 0x6E3 JUMPI PUSH2 0x100 DUP1 DUP4 SLOAD DIV MUL DUP4 MSTORE SWAP2 PUSH1 0x20 ADD SWAP2 PUSH2 0x70E JUMP JUMPDEST DUP3 ADD SWAP2 SWAP1 PUSH1 0x0 MSTORE PUSH1 0x20 PUSH1 0x0 KECCAK256 SWAP1 JUMPDEST DUP2 SLOAD DUP2 MSTORE SWAP1 PUSH1 0x1 ADD SWAP1 PUSH1 0x20 ADD DUP1 DUP4 GT PUSH2 0x6F1 JUMPI DUP3 SWAP1 SUB PUSH1 0x1F AND DUP3 ADD SWAP2 JUMPDEST POP POP POP POP POP SWAP1 DUP1 PUSH1 0x1 ADD PUSH1 0x0 SWAP1 SLOAD SWAP1 PUSH2 0x100 EXP SWAP1 DIV PUSH20 0xFFFFFFFFFFFFFFFFFFFFFFFFFFFFFFFFFFFFFFFF AND SWAP1 DUP1 PUSH1 0x2 ADD SLOAD SWAP1 DUP1 PUSH1 0x3 ADD DUP1 SLOAD PUSH2 0x74F SWAP1 PUSH2 0xF20 JUMP JUMPDEST DUP1 PUSH1 0x1F ADD PUSH1 0x20 DUP1 SWAP2 DIV MUL PUSH1 0x20 ADD PUSH1 0x40 MLOAD SWAP1 DUP2 ADD PUSH1 0x40 MSTORE DUP1 SWAP3 SWAP2 SWAP1 DUP2 DUP2 MSTORE PUSH1 0x20 ADD DUP3 DUP1 SLOAD PUSH2 0x77B SWAP1 PUSH2 0xF20 JUMP JUMPDEST DUP1 ISZERO PUSH2 0x7C8 JUMPI DUP1 PUSH1 0x1F LT PUSH2 0x79D JUMPI PUSH2 0x100 DUP1 DUP4 SLOAD DIV MUL DUP4 MSTORE SWAP2 PUSH1 0x20 ADD SWAP2 PUSH2 0x7C8 JUMP JUMPDEST DUP3 ADD SWAP2 SWAP1 PUSH1 0x0 MSTORE PUSH1 0x20 PUSH1 0x0 KECCAK256 SWAP1 JUMPDEST DUP2 SLOAD DUP2 MSTORE SWAP1 PUSH1 0x1 ADD SWAP1 PUSH1 0x20 ADD DUP1 DUP4 GT PUSH2 0x7AB JUMPI DUP3 SWAP1 SUB PUSH1 0x1F AND DUP3 ADD SWAP2 JUMPDEST POP POP POP POP POP SWAP1 POP DUP5 JUMP JUMPDEST PUSH1 0x9 DUP1 SLOAD PUSH2 0x7DF SWAP1 PUSH2 0xF20 JUMP JUMPDEST DUP1 PUSH1 0x1F ADD PUSH1 0x20 DUP1 SWAP2 DIV MUL PUSH1 0x20 ADD PUSH1 0x40 MLOAD SWAP1 DUP2 ADD PUSH1 0x40 MSTORE DUP1 SWAP3 SWAP2 SWAP1 DUP2 DUP2 MSTORE PUSH1 0x20 ADD DUP3 DUP1 SLOAD PUSH2 0x80B SWAP1 PUSH2 0xF20 JUMP JUMPDEST DUP1 ISZERO PUSH2 0x858 JUMPI DUP1 PUSH1 0x1F LT PUSH2 0x82D JUMPI PUSH2 0x100 DUP1 DUP4 SLOAD DIV MUL DUP4 MSTORE SWAP2 PUSH1 0x20 ADD SWAP2 PUSH2 0x858 JUMP JUMPDEST DUP3 ADD SWAP2 SWAP1 PUSH1 0x0 MSTORE PUSH1 0x20 PUSH1 0x0 KECCAK256 SWAP1 JUMPDEST DUP2 SLOAD DUP2 MSTORE SWAP1 PUSH1 0x1 ADD SWAP1 PUSH1 0x20 ADD DUP1 DUP4 GT PUSH2 0x83B JUMPI DUP3 SWAP1 SUB PUSH1 0x1F AND DUP3 ADD SWAP2 JUMPDEST POP POP POP POP POP DUP2 JUMP JUMPDEST PUSH1 0x8 PUSH1 0x1 SWAP1 SLOAD SWAP1 PUSH2 0x100 EXP SWAP1 DIV PUSH20 0xFFFFFFFFFFFFFFFFFFFFFFFFFFFFFFFFFFFFFFFF AND DUP2 JUMP JUMPDEST PUSH1 0x8 PUSH1 0x0 SWAP1 SLOAD SWAP1 PUSH2 0x100 EXP SWAP1 DIV PUSH1 0xFF AND DUP2 JUMP JUMPDEST PUSH1 0x0 DUP1 PUSH1 0x2 DUP2 GT ISZERO PUSH2 0x8AE JUMPI PUSH2 0x8AD PUSH2 0xFB2 JUMP JUMPDEST JUMPDEST PUSH1 0x8 PUSH1 0x0 SWAP1 SLOAD SWAP1 PUSH2 0x100 EXP SWAP1 DIV PUSH1 0xFF AND PUSH1 0x2 DUP2 GT ISZERO PUSH2 0x8D0 JUMPI PUSH2 0x8CF PUSH2 0xFB2 JUMP JUMPDEST JUMPDEST EQ PUSH2 0x8DA JUMPI PUSH1 0x0 DUP1 REVERT JUMPDEST CALLER PUSH20 0xFFFFFFFFFFFFFFFFFFFFFFFFFFFFFFFFFFFFFFFF AND PUSH1 0x8 PUSH1 0x1 SWAP1 SLOAD SWAP1 PUSH2 0x100 EXP SWAP1 DIV PUSH20 0xFFFFFFFFFFFFFFFFFFFFFFFFFFFFFFFFFFFFFFFF AND PUSH20 0xFFFFFFFFFFFFFFFFFFFFFFFFFFFFFFFFFFFFFFFF AND EQ PUSH2 0x934 JUMPI PUSH1 0x0 DUP1 REVERT JUMPDEST POP POP POP JUMP JUMPDEST PUSH1 0x40 MLOAD DUP1 PUSH1 0x80 ADD PUSH1 0x40 MSTORE DUP1 PUSH1 0x60 DUP2 MSTORE PUSH1 0x20 ADD PUSH1 0x0 PUSH20 0xFFFFFFFFFFFFFFFFFFFFFFFFFFFFFFFFFFFFFFFF AND DUP2 MSTORE PUSH1 0x20 ADD PUSH1 0x0 DUP2 MSTORE PUSH1 0x20 ADD PUSH1 0x60 DUP2 MSTORE POP SWAP1 JUMP JUMPDEST DUP3 DUP1 SLOAD PUSH2 0x983 SWAP1 PUSH2 0xF20 JUMP JUMPDEST SWAP1 PUSH1 0x0 MSTORE PUSH1 0x20 PUSH1 0x0 KECCAK256 SWAP1 PUSH1 0x1F ADD PUSH1 0x20 SWAP1 DIV DUP2 ADD SWAP3 DUP3 PUSH2 0x9A5 JUMPI PUSH1 0x0 DUP6 SSTORE PUSH2 0x9EC JUMP JUMPDEST DUP3 PUSH1 0x1F LT PUSH2 0x9BE JUMPI DUP1 MLOAD PUSH1 0xFF NOT AND DUP4 DUP1 ADD OR DUP6 SSTORE PUSH2 0x9EC JUMP JUMPDEST DUP3 DUP1 ADD PUSH1 0x1 ADD DUP6 SSTORE DUP3 ISZERO PUSH2 0x9EC JUMPI SWAP2 DUP3 ADD JUMPDEST DUP3 DUP2 GT ISZERO PUSH2 0x9EB JUMPI DUP3 MLOAD DUP3 SSTORE SWAP2 PUSH1 0x20 ADD SWAP2 SWAP1 PUSH1 0x1 ADD SWAP1 PUSH2 0x9D0 JUMP JUMPDEST JUMPDEST POP SWAP1 POP PUSH2 0x9F9 SWAP2 SWAP1 PUSH2 0x9FD JUMP JUMPDEST POP SWAP1 JUMP JUMPDEST JUMPDEST DUP1 DUP3 GT ISZERO PUSH2 0xA16 JUMPI PUSH1 0x0 DUP2 PUSH1 0x0 SWAP1 SSTORE POP PUSH1 0x1 ADD PUSH2 0x9FE JUMP JUMPDEST POP SWAP1 JUMP JUMPDEST PUSH1 0x0 PUSH2 0xA2D PUSH2 0xA28 DUP5 PUSH2 0xDCE JUMP JUMPDEST PUSH2 0xDA9 JUMP JUMPDEST SWAP1 POP DUP3 DUP2 MSTORE PUSH1 0x20 DUP2 ADD DUP5 DUP5 DUP5 ADD GT ISZERO PUSH2 0xA49 JUMPI PUSH2 0xA48 PUSH2 0x1044 JUMP JUMPDEST JUMPDEST PUSH2 0xA54 DUP5 DUP3 DUP6 PUSH2 0xEDE JUMP JUMPDEST POP SWAP4 SWAP3 POP POP POP JUMP JUMPDEST PUSH1 0x0 DUP2 CALLDATALOAD SWAP1 POP PUSH2 0xA6B DUP2 PUSH2 0x1078 JUMP JUMPDEST SWAP3 SWAP2 POP POP JUMP JUMPDEST PUSH1 0x0 DUP3 PUSH1 0x1F DUP4 ADD SLT PUSH2 0xA86 JUMPI PUSH2 0xA85 PUSH2 0x103F JUMP JUMPDEST JUMPDEST DUP2 CALLDATALOAD PUSH2 0xA96 DUP5 DUP3 PUSH1 0x20 DUP7 ADD PUSH2 0xA1A JUMP JUMPDEST SWAP2 POP POP SWAP3 SWAP2 POP POP JUMP JUMPDEST PUSH1 0x0 DUP2 CALLDATALOAD SWAP1 POP PUSH2 0xAAE DUP2 PUSH2 0x108F JUMP JUMPDEST SWAP3 SWAP2 POP POP JUMP JUMPDEST PUSH1 0x0 PUSH1 0x20 DUP3 DUP5 SUB SLT ISZERO PUSH2 0xACA JUMPI PUSH2 0xAC9 PUSH2 0x104E JUMP JUMPDEST JUMPDEST PUSH1 0x0 PUSH2 0xAD8 DUP5 DUP3 DUP6 ADD PUSH2 0xA5C JUMP JUMPDEST SWAP2 POP POP SWAP3 SWAP2 POP POP JUMP JUMPDEST PUSH1 0x0 DUP1 PUSH1 0x40 DUP4 DUP6 SUB SLT ISZERO PUSH2 0xAF8 JUMPI PUSH2 0xAF7 PUSH2 0x104E JUMP JUMPDEST JUMPDEST PUSH1 0x0 PUSH2 0xB06 DUP6 DUP3 DUP7 ADD PUSH2 0xA5C JUMP JUMPDEST SWAP3 POP POP PUSH1 0x20 DUP4 ADD CALLDATALOAD PUSH8 0xFFFFFFFFFFFFFFFF DUP2 GT ISZERO PUSH2 0xB27 JUMPI PUSH2 0xB26 PUSH2 0x1049 JUMP JUMPDEST JUMPDEST PUSH2 0xB33 DUP6 DUP3 DUP7 ADD PUSH2 0xA71 JUMP JUMPDEST SWAP2 POP POP SWAP3 POP SWAP3 SWAP1 POP JUMP JUMPDEST PUSH1 0x0 DUP1 PUSH1 0x0 PUSH1 0x60 DUP5 DUP7 SUB SLT ISZERO PUSH2 0xB56 JUMPI PUSH2 0xB55 PUSH2 0x104E JUMP JUMPDEST JUMPDEST PUSH1 0x0 PUSH2 0xB64 DUP7 DUP3 DUP8 ADD PUSH2 0xA5C JUMP JUMPDEST SWAP4 POP POP PUSH1 0x20 DUP5 ADD CALLDATALOAD PUSH8 0xFFFFFFFFFFFFFFFF DUP2 GT ISZERO PUSH2 0xB85 JUMPI PUSH2 0xB84 PUSH2 0x1049 JUMP JUMPDEST JUMPDEST PUSH2 0xB91 DUP7 DUP3 DUP8 ADD PUSH2 0xA71 JUMP JUMPDEST SWAP3 POP POP PUSH1 0x40 DUP5 ADD CALLDATALOAD PUSH8 0xFFFFFFFFFFFFFFFF DUP2 GT ISZERO PUSH2 0xBB2 JUMPI PUSH2 0xBB1 PUSH2 0x1049 JUMP JUMPDEST JUMPDEST PUSH2 0xBBE DUP7 DUP3 DUP8 ADD PUSH2 0xA71 JUMP JUMPDEST SWAP2 POP POP SWAP3 POP SWAP3 POP SWAP3 JUMP JUMPDEST PUSH1 0x0 PUSH1 0x20 DUP3 DUP5 SUB SLT ISZERO PUSH2 0xBDE JUMPI PUSH2 0xBDD PUSH2 0x104E JUMP JUMPDEST JUMPDEST PUSH1 0x0 DUP3 ADD CALLDATALOAD PUSH8 0xFFFFFFFFFFFFFFFF DUP2 GT ISZERO PUSH2 0xBFC JUMPI PUSH2 0xBFB PUSH2 0x1049 JUMP JUMPDEST JUMPDEST PUSH2 0xC08 DUP5 DUP3 DUP6 ADD PUSH2 0xA71 JUMP JUMPDEST SWAP2 POP POP SWAP3 SWAP2 POP POP JUMP JUMPDEST PUSH1 0x0 PUSH1 0x20 DUP3 DUP5 SUB SLT ISZERO PUSH2 0xC27 JUMPI PUSH2 0xC26 PUSH2 0x104E JUMP JUMPDEST JUMPDEST PUSH1 0x0 PUSH2 0xC35 DUP5 DUP3 DUP6 ADD PUSH2 0xA9F JUMP JUMPDEST SWAP2 POP POP SWAP3 SWAP2 POP POP JUMP JUMPDEST PUSH2 0xC47 DUP2 PUSH2 0xE71 JUMP JUMPDEST DUP3 MSTORE POP POP JUMP JUMPDEST PUSH2 0xC56 DUP2 PUSH2 0xE83 JUMP JUMPDEST DUP3 MSTORE POP POP JUMP JUMPDEST PUSH2 0xC65 DUP2 PUSH2 0xECC JUMP JUMPDEST DUP3 MSTORE POP POP JUMP JUMPDEST PUSH1 0x0 PUSH2 0xC76 DUP3 PUSH2 0xDFF JUMP JUMPDEST PUSH2 0xC80 DUP2 DUP6 PUSH2 0xE0A JUMP JUMPDEST SWAP4 POP PUSH2 0xC90 DUP2 DUP6 PUSH1 0x20 DUP7 ADD PUSH2 0xEED JUMP JUMPDEST PUSH2 0xC99 DUP2 PUSH2 0x1053 JUMP JUMPDEST DUP5 ADD SWAP2 POP POP SWAP3 SWAP2 POP POP JUMP JUMPDEST PUSH2 0xCAD DUP2 PUSH2 0xEC2 JUMP JUMPDEST DUP3 MSTORE POP POP JUMP JUMPDEST PUSH1 0x0 PUSH1 0x20 DUP3 ADD SWAP1 POP PUSH2 0xCC8 PUSH1 0x0 DUP4 ADD DUP5 PUSH2 0xC3E JUMP JUMPDEST SWAP3 SWAP2 POP POP JUMP JUMPDEST PUSH1 0x0 PUSH1 0x20 DUP3 ADD SWAP1 POP PUSH2 0xCE3 PUSH1 0x0 DUP4 ADD DUP5 PUSH2 0xC5C JUMP JUMPDEST SWAP3 SWAP2 POP POP JUMP JUMPDEST PUSH1 0x0 PUSH1 0x20 DUP3 ADD SWAP1 POP DUP2 DUP2 SUB PUSH1 0x0 DUP4 ADD MSTORE PUSH2 0xD03 DUP2 DUP5 PUSH2 0xC6B JUMP JUMPDEST SWAP1 POP SWAP3 SWAP2 POP POP JUMP JUMPDEST PUSH1 0x0 PUSH1 0x80 DUP3 ADD SWAP1 POP DUP2 DUP2 SUB PUSH1 0x0 DUP4 ADD MSTORE PUSH2 0xD25 DUP2 DUP8 PUSH2 0xC6B JUMP JUMPDEST SWAP1 POP PUSH2 0xD34 PUSH1 0x20 DUP4 ADD DUP7 PUSH2 0xC3E JUMP JUMPDEST PUSH2 0xD41 PUSH1 0x40 DUP4 ADD DUP6 PUSH2 0xCA4 JUMP JUMPDEST DUP2 DUP2 SUB PUSH1 0x60 DUP4 ADD MSTORE PUSH2 0xD53 DUP2 DUP5 PUSH2 0xC6B JUMP JUMPDEST SWAP1 POP SWAP6 SWAP5 POP POP POP POP POP JUMP JUMPDEST PUSH1 0x0 PUSH1 0x40 DUP3 ADD SWAP1 POP DUP2 DUP2 SUB PUSH1 0x0 DUP4 ADD MSTORE PUSH2 0xD78 DUP2 DUP6 PUSH2 0xC6B JUMP JUMPDEST SWAP1 POP PUSH2 0xD87 PUSH1 0x20 DUP4 ADD DUP5 PUSH2 0xC4D JUMP JUMPDEST SWAP4 SWAP3 POP POP POP JUMP JUMPDEST PUSH1 0x0 PUSH1 0x20 DUP3 ADD SWAP1 POP PUSH2 0xDA3 PUSH1 0x0 DUP4 ADD DUP5 PUSH2 0xCA4 JUMP JUMPDEST SWAP3 SWAP2 POP POP JUMP JUMPDEST PUSH1 0x0 PUSH2 0xDB3 PUSH2 0xDC4 JUMP JUMPDEST SWAP1 POP PUSH2 0xDBF DUP3 DUP3 PUSH2 0xF52 JUMP JUMPDEST SWAP2 SWAP1 POP JUMP JUMPDEST PUSH1 0x0 PUSH1 0x40 MLOAD SWAP1 POP SWAP1 JUMP JUMPDEST PUSH1 0x0 PUSH8 0xFFFFFFFFFFFFFFFF DUP3 GT ISZERO PUSH2 0xDE9 JUMPI PUSH2 0xDE8 PUSH2 0x1010 JUMP JUMPDEST JUMPDEST PUSH2 0xDF2 DUP3 PUSH2 0x1053 JUMP JUMPDEST SWAP1 POP PUSH1 0x20 DUP2 ADD SWAP1 POP SWAP2 SWAP1 POP JUMP JUMPDEST PUSH1 0x0 DUP2 MLOAD SWAP1 POP SWAP2 SWAP1 POP JUMP JUMPDEST PUSH1 0x0 DUP3 DUP3 MSTORE PUSH1 0x20 DUP3 ADD SWAP1 POP SWAP3 SWAP2 POP POP JUMP JUMPDEST PUSH1 0x0 PUSH2 0xE26 DUP3 PUSH2 0xEC2 JUMP JUMPDEST SWAP2 POP PUSH2 0xE31 DUP4 PUSH2 0xEC2 JUMP JUMPDEST SWAP3 POP DUP3 PUSH32 0xFFFFFFFFFFFFFFFFFFFFFFFFFFFFFFFFFFFFFFFFFFFFFFFFFFFFFFFFFFFFFFFF SUB DUP3 GT ISZERO PUSH2 0xE66 JUMPI PUSH2 0xE65 PUSH2 0xF83 JUMP JUMPDEST JUMPDEST DUP3 DUP3 ADD SWAP1 POP SWAP3 SWAP2 POP POP JUMP JUMPDEST PUSH1 0x0 PUSH2 0xE7C DUP3 PUSH2 0xEA2 JUMP JUMPDEST SWAP1 POP SWAP2 SWAP1 POP JUMP JUMPDEST PUSH1 0x0 DUP2 ISZERO ISZERO SWAP1 POP SWAP2 SWAP1 POP JUMP JUMPDEST PUSH1 0x0 DUP2 SWAP1 POP PUSH2 0xE9D DUP3 PUSH2 0x1064 JUMP JUMPDEST SWAP2 SWAP1 POP JUMP JUMPDEST PUSH1 0x0 PUSH20 0xFFFFFFFFFFFFFFFFFFFFFFFFFFFFFFFFFFFFFFFF DUP3 AND SWAP1 POP SWAP2 SWAP1 POP JUMP JUMPDEST PUSH1 0x0 DUP2 SWAP1 POP SWAP2 SWAP1 POP JUMP JUMPDEST PUSH1 0x0 PUSH2 0xED7 DUP3 PUSH2 0xE8F JUMP JUMPDEST SWAP1 POP SWAP2 SWAP1 POP JUMP JUMPDEST DUP3 DUP2 DUP4 CALLDATACOPY PUSH1 0x0 DUP4 DUP4 ADD MSTORE POP POP POP JUMP JUMPDEST PUSH1 0x0 JUMPDEST DUP4 DUP2 LT ISZERO PUSH2 0xF0B JUMPI DUP1 DUP3 ADD MLOAD DUP2 DUP5 ADD MSTORE PUSH1 0x20 DUP2 ADD SWAP1 POP PUSH2 0xEF0 JUMP JUMPDEST DUP4 DUP2 GT ISZERO PUSH2 0xF1A JUMPI PUSH1 0x0 DUP5 DUP5 ADD MSTORE JUMPDEST POP POP POP POP JUMP JUMPDEST PUSH1 0x0 PUSH1 0x2 DUP3 DIV SWAP1 POP PUSH1 0x1 DUP3 AND DUP1 PUSH2 0xF38 JUMPI PUSH1 0x7F DUP3 AND SWAP2 POP JUMPDEST PUSH1 0x20 DUP3 LT DUP2 EQ ISZERO PUSH2 0xF4C JUMPI PUSH2 0xF4B PUSH2 0xFE1 JUMP JUMPDEST JUMPDEST POP SWAP2 SWAP1 POP JUMP JUMPDEST PUSH2 0xF5B DUP3 PUSH2 0x1053 JUMP JUMPDEST DUP2 ADD DUP2 DUP2 LT PUSH8 0xFFFFFFFFFFFFFFFF DUP3 GT OR ISZERO PUSH2 0xF7A JUMPI PUSH2 0xF79 PUSH2 0x1010 JUMP JUMPDEST JUMPDEST DUP1 PUSH1 0x40 MSTORE POP POP POP JUMP JUMPDEST PUSH32 0x4E487B7100000000000000000000000000000000000000000000000000000000 PUSH1 0x0 MSTORE PUSH1 0x11 PUSH1 0x4 MSTORE PUSH1 0x24 PUSH1 0x0 REVERT JUMPDEST PUSH32 0x4E487B7100000000000000000000000000000000000000000000000000000000 PUSH1 0x0 MSTORE PUSH1 0x21 PUSH1 0x4 MSTORE PUSH1 0x24 PUSH1 0x0 REVERT JUMPDEST PUSH32 0x4E487B7100000000000000000000000000000000000000000000000000000000 PUSH1 0x0 MSTORE PUSH1 0x22 PUSH1 0x4 MSTORE PUSH1 0x24 PUSH1 0x0 REVERT JUMPDEST PUSH32 0x4E487B7100000000000000000000000000000000000000000000000000000000 PUSH1 0x0 MSTORE PUSH1 0x41 PUSH1 0x4 MSTORE PUSH1 0x24 PUSH1 0x0 REVERT JUMPDEST PUSH1 0x0 DUP1 REVERT JUMPDEST PUSH1 0x0 DUP1 REVERT JUMPDEST PUSH1 0x0 DUP1 REVERT JUMPDEST PUSH1 0x0 DUP1 REVERT JUMPDEST PUSH1 0x0 PUSH1 0x1F NOT PUSH1 0x1F DUP4 ADD AND SWAP1 POP SWAP2 SWAP1 POP JUMP JUMPDEST PUSH1 0x3 DUP2 LT PUSH2 0x1075 JUMPI PUSH2 0x1074 PUSH2 0xFB2 JUMP JUMPDEST JUMPDEST POP JUMP JUMPDEST PUSH2 0x1081 DUP2 PUSH2 0xE71 JUMP JUMPDEST DUP2 EQ PUSH2 0x108C JUMPI PUSH1 0x0 DUP1 REVERT JUMPDEST POP JUMP JUMPDEST PUSH2 0x1098 DUP2 PUSH2 0xEC2 JUMP JUMPDEST DUP2 EQ PUSH2 0x10A3 JUMPI PUSH1 0x0 DUP1 REVERT JUMPDEST POP JUMP INVALID LOG2 PUSH5 0x6970667358 0x22 SLT KECCAK256 PUSH15 0x38DE78D63016697CD4DE004A6A3825 PUSH32 0x6C77D72022EB59B8F9FCFCCB42554B64736F6C63430008070033000000000000 "
				},
				"gasEstimates": {
					"creation": {
						"codeDepositCost": "863200",
						"executionCost": "infinite",
						"totalCost": "infinite"
					},
					"external": {
						"AddressToVoter(address)": "infinite",
						"CandidateList(uint256)": "infinite",
						"ElectionName()": "infinite",
						"OragnizerAddress()": "2630",
						"SymbolToCandidate(string)": "infinite",
						"VoteCount(uint256)": "infinite",
						"addCandidates(address,string,string)": "infinite",
						"addVoter(address,string)": "infinite",
						"candidatesCount()": "2496",
						"state()": "2648",
						"totalVoters()": "2540",
						"totalVotes()": "2452"
					}
				},
				"methodIdentifiers": {
					"AddressToVoter(address)": "12c06342",
					"CandidateList(uint256)": "72753be5",
					"ElectionName()": "80843e25",
					"OragnizerAddress()": "8949e009",
					"SymbolToCandidate(string)": "46702b16",
					"VoteCount(uint256)": "0132be09",
					"addCandidates(address,string,string)": "62c49251",
					"addVoter(address,string)": "d9e95a98",
					"candidatesCount()": "2d35a8a2",
					"state()": "c19d93fb",
					"totalVoters()": "5f5300ff",
					"totalVotes()": "0d15fd77"
				}
			},
			"storageLayout": {
				"storage": [
					{
						"astId": 25,
						"contract": "contracts/Voting.sol:Voting",
						"label": "AddressToVoter",
						"offset": 0,
						"slot": "0",
						"type": "t_mapping(t_address,t_struct(Voter)11_storage)"
					},
					{
						"astId": 30,
						"contract": "contracts/Voting.sol:Voting",
						"label": "Votes",
						"offset": 0,
						"slot": "1",
						"type": "t_mapping(t_uint256,t_struct(Vote)6_storage)"
					},
					{
						"astId": 34,
						"contract": "contracts/Voting.sol:Voting",
						"label": "VoteCount",
						"offset": 0,
						"slot": "2",
						"type": "t_mapping(t_uint256,t_uint256)"
					},
					{
						"astId": 39,
						"contract": "contracts/Voting.sol:Voting",
						"label": "CandidateList",
						"offset": 0,
						"slot": "3",
						"type": "t_mapping(t_uint256,t_struct(Candidate)20_storage)"
					},
					{
						"astId": 44,
						"contract": "contracts/Voting.sol:Voting",
						"label": "SymbolToCandidate",
						"offset": 0,
						"slot": "4",
						"type": "t_mapping(t_string_memory_ptr,t_struct(Candidate)20_storage)"
					},
					{
						"astId": 46,
						"contract": "contracts/Voting.sol:Voting",
						"label": "candidatesCount",
						"offset": 0,
						"slot": "5",
						"type": "t_uint256"
					},
					{
						"astId": 48,
						"contract": "contracts/Voting.sol:Voting",
						"label": "totalVoters",
						"offset": 0,
						"slot": "6",
						"type": "t_uint256"
					},
					{
						"astId": 50,
						"contract": "contracts/Voting.sol:Voting",
						"label": "totalVotes",
						"offset": 0,
						"slot": "7",
						"type": "t_uint256"
					},
					{
						"astId": 57,
						"contract": "contracts/Voting.sol:Voting",
						"label": "state",
						"offset": 0,
						"slot": "8",
						"type": "t_enum(State)54"
					},
					{
						"astId": 59,
						"contract": "contracts/Voting.sol:Voting",
						"label": "OragnizerAddress",
						"offset": 1,
						"slot": "8",
						"type": "t_address"
					},
					{
						"astId": 61,
						"contract": "contracts/Voting.sol:Voting",
						"label": "ElectionName",
						"offset": 0,
						"slot": "9",
						"type": "t_string_storage"
					}
				],
				"types": {
					"t_address": {
						"encoding": "inplace",
						"label": "address",
						"numberOfBytes": "20"
					},
					"t_bool": {
						"encoding": "inplace",
						"label": "bool",
						"numberOfBytes": "1"
					},
					"t_enum(State)54": {
						"encoding": "inplace",
						"label": "enum Voting.State",
						"numberOfBytes": "1"
					},
					"t_mapping(t_address,t_struct(Voter)11_storage)": {
						"encoding": "mapping",
						"key": "t_address",
						"label": "mapping(address => struct Voting.Voter)",
						"numberOfBytes": "32",
						"value": "t_struct(Voter)11_storage"
					},
					"t_mapping(t_string_memory_ptr,t_struct(Candidate)20_storage)": {
						"encoding": "mapping",
						"key": "t_string_memory_ptr",
						"label": "mapping(string => struct Voting.Candidate)",
						"numberOfBytes": "32",
						"value": "t_struct(Candidate)20_storage"
					},
					"t_mapping(t_uint256,t_struct(Candidate)20_storage)": {
						"encoding": "mapping",
						"key": "t_uint256",
						"label": "mapping(uint256 => struct Voting.Candidate)",
						"numberOfBytes": "32",
						"value": "t_struct(Candidate)20_storage"
					},
					"t_mapping(t_uint256,t_struct(Vote)6_storage)": {
						"encoding": "mapping",
						"key": "t_uint256",
						"label": "mapping(uint256 => struct Voting.Vote)",
						"numberOfBytes": "32",
						"value": "t_struct(Vote)6_storage"
					},
					"t_mapping(t_uint256,t_uint256)": {
						"encoding": "mapping",
						"key": "t_uint256",
						"label": "mapping(uint256 => uint256)",
						"numberOfBytes": "32",
						"value": "t_uint256"
					},
					"t_string_memory_ptr": {
						"encoding": "bytes",
						"label": "string",
						"numberOfBytes": "32"
					},
					"t_string_storage": {
						"encoding": "bytes",
						"label": "string",
						"numberOfBytes": "32"
					},
					"t_struct(Candidate)20_storage": {
						"encoding": "inplace",
						"label": "struct Voting.Candidate",
						"members": [
							{
								"astId": 13,
								"contract": "contracts/Voting.sol:Voting",
								"label": "candidateName",
								"offset": 0,
								"slot": "0",
								"type": "t_string_storage"
							},
							{
								"astId": 15,
								"contract": "contracts/Voting.sol:Voting",
								"label": "candidateAddress",
								"offset": 0,
								"slot": "1",
								"type": "t_address"
							},
							{
								"astId": 17,
								"contract": "contracts/Voting.sol:Voting",
								"label": "numberOfVotes",
								"offset": 0,
								"slot": "2",
								"type": "t_uint256"
							},
							{
								"astId": 19,
								"contract": "contracts/Voting.sol:Voting",
								"label": "symbol",
								"offset": 0,
								"slot": "3",
								"type": "t_string_storage"
							}
						],
						"numberOfBytes": "128"
					},
					"t_struct(Vote)6_storage": {
						"encoding": "inplace",
						"label": "struct Voting.Vote",
						"members": [
							{
								"astId": 3,
								"contract": "contracts/Voting.sol:Voting",
								"label": "voterAddress",
								"offset": 0,
								"slot": "0",
								"type": "t_address"
							},
							{
								"astId": 5,
								"contract": "contracts/Voting.sol:Voting",
								"label": "symbol",
								"offset": 0,
								"slot": "1",
								"type": "t_uint256"
							}
						],
						"numberOfBytes": "64"
					},
					"t_struct(Voter)11_storage": {
						"encoding": "inplace",
						"label": "struct Voting.Voter",
						"members": [
							{
								"astId": 8,
								"contract": "contracts/Voting.sol:Voting",
								"label": "voterName",
								"offset": 0,
								"slot": "0",
								"type": "t_string_storage"
							},
							{
								"astId": 10,
								"contract": "contracts/Voting.sol:Voting",
								"label": "voted",
								"offset": 0,
								"slot": "1",
								"type": "t_bool"
							}
						],
						"numberOfBytes": "64"
					},
					"t_uint256": {
						"encoding": "inplace",
						"label": "uint256",
						"numberOfBytes": "32"
					}
				}
			},
			"userdoc": {
				"kind": "user",
				"methods": {},
				"version": 1
			}
		}
	}
}