{
	"Voting/contracts/Voting.sol": {
		"Voting": {
			"abi": [
				{
					"inputs": [
						{
							"internalType": "string",
							"name": "_electionName",
							"type": "string"
						}
					],
					"stateMutability": "nonpayable",
					"type": "constructor"
				},
				{
					"inputs": [
						{
							"internalType": "address",
							"name": "",
							"type": "address"
						}
					],
					"name": "AddressToVoter",
					"outputs": [
						{
							"internalType": "string",
							"name": "voterName",
							"type": "string"
						},
						{
							"internalType": "address",
							"name": "voterAddress",
							"type": "address"
						},
						{
							"internalType": "bool",
							"name": "voted",
							"type": "bool"
						}
					],
					"stateMutability": "view",
					"type": "function"
				},
				{
					"inputs": [
						{
							"internalType": "uint256",
							"name": "",
							"type": "uint256"
						}
					],
					"name": "CandidateList",
					"outputs": [
						{
							"internalType": "string",
							"name": "candidateName",
							"type": "string"
						},
						{
							"internalType": "address",
							"name": "candidateAddress",
							"type": "address"
						},
						{
							"internalType": "uint256",
							"name": "numberOfVotes",
							"type": "uint256"
						},
						{
							"internalType": "string",
							"name": "symbol",
							"type": "string"
						}
					],
					"stateMutability": "view",
					"type": "function"
				},
				{
					"inputs": [],
					"name": "ElectionName",
					"outputs": [
						{
							"internalType": "string",
							"name": "",
							"type": "string"
						}
					],
					"stateMutability": "view",
					"type": "function"
				},
				{
					"inputs": [],
					"name": "OragnizerAddress",
					"outputs": [
						{
							"internalType": "address",
							"name": "",
							"type": "address"
						}
					],
					"stateMutability": "view",
					"type": "function"
				},
				{
					"inputs": [
						{
							"internalType": "string",
							"name": "",
							"type": "string"
						}
					],
					"name": "SymbolToCandidate",
					"outputs": [
						{
							"internalType": "string",
							"name": "candidateName",
							"type": "string"
						},
						{
							"internalType": "address",
							"name": "candidateAddress",
							"type": "address"
						},
						{
							"internalType": "uint256",
							"name": "numberOfVotes",
							"type": "uint256"
						},
						{
							"internalType": "string",
							"name": "symbol",
							"type": "string"
						}
					],
					"stateMutability": "view",
					"type": "function"
				},
				{
					"inputs": [
						{
							"internalType": "address",
							"name": "",
							"type": "address"
						}
					],
					"name": "VoteCount",
					"outputs": [
						{
							"internalType": "uint256",
							"name": "",
							"type": "uint256"
						}
					],
					"stateMutability": "view",
					"type": "function"
				},
				{
					"inputs": [
						{
							"internalType": "address",
							"name": "_candidateAddress",
							"type": "address"
						},
						{
							"internalType": "string",
							"name": "_candidateName",
							"type": "string"
						},
						{
							"internalType": "string",
							"name": "_symbol",
							"type": "string"
						}
					],
					"name": "addCandidates",
					"outputs": [],
					"stateMutability": "nonpayable",
					"type": "function"
				},
				{
					"inputs": [
						{
							"internalType": "address",
							"name": "_voterAddress",
							"type": "address"
						},
						{
							"internalType": "string",
							"name": "_voterName",
							"type": "string"
						}
					],
					"name": "addVoter",
					"outputs": [],
					"stateMutability": "nonpayable",
					"type": "function"
				},
				{
					"inputs": [],
					"name": "candidatesCount",
					"outputs": [
						{
							"internalType": "uint256",
							"name": "",
							"type": "uint256"
						}
					],
					"stateMutability": "view",
					"type": "function"
				},
				{
					"inputs": [
						{
							"internalType": "string",
							"name": "_symbol",
							"type": "string"
						}
					],
					"name": "getCandidate",
					"outputs": [
						{
							"components": [
								{
									"internalType": "string",
									"name": "candidateName",
									"type": "string"
								},
								{
									"internalType": "address",
									"name": "candidateAddress",
									"type": "address"
								},
								{
									"internalType": "uint256",
									"name": "numberOfVotes",
									"type": "uint256"
								},
								{
									"internalType": "string",
									"name": "symbol",
									"type": "string"
								}
							],
							"internalType": "struct Voting.Candidate",
							"name": "",
							"type": "tuple"
						}
					],
					"stateMutability": "view",
					"type": "function"
				},
				{
					"inputs": [],
					"name": "getCandidates",
					"outputs": [
						{
							"components": [
								{
									"internalType": "string",
									"name": "candidateName",
									"type": "string"
								},
								{
									"internalType": "address",
									"name": "candidateAddress",
									"type": "address"
								},
								{
									"internalType": "uint256",
									"name": "numberOfVotes",
									"type": "uint256"
								},
								{
									"internalType": "string",
									"name": "symbol",
									"type": "string"
								}
							],
							"internalType": "struct Voting.Candidate[]",
							"name": "",
							"type": "tuple[]"
						}
					],
					"stateMutability": "view",
					"type": "function"
				},
				{
					"inputs": [],
					"name": "state",
					"outputs": [
						{
							"internalType": "enum Voting.State",
							"name": "",
							"type": "uint8"
						}
					],
					"stateMutability": "view",
					"type": "function"
				},
				{
					"inputs": [],
					"name": "totalVoters",
					"outputs": [
						{
							"internalType": "uint256",
							"name": "",
							"type": "uint256"
						}
					],
					"stateMutability": "view",
					"type": "function"
				},
				{
					"inputs": [],
					"name": "totalVotes",
					"outputs": [
						{
							"internalType": "uint256",
							"name": "",
							"type": "uint256"
						}
					],
					"stateMutability": "view",
					"type": "function"
				}
			],
			"devdoc": {
				"kind": "dev",
				"methods": {},
				"version": 1
			},
			"evm": {
				"assembly": "    /* \"Voting/contracts/Voting.sol\":62:2672  contract Voting {\r... */\n  mstore(0x40, 0x80)\n    /* \"Voting/contracts/Voting.sol\":962:1127  constructor(string memory _electionName){\r... */\n  callvalue\n  dup1\n  iszero\n  tag_1\n  jumpi\n  0x00\n  dup1\n  revert\ntag_1:\n  pop\n  mload(0x40)\n  sub(codesize, bytecodeSize)\n  dup1\n  bytecodeSize\n  dup4\n  codecopy\n  dup2\n  dup2\n  add\n  0x40\n  mstore\n  dup2\n  add\n  swap1\n  tag_2\n  swap2\n  swap1\n  tag_3\n  jump\t// in\ntag_2:\n    /* \"Voting/contracts/Voting.sol\":1032:1042  msg.sender */\n  caller\n    /* \"Voting/contracts/Voting.sol\":1013:1029  OragnizerAddress */\n  0x08\n  0x01\n    /* \"Voting/contracts/Voting.sol\":1013:1042  OragnizerAddress = msg.sender */\n  0x0100\n  exp\n  dup2\n  sload\n  dup2\n  0xffffffffffffffffffffffffffffffffffffffff\n  mul\n  not\n  and\n  swap1\n  dup4\n  0xffffffffffffffffffffffffffffffffffffffff\n  and\n  mul\n  or\n  swap1\n  sstore\n  pop\n    /* \"Voting/contracts/Voting.sol\":1068:1081  _electionName */\n  dup1\n    /* \"Voting/contracts/Voting.sol\":1053:1065  ElectionName */\n  0x09\n    /* \"Voting/contracts/Voting.sol\":1053:1081  ElectionName = _electionName */\n  swap1\n  dup1\n  mload\n  swap1\n  0x20\n  add\n  swap1\n  tag_6\n  swap3\n  swap2\n  swap1\n  tag_7\n  jump\t// in\ntag_6:\n  pop\n    /* \"Voting/contracts/Voting.sol\":1102:1115  State.Created */\n  0x00\n    /* \"Voting/contracts/Voting.sol\":1094:1099  state */\n  0x08\n  0x00\n    /* \"Voting/contracts/Voting.sol\":1094:1115  state = State.Created */\n  0x0100\n  exp\n  dup2\n  sload\n  dup2\n  0xff\n  mul\n  not\n  and\n  swap1\n  dup4\n  0x02\n  dup2\n  gt\n  iszero\n  tag_8\n  jumpi\n  tag_9\n  tag_10\n  jump\t// in\ntag_9:\ntag_8:\n  mul\n  or\n  swap1\n  sstore\n  pop\n    /* \"Voting/contracts/Voting.sol\":962:1127  constructor(string memory _electionName){\r... */\n  pop\n    /* \"Voting/contracts/Voting.sol\":62:2672  contract Voting {\r... */\n  jump(tag_11)\ntag_7:\n  dup3\n  dup1\n  sload\n  tag_12\n  swap1\n  tag_13\n  jump\t// in\ntag_12:\n  swap1\n  0x00\n  mstore\n  keccak256(0x00, 0x20)\n  swap1\n  0x1f\n  add\n  0x20\n  swap1\n  div\n  dup2\n  add\n  swap3\n  dup3\n  tag_15\n  jumpi\n  0x00\n  dup6\n  sstore\n  jump(tag_14)\ntag_15:\n  dup3\n  0x1f\n  lt\n  tag_16\n  jumpi\n  dup1\n  mload\n  not(0xff)\n  and\n  dup4\n  dup1\n  add\n  or\n  dup6\n  sstore\n  jump(tag_14)\ntag_16:\n  dup3\n  dup1\n  add\n  0x01\n  add\n  dup6\n  sstore\n  dup3\n  iszero\n  tag_14\n  jumpi\n  swap2\n  dup3\n  add\ntag_17:\n  dup3\n  dup2\n  gt\n  iszero\n  tag_18\n  jumpi\n  dup3\n  mload\n  dup3\n  sstore\n  swap2\n  0x20\n  add\n  swap2\n  swap1\n  0x01\n  add\n  swap1\n  jump(tag_17)\ntag_18:\ntag_14:\n  pop\n  swap1\n  pop\n  tag_19\n  swap2\n  swap1\n  tag_20\n  jump\t// in\ntag_19:\n  pop\n  swap1\n  jump\t// out\ntag_20:\ntag_21:\n  dup1\n  dup3\n  gt\n  iszero\n  tag_22\n  jumpi\n  0x00\n  dup2\n  0x00\n  swap1\n  sstore\n  pop\n  0x01\n  add\n  jump(tag_21)\ntag_22:\n  pop\n  swap1\n  jump\t// out\n    /* \"#utility.yul\":7:428   */\ntag_24:\n    /* \"#utility.yul\":96:101   */\n  0x00\n    /* \"#utility.yul\":121:187   */\n  tag_26\n    /* \"#utility.yul\":137:186   */\n  tag_27\n    /* \"#utility.yul\":179:185   */\n  dup5\n    /* \"#utility.yul\":137:186   */\n  tag_28\n  jump\t// in\ntag_27:\n    /* \"#utility.yul\":121:187   */\n  tag_29\n  jump\t// in\ntag_26:\n    /* \"#utility.yul\":112:187   */\n  swap1\n  pop\n    /* \"#utility.yul\":210:216   */\n  dup3\n    /* \"#utility.yul\":203:208   */\n  dup2\n    /* \"#utility.yul\":196:217   */\n  mstore\n    /* \"#utility.yul\":248:252   */\n  0x20\n    /* \"#utility.yul\":241:246   */\n  dup2\n    /* \"#utility.yul\":237:253   */\n  add\n    /* \"#utility.yul\":286:289   */\n  dup5\n    /* \"#utility.yul\":277:283   */\n  dup5\n    /* \"#utility.yul\":272:275   */\n  dup5\n    /* \"#utility.yul\":268:284   */\n  add\n    /* \"#utility.yul\":265:290   */\n  gt\n    /* \"#utility.yul\":262:374   */\n  iszero\n  tag_30\n  jumpi\n    /* \"#utility.yul\":293:372   */\n  tag_31\n  tag_32\n  jump\t// in\ntag_31:\n    /* \"#utility.yul\":262:374   */\ntag_30:\n    /* \"#utility.yul\":383:422   */\n  tag_33\n    /* \"#utility.yul\":415:421   */\n  dup5\n    /* \"#utility.yul\":410:413   */\n  dup3\n    /* \"#utility.yul\":405:408   */\n  dup6\n    /* \"#utility.yul\":383:422   */\n  tag_34\n  jump\t// in\ntag_33:\n    /* \"#utility.yul\":102:428   */\n  pop\n    /* \"#utility.yul\":7:428   */\n  swap4\n  swap3\n  pop\n  pop\n  pop\n  jump\t// out\n    /* \"#utility.yul\":448:803   */\ntag_35:\n    /* \"#utility.yul\":515:520   */\n  0x00\n    /* \"#utility.yul\":564:567   */\n  dup3\n    /* \"#utility.yul\":557:561   */\n  0x1f\n    /* \"#utility.yul\":549:555   */\n  dup4\n    /* \"#utility.yul\":545:562   */\n  add\n    /* \"#utility.yul\":541:568   */\n  slt\n    /* \"#utility.yul\":531:653   */\n  tag_37\n  jumpi\n    /* \"#utility.yul\":572:651   */\n  tag_38\n  tag_39\n  jump\t// in\ntag_38:\n    /* \"#utility.yul\":531:653   */\ntag_37:\n    /* \"#utility.yul\":682:688   */\n  dup2\n    /* \"#utility.yul\":676:689   */\n  mload\n    /* \"#utility.yul\":707:797   */\n  tag_40\n    /* \"#utility.yul\":793:796   */\n  dup5\n    /* \"#utility.yul\":785:791   */\n  dup3\n    /* \"#utility.yul\":778:782   */\n  0x20\n    /* \"#utility.yul\":770:776   */\n  dup7\n    /* \"#utility.yul\":766:783   */\n  add\n    /* \"#utility.yul\":707:797   */\n  tag_24\n  jump\t// in\ntag_40:\n    /* \"#utility.yul\":698:797   */\n  swap2\n  pop\n    /* \"#utility.yul\":521:803   */\n  pop\n    /* \"#utility.yul\":448:803   */\n  swap3\n  swap2\n  pop\n  pop\n  jump\t// out\n    /* \"#utility.yul\":809:1333   */\ntag_3:\n    /* \"#utility.yul\":889:895   */\n  0x00\n    /* \"#utility.yul\":938:940   */\n  0x20\n    /* \"#utility.yul\":926:935   */\n  dup3\n    /* \"#utility.yul\":917:924   */\n  dup5\n    /* \"#utility.yul\":913:936   */\n  sub\n    /* \"#utility.yul\":909:941   */\n  slt\n    /* \"#utility.yul\":906:1025   */\n  iszero\n  tag_42\n  jumpi\n    /* \"#utility.yul\":944:1023   */\n  tag_43\n  tag_44\n  jump\t// in\ntag_43:\n    /* \"#utility.yul\":906:1025   */\ntag_42:\n    /* \"#utility.yul\":1085:1086   */\n  0x00\n    /* \"#utility.yul\":1074:1083   */\n  dup3\n    /* \"#utility.yul\":1070:1087   */\n  add\n    /* \"#utility.yul\":1064:1088   */\n  mload\n    /* \"#utility.yul\":1115:1133   */\n  0xffffffffffffffff\n    /* \"#utility.yul\":1107:1113   */\n  dup2\n    /* \"#utility.yul\":1104:1134   */\n  gt\n    /* \"#utility.yul\":1101:1218   */\n  iszero\n  tag_45\n  jumpi\n    /* \"#utility.yul\":1137:1216   */\n  tag_46\n  tag_47\n  jump\t// in\ntag_46:\n    /* \"#utility.yul\":1101:1218   */\ntag_45:\n    /* \"#utility.yul\":1242:1316   */\n  tag_48\n    /* \"#utility.yul\":1308:1315   */\n  dup5\n    /* \"#utility.yul\":1299:1305   */\n  dup3\n    /* \"#utility.yul\":1288:1297   */\n  dup6\n    /* \"#utility.yul\":1284:1306   */\n  add\n    /* \"#utility.yul\":1242:1316   */\n  tag_35\n  jump\t// in\ntag_48:\n    /* \"#utility.yul\":1232:1316   */\n  swap2\n  pop\n    /* \"#utility.yul\":1035:1326   */\n  pop\n    /* \"#utility.yul\":809:1333   */\n  swap3\n  swap2\n  pop\n  pop\n  jump\t// out\n    /* \"#utility.yul\":1339:1468   */\ntag_29:\n    /* \"#utility.yul\":1373:1379   */\n  0x00\n    /* \"#utility.yul\":1400:1420   */\n  tag_50\n  tag_51\n  jump\t// in\ntag_50:\n    /* \"#utility.yul\":1390:1420   */\n  swap1\n  pop\n    /* \"#utility.yul\":1429:1462   */\n  tag_52\n    /* \"#utility.yul\":1457:1461   */\n  dup3\n    /* \"#utility.yul\":1449:1455   */\n  dup3\n    /* \"#utility.yul\":1429:1462   */\n  tag_53\n  jump\t// in\ntag_52:\n    /* \"#utility.yul\":1339:1468   */\n  swap2\n  swap1\n  pop\n  jump\t// out\n    /* \"#utility.yul\":1474:1549   */\ntag_51:\n    /* \"#utility.yul\":1507:1513   */\n  0x00\n    /* \"#utility.yul\":1540:1542   */\n  0x40\n    /* \"#utility.yul\":1534:1543   */\n  mload\n    /* \"#utility.yul\":1524:1543   */\n  swap1\n  pop\n    /* \"#utility.yul\":1474:1549   */\n  swap1\n  jump\t// out\n    /* \"#utility.yul\":1555:1863   */\ntag_28:\n    /* \"#utility.yul\":1617:1621   */\n  0x00\n    /* \"#utility.yul\":1707:1725   */\n  0xffffffffffffffff\n    /* \"#utility.yul\":1699:1705   */\n  dup3\n    /* \"#utility.yul\":1696:1726   */\n  gt\n    /* \"#utility.yul\":1693:1749   */\n  iszero\n  tag_56\n  jumpi\n    /* \"#utility.yul\":1729:1747   */\n  tag_57\n  tag_58\n  jump\t// in\ntag_57:\n    /* \"#utility.yul\":1693:1749   */\ntag_56:\n    /* \"#utility.yul\":1767:1796   */\n  tag_59\n    /* \"#utility.yul\":1789:1795   */\n  dup3\n    /* \"#utility.yul\":1767:1796   */\n  tag_60\n  jump\t// in\ntag_59:\n    /* \"#utility.yul\":1759:1796   */\n  swap1\n  pop\n    /* \"#utility.yul\":1851:1855   */\n  0x20\n    /* \"#utility.yul\":1845:1849   */\n  dup2\n    /* \"#utility.yul\":1841:1856   */\n  add\n    /* \"#utility.yul\":1833:1856   */\n  swap1\n  pop\n    /* \"#utility.yul\":1555:1863   */\n  swap2\n  swap1\n  pop\n  jump\t// out\n    /* \"#utility.yul\":1869:2176   */\ntag_34:\n    /* \"#utility.yul\":1937:1938   */\n  0x00\n    /* \"#utility.yul\":1947:2060   */\ntag_62:\n    /* \"#utility.yul\":1961:1967   */\n  dup4\n    /* \"#utility.yul\":1958:1959   */\n  dup2\n    /* \"#utility.yul\":1955:1968   */\n  lt\n    /* \"#utility.yul\":1947:2060   */\n  iszero\n  tag_64\n  jumpi\n    /* \"#utility.yul\":2046:2047   */\n  dup1\n    /* \"#utility.yul\":2041:2044   */\n  dup3\n    /* \"#utility.yul\":2037:2048   */\n  add\n    /* \"#utility.yul\":2031:2049   */\n  mload\n    /* \"#utility.yul\":2027:2028   */\n  dup2\n    /* \"#utility.yul\":2022:2025   */\n  dup5\n    /* \"#utility.yul\":2018:2029   */\n  add\n    /* \"#utility.yul\":2011:2050   */\n  mstore\n    /* \"#utility.yul\":1983:1985   */\n  0x20\n    /* \"#utility.yul\":1980:1981   */\n  dup2\n    /* \"#utility.yul\":1976:1986   */\n  add\n    /* \"#utility.yul\":1971:1986   */\n  swap1\n  pop\n    /* \"#utility.yul\":1947:2060   */\n  jump(tag_62)\ntag_64:\n    /* \"#utility.yul\":2078:2084   */\n  dup4\n    /* \"#utility.yul\":2075:2076   */\n  dup2\n    /* \"#utility.yul\":2072:2085   */\n  gt\n    /* \"#utility.yul\":2069:2170   */\n  iszero\n  tag_65\n  jumpi\n    /* \"#utility.yul\":2158:2159   */\n  0x00\n    /* \"#utility.yul\":2149:2155   */\n  dup5\n    /* \"#utility.yul\":2144:2147   */\n  dup5\n    /* \"#utility.yul\":2140:2156   */\n  add\n    /* \"#utility.yul\":2133:2160   */\n  mstore\n    /* \"#utility.yul\":2069:2170   */\ntag_65:\n    /* \"#utility.yul\":1918:2176   */\n  pop\n    /* \"#utility.yul\":1869:2176   */\n  pop\n  pop\n  pop\n  jump\t// out\n    /* \"#utility.yul\":2182:2502   */\ntag_13:\n    /* \"#utility.yul\":2226:2232   */\n  0x00\n    /* \"#utility.yul\":2263:2264   */\n  0x02\n    /* \"#utility.yul\":2257:2261   */\n  dup3\n    /* \"#utility.yul\":2253:2265   */\n  div\n    /* \"#utility.yul\":2243:2265   */\n  swap1\n  pop\n    /* \"#utility.yul\":2310:2311   */\n  0x01\n    /* \"#utility.yul\":2304:2308   */\n  dup3\n    /* \"#utility.yul\":2300:2312   */\n  and\n    /* \"#utility.yul\":2331:2349   */\n  dup1\n    /* \"#utility.yul\":2321:2402   */\n  tag_67\n  jumpi\n    /* \"#utility.yul\":2387:2391   */\n  0x7f\n    /* \"#utility.yul\":2379:2385   */\n  dup3\n    /* \"#utility.yul\":2375:2392   */\n  and\n    /* \"#utility.yul\":2365:2392   */\n  swap2\n  pop\n    /* \"#utility.yul\":2321:2402   */\ntag_67:\n    /* \"#utility.yul\":2449:2451   */\n  0x20\n    /* \"#utility.yul\":2441:2447   */\n  dup3\n    /* \"#utility.yul\":2438:2452   */\n  lt\n    /* \"#utility.yul\":2418:2436   */\n  dup2\n    /* \"#utility.yul\":2415:2453   */\n  eq\n    /* \"#utility.yul\":2412:2496   */\n  iszero\n  tag_68\n  jumpi\n    /* \"#utility.yul\":2468:2486   */\n  tag_69\n  tag_70\n  jump\t// in\ntag_69:\n    /* \"#utility.yul\":2412:2496   */\ntag_68:\n    /* \"#utility.yul\":2233:2502   */\n  pop\n    /* \"#utility.yul\":2182:2502   */\n  swap2\n  swap1\n  pop\n  jump\t// out\n    /* \"#utility.yul\":2508:2789   */\ntag_53:\n    /* \"#utility.yul\":2591:2618   */\n  tag_72\n    /* \"#utility.yul\":2613:2617   */\n  dup3\n    /* \"#utility.yul\":2591:2618   */\n  tag_60\n  jump\t// in\ntag_72:\n    /* \"#utility.yul\":2583:2589   */\n  dup2\n    /* \"#utility.yul\":2579:2619   */\n  add\n    /* \"#utility.yul\":2721:2727   */\n  dup2\n    /* \"#utility.yul\":2709:2719   */\n  dup2\n    /* \"#utility.yul\":2706:2728   */\n  lt\n    /* \"#utility.yul\":2685:2703   */\n  0xffffffffffffffff\n    /* \"#utility.yul\":2673:2683   */\n  dup3\n    /* \"#utility.yul\":2670:2704   */\n  gt\n    /* \"#utility.yul\":2667:2729   */\n  or\n    /* \"#utility.yul\":2664:2752   */\n  iszero\n  tag_73\n  jumpi\n    /* \"#utility.yul\":2732:2750   */\n  tag_74\n  tag_58\n  jump\t// in\ntag_74:\n    /* \"#utility.yul\":2664:2752   */\ntag_73:\n    /* \"#utility.yul\":2772:2782   */\n  dup1\n    /* \"#utility.yul\":2768:2770   */\n  0x40\n    /* \"#utility.yul\":2761:2783   */\n  mstore\n    /* \"#utility.yul\":2551:2789   */\n  pop\n    /* \"#utility.yul\":2508:2789   */\n  pop\n  pop\n  jump\t// out\n    /* \"#utility.yul\":2795:2975   */\ntag_10:\n    /* \"#utility.yul\":2843:2920   */\n  0x4e487b7100000000000000000000000000000000000000000000000000000000\n    /* \"#utility.yul\":2840:2841   */\n  0x00\n    /* \"#utility.yul\":2833:2921   */\n  mstore\n    /* \"#utility.yul\":2940:2944   */\n  0x21\n    /* \"#utility.yul\":2937:2938   */\n  0x04\n    /* \"#utility.yul\":2930:2945   */\n  mstore\n    /* \"#utility.yul\":2964:2968   */\n  0x24\n    /* \"#utility.yul\":2961:2962   */\n  0x00\n    /* \"#utility.yul\":2954:2969   */\n  revert\n    /* \"#utility.yul\":2981:3161   */\ntag_70:\n    /* \"#utility.yul\":3029:3106   */\n  0x4e487b7100000000000000000000000000000000000000000000000000000000\n    /* \"#utility.yul\":3026:3027   */\n  0x00\n    /* \"#utility.yul\":3019:3107   */\n  mstore\n    /* \"#utility.yul\":3126:3130   */\n  0x22\n    /* \"#utility.yul\":3123:3124   */\n  0x04\n    /* \"#utility.yul\":3116:3131   */\n  mstore\n    /* \"#utility.yul\":3150:3154   */\n  0x24\n    /* \"#utility.yul\":3147:3148   */\n  0x00\n    /* \"#utility.yul\":3140:3155   */\n  revert\n    /* \"#utility.yul\":3167:3347   */\ntag_58:\n    /* \"#utility.yul\":3215:3292   */\n  0x4e487b7100000000000000000000000000000000000000000000000000000000\n    /* \"#utility.yul\":3212:3213   */\n  0x00\n    /* \"#utility.yul\":3205:3293   */\n  mstore\n    /* \"#utility.yul\":3312:3316   */\n  0x41\n    /* \"#utility.yul\":3309:3310   */\n  0x04\n    /* \"#utility.yul\":3302:3317   */\n  mstore\n    /* \"#utility.yul\":3336:3340   */\n  0x24\n    /* \"#utility.yul\":3333:3334   */\n  0x00\n    /* \"#utility.yul\":3326:3341   */\n  revert\n    /* \"#utility.yul\":3353:3470   */\ntag_39:\n    /* \"#utility.yul\":3462:3463   */\n  0x00\n    /* \"#utility.yul\":3459:3460   */\n  dup1\n    /* \"#utility.yul\":3452:3464   */\n  revert\n    /* \"#utility.yul\":3476:3593   */\ntag_32:\n    /* \"#utility.yul\":3585:3586   */\n  0x00\n    /* \"#utility.yul\":3582:3583   */\n  dup1\n    /* \"#utility.yul\":3575:3587   */\n  revert\n    /* \"#utility.yul\":3599:3716   */\ntag_47:\n    /* \"#utility.yul\":3708:3709   */\n  0x00\n    /* \"#utility.yul\":3705:3706   */\n  dup1\n    /* \"#utility.yul\":3698:3710   */\n  revert\n    /* \"#utility.yul\":3722:3839   */\ntag_44:\n    /* \"#utility.yul\":3831:3832   */\n  0x00\n    /* \"#utility.yul\":3828:3829   */\n  dup1\n    /* \"#utility.yul\":3821:3833   */\n  revert\n    /* \"#utility.yul\":3845:3947   */\ntag_60:\n    /* \"#utility.yul\":3886:3892   */\n  0x00\n    /* \"#utility.yul\":3937:3939   */\n  0x1f\n    /* \"#utility.yul\":3933:3940   */\n  not\n    /* \"#utility.yul\":3928:3930   */\n  0x1f\n    /* \"#utility.yul\":3921:3926   */\n  dup4\n    /* \"#utility.yul\":3917:3931   */\n  add\n    /* \"#utility.yul\":3913:3941   */\n  and\n    /* \"#utility.yul\":3903:3941   */\n  swap1\n  pop\n    /* \"#utility.yul\":3845:3947   */\n  swap2\n  swap1\n  pop\n  jump\t// out\n    /* \"Voting/contracts/Voting.sol\":62:2672  contract Voting {\r... */\ntag_11:\n  dataSize(sub_0)\n  dup1\n  dataOffset(sub_0)\n  0x00\n  codecopy\n  0x00\n  return\nstop\n\nsub_0: assembly {\n        /* \"Voting/contracts/Voting.sol\":62:2672  contract Voting {\r... */\n      mstore(0x40, 0x80)\n      callvalue\n      dup1\n      iszero\n      tag_1\n      jumpi\n      0x00\n      dup1\n      revert\n    tag_1:\n      pop\n      jumpi(tag_2, lt(calldatasize, 0x04))\n      shr(0xe0, calldataload(0x00))\n      dup1\n      0x72753be5\n      gt\n      tag_17\n      jumpi\n      dup1\n      0xc19d93fb\n      gt\n      tag_18\n      jumpi\n      dup1\n      0xc19d93fb\n      eq\n      tag_13\n      jumpi\n      dup1\n      0xd82d4eb9\n      eq\n      tag_14\n      jumpi\n      dup1\n      0xd9e95a98\n      eq\n      tag_15\n      jumpi\n      dup1\n      0xf276669d\n      eq\n      tag_16\n      jumpi\n      jump(tag_2)\n    tag_18:\n      dup1\n      0x72753be5\n      eq\n      tag_10\n      jumpi\n      dup1\n      0x80843e25\n      eq\n      tag_11\n      jumpi\n      dup1\n      0x8949e009\n      eq\n      tag_12\n      jumpi\n      jump(tag_2)\n    tag_17:\n      dup1\n      0x2d35a8a2\n      gt\n      tag_19\n      jumpi\n      dup1\n      0x2d35a8a2\n      eq\n      tag_6\n      jumpi\n      dup1\n      0x46702b16\n      eq\n      tag_7\n      jumpi\n      dup1\n      0x5f5300ff\n      eq\n      tag_8\n      jumpi\n      dup1\n      0x62c49251\n      eq\n      tag_9\n      jumpi\n      jump(tag_2)\n    tag_19:\n      dup1\n      0x06a49fce\n      eq\n      tag_3\n      jumpi\n      dup1\n      0x0d15fd77\n      eq\n      tag_4\n      jumpi\n      dup1\n      0x12c06342\n      eq\n      tag_5\n      jumpi\n    tag_2:\n      0x00\n      dup1\n      revert\n        /* \"Voting/contracts/Voting.sol\":1632:1952  function getCandidates() public view returns (Candidate[] memory){\r... */\n    tag_3:\n      tag_20\n      tag_21\n      jump\t// in\n    tag_20:\n      mload(0x40)\n      tag_22\n      swap2\n      swap1\n      tag_23\n      jump\t// in\n    tag_22:\n      mload(0x40)\n      dup1\n      swap2\n      sub\n      swap1\n      return\n        /* \"Voting/contracts/Voting.sol\":776:801  uint256 public totalVotes */\n    tag_4:\n      tag_24\n      tag_25\n      jump\t// in\n    tag_24:\n      mload(0x40)\n      tag_26\n      swap2\n      swap1\n      tag_27\n      jump\t// in\n    tag_26:\n      mload(0x40)\n      dup1\n      swap2\n      sub\n      swap1\n      return\n        /* \"Voting/contracts/Voting.sol\":432:480  mapping (address => Voter) public AddressToVoter */\n    tag_5:\n      tag_28\n      0x04\n      dup1\n      calldatasize\n      sub\n      dup2\n      add\n      swap1\n      tag_29\n      swap2\n      swap1\n      tag_30\n      jump\t// in\n    tag_29:\n      tag_31\n      jump\t// in\n    tag_28:\n      mload(0x40)\n      tag_32\n      swap4\n      swap3\n      swap2\n      swap1\n      tag_33\n      jump\t// in\n    tag_32:\n      mload(0x40)\n      dup1\n      swap2\n      sub\n      swap1\n      return\n        /* \"Voting/contracts/Voting.sol\":702:732  uint256 public candidatesCount */\n    tag_6:\n      tag_34\n      tag_35\n      jump\t// in\n    tag_34:\n      mload(0x40)\n      tag_36\n      swap2\n      swap1\n      tag_27\n      jump\t// in\n    tag_36:\n      mload(0x40)\n      dup1\n      swap2\n      sub\n      swap1\n      return\n        /* \"Voting/contracts/Voting.sol\":637:691  mapping (string => Candidate) public SymbolToCandidate */\n    tag_7:\n      tag_37\n      0x04\n      dup1\n      calldatasize\n      sub\n      dup2\n      add\n      swap1\n      tag_38\n      swap2\n      swap1\n      tag_39\n      jump\t// in\n    tag_38:\n      tag_40\n      jump\t// in\n    tag_37:\n      mload(0x40)\n      tag_41\n      swap5\n      swap4\n      swap3\n      swap2\n      swap1\n      tag_42\n      jump\t// in\n    tag_41:\n      mload(0x40)\n      dup1\n      swap2\n      sub\n      swap1\n      return\n        /* \"Voting/contracts/Voting.sol\":743:769  uint256 public totalVoters */\n    tag_8:\n      tag_43\n      tag_44\n      jump\t// in\n    tag_43:\n      mload(0x40)\n      tag_45\n      swap2\n      swap1\n      tag_27\n      jump\t// in\n    tag_45:\n      mload(0x40)\n      dup1\n      swap2\n      sub\n      swap1\n      return\n        /* \"Voting/contracts/Voting.sol\":1135:1622  function addCandidates(address _candidateAddress, string memory _candidateName, string memory _symbol) public InState(State.Created) OfficialOnly{\r... */\n    tag_9:\n      tag_46\n      0x04\n      dup1\n      calldatasize\n      sub\n      dup2\n      add\n      swap1\n      tag_47\n      swap2\n      swap1\n      tag_48\n      jump\t// in\n    tag_47:\n      tag_49\n      jump\t// in\n    tag_46:\n      stop\n        /* \"Voting/contracts/Voting.sol\":579:630  mapping (uint256 => Candidate) public CandidateList */\n    tag_10:\n      tag_50\n      0x04\n      dup1\n      calldatasize\n      sub\n      dup2\n      add\n      swap1\n      tag_51\n      swap2\n      swap1\n      tag_52\n      jump\t// in\n    tag_51:\n      tag_53\n      jump\t// in\n    tag_50:\n      mload(0x40)\n      tag_54\n      swap5\n      swap4\n      swap3\n      swap2\n      swap1\n      tag_42\n      jump\t// in\n    tag_54:\n      mload(0x40)\n      dup1\n      swap2\n      sub\n      swap1\n      return\n        /* \"Voting/contracts/Voting.sol\":924:951  string public  ElectionName */\n    tag_11:\n      tag_55\n      tag_56\n      jump\t// in\n    tag_55:\n      mload(0x40)\n      tag_57\n      swap2\n      swap1\n      tag_58\n      jump\t// in\n    tag_57:\n      mload(0x40)\n      dup1\n      swap2\n      sub\n      swap1\n      return\n        /* \"Voting/contracts/Voting.sol\":880:911  address public OragnizerAddress */\n    tag_12:\n      tag_59\n      tag_60\n      jump\t// in\n    tag_59:\n      mload(0x40)\n      tag_61\n      swap2\n      swap1\n      tag_62\n      jump\t// in\n    tag_61:\n      mload(0x40)\n      dup1\n      swap2\n      sub\n      swap1\n      return\n        /* \"Voting/contracts/Voting.sol\":853:871  State public state */\n    tag_13:\n      tag_63\n      tag_64\n      jump\t// in\n    tag_63:\n      mload(0x40)\n      tag_65\n      swap2\n      swap1\n      tag_66\n      jump\t// in\n    tag_65:\n      mload(0x40)\n      dup1\n      swap2\n      sub\n      swap1\n      return\n        /* \"Voting/contracts/Voting.sol\":525:570  mapping (address => uint256) public VoteCount */\n    tag_14:\n      tag_67\n      0x04\n      dup1\n      calldatasize\n      sub\n      dup2\n      add\n      swap1\n      tag_68\n      swap2\n      swap1\n      tag_30\n      jump\t// in\n    tag_68:\n      tag_69\n      jump\t// in\n    tag_67:\n      mload(0x40)\n      tag_70\n      swap2\n      swap1\n      tag_27\n      jump\t// in\n    tag_70:\n      mload(0x40)\n      dup1\n      swap2\n      sub\n      swap1\n      return\n        /* \"Voting/contracts/Voting.sol\":2104:2461  function addVoter(address _voterAddress, string memory _voterName) public InState(State.Created) OfficialOnly {\r... */\n    tag_15:\n      tag_71\n      0x04\n      dup1\n      calldatasize\n      sub\n      dup2\n      add\n      swap1\n      tag_72\n      swap2\n      swap1\n      tag_73\n      jump\t// in\n    tag_72:\n      tag_74\n      jump\t// in\n    tag_71:\n      stop\n        /* \"Voting/contracts/Voting.sol\":1962:2096  function getCandidate(string memory _symbol) public view returns(Candidate memory){\r... */\n    tag_16:\n      tag_75\n      0x04\n      dup1\n      calldatasize\n      sub\n      dup2\n      add\n      swap1\n      tag_76\n      swap2\n      swap1\n      tag_39\n      jump\t// in\n    tag_76:\n      tag_77\n      jump\t// in\n    tag_75:\n      mload(0x40)\n      tag_78\n      swap2\n      swap1\n      tag_79\n      jump\t// in\n    tag_78:\n      mload(0x40)\n      dup1\n      swap2\n      sub\n      swap1\n      return\n        /* \"Voting/contracts/Voting.sol\":1632:1952  function getCandidates() public view returns (Candidate[] memory){\r... */\n    tag_21:\n        /* \"Voting/contracts/Voting.sol\":1678:1696  Candidate[] memory */\n      0x60\n        /* \"Voting/contracts/Voting.sol\":1706:1731  Candidate[] memory trrips */\n      0x00\n        /* \"Voting/contracts/Voting.sol\":1750:1765  candidatesCount */\n      sload(0x05)\n        /* \"Voting/contracts/Voting.sol\":1734:1766  new Candidate[](candidatesCount) */\n      0xffffffffffffffff\n      dup2\n      gt\n      iszero\n      tag_81\n      jumpi\n      tag_82\n      tag_83\n      jump\t// in\n    tag_82:\n    tag_81:\n      mload(0x40)\n      swap1\n      dup1\n      dup3\n      mstore\n      dup1\n      0x20\n      mul\n      0x20\n      add\n      dup3\n      add\n      0x40\n      mstore\n      dup1\n      iszero\n      tag_84\n      jumpi\n      dup2\n      0x20\n      add\n    tag_85:\n      tag_86\n      tag_87\n      jump\t// in\n    tag_86:\n      dup2\n      mstore\n      0x20\n      add\n      swap1\n      0x01\n      swap1\n      sub\n      swap1\n      dup2\n      tag_85\n      jumpi\n      swap1\n      pop\n    tag_84:\n      pop\n        /* \"Voting/contracts/Voting.sol\":1706:1766  Candidate[] memory trrips = new Candidate[](candidatesCount) */\n      swap1\n      pop\n        /* \"Voting/contracts/Voting.sol\":1780:1786  uint i */\n      0x00\n        /* \"Voting/contracts/Voting.sol\":1775:1921  for (uint i = 0; i < candidatesCount; i++) {\r... */\n    tag_88:\n        /* \"Voting/contracts/Voting.sol\":1796:1811  candidatesCount */\n      sload(0x05)\n        /* \"Voting/contracts/Voting.sol\":1792:1793  i */\n      dup2\n        /* \"Voting/contracts/Voting.sol\":1792:1811  i < candidatesCount */\n      lt\n        /* \"Voting/contracts/Voting.sol\":1775:1921  for (uint i = 0; i < candidatesCount; i++) {\r... */\n      iszero\n      tag_89\n      jumpi\n        /* \"Voting/contracts/Voting.sol\":1831:1858  Candidate storage candidate */\n      0x00\n        /* \"Voting/contracts/Voting.sol\":1861:1874  CandidateList */\n      0x03\n        /* \"Voting/contracts/Voting.sol\":1861:1877  CandidateList[i] */\n      0x00\n        /* \"Voting/contracts/Voting.sol\":1875:1876  i */\n      dup4\n        /* \"Voting/contracts/Voting.sol\":1861:1877  CandidateList[i] */\n      dup2\n      mstore\n      0x20\n      add\n      swap1\n      dup2\n      mstore\n      0x20\n      add\n      0x00\n      keccak256\n        /* \"Voting/contracts/Voting.sol\":1831:1877  Candidate storage candidate = CandidateList[i] */\n      swap1\n      pop\n        /* \"Voting/contracts/Voting.sol\":1902:1911  candidate */\n      dup1\n        /* \"Voting/contracts/Voting.sol\":1890:1911  trrips[i] = candidate */\n      mload(0x40)\n      dup1\n      0x80\n      add\n      0x40\n      mstore\n      swap1\n      dup2\n      0x00\n      dup3\n      add\n      dup1\n      sload\n      tag_91\n      swap1\n      tag_92\n      jump\t// in\n    tag_91:\n      dup1\n      0x1f\n      add\n      0x20\n      dup1\n      swap2\n      div\n      mul\n      0x20\n      add\n      mload(0x40)\n      swap1\n      dup2\n      add\n      0x40\n      mstore\n      dup1\n      swap3\n      swap2\n      swap1\n      dup2\n      dup2\n      mstore\n      0x20\n      add\n      dup3\n      dup1\n      sload\n      tag_93\n      swap1\n      tag_92\n      jump\t// in\n    tag_93:\n      dup1\n      iszero\n      tag_94\n      jumpi\n      dup1\n      0x1f\n      lt\n      tag_95\n      jumpi\n      0x0100\n      dup1\n      dup4\n      sload\n      div\n      mul\n      dup4\n      mstore\n      swap2\n      0x20\n      add\n      swap2\n      jump(tag_94)\n    tag_95:\n      dup3\n      add\n      swap2\n      swap1\n      0x00\n      mstore\n      keccak256(0x00, 0x20)\n      swap1\n    tag_96:\n      dup2\n      sload\n      dup2\n      mstore\n      swap1\n      0x01\n      add\n      swap1\n      0x20\n      add\n      dup1\n      dup4\n      gt\n      tag_96\n      jumpi\n      dup3\n      swap1\n      sub\n      0x1f\n      and\n      dup3\n      add\n      swap2\n    tag_94:\n      pop\n      pop\n      pop\n      pop\n      pop\n      dup2\n      mstore\n      0x20\n      add\n      0x01\n      dup3\n      add\n      0x00\n      swap1\n      sload\n      swap1\n      0x0100\n      exp\n      swap1\n      div\n      0xffffffffffffffffffffffffffffffffffffffff\n      and\n      0xffffffffffffffffffffffffffffffffffffffff\n      and\n      0xffffffffffffffffffffffffffffffffffffffff\n      and\n      dup2\n      mstore\n      0x20\n      add\n      0x02\n      dup3\n      add\n      sload\n      dup2\n      mstore\n      0x20\n      add\n      0x03\n      dup3\n      add\n      dup1\n      sload\n      tag_97\n      swap1\n      tag_92\n      jump\t// in\n    tag_97:\n      dup1\n      0x1f\n      add\n      0x20\n      dup1\n      swap2\n      div\n      mul\n      0x20\n      add\n      mload(0x40)\n      swap1\n      dup2\n      add\n      0x40\n      mstore\n      dup1\n      swap3\n      swap2\n      swap1\n      dup2\n      dup2\n      mstore\n      0x20\n      add\n      dup3\n      dup1\n      sload\n      tag_98\n      swap1\n      tag_92\n      jump\t// in\n    tag_98:\n      dup1\n      iszero\n      tag_99\n      jumpi\n      dup1\n      0x1f\n      lt\n      tag_100\n      jumpi\n      0x0100\n      dup1\n      dup4\n      sload\n      div\n      mul\n      dup4\n      mstore\n      swap2\n      0x20\n      add\n      swap2\n      jump(tag_99)\n    tag_100:\n      dup3\n      add\n      swap2\n      swap1\n      0x00\n      mstore\n      keccak256(0x00, 0x20)\n      swap1\n    tag_101:\n      dup2\n      sload\n      dup2\n      mstore\n      swap1\n      0x01\n      add\n      swap1\n      0x20\n      add\n      dup1\n      dup4\n      gt\n      tag_101\n      jumpi\n      dup3\n      swap1\n      sub\n      0x1f\n      and\n      dup3\n      add\n      swap2\n    tag_99:\n      pop\n      pop\n      pop\n      pop\n      pop\n      dup2\n      mstore\n      pop\n      pop\n        /* \"Voting/contracts/Voting.sol\":1890:1896  trrips */\n      dup4\n        /* \"Voting/contracts/Voting.sol\":1897:1898  i */\n      dup4\n        /* \"Voting/contracts/Voting.sol\":1890:1899  trrips[i] */\n      dup2\n      mload\n      dup2\n      lt\n      tag_102\n      jumpi\n      tag_103\n      tag_104\n      jump\t// in\n    tag_103:\n    tag_102:\n      0x20\n      mul\n      0x20\n      add\n      add\n        /* \"Voting/contracts/Voting.sol\":1890:1911  trrips[i] = candidate */\n      dup2\n      swap1\n      mstore\n      pop\n        /* \"Voting/contracts/Voting.sol\":1818:1921  {\r... */\n      pop\n        /* \"Voting/contracts/Voting.sol\":1813:1816  i++ */\n      dup1\n      dup1\n      tag_105\n      swap1\n      tag_106\n      jump\t// in\n    tag_105:\n      swap2\n      pop\n      pop\n        /* \"Voting/contracts/Voting.sol\":1775:1921  for (uint i = 0; i < candidatesCount; i++) {\r... */\n      jump(tag_88)\n    tag_89:\n      pop\n        /* \"Voting/contracts/Voting.sol\":1936:1942  trrips */\n      dup1\n        /* \"Voting/contracts/Voting.sol\":1929:1942  return trrips */\n      swap2\n      pop\n      pop\n        /* \"Voting/contracts/Voting.sol\":1632:1952  function getCandidates() public view returns (Candidate[] memory){\r... */\n      swap1\n      jump\t// out\n        /* \"Voting/contracts/Voting.sol\":776:801  uint256 public totalVotes */\n    tag_25:\n      sload(0x07)\n      dup2\n      jump\t// out\n        /* \"Voting/contracts/Voting.sol\":432:480  mapping (address => Voter) public AddressToVoter */\n    tag_31:\n      mstore(0x20, 0x00)\n      dup1\n      0x00\n      mstore\n      keccak256(0x00, 0x40)\n      0x00\n      swap2\n      pop\n      swap1\n      pop\n      dup1\n      0x00\n      add\n      dup1\n      sload\n      tag_107\n      swap1\n      tag_92\n      jump\t// in\n    tag_107:\n      dup1\n      0x1f\n      add\n      0x20\n      dup1\n      swap2\n      div\n      mul\n      0x20\n      add\n      mload(0x40)\n      swap1\n      dup2\n      add\n      0x40\n      mstore\n      dup1\n      swap3\n      swap2\n      swap1\n      dup2\n      dup2\n      mstore\n      0x20\n      add\n      dup3\n      dup1\n      sload\n      tag_108\n      swap1\n      tag_92\n      jump\t// in\n    tag_108:\n      dup1\n      iszero\n      tag_109\n      jumpi\n      dup1\n      0x1f\n      lt\n      tag_110\n      jumpi\n      0x0100\n      dup1\n      dup4\n      sload\n      div\n      mul\n      dup4\n      mstore\n      swap2\n      0x20\n      add\n      swap2\n      jump(tag_109)\n    tag_110:\n      dup3\n      add\n      swap2\n      swap1\n      0x00\n      mstore\n      keccak256(0x00, 0x20)\n      swap1\n    tag_111:\n      dup2\n      sload\n      dup2\n      mstore\n      swap1\n      0x01\n      add\n      swap1\n      0x20\n      add\n      dup1\n      dup4\n      gt\n      tag_111\n      jumpi\n      dup3\n      swap1\n      sub\n      0x1f\n      and\n      dup3\n      add\n      swap2\n    tag_109:\n      pop\n      pop\n      pop\n      pop\n      pop\n      swap1\n      dup1\n      0x01\n      add\n      0x00\n      swap1\n      sload\n      swap1\n      0x0100\n      exp\n      swap1\n      div\n      0xffffffffffffffffffffffffffffffffffffffff\n      and\n      swap1\n      dup1\n      0x01\n      add\n      0x14\n      swap1\n      sload\n      swap1\n      0x0100\n      exp\n      swap1\n      div\n      0xff\n      and\n      swap1\n      pop\n      dup4\n      jump\t// out\n        /* \"Voting/contracts/Voting.sol\":702:732  uint256 public candidatesCount */\n    tag_35:\n      sload(0x05)\n      dup2\n      jump\t// out\n        /* \"Voting/contracts/Voting.sol\":637:691  mapping (string => Candidate) public SymbolToCandidate */\n    tag_40:\n      0x04\n      dup2\n      dup1\n      mload\n      0x20\n      dup2\n      add\n      dup3\n      add\n      dup1\n      mload\n      dup5\n      dup3\n      mstore\n      0x20\n      dup4\n      add\n      0x20\n      dup6\n      add\n      keccak256\n      dup2\n      dup4\n      mstore\n      dup1\n      swap6\n      pop\n      pop\n      pop\n      pop\n      pop\n      pop\n      0x00\n      swap2\n      pop\n      swap1\n      pop\n      dup1\n      0x00\n      add\n      dup1\n      sload\n      tag_112\n      swap1\n      tag_92\n      jump\t// in\n    tag_112:\n      dup1\n      0x1f\n      add\n      0x20\n      dup1\n      swap2\n      div\n      mul\n      0x20\n      add\n      mload(0x40)\n      swap1\n      dup2\n      add\n      0x40\n      mstore\n      dup1\n      swap3\n      swap2\n      swap1\n      dup2\n      dup2\n      mstore\n      0x20\n      add\n      dup3\n      dup1\n      sload\n      tag_113\n      swap1\n      tag_92\n      jump\t// in\n    tag_113:\n      dup1\n      iszero\n      tag_114\n      jumpi\n      dup1\n      0x1f\n      lt\n      tag_115\n      jumpi\n      0x0100\n      dup1\n      dup4\n      sload\n      div\n      mul\n      dup4\n      mstore\n      swap2\n      0x20\n      add\n      swap2\n      jump(tag_114)\n    tag_115:\n      dup3\n      add\n      swap2\n      swap1\n      0x00\n      mstore\n      keccak256(0x00, 0x20)\n      swap1\n    tag_116:\n      dup2\n      sload\n      dup2\n      mstore\n      swap1\n      0x01\n      add\n      swap1\n      0x20\n      add\n      dup1\n      dup4\n      gt\n      tag_116\n      jumpi\n      dup3\n      swap1\n      sub\n      0x1f\n      and\n      dup3\n      add\n      swap2\n    tag_114:\n      pop\n      pop\n      pop\n      pop\n      pop\n      swap1\n      dup1\n      0x01\n      add\n      0x00\n      swap1\n      sload\n      swap1\n      0x0100\n      exp\n      swap1\n      div\n      0xffffffffffffffffffffffffffffffffffffffff\n      and\n      swap1\n      dup1\n      0x02\n      add\n      sload\n      swap1\n      dup1\n      0x03\n      add\n      dup1\n      sload\n      tag_117\n      swap1\n      tag_92\n      jump\t// in\n    tag_117:\n      dup1\n      0x1f\n      add\n      0x20\n      dup1\n      swap2\n      div\n      mul\n      0x20\n      add\n      mload(0x40)\n      swap1\n      dup2\n      add\n      0x40\n      mstore\n      dup1\n      swap3\n      swap2\n      swap1\n      dup2\n      dup2\n      mstore\n      0x20\n      add\n      dup3\n      dup1\n      sload\n      tag_118\n      swap1\n      tag_92\n      jump\t// in\n    tag_118:\n      dup1\n      iszero\n      tag_119\n      jumpi\n      dup1\n      0x1f\n      lt\n      tag_120\n      jumpi\n      0x0100\n      dup1\n      dup4\n      sload\n      div\n      mul\n      dup4\n      mstore\n      swap2\n      0x20\n      add\n      swap2\n      jump(tag_119)\n    tag_120:\n      dup3\n      add\n      swap2\n      swap1\n      0x00\n      mstore\n      keccak256(0x00, 0x20)\n      swap1\n    tag_121:\n      dup2\n      sload\n      dup2\n      mstore\n      swap1\n      0x01\n      add\n      swap1\n      0x20\n      add\n      dup1\n      dup4\n      gt\n      tag_121\n      jumpi\n      dup3\n      swap1\n      sub\n      0x1f\n      and\n      dup3\n      add\n      swap2\n    tag_119:\n      pop\n      pop\n      pop\n      pop\n      pop\n      swap1\n      pop\n      dup5\n      jump\t// out\n        /* \"Voting/contracts/Voting.sol\":743:769  uint256 public totalVoters */\n    tag_44:\n      sload(0x06)\n      dup2\n      jump\t// out\n        /* \"Voting/contracts/Voting.sol\":1135:1622  function addCandidates(address _candidateAddress, string memory _candidateName, string memory _symbol) public InState(State.Created) OfficialOnly{\r... */\n    tag_49:\n        /* \"Voting/contracts/Voting.sol\":1253:1266  State.Created */\n      0x00\n        /* \"Voting/contracts/Voting.sol\":2533:2539  _state */\n      dup1\n        /* \"Voting/contracts/Voting.sol\":2524:2539  state == _state */\n      0x02\n      dup2\n      gt\n      iszero\n      tag_123\n      jumpi\n      tag_124\n      tag_125\n      jump\t// in\n    tag_124:\n    tag_123:\n        /* \"Voting/contracts/Voting.sol\":2524:2529  state */\n      0x08\n      0x00\n      swap1\n      sload\n      swap1\n      0x0100\n      exp\n      swap1\n      div\n      0xff\n      and\n        /* \"Voting/contracts/Voting.sol\":2524:2539  state == _state */\n      0x02\n      dup2\n      gt\n      iszero\n      tag_126\n      jumpi\n      tag_127\n      tag_125\n      jump\t// in\n    tag_127:\n    tag_126:\n      eq\n        /* \"Voting/contracts/Voting.sol\":2516:2540  require(state == _state) */\n      tag_128\n      jumpi\n      0x00\n      dup1\n      revert\n    tag_128:\n        /* \"Voting/contracts/Voting.sol\":2632:2642  msg.sender */\n      caller\n        /* \"Voting/contracts/Voting.sol\":2612:2642  OragnizerAddress == msg.sender */\n      0xffffffffffffffffffffffffffffffffffffffff\n      and\n        /* \"Voting/contracts/Voting.sol\":2612:2628  OragnizerAddress */\n      0x08\n      0x01\n      swap1\n      sload\n      swap1\n      0x0100\n      exp\n      swap1\n      div\n      0xffffffffffffffffffffffffffffffffffffffff\n      and\n        /* \"Voting/contracts/Voting.sol\":2612:2642  OragnizerAddress == msg.sender */\n      0xffffffffffffffffffffffffffffffffffffffff\n      and\n      eq\n        /* \"Voting/contracts/Voting.sol\":2603:2643  require( OragnizerAddress == msg.sender) */\n      tag_130\n      jumpi\n      0x00\n      dup1\n      revert\n    tag_130:\n        /* \"Voting/contracts/Voting.sol\":1291:1317  Candidate memory candidate */\n      tag_132\n      tag_87\n      jump\t// in\n    tag_132:\n        /* \"Voting/contracts/Voting.sol\":1357:1374  _candidateAddress */\n      dup5\n        /* \"Voting/contracts/Voting.sol\":1328:1337  candidate */\n      dup2\n        /* \"Voting/contracts/Voting.sol\":1328:1354  candidate.candidateAddress */\n      0x20\n      add\n        /* \"Voting/contracts/Voting.sol\":1328:1374  candidate.candidateAddress = _candidateAddress */\n      swap1\n      0xffffffffffffffffffffffffffffffffffffffff\n      and\n      swap1\n      dup2\n      0xffffffffffffffffffffffffffffffffffffffff\n      and\n      dup2\n      mstore\n      pop\n      pop\n        /* \"Voting/contracts/Voting.sol\":1411:1425  _candidateName */\n      dup4\n        /* \"Voting/contracts/Voting.sol\":1385:1394  candidate */\n      dup2\n        /* \"Voting/contracts/Voting.sol\":1385:1408  candidate.candidateName */\n      0x00\n      add\n        /* \"Voting/contracts/Voting.sol\":1385:1425  candidate.candidateName = _candidateName */\n      dup2\n      swap1\n      mstore\n      pop\n        /* \"Voting/contracts/Voting.sol\":1455:1462  _symbol */\n      dup3\n        /* \"Voting/contracts/Voting.sol\":1436:1445  candidate */\n      dup2\n        /* \"Voting/contracts/Voting.sol\":1436:1452  candidate.symbol */\n      0x60\n      add\n        /* \"Voting/contracts/Voting.sol\":1436:1462  candidate.symbol = _symbol */\n      dup2\n      swap1\n      mstore\n      pop\n        /* \"Voting/contracts/Voting.sol\":1506:1515  candidate */\n      dup1\n        /* \"Voting/contracts/Voting.sol\":1473:1486  CandidateList */\n      0x03\n        /* \"Voting/contracts/Voting.sol\":1473:1503  CandidateList[candidatesCount] */\n      0x00\n        /* \"Voting/contracts/Voting.sol\":1487:1502  candidatesCount */\n      sload(0x05)\n        /* \"Voting/contracts/Voting.sol\":1473:1503  CandidateList[candidatesCount] */\n      dup2\n      mstore\n      0x20\n      add\n      swap1\n      dup2\n      mstore\n      0x20\n      add\n      0x00\n      keccak256\n        /* \"Voting/contracts/Voting.sol\":1473:1515  CandidateList[candidatesCount] = candidate */\n      0x00\n      dup3\n      add\n      mload\n      dup2\n      0x00\n      add\n      swap1\n      dup1\n      mload\n      swap1\n      0x20\n      add\n      swap1\n      tag_133\n      swap3\n      swap2\n      swap1\n      tag_134\n      jump\t// in\n    tag_133:\n      pop\n      0x20\n      dup3\n      add\n      mload\n      dup2\n      0x01\n      add\n      exp(0x0100, 0x00)\n      dup2\n      sload\n      dup2\n      0xffffffffffffffffffffffffffffffffffffffff\n      mul\n      not\n      and\n      swap1\n      dup4\n      0xffffffffffffffffffffffffffffffffffffffff\n      and\n      mul\n      or\n      swap1\n      sstore\n      pop\n      0x40\n      dup3\n      add\n      mload\n      dup2\n      0x02\n      add\n      sstore\n      0x60\n      dup3\n      add\n      mload\n      dup2\n      0x03\n      add\n      swap1\n      dup1\n      mload\n      swap1\n      0x20\n      add\n      swap1\n      tag_135\n      swap3\n      swap2\n      swap1\n      tag_134\n      jump\t// in\n    tag_135:\n      pop\n      swap1\n      pop\n      pop\n        /* \"Voting/contracts/Voting.sol\":1555:1564  candidate */\n      dup1\n        /* \"Voting/contracts/Voting.sol\":1526:1543  SymbolToCandidate */\n      0x04\n        /* \"Voting/contracts/Voting.sol\":1544:1551  _symbol */\n      dup5\n        /* \"Voting/contracts/Voting.sol\":1526:1552  SymbolToCandidate[_symbol] */\n      mload(0x40)\n      tag_136\n      swap2\n      swap1\n      tag_137\n      jump\t// in\n    tag_136:\n      swap1\n      dup2\n      mstore\n      0x20\n      add\n      mload(0x40)\n      dup1\n      swap2\n      sub\n      swap1\n      keccak256\n        /* \"Voting/contracts/Voting.sol\":1526:1564  SymbolToCandidate[_symbol] = candidate */\n      0x00\n      dup3\n      add\n      mload\n      dup2\n      0x00\n      add\n      swap1\n      dup1\n      mload\n      swap1\n      0x20\n      add\n      swap1\n      tag_138\n      swap3\n      swap2\n      swap1\n      tag_134\n      jump\t// in\n    tag_138:\n      pop\n      0x20\n      dup3\n      add\n      mload\n      dup2\n      0x01\n      add\n      exp(0x0100, 0x00)\n      dup2\n      sload\n      dup2\n      0xffffffffffffffffffffffffffffffffffffffff\n      mul\n      not\n      and\n      swap1\n      dup4\n      0xffffffffffffffffffffffffffffffffffffffff\n      and\n      mul\n      or\n      swap1\n      sstore\n      pop\n      0x40\n      dup3\n      add\n      mload\n      dup2\n      0x02\n      add\n      sstore\n      0x60\n      dup3\n      add\n      mload\n      dup2\n      0x03\n      add\n      swap1\n      dup1\n      mload\n      swap1\n      0x20\n      add\n      swap1\n      tag_139\n      swap3\n      swap2\n      swap1\n      tag_134\n      jump\t// in\n    tag_139:\n      pop\n      swap1\n      pop\n      pop\n        /* \"Voting/contracts/Voting.sol\":1611:1612  1 */\n      0x01\n        /* \"Voting/contracts/Voting.sol\":1593:1608  candidatesCount */\n      sload(0x05)\n        /* \"Voting/contracts/Voting.sol\":1593:1612  candidatesCount + 1 */\n      tag_140\n      swap2\n      swap1\n      tag_141\n      jump\t// in\n    tag_140:\n        /* \"Voting/contracts/Voting.sol\":1575:1590  candidatesCount */\n      0x05\n        /* \"Voting/contracts/Voting.sol\":1575:1612  candidatesCount = candidatesCount + 1 */\n      dup2\n      swap1\n      sstore\n      pop\n        /* \"Voting/contracts/Voting.sol\":1280:1622  {\r... */\n      pop\n        /* \"Voting/contracts/Voting.sol\":1135:1622  function addCandidates(address _candidateAddress, string memory _candidateName, string memory _symbol) public InState(State.Created) OfficialOnly{\r... */\n      pop\n      pop\n      pop\n      pop\n      jump\t// out\n        /* \"Voting/contracts/Voting.sol\":579:630  mapping (uint256 => Candidate) public CandidateList */\n    tag_53:\n      mstore(0x20, 0x03)\n      dup1\n      0x00\n      mstore\n      keccak256(0x00, 0x40)\n      0x00\n      swap2\n      pop\n      swap1\n      pop\n      dup1\n      0x00\n      add\n      dup1\n      sload\n      tag_142\n      swap1\n      tag_92\n      jump\t// in\n    tag_142:\n      dup1\n      0x1f\n      add\n      0x20\n      dup1\n      swap2\n      div\n      mul\n      0x20\n      add\n      mload(0x40)\n      swap1\n      dup2\n      add\n      0x40\n      mstore\n      dup1\n      swap3\n      swap2\n      swap1\n      dup2\n      dup2\n      mstore\n      0x20\n      add\n      dup3\n      dup1\n      sload\n      tag_143\n      swap1\n      tag_92\n      jump\t// in\n    tag_143:\n      dup1\n      iszero\n      tag_144\n      jumpi\n      dup1\n      0x1f\n      lt\n      tag_145\n      jumpi\n      0x0100\n      dup1\n      dup4\n      sload\n      div\n      mul\n      dup4\n      mstore\n      swap2\n      0x20\n      add\n      swap2\n      jump(tag_144)\n    tag_145:\n      dup3\n      add\n      swap2\n      swap1\n      0x00\n      mstore\n      keccak256(0x00, 0x20)\n      swap1\n    tag_146:\n      dup2\n      sload\n      dup2\n      mstore\n      swap1\n      0x01\n      add\n      swap1\n      0x20\n      add\n      dup1\n      dup4\n      gt\n      tag_146\n      jumpi\n      dup3\n      swap1\n      sub\n      0x1f\n      and\n      dup3\n      add\n      swap2\n    tag_144:\n      pop\n      pop\n      pop\n      pop\n      pop\n      swap1\n      dup1\n      0x01\n      add\n      0x00\n      swap1\n      sload\n      swap1\n      0x0100\n      exp\n      swap1\n      div\n      0xffffffffffffffffffffffffffffffffffffffff\n      and\n      swap1\n      dup1\n      0x02\n      add\n      sload\n      swap1\n      dup1\n      0x03\n      add\n      dup1\n      sload\n      tag_147\n      swap1\n      tag_92\n      jump\t// in\n    tag_147:\n      dup1\n      0x1f\n      add\n      0x20\n      dup1\n      swap2\n      div\n      mul\n      0x20\n      add\n      mload(0x40)\n      swap1\n      dup2\n      add\n      0x40\n      mstore\n      dup1\n      swap3\n      swap2\n      swap1\n      dup2\n      dup2\n      mstore\n      0x20\n      add\n      dup3\n      dup1\n      sload\n      tag_148\n      swap1\n      tag_92\n      jump\t// in\n    tag_148:\n      dup1\n      iszero\n      tag_149\n      jumpi\n      dup1\n      0x1f\n      lt\n      tag_150\n      jumpi\n      0x0100\n      dup1\n      dup4\n      sload\n      div\n      mul\n      dup4\n      mstore\n      swap2\n      0x20\n      add\n      swap2\n      jump(tag_149)\n    tag_150:\n      dup3\n      add\n      swap2\n      swap1\n      0x00\n      mstore\n      keccak256(0x00, 0x20)\n      swap1\n    tag_151:\n      dup2\n      sload\n      dup2\n      mstore\n      swap1\n      0x01\n      add\n      swap1\n      0x20\n      add\n      dup1\n      dup4\n      gt\n      tag_151\n      jumpi\n      dup3\n      swap1\n      sub\n      0x1f\n      and\n      dup3\n      add\n      swap2\n    tag_149:\n      pop\n      pop\n      pop\n      pop\n      pop\n      swap1\n      pop\n      dup5\n      jump\t// out\n        /* \"Voting/contracts/Voting.sol\":924:951  string public  ElectionName */\n    tag_56:\n      0x09\n      dup1\n      sload\n      tag_152\n      swap1\n      tag_92\n      jump\t// in\n    tag_152:\n      dup1\n      0x1f\n      add\n      0x20\n      dup1\n      swap2\n      div\n      mul\n      0x20\n      add\n      mload(0x40)\n      swap1\n      dup2\n      add\n      0x40\n      mstore\n      dup1\n      swap3\n      swap2\n      swap1\n      dup2\n      dup2\n      mstore\n      0x20\n      add\n      dup3\n      dup1\n      sload\n      tag_153\n      swap1\n      tag_92\n      jump\t// in\n    tag_153:\n      dup1\n      iszero\n      tag_154\n      jumpi\n      dup1\n      0x1f\n      lt\n      tag_155\n      jumpi\n      0x0100\n      dup1\n      dup4\n      sload\n      div\n      mul\n      dup4\n      mstore\n      swap2\n      0x20\n      add\n      swap2\n      jump(tag_154)\n    tag_155:\n      dup3\n      add\n      swap2\n      swap1\n      0x00\n      mstore\n      keccak256(0x00, 0x20)\n      swap1\n    tag_156:\n      dup2\n      sload\n      dup2\n      mstore\n      swap1\n      0x01\n      add\n      swap1\n      0x20\n      add\n      dup1\n      dup4\n      gt\n      tag_156\n      jumpi\n      dup3\n      swap1\n      sub\n      0x1f\n      and\n      dup3\n      add\n      swap2\n    tag_154:\n      pop\n      pop\n      pop\n      pop\n      pop\n      dup2\n      jump\t// out\n        /* \"Voting/contracts/Voting.sol\":880:911  address public OragnizerAddress */\n    tag_60:\n      0x08\n      0x01\n      swap1\n      sload\n      swap1\n      0x0100\n      exp\n      swap1\n      div\n      0xffffffffffffffffffffffffffffffffffffffff\n      and\n      dup2\n      jump\t// out\n        /* \"Voting/contracts/Voting.sol\":853:871  State public state */\n    tag_64:\n      0x08\n      0x00\n      swap1\n      sload\n      swap1\n      0x0100\n      exp\n      swap1\n      div\n      0xff\n      and\n      dup2\n      jump\t// out\n        /* \"Voting/contracts/Voting.sol\":525:570  mapping (address => uint256) public VoteCount */\n    tag_69:\n      mstore(0x20, 0x02)\n      dup1\n      0x00\n      mstore\n      keccak256(0x00, 0x40)\n      0x00\n      swap2\n      pop\n      swap1\n      pop\n      sload\n      dup2\n      jump\t// out\n        /* \"Voting/contracts/Voting.sol\":2104:2461  function addVoter(address _voterAddress, string memory _voterName) public InState(State.Created) OfficialOnly {\r... */\n    tag_74:\n        /* \"Voting/contracts/Voting.sol\":2186:2199  State.Created */\n      0x00\n        /* \"Voting/contracts/Voting.sol\":2533:2539  _state */\n      dup1\n        /* \"Voting/contracts/Voting.sol\":2524:2539  state == _state */\n      0x02\n      dup2\n      gt\n      iszero\n      tag_158\n      jumpi\n      tag_159\n      tag_125\n      jump\t// in\n    tag_159:\n    tag_158:\n        /* \"Voting/contracts/Voting.sol\":2524:2529  state */\n      0x08\n      0x00\n      swap1\n      sload\n      swap1\n      0x0100\n      exp\n      swap1\n      div\n      0xff\n      and\n        /* \"Voting/contracts/Voting.sol\":2524:2539  state == _state */\n      0x02\n      dup2\n      gt\n      iszero\n      tag_160\n      jumpi\n      tag_161\n      tag_125\n      jump\t// in\n    tag_161:\n    tag_160:\n      eq\n        /* \"Voting/contracts/Voting.sol\":2516:2540  require(state == _state) */\n      tag_162\n      jumpi\n      0x00\n      dup1\n      revert\n    tag_162:\n        /* \"Voting/contracts/Voting.sol\":2632:2642  msg.sender */\n      caller\n        /* \"Voting/contracts/Voting.sol\":2612:2642  OragnizerAddress == msg.sender */\n      0xffffffffffffffffffffffffffffffffffffffff\n      and\n        /* \"Voting/contracts/Voting.sol\":2612:2628  OragnizerAddress */\n      0x08\n      0x01\n      swap1\n      sload\n      swap1\n      0x0100\n      exp\n      swap1\n      div\n      0xffffffffffffffffffffffffffffffffffffffff\n      and\n        /* \"Voting/contracts/Voting.sol\":2612:2642  OragnizerAddress == msg.sender */\n      0xffffffffffffffffffffffffffffffffffffffff\n      and\n      eq\n        /* \"Voting/contracts/Voting.sol\":2603:2643  require( OragnizerAddress == msg.sender) */\n      tag_164\n      jumpi\n      0x00\n      dup1\n      revert\n    tag_164:\n        /* \"Voting/contracts/Voting.sol\":2225:2243  Voter memory voter */\n      tag_166\n      tag_167\n      jump\t// in\n    tag_166:\n        /* \"Voting/contracts/Voting.sol\":2275:2288  _voterAddress */\n      dup4\n        /* \"Voting/contracts/Voting.sol\":2254:2259  voter */\n      dup2\n        /* \"Voting/contracts/Voting.sol\":2254:2272  voter.voterAddress */\n      0x20\n      add\n        /* \"Voting/contracts/Voting.sol\":2254:2288  voter.voterAddress = _voterAddress */\n      swap1\n      0xffffffffffffffffffffffffffffffffffffffff\n      and\n      swap1\n      dup2\n      0xffffffffffffffffffffffffffffffffffffffff\n      and\n      dup2\n      mstore\n      pop\n      pop\n        /* \"Voting/contracts/Voting.sol\":2317:2327  _voterName */\n      dup3\n        /* \"Voting/contracts/Voting.sol\":2299:2304  voter */\n      dup2\n        /* \"Voting/contracts/Voting.sol\":2299:2314  voter.voterName */\n      0x00\n      add\n        /* \"Voting/contracts/Voting.sol\":2299:2327  voter.voterName = _voterName */\n      dup2\n      swap1\n      mstore\n      pop\n        /* \"Voting/contracts/Voting.sol\":2352:2357  false */\n      0x00\n        /* \"Voting/contracts/Voting.sol\":2338:2343  voter */\n      dup2\n        /* \"Voting/contracts/Voting.sol\":2338:2349  voter.voted */\n      0x40\n      add\n        /* \"Voting/contracts/Voting.sol\":2338:2357  voter.voted = false */\n      swap1\n      iszero\n      iszero\n      swap1\n      dup2\n      iszero\n      iszero\n      dup2\n      mstore\n      pop\n      pop\n        /* \"Voting/contracts/Voting.sol\":2402:2407  voter */\n      dup1\n        /* \"Voting/contracts/Voting.sol\":2370:2384  AddressToVoter */\n      0x00\n        /* \"Voting/contracts/Voting.sol\":2370:2399  AddressToVoter[_voterAddress] */\n      dup1\n        /* \"Voting/contracts/Voting.sol\":2385:2398  _voterAddress */\n      dup7\n        /* \"Voting/contracts/Voting.sol\":2370:2399  AddressToVoter[_voterAddress] */\n      0xffffffffffffffffffffffffffffffffffffffff\n      and\n      0xffffffffffffffffffffffffffffffffffffffff\n      and\n      dup2\n      mstore\n      0x20\n      add\n      swap1\n      dup2\n      mstore\n      0x20\n      add\n      0x00\n      keccak256\n        /* \"Voting/contracts/Voting.sol\":2370:2407  AddressToVoter[_voterAddress] = voter */\n      0x00\n      dup3\n      add\n      mload\n      dup2\n      0x00\n      add\n      swap1\n      dup1\n      mload\n      swap1\n      0x20\n      add\n      swap1\n      tag_168\n      swap3\n      swap2\n      swap1\n      tag_134\n      jump\t// in\n    tag_168:\n      pop\n      0x20\n      dup3\n      add\n      mload\n      dup2\n      0x01\n      add\n      exp(0x0100, 0x00)\n      dup2\n      sload\n      dup2\n      0xffffffffffffffffffffffffffffffffffffffff\n      mul\n      not\n      and\n      swap1\n      dup4\n      0xffffffffffffffffffffffffffffffffffffffff\n      and\n      mul\n      or\n      swap1\n      sstore\n      pop\n      0x40\n      dup3\n      add\n      mload\n      dup2\n      0x01\n      add\n      exp(0x0100, 0x14)\n      dup2\n      sload\n      dup2\n      0xff\n      mul\n      not\n      and\n      swap1\n      dup4\n      iszero\n      iszero\n      mul\n      or\n      swap1\n      sstore\n      pop\n      swap1\n      pop\n      pop\n        /* \"Voting/contracts/Voting.sol\":2446:2447  1 */\n      0x01\n        /* \"Voting/contracts/Voting.sol\":2432:2443  totalVoters */\n      sload(0x06)\n        /* \"Voting/contracts/Voting.sol\":2432:2447  totalVoters + 1 */\n      tag_169\n      swap2\n      swap1\n      tag_141\n      jump\t// in\n    tag_169:\n        /* \"Voting/contracts/Voting.sol\":2418:2429  totalVoters */\n      0x06\n        /* \"Voting/contracts/Voting.sol\":2418:2447  totalVoters = totalVoters + 1 */\n      dup2\n      swap1\n      sstore\n      pop\n        /* \"Voting/contracts/Voting.sol\":2214:2461  {\r... */\n      pop\n        /* \"Voting/contracts/Voting.sol\":2104:2461  function addVoter(address _voterAddress, string memory _voterName) public InState(State.Created) OfficialOnly {\r... */\n      pop\n      pop\n      pop\n      jump\t// out\n        /* \"Voting/contracts/Voting.sol\":1962:2096  function getCandidate(string memory _symbol) public view returns(Candidate memory){\r... */\n    tag_77:\n        /* \"Voting/contracts/Voting.sol\":2027:2043  Candidate memory */\n      tag_170\n      tag_87\n      jump\t// in\n    tag_170:\n        /* \"Voting/contracts/Voting.sol\":2062:2079  SymbolToCandidate */\n      0x04\n        /* \"Voting/contracts/Voting.sol\":2080:2087  _symbol */\n      dup3\n        /* \"Voting/contracts/Voting.sol\":2062:2088  SymbolToCandidate[_symbol] */\n      mload(0x40)\n      tag_172\n      swap2\n      swap1\n      tag_137\n      jump\t// in\n    tag_172:\n      swap1\n      dup2\n      mstore\n      0x20\n      add\n      mload(0x40)\n      dup1\n      swap2\n      sub\n      swap1\n      keccak256\n        /* \"Voting/contracts/Voting.sol\":2055:2088  return SymbolToCandidate[_symbol] */\n      mload(0x40)\n      dup1\n      0x80\n      add\n      0x40\n      mstore\n      swap1\n      dup2\n      0x00\n      dup3\n      add\n      dup1\n      sload\n      tag_173\n      swap1\n      tag_92\n      jump\t// in\n    tag_173:\n      dup1\n      0x1f\n      add\n      0x20\n      dup1\n      swap2\n      div\n      mul\n      0x20\n      add\n      mload(0x40)\n      swap1\n      dup2\n      add\n      0x40\n      mstore\n      dup1\n      swap3\n      swap2\n      swap1\n      dup2\n      dup2\n      mstore\n      0x20\n      add\n      dup3\n      dup1\n      sload\n      tag_174\n      swap1\n      tag_92\n      jump\t// in\n    tag_174:\n      dup1\n      iszero\n      tag_175\n      jumpi\n      dup1\n      0x1f\n      lt\n      tag_176\n      jumpi\n      0x0100\n      dup1\n      dup4\n      sload\n      div\n      mul\n      dup4\n      mstore\n      swap2\n      0x20\n      add\n      swap2\n      jump(tag_175)\n    tag_176:\n      dup3\n      add\n      swap2\n      swap1\n      0x00\n      mstore\n      keccak256(0x00, 0x20)\n      swap1\n    tag_177:\n      dup2\n      sload\n      dup2\n      mstore\n      swap1\n      0x01\n      add\n      swap1\n      0x20\n      add\n      dup1\n      dup4\n      gt\n      tag_177\n      jumpi\n      dup3\n      swap1\n      sub\n      0x1f\n      and\n      dup3\n      add\n      swap2\n    tag_175:\n      pop\n      pop\n      pop\n      pop\n      pop\n      dup2\n      mstore\n      0x20\n      add\n      0x01\n      dup3\n      add\n      0x00\n      swap1\n      sload\n      swap1\n      0x0100\n      exp\n      swap1\n      div\n      0xffffffffffffffffffffffffffffffffffffffff\n      and\n      0xffffffffffffffffffffffffffffffffffffffff\n      and\n      0xffffffffffffffffffffffffffffffffffffffff\n      and\n      dup2\n      mstore\n      0x20\n      add\n      0x02\n      dup3\n      add\n      sload\n      dup2\n      mstore\n      0x20\n      add\n      0x03\n      dup3\n      add\n      dup1\n      sload\n      tag_178\n      swap1\n      tag_92\n      jump\t// in\n    tag_178:\n      dup1\n      0x1f\n      add\n      0x20\n      dup1\n      swap2\n      div\n      mul\n      0x20\n      add\n      mload(0x40)\n      swap1\n      dup2\n      add\n      0x40\n      mstore\n      dup1\n      swap3\n      swap2\n      swap1\n      dup2\n      dup2\n      mstore\n      0x20\n      add\n      dup3\n      dup1\n      sload\n      tag_179\n      swap1\n      tag_92\n      jump\t// in\n    tag_179:\n      dup1\n      iszero\n      tag_180\n      jumpi\n      dup1\n      0x1f\n      lt\n      tag_181\n      jumpi\n      0x0100\n      dup1\n      dup4\n      sload\n      div\n      mul\n      dup4\n      mstore\n      swap2\n      0x20\n      add\n      swap2\n      jump(tag_180)\n    tag_181:\n      dup3\n      add\n      swap2\n      swap1\n      0x00\n      mstore\n      keccak256(0x00, 0x20)\n      swap1\n    tag_182:\n      dup2\n      sload\n      dup2\n      mstore\n      swap1\n      0x01\n      add\n      swap1\n      0x20\n      add\n      dup1\n      dup4\n      gt\n      tag_182\n      jumpi\n      dup3\n      swap1\n      sub\n      0x1f\n      and\n      dup3\n      add\n      swap2\n    tag_180:\n      pop\n      pop\n      pop\n      pop\n      pop\n      dup2\n      mstore\n      pop\n      pop\n      swap1\n      pop\n        /* \"Voting/contracts/Voting.sol\":1962:2096  function getCandidate(string memory _symbol) public view returns(Candidate memory){\r... */\n      swap2\n      swap1\n      pop\n      jump\t// out\n    tag_87:\n      mload(0x40)\n      dup1\n      0x80\n      add\n      0x40\n      mstore\n      dup1\n      0x60\n      dup2\n      mstore\n      0x20\n      add\n      and(0xffffffffffffffffffffffffffffffffffffffff, 0x00)\n      dup2\n      mstore\n      0x20\n      add\n      0x00\n      dup2\n      mstore\n      0x20\n      add\n      0x60\n      dup2\n      mstore\n      pop\n      swap1\n      jump\t// out\n    tag_134:\n      dup3\n      dup1\n      sload\n      tag_183\n      swap1\n      tag_92\n      jump\t// in\n    tag_183:\n      swap1\n      0x00\n      mstore\n      keccak256(0x00, 0x20)\n      swap1\n      0x1f\n      add\n      0x20\n      swap1\n      div\n      dup2\n      add\n      swap3\n      dup3\n      tag_185\n      jumpi\n      0x00\n      dup6\n      sstore\n      jump(tag_184)\n    tag_185:\n      dup3\n      0x1f\n      lt\n      tag_186\n      jumpi\n      dup1\n      mload\n      not(0xff)\n      and\n      dup4\n      dup1\n      add\n      or\n      dup6\n      sstore\n      jump(tag_184)\n    tag_186:\n      dup3\n      dup1\n      add\n      0x01\n      add\n      dup6\n      sstore\n      dup3\n      iszero\n      tag_184\n      jumpi\n      swap2\n      dup3\n      add\n    tag_187:\n      dup3\n      dup2\n      gt\n      iszero\n      tag_188\n      jumpi\n      dup3\n      mload\n      dup3\n      sstore\n      swap2\n      0x20\n      add\n      swap2\n      swap1\n      0x01\n      add\n      swap1\n      jump(tag_187)\n    tag_188:\n    tag_184:\n      pop\n      swap1\n      pop\n      tag_189\n      swap2\n      swap1\n      tag_190\n      jump\t// in\n    tag_189:\n      pop\n      swap1\n      jump\t// out\n    tag_167:\n      mload(0x40)\n      dup1\n      0x60\n      add\n      0x40\n      mstore\n      dup1\n      0x60\n      dup2\n      mstore\n      0x20\n      add\n      and(0xffffffffffffffffffffffffffffffffffffffff, 0x00)\n      dup2\n      mstore\n      0x20\n      add\n      iszero(iszero(0x00))\n      dup2\n      mstore\n      pop\n      swap1\n      jump\t// out\n    tag_190:\n    tag_191:\n      dup1\n      dup3\n      gt\n      iszero\n      tag_192\n      jumpi\n      0x00\n      dup2\n      0x00\n      swap1\n      sstore\n      pop\n      0x01\n      add\n      jump(tag_191)\n    tag_192:\n      pop\n      swap1\n      jump\t// out\n        /* \"#utility.yul\":7:419   */\n    tag_194:\n        /* \"#utility.yul\":85:90   */\n      0x00\n        /* \"#utility.yul\":110:176   */\n      tag_196\n        /* \"#utility.yul\":126:175   */\n      tag_197\n        /* \"#utility.yul\":168:174   */\n      dup5\n        /* \"#utility.yul\":126:175   */\n      tag_198\n      jump\t// in\n    tag_197:\n        /* \"#utility.yul\":110:176   */\n      tag_199\n      jump\t// in\n    tag_196:\n        /* \"#utility.yul\":101:176   */\n      swap1\n      pop\n        /* \"#utility.yul\":199:205   */\n      dup3\n        /* \"#utility.yul\":192:197   */\n      dup2\n        /* \"#utility.yul\":185:206   */\n      mstore\n        /* \"#utility.yul\":237:241   */\n      0x20\n        /* \"#utility.yul\":230:235   */\n      dup2\n        /* \"#utility.yul\":226:242   */\n      add\n        /* \"#utility.yul\":275:278   */\n      dup5\n        /* \"#utility.yul\":266:272   */\n      dup5\n        /* \"#utility.yul\":261:264   */\n      dup5\n        /* \"#utility.yul\":257:273   */\n      add\n        /* \"#utility.yul\":254:279   */\n      gt\n        /* \"#utility.yul\":251:363   */\n      iszero\n      tag_200\n      jumpi\n        /* \"#utility.yul\":282:361   */\n      tag_201\n      tag_202\n      jump\t// in\n    tag_201:\n        /* \"#utility.yul\":251:363   */\n    tag_200:\n        /* \"#utility.yul\":372:413   */\n      tag_203\n        /* \"#utility.yul\":406:412   */\n      dup5\n        /* \"#utility.yul\":401:404   */\n      dup3\n        /* \"#utility.yul\":396:399   */\n      dup6\n        /* \"#utility.yul\":372:413   */\n      tag_204\n      jump\t// in\n    tag_203:\n        /* \"#utility.yul\":91:419   */\n      pop\n        /* \"#utility.yul\":7:419   */\n      swap4\n      swap3\n      pop\n      pop\n      pop\n      jump\t// out\n        /* \"#utility.yul\":425:564   */\n    tag_205:\n        /* \"#utility.yul\":471:476   */\n      0x00\n        /* \"#utility.yul\":509:515   */\n      dup2\n        /* \"#utility.yul\":496:516   */\n      calldataload\n        /* \"#utility.yul\":487:516   */\n      swap1\n      pop\n        /* \"#utility.yul\":525:558   */\n      tag_207\n        /* \"#utility.yul\":552:557   */\n      dup2\n        /* \"#utility.yul\":525:558   */\n      tag_208\n      jump\t// in\n    tag_207:\n        /* \"#utility.yul\":425:564   */\n      swap3\n      swap2\n      pop\n      pop\n      jump\t// out\n        /* \"#utility.yul\":584:924   */\n    tag_209:\n        /* \"#utility.yul\":640:645   */\n      0x00\n        /* \"#utility.yul\":689:692   */\n      dup3\n        /* \"#utility.yul\":682:686   */\n      0x1f\n        /* \"#utility.yul\":674:680   */\n      dup4\n        /* \"#utility.yul\":670:687   */\n      add\n        /* \"#utility.yul\":666:693   */\n      slt\n        /* \"#utility.yul\":656:778   */\n      tag_211\n      jumpi\n        /* \"#utility.yul\":697:776   */\n      tag_212\n      tag_213\n      jump\t// in\n    tag_212:\n        /* \"#utility.yul\":656:778   */\n    tag_211:\n        /* \"#utility.yul\":814:820   */\n      dup2\n        /* \"#utility.yul\":801:821   */\n      calldataload\n        /* \"#utility.yul\":839:918   */\n      tag_214\n        /* \"#utility.yul\":914:917   */\n      dup5\n        /* \"#utility.yul\":906:912   */\n      dup3\n        /* \"#utility.yul\":899:903   */\n      0x20\n        /* \"#utility.yul\":891:897   */\n      dup7\n        /* \"#utility.yul\":887:904   */\n      add\n        /* \"#utility.yul\":839:918   */\n      tag_194\n      jump\t// in\n    tag_214:\n        /* \"#utility.yul\":830:918   */\n      swap2\n      pop\n        /* \"#utility.yul\":646:924   */\n      pop\n        /* \"#utility.yul\":584:924   */\n      swap3\n      swap2\n      pop\n      pop\n      jump\t// out\n        /* \"#utility.yul\":930:1069   */\n    tag_215:\n        /* \"#utility.yul\":976:981   */\n      0x00\n        /* \"#utility.yul\":1014:1020   */\n      dup2\n        /* \"#utility.yul\":1001:1021   */\n      calldataload\n        /* \"#utility.yul\":992:1021   */\n      swap1\n      pop\n        /* \"#utility.yul\":1030:1063   */\n      tag_217\n        /* \"#utility.yul\":1057:1062   */\n      dup2\n        /* \"#utility.yul\":1030:1063   */\n      tag_218\n      jump\t// in\n    tag_217:\n        /* \"#utility.yul\":930:1069   */\n      swap3\n      swap2\n      pop\n      pop\n      jump\t// out\n        /* \"#utility.yul\":1075:1404   */\n    tag_30:\n        /* \"#utility.yul\":1134:1140   */\n      0x00\n        /* \"#utility.yul\":1183:1185   */\n      0x20\n        /* \"#utility.yul\":1171:1180   */\n      dup3\n        /* \"#utility.yul\":1162:1169   */\n      dup5\n        /* \"#utility.yul\":1158:1181   */\n      sub\n        /* \"#utility.yul\":1154:1186   */\n      slt\n        /* \"#utility.yul\":1151:1270   */\n      iszero\n      tag_220\n      jumpi\n        /* \"#utility.yul\":1189:1268   */\n      tag_221\n      tag_222\n      jump\t// in\n    tag_221:\n        /* \"#utility.yul\":1151:1270   */\n    tag_220:\n        /* \"#utility.yul\":1309:1310   */\n      0x00\n        /* \"#utility.yul\":1334:1387   */\n      tag_223\n        /* \"#utility.yul\":1379:1386   */\n      dup5\n        /* \"#utility.yul\":1370:1376   */\n      dup3\n        /* \"#utility.yul\":1359:1368   */\n      dup6\n        /* \"#utility.yul\":1355:1377   */\n      add\n        /* \"#utility.yul\":1334:1387   */\n      tag_205\n      jump\t// in\n    tag_223:\n        /* \"#utility.yul\":1324:1387   */\n      swap2\n      pop\n        /* \"#utility.yul\":1280:1397   */\n      pop\n        /* \"#utility.yul\":1075:1404   */\n      swap3\n      swap2\n      pop\n      pop\n      jump\t// out\n        /* \"#utility.yul\":1410:2064   */\n    tag_73:\n        /* \"#utility.yul\":1488:1494   */\n      0x00\n        /* \"#utility.yul\":1496:1502   */\n      dup1\n        /* \"#utility.yul\":1545:1547   */\n      0x40\n        /* \"#utility.yul\":1533:1542   */\n      dup4\n        /* \"#utility.yul\":1524:1531   */\n      dup6\n        /* \"#utility.yul\":1520:1543   */\n      sub\n        /* \"#utility.yul\":1516:1548   */\n      slt\n        /* \"#utility.yul\":1513:1632   */\n      iszero\n      tag_225\n      jumpi\n        /* \"#utility.yul\":1551:1630   */\n      tag_226\n      tag_222\n      jump\t// in\n    tag_226:\n        /* \"#utility.yul\":1513:1632   */\n    tag_225:\n        /* \"#utility.yul\":1671:1672   */\n      0x00\n        /* \"#utility.yul\":1696:1749   */\n      tag_227\n        /* \"#utility.yul\":1741:1748   */\n      dup6\n        /* \"#utility.yul\":1732:1738   */\n      dup3\n        /* \"#utility.yul\":1721:1730   */\n      dup7\n        /* \"#utility.yul\":1717:1739   */\n      add\n        /* \"#utility.yul\":1696:1749   */\n      tag_205\n      jump\t// in\n    tag_227:\n        /* \"#utility.yul\":1686:1749   */\n      swap3\n      pop\n        /* \"#utility.yul\":1642:1759   */\n      pop\n        /* \"#utility.yul\":1826:1828   */\n      0x20\n        /* \"#utility.yul\":1815:1824   */\n      dup4\n        /* \"#utility.yul\":1811:1829   */\n      add\n        /* \"#utility.yul\":1798:1830   */\n      calldataload\n        /* \"#utility.yul\":1857:1875   */\n      0xffffffffffffffff\n        /* \"#utility.yul\":1849:1855   */\n      dup2\n        /* \"#utility.yul\":1846:1876   */\n      gt\n        /* \"#utility.yul\":1843:1960   */\n      iszero\n      tag_228\n      jumpi\n        /* \"#utility.yul\":1879:1958   */\n      tag_229\n      tag_230\n      jump\t// in\n    tag_229:\n        /* \"#utility.yul\":1843:1960   */\n    tag_228:\n        /* \"#utility.yul\":1984:2047   */\n      tag_231\n        /* \"#utility.yul\":2039:2046   */\n      dup6\n        /* \"#utility.yul\":2030:2036   */\n      dup3\n        /* \"#utility.yul\":2019:2028   */\n      dup7\n        /* \"#utility.yul\":2015:2037   */\n      add\n        /* \"#utility.yul\":1984:2047   */\n      tag_209\n      jump\t// in\n    tag_231:\n        /* \"#utility.yul\":1974:2047   */\n      swap2\n      pop\n        /* \"#utility.yul\":1769:2057   */\n      pop\n        /* \"#utility.yul\":1410:2064   */\n      swap3\n      pop\n      swap3\n      swap1\n      pop\n      jump\t// out\n        /* \"#utility.yul\":2070:3049   */\n    tag_48:\n        /* \"#utility.yul\":2167:2173   */\n      0x00\n        /* \"#utility.yul\":2175:2181   */\n      dup1\n        /* \"#utility.yul\":2183:2189   */\n      0x00\n        /* \"#utility.yul\":2232:2234   */\n      0x60\n        /* \"#utility.yul\":2220:2229   */\n      dup5\n        /* \"#utility.yul\":2211:2218   */\n      dup7\n        /* \"#utility.yul\":2207:2230   */\n      sub\n        /* \"#utility.yul\":2203:2235   */\n      slt\n        /* \"#utility.yul\":2200:2319   */\n      iszero\n      tag_233\n      jumpi\n        /* \"#utility.yul\":2238:2317   */\n      tag_234\n      tag_222\n      jump\t// in\n    tag_234:\n        /* \"#utility.yul\":2200:2319   */\n    tag_233:\n        /* \"#utility.yul\":2358:2359   */\n      0x00\n        /* \"#utility.yul\":2383:2436   */\n      tag_235\n        /* \"#utility.yul\":2428:2435   */\n      dup7\n        /* \"#utility.yul\":2419:2425   */\n      dup3\n        /* \"#utility.yul\":2408:2417   */\n      dup8\n        /* \"#utility.yul\":2404:2426   */\n      add\n        /* \"#utility.yul\":2383:2436   */\n      tag_205\n      jump\t// in\n    tag_235:\n        /* \"#utility.yul\":2373:2436   */\n      swap4\n      pop\n        /* \"#utility.yul\":2329:2446   */\n      pop\n        /* \"#utility.yul\":2513:2515   */\n      0x20\n        /* \"#utility.yul\":2502:2511   */\n      dup5\n        /* \"#utility.yul\":2498:2516   */\n      add\n        /* \"#utility.yul\":2485:2517   */\n      calldataload\n        /* \"#utility.yul\":2544:2562   */\n      0xffffffffffffffff\n        /* \"#utility.yul\":2536:2542   */\n      dup2\n        /* \"#utility.yul\":2533:2563   */\n      gt\n        /* \"#utility.yul\":2530:2647   */\n      iszero\n      tag_236\n      jumpi\n        /* \"#utility.yul\":2566:2645   */\n      tag_237\n      tag_230\n      jump\t// in\n    tag_237:\n        /* \"#utility.yul\":2530:2647   */\n    tag_236:\n        /* \"#utility.yul\":2671:2734   */\n      tag_238\n        /* \"#utility.yul\":2726:2733   */\n      dup7\n        /* \"#utility.yul\":2717:2723   */\n      dup3\n        /* \"#utility.yul\":2706:2715   */\n      dup8\n        /* \"#utility.yul\":2702:2724   */\n      add\n        /* \"#utility.yul\":2671:2734   */\n      tag_209\n      jump\t// in\n    tag_238:\n        /* \"#utility.yul\":2661:2734   */\n      swap3\n      pop\n        /* \"#utility.yul\":2456:2744   */\n      pop\n        /* \"#utility.yul\":2811:2813   */\n      0x40\n        /* \"#utility.yul\":2800:2809   */\n      dup5\n        /* \"#utility.yul\":2796:2814   */\n      add\n        /* \"#utility.yul\":2783:2815   */\n      calldataload\n        /* \"#utility.yul\":2842:2860   */\n      0xffffffffffffffff\n        /* \"#utility.yul\":2834:2840   */\n      dup2\n        /* \"#utility.yul\":2831:2861   */\n      gt\n        /* \"#utility.yul\":2828:2945   */\n      iszero\n      tag_239\n      jumpi\n        /* \"#utility.yul\":2864:2943   */\n      tag_240\n      tag_230\n      jump\t// in\n    tag_240:\n        /* \"#utility.yul\":2828:2945   */\n    tag_239:\n        /* \"#utility.yul\":2969:3032   */\n      tag_241\n        /* \"#utility.yul\":3024:3031   */\n      dup7\n        /* \"#utility.yul\":3015:3021   */\n      dup3\n        /* \"#utility.yul\":3004:3013   */\n      dup8\n        /* \"#utility.yul\":3000:3022   */\n      add\n        /* \"#utility.yul\":2969:3032   */\n      tag_209\n      jump\t// in\n    tag_241:\n        /* \"#utility.yul\":2959:3032   */\n      swap2\n      pop\n        /* \"#utility.yul\":2754:3042   */\n      pop\n        /* \"#utility.yul\":2070:3049   */\n      swap3\n      pop\n      swap3\n      pop\n      swap3\n      jump\t// out\n        /* \"#utility.yul\":3055:3564   */\n    tag_39:\n        /* \"#utility.yul\":3124:3130   */\n      0x00\n        /* \"#utility.yul\":3173:3175   */\n      0x20\n        /* \"#utility.yul\":3161:3170   */\n      dup3\n        /* \"#utility.yul\":3152:3159   */\n      dup5\n        /* \"#utility.yul\":3148:3171   */\n      sub\n        /* \"#utility.yul\":3144:3176   */\n      slt\n        /* \"#utility.yul\":3141:3260   */\n      iszero\n      tag_243\n      jumpi\n        /* \"#utility.yul\":3179:3258   */\n      tag_244\n      tag_222\n      jump\t// in\n    tag_244:\n        /* \"#utility.yul\":3141:3260   */\n    tag_243:\n        /* \"#utility.yul\":3327:3328   */\n      0x00\n        /* \"#utility.yul\":3316:3325   */\n      dup3\n        /* \"#utility.yul\":3312:3329   */\n      add\n        /* \"#utility.yul\":3299:3330   */\n      calldataload\n        /* \"#utility.yul\":3357:3375   */\n      0xffffffffffffffff\n        /* \"#utility.yul\":3349:3355   */\n      dup2\n        /* \"#utility.yul\":3346:3376   */\n      gt\n        /* \"#utility.yul\":3343:3460   */\n      iszero\n      tag_245\n      jumpi\n        /* \"#utility.yul\":3379:3458   */\n      tag_246\n      tag_230\n      jump\t// in\n    tag_246:\n        /* \"#utility.yul\":3343:3460   */\n    tag_245:\n        /* \"#utility.yul\":3484:3547   */\n      tag_247\n        /* \"#utility.yul\":3539:3546   */\n      dup5\n        /* \"#utility.yul\":3530:3536   */\n      dup3\n        /* \"#utility.yul\":3519:3528   */\n      dup6\n        /* \"#utility.yul\":3515:3537   */\n      add\n        /* \"#utility.yul\":3484:3547   */\n      tag_209\n      jump\t// in\n    tag_247:\n        /* \"#utility.yul\":3474:3547   */\n      swap2\n      pop\n        /* \"#utility.yul\":3270:3557   */\n      pop\n        /* \"#utility.yul\":3055:3564   */\n      swap3\n      swap2\n      pop\n      pop\n      jump\t// out\n        /* \"#utility.yul\":3570:3899   */\n    tag_52:\n        /* \"#utility.yul\":3629:3635   */\n      0x00\n        /* \"#utility.yul\":3678:3680   */\n      0x20\n        /* \"#utility.yul\":3666:3675   */\n      dup3\n        /* \"#utility.yul\":3657:3664   */\n      dup5\n        /* \"#utility.yul\":3653:3676   */\n      sub\n        /* \"#utility.yul\":3649:3681   */\n      slt\n        /* \"#utility.yul\":3646:3765   */\n      iszero\n      tag_249\n      jumpi\n        /* \"#utility.yul\":3684:3763   */\n      tag_250\n      tag_222\n      jump\t// in\n    tag_250:\n        /* \"#utility.yul\":3646:3765   */\n    tag_249:\n        /* \"#utility.yul\":3804:3805   */\n      0x00\n        /* \"#utility.yul\":3829:3882   */\n      tag_251\n        /* \"#utility.yul\":3874:3881   */\n      dup5\n        /* \"#utility.yul\":3865:3871   */\n      dup3\n        /* \"#utility.yul\":3854:3863   */\n      dup6\n        /* \"#utility.yul\":3850:3872   */\n      add\n        /* \"#utility.yul\":3829:3882   */\n      tag_215\n      jump\t// in\n    tag_251:\n        /* \"#utility.yul\":3819:3882   */\n      swap2\n      pop\n        /* \"#utility.yul\":3775:3892   */\n      pop\n        /* \"#utility.yul\":3570:3899   */\n      swap3\n      swap2\n      pop\n      pop\n      jump\t// out\n        /* \"#utility.yul\":3905:4161   */\n    tag_252:\n        /* \"#utility.yul\":4024:4034   */\n      0x00\n        /* \"#utility.yul\":4059:4155   */\n      tag_254\n        /* \"#utility.yul\":4151:4154   */\n      dup4\n        /* \"#utility.yul\":4143:4149   */\n      dup4\n        /* \"#utility.yul\":4059:4155   */\n      tag_255\n      jump\t// in\n    tag_254:\n        /* \"#utility.yul\":4045:4155   */\n      swap1\n      pop\n        /* \"#utility.yul\":3905:4161   */\n      swap3\n      swap2\n      pop\n      pop\n      jump\t// out\n        /* \"#utility.yul\":4167:4275   */\n    tag_256:\n        /* \"#utility.yul\":4244:4268   */\n      tag_258\n        /* \"#utility.yul\":4262:4267   */\n      dup2\n        /* \"#utility.yul\":4244:4268   */\n      tag_259\n      jump\t// in\n    tag_258:\n        /* \"#utility.yul\":4239:4242   */\n      dup3\n        /* \"#utility.yul\":4232:4269   */\n      mstore\n        /* \"#utility.yul\":4167:4275   */\n      pop\n      pop\n      jump\t// out\n        /* \"#utility.yul\":4281:4399   */\n    tag_260:\n        /* \"#utility.yul\":4368:4392   */\n      tag_262\n        /* \"#utility.yul\":4386:4391   */\n      dup2\n        /* \"#utility.yul\":4368:4392   */\n      tag_259\n      jump\t// in\n    tag_262:\n        /* \"#utility.yul\":4363:4366   */\n      dup3\n        /* \"#utility.yul\":4356:4393   */\n      mstore\n        /* \"#utility.yul\":4281:4399   */\n      pop\n      pop\n      jump\t// out\n        /* \"#utility.yul\":4467:5578   */\n    tag_263:\n        /* \"#utility.yul\":4636:4639   */\n      0x00\n        /* \"#utility.yul\":4665:4744   */\n      tag_265\n        /* \"#utility.yul\":4738:4743   */\n      dup3\n        /* \"#utility.yul\":4665:4744   */\n      tag_266\n      jump\t// in\n    tag_265:\n        /* \"#utility.yul\":4760:4871   */\n      tag_267\n        /* \"#utility.yul\":4864:4870   */\n      dup2\n        /* \"#utility.yul\":4859:4862   */\n      dup6\n        /* \"#utility.yul\":4760:4871   */\n      tag_268\n      jump\t// in\n    tag_267:\n        /* \"#utility.yul\":4753:4871   */\n      swap4\n      pop\n        /* \"#utility.yul\":4897:4900   */\n      dup4\n        /* \"#utility.yul\":4942:4946   */\n      0x20\n        /* \"#utility.yul\":4934:4940   */\n      dup3\n        /* \"#utility.yul\":4930:4947   */\n      mul\n        /* \"#utility.yul\":4925:4928   */\n      dup6\n        /* \"#utility.yul\":4921:4948   */\n      add\n        /* \"#utility.yul\":4972:5053   */\n      tag_269\n        /* \"#utility.yul\":5047:5052   */\n      dup6\n        /* \"#utility.yul\":4972:5053   */\n      tag_270\n      jump\t// in\n    tag_269:\n        /* \"#utility.yul\":5076:5083   */\n      dup1\n        /* \"#utility.yul\":5107:5108   */\n      0x00\n        /* \"#utility.yul\":5092:5533   */\n    tag_271:\n        /* \"#utility.yul\":5117:5123   */\n      dup6\n        /* \"#utility.yul\":5114:5115   */\n      dup2\n        /* \"#utility.yul\":5111:5124   */\n      lt\n        /* \"#utility.yul\":5092:5533   */\n      iszero\n      tag_273\n      jumpi\n        /* \"#utility.yul\":5188:5197   */\n      dup5\n        /* \"#utility.yul\":5182:5186   */\n      dup5\n        /* \"#utility.yul\":5178:5198   */\n      sub\n        /* \"#utility.yul\":5173:5176   */\n      dup10\n        /* \"#utility.yul\":5166:5199   */\n      mstore\n        /* \"#utility.yul\":5239:5245   */\n      dup2\n        /* \"#utility.yul\":5233:5246   */\n      mload\n        /* \"#utility.yul\":5267:5381   */\n      tag_274\n        /* \"#utility.yul\":5376:5380   */\n      dup6\n        /* \"#utility.yul\":5361:5374   */\n      dup3\n        /* \"#utility.yul\":5267:5381   */\n      tag_252\n      jump\t// in\n    tag_274:\n        /* \"#utility.yul\":5259:5381   */\n      swap5\n      pop\n        /* \"#utility.yul\":5404:5489   */\n      tag_275\n        /* \"#utility.yul\":5482:5488   */\n      dup4\n        /* \"#utility.yul\":5404:5489   */\n      tag_276\n      jump\t// in\n    tag_275:\n        /* \"#utility.yul\":5394:5489   */\n      swap3\n      pop\n        /* \"#utility.yul\":5518:5522   */\n      0x20\n        /* \"#utility.yul\":5513:5516   */\n      dup11\n        /* \"#utility.yul\":5509:5523   */\n      add\n        /* \"#utility.yul\":5502:5523   */\n      swap10\n      pop\n        /* \"#utility.yul\":5152:5533   */\n      pop\n        /* \"#utility.yul\":5139:5140   */\n      0x01\n        /* \"#utility.yul\":5136:5137   */\n      dup2\n        /* \"#utility.yul\":5132:5141   */\n      add\n        /* \"#utility.yul\":5127:5141   */\n      swap1\n      pop\n        /* \"#utility.yul\":5092:5533   */\n      jump(tag_271)\n    tag_273:\n        /* \"#utility.yul\":5096:5110   */\n      pop\n        /* \"#utility.yul\":5549:5553   */\n      dup3\n        /* \"#utility.yul\":5542:5553   */\n      swap8\n      pop\n        /* \"#utility.yul\":5569:5572   */\n      dup8\n        /* \"#utility.yul\":5562:5572   */\n      swap6\n      pop\n        /* \"#utility.yul\":4641:5578   */\n      pop\n      pop\n      pop\n      pop\n      pop\n        /* \"#utility.yul\":4467:5578   */\n      swap3\n      swap2\n      pop\n      pop\n      jump\t// out\n        /* \"#utility.yul\":5584:5693   */\n    tag_277:\n        /* \"#utility.yul\":5665:5686   */\n      tag_279\n        /* \"#utility.yul\":5680:5685   */\n      dup2\n        /* \"#utility.yul\":5665:5686   */\n      tag_280\n      jump\t// in\n    tag_279:\n        /* \"#utility.yul\":5660:5663   */\n      dup3\n        /* \"#utility.yul\":5653:5687   */\n      mstore\n        /* \"#utility.yul\":5584:5693   */\n      pop\n      pop\n      jump\t// out\n        /* \"#utility.yul\":5699:5842   */\n    tag_281:\n        /* \"#utility.yul\":5792:5835   */\n      tag_283\n        /* \"#utility.yul\":5829:5834   */\n      dup2\n        /* \"#utility.yul\":5792:5835   */\n      tag_284\n      jump\t// in\n    tag_283:\n        /* \"#utility.yul\":5787:5790   */\n      dup3\n        /* \"#utility.yul\":5780:5836   */\n      mstore\n        /* \"#utility.yul\":5699:5842   */\n      pop\n      pop\n      jump\t// out\n        /* \"#utility.yul\":5848:6192   */\n    tag_285:\n        /* \"#utility.yul\":5926:5929   */\n      0x00\n        /* \"#utility.yul\":5954:5993   */\n      tag_287\n        /* \"#utility.yul\":5987:5992   */\n      dup3\n        /* \"#utility.yul\":5954:5993   */\n      tag_288\n      jump\t// in\n    tag_287:\n        /* \"#utility.yul\":6009:6070   */\n      tag_289\n        /* \"#utility.yul\":6063:6069   */\n      dup2\n        /* \"#utility.yul\":6058:6061   */\n      dup6\n        /* \"#utility.yul\":6009:6070   */\n      tag_290\n      jump\t// in\n    tag_289:\n        /* \"#utility.yul\":6002:6070   */\n      swap4\n      pop\n        /* \"#utility.yul\":6079:6131   */\n      tag_291\n        /* \"#utility.yul\":6124:6130   */\n      dup2\n        /* \"#utility.yul\":6119:6122   */\n      dup6\n        /* \"#utility.yul\":6112:6116   */\n      0x20\n        /* \"#utility.yul\":6105:6110   */\n      dup7\n        /* \"#utility.yul\":6101:6117   */\n      add\n        /* \"#utility.yul\":6079:6131   */\n      tag_292\n      jump\t// in\n    tag_291:\n        /* \"#utility.yul\":6156:6185   */\n      tag_293\n        /* \"#utility.yul\":6178:6184   */\n      dup2\n        /* \"#utility.yul\":6156:6185   */\n      tag_294\n      jump\t// in\n    tag_293:\n        /* \"#utility.yul\":6151:6154   */\n      dup5\n        /* \"#utility.yul\":6147:6186   */\n      add\n        /* \"#utility.yul\":6140:6186   */\n      swap2\n      pop\n        /* \"#utility.yul\":5930:6192   */\n      pop\n        /* \"#utility.yul\":5848:6192   */\n      swap3\n      swap2\n      pop\n      pop\n      jump\t// out\n        /* \"#utility.yul\":6198:6562   */\n    tag_295:\n        /* \"#utility.yul\":6286:6289   */\n      0x00\n        /* \"#utility.yul\":6314:6353   */\n      tag_297\n        /* \"#utility.yul\":6347:6352   */\n      dup3\n        /* \"#utility.yul\":6314:6353   */\n      tag_288\n      jump\t// in\n    tag_297:\n        /* \"#utility.yul\":6369:6440   */\n      tag_298\n        /* \"#utility.yul\":6433:6439   */\n      dup2\n        /* \"#utility.yul\":6428:6431   */\n      dup6\n        /* \"#utility.yul\":6369:6440   */\n      tag_299\n      jump\t// in\n    tag_298:\n        /* \"#utility.yul\":6362:6440   */\n      swap4\n      pop\n        /* \"#utility.yul\":6449:6501   */\n      tag_300\n        /* \"#utility.yul\":6494:6500   */\n      dup2\n        /* \"#utility.yul\":6489:6492   */\n      dup6\n        /* \"#utility.yul\":6482:6486   */\n      0x20\n        /* \"#utility.yul\":6475:6480   */\n      dup7\n        /* \"#utility.yul\":6471:6487   */\n      add\n        /* \"#utility.yul\":6449:6501   */\n      tag_292\n      jump\t// in\n    tag_300:\n        /* \"#utility.yul\":6526:6555   */\n      tag_301\n        /* \"#utility.yul\":6548:6554   */\n      dup2\n        /* \"#utility.yul\":6526:6555   */\n      tag_294\n      jump\t// in\n    tag_301:\n        /* \"#utility.yul\":6521:6524   */\n      dup5\n        /* \"#utility.yul\":6517:6556   */\n      add\n        /* \"#utility.yul\":6510:6556   */\n      swap2\n      pop\n        /* \"#utility.yul\":6290:6562   */\n      pop\n        /* \"#utility.yul\":6198:6562   */\n      swap3\n      swap2\n      pop\n      pop\n      jump\t// out\n        /* \"#utility.yul\":6568:6945   */\n    tag_302:\n        /* \"#utility.yul\":6674:6677   */\n      0x00\n        /* \"#utility.yul\":6702:6741   */\n      tag_304\n        /* \"#utility.yul\":6735:6740   */\n      dup3\n        /* \"#utility.yul\":6702:6741   */\n      tag_288\n      jump\t// in\n    tag_304:\n        /* \"#utility.yul\":6757:6846   */\n      tag_305\n        /* \"#utility.yul\":6839:6845   */\n      dup2\n        /* \"#utility.yul\":6834:6837   */\n      dup6\n        /* \"#utility.yul\":6757:6846   */\n      tag_306\n      jump\t// in\n    tag_305:\n        /* \"#utility.yul\":6750:6846   */\n      swap4\n      pop\n        /* \"#utility.yul\":6855:6907   */\n      tag_307\n        /* \"#utility.yul\":6900:6906   */\n      dup2\n        /* \"#utility.yul\":6895:6898   */\n      dup6\n        /* \"#utility.yul\":6888:6892   */\n      0x20\n        /* \"#utility.yul\":6881:6886   */\n      dup7\n        /* \"#utility.yul\":6877:6893   */\n      add\n        /* \"#utility.yul\":6855:6907   */\n      tag_292\n      jump\t// in\n    tag_307:\n        /* \"#utility.yul\":6932:6938   */\n      dup1\n        /* \"#utility.yul\":6927:6930   */\n      dup5\n        /* \"#utility.yul\":6923:6939   */\n      add\n        /* \"#utility.yul\":6916:6939   */\n      swap2\n      pop\n        /* \"#utility.yul\":6678:6945   */\n      pop\n        /* \"#utility.yul\":6568:6945   */\n      swap3\n      swap2\n      pop\n      pop\n      jump\t// out\n        /* \"#utility.yul\":7009:8056   */\n    tag_255:\n        /* \"#utility.yul\":7118:7121   */\n      0x00\n        /* \"#utility.yul\":7154:7158   */\n      0x80\n        /* \"#utility.yul\":7149:7152   */\n      dup4\n        /* \"#utility.yul\":7145:7159   */\n      add\n        /* \"#utility.yul\":7250:7254   */\n      0x00\n        /* \"#utility.yul\":7243:7248   */\n      dup4\n        /* \"#utility.yul\":7239:7255   */\n      add\n        /* \"#utility.yul\":7233:7256   */\n      mload\n        /* \"#utility.yul\":7303:7306   */\n      dup5\n        /* \"#utility.yul\":7297:7301   */\n      dup3\n        /* \"#utility.yul\":7293:7307   */\n      sub\n        /* \"#utility.yul\":7286:7290   */\n      0x00\n        /* \"#utility.yul\":7281:7284   */\n      dup7\n        /* \"#utility.yul\":7277:7291   */\n      add\n        /* \"#utility.yul\":7270:7308   */\n      mstore\n        /* \"#utility.yul\":7329:7402   */\n      tag_309\n        /* \"#utility.yul\":7397:7401   */\n      dup3\n        /* \"#utility.yul\":7383:7395   */\n      dup3\n        /* \"#utility.yul\":7329:7402   */\n      tag_285\n      jump\t// in\n    tag_309:\n        /* \"#utility.yul\":7321:7402   */\n      swap2\n      pop\n        /* \"#utility.yul\":7169:7413   */\n      pop\n        /* \"#utility.yul\":7507:7511   */\n      0x20\n        /* \"#utility.yul\":7500:7505   */\n      dup4\n        /* \"#utility.yul\":7496:7512   */\n      add\n        /* \"#utility.yul\":7490:7513   */\n      mload\n        /* \"#utility.yul\":7526:7589   */\n      tag_310\n        /* \"#utility.yul\":7583:7587   */\n      0x20\n        /* \"#utility.yul\":7578:7581   */\n      dup7\n        /* \"#utility.yul\":7574:7588   */\n      add\n        /* \"#utility.yul\":7560:7572   */\n      dup3\n        /* \"#utility.yul\":7526:7589   */\n      tag_256\n      jump\t// in\n    tag_310:\n        /* \"#utility.yul\":7423:7599   */\n      pop\n        /* \"#utility.yul\":7690:7694   */\n      0x40\n        /* \"#utility.yul\":7683:7688   */\n      dup4\n        /* \"#utility.yul\":7679:7695   */\n      add\n        /* \"#utility.yul\":7673:7696   */\n      mload\n        /* \"#utility.yul\":7709:7772   */\n      tag_311\n        /* \"#utility.yul\":7766:7770   */\n      0x40\n        /* \"#utility.yul\":7761:7764   */\n      dup7\n        /* \"#utility.yul\":7757:7771   */\n      add\n        /* \"#utility.yul\":7743:7755   */\n      dup3\n        /* \"#utility.yul\":7709:7772   */\n      tag_312\n      jump\t// in\n    tag_311:\n        /* \"#utility.yul\":7609:7782   */\n      pop\n        /* \"#utility.yul\":7866:7870   */\n      0x60\n        /* \"#utility.yul\":7859:7864   */\n      dup4\n        /* \"#utility.yul\":7855:7871   */\n      add\n        /* \"#utility.yul\":7849:7872   */\n      mload\n        /* \"#utility.yul\":7919:7922   */\n      dup5\n        /* \"#utility.yul\":7913:7917   */\n      dup3\n        /* \"#utility.yul\":7909:7923   */\n      sub\n        /* \"#utility.yul\":7902:7906   */\n      0x60\n        /* \"#utility.yul\":7897:7900   */\n      dup7\n        /* \"#utility.yul\":7893:7907   */\n      add\n        /* \"#utility.yul\":7886:7924   */\n      mstore\n        /* \"#utility.yul\":7945:8018   */\n      tag_313\n        /* \"#utility.yul\":8013:8017   */\n      dup3\n        /* \"#utility.yul\":7999:8011   */\n      dup3\n        /* \"#utility.yul\":7945:8018   */\n      tag_285\n      jump\t// in\n    tag_313:\n        /* \"#utility.yul\":7937:8018   */\n      swap2\n      pop\n        /* \"#utility.yul\":7792:8029   */\n      pop\n        /* \"#utility.yul\":8046:8050   */\n      dup1\n        /* \"#utility.yul\":8039:8050   */\n      swap2\n      pop\n        /* \"#utility.yul\":7123:8056   */\n      pop\n        /* \"#utility.yul\":7009:8056   */\n      swap3\n      swap2\n      pop\n      pop\n      jump\t// out\n        /* \"#utility.yul\":8120:9177   */\n    tag_314:\n        /* \"#utility.yul\":8239:8242   */\n      0x00\n        /* \"#utility.yul\":8275:8279   */\n      0x80\n        /* \"#utility.yul\":8270:8273   */\n      dup4\n        /* \"#utility.yul\":8266:8280   */\n      add\n        /* \"#utility.yul\":8371:8375   */\n      0x00\n        /* \"#utility.yul\":8364:8369   */\n      dup4\n        /* \"#utility.yul\":8360:8376   */\n      add\n        /* \"#utility.yul\":8354:8377   */\n      mload\n        /* \"#utility.yul\":8424:8427   */\n      dup5\n        /* \"#utility.yul\":8418:8422   */\n      dup3\n        /* \"#utility.yul\":8414:8428   */\n      sub\n        /* \"#utility.yul\":8407:8411   */\n      0x00\n        /* \"#utility.yul\":8402:8405   */\n      dup7\n        /* \"#utility.yul\":8398:8412   */\n      add\n        /* \"#utility.yul\":8391:8429   */\n      mstore\n        /* \"#utility.yul\":8450:8523   */\n      tag_316\n        /* \"#utility.yul\":8518:8522   */\n      dup3\n        /* \"#utility.yul\":8504:8516   */\n      dup3\n        /* \"#utility.yul\":8450:8523   */\n      tag_285\n      jump\t// in\n    tag_316:\n        /* \"#utility.yul\":8442:8523   */\n      swap2\n      pop\n        /* \"#utility.yul\":8290:8534   */\n      pop\n        /* \"#utility.yul\":8628:8632   */\n      0x20\n        /* \"#utility.yul\":8621:8626   */\n      dup4\n        /* \"#utility.yul\":8617:8633   */\n      add\n        /* \"#utility.yul\":8611:8634   */\n      mload\n        /* \"#utility.yul\":8647:8710   */\n      tag_317\n        /* \"#utility.yul\":8704:8708   */\n      0x20\n        /* \"#utility.yul\":8699:8702   */\n      dup7\n        /* \"#utility.yul\":8695:8709   */\n      add\n        /* \"#utility.yul\":8681:8693   */\n      dup3\n        /* \"#utility.yul\":8647:8710   */\n      tag_256\n      jump\t// in\n    tag_317:\n        /* \"#utility.yul\":8544:8720   */\n      pop\n        /* \"#utility.yul\":8811:8815   */\n      0x40\n        /* \"#utility.yul\":8804:8809   */\n      dup4\n        /* \"#utility.yul\":8800:8816   */\n      add\n        /* \"#utility.yul\":8794:8817   */\n      mload\n        /* \"#utility.yul\":8830:8893   */\n      tag_318\n        /* \"#utility.yul\":8887:8891   */\n      0x40\n        /* \"#utility.yul\":8882:8885   */\n      dup7\n        /* \"#utility.yul\":8878:8892   */\n      add\n        /* \"#utility.yul\":8864:8876   */\n      dup3\n        /* \"#utility.yul\":8830:8893   */\n      tag_312\n      jump\t// in\n    tag_318:\n        /* \"#utility.yul\":8730:8903   */\n      pop\n        /* \"#utility.yul\":8987:8991   */\n      0x60\n        /* \"#utility.yul\":8980:8985   */\n      dup4\n        /* \"#utility.yul\":8976:8992   */\n      add\n        /* \"#utility.yul\":8970:8993   */\n      mload\n        /* \"#utility.yul\":9040:9043   */\n      dup5\n        /* \"#utility.yul\":9034:9038   */\n      dup3\n        /* \"#utility.yul\":9030:9044   */\n      sub\n        /* \"#utility.yul\":9023:9027   */\n      0x60\n        /* \"#utility.yul\":9018:9021   */\n      dup7\n        /* \"#utility.yul\":9014:9028   */\n      add\n        /* \"#utility.yul\":9007:9045   */\n      mstore\n        /* \"#utility.yul\":9066:9139   */\n      tag_319\n        /* \"#utility.yul\":9134:9138   */\n      dup3\n        /* \"#utility.yul\":9120:9132   */\n      dup3\n        /* \"#utility.yul\":9066:9139   */\n      tag_285\n      jump\t// in\n    tag_319:\n        /* \"#utility.yul\":9058:9139   */\n      swap2\n      pop\n        /* \"#utility.yul\":8913:9150   */\n      pop\n        /* \"#utility.yul\":9167:9171   */\n      dup1\n        /* \"#utility.yul\":9160:9171   */\n      swap2\n      pop\n        /* \"#utility.yul\":8244:9177   */\n      pop\n        /* \"#utility.yul\":8120:9177   */\n      swap3\n      swap2\n      pop\n      pop\n      jump\t// out\n        /* \"#utility.yul\":9183:9291   */\n    tag_312:\n        /* \"#utility.yul\":9260:9284   */\n      tag_321\n        /* \"#utility.yul\":9278:9283   */\n      dup2\n        /* \"#utility.yul\":9260:9284   */\n      tag_322\n      jump\t// in\n    tag_321:\n        /* \"#utility.yul\":9255:9258   */\n      dup3\n        /* \"#utility.yul\":9248:9285   */\n      mstore\n        /* \"#utility.yul\":9183:9291   */\n      pop\n      pop\n      jump\t// out\n        /* \"#utility.yul\":9297:9415   */\n    tag_323:\n        /* \"#utility.yul\":9384:9408   */\n      tag_325\n        /* \"#utility.yul\":9402:9407   */\n      dup2\n        /* \"#utility.yul\":9384:9408   */\n      tag_322\n      jump\t// in\n    tag_325:\n        /* \"#utility.yul\":9379:9382   */\n      dup3\n        /* \"#utility.yul\":9372:9409   */\n      mstore\n        /* \"#utility.yul\":9297:9415   */\n      pop\n      pop\n      jump\t// out\n        /* \"#utility.yul\":9421:9696   */\n    tag_137:\n        /* \"#utility.yul\":9553:9556   */\n      0x00\n        /* \"#utility.yul\":9575:9670   */\n      tag_327\n        /* \"#utility.yul\":9666:9669   */\n      dup3\n        /* \"#utility.yul\":9657:9663   */\n      dup5\n        /* \"#utility.yul\":9575:9670   */\n      tag_302\n      jump\t// in\n    tag_327:\n        /* \"#utility.yul\":9568:9670   */\n      swap2\n      pop\n        /* \"#utility.yul\":9687:9690   */\n      dup2\n        /* \"#utility.yul\":9680:9690   */\n      swap1\n      pop\n        /* \"#utility.yul\":9421:9696   */\n      swap3\n      swap2\n      pop\n      pop\n      jump\t// out\n        /* \"#utility.yul\":9702:9924   */\n    tag_62:\n        /* \"#utility.yul\":9795:9799   */\n      0x00\n        /* \"#utility.yul\":9833:9835   */\n      0x20\n        /* \"#utility.yul\":9822:9831   */\n      dup3\n        /* \"#utility.yul\":9818:9836   */\n      add\n        /* \"#utility.yul\":9810:9836   */\n      swap1\n      pop\n        /* \"#utility.yul\":9846:9917   */\n      tag_329\n        /* \"#utility.yul\":9914:9915   */\n      0x00\n        /* \"#utility.yul\":9903:9912   */\n      dup4\n        /* \"#utility.yul\":9899:9916   */\n      add\n        /* \"#utility.yul\":9890:9896   */\n      dup5\n        /* \"#utility.yul\":9846:9917   */\n      tag_260\n      jump\t// in\n    tag_329:\n        /* \"#utility.yul\":9702:9924   */\n      swap3\n      swap2\n      pop\n      pop\n      jump\t// out\n        /* \"#utility.yul\":9930:10403   */\n    tag_23:\n        /* \"#utility.yul\":10123:10127   */\n      0x00\n        /* \"#utility.yul\":10161:10163   */\n      0x20\n        /* \"#utility.yul\":10150:10159   */\n      dup3\n        /* \"#utility.yul\":10146:10164   */\n      add\n        /* \"#utility.yul\":10138:10164   */\n      swap1\n      pop\n        /* \"#utility.yul\":10210:10219   */\n      dup2\n        /* \"#utility.yul\":10204:10208   */\n      dup2\n        /* \"#utility.yul\":10200:10220   */\n      sub\n        /* \"#utility.yul\":10196:10197   */\n      0x00\n        /* \"#utility.yul\":10185:10194   */\n      dup4\n        /* \"#utility.yul\":10181:10198   */\n      add\n        /* \"#utility.yul\":10174:10221   */\n      mstore\n        /* \"#utility.yul\":10238:10396   */\n      tag_331\n        /* \"#utility.yul\":10391:10395   */\n      dup2\n        /* \"#utility.yul\":10382:10388   */\n      dup5\n        /* \"#utility.yul\":10238:10396   */\n      tag_263\n      jump\t// in\n    tag_331:\n        /* \"#utility.yul\":10230:10396   */\n      swap1\n      pop\n        /* \"#utility.yul\":9930:10403   */\n      swap3\n      swap2\n      pop\n      pop\n      jump\t// out\n        /* \"#utility.yul\":10409:10643   */\n    tag_66:\n        /* \"#utility.yul\":10508:10512   */\n      0x00\n        /* \"#utility.yul\":10546:10548   */\n      0x20\n        /* \"#utility.yul\":10535:10544   */\n      dup3\n        /* \"#utility.yul\":10531:10549   */\n      add\n        /* \"#utility.yul\":10523:10549   */\n      swap1\n      pop\n        /* \"#utility.yul\":10559:10636   */\n      tag_333\n        /* \"#utility.yul\":10633:10634   */\n      0x00\n        /* \"#utility.yul\":10622:10631   */\n      dup4\n        /* \"#utility.yul\":10618:10635   */\n      add\n        /* \"#utility.yul\":10609:10615   */\n      dup5\n        /* \"#utility.yul\":10559:10636   */\n      tag_281\n      jump\t// in\n    tag_333:\n        /* \"#utility.yul\":10409:10643   */\n      swap3\n      swap2\n      pop\n      pop\n      jump\t// out\n        /* \"#utility.yul\":10649:10962   */\n    tag_58:\n        /* \"#utility.yul\":10762:10766   */\n      0x00\n        /* \"#utility.yul\":10800:10802   */\n      0x20\n        /* \"#utility.yul\":10789:10798   */\n      dup3\n        /* \"#utility.yul\":10785:10803   */\n      add\n        /* \"#utility.yul\":10777:10803   */\n      swap1\n      pop\n        /* \"#utility.yul\":10849:10858   */\n      dup2\n        /* \"#utility.yul\":10843:10847   */\n      dup2\n        /* \"#utility.yul\":10839:10859   */\n      sub\n        /* \"#utility.yul\":10835:10836   */\n      0x00\n        /* \"#utility.yul\":10824:10833   */\n      dup4\n        /* \"#utility.yul\":10820:10837   */\n      add\n        /* \"#utility.yul\":10813:10860   */\n      mstore\n        /* \"#utility.yul\":10877:10955   */\n      tag_335\n        /* \"#utility.yul\":10950:10954   */\n      dup2\n        /* \"#utility.yul\":10941:10947   */\n      dup5\n        /* \"#utility.yul\":10877:10955   */\n      tag_295\n      jump\t// in\n    tag_335:\n        /* \"#utility.yul\":10869:10955   */\n      swap1\n      pop\n        /* \"#utility.yul\":10649:10962   */\n      swap3\n      swap2\n      pop\n      pop\n      jump\t// out\n        /* \"#utility.yul\":10968:11489   */\n    tag_33:\n        /* \"#utility.yul\":11131:11135   */\n      0x00\n        /* \"#utility.yul\":11169:11171   */\n      0x60\n        /* \"#utility.yul\":11158:11167   */\n      dup3\n        /* \"#utility.yul\":11154:11172   */\n      add\n        /* \"#utility.yul\":11146:11172   */\n      swap1\n      pop\n        /* \"#utility.yul\":11218:11227   */\n      dup2\n        /* \"#utility.yul\":11212:11216   */\n      dup2\n        /* \"#utility.yul\":11208:11228   */\n      sub\n        /* \"#utility.yul\":11204:11205   */\n      0x00\n        /* \"#utility.yul\":11193:11202   */\n      dup4\n        /* \"#utility.yul\":11189:11206   */\n      add\n        /* \"#utility.yul\":11182:11229   */\n      mstore\n        /* \"#utility.yul\":11246:11324   */\n      tag_337\n        /* \"#utility.yul\":11319:11323   */\n      dup2\n        /* \"#utility.yul\":11310:11316   */\n      dup7\n        /* \"#utility.yul\":11246:11324   */\n      tag_295\n      jump\t// in\n    tag_337:\n        /* \"#utility.yul\":11238:11324   */\n      swap1\n      pop\n        /* \"#utility.yul\":11334:11406   */\n      tag_338\n        /* \"#utility.yul\":11402:11404   */\n      0x20\n        /* \"#utility.yul\":11391:11400   */\n      dup4\n        /* \"#utility.yul\":11387:11405   */\n      add\n        /* \"#utility.yul\":11378:11384   */\n      dup6\n        /* \"#utility.yul\":11334:11406   */\n      tag_260\n      jump\t// in\n    tag_338:\n        /* \"#utility.yul\":11416:11482   */\n      tag_339\n        /* \"#utility.yul\":11478:11480   */\n      0x40\n        /* \"#utility.yul\":11467:11476   */\n      dup4\n        /* \"#utility.yul\":11463:11481   */\n      add\n        /* \"#utility.yul\":11454:11460   */\n      dup5\n        /* \"#utility.yul\":11416:11482   */\n      tag_277\n      jump\t// in\n    tag_339:\n        /* \"#utility.yul\":10968:11489   */\n      swap5\n      swap4\n      pop\n      pop\n      pop\n      pop\n      jump\t// out\n        /* \"#utility.yul\":11495:12230   */\n    tag_42:\n        /* \"#utility.yul\":11712:11716   */\n      0x00\n        /* \"#utility.yul\":11750:11753   */\n      0x80\n        /* \"#utility.yul\":11739:11748   */\n      dup3\n        /* \"#utility.yul\":11735:11754   */\n      add\n        /* \"#utility.yul\":11727:11754   */\n      swap1\n      pop\n        /* \"#utility.yul\":11800:11809   */\n      dup2\n        /* \"#utility.yul\":11794:11798   */\n      dup2\n        /* \"#utility.yul\":11790:11810   */\n      sub\n        /* \"#utility.yul\":11786:11787   */\n      0x00\n        /* \"#utility.yul\":11775:11784   */\n      dup4\n        /* \"#utility.yul\":11771:11788   */\n      add\n        /* \"#utility.yul\":11764:11811   */\n      mstore\n        /* \"#utility.yul\":11828:11906   */\n      tag_341\n        /* \"#utility.yul\":11901:11905   */\n      dup2\n        /* \"#utility.yul\":11892:11898   */\n      dup8\n        /* \"#utility.yul\":11828:11906   */\n      tag_295\n      jump\t// in\n    tag_341:\n        /* \"#utility.yul\":11820:11906   */\n      swap1\n      pop\n        /* \"#utility.yul\":11916:11988   */\n      tag_342\n        /* \"#utility.yul\":11984:11986   */\n      0x20\n        /* \"#utility.yul\":11973:11982   */\n      dup4\n        /* \"#utility.yul\":11969:11987   */\n      add\n        /* \"#utility.yul\":11960:11966   */\n      dup7\n        /* \"#utility.yul\":11916:11988   */\n      tag_260\n      jump\t// in\n    tag_342:\n        /* \"#utility.yul\":11998:12070   */\n      tag_343\n        /* \"#utility.yul\":12066:12068   */\n      0x40\n        /* \"#utility.yul\":12055:12064   */\n      dup4\n        /* \"#utility.yul\":12051:12069   */\n      add\n        /* \"#utility.yul\":12042:12048   */\n      dup6\n        /* \"#utility.yul\":11998:12070   */\n      tag_323\n      jump\t// in\n    tag_343:\n        /* \"#utility.yul\":12117:12126   */\n      dup2\n        /* \"#utility.yul\":12111:12115   */\n      dup2\n        /* \"#utility.yul\":12107:12127   */\n      sub\n        /* \"#utility.yul\":12102:12104   */\n      0x60\n        /* \"#utility.yul\":12091:12100   */\n      dup4\n        /* \"#utility.yul\":12087:12105   */\n      add\n        /* \"#utility.yul\":12080:12128   */\n      mstore\n        /* \"#utility.yul\":12145:12223   */\n      tag_344\n        /* \"#utility.yul\":12218:12222   */\n      dup2\n        /* \"#utility.yul\":12209:12215   */\n      dup5\n        /* \"#utility.yul\":12145:12223   */\n      tag_295\n      jump\t// in\n    tag_344:\n        /* \"#utility.yul\":12137:12223   */\n      swap1\n      pop\n        /* \"#utility.yul\":11495:12230   */\n      swap6\n      swap5\n      pop\n      pop\n      pop\n      pop\n      pop\n      jump\t// out\n        /* \"#utility.yul\":12236:12609   */\n    tag_79:\n        /* \"#utility.yul\":12379:12383   */\n      0x00\n        /* \"#utility.yul\":12417:12419   */\n      0x20\n        /* \"#utility.yul\":12406:12415   */\n      dup3\n        /* \"#utility.yul\":12402:12420   */\n      add\n        /* \"#utility.yul\":12394:12420   */\n      swap1\n      pop\n        /* \"#utility.yul\":12466:12475   */\n      dup2\n        /* \"#utility.yul\":12460:12464   */\n      dup2\n        /* \"#utility.yul\":12456:12476   */\n      sub\n        /* \"#utility.yul\":12452:12453   */\n      0x00\n        /* \"#utility.yul\":12441:12450   */\n      dup4\n        /* \"#utility.yul\":12437:12454   */\n      add\n        /* \"#utility.yul\":12430:12477   */\n      mstore\n        /* \"#utility.yul\":12494:12602   */\n      tag_346\n        /* \"#utility.yul\":12597:12601   */\n      dup2\n        /* \"#utility.yul\":12588:12594   */\n      dup5\n        /* \"#utility.yul\":12494:12602   */\n      tag_314\n      jump\t// in\n    tag_346:\n        /* \"#utility.yul\":12486:12602   */\n      swap1\n      pop\n        /* \"#utility.yul\":12236:12609   */\n      swap3\n      swap2\n      pop\n      pop\n      jump\t// out\n        /* \"#utility.yul\":12615:12837   */\n    tag_27:\n        /* \"#utility.yul\":12708:12712   */\n      0x00\n        /* \"#utility.yul\":12746:12748   */\n      0x20\n        /* \"#utility.yul\":12735:12744   */\n      dup3\n        /* \"#utility.yul\":12731:12749   */\n      add\n        /* \"#utility.yul\":12723:12749   */\n      swap1\n      pop\n        /* \"#utility.yul\":12759:12830   */\n      tag_348\n        /* \"#utility.yul\":12827:12828   */\n      0x00\n        /* \"#utility.yul\":12816:12825   */\n      dup4\n        /* \"#utility.yul\":12812:12829   */\n      add\n        /* \"#utility.yul\":12803:12809   */\n      dup5\n        /* \"#utility.yul\":12759:12830   */\n      tag_323\n      jump\t// in\n    tag_348:\n        /* \"#utility.yul\":12615:12837   */\n      swap3\n      swap2\n      pop\n      pop\n      jump\t// out\n        /* \"#utility.yul\":12843:12972   */\n    tag_199:\n        /* \"#utility.yul\":12877:12883   */\n      0x00\n        /* \"#utility.yul\":12904:12924   */\n      tag_350\n      tag_351\n      jump\t// in\n    tag_350:\n        /* \"#utility.yul\":12894:12924   */\n      swap1\n      pop\n        /* \"#utility.yul\":12933:12966   */\n      tag_352\n        /* \"#utility.yul\":12961:12965   */\n      dup3\n        /* \"#utility.yul\":12953:12959   */\n      dup3\n        /* \"#utility.yul\":12933:12966   */\n      tag_353\n      jump\t// in\n    tag_352:\n        /* \"#utility.yul\":12843:12972   */\n      swap2\n      swap1\n      pop\n      jump\t// out\n        /* \"#utility.yul\":12978:13053   */\n    tag_351:\n        /* \"#utility.yul\":13011:13017   */\n      0x00\n        /* \"#utility.yul\":13044:13046   */\n      0x40\n        /* \"#utility.yul\":13038:13047   */\n      mload\n        /* \"#utility.yul\":13028:13047   */\n      swap1\n      pop\n        /* \"#utility.yul\":12978:13053   */\n      swap1\n      jump\t// out\n        /* \"#utility.yul\":13059:13367   */\n    tag_198:\n        /* \"#utility.yul\":13121:13125   */\n      0x00\n        /* \"#utility.yul\":13211:13229   */\n      0xffffffffffffffff\n        /* \"#utility.yul\":13203:13209   */\n      dup3\n        /* \"#utility.yul\":13200:13230   */\n      gt\n        /* \"#utility.yul\":13197:13253   */\n      iszero\n      tag_356\n      jumpi\n        /* \"#utility.yul\":13233:13251   */\n      tag_357\n      tag_83\n      jump\t// in\n    tag_357:\n        /* \"#utility.yul\":13197:13253   */\n    tag_356:\n        /* \"#utility.yul\":13271:13300   */\n      tag_358\n        /* \"#utility.yul\":13293:13299   */\n      dup3\n        /* \"#utility.yul\":13271:13300   */\n      tag_294\n      jump\t// in\n    tag_358:\n        /* \"#utility.yul\":13263:13300   */\n      swap1\n      pop\n        /* \"#utility.yul\":13355:13359   */\n      0x20\n        /* \"#utility.yul\":13349:13353   */\n      dup2\n        /* \"#utility.yul\":13345:13360   */\n      add\n        /* \"#utility.yul\":13337:13360   */\n      swap1\n      pop\n        /* \"#utility.yul\":13059:13367   */\n      swap2\n      swap1\n      pop\n      jump\t// out\n        /* \"#utility.yul\":13373:13530   */\n    tag_270:\n        /* \"#utility.yul\":13465:13469   */\n      0x00\n        /* \"#utility.yul\":13488:13491   */\n      dup2\n        /* \"#utility.yul\":13480:13491   */\n      swap1\n      pop\n        /* \"#utility.yul\":13518:13522   */\n      0x20\n        /* \"#utility.yul\":13513:13516   */\n      dup3\n        /* \"#utility.yul\":13509:13523   */\n      add\n        /* \"#utility.yul\":13501:13523   */\n      swap1\n      pop\n        /* \"#utility.yul\":13373:13530   */\n      swap2\n      swap1\n      pop\n      jump\t// out\n        /* \"#utility.yul\":13536:13675   */\n    tag_266:\n        /* \"#utility.yul\":13628:13634   */\n      0x00\n        /* \"#utility.yul\":13662:13667   */\n      dup2\n        /* \"#utility.yul\":13656:13668   */\n      mload\n        /* \"#utility.yul\":13646:13668   */\n      swap1\n      pop\n        /* \"#utility.yul\":13536:13675   */\n      swap2\n      swap1\n      pop\n      jump\t// out\n        /* \"#utility.yul\":13681:13780   */\n    tag_288:\n        /* \"#utility.yul\":13733:13739   */\n      0x00\n        /* \"#utility.yul\":13767:13772   */\n      dup2\n        /* \"#utility.yul\":13761:13773   */\n      mload\n        /* \"#utility.yul\":13751:13773   */\n      swap1\n      pop\n        /* \"#utility.yul\":13681:13780   */\n      swap2\n      swap1\n      pop\n      jump\t// out\n        /* \"#utility.yul\":13786:13924   */\n    tag_276:\n        /* \"#utility.yul\":13881:13885   */\n      0x00\n        /* \"#utility.yul\":13913:13917   */\n      0x20\n        /* \"#utility.yul\":13908:13911   */\n      dup3\n        /* \"#utility.yul\":13904:13918   */\n      add\n        /* \"#utility.yul\":13896:13918   */\n      swap1\n      pop\n        /* \"#utility.yul\":13786:13924   */\n      swap2\n      swap1\n      pop\n      jump\t// out\n        /* \"#utility.yul\":13930:14139   */\n    tag_268:\n        /* \"#utility.yul\":14054:14065   */\n      0x00\n        /* \"#utility.yul\":14088:14094   */\n      dup3\n        /* \"#utility.yul\":14083:14086   */\n      dup3\n        /* \"#utility.yul\":14076:14095   */\n      mstore\n        /* \"#utility.yul\":14128:14132   */\n      0x20\n        /* \"#utility.yul\":14123:14126   */\n      dup3\n        /* \"#utility.yul\":14119:14133   */\n      add\n        /* \"#utility.yul\":14104:14133   */\n      swap1\n      pop\n        /* \"#utility.yul\":13930:14139   */\n      swap3\n      swap2\n      pop\n      pop\n      jump\t// out\n        /* \"#utility.yul\":14145:14304   */\n    tag_290:\n        /* \"#utility.yul\":14219:14230   */\n      0x00\n        /* \"#utility.yul\":14253:14259   */\n      dup3\n        /* \"#utility.yul\":14248:14251   */\n      dup3\n        /* \"#utility.yul\":14241:14260   */\n      mstore\n        /* \"#utility.yul\":14293:14297   */\n      0x20\n        /* \"#utility.yul\":14288:14291   */\n      dup3\n        /* \"#utility.yul\":14284:14298   */\n      add\n        /* \"#utility.yul\":14269:14298   */\n      swap1\n      pop\n        /* \"#utility.yul\":14145:14304   */\n      swap3\n      swap2\n      pop\n      pop\n      jump\t// out\n        /* \"#utility.yul\":14310:14479   */\n    tag_299:\n        /* \"#utility.yul\":14394:14405   */\n      0x00\n        /* \"#utility.yul\":14428:14434   */\n      dup3\n        /* \"#utility.yul\":14423:14426   */\n      dup3\n        /* \"#utility.yul\":14416:14435   */\n      mstore\n        /* \"#utility.yul\":14468:14472   */\n      0x20\n        /* \"#utility.yul\":14463:14466   */\n      dup3\n        /* \"#utility.yul\":14459:14473   */\n      add\n        /* \"#utility.yul\":14444:14473   */\n      swap1\n      pop\n        /* \"#utility.yul\":14310:14479   */\n      swap3\n      swap2\n      pop\n      pop\n      jump\t// out\n        /* \"#utility.yul\":14485:14633   */\n    tag_306:\n        /* \"#utility.yul\":14587:14598   */\n      0x00\n        /* \"#utility.yul\":14624:14627   */\n      dup2\n        /* \"#utility.yul\":14609:14627   */\n      swap1\n      pop\n        /* \"#utility.yul\":14485:14633   */\n      swap3\n      swap2\n      pop\n      pop\n      jump\t// out\n        /* \"#utility.yul\":14639:14944   */\n    tag_141:\n        /* \"#utility.yul\":14679:14682   */\n      0x00\n        /* \"#utility.yul\":14698:14718   */\n      tag_368\n        /* \"#utility.yul\":14716:14717   */\n      dup3\n        /* \"#utility.yul\":14698:14718   */\n      tag_322\n      jump\t// in\n    tag_368:\n        /* \"#utility.yul\":14693:14718   */\n      swap2\n      pop\n        /* \"#utility.yul\":14732:14752   */\n      tag_369\n        /* \"#utility.yul\":14750:14751   */\n      dup4\n        /* \"#utility.yul\":14732:14752   */\n      tag_322\n      jump\t// in\n    tag_369:\n        /* \"#utility.yul\":14727:14752   */\n      swap3\n      pop\n        /* \"#utility.yul\":14886:14887   */\n      dup3\n        /* \"#utility.yul\":14818:14884   */\n      0xffffffffffffffffffffffffffffffffffffffffffffffffffffffffffffffff\n        /* \"#utility.yul\":14814:14888   */\n      sub\n        /* \"#utility.yul\":14811:14812   */\n      dup3\n        /* \"#utility.yul\":14808:14889   */\n      gt\n        /* \"#utility.yul\":14805:14912   */\n      iszero\n      tag_370\n      jumpi\n        /* \"#utility.yul\":14892:14910   */\n      tag_371\n      tag_372\n      jump\t// in\n    tag_371:\n        /* \"#utility.yul\":14805:14912   */\n    tag_370:\n        /* \"#utility.yul\":14936:14937   */\n      dup3\n        /* \"#utility.yul\":14933:14934   */\n      dup3\n        /* \"#utility.yul\":14929:14938   */\n      add\n        /* \"#utility.yul\":14922:14938   */\n      swap1\n      pop\n        /* \"#utility.yul\":14639:14944   */\n      swap3\n      swap2\n      pop\n      pop\n      jump\t// out\n        /* \"#utility.yul\":14950:15046   */\n    tag_259:\n        /* \"#utility.yul\":14987:14994   */\n      0x00\n        /* \"#utility.yul\":15016:15040   */\n      tag_374\n        /* \"#utility.yul\":15034:15039   */\n      dup3\n        /* \"#utility.yul\":15016:15040   */\n      tag_375\n      jump\t// in\n    tag_374:\n        /* \"#utility.yul\":15005:15040   */\n      swap1\n      pop\n        /* \"#utility.yul\":14950:15046   */\n      swap2\n      swap1\n      pop\n      jump\t// out\n        /* \"#utility.yul\":15052:15142   */\n    tag_280:\n        /* \"#utility.yul\":15086:15093   */\n      0x00\n        /* \"#utility.yul\":15129:15134   */\n      dup2\n        /* \"#utility.yul\":15122:15135   */\n      iszero\n        /* \"#utility.yul\":15115:15136   */\n      iszero\n        /* \"#utility.yul\":15104:15136   */\n      swap1\n      pop\n        /* \"#utility.yul\":15052:15142   */\n      swap2\n      swap1\n      pop\n      jump\t// out\n        /* \"#utility.yul\":15148:15275   */\n    tag_377:\n        /* \"#utility.yul\":15193:15200   */\n      0x00\n        /* \"#utility.yul\":15222:15227   */\n      dup2\n        /* \"#utility.yul\":15211:15227   */\n      swap1\n      pop\n        /* \"#utility.yul\":15228:15269   */\n      tag_379\n        /* \"#utility.yul\":15263:15268   */\n      dup3\n        /* \"#utility.yul\":15228:15269   */\n      tag_380\n      jump\t// in\n    tag_379:\n        /* \"#utility.yul\":15148:15275   */\n      swap2\n      swap1\n      pop\n      jump\t// out\n        /* \"#utility.yul\":15281:15407   */\n    tag_375:\n        /* \"#utility.yul\":15318:15325   */\n      0x00\n        /* \"#utility.yul\":15358:15400   */\n      0xffffffffffffffffffffffffffffffffffffffff\n        /* \"#utility.yul\":15351:15356   */\n      dup3\n        /* \"#utility.yul\":15347:15401   */\n      and\n        /* \"#utility.yul\":15336:15401   */\n      swap1\n      pop\n        /* \"#utility.yul\":15281:15407   */\n      swap2\n      swap1\n      pop\n      jump\t// out\n        /* \"#utility.yul\":15413:15490   */\n    tag_322:\n        /* \"#utility.yul\":15450:15457   */\n      0x00\n        /* \"#utility.yul\":15479:15484   */\n      dup2\n        /* \"#utility.yul\":15468:15484   */\n      swap1\n      pop\n        /* \"#utility.yul\":15413:15490   */\n      swap2\n      swap1\n      pop\n      jump\t// out\n        /* \"#utility.yul\":15496:15623   */\n    tag_284:\n        /* \"#utility.yul\":15552:15561   */\n      0x00\n        /* \"#utility.yul\":15585:15617   */\n      tag_384\n        /* \"#utility.yul\":15611:15616   */\n      dup3\n        /* \"#utility.yul\":15585:15617   */\n      tag_377\n      jump\t// in\n    tag_384:\n        /* \"#utility.yul\":15572:15617   */\n      swap1\n      pop\n        /* \"#utility.yul\":15496:15623   */\n      swap2\n      swap1\n      pop\n      jump\t// out\n        /* \"#utility.yul\":15629:15783   */\n    tag_204:\n        /* \"#utility.yul\":15713:15719   */\n      dup3\n        /* \"#utility.yul\":15708:15711   */\n      dup2\n        /* \"#utility.yul\":15703:15706   */\n      dup4\n        /* \"#utility.yul\":15690:15720   */\n      calldatacopy\n        /* \"#utility.yul\":15775:15776   */\n      0x00\n        /* \"#utility.yul\":15766:15772   */\n      dup4\n        /* \"#utility.yul\":15761:15764   */\n      dup4\n        /* \"#utility.yul\":15757:15773   */\n      add\n        /* \"#utility.yul\":15750:15777   */\n      mstore\n        /* \"#utility.yul\":15629:15783   */\n      pop\n      pop\n      pop\n      jump\t// out\n        /* \"#utility.yul\":15789:16096   */\n    tag_292:\n        /* \"#utility.yul\":15857:15858   */\n      0x00\n        /* \"#utility.yul\":15867:15980   */\n    tag_387:\n        /* \"#utility.yul\":15881:15887   */\n      dup4\n        /* \"#utility.yul\":15878:15879   */\n      dup2\n        /* \"#utility.yul\":15875:15888   */\n      lt\n        /* \"#utility.yul\":15867:15980   */\n      iszero\n      tag_389\n      jumpi\n        /* \"#utility.yul\":15966:15967   */\n      dup1\n        /* \"#utility.yul\":15961:15964   */\n      dup3\n        /* \"#utility.yul\":15957:15968   */\n      add\n        /* \"#utility.yul\":15951:15969   */\n      mload\n        /* \"#utility.yul\":15947:15948   */\n      dup2\n        /* \"#utility.yul\":15942:15945   */\n      dup5\n        /* \"#utility.yul\":15938:15949   */\n      add\n        /* \"#utility.yul\":15931:15970   */\n      mstore\n        /* \"#utility.yul\":15903:15905   */\n      0x20\n        /* \"#utility.yul\":15900:15901   */\n      dup2\n        /* \"#utility.yul\":15896:15906   */\n      add\n        /* \"#utility.yul\":15891:15906   */\n      swap1\n      pop\n        /* \"#utility.yul\":15867:15980   */\n      jump(tag_387)\n    tag_389:\n        /* \"#utility.yul\":15998:16004   */\n      dup4\n        /* \"#utility.yul\":15995:15996   */\n      dup2\n        /* \"#utility.yul\":15992:16005   */\n      gt\n        /* \"#utility.yul\":15989:16090   */\n      iszero\n      tag_390\n      jumpi\n        /* \"#utility.yul\":16078:16079   */\n      0x00\n        /* \"#utility.yul\":16069:16075   */\n      dup5\n        /* \"#utility.yul\":16064:16067   */\n      dup5\n        /* \"#utility.yul\":16060:16076   */\n      add\n        /* \"#utility.yul\":16053:16080   */\n      mstore\n        /* \"#utility.yul\":15989:16090   */\n    tag_390:\n        /* \"#utility.yul\":15838:16096   */\n      pop\n        /* \"#utility.yul\":15789:16096   */\n      pop\n      pop\n      pop\n      jump\t// out\n        /* \"#utility.yul\":16102:16422   */\n    tag_92:\n        /* \"#utility.yul\":16146:16152   */\n      0x00\n        /* \"#utility.yul\":16183:16184   */\n      0x02\n        /* \"#utility.yul\":16177:16181   */\n      dup3\n        /* \"#utility.yul\":16173:16185   */\n      div\n        /* \"#utility.yul\":16163:16185   */\n      swap1\n      pop\n        /* \"#utility.yul\":16230:16231   */\n      0x01\n        /* \"#utility.yul\":16224:16228   */\n      dup3\n        /* \"#utility.yul\":16220:16232   */\n      and\n        /* \"#utility.yul\":16251:16269   */\n      dup1\n        /* \"#utility.yul\":16241:16322   */\n      tag_392\n      jumpi\n        /* \"#utility.yul\":16307:16311   */\n      0x7f\n        /* \"#utility.yul\":16299:16305   */\n      dup3\n        /* \"#utility.yul\":16295:16312   */\n      and\n        /* \"#utility.yul\":16285:16312   */\n      swap2\n      pop\n        /* \"#utility.yul\":16241:16322   */\n    tag_392:\n        /* \"#utility.yul\":16369:16371   */\n      0x20\n        /* \"#utility.yul\":16361:16367   */\n      dup3\n        /* \"#utility.yul\":16358:16372   */\n      lt\n        /* \"#utility.yul\":16338:16356   */\n      dup2\n        /* \"#utility.yul\":16335:16373   */\n      eq\n        /* \"#utility.yul\":16332:16416   */\n      iszero\n      tag_393\n      jumpi\n        /* \"#utility.yul\":16388:16406   */\n      tag_394\n      tag_395\n      jump\t// in\n    tag_394:\n        /* \"#utility.yul\":16332:16416   */\n    tag_393:\n        /* \"#utility.yul\":16153:16422   */\n      pop\n        /* \"#utility.yul\":16102:16422   */\n      swap2\n      swap1\n      pop\n      jump\t// out\n        /* \"#utility.yul\":16428:16709   */\n    tag_353:\n        /* \"#utility.yul\":16511:16538   */\n      tag_397\n        /* \"#utility.yul\":16533:16537   */\n      dup3\n        /* \"#utility.yul\":16511:16538   */\n      tag_294\n      jump\t// in\n    tag_397:\n        /* \"#utility.yul\":16503:16509   */\n      dup2\n        /* \"#utility.yul\":16499:16539   */\n      add\n        /* \"#utility.yul\":16641:16647   */\n      dup2\n        /* \"#utility.yul\":16629:16639   */\n      dup2\n        /* \"#utility.yul\":16626:16648   */\n      lt\n        /* \"#utility.yul\":16605:16623   */\n      0xffffffffffffffff\n        /* \"#utility.yul\":16593:16603   */\n      dup3\n        /* \"#utility.yul\":16590:16624   */\n      gt\n        /* \"#utility.yul\":16587:16649   */\n      or\n        /* \"#utility.yul\":16584:16672   */\n      iszero\n      tag_398\n      jumpi\n        /* \"#utility.yul\":16652:16670   */\n      tag_399\n      tag_83\n      jump\t// in\n    tag_399:\n        /* \"#utility.yul\":16584:16672   */\n    tag_398:\n        /* \"#utility.yul\":16692:16702   */\n      dup1\n        /* \"#utility.yul\":16688:16690   */\n      0x40\n        /* \"#utility.yul\":16681:16703   */\n      mstore\n        /* \"#utility.yul\":16471:16709   */\n      pop\n        /* \"#utility.yul\":16428:16709   */\n      pop\n      pop\n      jump\t// out\n        /* \"#utility.yul\":16715:16948   */\n    tag_106:\n        /* \"#utility.yul\":16754:16757   */\n      0x00\n        /* \"#utility.yul\":16777:16801   */\n      tag_401\n        /* \"#utility.yul\":16795:16800   */\n      dup3\n        /* \"#utility.yul\":16777:16801   */\n      tag_322\n      jump\t// in\n    tag_401:\n        /* \"#utility.yul\":16768:16801   */\n      swap2\n      pop\n        /* \"#utility.yul\":16823:16889   */\n      0xffffffffffffffffffffffffffffffffffffffffffffffffffffffffffffffff\n        /* \"#utility.yul\":16816:16821   */\n      dup3\n        /* \"#utility.yul\":16813:16890   */\n      eq\n        /* \"#utility.yul\":16810:16913   */\n      iszero\n      tag_402\n      jumpi\n        /* \"#utility.yul\":16893:16911   */\n      tag_403\n      tag_372\n      jump\t// in\n    tag_403:\n        /* \"#utility.yul\":16810:16913   */\n    tag_402:\n        /* \"#utility.yul\":16940:16941   */\n      0x01\n        /* \"#utility.yul\":16933:16938   */\n      dup3\n        /* \"#utility.yul\":16929:16942   */\n      add\n        /* \"#utility.yul\":16922:16942   */\n      swap1\n      pop\n        /* \"#utility.yul\":16715:16948   */\n      swap2\n      swap1\n      pop\n      jump\t// out\n        /* \"#utility.yul\":16954:17134   */\n    tag_372:\n        /* \"#utility.yul\":17002:17079   */\n      0x4e487b7100000000000000000000000000000000000000000000000000000000\n        /* \"#utility.yul\":16999:17000   */\n      0x00\n        /* \"#utility.yul\":16992:17080   */\n      mstore\n        /* \"#utility.yul\":17099:17103   */\n      0x11\n        /* \"#utility.yul\":17096:17097   */\n      0x04\n        /* \"#utility.yul\":17089:17104   */\n      mstore\n        /* \"#utility.yul\":17123:17127   */\n      0x24\n        /* \"#utility.yul\":17120:17121   */\n      0x00\n        /* \"#utility.yul\":17113:17128   */\n      revert\n        /* \"#utility.yul\":17140:17320   */\n    tag_125:\n        /* \"#utility.yul\":17188:17265   */\n      0x4e487b7100000000000000000000000000000000000000000000000000000000\n        /* \"#utility.yul\":17185:17186   */\n      0x00\n        /* \"#utility.yul\":17178:17266   */\n      mstore\n        /* \"#utility.yul\":17285:17289   */\n      0x21\n        /* \"#utility.yul\":17282:17283   */\n      0x04\n        /* \"#utility.yul\":17275:17290   */\n      mstore\n        /* \"#utility.yul\":17309:17313   */\n      0x24\n        /* \"#utility.yul\":17306:17307   */\n      0x00\n        /* \"#utility.yul\":17299:17314   */\n      revert\n        /* \"#utility.yul\":17326:17506   */\n    tag_395:\n        /* \"#utility.yul\":17374:17451   */\n      0x4e487b7100000000000000000000000000000000000000000000000000000000\n        /* \"#utility.yul\":17371:17372   */\n      0x00\n        /* \"#utility.yul\":17364:17452   */\n      mstore\n        /* \"#utility.yul\":17471:17475   */\n      0x22\n        /* \"#utility.yul\":17468:17469   */\n      0x04\n        /* \"#utility.yul\":17461:17476   */\n      mstore\n        /* \"#utility.yul\":17495:17499   */\n      0x24\n        /* \"#utility.yul\":17492:17493   */\n      0x00\n        /* \"#utility.yul\":17485:17500   */\n      revert\n        /* \"#utility.yul\":17512:17692   */\n    tag_104:\n        /* \"#utility.yul\":17560:17637   */\n      0x4e487b7100000000000000000000000000000000000000000000000000000000\n        /* \"#utility.yul\":17557:17558   */\n      0x00\n        /* \"#utility.yul\":17550:17638   */\n      mstore\n        /* \"#utility.yul\":17657:17661   */\n      0x32\n        /* \"#utility.yul\":17654:17655   */\n      0x04\n        /* \"#utility.yul\":17647:17662   */\n      mstore\n        /* \"#utility.yul\":17681:17685   */\n      0x24\n        /* \"#utility.yul\":17678:17679   */\n      0x00\n        /* \"#utility.yul\":17671:17686   */\n      revert\n        /* \"#utility.yul\":17698:17878   */\n    tag_83:\n        /* \"#utility.yul\":17746:17823   */\n      0x4e487b7100000000000000000000000000000000000000000000000000000000\n        /* \"#utility.yul\":17743:17744   */\n      0x00\n        /* \"#utility.yul\":17736:17824   */\n      mstore\n        /* \"#utility.yul\":17843:17847   */\n      0x41\n        /* \"#utility.yul\":17840:17841   */\n      0x04\n        /* \"#utility.yul\":17833:17848   */\n      mstore\n        /* \"#utility.yul\":17867:17871   */\n      0x24\n        /* \"#utility.yul\":17864:17865   */\n      0x00\n        /* \"#utility.yul\":17857:17872   */\n      revert\n        /* \"#utility.yul\":17884:18001   */\n    tag_213:\n        /* \"#utility.yul\":17993:17994   */\n      0x00\n        /* \"#utility.yul\":17990:17991   */\n      dup1\n        /* \"#utility.yul\":17983:17995   */\n      revert\n        /* \"#utility.yul\":18007:18124   */\n    tag_202:\n        /* \"#utility.yul\":18116:18117   */\n      0x00\n        /* \"#utility.yul\":18113:18114   */\n      dup1\n        /* \"#utility.yul\":18106:18118   */\n      revert\n        /* \"#utility.yul\":18130:18247   */\n    tag_230:\n        /* \"#utility.yul\":18239:18240   */\n      0x00\n        /* \"#utility.yul\":18236:18237   */\n      dup1\n        /* \"#utility.yul\":18229:18241   */\n      revert\n        /* \"#utility.yul\":18253:18370   */\n    tag_222:\n        /* \"#utility.yul\":18362:18363   */\n      0x00\n        /* \"#utility.yul\":18359:18360   */\n      dup1\n        /* \"#utility.yul\":18352:18364   */\n      revert\n        /* \"#utility.yul\":18376:18478   */\n    tag_294:\n        /* \"#utility.yul\":18417:18423   */\n      0x00\n        /* \"#utility.yul\":18468:18470   */\n      0x1f\n        /* \"#utility.yul\":18464:18471   */\n      not\n        /* \"#utility.yul\":18459:18461   */\n      0x1f\n        /* \"#utility.yul\":18452:18457   */\n      dup4\n        /* \"#utility.yul\":18448:18462   */\n      add\n        /* \"#utility.yul\":18444:18472   */\n      and\n        /* \"#utility.yul\":18434:18472   */\n      swap1\n      pop\n        /* \"#utility.yul\":18376:18478   */\n      swap2\n      swap1\n      pop\n      jump\t// out\n        /* \"#utility.yul\":18484:18597   */\n    tag_380:\n        /* \"#utility.yul\":18565:18566   */\n      0x03\n        /* \"#utility.yul\":18558:18563   */\n      dup2\n        /* \"#utility.yul\":18555:18567   */\n      lt\n        /* \"#utility.yul\":18545:18591   */\n      tag_415\n      jumpi\n        /* \"#utility.yul\":18571:18589   */\n      tag_416\n      tag_125\n      jump\t// in\n    tag_416:\n        /* \"#utility.yul\":18545:18591   */\n    tag_415:\n        /* \"#utility.yul\":18484:18597   */\n      pop\n      jump\t// out\n        /* \"#utility.yul\":18603:18725   */\n    tag_208:\n        /* \"#utility.yul\":18676:18700   */\n      tag_418\n        /* \"#utility.yul\":18694:18699   */\n      dup2\n        /* \"#utility.yul\":18676:18700   */\n      tag_259\n      jump\t// in\n    tag_418:\n        /* \"#utility.yul\":18669:18674   */\n      dup2\n        /* \"#utility.yul\":18666:18701   */\n      eq\n        /* \"#utility.yul\":18656:18719   */\n      tag_419\n      jumpi\n        /* \"#utility.yul\":18715:18716   */\n      0x00\n        /* \"#utility.yul\":18712:18713   */\n      dup1\n        /* \"#utility.yul\":18705:18717   */\n      revert\n        /* \"#utility.yul\":18656:18719   */\n    tag_419:\n        /* \"#utility.yul\":18603:18725   */\n      pop\n      jump\t// out\n        /* \"#utility.yul\":18731:18853   */\n    tag_218:\n        /* \"#utility.yul\":18804:18828   */\n      tag_421\n        /* \"#utility.yul\":18822:18827   */\n      dup2\n        /* \"#utility.yul\":18804:18828   */\n      tag_322\n      jump\t// in\n    tag_421:\n        /* \"#utility.yul\":18797:18802   */\n      dup2\n        /* \"#utility.yul\":18794:18829   */\n      eq\n        /* \"#utility.yul\":18784:18847   */\n      tag_422\n      jumpi\n        /* \"#utility.yul\":18843:18844   */\n      0x00\n        /* \"#utility.yul\":18840:18841   */\n      dup1\n        /* \"#utility.yul\":18833:18845   */\n      revert\n        /* \"#utility.yul\":18784:18847   */\n    tag_422:\n        /* \"#utility.yul\":18731:18853   */\n      pop\n      jump\t// out\n\n    auxdata: 0xa26469706673582212207749048eb33e92db5d346e92e553f03ce1cdba3f3ca9e334fddf1aa57e3efd3664736f6c63430008070033\n}\n",
				"bytecode": {
					"linkReferences": {},
					"object": "60806040523480156200001157600080fd5b5060405162001ecc38038062001ecc8339818101604052810190620000379190620001f4565b33600860016101000a81548173ffffffffffffffffffffffffffffffffffffffff021916908373ffffffffffffffffffffffffffffffffffffffff160217905550806009908051906020019062000090929190620000c6565b506000600860006101000a81548160ff02191690836002811115620000ba57620000b962000346565b5b021790555050620003f8565b828054620000d490620002da565b90600052602060002090601f016020900481019282620000f8576000855562000144565b82601f106200011357805160ff191683800117855562000144565b8280016001018555821562000144579182015b828111156200014357825182559160200191906001019062000126565b5b50905062000153919062000157565b5090565b5b808211156200017257600081600090555060010162000158565b5090565b60006200018d62000187846200026e565b62000245565b905082815260208101848484011115620001ac57620001ab620003d8565b5b620001b9848285620002a4565b509392505050565b600082601f830112620001d957620001d8620003d3565b5b8151620001eb84826020860162000176565b91505092915050565b6000602082840312156200020d576200020c620003e2565b5b600082015167ffffffffffffffff8111156200022e576200022d620003dd565b5b6200023c84828501620001c1565b91505092915050565b60006200025162000264565b90506200025f828262000310565b919050565b6000604051905090565b600067ffffffffffffffff8211156200028c576200028b620003a4565b5b6200029782620003e7565b9050602081019050919050565b60005b83811015620002c4578082015181840152602081019050620002a7565b83811115620002d4576000848401525b50505050565b60006002820490506001821680620002f357607f821691505b602082108114156200030a576200030962000375565b5b50919050565b6200031b82620003e7565b810181811067ffffffffffffffff821117156200033d576200033c620003a4565b5b80604052505050565b7f4e487b7100000000000000000000000000000000000000000000000000000000600052602160045260246000fd5b7f4e487b7100000000000000000000000000000000000000000000000000000000600052602260045260246000fd5b7f4e487b7100000000000000000000000000000000000000000000000000000000600052604160045260246000fd5b600080fd5b600080fd5b600080fd5b600080fd5b6000601f19601f8301169050919050565b611ac480620004086000396000f3fe608060405234801561001057600080fd5b50600436106100ea5760003560e01c806372753be51161008c578063c19d93fb11610066578063c19d93fb14610257578063d82d4eb914610275578063d9e95a98146102a5578063f276669d146102c1576100ea565b806372753be5146101e857806380843e251461021b5780638949e00914610239576100ea565b80632d35a8a2116100c85780632d35a8a21461015d57806346702b161461017b5780635f5300ff146101ae57806362c49251146101cc576100ea565b806306a49fce146100ef5780630d15fd771461010d57806312c063421461012b575b600080fd5b6100f76102f1565b6040516101049190611597565b60405180910390f35b61011561053b565b60405161012291906116a9565b60405180910390f35b61014560048036038101906101409190611181565b610541565b604051610154939291906115f6565b60405180910390f35b610165610620565b60405161017291906116a9565b60405180910390f35b61019560048036038101906101909190611295565b610626565b6040516101a59493929190611634565b60405180910390f35b6101b661079c565b6040516101c391906116a9565b60405180910390f35b6101e660048036038101906101e1919061120a565b6107a2565b005b61020260048036038101906101fd91906112de565b6109fc565b6040516102129493929190611634565b60405180910390f35b610223610b5c565b60405161023091906115d4565b60405180910390f35b610241610bea565b60405161024e919061157c565b60405180910390f35b61025f610c10565b60405161026c91906115b9565b60405180910390f35b61028f600480360381019061028a9190611181565b610c23565b60405161029c91906116a9565b60405180910390f35b6102bf60048036038101906102ba91906111ae565b610c3b565b005b6102db60048036038101906102d69190611295565b610e11565b6040516102e89190611687565b60405180910390f35b6060600060055467ffffffffffffffff811115610311576103106119f8565b5b60405190808252806020026020018201604052801561034a57816020015b610337610fcd565b81526020019060019003908161032f5790505b50905060005b6005548110156105335760006003600083815260200190815260200160002090508060405180608001604052908160008201805461038d90611890565b80601f01602080910402602001604051908101604052809291908181526020018280546103b990611890565b80156104065780601f106103db57610100808354040283529160200191610406565b820191906000526020600020905b8154815290600101906020018083116103e957829003601f168201915b505050505081526020016001820160009054906101000a900473ffffffffffffffffffffffffffffffffffffffff1673ffffffffffffffffffffffffffffffffffffffff1673ffffffffffffffffffffffffffffffffffffffff1681526020016002820154815260200160038201805461047f90611890565b80601f01602080910402602001604051908101604052809291908181526020018280546104ab90611890565b80156104f85780601f106104cd576101008083540402835291602001916104f8565b820191906000526020600020905b8154815290600101906020018083116104db57829003601f168201915b505050505081525050838381518110610514576105136119c9565b5b602002602001018190525050808061052b906118f3565b915050610350565b508091505090565b60075481565b600060205280600052604060002060009150905080600001805461056490611890565b80601f016020809104026020016040519081016040528092919081815260200182805461059090611890565b80156105dd5780601f106105b2576101008083540402835291602001916105dd565b820191906000526020600020905b8154815290600101906020018083116105c057829003601f168201915b5050505050908060010160009054906101000a900473ffffffffffffffffffffffffffffffffffffffff16908060010160149054906101000a900460ff16905083565b60055481565b60048180516020810182018051848252602083016020850120818352809550505050505060009150905080600001805461065f90611890565b80601f016020809104026020016040519081016040528092919081815260200182805461068b90611890565b80156106d85780601f106106ad576101008083540402835291602001916106d8565b820191906000526020600020905b8154815290600101906020018083116106bb57829003601f168201915b5050505050908060010160009054906101000a900473ffffffffffffffffffffffffffffffffffffffff169080600201549080600301805461071990611890565b80601f016020809104026020016040519081016040528092919081815260200182805461074590611890565b80156107925780601f1061076757610100808354040283529160200191610792565b820191906000526020600020905b81548152906001019060200180831161077557829003601f168201915b5050505050905084565b60065481565b60008060028111156107b7576107b661196b565b5b600860009054906101000a900460ff1660028111156107d9576107d861196b565b5b146107e357600080fd5b3373ffffffffffffffffffffffffffffffffffffffff16600860019054906101000a900473ffffffffffffffffffffffffffffffffffffffff1673ffffffffffffffffffffffffffffffffffffffff161461083d57600080fd5b610845610fcd565b84816020019073ffffffffffffffffffffffffffffffffffffffff16908173ffffffffffffffffffffffffffffffffffffffff16815250508381600001819052508281606001819052508060036000600554815260200190815260200160002060008201518160000190805190602001906108c192919061100b565b5060208201518160010160006101000a81548173ffffffffffffffffffffffffffffffffffffffff021916908373ffffffffffffffffffffffffffffffffffffffff16021790555060408201518160020155606082015181600301908051906020019061092f92919061100b565b50905050806004846040516109449190611565565b9081526020016040518091039020600082015181600001908051906020019061096e92919061100b565b5060208201518160010160006101000a81548173ffffffffffffffffffffffffffffffffffffffff021916908373ffffffffffffffffffffffffffffffffffffffff1602179055506040820151816002015560608201518160030190805190602001906109dc92919061100b565b5090505060016005546109ef919061178b565b6005819055505050505050565b6003602052806000526040600020600091509050806000018054610a1f90611890565b80601f0160208091040260200160405190810160405280929190818152602001828054610a4b90611890565b8015610a985780601f10610a6d57610100808354040283529160200191610a98565b820191906000526020600020905b815481529060010190602001808311610a7b57829003601f168201915b5050505050908060010160009054906101000a900473ffffffffffffffffffffffffffffffffffffffff1690806002015490806003018054610ad990611890565b80601f0160208091040260200160405190810160405280929190818152602001828054610b0590611890565b8015610b525780601f10610b2757610100808354040283529160200191610b52565b820191906000526020600020905b815481529060010190602001808311610b3557829003601f168201915b5050505050905084565b60098054610b6990611890565b80601f0160208091040260200160405190810160405280929190818152602001828054610b9590611890565b8015610be25780601f10610bb757610100808354040283529160200191610be2565b820191906000526020600020905b815481529060010190602001808311610bc557829003601f168201915b505050505081565b600860019054906101000a900473ffffffffffffffffffffffffffffffffffffffff1681565b600860009054906101000a900460ff1681565b60026020528060005260406000206000915090505481565b6000806002811115610c5057610c4f61196b565b5b600860009054906101000a900460ff166002811115610c7257610c7161196b565b5b14610c7c57600080fd5b3373ffffffffffffffffffffffffffffffffffffffff16600860019054906101000a900473ffffffffffffffffffffffffffffffffffffffff1673ffffffffffffffffffffffffffffffffffffffff1614610cd657600080fd5b610cde611091565b83816020019073ffffffffffffffffffffffffffffffffffffffff16908173ffffffffffffffffffffffffffffffffffffffff16815250508281600001819052506000816040019015159081151581525050806000808673ffffffffffffffffffffffffffffffffffffffff1673ffffffffffffffffffffffffffffffffffffffff1681526020019081526020016000206000820151816000019080519060200190610d8b92919061100b565b5060208201518160010160006101000a81548173ffffffffffffffffffffffffffffffffffffffff021916908373ffffffffffffffffffffffffffffffffffffffff16021790555060408201518160010160146101000a81548160ff0219169083151502179055509050506001600654610e05919061178b565b60068190555050505050565b610e19610fcd565b600482604051610e299190611565565b9081526020016040518091039020604051806080016040529081600082018054610e5290611890565b80601f0160208091040260200160405190810160405280929190818152602001828054610e7e90611890565b8015610ecb5780601f10610ea057610100808354040283529160200191610ecb565b820191906000526020600020905b815481529060010190602001808311610eae57829003601f168201915b505050505081526020016001820160009054906101000a900473ffffffffffffffffffffffffffffffffffffffff1673ffffffffffffffffffffffffffffffffffffffff1673ffffffffffffffffffffffffffffffffffffffff16815260200160028201548152602001600382018054610f4490611890565b80601f0160208091040260200160405190810160405280929190818152602001828054610f7090611890565b8015610fbd5780601f10610f9257610100808354040283529160200191610fbd565b820191906000526020600020905b815481529060010190602001808311610fa057829003601f168201915b5050505050815250509050919050565b604051806080016040528060608152602001600073ffffffffffffffffffffffffffffffffffffffff16815260200160008152602001606081525090565b82805461101790611890565b90600052602060002090601f0160209004810192826110395760008555611080565b82601f1061105257805160ff1916838001178555611080565b82800160010185558215611080579182015b8281111561107f578251825591602001919060010190611064565b5b50905061108d91906110ca565b5090565b604051806060016040528060608152602001600073ffffffffffffffffffffffffffffffffffffffff1681526020016000151581525090565b5b808211156110e35760008160009055506001016110cb565b5090565b60006110fa6110f5846116e9565b6116c4565b90508281526020810184848401111561111657611115611a2c565b5b61112184828561184e565b509392505050565b60008135905061113881611a60565b92915050565b600082601f83011261115357611152611a27565b5b81356111638482602086016110e7565b91505092915050565b60008135905061117b81611a77565b92915050565b60006020828403121561119757611196611a36565b5b60006111a584828501611129565b91505092915050565b600080604083850312156111c5576111c4611a36565b5b60006111d385828601611129565b925050602083013567ffffffffffffffff8111156111f4576111f3611a31565b5b6112008582860161113e565b9150509250929050565b60008060006060848603121561122357611222611a36565b5b600061123186828701611129565b935050602084013567ffffffffffffffff81111561125257611251611a31565b5b61125e8682870161113e565b925050604084013567ffffffffffffffff81111561127f5761127e611a31565b5b61128b8682870161113e565b9150509250925092565b6000602082840312156112ab576112aa611a36565b5b600082013567ffffffffffffffff8111156112c9576112c8611a31565b5b6112d58482850161113e565b91505092915050565b6000602082840312156112f4576112f3611a36565b5b60006113028482850161116c565b91505092915050565b60006113178383611473565b905092915050565b611328816117e1565b82525050565b611337816117e1565b82525050565b60006113488261172a565b611352818561174d565b9350836020820285016113648561171a565b8060005b858110156113a05784840389528151611381858261130b565b945061138c83611740565b925060208a01995050600181019050611368565b50829750879550505050505092915050565b6113bb816117f3565b82525050565b6113ca8161183c565b82525050565b60006113db82611735565b6113e5818561175e565b93506113f581856020860161185d565b6113fe81611a3b565b840191505092915050565b600061141482611735565b61141e818561176f565b935061142e81856020860161185d565b61143781611a3b565b840191505092915050565b600061144d82611735565b6114578185611780565b935061146781856020860161185d565b80840191505092915050565b6000608083016000830151848203600086015261149082826113d0565b91505060208301516114a5602086018261131f565b5060408301516114b86040860182611547565b50606083015184820360608601526114d082826113d0565b9150508091505092915050565b600060808301600083015184820360008601526114fa82826113d0565b915050602083015161150f602086018261131f565b5060408301516115226040860182611547565b506060830151848203606086015261153a82826113d0565b9150508091505092915050565b61155081611832565b82525050565b61155f81611832565b82525050565b60006115718284611442565b915081905092915050565b6000602082019050611591600083018461132e565b92915050565b600060208201905081810360008301526115b1818461133d565b905092915050565b60006020820190506115ce60008301846113c1565b92915050565b600060208201905081810360008301526115ee8184611409565b905092915050565b600060608201905081810360008301526116108186611409565b905061161f602083018561132e565b61162c60408301846113b2565b949350505050565b6000608082019050818103600083015261164e8187611409565b905061165d602083018661132e565b61166a6040830185611556565b818103606083015261167c8184611409565b905095945050505050565b600060208201905081810360008301526116a181846114dd565b905092915050565b60006020820190506116be6000830184611556565b92915050565b60006116ce6116df565b90506116da82826118c2565b919050565b6000604051905090565b600067ffffffffffffffff821115611704576117036119f8565b5b61170d82611a3b565b9050602081019050919050565b6000819050602082019050919050565b600081519050919050565b600081519050919050565b6000602082019050919050565b600082825260208201905092915050565b600082825260208201905092915050565b600082825260208201905092915050565b600081905092915050565b600061179682611832565b91506117a183611832565b9250827fffffffffffffffffffffffffffffffffffffffffffffffffffffffffffffffff038211156117d6576117d561193c565b5b828201905092915050565b60006117ec82611812565b9050919050565b60008115159050919050565b600081905061180d82611a4c565b919050565b600073ffffffffffffffffffffffffffffffffffffffff82169050919050565b6000819050919050565b6000611847826117ff565b9050919050565b82818337600083830152505050565b60005b8381101561187b578082015181840152602081019050611860565b8381111561188a576000848401525b50505050565b600060028204905060018216806118a857607f821691505b602082108114156118bc576118bb61199a565b5b50919050565b6118cb82611a3b565b810181811067ffffffffffffffff821117156118ea576118e96119f8565b5b80604052505050565b60006118fe82611832565b91507fffffffffffffffffffffffffffffffffffffffffffffffffffffffffffffffff8214156119315761193061193c565b5b600182019050919050565b7f4e487b7100000000000000000000000000000000000000000000000000000000600052601160045260246000fd5b7f4e487b7100000000000000000000000000000000000000000000000000000000600052602160045260246000fd5b7f4e487b7100000000000000000000000000000000000000000000000000000000600052602260045260246000fd5b7f4e487b7100000000000000000000000000000000000000000000000000000000600052603260045260246000fd5b7f4e487b7100000000000000000000000000000000000000000000000000000000600052604160045260246000fd5b600080fd5b600080fd5b600080fd5b600080fd5b6000601f19601f8301169050919050565b60038110611a5d57611a5c61196b565b5b50565b611a69816117e1565b8114611a7457600080fd5b50565b611a8081611832565b8114611a8b57600080fd5b5056fea26469706673582212207749048eb33e92db5d346e92e553f03ce1cdba3f3ca9e334fddf1aa57e3efd3664736f6c63430008070033",
					"opcodes": "PUSH1 0x80 PUSH1 0x40 MSTORE CALLVALUE DUP1 ISZERO PUSH3 0x11 JUMPI PUSH1 0x0 DUP1 REVERT JUMPDEST POP PUSH1 0x40 MLOAD PUSH3 0x1ECC CODESIZE SUB DUP1 PUSH3 0x1ECC DUP4 CODECOPY DUP2 DUP2 ADD PUSH1 0x40 MSTORE DUP2 ADD SWAP1 PUSH3 0x37 SWAP2 SWAP1 PUSH3 0x1F4 JUMP JUMPDEST CALLER PUSH1 0x8 PUSH1 0x1 PUSH2 0x100 EXP DUP2 SLOAD DUP2 PUSH20 0xFFFFFFFFFFFFFFFFFFFFFFFFFFFFFFFFFFFFFFFF MUL NOT AND SWAP1 DUP4 PUSH20 0xFFFFFFFFFFFFFFFFFFFFFFFFFFFFFFFFFFFFFFFF AND MUL OR SWAP1 SSTORE POP DUP1 PUSH1 0x9 SWAP1 DUP1 MLOAD SWAP1 PUSH1 0x20 ADD SWAP1 PUSH3 0x90 SWAP3 SWAP2 SWAP1 PUSH3 0xC6 JUMP JUMPDEST POP PUSH1 0x0 PUSH1 0x8 PUSH1 0x0 PUSH2 0x100 EXP DUP2 SLOAD DUP2 PUSH1 0xFF MUL NOT AND SWAP1 DUP4 PUSH1 0x2 DUP2 GT ISZERO PUSH3 0xBA JUMPI PUSH3 0xB9 PUSH3 0x346 JUMP JUMPDEST JUMPDEST MUL OR SWAP1 SSTORE POP POP PUSH3 0x3F8 JUMP JUMPDEST DUP3 DUP1 SLOAD PUSH3 0xD4 SWAP1 PUSH3 0x2DA JUMP JUMPDEST SWAP1 PUSH1 0x0 MSTORE PUSH1 0x20 PUSH1 0x0 KECCAK256 SWAP1 PUSH1 0x1F ADD PUSH1 0x20 SWAP1 DIV DUP2 ADD SWAP3 DUP3 PUSH3 0xF8 JUMPI PUSH1 0x0 DUP6 SSTORE PUSH3 0x144 JUMP JUMPDEST DUP3 PUSH1 0x1F LT PUSH3 0x113 JUMPI DUP1 MLOAD PUSH1 0xFF NOT AND DUP4 DUP1 ADD OR DUP6 SSTORE PUSH3 0x144 JUMP JUMPDEST DUP3 DUP1 ADD PUSH1 0x1 ADD DUP6 SSTORE DUP3 ISZERO PUSH3 0x144 JUMPI SWAP2 DUP3 ADD JUMPDEST DUP3 DUP2 GT ISZERO PUSH3 0x143 JUMPI DUP3 MLOAD DUP3 SSTORE SWAP2 PUSH1 0x20 ADD SWAP2 SWAP1 PUSH1 0x1 ADD SWAP1 PUSH3 0x126 JUMP JUMPDEST JUMPDEST POP SWAP1 POP PUSH3 0x153 SWAP2 SWAP1 PUSH3 0x157 JUMP JUMPDEST POP SWAP1 JUMP JUMPDEST JUMPDEST DUP1 DUP3 GT ISZERO PUSH3 0x172 JUMPI PUSH1 0x0 DUP2 PUSH1 0x0 SWAP1 SSTORE POP PUSH1 0x1 ADD PUSH3 0x158 JUMP JUMPDEST POP SWAP1 JUMP JUMPDEST PUSH1 0x0 PUSH3 0x18D PUSH3 0x187 DUP5 PUSH3 0x26E JUMP JUMPDEST PUSH3 0x245 JUMP JUMPDEST SWAP1 POP DUP3 DUP2 MSTORE PUSH1 0x20 DUP2 ADD DUP5 DUP5 DUP5 ADD GT ISZERO PUSH3 0x1AC JUMPI PUSH3 0x1AB PUSH3 0x3D8 JUMP JUMPDEST JUMPDEST PUSH3 0x1B9 DUP5 DUP3 DUP6 PUSH3 0x2A4 JUMP JUMPDEST POP SWAP4 SWAP3 POP POP POP JUMP JUMPDEST PUSH1 0x0 DUP3 PUSH1 0x1F DUP4 ADD SLT PUSH3 0x1D9 JUMPI PUSH3 0x1D8 PUSH3 0x3D3 JUMP JUMPDEST JUMPDEST DUP2 MLOAD PUSH3 0x1EB DUP5 DUP3 PUSH1 0x20 DUP7 ADD PUSH3 0x176 JUMP JUMPDEST SWAP2 POP POP SWAP3 SWAP2 POP POP JUMP JUMPDEST PUSH1 0x0 PUSH1 0x20 DUP3 DUP5 SUB SLT ISZERO PUSH3 0x20D JUMPI PUSH3 0x20C PUSH3 0x3E2 JUMP JUMPDEST JUMPDEST PUSH1 0x0 DUP3 ADD MLOAD PUSH8 0xFFFFFFFFFFFFFFFF DUP2 GT ISZERO PUSH3 0x22E JUMPI PUSH3 0x22D PUSH3 0x3DD JUMP JUMPDEST JUMPDEST PUSH3 0x23C DUP5 DUP3 DUP6 ADD PUSH3 0x1C1 JUMP JUMPDEST SWAP2 POP POP SWAP3 SWAP2 POP POP JUMP JUMPDEST PUSH1 0x0 PUSH3 0x251 PUSH3 0x264 JUMP JUMPDEST SWAP1 POP PUSH3 0x25F DUP3 DUP3 PUSH3 0x310 JUMP JUMPDEST SWAP2 SWAP1 POP JUMP JUMPDEST PUSH1 0x0 PUSH1 0x40 MLOAD SWAP1 POP SWAP1 JUMP JUMPDEST PUSH1 0x0 PUSH8 0xFFFFFFFFFFFFFFFF DUP3 GT ISZERO PUSH3 0x28C JUMPI PUSH3 0x28B PUSH3 0x3A4 JUMP JUMPDEST JUMPDEST PUSH3 0x297 DUP3 PUSH3 0x3E7 JUMP JUMPDEST SWAP1 POP PUSH1 0x20 DUP2 ADD SWAP1 POP SWAP2 SWAP1 POP JUMP JUMPDEST PUSH1 0x0 JUMPDEST DUP4 DUP2 LT ISZERO PUSH3 0x2C4 JUMPI DUP1 DUP3 ADD MLOAD DUP2 DUP5 ADD MSTORE PUSH1 0x20 DUP2 ADD SWAP1 POP PUSH3 0x2A7 JUMP JUMPDEST DUP4 DUP2 GT ISZERO PUSH3 0x2D4 JUMPI PUSH1 0x0 DUP5 DUP5 ADD MSTORE JUMPDEST POP POP POP POP JUMP JUMPDEST PUSH1 0x0 PUSH1 0x2 DUP3 DIV SWAP1 POP PUSH1 0x1 DUP3 AND DUP1 PUSH3 0x2F3 JUMPI PUSH1 0x7F DUP3 AND SWAP2 POP JUMPDEST PUSH1 0x20 DUP3 LT DUP2 EQ ISZERO PUSH3 0x30A JUMPI PUSH3 0x309 PUSH3 0x375 JUMP JUMPDEST JUMPDEST POP SWAP2 SWAP1 POP JUMP JUMPDEST PUSH3 0x31B DUP3 PUSH3 0x3E7 JUMP JUMPDEST DUP2 ADD DUP2 DUP2 LT PUSH8 0xFFFFFFFFFFFFFFFF DUP3 GT OR ISZERO PUSH3 0x33D JUMPI PUSH3 0x33C PUSH3 0x3A4 JUMP JUMPDEST JUMPDEST DUP1 PUSH1 0x40 MSTORE POP POP POP JUMP JUMPDEST PUSH32 0x4E487B7100000000000000000000000000000000000000000000000000000000 PUSH1 0x0 MSTORE PUSH1 0x21 PUSH1 0x4 MSTORE PUSH1 0x24 PUSH1 0x0 REVERT JUMPDEST PUSH32 0x4E487B7100000000000000000000000000000000000000000000000000000000 PUSH1 0x0 MSTORE PUSH1 0x22 PUSH1 0x4 MSTORE PUSH1 0x24 PUSH1 0x0 REVERT JUMPDEST PUSH32 0x4E487B7100000000000000000000000000000000000000000000000000000000 PUSH1 0x0 MSTORE PUSH1 0x41 PUSH1 0x4 MSTORE PUSH1 0x24 PUSH1 0x0 REVERT JUMPDEST PUSH1 0x0 DUP1 REVERT JUMPDEST PUSH1 0x0 DUP1 REVERT JUMPDEST PUSH1 0x0 DUP1 REVERT JUMPDEST PUSH1 0x0 DUP1 REVERT JUMPDEST PUSH1 0x0 PUSH1 0x1F NOT PUSH1 0x1F DUP4 ADD AND SWAP1 POP SWAP2 SWAP1 POP JUMP JUMPDEST PUSH2 0x1AC4 DUP1 PUSH3 0x408 PUSH1 0x0 CODECOPY PUSH1 0x0 RETURN INVALID PUSH1 0x80 PUSH1 0x40 MSTORE CALLVALUE DUP1 ISZERO PUSH2 0x10 JUMPI PUSH1 0x0 DUP1 REVERT JUMPDEST POP PUSH1 0x4 CALLDATASIZE LT PUSH2 0xEA JUMPI PUSH1 0x0 CALLDATALOAD PUSH1 0xE0 SHR DUP1 PUSH4 0x72753BE5 GT PUSH2 0x8C JUMPI DUP1 PUSH4 0xC19D93FB GT PUSH2 0x66 JUMPI DUP1 PUSH4 0xC19D93FB EQ PUSH2 0x257 JUMPI DUP1 PUSH4 0xD82D4EB9 EQ PUSH2 0x275 JUMPI DUP1 PUSH4 0xD9E95A98 EQ PUSH2 0x2A5 JUMPI DUP1 PUSH4 0xF276669D EQ PUSH2 0x2C1 JUMPI PUSH2 0xEA JUMP JUMPDEST DUP1 PUSH4 0x72753BE5 EQ PUSH2 0x1E8 JUMPI DUP1 PUSH4 0x80843E25 EQ PUSH2 0x21B JUMPI DUP1 PUSH4 0x8949E009 EQ PUSH2 0x239 JUMPI PUSH2 0xEA JUMP JUMPDEST DUP1 PUSH4 0x2D35A8A2 GT PUSH2 0xC8 JUMPI DUP1 PUSH4 0x2D35A8A2 EQ PUSH2 0x15D JUMPI DUP1 PUSH4 0x46702B16 EQ PUSH2 0x17B JUMPI DUP1 PUSH4 0x5F5300FF EQ PUSH2 0x1AE JUMPI DUP1 PUSH4 0x62C49251 EQ PUSH2 0x1CC JUMPI PUSH2 0xEA JUMP JUMPDEST DUP1 PUSH4 0x6A49FCE EQ PUSH2 0xEF JUMPI DUP1 PUSH4 0xD15FD77 EQ PUSH2 0x10D JUMPI DUP1 PUSH4 0x12C06342 EQ PUSH2 0x12B JUMPI JUMPDEST PUSH1 0x0 DUP1 REVERT JUMPDEST PUSH2 0xF7 PUSH2 0x2F1 JUMP JUMPDEST PUSH1 0x40 MLOAD PUSH2 0x104 SWAP2 SWAP1 PUSH2 0x1597 JUMP JUMPDEST PUSH1 0x40 MLOAD DUP1 SWAP2 SUB SWAP1 RETURN JUMPDEST PUSH2 0x115 PUSH2 0x53B JUMP JUMPDEST PUSH1 0x40 MLOAD PUSH2 0x122 SWAP2 SWAP1 PUSH2 0x16A9 JUMP JUMPDEST PUSH1 0x40 MLOAD DUP1 SWAP2 SUB SWAP1 RETURN JUMPDEST PUSH2 0x145 PUSH1 0x4 DUP1 CALLDATASIZE SUB DUP2 ADD SWAP1 PUSH2 0x140 SWAP2 SWAP1 PUSH2 0x1181 JUMP JUMPDEST PUSH2 0x541 JUMP JUMPDEST PUSH1 0x40 MLOAD PUSH2 0x154 SWAP4 SWAP3 SWAP2 SWAP1 PUSH2 0x15F6 JUMP JUMPDEST PUSH1 0x40 MLOAD DUP1 SWAP2 SUB SWAP1 RETURN JUMPDEST PUSH2 0x165 PUSH2 0x620 JUMP JUMPDEST PUSH1 0x40 MLOAD PUSH2 0x172 SWAP2 SWAP1 PUSH2 0x16A9 JUMP JUMPDEST PUSH1 0x40 MLOAD DUP1 SWAP2 SUB SWAP1 RETURN JUMPDEST PUSH2 0x195 PUSH1 0x4 DUP1 CALLDATASIZE SUB DUP2 ADD SWAP1 PUSH2 0x190 SWAP2 SWAP1 PUSH2 0x1295 JUMP JUMPDEST PUSH2 0x626 JUMP JUMPDEST PUSH1 0x40 MLOAD PUSH2 0x1A5 SWAP5 SWAP4 SWAP3 SWAP2 SWAP1 PUSH2 0x1634 JUMP JUMPDEST PUSH1 0x40 MLOAD DUP1 SWAP2 SUB SWAP1 RETURN JUMPDEST PUSH2 0x1B6 PUSH2 0x79C JUMP JUMPDEST PUSH1 0x40 MLOAD PUSH2 0x1C3 SWAP2 SWAP1 PUSH2 0x16A9 JUMP JUMPDEST PUSH1 0x40 MLOAD DUP1 SWAP2 SUB SWAP1 RETURN JUMPDEST PUSH2 0x1E6 PUSH1 0x4 DUP1 CALLDATASIZE SUB DUP2 ADD SWAP1 PUSH2 0x1E1 SWAP2 SWAP1 PUSH2 0x120A JUMP JUMPDEST PUSH2 0x7A2 JUMP JUMPDEST STOP JUMPDEST PUSH2 0x202 PUSH1 0x4 DUP1 CALLDATASIZE SUB DUP2 ADD SWAP1 PUSH2 0x1FD SWAP2 SWAP1 PUSH2 0x12DE JUMP JUMPDEST PUSH2 0x9FC JUMP JUMPDEST PUSH1 0x40 MLOAD PUSH2 0x212 SWAP5 SWAP4 SWAP3 SWAP2 SWAP1 PUSH2 0x1634 JUMP JUMPDEST PUSH1 0x40 MLOAD DUP1 SWAP2 SUB SWAP1 RETURN JUMPDEST PUSH2 0x223 PUSH2 0xB5C JUMP JUMPDEST PUSH1 0x40 MLOAD PUSH2 0x230 SWAP2 SWAP1 PUSH2 0x15D4 JUMP JUMPDEST PUSH1 0x40 MLOAD DUP1 SWAP2 SUB SWAP1 RETURN JUMPDEST PUSH2 0x241 PUSH2 0xBEA JUMP JUMPDEST PUSH1 0x40 MLOAD PUSH2 0x24E SWAP2 SWAP1 PUSH2 0x157C JUMP JUMPDEST PUSH1 0x40 MLOAD DUP1 SWAP2 SUB SWAP1 RETURN JUMPDEST PUSH2 0x25F PUSH2 0xC10 JUMP JUMPDEST PUSH1 0x40 MLOAD PUSH2 0x26C SWAP2 SWAP1 PUSH2 0x15B9 JUMP JUMPDEST PUSH1 0x40 MLOAD DUP1 SWAP2 SUB SWAP1 RETURN JUMPDEST PUSH2 0x28F PUSH1 0x4 DUP1 CALLDATASIZE SUB DUP2 ADD SWAP1 PUSH2 0x28A SWAP2 SWAP1 PUSH2 0x1181 JUMP JUMPDEST PUSH2 0xC23 JUMP JUMPDEST PUSH1 0x40 MLOAD PUSH2 0x29C SWAP2 SWAP1 PUSH2 0x16A9 JUMP JUMPDEST PUSH1 0x40 MLOAD DUP1 SWAP2 SUB SWAP1 RETURN JUMPDEST PUSH2 0x2BF PUSH1 0x4 DUP1 CALLDATASIZE SUB DUP2 ADD SWAP1 PUSH2 0x2BA SWAP2 SWAP1 PUSH2 0x11AE JUMP JUMPDEST PUSH2 0xC3B JUMP JUMPDEST STOP JUMPDEST PUSH2 0x2DB PUSH1 0x4 DUP1 CALLDATASIZE SUB DUP2 ADD SWAP1 PUSH2 0x2D6 SWAP2 SWAP1 PUSH2 0x1295 JUMP JUMPDEST PUSH2 0xE11 JUMP JUMPDEST PUSH1 0x40 MLOAD PUSH2 0x2E8 SWAP2 SWAP1 PUSH2 0x1687 JUMP JUMPDEST PUSH1 0x40 MLOAD DUP1 SWAP2 SUB SWAP1 RETURN JUMPDEST PUSH1 0x60 PUSH1 0x0 PUSH1 0x5 SLOAD PUSH8 0xFFFFFFFFFFFFFFFF DUP2 GT ISZERO PUSH2 0x311 JUMPI PUSH2 0x310 PUSH2 0x19F8 JUMP JUMPDEST JUMPDEST PUSH1 0x40 MLOAD SWAP1 DUP1 DUP3 MSTORE DUP1 PUSH1 0x20 MUL PUSH1 0x20 ADD DUP3 ADD PUSH1 0x40 MSTORE DUP1 ISZERO PUSH2 0x34A JUMPI DUP2 PUSH1 0x20 ADD JUMPDEST PUSH2 0x337 PUSH2 0xFCD JUMP JUMPDEST DUP2 MSTORE PUSH1 0x20 ADD SWAP1 PUSH1 0x1 SWAP1 SUB SWAP1 DUP2 PUSH2 0x32F JUMPI SWAP1 POP JUMPDEST POP SWAP1 POP PUSH1 0x0 JUMPDEST PUSH1 0x5 SLOAD DUP2 LT ISZERO PUSH2 0x533 JUMPI PUSH1 0x0 PUSH1 0x3 PUSH1 0x0 DUP4 DUP2 MSTORE PUSH1 0x20 ADD SWAP1 DUP2 MSTORE PUSH1 0x20 ADD PUSH1 0x0 KECCAK256 SWAP1 POP DUP1 PUSH1 0x40 MLOAD DUP1 PUSH1 0x80 ADD PUSH1 0x40 MSTORE SWAP1 DUP2 PUSH1 0x0 DUP3 ADD DUP1 SLOAD PUSH2 0x38D SWAP1 PUSH2 0x1890 JUMP JUMPDEST DUP1 PUSH1 0x1F ADD PUSH1 0x20 DUP1 SWAP2 DIV MUL PUSH1 0x20 ADD PUSH1 0x40 MLOAD SWAP1 DUP2 ADD PUSH1 0x40 MSTORE DUP1 SWAP3 SWAP2 SWAP1 DUP2 DUP2 MSTORE PUSH1 0x20 ADD DUP3 DUP1 SLOAD PUSH2 0x3B9 SWAP1 PUSH2 0x1890 JUMP JUMPDEST DUP1 ISZERO PUSH2 0x406 JUMPI DUP1 PUSH1 0x1F LT PUSH2 0x3DB JUMPI PUSH2 0x100 DUP1 DUP4 SLOAD DIV MUL DUP4 MSTORE SWAP2 PUSH1 0x20 ADD SWAP2 PUSH2 0x406 JUMP JUMPDEST DUP3 ADD SWAP2 SWAP1 PUSH1 0x0 MSTORE PUSH1 0x20 PUSH1 0x0 KECCAK256 SWAP1 JUMPDEST DUP2 SLOAD DUP2 MSTORE SWAP1 PUSH1 0x1 ADD SWAP1 PUSH1 0x20 ADD DUP1 DUP4 GT PUSH2 0x3E9 JUMPI DUP3 SWAP1 SUB PUSH1 0x1F AND DUP3 ADD SWAP2 JUMPDEST POP POP POP POP POP DUP2 MSTORE PUSH1 0x20 ADD PUSH1 0x1 DUP3 ADD PUSH1 0x0 SWAP1 SLOAD SWAP1 PUSH2 0x100 EXP SWAP1 DIV PUSH20 0xFFFFFFFFFFFFFFFFFFFFFFFFFFFFFFFFFFFFFFFF AND PUSH20 0xFFFFFFFFFFFFFFFFFFFFFFFFFFFFFFFFFFFFFFFF AND PUSH20 0xFFFFFFFFFFFFFFFFFFFFFFFFFFFFFFFFFFFFFFFF AND DUP2 MSTORE PUSH1 0x20 ADD PUSH1 0x2 DUP3 ADD SLOAD DUP2 MSTORE PUSH1 0x20 ADD PUSH1 0x3 DUP3 ADD DUP1 SLOAD PUSH2 0x47F SWAP1 PUSH2 0x1890 JUMP JUMPDEST DUP1 PUSH1 0x1F ADD PUSH1 0x20 DUP1 SWAP2 DIV MUL PUSH1 0x20 ADD PUSH1 0x40 MLOAD SWAP1 DUP2 ADD PUSH1 0x40 MSTORE DUP1 SWAP3 SWAP2 SWAP1 DUP2 DUP2 MSTORE PUSH1 0x20 ADD DUP3 DUP1 SLOAD PUSH2 0x4AB SWAP1 PUSH2 0x1890 JUMP JUMPDEST DUP1 ISZERO PUSH2 0x4F8 JUMPI DUP1 PUSH1 0x1F LT PUSH2 0x4CD JUMPI PUSH2 0x100 DUP1 DUP4 SLOAD DIV MUL DUP4 MSTORE SWAP2 PUSH1 0x20 ADD SWAP2 PUSH2 0x4F8 JUMP JUMPDEST DUP3 ADD SWAP2 SWAP1 PUSH1 0x0 MSTORE PUSH1 0x20 PUSH1 0x0 KECCAK256 SWAP1 JUMPDEST DUP2 SLOAD DUP2 MSTORE SWAP1 PUSH1 0x1 ADD SWAP1 PUSH1 0x20 ADD DUP1 DUP4 GT PUSH2 0x4DB JUMPI DUP3 SWAP1 SUB PUSH1 0x1F AND DUP3 ADD SWAP2 JUMPDEST POP POP POP POP POP DUP2 MSTORE POP POP DUP4 DUP4 DUP2 MLOAD DUP2 LT PUSH2 0x514 JUMPI PUSH2 0x513 PUSH2 0x19C9 JUMP JUMPDEST JUMPDEST PUSH1 0x20 MUL PUSH1 0x20 ADD ADD DUP2 SWAP1 MSTORE POP POP DUP1 DUP1 PUSH2 0x52B SWAP1 PUSH2 0x18F3 JUMP JUMPDEST SWAP2 POP POP PUSH2 0x350 JUMP JUMPDEST POP DUP1 SWAP2 POP POP SWAP1 JUMP JUMPDEST PUSH1 0x7 SLOAD DUP2 JUMP JUMPDEST PUSH1 0x0 PUSH1 0x20 MSTORE DUP1 PUSH1 0x0 MSTORE PUSH1 0x40 PUSH1 0x0 KECCAK256 PUSH1 0x0 SWAP2 POP SWAP1 POP DUP1 PUSH1 0x0 ADD DUP1 SLOAD PUSH2 0x564 SWAP1 PUSH2 0x1890 JUMP JUMPDEST DUP1 PUSH1 0x1F ADD PUSH1 0x20 DUP1 SWAP2 DIV MUL PUSH1 0x20 ADD PUSH1 0x40 MLOAD SWAP1 DUP2 ADD PUSH1 0x40 MSTORE DUP1 SWAP3 SWAP2 SWAP1 DUP2 DUP2 MSTORE PUSH1 0x20 ADD DUP3 DUP1 SLOAD PUSH2 0x590 SWAP1 PUSH2 0x1890 JUMP JUMPDEST DUP1 ISZERO PUSH2 0x5DD JUMPI DUP1 PUSH1 0x1F LT PUSH2 0x5B2 JUMPI PUSH2 0x100 DUP1 DUP4 SLOAD DIV MUL DUP4 MSTORE SWAP2 PUSH1 0x20 ADD SWAP2 PUSH2 0x5DD JUMP JUMPDEST DUP3 ADD SWAP2 SWAP1 PUSH1 0x0 MSTORE PUSH1 0x20 PUSH1 0x0 KECCAK256 SWAP1 JUMPDEST DUP2 SLOAD DUP2 MSTORE SWAP1 PUSH1 0x1 ADD SWAP1 PUSH1 0x20 ADD DUP1 DUP4 GT PUSH2 0x5C0 JUMPI DUP3 SWAP1 SUB PUSH1 0x1F AND DUP3 ADD SWAP2 JUMPDEST POP POP POP POP POP SWAP1 DUP1 PUSH1 0x1 ADD PUSH1 0x0 SWAP1 SLOAD SWAP1 PUSH2 0x100 EXP SWAP1 DIV PUSH20 0xFFFFFFFFFFFFFFFFFFFFFFFFFFFFFFFFFFFFFFFF AND SWAP1 DUP1 PUSH1 0x1 ADD PUSH1 0x14 SWAP1 SLOAD SWAP1 PUSH2 0x100 EXP SWAP1 DIV PUSH1 0xFF AND SWAP1 POP DUP4 JUMP JUMPDEST PUSH1 0x5 SLOAD DUP2 JUMP JUMPDEST PUSH1 0x4 DUP2 DUP1 MLOAD PUSH1 0x20 DUP2 ADD DUP3 ADD DUP1 MLOAD DUP5 DUP3 MSTORE PUSH1 0x20 DUP4 ADD PUSH1 0x20 DUP6 ADD KECCAK256 DUP2 DUP4 MSTORE DUP1 SWAP6 POP POP POP POP POP POP PUSH1 0x0 SWAP2 POP SWAP1 POP DUP1 PUSH1 0x0 ADD DUP1 SLOAD PUSH2 0x65F SWAP1 PUSH2 0x1890 JUMP JUMPDEST DUP1 PUSH1 0x1F ADD PUSH1 0x20 DUP1 SWAP2 DIV MUL PUSH1 0x20 ADD PUSH1 0x40 MLOAD SWAP1 DUP2 ADD PUSH1 0x40 MSTORE DUP1 SWAP3 SWAP2 SWAP1 DUP2 DUP2 MSTORE PUSH1 0x20 ADD DUP3 DUP1 SLOAD PUSH2 0x68B SWAP1 PUSH2 0x1890 JUMP JUMPDEST DUP1 ISZERO PUSH2 0x6D8 JUMPI DUP1 PUSH1 0x1F LT PUSH2 0x6AD JUMPI PUSH2 0x100 DUP1 DUP4 SLOAD DIV MUL DUP4 MSTORE SWAP2 PUSH1 0x20 ADD SWAP2 PUSH2 0x6D8 JUMP JUMPDEST DUP3 ADD SWAP2 SWAP1 PUSH1 0x0 MSTORE PUSH1 0x20 PUSH1 0x0 KECCAK256 SWAP1 JUMPDEST DUP2 SLOAD DUP2 MSTORE SWAP1 PUSH1 0x1 ADD SWAP1 PUSH1 0x20 ADD DUP1 DUP4 GT PUSH2 0x6BB JUMPI DUP3 SWAP1 SUB PUSH1 0x1F AND DUP3 ADD SWAP2 JUMPDEST POP POP POP POP POP SWAP1 DUP1 PUSH1 0x1 ADD PUSH1 0x0 SWAP1 SLOAD SWAP1 PUSH2 0x100 EXP SWAP1 DIV PUSH20 0xFFFFFFFFFFFFFFFFFFFFFFFFFFFFFFFFFFFFFFFF AND SWAP1 DUP1 PUSH1 0x2 ADD SLOAD SWAP1 DUP1 PUSH1 0x3 ADD DUP1 SLOAD PUSH2 0x719 SWAP1 PUSH2 0x1890 JUMP JUMPDEST DUP1 PUSH1 0x1F ADD PUSH1 0x20 DUP1 SWAP2 DIV MUL PUSH1 0x20 ADD PUSH1 0x40 MLOAD SWAP1 DUP2 ADD PUSH1 0x40 MSTORE DUP1 SWAP3 SWAP2 SWAP1 DUP2 DUP2 MSTORE PUSH1 0x20 ADD DUP3 DUP1 SLOAD PUSH2 0x745 SWAP1 PUSH2 0x1890 JUMP JUMPDEST DUP1 ISZERO PUSH2 0x792 JUMPI DUP1 PUSH1 0x1F LT PUSH2 0x767 JUMPI PUSH2 0x100 DUP1 DUP4 SLOAD DIV MUL DUP4 MSTORE SWAP2 PUSH1 0x20 ADD SWAP2 PUSH2 0x792 JUMP JUMPDEST DUP3 ADD SWAP2 SWAP1 PUSH1 0x0 MSTORE PUSH1 0x20 PUSH1 0x0 KECCAK256 SWAP1 JUMPDEST DUP2 SLOAD DUP2 MSTORE SWAP1 PUSH1 0x1 ADD SWAP1 PUSH1 0x20 ADD DUP1 DUP4 GT PUSH2 0x775 JUMPI DUP3 SWAP1 SUB PUSH1 0x1F AND DUP3 ADD SWAP2 JUMPDEST POP POP POP POP POP SWAP1 POP DUP5 JUMP JUMPDEST PUSH1 0x6 SLOAD DUP2 JUMP JUMPDEST PUSH1 0x0 DUP1 PUSH1 0x2 DUP2 GT ISZERO PUSH2 0x7B7 JUMPI PUSH2 0x7B6 PUSH2 0x196B JUMP JUMPDEST JUMPDEST PUSH1 0x8 PUSH1 0x0 SWAP1 SLOAD SWAP1 PUSH2 0x100 EXP SWAP1 DIV PUSH1 0xFF AND PUSH1 0x2 DUP2 GT ISZERO PUSH2 0x7D9 JUMPI PUSH2 0x7D8 PUSH2 0x196B JUMP JUMPDEST JUMPDEST EQ PUSH2 0x7E3 JUMPI PUSH1 0x0 DUP1 REVERT JUMPDEST CALLER PUSH20 0xFFFFFFFFFFFFFFFFFFFFFFFFFFFFFFFFFFFFFFFF AND PUSH1 0x8 PUSH1 0x1 SWAP1 SLOAD SWAP1 PUSH2 0x100 EXP SWAP1 DIV PUSH20 0xFFFFFFFFFFFFFFFFFFFFFFFFFFFFFFFFFFFFFFFF AND PUSH20 0xFFFFFFFFFFFFFFFFFFFFFFFFFFFFFFFFFFFFFFFF AND EQ PUSH2 0x83D JUMPI PUSH1 0x0 DUP1 REVERT JUMPDEST PUSH2 0x845 PUSH2 0xFCD JUMP JUMPDEST DUP5 DUP2 PUSH1 0x20 ADD SWAP1 PUSH20 0xFFFFFFFFFFFFFFFFFFFFFFFFFFFFFFFFFFFFFFFF AND SWAP1 DUP2 PUSH20 0xFFFFFFFFFFFFFFFFFFFFFFFFFFFFFFFFFFFFFFFF AND DUP2 MSTORE POP POP DUP4 DUP2 PUSH1 0x0 ADD DUP2 SWAP1 MSTORE POP DUP3 DUP2 PUSH1 0x60 ADD DUP2 SWAP1 MSTORE POP DUP1 PUSH1 0x3 PUSH1 0x0 PUSH1 0x5 SLOAD DUP2 MSTORE PUSH1 0x20 ADD SWAP1 DUP2 MSTORE PUSH1 0x20 ADD PUSH1 0x0 KECCAK256 PUSH1 0x0 DUP3 ADD MLOAD DUP2 PUSH1 0x0 ADD SWAP1 DUP1 MLOAD SWAP1 PUSH1 0x20 ADD SWAP1 PUSH2 0x8C1 SWAP3 SWAP2 SWAP1 PUSH2 0x100B JUMP JUMPDEST POP PUSH1 0x20 DUP3 ADD MLOAD DUP2 PUSH1 0x1 ADD PUSH1 0x0 PUSH2 0x100 EXP DUP2 SLOAD DUP2 PUSH20 0xFFFFFFFFFFFFFFFFFFFFFFFFFFFFFFFFFFFFFFFF MUL NOT AND SWAP1 DUP4 PUSH20 0xFFFFFFFFFFFFFFFFFFFFFFFFFFFFFFFFFFFFFFFF AND MUL OR SWAP1 SSTORE POP PUSH1 0x40 DUP3 ADD MLOAD DUP2 PUSH1 0x2 ADD SSTORE PUSH1 0x60 DUP3 ADD MLOAD DUP2 PUSH1 0x3 ADD SWAP1 DUP1 MLOAD SWAP1 PUSH1 0x20 ADD SWAP1 PUSH2 0x92F SWAP3 SWAP2 SWAP1 PUSH2 0x100B JUMP JUMPDEST POP SWAP1 POP POP DUP1 PUSH1 0x4 DUP5 PUSH1 0x40 MLOAD PUSH2 0x944 SWAP2 SWAP1 PUSH2 0x1565 JUMP JUMPDEST SWAP1 DUP2 MSTORE PUSH1 0x20 ADD PUSH1 0x40 MLOAD DUP1 SWAP2 SUB SWAP1 KECCAK256 PUSH1 0x0 DUP3 ADD MLOAD DUP2 PUSH1 0x0 ADD SWAP1 DUP1 MLOAD SWAP1 PUSH1 0x20 ADD SWAP1 PUSH2 0x96E SWAP3 SWAP2 SWAP1 PUSH2 0x100B JUMP JUMPDEST POP PUSH1 0x20 DUP3 ADD MLOAD DUP2 PUSH1 0x1 ADD PUSH1 0x0 PUSH2 0x100 EXP DUP2 SLOAD DUP2 PUSH20 0xFFFFFFFFFFFFFFFFFFFFFFFFFFFFFFFFFFFFFFFF MUL NOT AND SWAP1 DUP4 PUSH20 0xFFFFFFFFFFFFFFFFFFFFFFFFFFFFFFFFFFFFFFFF AND MUL OR SWAP1 SSTORE POP PUSH1 0x40 DUP3 ADD MLOAD DUP2 PUSH1 0x2 ADD SSTORE PUSH1 0x60 DUP3 ADD MLOAD DUP2 PUSH1 0x3 ADD SWAP1 DUP1 MLOAD SWAP1 PUSH1 0x20 ADD SWAP1 PUSH2 0x9DC SWAP3 SWAP2 SWAP1 PUSH2 0x100B JUMP JUMPDEST POP SWAP1 POP POP PUSH1 0x1 PUSH1 0x5 SLOAD PUSH2 0x9EF SWAP2 SWAP1 PUSH2 0x178B JUMP JUMPDEST PUSH1 0x5 DUP2 SWAP1 SSTORE POP POP POP POP POP POP JUMP JUMPDEST PUSH1 0x3 PUSH1 0x20 MSTORE DUP1 PUSH1 0x0 MSTORE PUSH1 0x40 PUSH1 0x0 KECCAK256 PUSH1 0x0 SWAP2 POP SWAP1 POP DUP1 PUSH1 0x0 ADD DUP1 SLOAD PUSH2 0xA1F SWAP1 PUSH2 0x1890 JUMP JUMPDEST DUP1 PUSH1 0x1F ADD PUSH1 0x20 DUP1 SWAP2 DIV MUL PUSH1 0x20 ADD PUSH1 0x40 MLOAD SWAP1 DUP2 ADD PUSH1 0x40 MSTORE DUP1 SWAP3 SWAP2 SWAP1 DUP2 DUP2 MSTORE PUSH1 0x20 ADD DUP3 DUP1 SLOAD PUSH2 0xA4B SWAP1 PUSH2 0x1890 JUMP JUMPDEST DUP1 ISZERO PUSH2 0xA98 JUMPI DUP1 PUSH1 0x1F LT PUSH2 0xA6D JUMPI PUSH2 0x100 DUP1 DUP4 SLOAD DIV MUL DUP4 MSTORE SWAP2 PUSH1 0x20 ADD SWAP2 PUSH2 0xA98 JUMP JUMPDEST DUP3 ADD SWAP2 SWAP1 PUSH1 0x0 MSTORE PUSH1 0x20 PUSH1 0x0 KECCAK256 SWAP1 JUMPDEST DUP2 SLOAD DUP2 MSTORE SWAP1 PUSH1 0x1 ADD SWAP1 PUSH1 0x20 ADD DUP1 DUP4 GT PUSH2 0xA7B JUMPI DUP3 SWAP1 SUB PUSH1 0x1F AND DUP3 ADD SWAP2 JUMPDEST POP POP POP POP POP SWAP1 DUP1 PUSH1 0x1 ADD PUSH1 0x0 SWAP1 SLOAD SWAP1 PUSH2 0x100 EXP SWAP1 DIV PUSH20 0xFFFFFFFFFFFFFFFFFFFFFFFFFFFFFFFFFFFFFFFF AND SWAP1 DUP1 PUSH1 0x2 ADD SLOAD SWAP1 DUP1 PUSH1 0x3 ADD DUP1 SLOAD PUSH2 0xAD9 SWAP1 PUSH2 0x1890 JUMP JUMPDEST DUP1 PUSH1 0x1F ADD PUSH1 0x20 DUP1 SWAP2 DIV MUL PUSH1 0x20 ADD PUSH1 0x40 MLOAD SWAP1 DUP2 ADD PUSH1 0x40 MSTORE DUP1 SWAP3 SWAP2 SWAP1 DUP2 DUP2 MSTORE PUSH1 0x20 ADD DUP3 DUP1 SLOAD PUSH2 0xB05 SWAP1 PUSH2 0x1890 JUMP JUMPDEST DUP1 ISZERO PUSH2 0xB52 JUMPI DUP1 PUSH1 0x1F LT PUSH2 0xB27 JUMPI PUSH2 0x100 DUP1 DUP4 SLOAD DIV MUL DUP4 MSTORE SWAP2 PUSH1 0x20 ADD SWAP2 PUSH2 0xB52 JUMP JUMPDEST DUP3 ADD SWAP2 SWAP1 PUSH1 0x0 MSTORE PUSH1 0x20 PUSH1 0x0 KECCAK256 SWAP1 JUMPDEST DUP2 SLOAD DUP2 MSTORE SWAP1 PUSH1 0x1 ADD SWAP1 PUSH1 0x20 ADD DUP1 DUP4 GT PUSH2 0xB35 JUMPI DUP3 SWAP1 SUB PUSH1 0x1F AND DUP3 ADD SWAP2 JUMPDEST POP POP POP POP POP SWAP1 POP DUP5 JUMP JUMPDEST PUSH1 0x9 DUP1 SLOAD PUSH2 0xB69 SWAP1 PUSH2 0x1890 JUMP JUMPDEST DUP1 PUSH1 0x1F ADD PUSH1 0x20 DUP1 SWAP2 DIV MUL PUSH1 0x20 ADD PUSH1 0x40 MLOAD SWAP1 DUP2 ADD PUSH1 0x40 MSTORE DUP1 SWAP3 SWAP2 SWAP1 DUP2 DUP2 MSTORE PUSH1 0x20 ADD DUP3 DUP1 SLOAD PUSH2 0xB95 SWAP1 PUSH2 0x1890 JUMP JUMPDEST DUP1 ISZERO PUSH2 0xBE2 JUMPI DUP1 PUSH1 0x1F LT PUSH2 0xBB7 JUMPI PUSH2 0x100 DUP1 DUP4 SLOAD DIV MUL DUP4 MSTORE SWAP2 PUSH1 0x20 ADD SWAP2 PUSH2 0xBE2 JUMP JUMPDEST DUP3 ADD SWAP2 SWAP1 PUSH1 0x0 MSTORE PUSH1 0x20 PUSH1 0x0 KECCAK256 SWAP1 JUMPDEST DUP2 SLOAD DUP2 MSTORE SWAP1 PUSH1 0x1 ADD SWAP1 PUSH1 0x20 ADD DUP1 DUP4 GT PUSH2 0xBC5 JUMPI DUP3 SWAP1 SUB PUSH1 0x1F AND DUP3 ADD SWAP2 JUMPDEST POP POP POP POP POP DUP2 JUMP JUMPDEST PUSH1 0x8 PUSH1 0x1 SWAP1 SLOAD SWAP1 PUSH2 0x100 EXP SWAP1 DIV PUSH20 0xFFFFFFFFFFFFFFFFFFFFFFFFFFFFFFFFFFFFFFFF AND DUP2 JUMP JUMPDEST PUSH1 0x8 PUSH1 0x0 SWAP1 SLOAD SWAP1 PUSH2 0x100 EXP SWAP1 DIV PUSH1 0xFF AND DUP2 JUMP JUMPDEST PUSH1 0x2 PUSH1 0x20 MSTORE DUP1 PUSH1 0x0 MSTORE PUSH1 0x40 PUSH1 0x0 KECCAK256 PUSH1 0x0 SWAP2 POP SWAP1 POP SLOAD DUP2 JUMP JUMPDEST PUSH1 0x0 DUP1 PUSH1 0x2 DUP2 GT ISZERO PUSH2 0xC50 JUMPI PUSH2 0xC4F PUSH2 0x196B JUMP JUMPDEST JUMPDEST PUSH1 0x8 PUSH1 0x0 SWAP1 SLOAD SWAP1 PUSH2 0x100 EXP SWAP1 DIV PUSH1 0xFF AND PUSH1 0x2 DUP2 GT ISZERO PUSH2 0xC72 JUMPI PUSH2 0xC71 PUSH2 0x196B JUMP JUMPDEST JUMPDEST EQ PUSH2 0xC7C JUMPI PUSH1 0x0 DUP1 REVERT JUMPDEST CALLER PUSH20 0xFFFFFFFFFFFFFFFFFFFFFFFFFFFFFFFFFFFFFFFF AND PUSH1 0x8 PUSH1 0x1 SWAP1 SLOAD SWAP1 PUSH2 0x100 EXP SWAP1 DIV PUSH20 0xFFFFFFFFFFFFFFFFFFFFFFFFFFFFFFFFFFFFFFFF AND PUSH20 0xFFFFFFFFFFFFFFFFFFFFFFFFFFFFFFFFFFFFFFFF AND EQ PUSH2 0xCD6 JUMPI PUSH1 0x0 DUP1 REVERT JUMPDEST PUSH2 0xCDE PUSH2 0x1091 JUMP JUMPDEST DUP4 DUP2 PUSH1 0x20 ADD SWAP1 PUSH20 0xFFFFFFFFFFFFFFFFFFFFFFFFFFFFFFFFFFFFFFFF AND SWAP1 DUP2 PUSH20 0xFFFFFFFFFFFFFFFFFFFFFFFFFFFFFFFFFFFFFFFF AND DUP2 MSTORE POP POP DUP3 DUP2 PUSH1 0x0 ADD DUP2 SWAP1 MSTORE POP PUSH1 0x0 DUP2 PUSH1 0x40 ADD SWAP1 ISZERO ISZERO SWAP1 DUP2 ISZERO ISZERO DUP2 MSTORE POP POP DUP1 PUSH1 0x0 DUP1 DUP7 PUSH20 0xFFFFFFFFFFFFFFFFFFFFFFFFFFFFFFFFFFFFFFFF AND PUSH20 0xFFFFFFFFFFFFFFFFFFFFFFFFFFFFFFFFFFFFFFFF AND DUP2 MSTORE PUSH1 0x20 ADD SWAP1 DUP2 MSTORE PUSH1 0x20 ADD PUSH1 0x0 KECCAK256 PUSH1 0x0 DUP3 ADD MLOAD DUP2 PUSH1 0x0 ADD SWAP1 DUP1 MLOAD SWAP1 PUSH1 0x20 ADD SWAP1 PUSH2 0xD8B SWAP3 SWAP2 SWAP1 PUSH2 0x100B JUMP JUMPDEST POP PUSH1 0x20 DUP3 ADD MLOAD DUP2 PUSH1 0x1 ADD PUSH1 0x0 PUSH2 0x100 EXP DUP2 SLOAD DUP2 PUSH20 0xFFFFFFFFFFFFFFFFFFFFFFFFFFFFFFFFFFFFFFFF MUL NOT AND SWAP1 DUP4 PUSH20 0xFFFFFFFFFFFFFFFFFFFFFFFFFFFFFFFFFFFFFFFF AND MUL OR SWAP1 SSTORE POP PUSH1 0x40 DUP3 ADD MLOAD DUP2 PUSH1 0x1 ADD PUSH1 0x14 PUSH2 0x100 EXP DUP2 SLOAD DUP2 PUSH1 0xFF MUL NOT AND SWAP1 DUP4 ISZERO ISZERO MUL OR SWAP1 SSTORE POP SWAP1 POP POP PUSH1 0x1 PUSH1 0x6 SLOAD PUSH2 0xE05 SWAP2 SWAP1 PUSH2 0x178B JUMP JUMPDEST PUSH1 0x6 DUP2 SWAP1 SSTORE POP POP POP POP POP JUMP JUMPDEST PUSH2 0xE19 PUSH2 0xFCD JUMP JUMPDEST PUSH1 0x4 DUP3 PUSH1 0x40 MLOAD PUSH2 0xE29 SWAP2 SWAP1 PUSH2 0x1565 JUMP JUMPDEST SWAP1 DUP2 MSTORE PUSH1 0x20 ADD PUSH1 0x40 MLOAD DUP1 SWAP2 SUB SWAP1 KECCAK256 PUSH1 0x40 MLOAD DUP1 PUSH1 0x80 ADD PUSH1 0x40 MSTORE SWAP1 DUP2 PUSH1 0x0 DUP3 ADD DUP1 SLOAD PUSH2 0xE52 SWAP1 PUSH2 0x1890 JUMP JUMPDEST DUP1 PUSH1 0x1F ADD PUSH1 0x20 DUP1 SWAP2 DIV MUL PUSH1 0x20 ADD PUSH1 0x40 MLOAD SWAP1 DUP2 ADD PUSH1 0x40 MSTORE DUP1 SWAP3 SWAP2 SWAP1 DUP2 DUP2 MSTORE PUSH1 0x20 ADD DUP3 DUP1 SLOAD PUSH2 0xE7E SWAP1 PUSH2 0x1890 JUMP JUMPDEST DUP1 ISZERO PUSH2 0xECB JUMPI DUP1 PUSH1 0x1F LT PUSH2 0xEA0 JUMPI PUSH2 0x100 DUP1 DUP4 SLOAD DIV MUL DUP4 MSTORE SWAP2 PUSH1 0x20 ADD SWAP2 PUSH2 0xECB JUMP JUMPDEST DUP3 ADD SWAP2 SWAP1 PUSH1 0x0 MSTORE PUSH1 0x20 PUSH1 0x0 KECCAK256 SWAP1 JUMPDEST DUP2 SLOAD DUP2 MSTORE SWAP1 PUSH1 0x1 ADD SWAP1 PUSH1 0x20 ADD DUP1 DUP4 GT PUSH2 0xEAE JUMPI DUP3 SWAP1 SUB PUSH1 0x1F AND DUP3 ADD SWAP2 JUMPDEST POP POP POP POP POP DUP2 MSTORE PUSH1 0x20 ADD PUSH1 0x1 DUP3 ADD PUSH1 0x0 SWAP1 SLOAD SWAP1 PUSH2 0x100 EXP SWAP1 DIV PUSH20 0xFFFFFFFFFFFFFFFFFFFFFFFFFFFFFFFFFFFFFFFF AND PUSH20 0xFFFFFFFFFFFFFFFFFFFFFFFFFFFFFFFFFFFFFFFF AND PUSH20 0xFFFFFFFFFFFFFFFFFFFFFFFFFFFFFFFFFFFFFFFF AND DUP2 MSTORE PUSH1 0x20 ADD PUSH1 0x2 DUP3 ADD SLOAD DUP2 MSTORE PUSH1 0x20 ADD PUSH1 0x3 DUP3 ADD DUP1 SLOAD PUSH2 0xF44 SWAP1 PUSH2 0x1890 JUMP JUMPDEST DUP1 PUSH1 0x1F ADD PUSH1 0x20 DUP1 SWAP2 DIV MUL PUSH1 0x20 ADD PUSH1 0x40 MLOAD SWAP1 DUP2 ADD PUSH1 0x40 MSTORE DUP1 SWAP3 SWAP2 SWAP1 DUP2 DUP2 MSTORE PUSH1 0x20 ADD DUP3 DUP1 SLOAD PUSH2 0xF70 SWAP1 PUSH2 0x1890 JUMP JUMPDEST DUP1 ISZERO PUSH2 0xFBD JUMPI DUP1 PUSH1 0x1F LT PUSH2 0xF92 JUMPI PUSH2 0x100 DUP1 DUP4 SLOAD DIV MUL DUP4 MSTORE SWAP2 PUSH1 0x20 ADD SWAP2 PUSH2 0xFBD JUMP JUMPDEST DUP3 ADD SWAP2 SWAP1 PUSH1 0x0 MSTORE PUSH1 0x20 PUSH1 0x0 KECCAK256 SWAP1 JUMPDEST DUP2 SLOAD DUP2 MSTORE SWAP1 PUSH1 0x1 ADD SWAP1 PUSH1 0x20 ADD DUP1 DUP4 GT PUSH2 0xFA0 JUMPI DUP3 SWAP1 SUB PUSH1 0x1F AND DUP3 ADD SWAP2 JUMPDEST POP POP POP POP POP DUP2 MSTORE POP POP SWAP1 POP SWAP2 SWAP1 POP JUMP JUMPDEST PUSH1 0x40 MLOAD DUP1 PUSH1 0x80 ADD PUSH1 0x40 MSTORE DUP1 PUSH1 0x60 DUP2 MSTORE PUSH1 0x20 ADD PUSH1 0x0 PUSH20 0xFFFFFFFFFFFFFFFFFFFFFFFFFFFFFFFFFFFFFFFF AND DUP2 MSTORE PUSH1 0x20 ADD PUSH1 0x0 DUP2 MSTORE PUSH1 0x20 ADD PUSH1 0x60 DUP2 MSTORE POP SWAP1 JUMP JUMPDEST DUP3 DUP1 SLOAD PUSH2 0x1017 SWAP1 PUSH2 0x1890 JUMP JUMPDEST SWAP1 PUSH1 0x0 MSTORE PUSH1 0x20 PUSH1 0x0 KECCAK256 SWAP1 PUSH1 0x1F ADD PUSH1 0x20 SWAP1 DIV DUP2 ADD SWAP3 DUP3 PUSH2 0x1039 JUMPI PUSH1 0x0 DUP6 SSTORE PUSH2 0x1080 JUMP JUMPDEST DUP3 PUSH1 0x1F LT PUSH2 0x1052 JUMPI DUP1 MLOAD PUSH1 0xFF NOT AND DUP4 DUP1 ADD OR DUP6 SSTORE PUSH2 0x1080 JUMP JUMPDEST DUP3 DUP1 ADD PUSH1 0x1 ADD DUP6 SSTORE DUP3 ISZERO PUSH2 0x1080 JUMPI SWAP2 DUP3 ADD JUMPDEST DUP3 DUP2 GT ISZERO PUSH2 0x107F JUMPI DUP3 MLOAD DUP3 SSTORE SWAP2 PUSH1 0x20 ADD SWAP2 SWAP1 PUSH1 0x1 ADD SWAP1 PUSH2 0x1064 JUMP JUMPDEST JUMPDEST POP SWAP1 POP PUSH2 0x108D SWAP2 SWAP1 PUSH2 0x10CA JUMP JUMPDEST POP SWAP1 JUMP JUMPDEST PUSH1 0x40 MLOAD DUP1 PUSH1 0x60 ADD PUSH1 0x40 MSTORE DUP1 PUSH1 0x60 DUP2 MSTORE PUSH1 0x20 ADD PUSH1 0x0 PUSH20 0xFFFFFFFFFFFFFFFFFFFFFFFFFFFFFFFFFFFFFFFF AND DUP2 MSTORE PUSH1 0x20 ADD PUSH1 0x0 ISZERO ISZERO DUP2 MSTORE POP SWAP1 JUMP JUMPDEST JUMPDEST DUP1 DUP3 GT ISZERO PUSH2 0x10E3 JUMPI PUSH1 0x0 DUP2 PUSH1 0x0 SWAP1 SSTORE POP PUSH1 0x1 ADD PUSH2 0x10CB JUMP JUMPDEST POP SWAP1 JUMP JUMPDEST PUSH1 0x0 PUSH2 0x10FA PUSH2 0x10F5 DUP5 PUSH2 0x16E9 JUMP JUMPDEST PUSH2 0x16C4 JUMP JUMPDEST SWAP1 POP DUP3 DUP2 MSTORE PUSH1 0x20 DUP2 ADD DUP5 DUP5 DUP5 ADD GT ISZERO PUSH2 0x1116 JUMPI PUSH2 0x1115 PUSH2 0x1A2C JUMP JUMPDEST JUMPDEST PUSH2 0x1121 DUP5 DUP3 DUP6 PUSH2 0x184E JUMP JUMPDEST POP SWAP4 SWAP3 POP POP POP JUMP JUMPDEST PUSH1 0x0 DUP2 CALLDATALOAD SWAP1 POP PUSH2 0x1138 DUP2 PUSH2 0x1A60 JUMP JUMPDEST SWAP3 SWAP2 POP POP JUMP JUMPDEST PUSH1 0x0 DUP3 PUSH1 0x1F DUP4 ADD SLT PUSH2 0x1153 JUMPI PUSH2 0x1152 PUSH2 0x1A27 JUMP JUMPDEST JUMPDEST DUP2 CALLDATALOAD PUSH2 0x1163 DUP5 DUP3 PUSH1 0x20 DUP7 ADD PUSH2 0x10E7 JUMP JUMPDEST SWAP2 POP POP SWAP3 SWAP2 POP POP JUMP JUMPDEST PUSH1 0x0 DUP2 CALLDATALOAD SWAP1 POP PUSH2 0x117B DUP2 PUSH2 0x1A77 JUMP JUMPDEST SWAP3 SWAP2 POP POP JUMP JUMPDEST PUSH1 0x0 PUSH1 0x20 DUP3 DUP5 SUB SLT ISZERO PUSH2 0x1197 JUMPI PUSH2 0x1196 PUSH2 0x1A36 JUMP JUMPDEST JUMPDEST PUSH1 0x0 PUSH2 0x11A5 DUP5 DUP3 DUP6 ADD PUSH2 0x1129 JUMP JUMPDEST SWAP2 POP POP SWAP3 SWAP2 POP POP JUMP JUMPDEST PUSH1 0x0 DUP1 PUSH1 0x40 DUP4 DUP6 SUB SLT ISZERO PUSH2 0x11C5 JUMPI PUSH2 0x11C4 PUSH2 0x1A36 JUMP JUMPDEST JUMPDEST PUSH1 0x0 PUSH2 0x11D3 DUP6 DUP3 DUP7 ADD PUSH2 0x1129 JUMP JUMPDEST SWAP3 POP POP PUSH1 0x20 DUP4 ADD CALLDATALOAD PUSH8 0xFFFFFFFFFFFFFFFF DUP2 GT ISZERO PUSH2 0x11F4 JUMPI PUSH2 0x11F3 PUSH2 0x1A31 JUMP JUMPDEST JUMPDEST PUSH2 0x1200 DUP6 DUP3 DUP7 ADD PUSH2 0x113E JUMP JUMPDEST SWAP2 POP POP SWAP3 POP SWAP3 SWAP1 POP JUMP JUMPDEST PUSH1 0x0 DUP1 PUSH1 0x0 PUSH1 0x60 DUP5 DUP7 SUB SLT ISZERO PUSH2 0x1223 JUMPI PUSH2 0x1222 PUSH2 0x1A36 JUMP JUMPDEST JUMPDEST PUSH1 0x0 PUSH2 0x1231 DUP7 DUP3 DUP8 ADD PUSH2 0x1129 JUMP JUMPDEST SWAP4 POP POP PUSH1 0x20 DUP5 ADD CALLDATALOAD PUSH8 0xFFFFFFFFFFFFFFFF DUP2 GT ISZERO PUSH2 0x1252 JUMPI PUSH2 0x1251 PUSH2 0x1A31 JUMP JUMPDEST JUMPDEST PUSH2 0x125E DUP7 DUP3 DUP8 ADD PUSH2 0x113E JUMP JUMPDEST SWAP3 POP POP PUSH1 0x40 DUP5 ADD CALLDATALOAD PUSH8 0xFFFFFFFFFFFFFFFF DUP2 GT ISZERO PUSH2 0x127F JUMPI PUSH2 0x127E PUSH2 0x1A31 JUMP JUMPDEST JUMPDEST PUSH2 0x128B DUP7 DUP3 DUP8 ADD PUSH2 0x113E JUMP JUMPDEST SWAP2 POP POP SWAP3 POP SWAP3 POP SWAP3 JUMP JUMPDEST PUSH1 0x0 PUSH1 0x20 DUP3 DUP5 SUB SLT ISZERO PUSH2 0x12AB JUMPI PUSH2 0x12AA PUSH2 0x1A36 JUMP JUMPDEST JUMPDEST PUSH1 0x0 DUP3 ADD CALLDATALOAD PUSH8 0xFFFFFFFFFFFFFFFF DUP2 GT ISZERO PUSH2 0x12C9 JUMPI PUSH2 0x12C8 PUSH2 0x1A31 JUMP JUMPDEST JUMPDEST PUSH2 0x12D5 DUP5 DUP3 DUP6 ADD PUSH2 0x113E JUMP JUMPDEST SWAP2 POP POP SWAP3 SWAP2 POP POP JUMP JUMPDEST PUSH1 0x0 PUSH1 0x20 DUP3 DUP5 SUB SLT ISZERO PUSH2 0x12F4 JUMPI PUSH2 0x12F3 PUSH2 0x1A36 JUMP JUMPDEST JUMPDEST PUSH1 0x0 PUSH2 0x1302 DUP5 DUP3 DUP6 ADD PUSH2 0x116C JUMP JUMPDEST SWAP2 POP POP SWAP3 SWAP2 POP POP JUMP JUMPDEST PUSH1 0x0 PUSH2 0x1317 DUP4 DUP4 PUSH2 0x1473 JUMP JUMPDEST SWAP1 POP SWAP3 SWAP2 POP POP JUMP JUMPDEST PUSH2 0x1328 DUP2 PUSH2 0x17E1 JUMP JUMPDEST DUP3 MSTORE POP POP JUMP JUMPDEST PUSH2 0x1337 DUP2 PUSH2 0x17E1 JUMP JUMPDEST DUP3 MSTORE POP POP JUMP JUMPDEST PUSH1 0x0 PUSH2 0x1348 DUP3 PUSH2 0x172A JUMP JUMPDEST PUSH2 0x1352 DUP2 DUP6 PUSH2 0x174D JUMP JUMPDEST SWAP4 POP DUP4 PUSH1 0x20 DUP3 MUL DUP6 ADD PUSH2 0x1364 DUP6 PUSH2 0x171A JUMP JUMPDEST DUP1 PUSH1 0x0 JUMPDEST DUP6 DUP2 LT ISZERO PUSH2 0x13A0 JUMPI DUP5 DUP5 SUB DUP10 MSTORE DUP2 MLOAD PUSH2 0x1381 DUP6 DUP3 PUSH2 0x130B JUMP JUMPDEST SWAP5 POP PUSH2 0x138C DUP4 PUSH2 0x1740 JUMP JUMPDEST SWAP3 POP PUSH1 0x20 DUP11 ADD SWAP10 POP POP PUSH1 0x1 DUP2 ADD SWAP1 POP PUSH2 0x1368 JUMP JUMPDEST POP DUP3 SWAP8 POP DUP8 SWAP6 POP POP POP POP POP POP SWAP3 SWAP2 POP POP JUMP JUMPDEST PUSH2 0x13BB DUP2 PUSH2 0x17F3 JUMP JUMPDEST DUP3 MSTORE POP POP JUMP JUMPDEST PUSH2 0x13CA DUP2 PUSH2 0x183C JUMP JUMPDEST DUP3 MSTORE POP POP JUMP JUMPDEST PUSH1 0x0 PUSH2 0x13DB DUP3 PUSH2 0x1735 JUMP JUMPDEST PUSH2 0x13E5 DUP2 DUP6 PUSH2 0x175E JUMP JUMPDEST SWAP4 POP PUSH2 0x13F5 DUP2 DUP6 PUSH1 0x20 DUP7 ADD PUSH2 0x185D JUMP JUMPDEST PUSH2 0x13FE DUP2 PUSH2 0x1A3B JUMP JUMPDEST DUP5 ADD SWAP2 POP POP SWAP3 SWAP2 POP POP JUMP JUMPDEST PUSH1 0x0 PUSH2 0x1414 DUP3 PUSH2 0x1735 JUMP JUMPDEST PUSH2 0x141E DUP2 DUP6 PUSH2 0x176F JUMP JUMPDEST SWAP4 POP PUSH2 0x142E DUP2 DUP6 PUSH1 0x20 DUP7 ADD PUSH2 0x185D JUMP JUMPDEST PUSH2 0x1437 DUP2 PUSH2 0x1A3B JUMP JUMPDEST DUP5 ADD SWAP2 POP POP SWAP3 SWAP2 POP POP JUMP JUMPDEST PUSH1 0x0 PUSH2 0x144D DUP3 PUSH2 0x1735 JUMP JUMPDEST PUSH2 0x1457 DUP2 DUP6 PUSH2 0x1780 JUMP JUMPDEST SWAP4 POP PUSH2 0x1467 DUP2 DUP6 PUSH1 0x20 DUP7 ADD PUSH2 0x185D JUMP JUMPDEST DUP1 DUP5 ADD SWAP2 POP POP SWAP3 SWAP2 POP POP JUMP JUMPDEST PUSH1 0x0 PUSH1 0x80 DUP4 ADD PUSH1 0x0 DUP4 ADD MLOAD DUP5 DUP3 SUB PUSH1 0x0 DUP7 ADD MSTORE PUSH2 0x1490 DUP3 DUP3 PUSH2 0x13D0 JUMP JUMPDEST SWAP2 POP POP PUSH1 0x20 DUP4 ADD MLOAD PUSH2 0x14A5 PUSH1 0x20 DUP7 ADD DUP3 PUSH2 0x131F JUMP JUMPDEST POP PUSH1 0x40 DUP4 ADD MLOAD PUSH2 0x14B8 PUSH1 0x40 DUP7 ADD DUP3 PUSH2 0x1547 JUMP JUMPDEST POP PUSH1 0x60 DUP4 ADD MLOAD DUP5 DUP3 SUB PUSH1 0x60 DUP7 ADD MSTORE PUSH2 0x14D0 DUP3 DUP3 PUSH2 0x13D0 JUMP JUMPDEST SWAP2 POP POP DUP1 SWAP2 POP POP SWAP3 SWAP2 POP POP JUMP JUMPDEST PUSH1 0x0 PUSH1 0x80 DUP4 ADD PUSH1 0x0 DUP4 ADD MLOAD DUP5 DUP3 SUB PUSH1 0x0 DUP7 ADD MSTORE PUSH2 0x14FA DUP3 DUP3 PUSH2 0x13D0 JUMP JUMPDEST SWAP2 POP POP PUSH1 0x20 DUP4 ADD MLOAD PUSH2 0x150F PUSH1 0x20 DUP7 ADD DUP3 PUSH2 0x131F JUMP JUMPDEST POP PUSH1 0x40 DUP4 ADD MLOAD PUSH2 0x1522 PUSH1 0x40 DUP7 ADD DUP3 PUSH2 0x1547 JUMP JUMPDEST POP PUSH1 0x60 DUP4 ADD MLOAD DUP5 DUP3 SUB PUSH1 0x60 DUP7 ADD MSTORE PUSH2 0x153A DUP3 DUP3 PUSH2 0x13D0 JUMP JUMPDEST SWAP2 POP POP DUP1 SWAP2 POP POP SWAP3 SWAP2 POP POP JUMP JUMPDEST PUSH2 0x1550 DUP2 PUSH2 0x1832 JUMP JUMPDEST DUP3 MSTORE POP POP JUMP JUMPDEST PUSH2 0x155F DUP2 PUSH2 0x1832 JUMP JUMPDEST DUP3 MSTORE POP POP JUMP JUMPDEST PUSH1 0x0 PUSH2 0x1571 DUP3 DUP5 PUSH2 0x1442 JUMP JUMPDEST SWAP2 POP DUP2 SWAP1 POP SWAP3 SWAP2 POP POP JUMP JUMPDEST PUSH1 0x0 PUSH1 0x20 DUP3 ADD SWAP1 POP PUSH2 0x1591 PUSH1 0x0 DUP4 ADD DUP5 PUSH2 0x132E JUMP JUMPDEST SWAP3 SWAP2 POP POP JUMP JUMPDEST PUSH1 0x0 PUSH1 0x20 DUP3 ADD SWAP1 POP DUP2 DUP2 SUB PUSH1 0x0 DUP4 ADD MSTORE PUSH2 0x15B1 DUP2 DUP5 PUSH2 0x133D JUMP JUMPDEST SWAP1 POP SWAP3 SWAP2 POP POP JUMP JUMPDEST PUSH1 0x0 PUSH1 0x20 DUP3 ADD SWAP1 POP PUSH2 0x15CE PUSH1 0x0 DUP4 ADD DUP5 PUSH2 0x13C1 JUMP JUMPDEST SWAP3 SWAP2 POP POP JUMP JUMPDEST PUSH1 0x0 PUSH1 0x20 DUP3 ADD SWAP1 POP DUP2 DUP2 SUB PUSH1 0x0 DUP4 ADD MSTORE PUSH2 0x15EE DUP2 DUP5 PUSH2 0x1409 JUMP JUMPDEST SWAP1 POP SWAP3 SWAP2 POP POP JUMP JUMPDEST PUSH1 0x0 PUSH1 0x60 DUP3 ADD SWAP1 POP DUP2 DUP2 SUB PUSH1 0x0 DUP4 ADD MSTORE PUSH2 0x1610 DUP2 DUP7 PUSH2 0x1409 JUMP JUMPDEST SWAP1 POP PUSH2 0x161F PUSH1 0x20 DUP4 ADD DUP6 PUSH2 0x132E JUMP JUMPDEST PUSH2 0x162C PUSH1 0x40 DUP4 ADD DUP5 PUSH2 0x13B2 JUMP JUMPDEST SWAP5 SWAP4 POP POP POP POP JUMP JUMPDEST PUSH1 0x0 PUSH1 0x80 DUP3 ADD SWAP1 POP DUP2 DUP2 SUB PUSH1 0x0 DUP4 ADD MSTORE PUSH2 0x164E DUP2 DUP8 PUSH2 0x1409 JUMP JUMPDEST SWAP1 POP PUSH2 0x165D PUSH1 0x20 DUP4 ADD DUP7 PUSH2 0x132E JUMP JUMPDEST PUSH2 0x166A PUSH1 0x40 DUP4 ADD DUP6 PUSH2 0x1556 JUMP JUMPDEST DUP2 DUP2 SUB PUSH1 0x60 DUP4 ADD MSTORE PUSH2 0x167C DUP2 DUP5 PUSH2 0x1409 JUMP JUMPDEST SWAP1 POP SWAP6 SWAP5 POP POP POP POP POP JUMP JUMPDEST PUSH1 0x0 PUSH1 0x20 DUP3 ADD SWAP1 POP DUP2 DUP2 SUB PUSH1 0x0 DUP4 ADD MSTORE PUSH2 0x16A1 DUP2 DUP5 PUSH2 0x14DD JUMP JUMPDEST SWAP1 POP SWAP3 SWAP2 POP POP JUMP JUMPDEST PUSH1 0x0 PUSH1 0x20 DUP3 ADD SWAP1 POP PUSH2 0x16BE PUSH1 0x0 DUP4 ADD DUP5 PUSH2 0x1556 JUMP JUMPDEST SWAP3 SWAP2 POP POP JUMP JUMPDEST PUSH1 0x0 PUSH2 0x16CE PUSH2 0x16DF JUMP JUMPDEST SWAP1 POP PUSH2 0x16DA DUP3 DUP3 PUSH2 0x18C2 JUMP JUMPDEST SWAP2 SWAP1 POP JUMP JUMPDEST PUSH1 0x0 PUSH1 0x40 MLOAD SWAP1 POP SWAP1 JUMP JUMPDEST PUSH1 0x0 PUSH8 0xFFFFFFFFFFFFFFFF DUP3 GT ISZERO PUSH2 0x1704 JUMPI PUSH2 0x1703 PUSH2 0x19F8 JUMP JUMPDEST JUMPDEST PUSH2 0x170D DUP3 PUSH2 0x1A3B JUMP JUMPDEST SWAP1 POP PUSH1 0x20 DUP2 ADD SWAP1 POP SWAP2 SWAP1 POP JUMP JUMPDEST PUSH1 0x0 DUP2 SWAP1 POP PUSH1 0x20 DUP3 ADD SWAP1 POP SWAP2 SWAP1 POP JUMP JUMPDEST PUSH1 0x0 DUP2 MLOAD SWAP1 POP SWAP2 SWAP1 POP JUMP JUMPDEST PUSH1 0x0 DUP2 MLOAD SWAP1 POP SWAP2 SWAP1 POP JUMP JUMPDEST PUSH1 0x0 PUSH1 0x20 DUP3 ADD SWAP1 POP SWAP2 SWAP1 POP JUMP JUMPDEST PUSH1 0x0 DUP3 DUP3 MSTORE PUSH1 0x20 DUP3 ADD SWAP1 POP SWAP3 SWAP2 POP POP JUMP JUMPDEST PUSH1 0x0 DUP3 DUP3 MSTORE PUSH1 0x20 DUP3 ADD SWAP1 POP SWAP3 SWAP2 POP POP JUMP JUMPDEST PUSH1 0x0 DUP3 DUP3 MSTORE PUSH1 0x20 DUP3 ADD SWAP1 POP SWAP3 SWAP2 POP POP JUMP JUMPDEST PUSH1 0x0 DUP2 SWAP1 POP SWAP3 SWAP2 POP POP JUMP JUMPDEST PUSH1 0x0 PUSH2 0x1796 DUP3 PUSH2 0x1832 JUMP JUMPDEST SWAP2 POP PUSH2 0x17A1 DUP4 PUSH2 0x1832 JUMP JUMPDEST SWAP3 POP DUP3 PUSH32 0xFFFFFFFFFFFFFFFFFFFFFFFFFFFFFFFFFFFFFFFFFFFFFFFFFFFFFFFFFFFFFFFF SUB DUP3 GT ISZERO PUSH2 0x17D6 JUMPI PUSH2 0x17D5 PUSH2 0x193C JUMP JUMPDEST JUMPDEST DUP3 DUP3 ADD SWAP1 POP SWAP3 SWAP2 POP POP JUMP JUMPDEST PUSH1 0x0 PUSH2 0x17EC DUP3 PUSH2 0x1812 JUMP JUMPDEST SWAP1 POP SWAP2 SWAP1 POP JUMP JUMPDEST PUSH1 0x0 DUP2 ISZERO ISZERO SWAP1 POP SWAP2 SWAP1 POP JUMP JUMPDEST PUSH1 0x0 DUP2 SWAP1 POP PUSH2 0x180D DUP3 PUSH2 0x1A4C JUMP JUMPDEST SWAP2 SWAP1 POP JUMP JUMPDEST PUSH1 0x0 PUSH20 0xFFFFFFFFFFFFFFFFFFFFFFFFFFFFFFFFFFFFFFFF DUP3 AND SWAP1 POP SWAP2 SWAP1 POP JUMP JUMPDEST PUSH1 0x0 DUP2 SWAP1 POP SWAP2 SWAP1 POP JUMP JUMPDEST PUSH1 0x0 PUSH2 0x1847 DUP3 PUSH2 0x17FF JUMP JUMPDEST SWAP1 POP SWAP2 SWAP1 POP JUMP JUMPDEST DUP3 DUP2 DUP4 CALLDATACOPY PUSH1 0x0 DUP4 DUP4 ADD MSTORE POP POP POP JUMP JUMPDEST PUSH1 0x0 JUMPDEST DUP4 DUP2 LT ISZERO PUSH2 0x187B JUMPI DUP1 DUP3 ADD MLOAD DUP2 DUP5 ADD MSTORE PUSH1 0x20 DUP2 ADD SWAP1 POP PUSH2 0x1860 JUMP JUMPDEST DUP4 DUP2 GT ISZERO PUSH2 0x188A JUMPI PUSH1 0x0 DUP5 DUP5 ADD MSTORE JUMPDEST POP POP POP POP JUMP JUMPDEST PUSH1 0x0 PUSH1 0x2 DUP3 DIV SWAP1 POP PUSH1 0x1 DUP3 AND DUP1 PUSH2 0x18A8 JUMPI PUSH1 0x7F DUP3 AND SWAP2 POP JUMPDEST PUSH1 0x20 DUP3 LT DUP2 EQ ISZERO PUSH2 0x18BC JUMPI PUSH2 0x18BB PUSH2 0x199A JUMP JUMPDEST JUMPDEST POP SWAP2 SWAP1 POP JUMP JUMPDEST PUSH2 0x18CB DUP3 PUSH2 0x1A3B JUMP JUMPDEST DUP2 ADD DUP2 DUP2 LT PUSH8 0xFFFFFFFFFFFFFFFF DUP3 GT OR ISZERO PUSH2 0x18EA JUMPI PUSH2 0x18E9 PUSH2 0x19F8 JUMP JUMPDEST JUMPDEST DUP1 PUSH1 0x40 MSTORE POP POP POP JUMP JUMPDEST PUSH1 0x0 PUSH2 0x18FE DUP3 PUSH2 0x1832 JUMP JUMPDEST SWAP2 POP PUSH32 0xFFFFFFFFFFFFFFFFFFFFFFFFFFFFFFFFFFFFFFFFFFFFFFFFFFFFFFFFFFFFFFFF DUP3 EQ ISZERO PUSH2 0x1931 JUMPI PUSH2 0x1930 PUSH2 0x193C JUMP JUMPDEST JUMPDEST PUSH1 0x1 DUP3 ADD SWAP1 POP SWAP2 SWAP1 POP JUMP JUMPDEST PUSH32 0x4E487B7100000000000000000000000000000000000000000000000000000000 PUSH1 0x0 MSTORE PUSH1 0x11 PUSH1 0x4 MSTORE PUSH1 0x24 PUSH1 0x0 REVERT JUMPDEST PUSH32 0x4E487B7100000000000000000000000000000000000000000000000000000000 PUSH1 0x0 MSTORE PUSH1 0x21 PUSH1 0x4 MSTORE PUSH1 0x24 PUSH1 0x0 REVERT JUMPDEST PUSH32 0x4E487B7100000000000000000000000000000000000000000000000000000000 PUSH1 0x0 MSTORE PUSH1 0x22 PUSH1 0x4 MSTORE PUSH1 0x24 PUSH1 0x0 REVERT JUMPDEST PUSH32 0x4E487B7100000000000000000000000000000000000000000000000000000000 PUSH1 0x0 MSTORE PUSH1 0x32 PUSH1 0x4 MSTORE PUSH1 0x24 PUSH1 0x0 REVERT JUMPDEST PUSH32 0x4E487B7100000000000000000000000000000000000000000000000000000000 PUSH1 0x0 MSTORE PUSH1 0x41 PUSH1 0x4 MSTORE PUSH1 0x24 PUSH1 0x0 REVERT JUMPDEST PUSH1 0x0 DUP1 REVERT JUMPDEST PUSH1 0x0 DUP1 REVERT JUMPDEST PUSH1 0x0 DUP1 REVERT JUMPDEST PUSH1 0x0 DUP1 REVERT JUMPDEST PUSH1 0x0 PUSH1 0x1F NOT PUSH1 0x1F DUP4 ADD AND SWAP1 POP SWAP2 SWAP1 POP JUMP JUMPDEST PUSH1 0x3 DUP2 LT PUSH2 0x1A5D JUMPI PUSH2 0x1A5C PUSH2 0x196B JUMP JUMPDEST JUMPDEST POP JUMP JUMPDEST PUSH2 0x1A69 DUP2 PUSH2 0x17E1 JUMP JUMPDEST DUP2 EQ PUSH2 0x1A74 JUMPI PUSH1 0x0 DUP1 REVERT JUMPDEST POP JUMP JUMPDEST PUSH2 0x1A80 DUP2 PUSH2 0x1832 JUMP JUMPDEST DUP2 EQ PUSH2 0x1A8B JUMPI PUSH1 0x0 DUP1 REVERT JUMPDEST POP JUMP INVALID LOG2 PUSH5 0x6970667358 0x22 SLT KECCAK256 PUSH24 0x49048EB33E92DB5D346E92E553F03CE1CDBA3F3CA9E334FD 0xDF BYTE 0xA5 PUSH31 0x3EFD3664736F6C634300080700330000000000000000000000000000000000 "
				},
				"gasEstimates": {
					"creation": {
						"codeDepositCost": "1370400",
						"executionCost": "infinite",
						"totalCost": "infinite"
					},
					"external": {
						"AddressToVoter(address)": "infinite",
						"CandidateList(uint256)": "infinite",
						"ElectionName()": "infinite",
						"OragnizerAddress()": "2631",
						"SymbolToCandidate(string)": "infinite",
						"VoteCount(address)": "2858",
						"addCandidates(address,string,string)": "infinite",
						"addVoter(address,string)": "infinite",
						"candidatesCount()": "2452",
						"getCandidate(string)": "infinite",
						"getCandidates()": "infinite",
						"state()": "2582",
						"totalVoters()": "2496",
						"totalVotes()": "2475"
					}
				},
				"methodIdentifiers": {
					"AddressToVoter(address)": "12c06342",
					"CandidateList(uint256)": "72753be5",
					"ElectionName()": "80843e25",
					"OragnizerAddress()": "8949e009",
					"SymbolToCandidate(string)": "46702b16",
					"VoteCount(address)": "d82d4eb9",
					"addCandidates(address,string,string)": "62c49251",
					"addVoter(address,string)": "d9e95a98",
					"candidatesCount()": "2d35a8a2",
					"getCandidate(string)": "f276669d",
					"getCandidates()": "06a49fce",
					"state()": "c19d93fb",
					"totalVoters()": "5f5300ff",
					"totalVotes()": "0d15fd77"
				}
			},
			"storageLayout": {
				"storage": [
					{
						"astId": 27,
						"contract": "Voting/contracts/Voting.sol:Voting",
						"label": "AddressToVoter",
						"offset": 0,
						"slot": "0",
						"type": "t_mapping(t_address,t_struct(Voter)8_storage)"
					},
					{
						"astId": 32,
						"contract": "Voting/contracts/Voting.sol:Voting",
						"label": "Votes",
						"offset": 0,
						"slot": "1",
						"type": "t_mapping(t_address,t_struct(Vote)13_storage)"
					},
					{
						"astId": 36,
						"contract": "Voting/contracts/Voting.sol:Voting",
						"label": "VoteCount",
						"offset": 0,
						"slot": "2",
						"type": "t_mapping(t_address,t_uint256)"
					},
					{
						"astId": 41,
						"contract": "Voting/contracts/Voting.sol:Voting",
						"label": "CandidateList",
						"offset": 0,
						"slot": "3",
						"type": "t_mapping(t_uint256,t_struct(Candidate)22_storage)"
					},
					{
						"astId": 46,
						"contract": "Voting/contracts/Voting.sol:Voting",
						"label": "SymbolToCandidate",
						"offset": 0,
						"slot": "4",
						"type": "t_mapping(t_string_memory_ptr,t_struct(Candidate)22_storage)"
					},
					{
						"astId": 48,
						"contract": "Voting/contracts/Voting.sol:Voting",
						"label": "candidatesCount",
						"offset": 0,
						"slot": "5",
						"type": "t_uint256"
					},
					{
						"astId": 50,
						"contract": "Voting/contracts/Voting.sol:Voting",
						"label": "totalVoters",
						"offset": 0,
						"slot": "6",
						"type": "t_uint256"
					},
					{
						"astId": 52,
						"contract": "Voting/contracts/Voting.sol:Voting",
						"label": "totalVotes",
						"offset": 0,
						"slot": "7",
						"type": "t_uint256"
					},
					{
						"astId": 59,
						"contract": "Voting/contracts/Voting.sol:Voting",
						"label": "state",
						"offset": 0,
						"slot": "8",
						"type": "t_enum(State)56"
					},
					{
						"astId": 61,
						"contract": "Voting/contracts/Voting.sol:Voting",
						"label": "OragnizerAddress",
						"offset": 1,
						"slot": "8",
						"type": "t_address"
					},
					{
						"astId": 63,
						"contract": "Voting/contracts/Voting.sol:Voting",
						"label": "ElectionName",
						"offset": 0,
						"slot": "9",
						"type": "t_string_storage"
					}
				],
				"types": {
					"t_address": {
						"encoding": "inplace",
						"label": "address",
						"numberOfBytes": "20"
					},
					"t_bool": {
						"encoding": "inplace",
						"label": "bool",
						"numberOfBytes": "1"
					},
					"t_enum(State)56": {
						"encoding": "inplace",
						"label": "enum Voting.State",
						"numberOfBytes": "1"
					},
					"t_mapping(t_address,t_struct(Vote)13_storage)": {
						"encoding": "mapping",
						"key": "t_address",
						"label": "mapping(address => struct Voting.Vote)",
						"numberOfBytes": "32",
						"value": "t_struct(Vote)13_storage"
					},
					"t_mapping(t_address,t_struct(Voter)8_storage)": {
						"encoding": "mapping",
						"key": "t_address",
						"label": "mapping(address => struct Voting.Voter)",
						"numberOfBytes": "32",
						"value": "t_struct(Voter)8_storage"
					},
					"t_mapping(t_address,t_uint256)": {
						"encoding": "mapping",
						"key": "t_address",
						"label": "mapping(address => uint256)",
						"numberOfBytes": "32",
						"value": "t_uint256"
					},
					"t_mapping(t_string_memory_ptr,t_struct(Candidate)22_storage)": {
						"encoding": "mapping",
						"key": "t_string_memory_ptr",
						"label": "mapping(string => struct Voting.Candidate)",
						"numberOfBytes": "32",
						"value": "t_struct(Candidate)22_storage"
					},
					"t_mapping(t_uint256,t_struct(Candidate)22_storage)": {
						"encoding": "mapping",
						"key": "t_uint256",
						"label": "mapping(uint256 => struct Voting.Candidate)",
						"numberOfBytes": "32",
						"value": "t_struct(Candidate)22_storage"
					},
					"t_string_memory_ptr": {
						"encoding": "bytes",
						"label": "string",
						"numberOfBytes": "32"
					},
					"t_string_storage": {
						"encoding": "bytes",
						"label": "string",
						"numberOfBytes": "32"
					},
					"t_struct(Candidate)22_storage": {
						"encoding": "inplace",
						"label": "struct Voting.Candidate",
						"members": [
							{
								"astId": 15,
								"contract": "Voting/contracts/Voting.sol:Voting",
								"label": "candidateName",
								"offset": 0,
								"slot": "0",
								"type": "t_string_storage"
							},
							{
								"astId": 17,
								"contract": "Voting/contracts/Voting.sol:Voting",
								"label": "candidateAddress",
								"offset": 0,
								"slot": "1",
								"type": "t_address"
							},
							{
								"astId": 19,
								"contract": "Voting/contracts/Voting.sol:Voting",
								"label": "numberOfVotes",
								"offset": 0,
								"slot": "2",
								"type": "t_uint256"
							},
							{
								"astId": 21,
								"contract": "Voting/contracts/Voting.sol:Voting",
								"label": "symbol",
								"offset": 0,
								"slot": "3",
								"type": "t_string_storage"
							}
						],
						"numberOfBytes": "128"
					},
					"t_struct(Vote)13_storage": {
						"encoding": "inplace",
						"label": "struct Voting.Vote",
						"members": [
							{
								"astId": 10,
								"contract": "Voting/contracts/Voting.sol:Voting",
								"label": "voterAddress",
								"offset": 0,
								"slot": "0",
								"type": "t_address"
							},
							{
								"astId": 12,
								"contract": "Voting/contracts/Voting.sol:Voting",
								"label": "symbol",
								"offset": 0,
								"slot": "1",
								"type": "t_uint256"
							}
						],
						"numberOfBytes": "64"
					},
					"t_struct(Voter)8_storage": {
						"encoding": "inplace",
						"label": "struct Voting.Voter",
						"members": [
							{
								"astId": 3,
								"contract": "Voting/contracts/Voting.sol:Voting",
								"label": "voterName",
								"offset": 0,
								"slot": "0",
								"type": "t_string_storage"
							},
							{
								"astId": 5,
								"contract": "Voting/contracts/Voting.sol:Voting",
								"label": "voterAddress",
								"offset": 0,
								"slot": "1",
								"type": "t_address"
							},
							{
								"astId": 7,
								"contract": "Voting/contracts/Voting.sol:Voting",
								"label": "voted",
								"offset": 20,
								"slot": "1",
								"type": "t_bool"
							}
						],
						"numberOfBytes": "64"
					},
					"t_uint256": {
						"encoding": "inplace",
						"label": "uint256",
						"numberOfBytes": "32"
					}
				}
			},
			"userdoc": {
				"kind": "user",
				"methods": {},
				"version": 1
			}
		}
	}
}