{
	"Voting/contracts/Voting.sol": {
		"Voting": {
			"abi": [
				{
					"inputs": [
						{
							"internalType": "string",
							"name": "_electionName",
							"type": "string"
						}
					],
					"stateMutability": "nonpayable",
					"type": "constructor"
				},
				{
					"inputs": [
						{
							"internalType": "address",
							"name": "",
							"type": "address"
						}
					],
					"name": "AddressToVoter",
					"outputs": [
						{
							"internalType": "string",
							"name": "voterName",
							"type": "string"
						},
						{
							"internalType": "address",
							"name": "voterAddress",
							"type": "address"
						},
						{
							"internalType": "bool",
							"name": "voted",
							"type": "bool"
						}
					],
					"stateMutability": "view",
					"type": "function"
				},
				{
					"inputs": [
						{
							"internalType": "uint256",
							"name": "",
							"type": "uint256"
						}
					],
					"name": "CandidateList",
					"outputs": [
						{
							"internalType": "string",
							"name": "candidateName",
							"type": "string"
						},
						{
							"internalType": "address",
							"name": "candidateAddress",
							"type": "address"
						},
						{
							"internalType": "uint256",
							"name": "numberOfVotes",
							"type": "uint256"
						},
						{
							"internalType": "string",
							"name": "symbol",
							"type": "string"
						}
					],
					"stateMutability": "view",
					"type": "function"
				},
				{
					"inputs": [],
					"name": "ElectionName",
					"outputs": [
						{
							"internalType": "string",
							"name": "",
							"type": "string"
						}
					],
					"stateMutability": "view",
					"type": "function"
				},
				{
					"inputs": [],
					"name": "OragnizerAddress",
					"outputs": [
						{
							"internalType": "address",
							"name": "",
							"type": "address"
						}
					],
					"stateMutability": "view",
					"type": "function"
				},
				{
					"inputs": [
						{
							"internalType": "string",
							"name": "",
							"type": "string"
						}
					],
					"name": "SymbolToCandidate",
					"outputs": [
						{
							"internalType": "string",
							"name": "candidateName",
							"type": "string"
						},
						{
							"internalType": "address",
							"name": "candidateAddress",
							"type": "address"
						},
						{
							"internalType": "uint256",
							"name": "numberOfVotes",
							"type": "uint256"
						},
						{
							"internalType": "string",
							"name": "symbol",
							"type": "string"
						}
					],
					"stateMutability": "view",
					"type": "function"
				},
				{
					"inputs": [
						{
							"internalType": "address",
							"name": "",
							"type": "address"
						}
					],
					"name": "VoteCount",
					"outputs": [
						{
							"internalType": "uint256",
							"name": "",
							"type": "uint256"
						}
					],
					"stateMutability": "view",
					"type": "function"
				},
				{
					"inputs": [
						{
							"internalType": "uint256",
							"name": "",
							"type": "uint256"
						}
					],
					"name": "VoterList",
					"outputs": [
						{
							"internalType": "string",
							"name": "voterName",
							"type": "string"
						},
						{
							"internalType": "address",
							"name": "voterAddress",
							"type": "address"
						},
						{
							"internalType": "bool",
							"name": "voted",
							"type": "bool"
						}
					],
					"stateMutability": "view",
					"type": "function"
				},
				{
					"inputs": [
						{
							"internalType": "address",
							"name": "_candidateAddress",
							"type": "address"
						},
						{
							"internalType": "string",
							"name": "_candidateName",
							"type": "string"
						},
						{
							"internalType": "string",
							"name": "_symbol",
							"type": "string"
						}
					],
					"name": "addCandidates",
					"outputs": [],
					"stateMutability": "nonpayable",
					"type": "function"
				},
				{
					"inputs": [
						{
							"internalType": "address",
							"name": "_voterAddress",
							"type": "address"
						},
						{
							"internalType": "string",
							"name": "_voterName",
							"type": "string"
						}
					],
					"name": "addVoter",
					"outputs": [],
					"stateMutability": "nonpayable",
					"type": "function"
				},
				{
					"inputs": [],
					"name": "candidatesCount",
					"outputs": [
						{
							"internalType": "uint256",
							"name": "",
							"type": "uint256"
						}
					],
					"stateMutability": "view",
					"type": "function"
				},
				{
					"inputs": [
						{
							"internalType": "string",
							"name": "_symbol",
							"type": "string"
						}
					],
					"name": "getCandidate",
					"outputs": [
						{
							"components": [
								{
									"internalType": "string",
									"name": "candidateName",
									"type": "string"
								},
								{
									"internalType": "address",
									"name": "candidateAddress",
									"type": "address"
								},
								{
									"internalType": "uint256",
									"name": "numberOfVotes",
									"type": "uint256"
								},
								{
									"internalType": "string",
									"name": "symbol",
									"type": "string"
								}
							],
							"internalType": "struct Voting.Candidate",
							"name": "",
							"type": "tuple"
						}
					],
					"stateMutability": "view",
					"type": "function"
				},
				{
					"inputs": [],
					"name": "getCandidates",
					"outputs": [
						{
							"components": [
								{
									"internalType": "string",
									"name": "candidateName",
									"type": "string"
								},
								{
									"internalType": "address",
									"name": "candidateAddress",
									"type": "address"
								},
								{
									"internalType": "uint256",
									"name": "numberOfVotes",
									"type": "uint256"
								},
								{
									"internalType": "string",
									"name": "symbol",
									"type": "string"
								}
							],
							"internalType": "struct Voting.Candidate[]",
							"name": "",
							"type": "tuple[]"
						}
					],
					"stateMutability": "view",
					"type": "function"
				},
				{
					"inputs": [],
					"name": "state",
					"outputs": [
						{
							"internalType": "enum Voting.State",
							"name": "",
							"type": "uint8"
						}
					],
					"stateMutability": "view",
					"type": "function"
				},
				{
					"inputs": [],
					"name": "totalVoters",
					"outputs": [
						{
							"internalType": "uint256",
							"name": "",
							"type": "uint256"
						}
					],
					"stateMutability": "view",
					"type": "function"
				},
				{
					"inputs": [],
					"name": "totalVotes",
					"outputs": [
						{
							"internalType": "uint256",
							"name": "",
							"type": "uint256"
						}
					],
					"stateMutability": "view",
					"type": "function"
				}
			],
			"devdoc": {
				"kind": "dev",
				"methods": {},
				"version": 1
			},
			"evm": {
				"assembly": "    /* \"Voting/contracts/Voting.sol\":62:2763  contract Voting {\r... */\n  mstore(0x40, 0x80)\n    /* \"Voting/contracts/Voting.sol\":1012:1177  constructor(string memory _electionName){\r... */\n  callvalue\n  dup1\n  iszero\n  tag_1\n  jumpi\n  0x00\n  dup1\n  revert\ntag_1:\n  pop\n  mload(0x40)\n  sub(codesize, bytecodeSize)\n  dup1\n  bytecodeSize\n  dup4\n  codecopy\n  dup2\n  dup2\n  add\n  0x40\n  mstore\n  dup2\n  add\n  swap1\n  tag_2\n  swap2\n  swap1\n  tag_3\n  jump\t// in\ntag_2:\n    /* \"Voting/contracts/Voting.sol\":1082:1092  msg.sender */\n  caller\n    /* \"Voting/contracts/Voting.sol\":1063:1079  OragnizerAddress */\n  0x09\n  0x01\n    /* \"Voting/contracts/Voting.sol\":1063:1092  OragnizerAddress = msg.sender */\n  0x0100\n  exp\n  dup2\n  sload\n  dup2\n  0xffffffffffffffffffffffffffffffffffffffff\n  mul\n  not\n  and\n  swap1\n  dup4\n  0xffffffffffffffffffffffffffffffffffffffff\n  and\n  mul\n  or\n  swap1\n  sstore\n  pop\n    /* \"Voting/contracts/Voting.sol\":1118:1131  _electionName */\n  dup1\n    /* \"Voting/contracts/Voting.sol\":1103:1115  ElectionName */\n  0x0a\n    /* \"Voting/contracts/Voting.sol\":1103:1131  ElectionName = _electionName */\n  swap1\n  dup1\n  mload\n  swap1\n  0x20\n  add\n  swap1\n  tag_6\n  swap3\n  swap2\n  swap1\n  tag_7\n  jump\t// in\ntag_6:\n  pop\n    /* \"Voting/contracts/Voting.sol\":1152:1165  State.Created */\n  0x00\n    /* \"Voting/contracts/Voting.sol\":1144:1149  state */\n  0x09\n  0x00\n    /* \"Voting/contracts/Voting.sol\":1144:1165  state = State.Created */\n  0x0100\n  exp\n  dup2\n  sload\n  dup2\n  0xff\n  mul\n  not\n  and\n  swap1\n  dup4\n  0x02\n  dup2\n  gt\n  iszero\n  tag_8\n  jumpi\n  tag_9\n  tag_10\n  jump\t// in\ntag_9:\ntag_8:\n  mul\n  or\n  swap1\n  sstore\n  pop\n    /* \"Voting/contracts/Voting.sol\":1012:1177  constructor(string memory _electionName){\r... */\n  pop\n    /* \"Voting/contracts/Voting.sol\":62:2763  contract Voting {\r... */\n  jump(tag_11)\ntag_7:\n  dup3\n  dup1\n  sload\n  tag_12\n  swap1\n  tag_13\n  jump\t// in\ntag_12:\n  swap1\n  0x00\n  mstore\n  keccak256(0x00, 0x20)\n  swap1\n  0x1f\n  add\n  0x20\n  swap1\n  div\n  dup2\n  add\n  swap3\n  dup3\n  tag_15\n  jumpi\n  0x00\n  dup6\n  sstore\n  jump(tag_14)\ntag_15:\n  dup3\n  0x1f\n  lt\n  tag_16\n  jumpi\n  dup1\n  mload\n  not(0xff)\n  and\n  dup4\n  dup1\n  add\n  or\n  dup6\n  sstore\n  jump(tag_14)\ntag_16:\n  dup3\n  dup1\n  add\n  0x01\n  add\n  dup6\n  sstore\n  dup3\n  iszero\n  tag_14\n  jumpi\n  swap2\n  dup3\n  add\ntag_17:\n  dup3\n  dup2\n  gt\n  iszero\n  tag_18\n  jumpi\n  dup3\n  mload\n  dup3\n  sstore\n  swap2\n  0x20\n  add\n  swap2\n  swap1\n  0x01\n  add\n  swap1\n  jump(tag_17)\ntag_18:\ntag_14:\n  pop\n  swap1\n  pop\n  tag_19\n  swap2\n  swap1\n  tag_20\n  jump\t// in\ntag_19:\n  pop\n  swap1\n  jump\t// out\ntag_20:\ntag_21:\n  dup1\n  dup3\n  gt\n  iszero\n  tag_22\n  jumpi\n  0x00\n  dup2\n  0x00\n  swap1\n  sstore\n  pop\n  0x01\n  add\n  jump(tag_21)\ntag_22:\n  pop\n  swap1\n  jump\t// out\n    /* \"#utility.yul\":7:428   */\ntag_24:\n    /* \"#utility.yul\":96:101   */\n  0x00\n    /* \"#utility.yul\":121:187   */\n  tag_26\n    /* \"#utility.yul\":137:186   */\n  tag_27\n    /* \"#utility.yul\":179:185   */\n  dup5\n    /* \"#utility.yul\":137:186   */\n  tag_28\n  jump\t// in\ntag_27:\n    /* \"#utility.yul\":121:187   */\n  tag_29\n  jump\t// in\ntag_26:\n    /* \"#utility.yul\":112:187   */\n  swap1\n  pop\n    /* \"#utility.yul\":210:216   */\n  dup3\n    /* \"#utility.yul\":203:208   */\n  dup2\n    /* \"#utility.yul\":196:217   */\n  mstore\n    /* \"#utility.yul\":248:252   */\n  0x20\n    /* \"#utility.yul\":241:246   */\n  dup2\n    /* \"#utility.yul\":237:253   */\n  add\n    /* \"#utility.yul\":286:289   */\n  dup5\n    /* \"#utility.yul\":277:283   */\n  dup5\n    /* \"#utility.yul\":272:275   */\n  dup5\n    /* \"#utility.yul\":268:284   */\n  add\n    /* \"#utility.yul\":265:290   */\n  gt\n    /* \"#utility.yul\":262:374   */\n  iszero\n  tag_30\n  jumpi\n    /* \"#utility.yul\":293:372   */\n  tag_31\n  tag_32\n  jump\t// in\ntag_31:\n    /* \"#utility.yul\":262:374   */\ntag_30:\n    /* \"#utility.yul\":383:422   */\n  tag_33\n    /* \"#utility.yul\":415:421   */\n  dup5\n    /* \"#utility.yul\":410:413   */\n  dup3\n    /* \"#utility.yul\":405:408   */\n  dup6\n    /* \"#utility.yul\":383:422   */\n  tag_34\n  jump\t// in\ntag_33:\n    /* \"#utility.yul\":102:428   */\n  pop\n    /* \"#utility.yul\":7:428   */\n  swap4\n  swap3\n  pop\n  pop\n  pop\n  jump\t// out\n    /* \"#utility.yul\":448:803   */\ntag_35:\n    /* \"#utility.yul\":515:520   */\n  0x00\n    /* \"#utility.yul\":564:567   */\n  dup3\n    /* \"#utility.yul\":557:561   */\n  0x1f\n    /* \"#utility.yul\":549:555   */\n  dup4\n    /* \"#utility.yul\":545:562   */\n  add\n    /* \"#utility.yul\":541:568   */\n  slt\n    /* \"#utility.yul\":531:653   */\n  tag_37\n  jumpi\n    /* \"#utility.yul\":572:651   */\n  tag_38\n  tag_39\n  jump\t// in\ntag_38:\n    /* \"#utility.yul\":531:653   */\ntag_37:\n    /* \"#utility.yul\":682:688   */\n  dup2\n    /* \"#utility.yul\":676:689   */\n  mload\n    /* \"#utility.yul\":707:797   */\n  tag_40\n    /* \"#utility.yul\":793:796   */\n  dup5\n    /* \"#utility.yul\":785:791   */\n  dup3\n    /* \"#utility.yul\":778:782   */\n  0x20\n    /* \"#utility.yul\":770:776   */\n  dup7\n    /* \"#utility.yul\":766:783   */\n  add\n    /* \"#utility.yul\":707:797   */\n  tag_24\n  jump\t// in\ntag_40:\n    /* \"#utility.yul\":698:797   */\n  swap2\n  pop\n    /* \"#utility.yul\":521:803   */\n  pop\n    /* \"#utility.yul\":448:803   */\n  swap3\n  swap2\n  pop\n  pop\n  jump\t// out\n    /* \"#utility.yul\":809:1333   */\ntag_3:\n    /* \"#utility.yul\":889:895   */\n  0x00\n    /* \"#utility.yul\":938:940   */\n  0x20\n    /* \"#utility.yul\":926:935   */\n  dup3\n    /* \"#utility.yul\":917:924   */\n  dup5\n    /* \"#utility.yul\":913:936   */\n  sub\n    /* \"#utility.yul\":909:941   */\n  slt\n    /* \"#utility.yul\":906:1025   */\n  iszero\n  tag_42\n  jumpi\n    /* \"#utility.yul\":944:1023   */\n  tag_43\n  tag_44\n  jump\t// in\ntag_43:\n    /* \"#utility.yul\":906:1025   */\ntag_42:\n    /* \"#utility.yul\":1085:1086   */\n  0x00\n    /* \"#utility.yul\":1074:1083   */\n  dup3\n    /* \"#utility.yul\":1070:1087   */\n  add\n    /* \"#utility.yul\":1064:1088   */\n  mload\n    /* \"#utility.yul\":1115:1133   */\n  0xffffffffffffffff\n    /* \"#utility.yul\":1107:1113   */\n  dup2\n    /* \"#utility.yul\":1104:1134   */\n  gt\n    /* \"#utility.yul\":1101:1218   */\n  iszero\n  tag_45\n  jumpi\n    /* \"#utility.yul\":1137:1216   */\n  tag_46\n  tag_47\n  jump\t// in\ntag_46:\n    /* \"#utility.yul\":1101:1218   */\ntag_45:\n    /* \"#utility.yul\":1242:1316   */\n  tag_48\n    /* \"#utility.yul\":1308:1315   */\n  dup5\n    /* \"#utility.yul\":1299:1305   */\n  dup3\n    /* \"#utility.yul\":1288:1297   */\n  dup6\n    /* \"#utility.yul\":1284:1306   */\n  add\n    /* \"#utility.yul\":1242:1316   */\n  tag_35\n  jump\t// in\ntag_48:\n    /* \"#utility.yul\":1232:1316   */\n  swap2\n  pop\n    /* \"#utility.yul\":1035:1326   */\n  pop\n    /* \"#utility.yul\":809:1333   */\n  swap3\n  swap2\n  pop\n  pop\n  jump\t// out\n    /* \"#utility.yul\":1339:1468   */\ntag_29:\n    /* \"#utility.yul\":1373:1379   */\n  0x00\n    /* \"#utility.yul\":1400:1420   */\n  tag_50\n  tag_51\n  jump\t// in\ntag_50:\n    /* \"#utility.yul\":1390:1420   */\n  swap1\n  pop\n    /* \"#utility.yul\":1429:1462   */\n  tag_52\n    /* \"#utility.yul\":1457:1461   */\n  dup3\n    /* \"#utility.yul\":1449:1455   */\n  dup3\n    /* \"#utility.yul\":1429:1462   */\n  tag_53\n  jump\t// in\ntag_52:\n    /* \"#utility.yul\":1339:1468   */\n  swap2\n  swap1\n  pop\n  jump\t// out\n    /* \"#utility.yul\":1474:1549   */\ntag_51:\n    /* \"#utility.yul\":1507:1513   */\n  0x00\n    /* \"#utility.yul\":1540:1542   */\n  0x40\n    /* \"#utility.yul\":1534:1543   */\n  mload\n    /* \"#utility.yul\":1524:1543   */\n  swap1\n  pop\n    /* \"#utility.yul\":1474:1549   */\n  swap1\n  jump\t// out\n    /* \"#utility.yul\":1555:1863   */\ntag_28:\n    /* \"#utility.yul\":1617:1621   */\n  0x00\n    /* \"#utility.yul\":1707:1725   */\n  0xffffffffffffffff\n    /* \"#utility.yul\":1699:1705   */\n  dup3\n    /* \"#utility.yul\":1696:1726   */\n  gt\n    /* \"#utility.yul\":1693:1749   */\n  iszero\n  tag_56\n  jumpi\n    /* \"#utility.yul\":1729:1747   */\n  tag_57\n  tag_58\n  jump\t// in\ntag_57:\n    /* \"#utility.yul\":1693:1749   */\ntag_56:\n    /* \"#utility.yul\":1767:1796   */\n  tag_59\n    /* \"#utility.yul\":1789:1795   */\n  dup3\n    /* \"#utility.yul\":1767:1796   */\n  tag_60\n  jump\t// in\ntag_59:\n    /* \"#utility.yul\":1759:1796   */\n  swap1\n  pop\n    /* \"#utility.yul\":1851:1855   */\n  0x20\n    /* \"#utility.yul\":1845:1849   */\n  dup2\n    /* \"#utility.yul\":1841:1856   */\n  add\n    /* \"#utility.yul\":1833:1856   */\n  swap1\n  pop\n    /* \"#utility.yul\":1555:1863   */\n  swap2\n  swap1\n  pop\n  jump\t// out\n    /* \"#utility.yul\":1869:2176   */\ntag_34:\n    /* \"#utility.yul\":1937:1938   */\n  0x00\n    /* \"#utility.yul\":1947:2060   */\ntag_62:\n    /* \"#utility.yul\":1961:1967   */\n  dup4\n    /* \"#utility.yul\":1958:1959   */\n  dup2\n    /* \"#utility.yul\":1955:1968   */\n  lt\n    /* \"#utility.yul\":1947:2060   */\n  iszero\n  tag_64\n  jumpi\n    /* \"#utility.yul\":2046:2047   */\n  dup1\n    /* \"#utility.yul\":2041:2044   */\n  dup3\n    /* \"#utility.yul\":2037:2048   */\n  add\n    /* \"#utility.yul\":2031:2049   */\n  mload\n    /* \"#utility.yul\":2027:2028   */\n  dup2\n    /* \"#utility.yul\":2022:2025   */\n  dup5\n    /* \"#utility.yul\":2018:2029   */\n  add\n    /* \"#utility.yul\":2011:2050   */\n  mstore\n    /* \"#utility.yul\":1983:1985   */\n  0x20\n    /* \"#utility.yul\":1980:1981   */\n  dup2\n    /* \"#utility.yul\":1976:1986   */\n  add\n    /* \"#utility.yul\":1971:1986   */\n  swap1\n  pop\n    /* \"#utility.yul\":1947:2060   */\n  jump(tag_62)\ntag_64:\n    /* \"#utility.yul\":2078:2084   */\n  dup4\n    /* \"#utility.yul\":2075:2076   */\n  dup2\n    /* \"#utility.yul\":2072:2085   */\n  gt\n    /* \"#utility.yul\":2069:2170   */\n  iszero\n  tag_65\n  jumpi\n    /* \"#utility.yul\":2158:2159   */\n  0x00\n    /* \"#utility.yul\":2149:2155   */\n  dup5\n    /* \"#utility.yul\":2144:2147   */\n  dup5\n    /* \"#utility.yul\":2140:2156   */\n  add\n    /* \"#utility.yul\":2133:2160   */\n  mstore\n    /* \"#utility.yul\":2069:2170   */\ntag_65:\n    /* \"#utility.yul\":1918:2176   */\n  pop\n    /* \"#utility.yul\":1869:2176   */\n  pop\n  pop\n  pop\n  jump\t// out\n    /* \"#utility.yul\":2182:2502   */\ntag_13:\n    /* \"#utility.yul\":2226:2232   */\n  0x00\n    /* \"#utility.yul\":2263:2264   */\n  0x02\n    /* \"#utility.yul\":2257:2261   */\n  dup3\n    /* \"#utility.yul\":2253:2265   */\n  div\n    /* \"#utility.yul\":2243:2265   */\n  swap1\n  pop\n    /* \"#utility.yul\":2310:2311   */\n  0x01\n    /* \"#utility.yul\":2304:2308   */\n  dup3\n    /* \"#utility.yul\":2300:2312   */\n  and\n    /* \"#utility.yul\":2331:2349   */\n  dup1\n    /* \"#utility.yul\":2321:2402   */\n  tag_67\n  jumpi\n    /* \"#utility.yul\":2387:2391   */\n  0x7f\n    /* \"#utility.yul\":2379:2385   */\n  dup3\n    /* \"#utility.yul\":2375:2392   */\n  and\n    /* \"#utility.yul\":2365:2392   */\n  swap2\n  pop\n    /* \"#utility.yul\":2321:2402   */\ntag_67:\n    /* \"#utility.yul\":2449:2451   */\n  0x20\n    /* \"#utility.yul\":2441:2447   */\n  dup3\n    /* \"#utility.yul\":2438:2452   */\n  lt\n    /* \"#utility.yul\":2418:2436   */\n  dup2\n    /* \"#utility.yul\":2415:2453   */\n  eq\n    /* \"#utility.yul\":2412:2496   */\n  iszero\n  tag_68\n  jumpi\n    /* \"#utility.yul\":2468:2486   */\n  tag_69\n  tag_70\n  jump\t// in\ntag_69:\n    /* \"#utility.yul\":2412:2496   */\ntag_68:\n    /* \"#utility.yul\":2233:2502   */\n  pop\n    /* \"#utility.yul\":2182:2502   */\n  swap2\n  swap1\n  pop\n  jump\t// out\n    /* \"#utility.yul\":2508:2789   */\ntag_53:\n    /* \"#utility.yul\":2591:2618   */\n  tag_72\n    /* \"#utility.yul\":2613:2617   */\n  dup3\n    /* \"#utility.yul\":2591:2618   */\n  tag_60\n  jump\t// in\ntag_72:\n    /* \"#utility.yul\":2583:2589   */\n  dup2\n    /* \"#utility.yul\":2579:2619   */\n  add\n    /* \"#utility.yul\":2721:2727   */\n  dup2\n    /* \"#utility.yul\":2709:2719   */\n  dup2\n    /* \"#utility.yul\":2706:2728   */\n  lt\n    /* \"#utility.yul\":2685:2703   */\n  0xffffffffffffffff\n    /* \"#utility.yul\":2673:2683   */\n  dup3\n    /* \"#utility.yul\":2670:2704   */\n  gt\n    /* \"#utility.yul\":2667:2729   */\n  or\n    /* \"#utility.yul\":2664:2752   */\n  iszero\n  tag_73\n  jumpi\n    /* \"#utility.yul\":2732:2750   */\n  tag_74\n  tag_58\n  jump\t// in\ntag_74:\n    /* \"#utility.yul\":2664:2752   */\ntag_73:\n    /* \"#utility.yul\":2772:2782   */\n  dup1\n    /* \"#utility.yul\":2768:2770   */\n  0x40\n    /* \"#utility.yul\":2761:2783   */\n  mstore\n    /* \"#utility.yul\":2551:2789   */\n  pop\n    /* \"#utility.yul\":2508:2789   */\n  pop\n  pop\n  jump\t// out\n    /* \"#utility.yul\":2795:2975   */\ntag_10:\n    /* \"#utility.yul\":2843:2920   */\n  0x4e487b7100000000000000000000000000000000000000000000000000000000\n    /* \"#utility.yul\":2840:2841   */\n  0x00\n    /* \"#utility.yul\":2833:2921   */\n  mstore\n    /* \"#utility.yul\":2940:2944   */\n  0x21\n    /* \"#utility.yul\":2937:2938   */\n  0x04\n    /* \"#utility.yul\":2930:2945   */\n  mstore\n    /* \"#utility.yul\":2964:2968   */\n  0x24\n    /* \"#utility.yul\":2961:2962   */\n  0x00\n    /* \"#utility.yul\":2954:2969   */\n  revert\n    /* \"#utility.yul\":2981:3161   */\ntag_70:\n    /* \"#utility.yul\":3029:3106   */\n  0x4e487b7100000000000000000000000000000000000000000000000000000000\n    /* \"#utility.yul\":3026:3027   */\n  0x00\n    /* \"#utility.yul\":3019:3107   */\n  mstore\n    /* \"#utility.yul\":3126:3130   */\n  0x22\n    /* \"#utility.yul\":3123:3124   */\n  0x04\n    /* \"#utility.yul\":3116:3131   */\n  mstore\n    /* \"#utility.yul\":3150:3154   */\n  0x24\n    /* \"#utility.yul\":3147:3148   */\n  0x00\n    /* \"#utility.yul\":3140:3155   */\n  revert\n    /* \"#utility.yul\":3167:3347   */\ntag_58:\n    /* \"#utility.yul\":3215:3292   */\n  0x4e487b7100000000000000000000000000000000000000000000000000000000\n    /* \"#utility.yul\":3212:3213   */\n  0x00\n    /* \"#utility.yul\":3205:3293   */\n  mstore\n    /* \"#utility.yul\":3312:3316   */\n  0x41\n    /* \"#utility.yul\":3309:3310   */\n  0x04\n    /* \"#utility.yul\":3302:3317   */\n  mstore\n    /* \"#utility.yul\":3336:3340   */\n  0x24\n    /* \"#utility.yul\":3333:3334   */\n  0x00\n    /* \"#utility.yul\":3326:3341   */\n  revert\n    /* \"#utility.yul\":3353:3470   */\ntag_39:\n    /* \"#utility.yul\":3462:3463   */\n  0x00\n    /* \"#utility.yul\":3459:3460   */\n  dup1\n    /* \"#utility.yul\":3452:3464   */\n  revert\n    /* \"#utility.yul\":3476:3593   */\ntag_32:\n    /* \"#utility.yul\":3585:3586   */\n  0x00\n    /* \"#utility.yul\":3582:3583   */\n  dup1\n    /* \"#utility.yul\":3575:3587   */\n  revert\n    /* \"#utility.yul\":3599:3716   */\ntag_47:\n    /* \"#utility.yul\":3708:3709   */\n  0x00\n    /* \"#utility.yul\":3705:3706   */\n  dup1\n    /* \"#utility.yul\":3698:3710   */\n  revert\n    /* \"#utility.yul\":3722:3839   */\ntag_44:\n    /* \"#utility.yul\":3831:3832   */\n  0x00\n    /* \"#utility.yul\":3828:3829   */\n  dup1\n    /* \"#utility.yul\":3821:3833   */\n  revert\n    /* \"#utility.yul\":3845:3947   */\ntag_60:\n    /* \"#utility.yul\":3886:3892   */\n  0x00\n    /* \"#utility.yul\":3937:3939   */\n  0x1f\n    /* \"#utility.yul\":3933:3940   */\n  not\n    /* \"#utility.yul\":3928:3930   */\n  0x1f\n    /* \"#utility.yul\":3921:3926   */\n  dup4\n    /* \"#utility.yul\":3917:3931   */\n  add\n    /* \"#utility.yul\":3913:3941   */\n  and\n    /* \"#utility.yul\":3903:3941   */\n  swap1\n  pop\n    /* \"#utility.yul\":3845:3947   */\n  swap2\n  swap1\n  pop\n  jump\t// out\n    /* \"Voting/contracts/Voting.sol\":62:2763  contract Voting {\r... */\ntag_11:\n  dataSize(sub_0)\n  dup1\n  dataOffset(sub_0)\n  0x00\n  codecopy\n  0x00\n  return\nstop\n\nsub_0: assembly {\n        /* \"Voting/contracts/Voting.sol\":62:2763  contract Voting {\r... */\n      mstore(0x40, 0x80)\n      callvalue\n      dup1\n      iszero\n      tag_1\n      jumpi\n      0x00\n      dup1\n      revert\n    tag_1:\n      pop\n      jumpi(tag_2, lt(calldatasize, 0x04))\n      shr(0xe0, calldataload(0x00))\n      dup1\n      0x62c49251\n      gt\n      tag_18\n      jumpi\n      dup1\n      0xc19d93fb\n      gt\n      tag_19\n      jumpi\n      dup1\n      0xc19d93fb\n      eq\n      tag_14\n      jumpi\n      dup1\n      0xd82d4eb9\n      eq\n      tag_15\n      jumpi\n      dup1\n      0xd9e95a98\n      eq\n      tag_16\n      jumpi\n      dup1\n      0xf276669d\n      eq\n      tag_17\n      jumpi\n      jump(tag_2)\n    tag_19:\n      dup1\n      0x62c49251\n      eq\n      tag_10\n      jumpi\n      dup1\n      0x72753be5\n      eq\n      tag_11\n      jumpi\n      dup1\n      0x80843e25\n      eq\n      tag_12\n      jumpi\n      dup1\n      0x8949e009\n      eq\n      tag_13\n      jumpi\n      jump(tag_2)\n    tag_18:\n      dup1\n      0x12c06342\n      gt\n      tag_20\n      jumpi\n      dup1\n      0x12c06342\n      eq\n      tag_6\n      jumpi\n      dup1\n      0x2d35a8a2\n      eq\n      tag_7\n      jumpi\n      dup1\n      0x46702b16\n      eq\n      tag_8\n      jumpi\n      dup1\n      0x5f5300ff\n      eq\n      tag_9\n      jumpi\n      jump(tag_2)\n    tag_20:\n      dup1\n      0x03a0d535\n      eq\n      tag_3\n      jumpi\n      dup1\n      0x06a49fce\n      eq\n      tag_4\n      jumpi\n      dup1\n      0x0d15fd77\n      eq\n      tag_5\n      jumpi\n    tag_2:\n      0x00\n      dup1\n      revert\n        /* \"Voting/contracts/Voting.sol\":579:622  mapping (uint256 => Voter) public VoterList */\n    tag_3:\n      tag_21\n      0x04\n      dup1\n      calldatasize\n      sub\n      dup2\n      add\n      swap1\n      tag_22\n      swap2\n      swap1\n      tag_23\n      jump\t// in\n    tag_22:\n      tag_24\n      jump\t// in\n    tag_21:\n      mload(0x40)\n      tag_25\n      swap4\n      swap3\n      swap2\n      swap1\n      tag_26\n      jump\t// in\n    tag_25:\n      mload(0x40)\n      dup1\n      swap2\n      sub\n      swap1\n      return\n        /* \"Voting/contracts/Voting.sol\":1682:2002  function getCandidates() public view returns (Candidate[] memory){\r... */\n    tag_4:\n      tag_27\n      tag_28\n      jump\t// in\n    tag_27:\n      mload(0x40)\n      tag_29\n      swap2\n      swap1\n      tag_30\n      jump\t// in\n    tag_29:\n      mload(0x40)\n      dup1\n      swap2\n      sub\n      swap1\n      return\n        /* \"Voting/contracts/Voting.sol\":826:851  uint256 public totalVotes */\n    tag_5:\n      tag_31\n      tag_32\n      jump\t// in\n    tag_31:\n      mload(0x40)\n      tag_33\n      swap2\n      swap1\n      tag_34\n      jump\t// in\n    tag_33:\n      mload(0x40)\n      dup1\n      swap2\n      sub\n      swap1\n      return\n        /* \"Voting/contracts/Voting.sol\":432:480  mapping (address => Voter) public AddressToVoter */\n    tag_6:\n      tag_35\n      0x04\n      dup1\n      calldatasize\n      sub\n      dup2\n      add\n      swap1\n      tag_36\n      swap2\n      swap1\n      tag_37\n      jump\t// in\n    tag_36:\n      tag_38\n      jump\t// in\n    tag_35:\n      mload(0x40)\n      tag_39\n      swap4\n      swap3\n      swap2\n      swap1\n      tag_26\n      jump\t// in\n    tag_39:\n      mload(0x40)\n      dup1\n      swap2\n      sub\n      swap1\n      return\n        /* \"Voting/contracts/Voting.sol\":752:782  uint256 public candidatesCount */\n    tag_7:\n      tag_40\n      tag_41\n      jump\t// in\n    tag_40:\n      mload(0x40)\n      tag_42\n      swap2\n      swap1\n      tag_34\n      jump\t// in\n    tag_42:\n      mload(0x40)\n      dup1\n      swap2\n      sub\n      swap1\n      return\n        /* \"Voting/contracts/Voting.sol\":687:741  mapping (string => Candidate) public SymbolToCandidate */\n    tag_8:\n      tag_43\n      0x04\n      dup1\n      calldatasize\n      sub\n      dup2\n      add\n      swap1\n      tag_44\n      swap2\n      swap1\n      tag_45\n      jump\t// in\n    tag_44:\n      tag_46\n      jump\t// in\n    tag_43:\n      mload(0x40)\n      tag_47\n      swap5\n      swap4\n      swap3\n      swap2\n      swap1\n      tag_48\n      jump\t// in\n    tag_47:\n      mload(0x40)\n      dup1\n      swap2\n      sub\n      swap1\n      return\n        /* \"Voting/contracts/Voting.sol\":793:819  uint256 public totalVoters */\n    tag_9:\n      tag_49\n      tag_50\n      jump\t// in\n    tag_49:\n      mload(0x40)\n      tag_51\n      swap2\n      swap1\n      tag_34\n      jump\t// in\n    tag_51:\n      mload(0x40)\n      dup1\n      swap2\n      sub\n      swap1\n      return\n        /* \"Voting/contracts/Voting.sol\":1185:1672  function addCandidates(address _candidateAddress, string memory _candidateName, string memory _symbol) public InState(State.Created) OfficialOnly{\r... */\n    tag_10:\n      tag_52\n      0x04\n      dup1\n      calldatasize\n      sub\n      dup2\n      add\n      swap1\n      tag_53\n      swap2\n      swap1\n      tag_54\n      jump\t// in\n    tag_53:\n      tag_55\n      jump\t// in\n    tag_52:\n      stop\n        /* \"Voting/contracts/Voting.sol\":629:680  mapping (uint256 => Candidate) public CandidateList */\n    tag_11:\n      tag_56\n      0x04\n      dup1\n      calldatasize\n      sub\n      dup2\n      add\n      swap1\n      tag_57\n      swap2\n      swap1\n      tag_23\n      jump\t// in\n    tag_57:\n      tag_58\n      jump\t// in\n    tag_56:\n      mload(0x40)\n      tag_59\n      swap5\n      swap4\n      swap3\n      swap2\n      swap1\n      tag_48\n      jump\t// in\n    tag_59:\n      mload(0x40)\n      dup1\n      swap2\n      sub\n      swap1\n      return\n        /* \"Voting/contracts/Voting.sol\":974:1001  string public  ElectionName */\n    tag_12:\n      tag_60\n      tag_61\n      jump\t// in\n    tag_60:\n      mload(0x40)\n      tag_62\n      swap2\n      swap1\n      tag_63\n      jump\t// in\n    tag_62:\n      mload(0x40)\n      dup1\n      swap2\n      sub\n      swap1\n      return\n        /* \"Voting/contracts/Voting.sol\":930:961  address public OragnizerAddress */\n    tag_13:\n      tag_64\n      tag_65\n      jump\t// in\n    tag_64:\n      mload(0x40)\n      tag_66\n      swap2\n      swap1\n      tag_67\n      jump\t// in\n    tag_66:\n      mload(0x40)\n      dup1\n      swap2\n      sub\n      swap1\n      return\n        /* \"Voting/contracts/Voting.sol\":903:921  State public state */\n    tag_14:\n      tag_68\n      tag_69\n      jump\t// in\n    tag_68:\n      mload(0x40)\n      tag_70\n      swap2\n      swap1\n      tag_71\n      jump\t// in\n    tag_70:\n      mload(0x40)\n      dup1\n      swap2\n      sub\n      swap1\n      return\n        /* \"Voting/contracts/Voting.sol\":525:570  mapping (address => uint256) public VoteCount */\n    tag_15:\n      tag_72\n      0x04\n      dup1\n      calldatasize\n      sub\n      dup2\n      add\n      swap1\n      tag_73\n      swap2\n      swap1\n      tag_37\n      jump\t// in\n    tag_73:\n      tag_74\n      jump\t// in\n    tag_72:\n      mload(0x40)\n      tag_75\n      swap2\n      swap1\n      tag_34\n      jump\t// in\n    tag_75:\n      mload(0x40)\n      dup1\n      swap2\n      sub\n      swap1\n      return\n        /* \"Voting/contracts/Voting.sol\":2154:2552  function addVoter(address _voterAddress, string memory _voterName) public InState(State.Created) OfficialOnly {\r... */\n    tag_16:\n      tag_76\n      0x04\n      dup1\n      calldatasize\n      sub\n      dup2\n      add\n      swap1\n      tag_77\n      swap2\n      swap1\n      tag_78\n      jump\t// in\n    tag_77:\n      tag_79\n      jump\t// in\n    tag_76:\n      stop\n        /* \"Voting/contracts/Voting.sol\":2012:2146  function getCandidate(string memory _symbol) public view returns(Candidate memory){\r... */\n    tag_17:\n      tag_80\n      0x04\n      dup1\n      calldatasize\n      sub\n      dup2\n      add\n      swap1\n      tag_81\n      swap2\n      swap1\n      tag_45\n      jump\t// in\n    tag_81:\n      tag_82\n      jump\t// in\n    tag_80:\n      mload(0x40)\n      tag_83\n      swap2\n      swap1\n      tag_84\n      jump\t// in\n    tag_83:\n      mload(0x40)\n      dup1\n      swap2\n      sub\n      swap1\n      return\n        /* \"Voting/contracts/Voting.sol\":579:622  mapping (uint256 => Voter) public VoterList */\n    tag_24:\n      mstore(0x20, 0x03)\n      dup1\n      0x00\n      mstore\n      keccak256(0x00, 0x40)\n      0x00\n      swap2\n      pop\n      swap1\n      pop\n      dup1\n      0x00\n      add\n      dup1\n      sload\n      tag_85\n      swap1\n      tag_86\n      jump\t// in\n    tag_85:\n      dup1\n      0x1f\n      add\n      0x20\n      dup1\n      swap2\n      div\n      mul\n      0x20\n      add\n      mload(0x40)\n      swap1\n      dup2\n      add\n      0x40\n      mstore\n      dup1\n      swap3\n      swap2\n      swap1\n      dup2\n      dup2\n      mstore\n      0x20\n      add\n      dup3\n      dup1\n      sload\n      tag_87\n      swap1\n      tag_86\n      jump\t// in\n    tag_87:\n      dup1\n      iszero\n      tag_88\n      jumpi\n      dup1\n      0x1f\n      lt\n      tag_89\n      jumpi\n      0x0100\n      dup1\n      dup4\n      sload\n      div\n      mul\n      dup4\n      mstore\n      swap2\n      0x20\n      add\n      swap2\n      jump(tag_88)\n    tag_89:\n      dup3\n      add\n      swap2\n      swap1\n      0x00\n      mstore\n      keccak256(0x00, 0x20)\n      swap1\n    tag_90:\n      dup2\n      sload\n      dup2\n      mstore\n      swap1\n      0x01\n      add\n      swap1\n      0x20\n      add\n      dup1\n      dup4\n      gt\n      tag_90\n      jumpi\n      dup3\n      swap1\n      sub\n      0x1f\n      and\n      dup3\n      add\n      swap2\n    tag_88:\n      pop\n      pop\n      pop\n      pop\n      pop\n      swap1\n      dup1\n      0x01\n      add\n      0x00\n      swap1\n      sload\n      swap1\n      0x0100\n      exp\n      swap1\n      div\n      0xffffffffffffffffffffffffffffffffffffffff\n      and\n      swap1\n      dup1\n      0x01\n      add\n      0x14\n      swap1\n      sload\n      swap1\n      0x0100\n      exp\n      swap1\n      div\n      0xff\n      and\n      swap1\n      pop\n      dup4\n      jump\t// out\n        /* \"Voting/contracts/Voting.sol\":1682:2002  function getCandidates() public view returns (Candidate[] memory){\r... */\n    tag_28:\n        /* \"Voting/contracts/Voting.sol\":1728:1746  Candidate[] memory */\n      0x60\n        /* \"Voting/contracts/Voting.sol\":1756:1781  Candidate[] memory trrips */\n      0x00\n        /* \"Voting/contracts/Voting.sol\":1800:1815  candidatesCount */\n      sload(0x06)\n        /* \"Voting/contracts/Voting.sol\":1784:1816  new Candidate[](candidatesCount) */\n      0xffffffffffffffff\n      dup2\n      gt\n      iszero\n      tag_92\n      jumpi\n      tag_93\n      tag_94\n      jump\t// in\n    tag_93:\n    tag_92:\n      mload(0x40)\n      swap1\n      dup1\n      dup3\n      mstore\n      dup1\n      0x20\n      mul\n      0x20\n      add\n      dup3\n      add\n      0x40\n      mstore\n      dup1\n      iszero\n      tag_95\n      jumpi\n      dup2\n      0x20\n      add\n    tag_96:\n      tag_97\n      tag_98\n      jump\t// in\n    tag_97:\n      dup2\n      mstore\n      0x20\n      add\n      swap1\n      0x01\n      swap1\n      sub\n      swap1\n      dup2\n      tag_96\n      jumpi\n      swap1\n      pop\n    tag_95:\n      pop\n        /* \"Voting/contracts/Voting.sol\":1756:1816  Candidate[] memory trrips = new Candidate[](candidatesCount) */\n      swap1\n      pop\n        /* \"Voting/contracts/Voting.sol\":1830:1836  uint i */\n      0x00\n        /* \"Voting/contracts/Voting.sol\":1825:1971  for (uint i = 0; i < candidatesCount; i++) {\r... */\n    tag_99:\n        /* \"Voting/contracts/Voting.sol\":1846:1861  candidatesCount */\n      sload(0x06)\n        /* \"Voting/contracts/Voting.sol\":1842:1843  i */\n      dup2\n        /* \"Voting/contracts/Voting.sol\":1842:1861  i < candidatesCount */\n      lt\n        /* \"Voting/contracts/Voting.sol\":1825:1971  for (uint i = 0; i < candidatesCount; i++) {\r... */\n      iszero\n      tag_100\n      jumpi\n        /* \"Voting/contracts/Voting.sol\":1881:1908  Candidate storage candidate */\n      0x00\n        /* \"Voting/contracts/Voting.sol\":1911:1924  CandidateList */\n      0x04\n        /* \"Voting/contracts/Voting.sol\":1911:1927  CandidateList[i] */\n      0x00\n        /* \"Voting/contracts/Voting.sol\":1925:1926  i */\n      dup4\n        /* \"Voting/contracts/Voting.sol\":1911:1927  CandidateList[i] */\n      dup2\n      mstore\n      0x20\n      add\n      swap1\n      dup2\n      mstore\n      0x20\n      add\n      0x00\n      keccak256\n        /* \"Voting/contracts/Voting.sol\":1881:1927  Candidate storage candidate = CandidateList[i] */\n      swap1\n      pop\n        /* \"Voting/contracts/Voting.sol\":1952:1961  candidate */\n      dup1\n        /* \"Voting/contracts/Voting.sol\":1940:1961  trrips[i] = candidate */\n      mload(0x40)\n      dup1\n      0x80\n      add\n      0x40\n      mstore\n      swap1\n      dup2\n      0x00\n      dup3\n      add\n      dup1\n      sload\n      tag_102\n      swap1\n      tag_86\n      jump\t// in\n    tag_102:\n      dup1\n      0x1f\n      add\n      0x20\n      dup1\n      swap2\n      div\n      mul\n      0x20\n      add\n      mload(0x40)\n      swap1\n      dup2\n      add\n      0x40\n      mstore\n      dup1\n      swap3\n      swap2\n      swap1\n      dup2\n      dup2\n      mstore\n      0x20\n      add\n      dup3\n      dup1\n      sload\n      tag_103\n      swap1\n      tag_86\n      jump\t// in\n    tag_103:\n      dup1\n      iszero\n      tag_104\n      jumpi\n      dup1\n      0x1f\n      lt\n      tag_105\n      jumpi\n      0x0100\n      dup1\n      dup4\n      sload\n      div\n      mul\n      dup4\n      mstore\n      swap2\n      0x20\n      add\n      swap2\n      jump(tag_104)\n    tag_105:\n      dup3\n      add\n      swap2\n      swap1\n      0x00\n      mstore\n      keccak256(0x00, 0x20)\n      swap1\n    tag_106:\n      dup2\n      sload\n      dup2\n      mstore\n      swap1\n      0x01\n      add\n      swap1\n      0x20\n      add\n      dup1\n      dup4\n      gt\n      tag_106\n      jumpi\n      dup3\n      swap1\n      sub\n      0x1f\n      and\n      dup3\n      add\n      swap2\n    tag_104:\n      pop\n      pop\n      pop\n      pop\n      pop\n      dup2\n      mstore\n      0x20\n      add\n      0x01\n      dup3\n      add\n      0x00\n      swap1\n      sload\n      swap1\n      0x0100\n      exp\n      swap1\n      div\n      0xffffffffffffffffffffffffffffffffffffffff\n      and\n      0xffffffffffffffffffffffffffffffffffffffff\n      and\n      0xffffffffffffffffffffffffffffffffffffffff\n      and\n      dup2\n      mstore\n      0x20\n      add\n      0x02\n      dup3\n      add\n      sload\n      dup2\n      mstore\n      0x20\n      add\n      0x03\n      dup3\n      add\n      dup1\n      sload\n      tag_107\n      swap1\n      tag_86\n      jump\t// in\n    tag_107:\n      dup1\n      0x1f\n      add\n      0x20\n      dup1\n      swap2\n      div\n      mul\n      0x20\n      add\n      mload(0x40)\n      swap1\n      dup2\n      add\n      0x40\n      mstore\n      dup1\n      swap3\n      swap2\n      swap1\n      dup2\n      dup2\n      mstore\n      0x20\n      add\n      dup3\n      dup1\n      sload\n      tag_108\n      swap1\n      tag_86\n      jump\t// in\n    tag_108:\n      dup1\n      iszero\n      tag_109\n      jumpi\n      dup1\n      0x1f\n      lt\n      tag_110\n      jumpi\n      0x0100\n      dup1\n      dup4\n      sload\n      div\n      mul\n      dup4\n      mstore\n      swap2\n      0x20\n      add\n      swap2\n      jump(tag_109)\n    tag_110:\n      dup3\n      add\n      swap2\n      swap1\n      0x00\n      mstore\n      keccak256(0x00, 0x20)\n      swap1\n    tag_111:\n      dup2\n      sload\n      dup2\n      mstore\n      swap1\n      0x01\n      add\n      swap1\n      0x20\n      add\n      dup1\n      dup4\n      gt\n      tag_111\n      jumpi\n      dup3\n      swap1\n      sub\n      0x1f\n      and\n      dup3\n      add\n      swap2\n    tag_109:\n      pop\n      pop\n      pop\n      pop\n      pop\n      dup2\n      mstore\n      pop\n      pop\n        /* \"Voting/contracts/Voting.sol\":1940:1946  trrips */\n      dup4\n        /* \"Voting/contracts/Voting.sol\":1947:1948  i */\n      dup4\n        /* \"Voting/contracts/Voting.sol\":1940:1949  trrips[i] */\n      dup2\n      mload\n      dup2\n      lt\n      tag_112\n      jumpi\n      tag_113\n      tag_114\n      jump\t// in\n    tag_113:\n    tag_112:\n      0x20\n      mul\n      0x20\n      add\n      add\n        /* \"Voting/contracts/Voting.sol\":1940:1961  trrips[i] = candidate */\n      dup2\n      swap1\n      mstore\n      pop\n        /* \"Voting/contracts/Voting.sol\":1868:1971  {\r... */\n      pop\n        /* \"Voting/contracts/Voting.sol\":1863:1866  i++ */\n      dup1\n      dup1\n      tag_115\n      swap1\n      tag_116\n      jump\t// in\n    tag_115:\n      swap2\n      pop\n      pop\n        /* \"Voting/contracts/Voting.sol\":1825:1971  for (uint i = 0; i < candidatesCount; i++) {\r... */\n      jump(tag_99)\n    tag_100:\n      pop\n        /* \"Voting/contracts/Voting.sol\":1986:1992  trrips */\n      dup1\n        /* \"Voting/contracts/Voting.sol\":1979:1992  return trrips */\n      swap2\n      pop\n      pop\n        /* \"Voting/contracts/Voting.sol\":1682:2002  function getCandidates() public view returns (Candidate[] memory){\r... */\n      swap1\n      jump\t// out\n        /* \"Voting/contracts/Voting.sol\":826:851  uint256 public totalVotes */\n    tag_32:\n      sload(0x08)\n      dup2\n      jump\t// out\n        /* \"Voting/contracts/Voting.sol\":432:480  mapping (address => Voter) public AddressToVoter */\n    tag_38:\n      mstore(0x20, 0x00)\n      dup1\n      0x00\n      mstore\n      keccak256(0x00, 0x40)\n      0x00\n      swap2\n      pop\n      swap1\n      pop\n      dup1\n      0x00\n      add\n      dup1\n      sload\n      tag_117\n      swap1\n      tag_86\n      jump\t// in\n    tag_117:\n      dup1\n      0x1f\n      add\n      0x20\n      dup1\n      swap2\n      div\n      mul\n      0x20\n      add\n      mload(0x40)\n      swap1\n      dup2\n      add\n      0x40\n      mstore\n      dup1\n      swap3\n      swap2\n      swap1\n      dup2\n      dup2\n      mstore\n      0x20\n      add\n      dup3\n      dup1\n      sload\n      tag_118\n      swap1\n      tag_86\n      jump\t// in\n    tag_118:\n      dup1\n      iszero\n      tag_119\n      jumpi\n      dup1\n      0x1f\n      lt\n      tag_120\n      jumpi\n      0x0100\n      dup1\n      dup4\n      sload\n      div\n      mul\n      dup4\n      mstore\n      swap2\n      0x20\n      add\n      swap2\n      jump(tag_119)\n    tag_120:\n      dup3\n      add\n      swap2\n      swap1\n      0x00\n      mstore\n      keccak256(0x00, 0x20)\n      swap1\n    tag_121:\n      dup2\n      sload\n      dup2\n      mstore\n      swap1\n      0x01\n      add\n      swap1\n      0x20\n      add\n      dup1\n      dup4\n      gt\n      tag_121\n      jumpi\n      dup3\n      swap1\n      sub\n      0x1f\n      and\n      dup3\n      add\n      swap2\n    tag_119:\n      pop\n      pop\n      pop\n      pop\n      pop\n      swap1\n      dup1\n      0x01\n      add\n      0x00\n      swap1\n      sload\n      swap1\n      0x0100\n      exp\n      swap1\n      div\n      0xffffffffffffffffffffffffffffffffffffffff\n      and\n      swap1\n      dup1\n      0x01\n      add\n      0x14\n      swap1\n      sload\n      swap1\n      0x0100\n      exp\n      swap1\n      div\n      0xff\n      and\n      swap1\n      pop\n      dup4\n      jump\t// out\n        /* \"Voting/contracts/Voting.sol\":752:782  uint256 public candidatesCount */\n    tag_41:\n      sload(0x06)\n      dup2\n      jump\t// out\n        /* \"Voting/contracts/Voting.sol\":687:741  mapping (string => Candidate) public SymbolToCandidate */\n    tag_46:\n      0x05\n      dup2\n      dup1\n      mload\n      0x20\n      dup2\n      add\n      dup3\n      add\n      dup1\n      mload\n      dup5\n      dup3\n      mstore\n      0x20\n      dup4\n      add\n      0x20\n      dup6\n      add\n      keccak256\n      dup2\n      dup4\n      mstore\n      dup1\n      swap6\n      pop\n      pop\n      pop\n      pop\n      pop\n      pop\n      0x00\n      swap2\n      pop\n      swap1\n      pop\n      dup1\n      0x00\n      add\n      dup1\n      sload\n      tag_122\n      swap1\n      tag_86\n      jump\t// in\n    tag_122:\n      dup1\n      0x1f\n      add\n      0x20\n      dup1\n      swap2\n      div\n      mul\n      0x20\n      add\n      mload(0x40)\n      swap1\n      dup2\n      add\n      0x40\n      mstore\n      dup1\n      swap3\n      swap2\n      swap1\n      dup2\n      dup2\n      mstore\n      0x20\n      add\n      dup3\n      dup1\n      sload\n      tag_123\n      swap1\n      tag_86\n      jump\t// in\n    tag_123:\n      dup1\n      iszero\n      tag_124\n      jumpi\n      dup1\n      0x1f\n      lt\n      tag_125\n      jumpi\n      0x0100\n      dup1\n      dup4\n      sload\n      div\n      mul\n      dup4\n      mstore\n      swap2\n      0x20\n      add\n      swap2\n      jump(tag_124)\n    tag_125:\n      dup3\n      add\n      swap2\n      swap1\n      0x00\n      mstore\n      keccak256(0x00, 0x20)\n      swap1\n    tag_126:\n      dup2\n      sload\n      dup2\n      mstore\n      swap1\n      0x01\n      add\n      swap1\n      0x20\n      add\n      dup1\n      dup4\n      gt\n      tag_126\n      jumpi\n      dup3\n      swap1\n      sub\n      0x1f\n      and\n      dup3\n      add\n      swap2\n    tag_124:\n      pop\n      pop\n      pop\n      pop\n      pop\n      swap1\n      dup1\n      0x01\n      add\n      0x00\n      swap1\n      sload\n      swap1\n      0x0100\n      exp\n      swap1\n      div\n      0xffffffffffffffffffffffffffffffffffffffff\n      and\n      swap1\n      dup1\n      0x02\n      add\n      sload\n      swap1\n      dup1\n      0x03\n      add\n      dup1\n      sload\n      tag_127\n      swap1\n      tag_86\n      jump\t// in\n    tag_127:\n      dup1\n      0x1f\n      add\n      0x20\n      dup1\n      swap2\n      div\n      mul\n      0x20\n      add\n      mload(0x40)\n      swap1\n      dup2\n      add\n      0x40\n      mstore\n      dup1\n      swap3\n      swap2\n      swap1\n      dup2\n      dup2\n      mstore\n      0x20\n      add\n      dup3\n      dup1\n      sload\n      tag_128\n      swap1\n      tag_86\n      jump\t// in\n    tag_128:\n      dup1\n      iszero\n      tag_129\n      jumpi\n      dup1\n      0x1f\n      lt\n      tag_130\n      jumpi\n      0x0100\n      dup1\n      dup4\n      sload\n      div\n      mul\n      dup4\n      mstore\n      swap2\n      0x20\n      add\n      swap2\n      jump(tag_129)\n    tag_130:\n      dup3\n      add\n      swap2\n      swap1\n      0x00\n      mstore\n      keccak256(0x00, 0x20)\n      swap1\n    tag_131:\n      dup2\n      sload\n      dup2\n      mstore\n      swap1\n      0x01\n      add\n      swap1\n      0x20\n      add\n      dup1\n      dup4\n      gt\n      tag_131\n      jumpi\n      dup3\n      swap1\n      sub\n      0x1f\n      and\n      dup3\n      add\n      swap2\n    tag_129:\n      pop\n      pop\n      pop\n      pop\n      pop\n      swap1\n      pop\n      dup5\n      jump\t// out\n        /* \"Voting/contracts/Voting.sol\":793:819  uint256 public totalVoters */\n    tag_50:\n      sload(0x07)\n      dup2\n      jump\t// out\n        /* \"Voting/contracts/Voting.sol\":1185:1672  function addCandidates(address _candidateAddress, string memory _candidateName, string memory _symbol) public InState(State.Created) OfficialOnly{\r... */\n    tag_55:\n        /* \"Voting/contracts/Voting.sol\":1303:1316  State.Created */\n      0x00\n        /* \"Voting/contracts/Voting.sol\":2624:2630  _state */\n      dup1\n        /* \"Voting/contracts/Voting.sol\":2615:2630  state == _state */\n      0x02\n      dup2\n      gt\n      iszero\n      tag_133\n      jumpi\n      tag_134\n      tag_135\n      jump\t// in\n    tag_134:\n    tag_133:\n        /* \"Voting/contracts/Voting.sol\":2615:2620  state */\n      0x09\n      0x00\n      swap1\n      sload\n      swap1\n      0x0100\n      exp\n      swap1\n      div\n      0xff\n      and\n        /* \"Voting/contracts/Voting.sol\":2615:2630  state == _state */\n      0x02\n      dup2\n      gt\n      iszero\n      tag_136\n      jumpi\n      tag_137\n      tag_135\n      jump\t// in\n    tag_137:\n    tag_136:\n      eq\n        /* \"Voting/contracts/Voting.sol\":2607:2631  require(state == _state) */\n      tag_138\n      jumpi\n      0x00\n      dup1\n      revert\n    tag_138:\n        /* \"Voting/contracts/Voting.sol\":2723:2733  msg.sender */\n      caller\n        /* \"Voting/contracts/Voting.sol\":2703:2733  OragnizerAddress == msg.sender */\n      0xffffffffffffffffffffffffffffffffffffffff\n      and\n        /* \"Voting/contracts/Voting.sol\":2703:2719  OragnizerAddress */\n      0x09\n      0x01\n      swap1\n      sload\n      swap1\n      0x0100\n      exp\n      swap1\n      div\n      0xffffffffffffffffffffffffffffffffffffffff\n      and\n        /* \"Voting/contracts/Voting.sol\":2703:2733  OragnizerAddress == msg.sender */\n      0xffffffffffffffffffffffffffffffffffffffff\n      and\n      eq\n        /* \"Voting/contracts/Voting.sol\":2694:2734  require( OragnizerAddress == msg.sender) */\n      tag_140\n      jumpi\n      0x00\n      dup1\n      revert\n    tag_140:\n        /* \"Voting/contracts/Voting.sol\":1341:1367  Candidate memory candidate */\n      tag_142\n      tag_98\n      jump\t// in\n    tag_142:\n        /* \"Voting/contracts/Voting.sol\":1407:1424  _candidateAddress */\n      dup5\n        /* \"Voting/contracts/Voting.sol\":1378:1387  candidate */\n      dup2\n        /* \"Voting/contracts/Voting.sol\":1378:1404  candidate.candidateAddress */\n      0x20\n      add\n        /* \"Voting/contracts/Voting.sol\":1378:1424  candidate.candidateAddress = _candidateAddress */\n      swap1\n      0xffffffffffffffffffffffffffffffffffffffff\n      and\n      swap1\n      dup2\n      0xffffffffffffffffffffffffffffffffffffffff\n      and\n      dup2\n      mstore\n      pop\n      pop\n        /* \"Voting/contracts/Voting.sol\":1461:1475  _candidateName */\n      dup4\n        /* \"Voting/contracts/Voting.sol\":1435:1444  candidate */\n      dup2\n        /* \"Voting/contracts/Voting.sol\":1435:1458  candidate.candidateName */\n      0x00\n      add\n        /* \"Voting/contracts/Voting.sol\":1435:1475  candidate.candidateName = _candidateName */\n      dup2\n      swap1\n      mstore\n      pop\n        /* \"Voting/contracts/Voting.sol\":1505:1512  _symbol */\n      dup3\n        /* \"Voting/contracts/Voting.sol\":1486:1495  candidate */\n      dup2\n        /* \"Voting/contracts/Voting.sol\":1486:1502  candidate.symbol */\n      0x60\n      add\n        /* \"Voting/contracts/Voting.sol\":1486:1512  candidate.symbol = _symbol */\n      dup2\n      swap1\n      mstore\n      pop\n        /* \"Voting/contracts/Voting.sol\":1556:1565  candidate */\n      dup1\n        /* \"Voting/contracts/Voting.sol\":1523:1536  CandidateList */\n      0x04\n        /* \"Voting/contracts/Voting.sol\":1523:1553  CandidateList[candidatesCount] */\n      0x00\n        /* \"Voting/contracts/Voting.sol\":1537:1552  candidatesCount */\n      sload(0x06)\n        /* \"Voting/contracts/Voting.sol\":1523:1553  CandidateList[candidatesCount] */\n      dup2\n      mstore\n      0x20\n      add\n      swap1\n      dup2\n      mstore\n      0x20\n      add\n      0x00\n      keccak256\n        /* \"Voting/contracts/Voting.sol\":1523:1565  CandidateList[candidatesCount] = candidate */\n      0x00\n      dup3\n      add\n      mload\n      dup2\n      0x00\n      add\n      swap1\n      dup1\n      mload\n      swap1\n      0x20\n      add\n      swap1\n      tag_143\n      swap3\n      swap2\n      swap1\n      tag_144\n      jump\t// in\n    tag_143:\n      pop\n      0x20\n      dup3\n      add\n      mload\n      dup2\n      0x01\n      add\n      exp(0x0100, 0x00)\n      dup2\n      sload\n      dup2\n      0xffffffffffffffffffffffffffffffffffffffff\n      mul\n      not\n      and\n      swap1\n      dup4\n      0xffffffffffffffffffffffffffffffffffffffff\n      and\n      mul\n      or\n      swap1\n      sstore\n      pop\n      0x40\n      dup3\n      add\n      mload\n      dup2\n      0x02\n      add\n      sstore\n      0x60\n      dup3\n      add\n      mload\n      dup2\n      0x03\n      add\n      swap1\n      dup1\n      mload\n      swap1\n      0x20\n      add\n      swap1\n      tag_145\n      swap3\n      swap2\n      swap1\n      tag_144\n      jump\t// in\n    tag_145:\n      pop\n      swap1\n      pop\n      pop\n        /* \"Voting/contracts/Voting.sol\":1605:1614  candidate */\n      dup1\n        /* \"Voting/contracts/Voting.sol\":1576:1593  SymbolToCandidate */\n      0x05\n        /* \"Voting/contracts/Voting.sol\":1594:1601  _symbol */\n      dup5\n        /* \"Voting/contracts/Voting.sol\":1576:1602  SymbolToCandidate[_symbol] */\n      mload(0x40)\n      tag_146\n      swap2\n      swap1\n      tag_147\n      jump\t// in\n    tag_146:\n      swap1\n      dup2\n      mstore\n      0x20\n      add\n      mload(0x40)\n      dup1\n      swap2\n      sub\n      swap1\n      keccak256\n        /* \"Voting/contracts/Voting.sol\":1576:1614  SymbolToCandidate[_symbol] = candidate */\n      0x00\n      dup3\n      add\n      mload\n      dup2\n      0x00\n      add\n      swap1\n      dup1\n      mload\n      swap1\n      0x20\n      add\n      swap1\n      tag_148\n      swap3\n      swap2\n      swap1\n      tag_144\n      jump\t// in\n    tag_148:\n      pop\n      0x20\n      dup3\n      add\n      mload\n      dup2\n      0x01\n      add\n      exp(0x0100, 0x00)\n      dup2\n      sload\n      dup2\n      0xffffffffffffffffffffffffffffffffffffffff\n      mul\n      not\n      and\n      swap1\n      dup4\n      0xffffffffffffffffffffffffffffffffffffffff\n      and\n      mul\n      or\n      swap1\n      sstore\n      pop\n      0x40\n      dup3\n      add\n      mload\n      dup2\n      0x02\n      add\n      sstore\n      0x60\n      dup3\n      add\n      mload\n      dup2\n      0x03\n      add\n      swap1\n      dup1\n      mload\n      swap1\n      0x20\n      add\n      swap1\n      tag_149\n      swap3\n      swap2\n      swap1\n      tag_144\n      jump\t// in\n    tag_149:\n      pop\n      swap1\n      pop\n      pop\n        /* \"Voting/contracts/Voting.sol\":1661:1662  1 */\n      0x01\n        /* \"Voting/contracts/Voting.sol\":1643:1658  candidatesCount */\n      sload(0x06)\n        /* \"Voting/contracts/Voting.sol\":1643:1662  candidatesCount + 1 */\n      tag_150\n      swap2\n      swap1\n      tag_151\n      jump\t// in\n    tag_150:\n        /* \"Voting/contracts/Voting.sol\":1625:1640  candidatesCount */\n      0x06\n        /* \"Voting/contracts/Voting.sol\":1625:1662  candidatesCount = candidatesCount + 1 */\n      dup2\n      swap1\n      sstore\n      pop\n        /* \"Voting/contracts/Voting.sol\":1330:1672  {\r... */\n      pop\n        /* \"Voting/contracts/Voting.sol\":1185:1672  function addCandidates(address _candidateAddress, string memory _candidateName, string memory _symbol) public InState(State.Created) OfficialOnly{\r... */\n      pop\n      pop\n      pop\n      pop\n      jump\t// out\n        /* \"Voting/contracts/Voting.sol\":629:680  mapping (uint256 => Candidate) public CandidateList */\n    tag_58:\n      mstore(0x20, 0x04)\n      dup1\n      0x00\n      mstore\n      keccak256(0x00, 0x40)\n      0x00\n      swap2\n      pop\n      swap1\n      pop\n      dup1\n      0x00\n      add\n      dup1\n      sload\n      tag_152\n      swap1\n      tag_86\n      jump\t// in\n    tag_152:\n      dup1\n      0x1f\n      add\n      0x20\n      dup1\n      swap2\n      div\n      mul\n      0x20\n      add\n      mload(0x40)\n      swap1\n      dup2\n      add\n      0x40\n      mstore\n      dup1\n      swap3\n      swap2\n      swap1\n      dup2\n      dup2\n      mstore\n      0x20\n      add\n      dup3\n      dup1\n      sload\n      tag_153\n      swap1\n      tag_86\n      jump\t// in\n    tag_153:\n      dup1\n      iszero\n      tag_154\n      jumpi\n      dup1\n      0x1f\n      lt\n      tag_155\n      jumpi\n      0x0100\n      dup1\n      dup4\n      sload\n      div\n      mul\n      dup4\n      mstore\n      swap2\n      0x20\n      add\n      swap2\n      jump(tag_154)\n    tag_155:\n      dup3\n      add\n      swap2\n      swap1\n      0x00\n      mstore\n      keccak256(0x00, 0x20)\n      swap1\n    tag_156:\n      dup2\n      sload\n      dup2\n      mstore\n      swap1\n      0x01\n      add\n      swap1\n      0x20\n      add\n      dup1\n      dup4\n      gt\n      tag_156\n      jumpi\n      dup3\n      swap1\n      sub\n      0x1f\n      and\n      dup3\n      add\n      swap2\n    tag_154:\n      pop\n      pop\n      pop\n      pop\n      pop\n      swap1\n      dup1\n      0x01\n      add\n      0x00\n      swap1\n      sload\n      swap1\n      0x0100\n      exp\n      swap1\n      div\n      0xffffffffffffffffffffffffffffffffffffffff\n      and\n      swap1\n      dup1\n      0x02\n      add\n      sload\n      swap1\n      dup1\n      0x03\n      add\n      dup1\n      sload\n      tag_157\n      swap1\n      tag_86\n      jump\t// in\n    tag_157:\n      dup1\n      0x1f\n      add\n      0x20\n      dup1\n      swap2\n      div\n      mul\n      0x20\n      add\n      mload(0x40)\n      swap1\n      dup2\n      add\n      0x40\n      mstore\n      dup1\n      swap3\n      swap2\n      swap1\n      dup2\n      dup2\n      mstore\n      0x20\n      add\n      dup3\n      dup1\n      sload\n      tag_158\n      swap1\n      tag_86\n      jump\t// in\n    tag_158:\n      dup1\n      iszero\n      tag_159\n      jumpi\n      dup1\n      0x1f\n      lt\n      tag_160\n      jumpi\n      0x0100\n      dup1\n      dup4\n      sload\n      div\n      mul\n      dup4\n      mstore\n      swap2\n      0x20\n      add\n      swap2\n      jump(tag_159)\n    tag_160:\n      dup3\n      add\n      swap2\n      swap1\n      0x00\n      mstore\n      keccak256(0x00, 0x20)\n      swap1\n    tag_161:\n      dup2\n      sload\n      dup2\n      mstore\n      swap1\n      0x01\n      add\n      swap1\n      0x20\n      add\n      dup1\n      dup4\n      gt\n      tag_161\n      jumpi\n      dup3\n      swap1\n      sub\n      0x1f\n      and\n      dup3\n      add\n      swap2\n    tag_159:\n      pop\n      pop\n      pop\n      pop\n      pop\n      swap1\n      pop\n      dup5\n      jump\t// out\n        /* \"Voting/contracts/Voting.sol\":974:1001  string public  ElectionName */\n    tag_61:\n      0x0a\n      dup1\n      sload\n      tag_162\n      swap1\n      tag_86\n      jump\t// in\n    tag_162:\n      dup1\n      0x1f\n      add\n      0x20\n      dup1\n      swap2\n      div\n      mul\n      0x20\n      add\n      mload(0x40)\n      swap1\n      dup2\n      add\n      0x40\n      mstore\n      dup1\n      swap3\n      swap2\n      swap1\n      dup2\n      dup2\n      mstore\n      0x20\n      add\n      dup3\n      dup1\n      sload\n      tag_163\n      swap1\n      tag_86\n      jump\t// in\n    tag_163:\n      dup1\n      iszero\n      tag_164\n      jumpi\n      dup1\n      0x1f\n      lt\n      tag_165\n      jumpi\n      0x0100\n      dup1\n      dup4\n      sload\n      div\n      mul\n      dup4\n      mstore\n      swap2\n      0x20\n      add\n      swap2\n      jump(tag_164)\n    tag_165:\n      dup3\n      add\n      swap2\n      swap1\n      0x00\n      mstore\n      keccak256(0x00, 0x20)\n      swap1\n    tag_166:\n      dup2\n      sload\n      dup2\n      mstore\n      swap1\n      0x01\n      add\n      swap1\n      0x20\n      add\n      dup1\n      dup4\n      gt\n      tag_166\n      jumpi\n      dup3\n      swap1\n      sub\n      0x1f\n      and\n      dup3\n      add\n      swap2\n    tag_164:\n      pop\n      pop\n      pop\n      pop\n      pop\n      dup2\n      jump\t// out\n        /* \"Voting/contracts/Voting.sol\":930:961  address public OragnizerAddress */\n    tag_65:\n      0x09\n      0x01\n      swap1\n      sload\n      swap1\n      0x0100\n      exp\n      swap1\n      div\n      0xffffffffffffffffffffffffffffffffffffffff\n      and\n      dup2\n      jump\t// out\n        /* \"Voting/contracts/Voting.sol\":903:921  State public state */\n    tag_69:\n      0x09\n      0x00\n      swap1\n      sload\n      swap1\n      0x0100\n      exp\n      swap1\n      div\n      0xff\n      and\n      dup2\n      jump\t// out\n        /* \"Voting/contracts/Voting.sol\":525:570  mapping (address => uint256) public VoteCount */\n    tag_74:\n      mstore(0x20, 0x02)\n      dup1\n      0x00\n      mstore\n      keccak256(0x00, 0x40)\n      0x00\n      swap2\n      pop\n      swap1\n      pop\n      sload\n      dup2\n      jump\t// out\n        /* \"Voting/contracts/Voting.sol\":2154:2552  function addVoter(address _voterAddress, string memory _voterName) public InState(State.Created) OfficialOnly {\r... */\n    tag_79:\n        /* \"Voting/contracts/Voting.sol\":2236:2249  State.Created */\n      0x00\n        /* \"Voting/contracts/Voting.sol\":2624:2630  _state */\n      dup1\n        /* \"Voting/contracts/Voting.sol\":2615:2630  state == _state */\n      0x02\n      dup2\n      gt\n      iszero\n      tag_168\n      jumpi\n      tag_169\n      tag_135\n      jump\t// in\n    tag_169:\n    tag_168:\n        /* \"Voting/contracts/Voting.sol\":2615:2620  state */\n      0x09\n      0x00\n      swap1\n      sload\n      swap1\n      0x0100\n      exp\n      swap1\n      div\n      0xff\n      and\n        /* \"Voting/contracts/Voting.sol\":2615:2630  state == _state */\n      0x02\n      dup2\n      gt\n      iszero\n      tag_170\n      jumpi\n      tag_171\n      tag_135\n      jump\t// in\n    tag_171:\n    tag_170:\n      eq\n        /* \"Voting/contracts/Voting.sol\":2607:2631  require(state == _state) */\n      tag_172\n      jumpi\n      0x00\n      dup1\n      revert\n    tag_172:\n        /* \"Voting/contracts/Voting.sol\":2723:2733  msg.sender */\n      caller\n        /* \"Voting/contracts/Voting.sol\":2703:2733  OragnizerAddress == msg.sender */\n      0xffffffffffffffffffffffffffffffffffffffff\n      and\n        /* \"Voting/contracts/Voting.sol\":2703:2719  OragnizerAddress */\n      0x09\n      0x01\n      swap1\n      sload\n      swap1\n      0x0100\n      exp\n      swap1\n      div\n      0xffffffffffffffffffffffffffffffffffffffff\n      and\n        /* \"Voting/contracts/Voting.sol\":2703:2733  OragnizerAddress == msg.sender */\n      0xffffffffffffffffffffffffffffffffffffffff\n      and\n      eq\n        /* \"Voting/contracts/Voting.sol\":2694:2734  require( OragnizerAddress == msg.sender) */\n      tag_174\n      jumpi\n      0x00\n      dup1\n      revert\n    tag_174:\n        /* \"Voting/contracts/Voting.sol\":2275:2293  Voter memory voter */\n      tag_176\n      tag_177\n      jump\t// in\n    tag_176:\n        /* \"Voting/contracts/Voting.sol\":2325:2338  _voterAddress */\n      dup4\n        /* \"Voting/contracts/Voting.sol\":2304:2309  voter */\n      dup2\n        /* \"Voting/contracts/Voting.sol\":2304:2322  voter.voterAddress */\n      0x20\n      add\n        /* \"Voting/contracts/Voting.sol\":2304:2338  voter.voterAddress = _voterAddress */\n      swap1\n      0xffffffffffffffffffffffffffffffffffffffff\n      and\n      swap1\n      dup2\n      0xffffffffffffffffffffffffffffffffffffffff\n      and\n      dup2\n      mstore\n      pop\n      pop\n        /* \"Voting/contracts/Voting.sol\":2367:2377  _voterName */\n      dup3\n        /* \"Voting/contracts/Voting.sol\":2349:2354  voter */\n      dup2\n        /* \"Voting/contracts/Voting.sol\":2349:2364  voter.voterName */\n      0x00\n      add\n        /* \"Voting/contracts/Voting.sol\":2349:2377  voter.voterName = _voterName */\n      dup2\n      swap1\n      mstore\n      pop\n        /* \"Voting/contracts/Voting.sol\":2402:2407  false */\n      0x00\n        /* \"Voting/contracts/Voting.sol\":2388:2393  voter */\n      dup2\n        /* \"Voting/contracts/Voting.sol\":2388:2399  voter.voted */\n      0x40\n      add\n        /* \"Voting/contracts/Voting.sol\":2388:2407  voter.voted = false */\n      swap1\n      iszero\n      iszero\n      swap1\n      dup2\n      iszero\n      iszero\n      dup2\n      mstore\n      pop\n      pop\n        /* \"Voting/contracts/Voting.sol\":2452:2457  voter */\n      dup1\n        /* \"Voting/contracts/Voting.sol\":2420:2434  AddressToVoter */\n      0x00\n        /* \"Voting/contracts/Voting.sol\":2420:2449  AddressToVoter[_voterAddress] */\n      dup1\n        /* \"Voting/contracts/Voting.sol\":2435:2448  _voterAddress */\n      dup7\n        /* \"Voting/contracts/Voting.sol\":2420:2449  AddressToVoter[_voterAddress] */\n      0xffffffffffffffffffffffffffffffffffffffff\n      and\n      0xffffffffffffffffffffffffffffffffffffffff\n      and\n      dup2\n      mstore\n      0x20\n      add\n      swap1\n      dup2\n      mstore\n      0x20\n      add\n      0x00\n      keccak256\n        /* \"Voting/contracts/Voting.sol\":2420:2457  AddressToVoter[_voterAddress] = voter */\n      0x00\n      dup3\n      add\n      mload\n      dup2\n      0x00\n      add\n      swap1\n      dup1\n      mload\n      swap1\n      0x20\n      add\n      swap1\n      tag_178\n      swap3\n      swap2\n      swap1\n      tag_144\n      jump\t// in\n    tag_178:\n      pop\n      0x20\n      dup3\n      add\n      mload\n      dup2\n      0x01\n      add\n      exp(0x0100, 0x00)\n      dup2\n      sload\n      dup2\n      0xffffffffffffffffffffffffffffffffffffffff\n      mul\n      not\n      and\n      swap1\n      dup4\n      0xffffffffffffffffffffffffffffffffffffffff\n      and\n      mul\n      or\n      swap1\n      sstore\n      pop\n      0x40\n      dup3\n      add\n      mload\n      dup2\n      0x01\n      add\n      exp(0x0100, 0x14)\n      dup2\n      sload\n      dup2\n      0xff\n      mul\n      not\n      and\n      swap1\n      dup4\n      iszero\n      iszero\n      mul\n      or\n      swap1\n      sstore\n      pop\n      swap1\n      pop\n      pop\n        /* \"Voting/contracts/Voting.sol\":2493:2498  voter */\n      dup1\n        /* \"Voting/contracts/Voting.sol\":2468:2477  VoterList */\n      0x03\n        /* \"Voting/contracts/Voting.sol\":2468:2490  VoterList[totalVoters] */\n      0x00\n        /* \"Voting/contracts/Voting.sol\":2478:2489  totalVoters */\n      sload(0x07)\n        /* \"Voting/contracts/Voting.sol\":2468:2490  VoterList[totalVoters] */\n      dup2\n      mstore\n      0x20\n      add\n      swap1\n      dup2\n      mstore\n      0x20\n      add\n      0x00\n      keccak256\n        /* \"Voting/contracts/Voting.sol\":2468:2498  VoterList[totalVoters] = voter */\n      0x00\n      dup3\n      add\n      mload\n      dup2\n      0x00\n      add\n      swap1\n      dup1\n      mload\n      swap1\n      0x20\n      add\n      swap1\n      tag_179\n      swap3\n      swap2\n      swap1\n      tag_144\n      jump\t// in\n    tag_179:\n      pop\n      0x20\n      dup3\n      add\n      mload\n      dup2\n      0x01\n      add\n      exp(0x0100, 0x00)\n      dup2\n      sload\n      dup2\n      0xffffffffffffffffffffffffffffffffffffffff\n      mul\n      not\n      and\n      swap1\n      dup4\n      0xffffffffffffffffffffffffffffffffffffffff\n      and\n      mul\n      or\n      swap1\n      sstore\n      pop\n      0x40\n      dup3\n      add\n      mload\n      dup2\n      0x01\n      add\n      exp(0x0100, 0x14)\n      dup2\n      sload\n      dup2\n      0xff\n      mul\n      not\n      and\n      swap1\n      dup4\n      iszero\n      iszero\n      mul\n      or\n      swap1\n      sstore\n      pop\n      swap1\n      pop\n      pop\n        /* \"Voting/contracts/Voting.sol\":2537:2538  1 */\n      0x01\n        /* \"Voting/contracts/Voting.sol\":2523:2534  totalVoters */\n      sload(0x07)\n        /* \"Voting/contracts/Voting.sol\":2523:2538  totalVoters + 1 */\n      tag_180\n      swap2\n      swap1\n      tag_151\n      jump\t// in\n    tag_180:\n        /* \"Voting/contracts/Voting.sol\":2509:2520  totalVoters */\n      0x07\n        /* \"Voting/contracts/Voting.sol\":2509:2538  totalVoters = totalVoters + 1 */\n      dup2\n      swap1\n      sstore\n      pop\n        /* \"Voting/contracts/Voting.sol\":2264:2552  {\r... */\n      pop\n        /* \"Voting/contracts/Voting.sol\":2154:2552  function addVoter(address _voterAddress, string memory _voterName) public InState(State.Created) OfficialOnly {\r... */\n      pop\n      pop\n      pop\n      jump\t// out\n        /* \"Voting/contracts/Voting.sol\":2012:2146  function getCandidate(string memory _symbol) public view returns(Candidate memory){\r... */\n    tag_82:\n        /* \"Voting/contracts/Voting.sol\":2077:2093  Candidate memory */\n      tag_181\n      tag_98\n      jump\t// in\n    tag_181:\n        /* \"Voting/contracts/Voting.sol\":2112:2129  SymbolToCandidate */\n      0x05\n        /* \"Voting/contracts/Voting.sol\":2130:2137  _symbol */\n      dup3\n        /* \"Voting/contracts/Voting.sol\":2112:2138  SymbolToCandidate[_symbol] */\n      mload(0x40)\n      tag_183\n      swap2\n      swap1\n      tag_147\n      jump\t// in\n    tag_183:\n      swap1\n      dup2\n      mstore\n      0x20\n      add\n      mload(0x40)\n      dup1\n      swap2\n      sub\n      swap1\n      keccak256\n        /* \"Voting/contracts/Voting.sol\":2105:2138  return SymbolToCandidate[_symbol] */\n      mload(0x40)\n      dup1\n      0x80\n      add\n      0x40\n      mstore\n      swap1\n      dup2\n      0x00\n      dup3\n      add\n      dup1\n      sload\n      tag_184\n      swap1\n      tag_86\n      jump\t// in\n    tag_184:\n      dup1\n      0x1f\n      add\n      0x20\n      dup1\n      swap2\n      div\n      mul\n      0x20\n      add\n      mload(0x40)\n      swap1\n      dup2\n      add\n      0x40\n      mstore\n      dup1\n      swap3\n      swap2\n      swap1\n      dup2\n      dup2\n      mstore\n      0x20\n      add\n      dup3\n      dup1\n      sload\n      tag_185\n      swap1\n      tag_86\n      jump\t// in\n    tag_185:\n      dup1\n      iszero\n      tag_186\n      jumpi\n      dup1\n      0x1f\n      lt\n      tag_187\n      jumpi\n      0x0100\n      dup1\n      dup4\n      sload\n      div\n      mul\n      dup4\n      mstore\n      swap2\n      0x20\n      add\n      swap2\n      jump(tag_186)\n    tag_187:\n      dup3\n      add\n      swap2\n      swap1\n      0x00\n      mstore\n      keccak256(0x00, 0x20)\n      swap1\n    tag_188:\n      dup2\n      sload\n      dup2\n      mstore\n      swap1\n      0x01\n      add\n      swap1\n      0x20\n      add\n      dup1\n      dup4\n      gt\n      tag_188\n      jumpi\n      dup3\n      swap1\n      sub\n      0x1f\n      and\n      dup3\n      add\n      swap2\n    tag_186:\n      pop\n      pop\n      pop\n      pop\n      pop\n      dup2\n      mstore\n      0x20\n      add\n      0x01\n      dup3\n      add\n      0x00\n      swap1\n      sload\n      swap1\n      0x0100\n      exp\n      swap1\n      div\n      0xffffffffffffffffffffffffffffffffffffffff\n      and\n      0xffffffffffffffffffffffffffffffffffffffff\n      and\n      0xffffffffffffffffffffffffffffffffffffffff\n      and\n      dup2\n      mstore\n      0x20\n      add\n      0x02\n      dup3\n      add\n      sload\n      dup2\n      mstore\n      0x20\n      add\n      0x03\n      dup3\n      add\n      dup1\n      sload\n      tag_189\n      swap1\n      tag_86\n      jump\t// in\n    tag_189:\n      dup1\n      0x1f\n      add\n      0x20\n      dup1\n      swap2\n      div\n      mul\n      0x20\n      add\n      mload(0x40)\n      swap1\n      dup2\n      add\n      0x40\n      mstore\n      dup1\n      swap3\n      swap2\n      swap1\n      dup2\n      dup2\n      mstore\n      0x20\n      add\n      dup3\n      dup1\n      sload\n      tag_190\n      swap1\n      tag_86\n      jump\t// in\n    tag_190:\n      dup1\n      iszero\n      tag_191\n      jumpi\n      dup1\n      0x1f\n      lt\n      tag_192\n      jumpi\n      0x0100\n      dup1\n      dup4\n      sload\n      div\n      mul\n      dup4\n      mstore\n      swap2\n      0x20\n      add\n      swap2\n      jump(tag_191)\n    tag_192:\n      dup3\n      add\n      swap2\n      swap1\n      0x00\n      mstore\n      keccak256(0x00, 0x20)\n      swap1\n    tag_193:\n      dup2\n      sload\n      dup2\n      mstore\n      swap1\n      0x01\n      add\n      swap1\n      0x20\n      add\n      dup1\n      dup4\n      gt\n      tag_193\n      jumpi\n      dup3\n      swap1\n      sub\n      0x1f\n      and\n      dup3\n      add\n      swap2\n    tag_191:\n      pop\n      pop\n      pop\n      pop\n      pop\n      dup2\n      mstore\n      pop\n      pop\n      swap1\n      pop\n        /* \"Voting/contracts/Voting.sol\":2012:2146  function getCandidate(string memory _symbol) public view returns(Candidate memory){\r... */\n      swap2\n      swap1\n      pop\n      jump\t// out\n    tag_98:\n      mload(0x40)\n      dup1\n      0x80\n      add\n      0x40\n      mstore\n      dup1\n      0x60\n      dup2\n      mstore\n      0x20\n      add\n      and(0xffffffffffffffffffffffffffffffffffffffff, 0x00)\n      dup2\n      mstore\n      0x20\n      add\n      0x00\n      dup2\n      mstore\n      0x20\n      add\n      0x60\n      dup2\n      mstore\n      pop\n      swap1\n      jump\t// out\n    tag_144:\n      dup3\n      dup1\n      sload\n      tag_194\n      swap1\n      tag_86\n      jump\t// in\n    tag_194:\n      swap1\n      0x00\n      mstore\n      keccak256(0x00, 0x20)\n      swap1\n      0x1f\n      add\n      0x20\n      swap1\n      div\n      dup2\n      add\n      swap3\n      dup3\n      tag_196\n      jumpi\n      0x00\n      dup6\n      sstore\n      jump(tag_195)\n    tag_196:\n      dup3\n      0x1f\n      lt\n      tag_197\n      jumpi\n      dup1\n      mload\n      not(0xff)\n      and\n      dup4\n      dup1\n      add\n      or\n      dup6\n      sstore\n      jump(tag_195)\n    tag_197:\n      dup3\n      dup1\n      add\n      0x01\n      add\n      dup6\n      sstore\n      dup3\n      iszero\n      tag_195\n      jumpi\n      swap2\n      dup3\n      add\n    tag_198:\n      dup3\n      dup2\n      gt\n      iszero\n      tag_199\n      jumpi\n      dup3\n      mload\n      dup3\n      sstore\n      swap2\n      0x20\n      add\n      swap2\n      swap1\n      0x01\n      add\n      swap1\n      jump(tag_198)\n    tag_199:\n    tag_195:\n      pop\n      swap1\n      pop\n      tag_200\n      swap2\n      swap1\n      tag_201\n      jump\t// in\n    tag_200:\n      pop\n      swap1\n      jump\t// out\n    tag_177:\n      mload(0x40)\n      dup1\n      0x60\n      add\n      0x40\n      mstore\n      dup1\n      0x60\n      dup2\n      mstore\n      0x20\n      add\n      and(0xffffffffffffffffffffffffffffffffffffffff, 0x00)\n      dup2\n      mstore\n      0x20\n      add\n      iszero(iszero(0x00))\n      dup2\n      mstore\n      pop\n      swap1\n      jump\t// out\n    tag_201:\n    tag_202:\n      dup1\n      dup3\n      gt\n      iszero\n      tag_203\n      jumpi\n      0x00\n      dup2\n      0x00\n      swap1\n      sstore\n      pop\n      0x01\n      add\n      jump(tag_202)\n    tag_203:\n      pop\n      swap1\n      jump\t// out\n        /* \"#utility.yul\":7:419   */\n    tag_205:\n        /* \"#utility.yul\":85:90   */\n      0x00\n        /* \"#utility.yul\":110:176   */\n      tag_207\n        /* \"#utility.yul\":126:175   */\n      tag_208\n        /* \"#utility.yul\":168:174   */\n      dup5\n        /* \"#utility.yul\":126:175   */\n      tag_209\n      jump\t// in\n    tag_208:\n        /* \"#utility.yul\":110:176   */\n      tag_210\n      jump\t// in\n    tag_207:\n        /* \"#utility.yul\":101:176   */\n      swap1\n      pop\n        /* \"#utility.yul\":199:205   */\n      dup3\n        /* \"#utility.yul\":192:197   */\n      dup2\n        /* \"#utility.yul\":185:206   */\n      mstore\n        /* \"#utility.yul\":237:241   */\n      0x20\n        /* \"#utility.yul\":230:235   */\n      dup2\n        /* \"#utility.yul\":226:242   */\n      add\n        /* \"#utility.yul\":275:278   */\n      dup5\n        /* \"#utility.yul\":266:272   */\n      dup5\n        /* \"#utility.yul\":261:264   */\n      dup5\n        /* \"#utility.yul\":257:273   */\n      add\n        /* \"#utility.yul\":254:279   */\n      gt\n        /* \"#utility.yul\":251:363   */\n      iszero\n      tag_211\n      jumpi\n        /* \"#utility.yul\":282:361   */\n      tag_212\n      tag_213\n      jump\t// in\n    tag_212:\n        /* \"#utility.yul\":251:363   */\n    tag_211:\n        /* \"#utility.yul\":372:413   */\n      tag_214\n        /* \"#utility.yul\":406:412   */\n      dup5\n        /* \"#utility.yul\":401:404   */\n      dup3\n        /* \"#utility.yul\":396:399   */\n      dup6\n        /* \"#utility.yul\":372:413   */\n      tag_215\n      jump\t// in\n    tag_214:\n        /* \"#utility.yul\":91:419   */\n      pop\n        /* \"#utility.yul\":7:419   */\n      swap4\n      swap3\n      pop\n      pop\n      pop\n      jump\t// out\n        /* \"#utility.yul\":425:564   */\n    tag_216:\n        /* \"#utility.yul\":471:476   */\n      0x00\n        /* \"#utility.yul\":509:515   */\n      dup2\n        /* \"#utility.yul\":496:516   */\n      calldataload\n        /* \"#utility.yul\":487:516   */\n      swap1\n      pop\n        /* \"#utility.yul\":525:558   */\n      tag_218\n        /* \"#utility.yul\":552:557   */\n      dup2\n        /* \"#utility.yul\":525:558   */\n      tag_219\n      jump\t// in\n    tag_218:\n        /* \"#utility.yul\":425:564   */\n      swap3\n      swap2\n      pop\n      pop\n      jump\t// out\n        /* \"#utility.yul\":584:924   */\n    tag_220:\n        /* \"#utility.yul\":640:645   */\n      0x00\n        /* \"#utility.yul\":689:692   */\n      dup3\n        /* \"#utility.yul\":682:686   */\n      0x1f\n        /* \"#utility.yul\":674:680   */\n      dup4\n        /* \"#utility.yul\":670:687   */\n      add\n        /* \"#utility.yul\":666:693   */\n      slt\n        /* \"#utility.yul\":656:778   */\n      tag_222\n      jumpi\n        /* \"#utility.yul\":697:776   */\n      tag_223\n      tag_224\n      jump\t// in\n    tag_223:\n        /* \"#utility.yul\":656:778   */\n    tag_222:\n        /* \"#utility.yul\":814:820   */\n      dup2\n        /* \"#utility.yul\":801:821   */\n      calldataload\n        /* \"#utility.yul\":839:918   */\n      tag_225\n        /* \"#utility.yul\":914:917   */\n      dup5\n        /* \"#utility.yul\":906:912   */\n      dup3\n        /* \"#utility.yul\":899:903   */\n      0x20\n        /* \"#utility.yul\":891:897   */\n      dup7\n        /* \"#utility.yul\":887:904   */\n      add\n        /* \"#utility.yul\":839:918   */\n      tag_205\n      jump\t// in\n    tag_225:\n        /* \"#utility.yul\":830:918   */\n      swap2\n      pop\n        /* \"#utility.yul\":646:924   */\n      pop\n        /* \"#utility.yul\":584:924   */\n      swap3\n      swap2\n      pop\n      pop\n      jump\t// out\n        /* \"#utility.yul\":930:1069   */\n    tag_226:\n        /* \"#utility.yul\":976:981   */\n      0x00\n        /* \"#utility.yul\":1014:1020   */\n      dup2\n        /* \"#utility.yul\":1001:1021   */\n      calldataload\n        /* \"#utility.yul\":992:1021   */\n      swap1\n      pop\n        /* \"#utility.yul\":1030:1063   */\n      tag_228\n        /* \"#utility.yul\":1057:1062   */\n      dup2\n        /* \"#utility.yul\":1030:1063   */\n      tag_229\n      jump\t// in\n    tag_228:\n        /* \"#utility.yul\":930:1069   */\n      swap3\n      swap2\n      pop\n      pop\n      jump\t// out\n        /* \"#utility.yul\":1075:1404   */\n    tag_37:\n        /* \"#utility.yul\":1134:1140   */\n      0x00\n        /* \"#utility.yul\":1183:1185   */\n      0x20\n        /* \"#utility.yul\":1171:1180   */\n      dup3\n        /* \"#utility.yul\":1162:1169   */\n      dup5\n        /* \"#utility.yul\":1158:1181   */\n      sub\n        /* \"#utility.yul\":1154:1186   */\n      slt\n        /* \"#utility.yul\":1151:1270   */\n      iszero\n      tag_231\n      jumpi\n        /* \"#utility.yul\":1189:1268   */\n      tag_232\n      tag_233\n      jump\t// in\n    tag_232:\n        /* \"#utility.yul\":1151:1270   */\n    tag_231:\n        /* \"#utility.yul\":1309:1310   */\n      0x00\n        /* \"#utility.yul\":1334:1387   */\n      tag_234\n        /* \"#utility.yul\":1379:1386   */\n      dup5\n        /* \"#utility.yul\":1370:1376   */\n      dup3\n        /* \"#utility.yul\":1359:1368   */\n      dup6\n        /* \"#utility.yul\":1355:1377   */\n      add\n        /* \"#utility.yul\":1334:1387   */\n      tag_216\n      jump\t// in\n    tag_234:\n        /* \"#utility.yul\":1324:1387   */\n      swap2\n      pop\n        /* \"#utility.yul\":1280:1397   */\n      pop\n        /* \"#utility.yul\":1075:1404   */\n      swap3\n      swap2\n      pop\n      pop\n      jump\t// out\n        /* \"#utility.yul\":1410:2064   */\n    tag_78:\n        /* \"#utility.yul\":1488:1494   */\n      0x00\n        /* \"#utility.yul\":1496:1502   */\n      dup1\n        /* \"#utility.yul\":1545:1547   */\n      0x40\n        /* \"#utility.yul\":1533:1542   */\n      dup4\n        /* \"#utility.yul\":1524:1531   */\n      dup6\n        /* \"#utility.yul\":1520:1543   */\n      sub\n        /* \"#utility.yul\":1516:1548   */\n      slt\n        /* \"#utility.yul\":1513:1632   */\n      iszero\n      tag_236\n      jumpi\n        /* \"#utility.yul\":1551:1630   */\n      tag_237\n      tag_233\n      jump\t// in\n    tag_237:\n        /* \"#utility.yul\":1513:1632   */\n    tag_236:\n        /* \"#utility.yul\":1671:1672   */\n      0x00\n        /* \"#utility.yul\":1696:1749   */\n      tag_238\n        /* \"#utility.yul\":1741:1748   */\n      dup6\n        /* \"#utility.yul\":1732:1738   */\n      dup3\n        /* \"#utility.yul\":1721:1730   */\n      dup7\n        /* \"#utility.yul\":1717:1739   */\n      add\n        /* \"#utility.yul\":1696:1749   */\n      tag_216\n      jump\t// in\n    tag_238:\n        /* \"#utility.yul\":1686:1749   */\n      swap3\n      pop\n        /* \"#utility.yul\":1642:1759   */\n      pop\n        /* \"#utility.yul\":1826:1828   */\n      0x20\n        /* \"#utility.yul\":1815:1824   */\n      dup4\n        /* \"#utility.yul\":1811:1829   */\n      add\n        /* \"#utility.yul\":1798:1830   */\n      calldataload\n        /* \"#utility.yul\":1857:1875   */\n      0xffffffffffffffff\n        /* \"#utility.yul\":1849:1855   */\n      dup2\n        /* \"#utility.yul\":1846:1876   */\n      gt\n        /* \"#utility.yul\":1843:1960   */\n      iszero\n      tag_239\n      jumpi\n        /* \"#utility.yul\":1879:1958   */\n      tag_240\n      tag_241\n      jump\t// in\n    tag_240:\n        /* \"#utility.yul\":1843:1960   */\n    tag_239:\n        /* \"#utility.yul\":1984:2047   */\n      tag_242\n        /* \"#utility.yul\":2039:2046   */\n      dup6\n        /* \"#utility.yul\":2030:2036   */\n      dup3\n        /* \"#utility.yul\":2019:2028   */\n      dup7\n        /* \"#utility.yul\":2015:2037   */\n      add\n        /* \"#utility.yul\":1984:2047   */\n      tag_220\n      jump\t// in\n    tag_242:\n        /* \"#utility.yul\":1974:2047   */\n      swap2\n      pop\n        /* \"#utility.yul\":1769:2057   */\n      pop\n        /* \"#utility.yul\":1410:2064   */\n      swap3\n      pop\n      swap3\n      swap1\n      pop\n      jump\t// out\n        /* \"#utility.yul\":2070:3049   */\n    tag_54:\n        /* \"#utility.yul\":2167:2173   */\n      0x00\n        /* \"#utility.yul\":2175:2181   */\n      dup1\n        /* \"#utility.yul\":2183:2189   */\n      0x00\n        /* \"#utility.yul\":2232:2234   */\n      0x60\n        /* \"#utility.yul\":2220:2229   */\n      dup5\n        /* \"#utility.yul\":2211:2218   */\n      dup7\n        /* \"#utility.yul\":2207:2230   */\n      sub\n        /* \"#utility.yul\":2203:2235   */\n      slt\n        /* \"#utility.yul\":2200:2319   */\n      iszero\n      tag_244\n      jumpi\n        /* \"#utility.yul\":2238:2317   */\n      tag_245\n      tag_233\n      jump\t// in\n    tag_245:\n        /* \"#utility.yul\":2200:2319   */\n    tag_244:\n        /* \"#utility.yul\":2358:2359   */\n      0x00\n        /* \"#utility.yul\":2383:2436   */\n      tag_246\n        /* \"#utility.yul\":2428:2435   */\n      dup7\n        /* \"#utility.yul\":2419:2425   */\n      dup3\n        /* \"#utility.yul\":2408:2417   */\n      dup8\n        /* \"#utility.yul\":2404:2426   */\n      add\n        /* \"#utility.yul\":2383:2436   */\n      tag_216\n      jump\t// in\n    tag_246:\n        /* \"#utility.yul\":2373:2436   */\n      swap4\n      pop\n        /* \"#utility.yul\":2329:2446   */\n      pop\n        /* \"#utility.yul\":2513:2515   */\n      0x20\n        /* \"#utility.yul\":2502:2511   */\n      dup5\n        /* \"#utility.yul\":2498:2516   */\n      add\n        /* \"#utility.yul\":2485:2517   */\n      calldataload\n        /* \"#utility.yul\":2544:2562   */\n      0xffffffffffffffff\n        /* \"#utility.yul\":2536:2542   */\n      dup2\n        /* \"#utility.yul\":2533:2563   */\n      gt\n        /* \"#utility.yul\":2530:2647   */\n      iszero\n      tag_247\n      jumpi\n        /* \"#utility.yul\":2566:2645   */\n      tag_248\n      tag_241\n      jump\t// in\n    tag_248:\n        /* \"#utility.yul\":2530:2647   */\n    tag_247:\n        /* \"#utility.yul\":2671:2734   */\n      tag_249\n        /* \"#utility.yul\":2726:2733   */\n      dup7\n        /* \"#utility.yul\":2717:2723   */\n      dup3\n        /* \"#utility.yul\":2706:2715   */\n      dup8\n        /* \"#utility.yul\":2702:2724   */\n      add\n        /* \"#utility.yul\":2671:2734   */\n      tag_220\n      jump\t// in\n    tag_249:\n        /* \"#utility.yul\":2661:2734   */\n      swap3\n      pop\n        /* \"#utility.yul\":2456:2744   */\n      pop\n        /* \"#utility.yul\":2811:2813   */\n      0x40\n        /* \"#utility.yul\":2800:2809   */\n      dup5\n        /* \"#utility.yul\":2796:2814   */\n      add\n        /* \"#utility.yul\":2783:2815   */\n      calldataload\n        /* \"#utility.yul\":2842:2860   */\n      0xffffffffffffffff\n        /* \"#utility.yul\":2834:2840   */\n      dup2\n        /* \"#utility.yul\":2831:2861   */\n      gt\n        /* \"#utility.yul\":2828:2945   */\n      iszero\n      tag_250\n      jumpi\n        /* \"#utility.yul\":2864:2943   */\n      tag_251\n      tag_241\n      jump\t// in\n    tag_251:\n        /* \"#utility.yul\":2828:2945   */\n    tag_250:\n        /* \"#utility.yul\":2969:3032   */\n      tag_252\n        /* \"#utility.yul\":3024:3031   */\n      dup7\n        /* \"#utility.yul\":3015:3021   */\n      dup3\n        /* \"#utility.yul\":3004:3013   */\n      dup8\n        /* \"#utility.yul\":3000:3022   */\n      add\n        /* \"#utility.yul\":2969:3032   */\n      tag_220\n      jump\t// in\n    tag_252:\n        /* \"#utility.yul\":2959:3032   */\n      swap2\n      pop\n        /* \"#utility.yul\":2754:3042   */\n      pop\n        /* \"#utility.yul\":2070:3049   */\n      swap3\n      pop\n      swap3\n      pop\n      swap3\n      jump\t// out\n        /* \"#utility.yul\":3055:3564   */\n    tag_45:\n        /* \"#utility.yul\":3124:3130   */\n      0x00\n        /* \"#utility.yul\":3173:3175   */\n      0x20\n        /* \"#utility.yul\":3161:3170   */\n      dup3\n        /* \"#utility.yul\":3152:3159   */\n      dup5\n        /* \"#utility.yul\":3148:3171   */\n      sub\n        /* \"#utility.yul\":3144:3176   */\n      slt\n        /* \"#utility.yul\":3141:3260   */\n      iszero\n      tag_254\n      jumpi\n        /* \"#utility.yul\":3179:3258   */\n      tag_255\n      tag_233\n      jump\t// in\n    tag_255:\n        /* \"#utility.yul\":3141:3260   */\n    tag_254:\n        /* \"#utility.yul\":3327:3328   */\n      0x00\n        /* \"#utility.yul\":3316:3325   */\n      dup3\n        /* \"#utility.yul\":3312:3329   */\n      add\n        /* \"#utility.yul\":3299:3330   */\n      calldataload\n        /* \"#utility.yul\":3357:3375   */\n      0xffffffffffffffff\n        /* \"#utility.yul\":3349:3355   */\n      dup2\n        /* \"#utility.yul\":3346:3376   */\n      gt\n        /* \"#utility.yul\":3343:3460   */\n      iszero\n      tag_256\n      jumpi\n        /* \"#utility.yul\":3379:3458   */\n      tag_257\n      tag_241\n      jump\t// in\n    tag_257:\n        /* \"#utility.yul\":3343:3460   */\n    tag_256:\n        /* \"#utility.yul\":3484:3547   */\n      tag_258\n        /* \"#utility.yul\":3539:3546   */\n      dup5\n        /* \"#utility.yul\":3530:3536   */\n      dup3\n        /* \"#utility.yul\":3519:3528   */\n      dup6\n        /* \"#utility.yul\":3515:3537   */\n      add\n        /* \"#utility.yul\":3484:3547   */\n      tag_220\n      jump\t// in\n    tag_258:\n        /* \"#utility.yul\":3474:3547   */\n      swap2\n      pop\n        /* \"#utility.yul\":3270:3557   */\n      pop\n        /* \"#utility.yul\":3055:3564   */\n      swap3\n      swap2\n      pop\n      pop\n      jump\t// out\n        /* \"#utility.yul\":3570:3899   */\n    tag_23:\n        /* \"#utility.yul\":3629:3635   */\n      0x00\n        /* \"#utility.yul\":3678:3680   */\n      0x20\n        /* \"#utility.yul\":3666:3675   */\n      dup3\n        /* \"#utility.yul\":3657:3664   */\n      dup5\n        /* \"#utility.yul\":3653:3676   */\n      sub\n        /* \"#utility.yul\":3649:3681   */\n      slt\n        /* \"#utility.yul\":3646:3765   */\n      iszero\n      tag_260\n      jumpi\n        /* \"#utility.yul\":3684:3763   */\n      tag_261\n      tag_233\n      jump\t// in\n    tag_261:\n        /* \"#utility.yul\":3646:3765   */\n    tag_260:\n        /* \"#utility.yul\":3804:3805   */\n      0x00\n        /* \"#utility.yul\":3829:3882   */\n      tag_262\n        /* \"#utility.yul\":3874:3881   */\n      dup5\n        /* \"#utility.yul\":3865:3871   */\n      dup3\n        /* \"#utility.yul\":3854:3863   */\n      dup6\n        /* \"#utility.yul\":3850:3872   */\n      add\n        /* \"#utility.yul\":3829:3882   */\n      tag_226\n      jump\t// in\n    tag_262:\n        /* \"#utility.yul\":3819:3882   */\n      swap2\n      pop\n        /* \"#utility.yul\":3775:3892   */\n      pop\n        /* \"#utility.yul\":3570:3899   */\n      swap3\n      swap2\n      pop\n      pop\n      jump\t// out\n        /* \"#utility.yul\":3905:4161   */\n    tag_263:\n        /* \"#utility.yul\":4024:4034   */\n      0x00\n        /* \"#utility.yul\":4059:4155   */\n      tag_265\n        /* \"#utility.yul\":4151:4154   */\n      dup4\n        /* \"#utility.yul\":4143:4149   */\n      dup4\n        /* \"#utility.yul\":4059:4155   */\n      tag_266\n      jump\t// in\n    tag_265:\n        /* \"#utility.yul\":4045:4155   */\n      swap1\n      pop\n        /* \"#utility.yul\":3905:4161   */\n      swap3\n      swap2\n      pop\n      pop\n      jump\t// out\n        /* \"#utility.yul\":4167:4275   */\n    tag_267:\n        /* \"#utility.yul\":4244:4268   */\n      tag_269\n        /* \"#utility.yul\":4262:4267   */\n      dup2\n        /* \"#utility.yul\":4244:4268   */\n      tag_270\n      jump\t// in\n    tag_269:\n        /* \"#utility.yul\":4239:4242   */\n      dup3\n        /* \"#utility.yul\":4232:4269   */\n      mstore\n        /* \"#utility.yul\":4167:4275   */\n      pop\n      pop\n      jump\t// out\n        /* \"#utility.yul\":4281:4399   */\n    tag_271:\n        /* \"#utility.yul\":4368:4392   */\n      tag_273\n        /* \"#utility.yul\":4386:4391   */\n      dup2\n        /* \"#utility.yul\":4368:4392   */\n      tag_270\n      jump\t// in\n    tag_273:\n        /* \"#utility.yul\":4363:4366   */\n      dup3\n        /* \"#utility.yul\":4356:4393   */\n      mstore\n        /* \"#utility.yul\":4281:4399   */\n      pop\n      pop\n      jump\t// out\n        /* \"#utility.yul\":4467:5578   */\n    tag_274:\n        /* \"#utility.yul\":4636:4639   */\n      0x00\n        /* \"#utility.yul\":4665:4744   */\n      tag_276\n        /* \"#utility.yul\":4738:4743   */\n      dup3\n        /* \"#utility.yul\":4665:4744   */\n      tag_277\n      jump\t// in\n    tag_276:\n        /* \"#utility.yul\":4760:4871   */\n      tag_278\n        /* \"#utility.yul\":4864:4870   */\n      dup2\n        /* \"#utility.yul\":4859:4862   */\n      dup6\n        /* \"#utility.yul\":4760:4871   */\n      tag_279\n      jump\t// in\n    tag_278:\n        /* \"#utility.yul\":4753:4871   */\n      swap4\n      pop\n        /* \"#utility.yul\":4897:4900   */\n      dup4\n        /* \"#utility.yul\":4942:4946   */\n      0x20\n        /* \"#utility.yul\":4934:4940   */\n      dup3\n        /* \"#utility.yul\":4930:4947   */\n      mul\n        /* \"#utility.yul\":4925:4928   */\n      dup6\n        /* \"#utility.yul\":4921:4948   */\n      add\n        /* \"#utility.yul\":4972:5053   */\n      tag_280\n        /* \"#utility.yul\":5047:5052   */\n      dup6\n        /* \"#utility.yul\":4972:5053   */\n      tag_281\n      jump\t// in\n    tag_280:\n        /* \"#utility.yul\":5076:5083   */\n      dup1\n        /* \"#utility.yul\":5107:5108   */\n      0x00\n        /* \"#utility.yul\":5092:5533   */\n    tag_282:\n        /* \"#utility.yul\":5117:5123   */\n      dup6\n        /* \"#utility.yul\":5114:5115   */\n      dup2\n        /* \"#utility.yul\":5111:5124   */\n      lt\n        /* \"#utility.yul\":5092:5533   */\n      iszero\n      tag_284\n      jumpi\n        /* \"#utility.yul\":5188:5197   */\n      dup5\n        /* \"#utility.yul\":5182:5186   */\n      dup5\n        /* \"#utility.yul\":5178:5198   */\n      sub\n        /* \"#utility.yul\":5173:5176   */\n      dup10\n        /* \"#utility.yul\":5166:5199   */\n      mstore\n        /* \"#utility.yul\":5239:5245   */\n      dup2\n        /* \"#utility.yul\":5233:5246   */\n      mload\n        /* \"#utility.yul\":5267:5381   */\n      tag_285\n        /* \"#utility.yul\":5376:5380   */\n      dup6\n        /* \"#utility.yul\":5361:5374   */\n      dup3\n        /* \"#utility.yul\":5267:5381   */\n      tag_263\n      jump\t// in\n    tag_285:\n        /* \"#utility.yul\":5259:5381   */\n      swap5\n      pop\n        /* \"#utility.yul\":5404:5489   */\n      tag_286\n        /* \"#utility.yul\":5482:5488   */\n      dup4\n        /* \"#utility.yul\":5404:5489   */\n      tag_287\n      jump\t// in\n    tag_286:\n        /* \"#utility.yul\":5394:5489   */\n      swap3\n      pop\n        /* \"#utility.yul\":5518:5522   */\n      0x20\n        /* \"#utility.yul\":5513:5516   */\n      dup11\n        /* \"#utility.yul\":5509:5523   */\n      add\n        /* \"#utility.yul\":5502:5523   */\n      swap10\n      pop\n        /* \"#utility.yul\":5152:5533   */\n      pop\n        /* \"#utility.yul\":5139:5140   */\n      0x01\n        /* \"#utility.yul\":5136:5137   */\n      dup2\n        /* \"#utility.yul\":5132:5141   */\n      add\n        /* \"#utility.yul\":5127:5141   */\n      swap1\n      pop\n        /* \"#utility.yul\":5092:5533   */\n      jump(tag_282)\n    tag_284:\n        /* \"#utility.yul\":5096:5110   */\n      pop\n        /* \"#utility.yul\":5549:5553   */\n      dup3\n        /* \"#utility.yul\":5542:5553   */\n      swap8\n      pop\n        /* \"#utility.yul\":5569:5572   */\n      dup8\n        /* \"#utility.yul\":5562:5572   */\n      swap6\n      pop\n        /* \"#utility.yul\":4641:5578   */\n      pop\n      pop\n      pop\n      pop\n      pop\n        /* \"#utility.yul\":4467:5578   */\n      swap3\n      swap2\n      pop\n      pop\n      jump\t// out\n        /* \"#utility.yul\":5584:5693   */\n    tag_288:\n        /* \"#utility.yul\":5665:5686   */\n      tag_290\n        /* \"#utility.yul\":5680:5685   */\n      dup2\n        /* \"#utility.yul\":5665:5686   */\n      tag_291\n      jump\t// in\n    tag_290:\n        /* \"#utility.yul\":5660:5663   */\n      dup3\n        /* \"#utility.yul\":5653:5687   */\n      mstore\n        /* \"#utility.yul\":5584:5693   */\n      pop\n      pop\n      jump\t// out\n        /* \"#utility.yul\":5699:5842   */\n    tag_292:\n        /* \"#utility.yul\":5792:5835   */\n      tag_294\n        /* \"#utility.yul\":5829:5834   */\n      dup2\n        /* \"#utility.yul\":5792:5835   */\n      tag_295\n      jump\t// in\n    tag_294:\n        /* \"#utility.yul\":5787:5790   */\n      dup3\n        /* \"#utility.yul\":5780:5836   */\n      mstore\n        /* \"#utility.yul\":5699:5842   */\n      pop\n      pop\n      jump\t// out\n        /* \"#utility.yul\":5848:6192   */\n    tag_296:\n        /* \"#utility.yul\":5926:5929   */\n      0x00\n        /* \"#utility.yul\":5954:5993   */\n      tag_298\n        /* \"#utility.yul\":5987:5992   */\n      dup3\n        /* \"#utility.yul\":5954:5993   */\n      tag_299\n      jump\t// in\n    tag_298:\n        /* \"#utility.yul\":6009:6070   */\n      tag_300\n        /* \"#utility.yul\":6063:6069   */\n      dup2\n        /* \"#utility.yul\":6058:6061   */\n      dup6\n        /* \"#utility.yul\":6009:6070   */\n      tag_301\n      jump\t// in\n    tag_300:\n        /* \"#utility.yul\":6002:6070   */\n      swap4\n      pop\n        /* \"#utility.yul\":6079:6131   */\n      tag_302\n        /* \"#utility.yul\":6124:6130   */\n      dup2\n        /* \"#utility.yul\":6119:6122   */\n      dup6\n        /* \"#utility.yul\":6112:6116   */\n      0x20\n        /* \"#utility.yul\":6105:6110   */\n      dup7\n        /* \"#utility.yul\":6101:6117   */\n      add\n        /* \"#utility.yul\":6079:6131   */\n      tag_303\n      jump\t// in\n    tag_302:\n        /* \"#utility.yul\":6156:6185   */\n      tag_304\n        /* \"#utility.yul\":6178:6184   */\n      dup2\n        /* \"#utility.yul\":6156:6185   */\n      tag_305\n      jump\t// in\n    tag_304:\n        /* \"#utility.yul\":6151:6154   */\n      dup5\n        /* \"#utility.yul\":6147:6186   */\n      add\n        /* \"#utility.yul\":6140:6186   */\n      swap2\n      pop\n        /* \"#utility.yul\":5930:6192   */\n      pop\n        /* \"#utility.yul\":5848:6192   */\n      swap3\n      swap2\n      pop\n      pop\n      jump\t// out\n        /* \"#utility.yul\":6198:6562   */\n    tag_306:\n        /* \"#utility.yul\":6286:6289   */\n      0x00\n        /* \"#utility.yul\":6314:6353   */\n      tag_308\n        /* \"#utility.yul\":6347:6352   */\n      dup3\n        /* \"#utility.yul\":6314:6353   */\n      tag_299\n      jump\t// in\n    tag_308:\n        /* \"#utility.yul\":6369:6440   */\n      tag_309\n        /* \"#utility.yul\":6433:6439   */\n      dup2\n        /* \"#utility.yul\":6428:6431   */\n      dup6\n        /* \"#utility.yul\":6369:6440   */\n      tag_310\n      jump\t// in\n    tag_309:\n        /* \"#utility.yul\":6362:6440   */\n      swap4\n      pop\n        /* \"#utility.yul\":6449:6501   */\n      tag_311\n        /* \"#utility.yul\":6494:6500   */\n      dup2\n        /* \"#utility.yul\":6489:6492   */\n      dup6\n        /* \"#utility.yul\":6482:6486   */\n      0x20\n        /* \"#utility.yul\":6475:6480   */\n      dup7\n        /* \"#utility.yul\":6471:6487   */\n      add\n        /* \"#utility.yul\":6449:6501   */\n      tag_303\n      jump\t// in\n    tag_311:\n        /* \"#utility.yul\":6526:6555   */\n      tag_312\n        /* \"#utility.yul\":6548:6554   */\n      dup2\n        /* \"#utility.yul\":6526:6555   */\n      tag_305\n      jump\t// in\n    tag_312:\n        /* \"#utility.yul\":6521:6524   */\n      dup5\n        /* \"#utility.yul\":6517:6556   */\n      add\n        /* \"#utility.yul\":6510:6556   */\n      swap2\n      pop\n        /* \"#utility.yul\":6290:6562   */\n      pop\n        /* \"#utility.yul\":6198:6562   */\n      swap3\n      swap2\n      pop\n      pop\n      jump\t// out\n        /* \"#utility.yul\":6568:6945   */\n    tag_313:\n        /* \"#utility.yul\":6674:6677   */\n      0x00\n        /* \"#utility.yul\":6702:6741   */\n      tag_315\n        /* \"#utility.yul\":6735:6740   */\n      dup3\n        /* \"#utility.yul\":6702:6741   */\n      tag_299\n      jump\t// in\n    tag_315:\n        /* \"#utility.yul\":6757:6846   */\n      tag_316\n        /* \"#utility.yul\":6839:6845   */\n      dup2\n        /* \"#utility.yul\":6834:6837   */\n      dup6\n        /* \"#utility.yul\":6757:6846   */\n      tag_317\n      jump\t// in\n    tag_316:\n        /* \"#utility.yul\":6750:6846   */\n      swap4\n      pop\n        /* \"#utility.yul\":6855:6907   */\n      tag_318\n        /* \"#utility.yul\":6900:6906   */\n      dup2\n        /* \"#utility.yul\":6895:6898   */\n      dup6\n        /* \"#utility.yul\":6888:6892   */\n      0x20\n        /* \"#utility.yul\":6881:6886   */\n      dup7\n        /* \"#utility.yul\":6877:6893   */\n      add\n        /* \"#utility.yul\":6855:6907   */\n      tag_303\n      jump\t// in\n    tag_318:\n        /* \"#utility.yul\":6932:6938   */\n      dup1\n        /* \"#utility.yul\":6927:6930   */\n      dup5\n        /* \"#utility.yul\":6923:6939   */\n      add\n        /* \"#utility.yul\":6916:6939   */\n      swap2\n      pop\n        /* \"#utility.yul\":6678:6945   */\n      pop\n        /* \"#utility.yul\":6568:6945   */\n      swap3\n      swap2\n      pop\n      pop\n      jump\t// out\n        /* \"#utility.yul\":7009:8056   */\n    tag_266:\n        /* \"#utility.yul\":7118:7121   */\n      0x00\n        /* \"#utility.yul\":7154:7158   */\n      0x80\n        /* \"#utility.yul\":7149:7152   */\n      dup4\n        /* \"#utility.yul\":7145:7159   */\n      add\n        /* \"#utility.yul\":7250:7254   */\n      0x00\n        /* \"#utility.yul\":7243:7248   */\n      dup4\n        /* \"#utility.yul\":7239:7255   */\n      add\n        /* \"#utility.yul\":7233:7256   */\n      mload\n        /* \"#utility.yul\":7303:7306   */\n      dup5\n        /* \"#utility.yul\":7297:7301   */\n      dup3\n        /* \"#utility.yul\":7293:7307   */\n      sub\n        /* \"#utility.yul\":7286:7290   */\n      0x00\n        /* \"#utility.yul\":7281:7284   */\n      dup7\n        /* \"#utility.yul\":7277:7291   */\n      add\n        /* \"#utility.yul\":7270:7308   */\n      mstore\n        /* \"#utility.yul\":7329:7402   */\n      tag_320\n        /* \"#utility.yul\":7397:7401   */\n      dup3\n        /* \"#utility.yul\":7383:7395   */\n      dup3\n        /* \"#utility.yul\":7329:7402   */\n      tag_296\n      jump\t// in\n    tag_320:\n        /* \"#utility.yul\":7321:7402   */\n      swap2\n      pop\n        /* \"#utility.yul\":7169:7413   */\n      pop\n        /* \"#utility.yul\":7507:7511   */\n      0x20\n        /* \"#utility.yul\":7500:7505   */\n      dup4\n        /* \"#utility.yul\":7496:7512   */\n      add\n        /* \"#utility.yul\":7490:7513   */\n      mload\n        /* \"#utility.yul\":7526:7589   */\n      tag_321\n        /* \"#utility.yul\":7583:7587   */\n      0x20\n        /* \"#utility.yul\":7578:7581   */\n      dup7\n        /* \"#utility.yul\":7574:7588   */\n      add\n        /* \"#utility.yul\":7560:7572   */\n      dup3\n        /* \"#utility.yul\":7526:7589   */\n      tag_267\n      jump\t// in\n    tag_321:\n        /* \"#utility.yul\":7423:7599   */\n      pop\n        /* \"#utility.yul\":7690:7694   */\n      0x40\n        /* \"#utility.yul\":7683:7688   */\n      dup4\n        /* \"#utility.yul\":7679:7695   */\n      add\n        /* \"#utility.yul\":7673:7696   */\n      mload\n        /* \"#utility.yul\":7709:7772   */\n      tag_322\n        /* \"#utility.yul\":7766:7770   */\n      0x40\n        /* \"#utility.yul\":7761:7764   */\n      dup7\n        /* \"#utility.yul\":7757:7771   */\n      add\n        /* \"#utility.yul\":7743:7755   */\n      dup3\n        /* \"#utility.yul\":7709:7772   */\n      tag_323\n      jump\t// in\n    tag_322:\n        /* \"#utility.yul\":7609:7782   */\n      pop\n        /* \"#utility.yul\":7866:7870   */\n      0x60\n        /* \"#utility.yul\":7859:7864   */\n      dup4\n        /* \"#utility.yul\":7855:7871   */\n      add\n        /* \"#utility.yul\":7849:7872   */\n      mload\n        /* \"#utility.yul\":7919:7922   */\n      dup5\n        /* \"#utility.yul\":7913:7917   */\n      dup3\n        /* \"#utility.yul\":7909:7923   */\n      sub\n        /* \"#utility.yul\":7902:7906   */\n      0x60\n        /* \"#utility.yul\":7897:7900   */\n      dup7\n        /* \"#utility.yul\":7893:7907   */\n      add\n        /* \"#utility.yul\":7886:7924   */\n      mstore\n        /* \"#utility.yul\":7945:8018   */\n      tag_324\n        /* \"#utility.yul\":8013:8017   */\n      dup3\n        /* \"#utility.yul\":7999:8011   */\n      dup3\n        /* \"#utility.yul\":7945:8018   */\n      tag_296\n      jump\t// in\n    tag_324:\n        /* \"#utility.yul\":7937:8018   */\n      swap2\n      pop\n        /* \"#utility.yul\":7792:8029   */\n      pop\n        /* \"#utility.yul\":8046:8050   */\n      dup1\n        /* \"#utility.yul\":8039:8050   */\n      swap2\n      pop\n        /* \"#utility.yul\":7123:8056   */\n      pop\n        /* \"#utility.yul\":7009:8056   */\n      swap3\n      swap2\n      pop\n      pop\n      jump\t// out\n        /* \"#utility.yul\":8120:9177   */\n    tag_325:\n        /* \"#utility.yul\":8239:8242   */\n      0x00\n        /* \"#utility.yul\":8275:8279   */\n      0x80\n        /* \"#utility.yul\":8270:8273   */\n      dup4\n        /* \"#utility.yul\":8266:8280   */\n      add\n        /* \"#utility.yul\":8371:8375   */\n      0x00\n        /* \"#utility.yul\":8364:8369   */\n      dup4\n        /* \"#utility.yul\":8360:8376   */\n      add\n        /* \"#utility.yul\":8354:8377   */\n      mload\n        /* \"#utility.yul\":8424:8427   */\n      dup5\n        /* \"#utility.yul\":8418:8422   */\n      dup3\n        /* \"#utility.yul\":8414:8428   */\n      sub\n        /* \"#utility.yul\":8407:8411   */\n      0x00\n        /* \"#utility.yul\":8402:8405   */\n      dup7\n        /* \"#utility.yul\":8398:8412   */\n      add\n        /* \"#utility.yul\":8391:8429   */\n      mstore\n        /* \"#utility.yul\":8450:8523   */\n      tag_327\n        /* \"#utility.yul\":8518:8522   */\n      dup3\n        /* \"#utility.yul\":8504:8516   */\n      dup3\n        /* \"#utility.yul\":8450:8523   */\n      tag_296\n      jump\t// in\n    tag_327:\n        /* \"#utility.yul\":8442:8523   */\n      swap2\n      pop\n        /* \"#utility.yul\":8290:8534   */\n      pop\n        /* \"#utility.yul\":8628:8632   */\n      0x20\n        /* \"#utility.yul\":8621:8626   */\n      dup4\n        /* \"#utility.yul\":8617:8633   */\n      add\n        /* \"#utility.yul\":8611:8634   */\n      mload\n        /* \"#utility.yul\":8647:8710   */\n      tag_328\n        /* \"#utility.yul\":8704:8708   */\n      0x20\n        /* \"#utility.yul\":8699:8702   */\n      dup7\n        /* \"#utility.yul\":8695:8709   */\n      add\n        /* \"#utility.yul\":8681:8693   */\n      dup3\n        /* \"#utility.yul\":8647:8710   */\n      tag_267\n      jump\t// in\n    tag_328:\n        /* \"#utility.yul\":8544:8720   */\n      pop\n        /* \"#utility.yul\":8811:8815   */\n      0x40\n        /* \"#utility.yul\":8804:8809   */\n      dup4\n        /* \"#utility.yul\":8800:8816   */\n      add\n        /* \"#utility.yul\":8794:8817   */\n      mload\n        /* \"#utility.yul\":8830:8893   */\n      tag_329\n        /* \"#utility.yul\":8887:8891   */\n      0x40\n        /* \"#utility.yul\":8882:8885   */\n      dup7\n        /* \"#utility.yul\":8878:8892   */\n      add\n        /* \"#utility.yul\":8864:8876   */\n      dup3\n        /* \"#utility.yul\":8830:8893   */\n      tag_323\n      jump\t// in\n    tag_329:\n        /* \"#utility.yul\":8730:8903   */\n      pop\n        /* \"#utility.yul\":8987:8991   */\n      0x60\n        /* \"#utility.yul\":8980:8985   */\n      dup4\n        /* \"#utility.yul\":8976:8992   */\n      add\n        /* \"#utility.yul\":8970:8993   */\n      mload\n        /* \"#utility.yul\":9040:9043   */\n      dup5\n        /* \"#utility.yul\":9034:9038   */\n      dup3\n        /* \"#utility.yul\":9030:9044   */\n      sub\n        /* \"#utility.yul\":9023:9027   */\n      0x60\n        /* \"#utility.yul\":9018:9021   */\n      dup7\n        /* \"#utility.yul\":9014:9028   */\n      add\n        /* \"#utility.yul\":9007:9045   */\n      mstore\n        /* \"#utility.yul\":9066:9139   */\n      tag_330\n        /* \"#utility.yul\":9134:9138   */\n      dup3\n        /* \"#utility.yul\":9120:9132   */\n      dup3\n        /* \"#utility.yul\":9066:9139   */\n      tag_296\n      jump\t// in\n    tag_330:\n        /* \"#utility.yul\":9058:9139   */\n      swap2\n      pop\n        /* \"#utility.yul\":8913:9150   */\n      pop\n        /* \"#utility.yul\":9167:9171   */\n      dup1\n        /* \"#utility.yul\":9160:9171   */\n      swap2\n      pop\n        /* \"#utility.yul\":8244:9177   */\n      pop\n        /* \"#utility.yul\":8120:9177   */\n      swap3\n      swap2\n      pop\n      pop\n      jump\t// out\n        /* \"#utility.yul\":9183:9291   */\n    tag_323:\n        /* \"#utility.yul\":9260:9284   */\n      tag_332\n        /* \"#utility.yul\":9278:9283   */\n      dup2\n        /* \"#utility.yul\":9260:9284   */\n      tag_333\n      jump\t// in\n    tag_332:\n        /* \"#utility.yul\":9255:9258   */\n      dup3\n        /* \"#utility.yul\":9248:9285   */\n      mstore\n        /* \"#utility.yul\":9183:9291   */\n      pop\n      pop\n      jump\t// out\n        /* \"#utility.yul\":9297:9415   */\n    tag_334:\n        /* \"#utility.yul\":9384:9408   */\n      tag_336\n        /* \"#utility.yul\":9402:9407   */\n      dup2\n        /* \"#utility.yul\":9384:9408   */\n      tag_333\n      jump\t// in\n    tag_336:\n        /* \"#utility.yul\":9379:9382   */\n      dup3\n        /* \"#utility.yul\":9372:9409   */\n      mstore\n        /* \"#utility.yul\":9297:9415   */\n      pop\n      pop\n      jump\t// out\n        /* \"#utility.yul\":9421:9696   */\n    tag_147:\n        /* \"#utility.yul\":9553:9556   */\n      0x00\n        /* \"#utility.yul\":9575:9670   */\n      tag_338\n        /* \"#utility.yul\":9666:9669   */\n      dup3\n        /* \"#utility.yul\":9657:9663   */\n      dup5\n        /* \"#utility.yul\":9575:9670   */\n      tag_313\n      jump\t// in\n    tag_338:\n        /* \"#utility.yul\":9568:9670   */\n      swap2\n      pop\n        /* \"#utility.yul\":9687:9690   */\n      dup2\n        /* \"#utility.yul\":9680:9690   */\n      swap1\n      pop\n        /* \"#utility.yul\":9421:9696   */\n      swap3\n      swap2\n      pop\n      pop\n      jump\t// out\n        /* \"#utility.yul\":9702:9924   */\n    tag_67:\n        /* \"#utility.yul\":9795:9799   */\n      0x00\n        /* \"#utility.yul\":9833:9835   */\n      0x20\n        /* \"#utility.yul\":9822:9831   */\n      dup3\n        /* \"#utility.yul\":9818:9836   */\n      add\n        /* \"#utility.yul\":9810:9836   */\n      swap1\n      pop\n        /* \"#utility.yul\":9846:9917   */\n      tag_340\n        /* \"#utility.yul\":9914:9915   */\n      0x00\n        /* \"#utility.yul\":9903:9912   */\n      dup4\n        /* \"#utility.yul\":9899:9916   */\n      add\n        /* \"#utility.yul\":9890:9896   */\n      dup5\n        /* \"#utility.yul\":9846:9917   */\n      tag_271\n      jump\t// in\n    tag_340:\n        /* \"#utility.yul\":9702:9924   */\n      swap3\n      swap2\n      pop\n      pop\n      jump\t// out\n        /* \"#utility.yul\":9930:10403   */\n    tag_30:\n        /* \"#utility.yul\":10123:10127   */\n      0x00\n        /* \"#utility.yul\":10161:10163   */\n      0x20\n        /* \"#utility.yul\":10150:10159   */\n      dup3\n        /* \"#utility.yul\":10146:10164   */\n      add\n        /* \"#utility.yul\":10138:10164   */\n      swap1\n      pop\n        /* \"#utility.yul\":10210:10219   */\n      dup2\n        /* \"#utility.yul\":10204:10208   */\n      dup2\n        /* \"#utility.yul\":10200:10220   */\n      sub\n        /* \"#utility.yul\":10196:10197   */\n      0x00\n        /* \"#utility.yul\":10185:10194   */\n      dup4\n        /* \"#utility.yul\":10181:10198   */\n      add\n        /* \"#utility.yul\":10174:10221   */\n      mstore\n        /* \"#utility.yul\":10238:10396   */\n      tag_342\n        /* \"#utility.yul\":10391:10395   */\n      dup2\n        /* \"#utility.yul\":10382:10388   */\n      dup5\n        /* \"#utility.yul\":10238:10396   */\n      tag_274\n      jump\t// in\n    tag_342:\n        /* \"#utility.yul\":10230:10396   */\n      swap1\n      pop\n        /* \"#utility.yul\":9930:10403   */\n      swap3\n      swap2\n      pop\n      pop\n      jump\t// out\n        /* \"#utility.yul\":10409:10643   */\n    tag_71:\n        /* \"#utility.yul\":10508:10512   */\n      0x00\n        /* \"#utility.yul\":10546:10548   */\n      0x20\n        /* \"#utility.yul\":10535:10544   */\n      dup3\n        /* \"#utility.yul\":10531:10549   */\n      add\n        /* \"#utility.yul\":10523:10549   */\n      swap1\n      pop\n        /* \"#utility.yul\":10559:10636   */\n      tag_344\n        /* \"#utility.yul\":10633:10634   */\n      0x00\n        /* \"#utility.yul\":10622:10631   */\n      dup4\n        /* \"#utility.yul\":10618:10635   */\n      add\n        /* \"#utility.yul\":10609:10615   */\n      dup5\n        /* \"#utility.yul\":10559:10636   */\n      tag_292\n      jump\t// in\n    tag_344:\n        /* \"#utility.yul\":10409:10643   */\n      swap3\n      swap2\n      pop\n      pop\n      jump\t// out\n        /* \"#utility.yul\":10649:10962   */\n    tag_63:\n        /* \"#utility.yul\":10762:10766   */\n      0x00\n        /* \"#utility.yul\":10800:10802   */\n      0x20\n        /* \"#utility.yul\":10789:10798   */\n      dup3\n        /* \"#utility.yul\":10785:10803   */\n      add\n        /* \"#utility.yul\":10777:10803   */\n      swap1\n      pop\n        /* \"#utility.yul\":10849:10858   */\n      dup2\n        /* \"#utility.yul\":10843:10847   */\n      dup2\n        /* \"#utility.yul\":10839:10859   */\n      sub\n        /* \"#utility.yul\":10835:10836   */\n      0x00\n        /* \"#utility.yul\":10824:10833   */\n      dup4\n        /* \"#utility.yul\":10820:10837   */\n      add\n        /* \"#utility.yul\":10813:10860   */\n      mstore\n        /* \"#utility.yul\":10877:10955   */\n      tag_346\n        /* \"#utility.yul\":10950:10954   */\n      dup2\n        /* \"#utility.yul\":10941:10947   */\n      dup5\n        /* \"#utility.yul\":10877:10955   */\n      tag_306\n      jump\t// in\n    tag_346:\n        /* \"#utility.yul\":10869:10955   */\n      swap1\n      pop\n        /* \"#utility.yul\":10649:10962   */\n      swap3\n      swap2\n      pop\n      pop\n      jump\t// out\n        /* \"#utility.yul\":10968:11489   */\n    tag_26:\n        /* \"#utility.yul\":11131:11135   */\n      0x00\n        /* \"#utility.yul\":11169:11171   */\n      0x60\n        /* \"#utility.yul\":11158:11167   */\n      dup3\n        /* \"#utility.yul\":11154:11172   */\n      add\n        /* \"#utility.yul\":11146:11172   */\n      swap1\n      pop\n        /* \"#utility.yul\":11218:11227   */\n      dup2\n        /* \"#utility.yul\":11212:11216   */\n      dup2\n        /* \"#utility.yul\":11208:11228   */\n      sub\n        /* \"#utility.yul\":11204:11205   */\n      0x00\n        /* \"#utility.yul\":11193:11202   */\n      dup4\n        /* \"#utility.yul\":11189:11206   */\n      add\n        /* \"#utility.yul\":11182:11229   */\n      mstore\n        /* \"#utility.yul\":11246:11324   */\n      tag_348\n        /* \"#utility.yul\":11319:11323   */\n      dup2\n        /* \"#utility.yul\":11310:11316   */\n      dup7\n        /* \"#utility.yul\":11246:11324   */\n      tag_306\n      jump\t// in\n    tag_348:\n        /* \"#utility.yul\":11238:11324   */\n      swap1\n      pop\n        /* \"#utility.yul\":11334:11406   */\n      tag_349\n        /* \"#utility.yul\":11402:11404   */\n      0x20\n        /* \"#utility.yul\":11391:11400   */\n      dup4\n        /* \"#utility.yul\":11387:11405   */\n      add\n        /* \"#utility.yul\":11378:11384   */\n      dup6\n        /* \"#utility.yul\":11334:11406   */\n      tag_271\n      jump\t// in\n    tag_349:\n        /* \"#utility.yul\":11416:11482   */\n      tag_350\n        /* \"#utility.yul\":11478:11480   */\n      0x40\n        /* \"#utility.yul\":11467:11476   */\n      dup4\n        /* \"#utility.yul\":11463:11481   */\n      add\n        /* \"#utility.yul\":11454:11460   */\n      dup5\n        /* \"#utility.yul\":11416:11482   */\n      tag_288\n      jump\t// in\n    tag_350:\n        /* \"#utility.yul\":10968:11489   */\n      swap5\n      swap4\n      pop\n      pop\n      pop\n      pop\n      jump\t// out\n        /* \"#utility.yul\":11495:12230   */\n    tag_48:\n        /* \"#utility.yul\":11712:11716   */\n      0x00\n        /* \"#utility.yul\":11750:11753   */\n      0x80\n        /* \"#utility.yul\":11739:11748   */\n      dup3\n        /* \"#utility.yul\":11735:11754   */\n      add\n        /* \"#utility.yul\":11727:11754   */\n      swap1\n      pop\n        /* \"#utility.yul\":11800:11809   */\n      dup2\n        /* \"#utility.yul\":11794:11798   */\n      dup2\n        /* \"#utility.yul\":11790:11810   */\n      sub\n        /* \"#utility.yul\":11786:11787   */\n      0x00\n        /* \"#utility.yul\":11775:11784   */\n      dup4\n        /* \"#utility.yul\":11771:11788   */\n      add\n        /* \"#utility.yul\":11764:11811   */\n      mstore\n        /* \"#utility.yul\":11828:11906   */\n      tag_352\n        /* \"#utility.yul\":11901:11905   */\n      dup2\n        /* \"#utility.yul\":11892:11898   */\n      dup8\n        /* \"#utility.yul\":11828:11906   */\n      tag_306\n      jump\t// in\n    tag_352:\n        /* \"#utility.yul\":11820:11906   */\n      swap1\n      pop\n        /* \"#utility.yul\":11916:11988   */\n      tag_353\n        /* \"#utility.yul\":11984:11986   */\n      0x20\n        /* \"#utility.yul\":11973:11982   */\n      dup4\n        /* \"#utility.yul\":11969:11987   */\n      add\n        /* \"#utility.yul\":11960:11966   */\n      dup7\n        /* \"#utility.yul\":11916:11988   */\n      tag_271\n      jump\t// in\n    tag_353:\n        /* \"#utility.yul\":11998:12070   */\n      tag_354\n        /* \"#utility.yul\":12066:12068   */\n      0x40\n        /* \"#utility.yul\":12055:12064   */\n      dup4\n        /* \"#utility.yul\":12051:12069   */\n      add\n        /* \"#utility.yul\":12042:12048   */\n      dup6\n        /* \"#utility.yul\":11998:12070   */\n      tag_334\n      jump\t// in\n    tag_354:\n        /* \"#utility.yul\":12117:12126   */\n      dup2\n        /* \"#utility.yul\":12111:12115   */\n      dup2\n        /* \"#utility.yul\":12107:12127   */\n      sub\n        /* \"#utility.yul\":12102:12104   */\n      0x60\n        /* \"#utility.yul\":12091:12100   */\n      dup4\n        /* \"#utility.yul\":12087:12105   */\n      add\n        /* \"#utility.yul\":12080:12128   */\n      mstore\n        /* \"#utility.yul\":12145:12223   */\n      tag_355\n        /* \"#utility.yul\":12218:12222   */\n      dup2\n        /* \"#utility.yul\":12209:12215   */\n      dup5\n        /* \"#utility.yul\":12145:12223   */\n      tag_306\n      jump\t// in\n    tag_355:\n        /* \"#utility.yul\":12137:12223   */\n      swap1\n      pop\n        /* \"#utility.yul\":11495:12230   */\n      swap6\n      swap5\n      pop\n      pop\n      pop\n      pop\n      pop\n      jump\t// out\n        /* \"#utility.yul\":12236:12609   */\n    tag_84:\n        /* \"#utility.yul\":12379:12383   */\n      0x00\n        /* \"#utility.yul\":12417:12419   */\n      0x20\n        /* \"#utility.yul\":12406:12415   */\n      dup3\n        /* \"#utility.yul\":12402:12420   */\n      add\n        /* \"#utility.yul\":12394:12420   */\n      swap1\n      pop\n        /* \"#utility.yul\":12466:12475   */\n      dup2\n        /* \"#utility.yul\":12460:12464   */\n      dup2\n        /* \"#utility.yul\":12456:12476   */\n      sub\n        /* \"#utility.yul\":12452:12453   */\n      0x00\n        /* \"#utility.yul\":12441:12450   */\n      dup4\n        /* \"#utility.yul\":12437:12454   */\n      add\n        /* \"#utility.yul\":12430:12477   */\n      mstore\n        /* \"#utility.yul\":12494:12602   */\n      tag_357\n        /* \"#utility.yul\":12597:12601   */\n      dup2\n        /* \"#utility.yul\":12588:12594   */\n      dup5\n        /* \"#utility.yul\":12494:12602   */\n      tag_325\n      jump\t// in\n    tag_357:\n        /* \"#utility.yul\":12486:12602   */\n      swap1\n      pop\n        /* \"#utility.yul\":12236:12609   */\n      swap3\n      swap2\n      pop\n      pop\n      jump\t// out\n        /* \"#utility.yul\":12615:12837   */\n    tag_34:\n        /* \"#utility.yul\":12708:12712   */\n      0x00\n        /* \"#utility.yul\":12746:12748   */\n      0x20\n        /* \"#utility.yul\":12735:12744   */\n      dup3\n        /* \"#utility.yul\":12731:12749   */\n      add\n        /* \"#utility.yul\":12723:12749   */\n      swap1\n      pop\n        /* \"#utility.yul\":12759:12830   */\n      tag_359\n        /* \"#utility.yul\":12827:12828   */\n      0x00\n        /* \"#utility.yul\":12816:12825   */\n      dup4\n        /* \"#utility.yul\":12812:12829   */\n      add\n        /* \"#utility.yul\":12803:12809   */\n      dup5\n        /* \"#utility.yul\":12759:12830   */\n      tag_334\n      jump\t// in\n    tag_359:\n        /* \"#utility.yul\":12615:12837   */\n      swap3\n      swap2\n      pop\n      pop\n      jump\t// out\n        /* \"#utility.yul\":12843:12972   */\n    tag_210:\n        /* \"#utility.yul\":12877:12883   */\n      0x00\n        /* \"#utility.yul\":12904:12924   */\n      tag_361\n      tag_362\n      jump\t// in\n    tag_361:\n        /* \"#utility.yul\":12894:12924   */\n      swap1\n      pop\n        /* \"#utility.yul\":12933:12966   */\n      tag_363\n        /* \"#utility.yul\":12961:12965   */\n      dup3\n        /* \"#utility.yul\":12953:12959   */\n      dup3\n        /* \"#utility.yul\":12933:12966   */\n      tag_364\n      jump\t// in\n    tag_363:\n        /* \"#utility.yul\":12843:12972   */\n      swap2\n      swap1\n      pop\n      jump\t// out\n        /* \"#utility.yul\":12978:13053   */\n    tag_362:\n        /* \"#utility.yul\":13011:13017   */\n      0x00\n        /* \"#utility.yul\":13044:13046   */\n      0x40\n        /* \"#utility.yul\":13038:13047   */\n      mload\n        /* \"#utility.yul\":13028:13047   */\n      swap1\n      pop\n        /* \"#utility.yul\":12978:13053   */\n      swap1\n      jump\t// out\n        /* \"#utility.yul\":13059:13367   */\n    tag_209:\n        /* \"#utility.yul\":13121:13125   */\n      0x00\n        /* \"#utility.yul\":13211:13229   */\n      0xffffffffffffffff\n        /* \"#utility.yul\":13203:13209   */\n      dup3\n        /* \"#utility.yul\":13200:13230   */\n      gt\n        /* \"#utility.yul\":13197:13253   */\n      iszero\n      tag_367\n      jumpi\n        /* \"#utility.yul\":13233:13251   */\n      tag_368\n      tag_94\n      jump\t// in\n    tag_368:\n        /* \"#utility.yul\":13197:13253   */\n    tag_367:\n        /* \"#utility.yul\":13271:13300   */\n      tag_369\n        /* \"#utility.yul\":13293:13299   */\n      dup3\n        /* \"#utility.yul\":13271:13300   */\n      tag_305\n      jump\t// in\n    tag_369:\n        /* \"#utility.yul\":13263:13300   */\n      swap1\n      pop\n        /* \"#utility.yul\":13355:13359   */\n      0x20\n        /* \"#utility.yul\":13349:13353   */\n      dup2\n        /* \"#utility.yul\":13345:13360   */\n      add\n        /* \"#utility.yul\":13337:13360   */\n      swap1\n      pop\n        /* \"#utility.yul\":13059:13367   */\n      swap2\n      swap1\n      pop\n      jump\t// out\n        /* \"#utility.yul\":13373:13530   */\n    tag_281:\n        /* \"#utility.yul\":13465:13469   */\n      0x00\n        /* \"#utility.yul\":13488:13491   */\n      dup2\n        /* \"#utility.yul\":13480:13491   */\n      swap1\n      pop\n        /* \"#utility.yul\":13518:13522   */\n      0x20\n        /* \"#utility.yul\":13513:13516   */\n      dup3\n        /* \"#utility.yul\":13509:13523   */\n      add\n        /* \"#utility.yul\":13501:13523   */\n      swap1\n      pop\n        /* \"#utility.yul\":13373:13530   */\n      swap2\n      swap1\n      pop\n      jump\t// out\n        /* \"#utility.yul\":13536:13675   */\n    tag_277:\n        /* \"#utility.yul\":13628:13634   */\n      0x00\n        /* \"#utility.yul\":13662:13667   */\n      dup2\n        /* \"#utility.yul\":13656:13668   */\n      mload\n        /* \"#utility.yul\":13646:13668   */\n      swap1\n      pop\n        /* \"#utility.yul\":13536:13675   */\n      swap2\n      swap1\n      pop\n      jump\t// out\n        /* \"#utility.yul\":13681:13780   */\n    tag_299:\n        /* \"#utility.yul\":13733:13739   */\n      0x00\n        /* \"#utility.yul\":13767:13772   */\n      dup2\n        /* \"#utility.yul\":13761:13773   */\n      mload\n        /* \"#utility.yul\":13751:13773   */\n      swap1\n      pop\n        /* \"#utility.yul\":13681:13780   */\n      swap2\n      swap1\n      pop\n      jump\t// out\n        /* \"#utility.yul\":13786:13924   */\n    tag_287:\n        /* \"#utility.yul\":13881:13885   */\n      0x00\n        /* \"#utility.yul\":13913:13917   */\n      0x20\n        /* \"#utility.yul\":13908:13911   */\n      dup3\n        /* \"#utility.yul\":13904:13918   */\n      add\n        /* \"#utility.yul\":13896:13918   */\n      swap1\n      pop\n        /* \"#utility.yul\":13786:13924   */\n      swap2\n      swap1\n      pop\n      jump\t// out\n        /* \"#utility.yul\":13930:14139   */\n    tag_279:\n        /* \"#utility.yul\":14054:14065   */\n      0x00\n        /* \"#utility.yul\":14088:14094   */\n      dup3\n        /* \"#utility.yul\":14083:14086   */\n      dup3\n        /* \"#utility.yul\":14076:14095   */\n      mstore\n        /* \"#utility.yul\":14128:14132   */\n      0x20\n        /* \"#utility.yul\":14123:14126   */\n      dup3\n        /* \"#utility.yul\":14119:14133   */\n      add\n        /* \"#utility.yul\":14104:14133   */\n      swap1\n      pop\n        /* \"#utility.yul\":13930:14139   */\n      swap3\n      swap2\n      pop\n      pop\n      jump\t// out\n        /* \"#utility.yul\":14145:14304   */\n    tag_301:\n        /* \"#utility.yul\":14219:14230   */\n      0x00\n        /* \"#utility.yul\":14253:14259   */\n      dup3\n        /* \"#utility.yul\":14248:14251   */\n      dup3\n        /* \"#utility.yul\":14241:14260   */\n      mstore\n        /* \"#utility.yul\":14293:14297   */\n      0x20\n        /* \"#utility.yul\":14288:14291   */\n      dup3\n        /* \"#utility.yul\":14284:14298   */\n      add\n        /* \"#utility.yul\":14269:14298   */\n      swap1\n      pop\n        /* \"#utility.yul\":14145:14304   */\n      swap3\n      swap2\n      pop\n      pop\n      jump\t// out\n        /* \"#utility.yul\":14310:14479   */\n    tag_310:\n        /* \"#utility.yul\":14394:14405   */\n      0x00\n        /* \"#utility.yul\":14428:14434   */\n      dup3\n        /* \"#utility.yul\":14423:14426   */\n      dup3\n        /* \"#utility.yul\":14416:14435   */\n      mstore\n        /* \"#utility.yul\":14468:14472   */\n      0x20\n        /* \"#utility.yul\":14463:14466   */\n      dup3\n        /* \"#utility.yul\":14459:14473   */\n      add\n        /* \"#utility.yul\":14444:14473   */\n      swap1\n      pop\n        /* \"#utility.yul\":14310:14479   */\n      swap3\n      swap2\n      pop\n      pop\n      jump\t// out\n        /* \"#utility.yul\":14485:14633   */\n    tag_317:\n        /* \"#utility.yul\":14587:14598   */\n      0x00\n        /* \"#utility.yul\":14624:14627   */\n      dup2\n        /* \"#utility.yul\":14609:14627   */\n      swap1\n      pop\n        /* \"#utility.yul\":14485:14633   */\n      swap3\n      swap2\n      pop\n      pop\n      jump\t// out\n        /* \"#utility.yul\":14639:14944   */\n    tag_151:\n        /* \"#utility.yul\":14679:14682   */\n      0x00\n        /* \"#utility.yul\":14698:14718   */\n      tag_379\n        /* \"#utility.yul\":14716:14717   */\n      dup3\n        /* \"#utility.yul\":14698:14718   */\n      tag_333\n      jump\t// in\n    tag_379:\n        /* \"#utility.yul\":14693:14718   */\n      swap2\n      pop\n        /* \"#utility.yul\":14732:14752   */\n      tag_380\n        /* \"#utility.yul\":14750:14751   */\n      dup4\n        /* \"#utility.yul\":14732:14752   */\n      tag_333\n      jump\t// in\n    tag_380:\n        /* \"#utility.yul\":14727:14752   */\n      swap3\n      pop\n        /* \"#utility.yul\":14886:14887   */\n      dup3\n        /* \"#utility.yul\":14818:14884   */\n      0xffffffffffffffffffffffffffffffffffffffffffffffffffffffffffffffff\n        /* \"#utility.yul\":14814:14888   */\n      sub\n        /* \"#utility.yul\":14811:14812   */\n      dup3\n        /* \"#utility.yul\":14808:14889   */\n      gt\n        /* \"#utility.yul\":14805:14912   */\n      iszero\n      tag_381\n      jumpi\n        /* \"#utility.yul\":14892:14910   */\n      tag_382\n      tag_383\n      jump\t// in\n    tag_382:\n        /* \"#utility.yul\":14805:14912   */\n    tag_381:\n        /* \"#utility.yul\":14936:14937   */\n      dup3\n        /* \"#utility.yul\":14933:14934   */\n      dup3\n        /* \"#utility.yul\":14929:14938   */\n      add\n        /* \"#utility.yul\":14922:14938   */\n      swap1\n      pop\n        /* \"#utility.yul\":14639:14944   */\n      swap3\n      swap2\n      pop\n      pop\n      jump\t// out\n        /* \"#utility.yul\":14950:15046   */\n    tag_270:\n        /* \"#utility.yul\":14987:14994   */\n      0x00\n        /* \"#utility.yul\":15016:15040   */\n      tag_385\n        /* \"#utility.yul\":15034:15039   */\n      dup3\n        /* \"#utility.yul\":15016:15040   */\n      tag_386\n      jump\t// in\n    tag_385:\n        /* \"#utility.yul\":15005:15040   */\n      swap1\n      pop\n        /* \"#utility.yul\":14950:15046   */\n      swap2\n      swap1\n      pop\n      jump\t// out\n        /* \"#utility.yul\":15052:15142   */\n    tag_291:\n        /* \"#utility.yul\":15086:15093   */\n      0x00\n        /* \"#utility.yul\":15129:15134   */\n      dup2\n        /* \"#utility.yul\":15122:15135   */\n      iszero\n        /* \"#utility.yul\":15115:15136   */\n      iszero\n        /* \"#utility.yul\":15104:15136   */\n      swap1\n      pop\n        /* \"#utility.yul\":15052:15142   */\n      swap2\n      swap1\n      pop\n      jump\t// out\n        /* \"#utility.yul\":15148:15275   */\n    tag_388:\n        /* \"#utility.yul\":15193:15200   */\n      0x00\n        /* \"#utility.yul\":15222:15227   */\n      dup2\n        /* \"#utility.yul\":15211:15227   */\n      swap1\n      pop\n        /* \"#utility.yul\":15228:15269   */\n      tag_390\n        /* \"#utility.yul\":15263:15268   */\n      dup3\n        /* \"#utility.yul\":15228:15269   */\n      tag_391\n      jump\t// in\n    tag_390:\n        /* \"#utility.yul\":15148:15275   */\n      swap2\n      swap1\n      pop\n      jump\t// out\n        /* \"#utility.yul\":15281:15407   */\n    tag_386:\n        /* \"#utility.yul\":15318:15325   */\n      0x00\n        /* \"#utility.yul\":15358:15400   */\n      0xffffffffffffffffffffffffffffffffffffffff\n        /* \"#utility.yul\":15351:15356   */\n      dup3\n        /* \"#utility.yul\":15347:15401   */\n      and\n        /* \"#utility.yul\":15336:15401   */\n      swap1\n      pop\n        /* \"#utility.yul\":15281:15407   */\n      swap2\n      swap1\n      pop\n      jump\t// out\n        /* \"#utility.yul\":15413:15490   */\n    tag_333:\n        /* \"#utility.yul\":15450:15457   */\n      0x00\n        /* \"#utility.yul\":15479:15484   */\n      dup2\n        /* \"#utility.yul\":15468:15484   */\n      swap1\n      pop\n        /* \"#utility.yul\":15413:15490   */\n      swap2\n      swap1\n      pop\n      jump\t// out\n        /* \"#utility.yul\":15496:15623   */\n    tag_295:\n        /* \"#utility.yul\":15552:15561   */\n      0x00\n        /* \"#utility.yul\":15585:15617   */\n      tag_395\n        /* \"#utility.yul\":15611:15616   */\n      dup3\n        /* \"#utility.yul\":15585:15617   */\n      tag_388\n      jump\t// in\n    tag_395:\n        /* \"#utility.yul\":15572:15617   */\n      swap1\n      pop\n        /* \"#utility.yul\":15496:15623   */\n      swap2\n      swap1\n      pop\n      jump\t// out\n        /* \"#utility.yul\":15629:15783   */\n    tag_215:\n        /* \"#utility.yul\":15713:15719   */\n      dup3\n        /* \"#utility.yul\":15708:15711   */\n      dup2\n        /* \"#utility.yul\":15703:15706   */\n      dup4\n        /* \"#utility.yul\":15690:15720   */\n      calldatacopy\n        /* \"#utility.yul\":15775:15776   */\n      0x00\n        /* \"#utility.yul\":15766:15772   */\n      dup4\n        /* \"#utility.yul\":15761:15764   */\n      dup4\n        /* \"#utility.yul\":15757:15773   */\n      add\n        /* \"#utility.yul\":15750:15777   */\n      mstore\n        /* \"#utility.yul\":15629:15783   */\n      pop\n      pop\n      pop\n      jump\t// out\n        /* \"#utility.yul\":15789:16096   */\n    tag_303:\n        /* \"#utility.yul\":15857:15858   */\n      0x00\n        /* \"#utility.yul\":15867:15980   */\n    tag_398:\n        /* \"#utility.yul\":15881:15887   */\n      dup4\n        /* \"#utility.yul\":15878:15879   */\n      dup2\n        /* \"#utility.yul\":15875:15888   */\n      lt\n        /* \"#utility.yul\":15867:15980   */\n      iszero\n      tag_400\n      jumpi\n        /* \"#utility.yul\":15966:15967   */\n      dup1\n        /* \"#utility.yul\":15961:15964   */\n      dup3\n        /* \"#utility.yul\":15957:15968   */\n      add\n        /* \"#utility.yul\":15951:15969   */\n      mload\n        /* \"#utility.yul\":15947:15948   */\n      dup2\n        /* \"#utility.yul\":15942:15945   */\n      dup5\n        /* \"#utility.yul\":15938:15949   */\n      add\n        /* \"#utility.yul\":15931:15970   */\n      mstore\n        /* \"#utility.yul\":15903:15905   */\n      0x20\n        /* \"#utility.yul\":15900:15901   */\n      dup2\n        /* \"#utility.yul\":15896:15906   */\n      add\n        /* \"#utility.yul\":15891:15906   */\n      swap1\n      pop\n        /* \"#utility.yul\":15867:15980   */\n      jump(tag_398)\n    tag_400:\n        /* \"#utility.yul\":15998:16004   */\n      dup4\n        /* \"#utility.yul\":15995:15996   */\n      dup2\n        /* \"#utility.yul\":15992:16005   */\n      gt\n        /* \"#utility.yul\":15989:16090   */\n      iszero\n      tag_401\n      jumpi\n        /* \"#utility.yul\":16078:16079   */\n      0x00\n        /* \"#utility.yul\":16069:16075   */\n      dup5\n        /* \"#utility.yul\":16064:16067   */\n      dup5\n        /* \"#utility.yul\":16060:16076   */\n      add\n        /* \"#utility.yul\":16053:16080   */\n      mstore\n        /* \"#utility.yul\":15989:16090   */\n    tag_401:\n        /* \"#utility.yul\":15838:16096   */\n      pop\n        /* \"#utility.yul\":15789:16096   */\n      pop\n      pop\n      pop\n      jump\t// out\n        /* \"#utility.yul\":16102:16422   */\n    tag_86:\n        /* \"#utility.yul\":16146:16152   */\n      0x00\n        /* \"#utility.yul\":16183:16184   */\n      0x02\n        /* \"#utility.yul\":16177:16181   */\n      dup3\n        /* \"#utility.yul\":16173:16185   */\n      div\n        /* \"#utility.yul\":16163:16185   */\n      swap1\n      pop\n        /* \"#utility.yul\":16230:16231   */\n      0x01\n        /* \"#utility.yul\":16224:16228   */\n      dup3\n        /* \"#utility.yul\":16220:16232   */\n      and\n        /* \"#utility.yul\":16251:16269   */\n      dup1\n        /* \"#utility.yul\":16241:16322   */\n      tag_403\n      jumpi\n        /* \"#utility.yul\":16307:16311   */\n      0x7f\n        /* \"#utility.yul\":16299:16305   */\n      dup3\n        /* \"#utility.yul\":16295:16312   */\n      and\n        /* \"#utility.yul\":16285:16312   */\n      swap2\n      pop\n        /* \"#utility.yul\":16241:16322   */\n    tag_403:\n        /* \"#utility.yul\":16369:16371   */\n      0x20\n        /* \"#utility.yul\":16361:16367   */\n      dup3\n        /* \"#utility.yul\":16358:16372   */\n      lt\n        /* \"#utility.yul\":16338:16356   */\n      dup2\n        /* \"#utility.yul\":16335:16373   */\n      eq\n        /* \"#utility.yul\":16332:16416   */\n      iszero\n      tag_404\n      jumpi\n        /* \"#utility.yul\":16388:16406   */\n      tag_405\n      tag_406\n      jump\t// in\n    tag_405:\n        /* \"#utility.yul\":16332:16416   */\n    tag_404:\n        /* \"#utility.yul\":16153:16422   */\n      pop\n        /* \"#utility.yul\":16102:16422   */\n      swap2\n      swap1\n      pop\n      jump\t// out\n        /* \"#utility.yul\":16428:16709   */\n    tag_364:\n        /* \"#utility.yul\":16511:16538   */\n      tag_408\n        /* \"#utility.yul\":16533:16537   */\n      dup3\n        /* \"#utility.yul\":16511:16538   */\n      tag_305\n      jump\t// in\n    tag_408:\n        /* \"#utility.yul\":16503:16509   */\n      dup2\n        /* \"#utility.yul\":16499:16539   */\n      add\n        /* \"#utility.yul\":16641:16647   */\n      dup2\n        /* \"#utility.yul\":16629:16639   */\n      dup2\n        /* \"#utility.yul\":16626:16648   */\n      lt\n        /* \"#utility.yul\":16605:16623   */\n      0xffffffffffffffff\n        /* \"#utility.yul\":16593:16603   */\n      dup3\n        /* \"#utility.yul\":16590:16624   */\n      gt\n        /* \"#utility.yul\":16587:16649   */\n      or\n        /* \"#utility.yul\":16584:16672   */\n      iszero\n      tag_409\n      jumpi\n        /* \"#utility.yul\":16652:16670   */\n      tag_410\n      tag_94\n      jump\t// in\n    tag_410:\n        /* \"#utility.yul\":16584:16672   */\n    tag_409:\n        /* \"#utility.yul\":16692:16702   */\n      dup1\n        /* \"#utility.yul\":16688:16690   */\n      0x40\n        /* \"#utility.yul\":16681:16703   */\n      mstore\n        /* \"#utility.yul\":16471:16709   */\n      pop\n        /* \"#utility.yul\":16428:16709   */\n      pop\n      pop\n      jump\t// out\n        /* \"#utility.yul\":16715:16948   */\n    tag_116:\n        /* \"#utility.yul\":16754:16757   */\n      0x00\n        /* \"#utility.yul\":16777:16801   */\n      tag_412\n        /* \"#utility.yul\":16795:16800   */\n      dup3\n        /* \"#utility.yul\":16777:16801   */\n      tag_333\n      jump\t// in\n    tag_412:\n        /* \"#utility.yul\":16768:16801   */\n      swap2\n      pop\n        /* \"#utility.yul\":16823:16889   */\n      0xffffffffffffffffffffffffffffffffffffffffffffffffffffffffffffffff\n        /* \"#utility.yul\":16816:16821   */\n      dup3\n        /* \"#utility.yul\":16813:16890   */\n      eq\n        /* \"#utility.yul\":16810:16913   */\n      iszero\n      tag_413\n      jumpi\n        /* \"#utility.yul\":16893:16911   */\n      tag_414\n      tag_383\n      jump\t// in\n    tag_414:\n        /* \"#utility.yul\":16810:16913   */\n    tag_413:\n        /* \"#utility.yul\":16940:16941   */\n      0x01\n        /* \"#utility.yul\":16933:16938   */\n      dup3\n        /* \"#utility.yul\":16929:16942   */\n      add\n        /* \"#utility.yul\":16922:16942   */\n      swap1\n      pop\n        /* \"#utility.yul\":16715:16948   */\n      swap2\n      swap1\n      pop\n      jump\t// out\n        /* \"#utility.yul\":16954:17134   */\n    tag_383:\n        /* \"#utility.yul\":17002:17079   */\n      0x4e487b7100000000000000000000000000000000000000000000000000000000\n        /* \"#utility.yul\":16999:17000   */\n      0x00\n        /* \"#utility.yul\":16992:17080   */\n      mstore\n        /* \"#utility.yul\":17099:17103   */\n      0x11\n        /* \"#utility.yul\":17096:17097   */\n      0x04\n        /* \"#utility.yul\":17089:17104   */\n      mstore\n        /* \"#utility.yul\":17123:17127   */\n      0x24\n        /* \"#utility.yul\":17120:17121   */\n      0x00\n        /* \"#utility.yul\":17113:17128   */\n      revert\n        /* \"#utility.yul\":17140:17320   */\n    tag_135:\n        /* \"#utility.yul\":17188:17265   */\n      0x4e487b7100000000000000000000000000000000000000000000000000000000\n        /* \"#utility.yul\":17185:17186   */\n      0x00\n        /* \"#utility.yul\":17178:17266   */\n      mstore\n        /* \"#utility.yul\":17285:17289   */\n      0x21\n        /* \"#utility.yul\":17282:17283   */\n      0x04\n        /* \"#utility.yul\":17275:17290   */\n      mstore\n        /* \"#utility.yul\":17309:17313   */\n      0x24\n        /* \"#utility.yul\":17306:17307   */\n      0x00\n        /* \"#utility.yul\":17299:17314   */\n      revert\n        /* \"#utility.yul\":17326:17506   */\n    tag_406:\n        /* \"#utility.yul\":17374:17451   */\n      0x4e487b7100000000000000000000000000000000000000000000000000000000\n        /* \"#utility.yul\":17371:17372   */\n      0x00\n        /* \"#utility.yul\":17364:17452   */\n      mstore\n        /* \"#utility.yul\":17471:17475   */\n      0x22\n        /* \"#utility.yul\":17468:17469   */\n      0x04\n        /* \"#utility.yul\":17461:17476   */\n      mstore\n        /* \"#utility.yul\":17495:17499   */\n      0x24\n        /* \"#utility.yul\":17492:17493   */\n      0x00\n        /* \"#utility.yul\":17485:17500   */\n      revert\n        /* \"#utility.yul\":17512:17692   */\n    tag_114:\n        /* \"#utility.yul\":17560:17637   */\n      0x4e487b7100000000000000000000000000000000000000000000000000000000\n        /* \"#utility.yul\":17557:17558   */\n      0x00\n        /* \"#utility.yul\":17550:17638   */\n      mstore\n        /* \"#utility.yul\":17657:17661   */\n      0x32\n        /* \"#utility.yul\":17654:17655   */\n      0x04\n        /* \"#utility.yul\":17647:17662   */\n      mstore\n        /* \"#utility.yul\":17681:17685   */\n      0x24\n        /* \"#utility.yul\":17678:17679   */\n      0x00\n        /* \"#utility.yul\":17671:17686   */\n      revert\n        /* \"#utility.yul\":17698:17878   */\n    tag_94:\n        /* \"#utility.yul\":17746:17823   */\n      0x4e487b7100000000000000000000000000000000000000000000000000000000\n        /* \"#utility.yul\":17743:17744   */\n      0x00\n        /* \"#utility.yul\":17736:17824   */\n      mstore\n        /* \"#utility.yul\":17843:17847   */\n      0x41\n        /* \"#utility.yul\":17840:17841   */\n      0x04\n        /* \"#utility.yul\":17833:17848   */\n      mstore\n        /* \"#utility.yul\":17867:17871   */\n      0x24\n        /* \"#utility.yul\":17864:17865   */\n      0x00\n        /* \"#utility.yul\":17857:17872   */\n      revert\n        /* \"#utility.yul\":17884:18001   */\n    tag_224:\n        /* \"#utility.yul\":17993:17994   */\n      0x00\n        /* \"#utility.yul\":17990:17991   */\n      dup1\n        /* \"#utility.yul\":17983:17995   */\n      revert\n        /* \"#utility.yul\":18007:18124   */\n    tag_213:\n        /* \"#utility.yul\":18116:18117   */\n      0x00\n        /* \"#utility.yul\":18113:18114   */\n      dup1\n        /* \"#utility.yul\":18106:18118   */\n      revert\n        /* \"#utility.yul\":18130:18247   */\n    tag_241:\n        /* \"#utility.yul\":18239:18240   */\n      0x00\n        /* \"#utility.yul\":18236:18237   */\n      dup1\n        /* \"#utility.yul\":18229:18241   */\n      revert\n        /* \"#utility.yul\":18253:18370   */\n    tag_233:\n        /* \"#utility.yul\":18362:18363   */\n      0x00\n        /* \"#utility.yul\":18359:18360   */\n      dup1\n        /* \"#utility.yul\":18352:18364   */\n      revert\n        /* \"#utility.yul\":18376:18478   */\n    tag_305:\n        /* \"#utility.yul\":18417:18423   */\n      0x00\n        /* \"#utility.yul\":18468:18470   */\n      0x1f\n        /* \"#utility.yul\":18464:18471   */\n      not\n        /* \"#utility.yul\":18459:18461   */\n      0x1f\n        /* \"#utility.yul\":18452:18457   */\n      dup4\n        /* \"#utility.yul\":18448:18462   */\n      add\n        /* \"#utility.yul\":18444:18472   */\n      and\n        /* \"#utility.yul\":18434:18472   */\n      swap1\n      pop\n        /* \"#utility.yul\":18376:18478   */\n      swap2\n      swap1\n      pop\n      jump\t// out\n        /* \"#utility.yul\":18484:18597   */\n    tag_391:\n        /* \"#utility.yul\":18565:18566   */\n      0x03\n        /* \"#utility.yul\":18558:18563   */\n      dup2\n        /* \"#utility.yul\":18555:18567   */\n      lt\n        /* \"#utility.yul\":18545:18591   */\n      tag_426\n      jumpi\n        /* \"#utility.yul\":18571:18589   */\n      tag_427\n      tag_135\n      jump\t// in\n    tag_427:\n        /* \"#utility.yul\":18545:18591   */\n    tag_426:\n        /* \"#utility.yul\":18484:18597   */\n      pop\n      jump\t// out\n        /* \"#utility.yul\":18603:18725   */\n    tag_219:\n        /* \"#utility.yul\":18676:18700   */\n      tag_429\n        /* \"#utility.yul\":18694:18699   */\n      dup2\n        /* \"#utility.yul\":18676:18700   */\n      tag_270\n      jump\t// in\n    tag_429:\n        /* \"#utility.yul\":18669:18674   */\n      dup2\n        /* \"#utility.yul\":18666:18701   */\n      eq\n        /* \"#utility.yul\":18656:18719   */\n      tag_430\n      jumpi\n        /* \"#utility.yul\":18715:18716   */\n      0x00\n        /* \"#utility.yul\":18712:18713   */\n      dup1\n        /* \"#utility.yul\":18705:18717   */\n      revert\n        /* \"#utility.yul\":18656:18719   */\n    tag_430:\n        /* \"#utility.yul\":18603:18725   */\n      pop\n      jump\t// out\n        /* \"#utility.yul\":18731:18853   */\n    tag_229:\n        /* \"#utility.yul\":18804:18828   */\n      tag_432\n        /* \"#utility.yul\":18822:18827   */\n      dup2\n        /* \"#utility.yul\":18804:18828   */\n      tag_333\n      jump\t// in\n    tag_432:\n        /* \"#utility.yul\":18797:18802   */\n      dup2\n        /* \"#utility.yul\":18794:18829   */\n      eq\n        /* \"#utility.yul\":18784:18847   */\n      tag_433\n      jumpi\n        /* \"#utility.yul\":18843:18844   */\n      0x00\n        /* \"#utility.yul\":18840:18841   */\n      dup1\n        /* \"#utility.yul\":18833:18845   */\n      revert\n        /* \"#utility.yul\":18784:18847   */\n    tag_433:\n        /* \"#utility.yul\":18731:18853   */\n      pop\n      jump\t// out\n\n    auxdata: 0xa2646970667358221220e53793a9fbcf9fc8caa35ae9f216b67922b207bd7f9de485b3088fbd75173a5d64736f6c63430008070033\n}\n",
				"bytecode": {
					"linkReferences": {},
					"object": "60806040523480156200001157600080fd5b5060405162002085380380620020858339818101604052810190620000379190620001f4565b33600960016101000a81548173ffffffffffffffffffffffffffffffffffffffff021916908373ffffffffffffffffffffffffffffffffffffffff16021790555080600a908051906020019062000090929190620000c6565b506000600960006101000a81548160ff02191690836002811115620000ba57620000b962000346565b5b021790555050620003f8565b828054620000d490620002da565b90600052602060002090601f016020900481019282620000f8576000855562000144565b82601f106200011357805160ff191683800117855562000144565b8280016001018555821562000144579182015b828111156200014357825182559160200191906001019062000126565b5b50905062000153919062000157565b5090565b5b808211156200017257600081600090555060010162000158565b5090565b60006200018d62000187846200026e565b62000245565b905082815260208101848484011115620001ac57620001ab620003d8565b5b620001b9848285620002a4565b509392505050565b600082601f830112620001d957620001d8620003d3565b5b8151620001eb84826020860162000176565b91505092915050565b6000602082840312156200020d576200020c620003e2565b5b600082015167ffffffffffffffff8111156200022e576200022d620003dd565b5b6200023c84828501620001c1565b91505092915050565b60006200025162000264565b90506200025f828262000310565b919050565b6000604051905090565b600067ffffffffffffffff8211156200028c576200028b620003a4565b5b6200029782620003e7565b9050602081019050919050565b60005b83811015620002c4578082015181840152602081019050620002a7565b83811115620002d4576000848401525b50505050565b60006002820490506001821680620002f357607f821691505b602082108114156200030a576200030962000375565b5b50919050565b6200031b82620003e7565b810181811067ffffffffffffffff821117156200033d576200033c620003a4565b5b80604052505050565b7f4e487b7100000000000000000000000000000000000000000000000000000000600052602160045260246000fd5b7f4e487b7100000000000000000000000000000000000000000000000000000000600052602260045260246000fd5b7f4e487b7100000000000000000000000000000000000000000000000000000000600052604160045260246000fd5b600080fd5b600080fd5b600080fd5b600080fd5b6000601f19601f8301169050919050565b611c7d80620004086000396000f3fe608060405234801561001057600080fd5b50600436106100f55760003560e01c806362c4925111610097578063c19d93fb11610066578063c19d93fb14610294578063d82d4eb9146102b2578063d9e95a98146102e2578063f276669d146102fe576100f5565b806362c492511461020957806372753be51461022557806380843e25146102585780638949e00914610276576100f5565b806312c06342116100d357806312c06342146101685780632d35a8a21461019a57806346702b16146101b85780635f5300ff146101eb576100f5565b806303a0d535146100fa57806306a49fce1461012c5780630d15fd771461014a575b600080fd5b610114600480360381019061010f9190611497565b61032e565b604051610123939291906117af565b60405180910390f35b61013461040d565b6040516101419190611750565b60405180910390f35b610152610657565b60405161015f9190611862565b60405180910390f35b610182600480360381019061017d919061133a565b61065d565b604051610191939291906117af565b60405180910390f35b6101a261073c565b6040516101af9190611862565b60405180910390f35b6101d260048036038101906101cd919061144e565b610742565b6040516101e294939291906117ed565b60405180910390f35b6101f36108b8565b6040516102009190611862565b60405180910390f35b610223600480360381019061021e91906113c3565b6108be565b005b61023f600480360381019061023a9190611497565b610b18565b60405161024f94939291906117ed565b60405180910390f35b610260610c78565b60405161026d919061178d565b60405180910390f35b61027e610d06565b60405161028b9190611735565b60405180910390f35b61029c610d2c565b6040516102a99190611772565b60405180910390f35b6102cc60048036038101906102c7919061133a565b610d3f565b6040516102d99190611862565b60405180910390f35b6102fc60048036038101906102f79190611367565b610d57565b005b6103186004803603810190610313919061144e565b610fca565b6040516103259190611840565b60405180910390f35b600360205280600052604060002060009150905080600001805461035190611a49565b80601f016020809104026020016040519081016040528092919081815260200182805461037d90611a49565b80156103ca5780601f1061039f576101008083540402835291602001916103ca565b820191906000526020600020905b8154815290600101906020018083116103ad57829003601f168201915b5050505050908060010160009054906101000a900473ffffffffffffffffffffffffffffffffffffffff16908060010160149054906101000a900460ff16905083565b6060600060065467ffffffffffffffff81111561042d5761042c611bb1565b5b60405190808252806020026020018201604052801561046657816020015b610453611186565b81526020019060019003908161044b5790505b50905060005b60065481101561064f576000600460008381526020019081526020016000209050806040518060800160405290816000820180546104a990611a49565b80601f01602080910402602001604051908101604052809291908181526020018280546104d590611a49565b80156105225780601f106104f757610100808354040283529160200191610522565b820191906000526020600020905b81548152906001019060200180831161050557829003601f168201915b505050505081526020016001820160009054906101000a900473ffffffffffffffffffffffffffffffffffffffff1673ffffffffffffffffffffffffffffffffffffffff1673ffffffffffffffffffffffffffffffffffffffff1681526020016002820154815260200160038201805461059b90611a49565b80601f01602080910402602001604051908101604052809291908181526020018280546105c790611a49565b80156106145780601f106105e957610100808354040283529160200191610614565b820191906000526020600020905b8154815290600101906020018083116105f757829003601f168201915b5050505050815250508383815181106106305761062f611b82565b5b602002602001018190525050808061064790611aac565b91505061046c565b508091505090565b60085481565b600060205280600052604060002060009150905080600001805461068090611a49565b80601f01602080910402602001604051908101604052809291908181526020018280546106ac90611a49565b80156106f95780601f106106ce576101008083540402835291602001916106f9565b820191906000526020600020905b8154815290600101906020018083116106dc57829003601f168201915b5050505050908060010160009054906101000a900473ffffffffffffffffffffffffffffffffffffffff16908060010160149054906101000a900460ff16905083565b60065481565b60058180516020810182018051848252602083016020850120818352809550505050505060009150905080600001805461077b90611a49565b80601f01602080910402602001604051908101604052809291908181526020018280546107a790611a49565b80156107f45780601f106107c9576101008083540402835291602001916107f4565b820191906000526020600020905b8154815290600101906020018083116107d757829003601f168201915b5050505050908060010160009054906101000a900473ffffffffffffffffffffffffffffffffffffffff169080600201549080600301805461083590611a49565b80601f016020809104026020016040519081016040528092919081815260200182805461086190611a49565b80156108ae5780601f10610883576101008083540402835291602001916108ae565b820191906000526020600020905b81548152906001019060200180831161089157829003601f168201915b5050505050905084565b60075481565b60008060028111156108d3576108d2611b24565b5b600960009054906101000a900460ff1660028111156108f5576108f4611b24565b5b146108ff57600080fd5b3373ffffffffffffffffffffffffffffffffffffffff16600960019054906101000a900473ffffffffffffffffffffffffffffffffffffffff1673ffffffffffffffffffffffffffffffffffffffff161461095957600080fd5b610961611186565b84816020019073ffffffffffffffffffffffffffffffffffffffff16908173ffffffffffffffffffffffffffffffffffffffff16815250508381600001819052508281606001819052508060046000600654815260200190815260200160002060008201518160000190805190602001906109dd9291906111c4565b5060208201518160010160006101000a81548173ffffffffffffffffffffffffffffffffffffffff021916908373ffffffffffffffffffffffffffffffffffffffff160217905550604082015181600201556060820151816003019080519060200190610a4b9291906111c4565b5090505080600584604051610a60919061171e565b90815260200160405180910390206000820151816000019080519060200190610a8a9291906111c4565b5060208201518160010160006101000a81548173ffffffffffffffffffffffffffffffffffffffff021916908373ffffffffffffffffffffffffffffffffffffffff160217905550604082015181600201556060820151816003019080519060200190610af89291906111c4565b509050506001600654610b0b9190611944565b6006819055505050505050565b6004602052806000526040600020600091509050806000018054610b3b90611a49565b80601f0160208091040260200160405190810160405280929190818152602001828054610b6790611a49565b8015610bb45780601f10610b8957610100808354040283529160200191610bb4565b820191906000526020600020905b815481529060010190602001808311610b9757829003601f168201915b5050505050908060010160009054906101000a900473ffffffffffffffffffffffffffffffffffffffff1690806002015490806003018054610bf590611a49565b80601f0160208091040260200160405190810160405280929190818152602001828054610c2190611a49565b8015610c6e5780601f10610c4357610100808354040283529160200191610c6e565b820191906000526020600020905b815481529060010190602001808311610c5157829003601f168201915b5050505050905084565b600a8054610c8590611a49565b80601f0160208091040260200160405190810160405280929190818152602001828054610cb190611a49565b8015610cfe5780601f10610cd357610100808354040283529160200191610cfe565b820191906000526020600020905b815481529060010190602001808311610ce157829003601f168201915b505050505081565b600960019054906101000a900473ffffffffffffffffffffffffffffffffffffffff1681565b600960009054906101000a900460ff1681565b60026020528060005260406000206000915090505481565b6000806002811115610d6c57610d6b611b24565b5b600960009054906101000a900460ff166002811115610d8e57610d8d611b24565b5b14610d9857600080fd5b3373ffffffffffffffffffffffffffffffffffffffff16600960019054906101000a900473ffffffffffffffffffffffffffffffffffffffff1673ffffffffffffffffffffffffffffffffffffffff1614610df257600080fd5b610dfa61124a565b83816020019073ffffffffffffffffffffffffffffffffffffffff16908173ffffffffffffffffffffffffffffffffffffffff16815250508281600001819052506000816040019015159081151581525050806000808673ffffffffffffffffffffffffffffffffffffffff1673ffffffffffffffffffffffffffffffffffffffff1681526020019081526020016000206000820151816000019080519060200190610ea79291906111c4565b5060208201518160010160006101000a81548173ffffffffffffffffffffffffffffffffffffffff021916908373ffffffffffffffffffffffffffffffffffffffff16021790555060408201518160010160146101000a81548160ff021916908315150217905550905050806003600060075481526020019081526020016000206000820151816000019080519060200190610f449291906111c4565b5060208201518160010160006101000a81548173ffffffffffffffffffffffffffffffffffffffff021916908373ffffffffffffffffffffffffffffffffffffffff16021790555060408201518160010160146101000a81548160ff0219169083151502179055509050506001600754610fbe9190611944565b60078190555050505050565b610fd2611186565b600582604051610fe2919061171e565b908152602001604051809103902060405180608001604052908160008201805461100b90611a49565b80601f016020809104026020016040519081016040528092919081815260200182805461103790611a49565b80156110845780601f1061105957610100808354040283529160200191611084565b820191906000526020600020905b81548152906001019060200180831161106757829003601f168201915b505050505081526020016001820160009054906101000a900473ffffffffffffffffffffffffffffffffffffffff1673ffffffffffffffffffffffffffffffffffffffff1673ffffffffffffffffffffffffffffffffffffffff168152602001600282015481526020016003820180546110fd90611a49565b80601f016020809104026020016040519081016040528092919081815260200182805461112990611a49565b80156111765780601f1061114b57610100808354040283529160200191611176565b820191906000526020600020905b81548152906001019060200180831161115957829003601f168201915b5050505050815250509050919050565b604051806080016040528060608152602001600073ffffffffffffffffffffffffffffffffffffffff16815260200160008152602001606081525090565b8280546111d090611a49565b90600052602060002090601f0160209004810192826111f25760008555611239565b82601f1061120b57805160ff1916838001178555611239565b82800160010185558215611239579182015b8281111561123857825182559160200191906001019061121d565b5b5090506112469190611283565b5090565b604051806060016040528060608152602001600073ffffffffffffffffffffffffffffffffffffffff1681526020016000151581525090565b5b8082111561129c576000816000905550600101611284565b5090565b60006112b36112ae846118a2565b61187d565b9050828152602081018484840111156112cf576112ce611be5565b5b6112da848285611a07565b509392505050565b6000813590506112f181611c19565b92915050565b600082601f83011261130c5761130b611be0565b5b813561131c8482602086016112a0565b91505092915050565b60008135905061133481611c30565b92915050565b6000602082840312156113505761134f611bef565b5b600061135e848285016112e2565b91505092915050565b6000806040838503121561137e5761137d611bef565b5b600061138c858286016112e2565b925050602083013567ffffffffffffffff8111156113ad576113ac611bea565b5b6113b9858286016112f7565b9150509250929050565b6000806000606084860312156113dc576113db611bef565b5b60006113ea868287016112e2565b935050602084013567ffffffffffffffff81111561140b5761140a611bea565b5b611417868287016112f7565b925050604084013567ffffffffffffffff81111561143857611437611bea565b5b611444868287016112f7565b9150509250925092565b60006020828403121561146457611463611bef565b5b600082013567ffffffffffffffff81111561148257611481611bea565b5b61148e848285016112f7565b91505092915050565b6000602082840312156114ad576114ac611bef565b5b60006114bb84828501611325565b91505092915050565b60006114d0838361162c565b905092915050565b6114e18161199a565b82525050565b6114f08161199a565b82525050565b6000611501826118e3565b61150b8185611906565b93508360208202850161151d856118d3565b8060005b85811015611559578484038952815161153a85826114c4565b9450611545836118f9565b925060208a01995050600181019050611521565b50829750879550505050505092915050565b611574816119ac565b82525050565b611583816119f5565b82525050565b6000611594826118ee565b61159e8185611917565b93506115ae818560208601611a16565b6115b781611bf4565b840191505092915050565b60006115cd826118ee565b6115d78185611928565b93506115e7818560208601611a16565b6115f081611bf4565b840191505092915050565b6000611606826118ee565b6116108185611939565b9350611620818560208601611a16565b80840191505092915050565b600060808301600083015184820360008601526116498282611589565b915050602083015161165e60208601826114d8565b5060408301516116716040860182611700565b50606083015184820360608601526116898282611589565b9150508091505092915050565b600060808301600083015184820360008601526116b38282611589565b91505060208301516116c860208601826114d8565b5060408301516116db6040860182611700565b50606083015184820360608601526116f38282611589565b9150508091505092915050565b611709816119eb565b82525050565b611718816119eb565b82525050565b600061172a82846115fb565b915081905092915050565b600060208201905061174a60008301846114e7565b92915050565b6000602082019050818103600083015261176a81846114f6565b905092915050565b6000602082019050611787600083018461157a565b92915050565b600060208201905081810360008301526117a781846115c2565b905092915050565b600060608201905081810360008301526117c981866115c2565b90506117d860208301856114e7565b6117e5604083018461156b565b949350505050565b6000608082019050818103600083015261180781876115c2565b905061181660208301866114e7565b611823604083018561170f565b818103606083015261183581846115c2565b905095945050505050565b6000602082019050818103600083015261185a8184611696565b905092915050565b6000602082019050611877600083018461170f565b92915050565b6000611887611898565b90506118938282611a7b565b919050565b6000604051905090565b600067ffffffffffffffff8211156118bd576118bc611bb1565b5b6118c682611bf4565b9050602081019050919050565b6000819050602082019050919050565b600081519050919050565b600081519050919050565b6000602082019050919050565b600082825260208201905092915050565b600082825260208201905092915050565b600082825260208201905092915050565b600081905092915050565b600061194f826119eb565b915061195a836119eb565b9250827fffffffffffffffffffffffffffffffffffffffffffffffffffffffffffffffff0382111561198f5761198e611af5565b5b828201905092915050565b60006119a5826119cb565b9050919050565b60008115159050919050565b60008190506119c682611c05565b919050565b600073ffffffffffffffffffffffffffffffffffffffff82169050919050565b6000819050919050565b6000611a00826119b8565b9050919050565b82818337600083830152505050565b60005b83811015611a34578082015181840152602081019050611a19565b83811115611a43576000848401525b50505050565b60006002820490506001821680611a6157607f821691505b60208210811415611a7557611a74611b53565b5b50919050565b611a8482611bf4565b810181811067ffffffffffffffff82111715611aa357611aa2611bb1565b5b80604052505050565b6000611ab7826119eb565b91507fffffffffffffffffffffffffffffffffffffffffffffffffffffffffffffffff821415611aea57611ae9611af5565b5b600182019050919050565b7f4e487b7100000000000000000000000000000000000000000000000000000000600052601160045260246000fd5b7f4e487b7100000000000000000000000000000000000000000000000000000000600052602160045260246000fd5b7f4e487b7100000000000000000000000000000000000000000000000000000000600052602260045260246000fd5b7f4e487b7100000000000000000000000000000000000000000000000000000000600052603260045260246000fd5b7f4e487b7100000000000000000000000000000000000000000000000000000000600052604160045260246000fd5b600080fd5b600080fd5b600080fd5b600080fd5b6000601f19601f8301169050919050565b60038110611c1657611c15611b24565b5b50565b611c228161199a565b8114611c2d57600080fd5b50565b611c39816119eb565b8114611c4457600080fd5b5056fea2646970667358221220e53793a9fbcf9fc8caa35ae9f216b67922b207bd7f9de485b3088fbd75173a5d64736f6c63430008070033",
					"opcodes": "PUSH1 0x80 PUSH1 0x40 MSTORE CALLVALUE DUP1 ISZERO PUSH3 0x11 JUMPI PUSH1 0x0 DUP1 REVERT JUMPDEST POP PUSH1 0x40 MLOAD PUSH3 0x2085 CODESIZE SUB DUP1 PUSH3 0x2085 DUP4 CODECOPY DUP2 DUP2 ADD PUSH1 0x40 MSTORE DUP2 ADD SWAP1 PUSH3 0x37 SWAP2 SWAP1 PUSH3 0x1F4 JUMP JUMPDEST CALLER PUSH1 0x9 PUSH1 0x1 PUSH2 0x100 EXP DUP2 SLOAD DUP2 PUSH20 0xFFFFFFFFFFFFFFFFFFFFFFFFFFFFFFFFFFFFFFFF MUL NOT AND SWAP1 DUP4 PUSH20 0xFFFFFFFFFFFFFFFFFFFFFFFFFFFFFFFFFFFFFFFF AND MUL OR SWAP1 SSTORE POP DUP1 PUSH1 0xA SWAP1 DUP1 MLOAD SWAP1 PUSH1 0x20 ADD SWAP1 PUSH3 0x90 SWAP3 SWAP2 SWAP1 PUSH3 0xC6 JUMP JUMPDEST POP PUSH1 0x0 PUSH1 0x9 PUSH1 0x0 PUSH2 0x100 EXP DUP2 SLOAD DUP2 PUSH1 0xFF MUL NOT AND SWAP1 DUP4 PUSH1 0x2 DUP2 GT ISZERO PUSH3 0xBA JUMPI PUSH3 0xB9 PUSH3 0x346 JUMP JUMPDEST JUMPDEST MUL OR SWAP1 SSTORE POP POP PUSH3 0x3F8 JUMP JUMPDEST DUP3 DUP1 SLOAD PUSH3 0xD4 SWAP1 PUSH3 0x2DA JUMP JUMPDEST SWAP1 PUSH1 0x0 MSTORE PUSH1 0x20 PUSH1 0x0 KECCAK256 SWAP1 PUSH1 0x1F ADD PUSH1 0x20 SWAP1 DIV DUP2 ADD SWAP3 DUP3 PUSH3 0xF8 JUMPI PUSH1 0x0 DUP6 SSTORE PUSH3 0x144 JUMP JUMPDEST DUP3 PUSH1 0x1F LT PUSH3 0x113 JUMPI DUP1 MLOAD PUSH1 0xFF NOT AND DUP4 DUP1 ADD OR DUP6 SSTORE PUSH3 0x144 JUMP JUMPDEST DUP3 DUP1 ADD PUSH1 0x1 ADD DUP6 SSTORE DUP3 ISZERO PUSH3 0x144 JUMPI SWAP2 DUP3 ADD JUMPDEST DUP3 DUP2 GT ISZERO PUSH3 0x143 JUMPI DUP3 MLOAD DUP3 SSTORE SWAP2 PUSH1 0x20 ADD SWAP2 SWAP1 PUSH1 0x1 ADD SWAP1 PUSH3 0x126 JUMP JUMPDEST JUMPDEST POP SWAP1 POP PUSH3 0x153 SWAP2 SWAP1 PUSH3 0x157 JUMP JUMPDEST POP SWAP1 JUMP JUMPDEST JUMPDEST DUP1 DUP3 GT ISZERO PUSH3 0x172 JUMPI PUSH1 0x0 DUP2 PUSH1 0x0 SWAP1 SSTORE POP PUSH1 0x1 ADD PUSH3 0x158 JUMP JUMPDEST POP SWAP1 JUMP JUMPDEST PUSH1 0x0 PUSH3 0x18D PUSH3 0x187 DUP5 PUSH3 0x26E JUMP JUMPDEST PUSH3 0x245 JUMP JUMPDEST SWAP1 POP DUP3 DUP2 MSTORE PUSH1 0x20 DUP2 ADD DUP5 DUP5 DUP5 ADD GT ISZERO PUSH3 0x1AC JUMPI PUSH3 0x1AB PUSH3 0x3D8 JUMP JUMPDEST JUMPDEST PUSH3 0x1B9 DUP5 DUP3 DUP6 PUSH3 0x2A4 JUMP JUMPDEST POP SWAP4 SWAP3 POP POP POP JUMP JUMPDEST PUSH1 0x0 DUP3 PUSH1 0x1F DUP4 ADD SLT PUSH3 0x1D9 JUMPI PUSH3 0x1D8 PUSH3 0x3D3 JUMP JUMPDEST JUMPDEST DUP2 MLOAD PUSH3 0x1EB DUP5 DUP3 PUSH1 0x20 DUP7 ADD PUSH3 0x176 JUMP JUMPDEST SWAP2 POP POP SWAP3 SWAP2 POP POP JUMP JUMPDEST PUSH1 0x0 PUSH1 0x20 DUP3 DUP5 SUB SLT ISZERO PUSH3 0x20D JUMPI PUSH3 0x20C PUSH3 0x3E2 JUMP JUMPDEST JUMPDEST PUSH1 0x0 DUP3 ADD MLOAD PUSH8 0xFFFFFFFFFFFFFFFF DUP2 GT ISZERO PUSH3 0x22E JUMPI PUSH3 0x22D PUSH3 0x3DD JUMP JUMPDEST JUMPDEST PUSH3 0x23C DUP5 DUP3 DUP6 ADD PUSH3 0x1C1 JUMP JUMPDEST SWAP2 POP POP SWAP3 SWAP2 POP POP JUMP JUMPDEST PUSH1 0x0 PUSH3 0x251 PUSH3 0x264 JUMP JUMPDEST SWAP1 POP PUSH3 0x25F DUP3 DUP3 PUSH3 0x310 JUMP JUMPDEST SWAP2 SWAP1 POP JUMP JUMPDEST PUSH1 0x0 PUSH1 0x40 MLOAD SWAP1 POP SWAP1 JUMP JUMPDEST PUSH1 0x0 PUSH8 0xFFFFFFFFFFFFFFFF DUP3 GT ISZERO PUSH3 0x28C JUMPI PUSH3 0x28B PUSH3 0x3A4 JUMP JUMPDEST JUMPDEST PUSH3 0x297 DUP3 PUSH3 0x3E7 JUMP JUMPDEST SWAP1 POP PUSH1 0x20 DUP2 ADD SWAP1 POP SWAP2 SWAP1 POP JUMP JUMPDEST PUSH1 0x0 JUMPDEST DUP4 DUP2 LT ISZERO PUSH3 0x2C4 JUMPI DUP1 DUP3 ADD MLOAD DUP2 DUP5 ADD MSTORE PUSH1 0x20 DUP2 ADD SWAP1 POP PUSH3 0x2A7 JUMP JUMPDEST DUP4 DUP2 GT ISZERO PUSH3 0x2D4 JUMPI PUSH1 0x0 DUP5 DUP5 ADD MSTORE JUMPDEST POP POP POP POP JUMP JUMPDEST PUSH1 0x0 PUSH1 0x2 DUP3 DIV SWAP1 POP PUSH1 0x1 DUP3 AND DUP1 PUSH3 0x2F3 JUMPI PUSH1 0x7F DUP3 AND SWAP2 POP JUMPDEST PUSH1 0x20 DUP3 LT DUP2 EQ ISZERO PUSH3 0x30A JUMPI PUSH3 0x309 PUSH3 0x375 JUMP JUMPDEST JUMPDEST POP SWAP2 SWAP1 POP JUMP JUMPDEST PUSH3 0x31B DUP3 PUSH3 0x3E7 JUMP JUMPDEST DUP2 ADD DUP2 DUP2 LT PUSH8 0xFFFFFFFFFFFFFFFF DUP3 GT OR ISZERO PUSH3 0x33D JUMPI PUSH3 0x33C PUSH3 0x3A4 JUMP JUMPDEST JUMPDEST DUP1 PUSH1 0x40 MSTORE POP POP POP JUMP JUMPDEST PUSH32 0x4E487B7100000000000000000000000000000000000000000000000000000000 PUSH1 0x0 MSTORE PUSH1 0x21 PUSH1 0x4 MSTORE PUSH1 0x24 PUSH1 0x0 REVERT JUMPDEST PUSH32 0x4E487B7100000000000000000000000000000000000000000000000000000000 PUSH1 0x0 MSTORE PUSH1 0x22 PUSH1 0x4 MSTORE PUSH1 0x24 PUSH1 0x0 REVERT JUMPDEST PUSH32 0x4E487B7100000000000000000000000000000000000000000000000000000000 PUSH1 0x0 MSTORE PUSH1 0x41 PUSH1 0x4 MSTORE PUSH1 0x24 PUSH1 0x0 REVERT JUMPDEST PUSH1 0x0 DUP1 REVERT JUMPDEST PUSH1 0x0 DUP1 REVERT JUMPDEST PUSH1 0x0 DUP1 REVERT JUMPDEST PUSH1 0x0 DUP1 REVERT JUMPDEST PUSH1 0x0 PUSH1 0x1F NOT PUSH1 0x1F DUP4 ADD AND SWAP1 POP SWAP2 SWAP1 POP JUMP JUMPDEST PUSH2 0x1C7D DUP1 PUSH3 0x408 PUSH1 0x0 CODECOPY PUSH1 0x0 RETURN INVALID PUSH1 0x80 PUSH1 0x40 MSTORE CALLVALUE DUP1 ISZERO PUSH2 0x10 JUMPI PUSH1 0x0 DUP1 REVERT JUMPDEST POP PUSH1 0x4 CALLDATASIZE LT PUSH2 0xF5 JUMPI PUSH1 0x0 CALLDATALOAD PUSH1 0xE0 SHR DUP1 PUSH4 0x62C49251 GT PUSH2 0x97 JUMPI DUP1 PUSH4 0xC19D93FB GT PUSH2 0x66 JUMPI DUP1 PUSH4 0xC19D93FB EQ PUSH2 0x294 JUMPI DUP1 PUSH4 0xD82D4EB9 EQ PUSH2 0x2B2 JUMPI DUP1 PUSH4 0xD9E95A98 EQ PUSH2 0x2E2 JUMPI DUP1 PUSH4 0xF276669D EQ PUSH2 0x2FE JUMPI PUSH2 0xF5 JUMP JUMPDEST DUP1 PUSH4 0x62C49251 EQ PUSH2 0x209 JUMPI DUP1 PUSH4 0x72753BE5 EQ PUSH2 0x225 JUMPI DUP1 PUSH4 0x80843E25 EQ PUSH2 0x258 JUMPI DUP1 PUSH4 0x8949E009 EQ PUSH2 0x276 JUMPI PUSH2 0xF5 JUMP JUMPDEST DUP1 PUSH4 0x12C06342 GT PUSH2 0xD3 JUMPI DUP1 PUSH4 0x12C06342 EQ PUSH2 0x168 JUMPI DUP1 PUSH4 0x2D35A8A2 EQ PUSH2 0x19A JUMPI DUP1 PUSH4 0x46702B16 EQ PUSH2 0x1B8 JUMPI DUP1 PUSH4 0x5F5300FF EQ PUSH2 0x1EB JUMPI PUSH2 0xF5 JUMP JUMPDEST DUP1 PUSH4 0x3A0D535 EQ PUSH2 0xFA JUMPI DUP1 PUSH4 0x6A49FCE EQ PUSH2 0x12C JUMPI DUP1 PUSH4 0xD15FD77 EQ PUSH2 0x14A JUMPI JUMPDEST PUSH1 0x0 DUP1 REVERT JUMPDEST PUSH2 0x114 PUSH1 0x4 DUP1 CALLDATASIZE SUB DUP2 ADD SWAP1 PUSH2 0x10F SWAP2 SWAP1 PUSH2 0x1497 JUMP JUMPDEST PUSH2 0x32E JUMP JUMPDEST PUSH1 0x40 MLOAD PUSH2 0x123 SWAP4 SWAP3 SWAP2 SWAP1 PUSH2 0x17AF JUMP JUMPDEST PUSH1 0x40 MLOAD DUP1 SWAP2 SUB SWAP1 RETURN JUMPDEST PUSH2 0x134 PUSH2 0x40D JUMP JUMPDEST PUSH1 0x40 MLOAD PUSH2 0x141 SWAP2 SWAP1 PUSH2 0x1750 JUMP JUMPDEST PUSH1 0x40 MLOAD DUP1 SWAP2 SUB SWAP1 RETURN JUMPDEST PUSH2 0x152 PUSH2 0x657 JUMP JUMPDEST PUSH1 0x40 MLOAD PUSH2 0x15F SWAP2 SWAP1 PUSH2 0x1862 JUMP JUMPDEST PUSH1 0x40 MLOAD DUP1 SWAP2 SUB SWAP1 RETURN JUMPDEST PUSH2 0x182 PUSH1 0x4 DUP1 CALLDATASIZE SUB DUP2 ADD SWAP1 PUSH2 0x17D SWAP2 SWAP1 PUSH2 0x133A JUMP JUMPDEST PUSH2 0x65D JUMP JUMPDEST PUSH1 0x40 MLOAD PUSH2 0x191 SWAP4 SWAP3 SWAP2 SWAP1 PUSH2 0x17AF JUMP JUMPDEST PUSH1 0x40 MLOAD DUP1 SWAP2 SUB SWAP1 RETURN JUMPDEST PUSH2 0x1A2 PUSH2 0x73C JUMP JUMPDEST PUSH1 0x40 MLOAD PUSH2 0x1AF SWAP2 SWAP1 PUSH2 0x1862 JUMP JUMPDEST PUSH1 0x40 MLOAD DUP1 SWAP2 SUB SWAP1 RETURN JUMPDEST PUSH2 0x1D2 PUSH1 0x4 DUP1 CALLDATASIZE SUB DUP2 ADD SWAP1 PUSH2 0x1CD SWAP2 SWAP1 PUSH2 0x144E JUMP JUMPDEST PUSH2 0x742 JUMP JUMPDEST PUSH1 0x40 MLOAD PUSH2 0x1E2 SWAP5 SWAP4 SWAP3 SWAP2 SWAP1 PUSH2 0x17ED JUMP JUMPDEST PUSH1 0x40 MLOAD DUP1 SWAP2 SUB SWAP1 RETURN JUMPDEST PUSH2 0x1F3 PUSH2 0x8B8 JUMP JUMPDEST PUSH1 0x40 MLOAD PUSH2 0x200 SWAP2 SWAP1 PUSH2 0x1862 JUMP JUMPDEST PUSH1 0x40 MLOAD DUP1 SWAP2 SUB SWAP1 RETURN JUMPDEST PUSH2 0x223 PUSH1 0x4 DUP1 CALLDATASIZE SUB DUP2 ADD SWAP1 PUSH2 0x21E SWAP2 SWAP1 PUSH2 0x13C3 JUMP JUMPDEST PUSH2 0x8BE JUMP JUMPDEST STOP JUMPDEST PUSH2 0x23F PUSH1 0x4 DUP1 CALLDATASIZE SUB DUP2 ADD SWAP1 PUSH2 0x23A SWAP2 SWAP1 PUSH2 0x1497 JUMP JUMPDEST PUSH2 0xB18 JUMP JUMPDEST PUSH1 0x40 MLOAD PUSH2 0x24F SWAP5 SWAP4 SWAP3 SWAP2 SWAP1 PUSH2 0x17ED JUMP JUMPDEST PUSH1 0x40 MLOAD DUP1 SWAP2 SUB SWAP1 RETURN JUMPDEST PUSH2 0x260 PUSH2 0xC78 JUMP JUMPDEST PUSH1 0x40 MLOAD PUSH2 0x26D SWAP2 SWAP1 PUSH2 0x178D JUMP JUMPDEST PUSH1 0x40 MLOAD DUP1 SWAP2 SUB SWAP1 RETURN JUMPDEST PUSH2 0x27E PUSH2 0xD06 JUMP JUMPDEST PUSH1 0x40 MLOAD PUSH2 0x28B SWAP2 SWAP1 PUSH2 0x1735 JUMP JUMPDEST PUSH1 0x40 MLOAD DUP1 SWAP2 SUB SWAP1 RETURN JUMPDEST PUSH2 0x29C PUSH2 0xD2C JUMP JUMPDEST PUSH1 0x40 MLOAD PUSH2 0x2A9 SWAP2 SWAP1 PUSH2 0x1772 JUMP JUMPDEST PUSH1 0x40 MLOAD DUP1 SWAP2 SUB SWAP1 RETURN JUMPDEST PUSH2 0x2CC PUSH1 0x4 DUP1 CALLDATASIZE SUB DUP2 ADD SWAP1 PUSH2 0x2C7 SWAP2 SWAP1 PUSH2 0x133A JUMP JUMPDEST PUSH2 0xD3F JUMP JUMPDEST PUSH1 0x40 MLOAD PUSH2 0x2D9 SWAP2 SWAP1 PUSH2 0x1862 JUMP JUMPDEST PUSH1 0x40 MLOAD DUP1 SWAP2 SUB SWAP1 RETURN JUMPDEST PUSH2 0x2FC PUSH1 0x4 DUP1 CALLDATASIZE SUB DUP2 ADD SWAP1 PUSH2 0x2F7 SWAP2 SWAP1 PUSH2 0x1367 JUMP JUMPDEST PUSH2 0xD57 JUMP JUMPDEST STOP JUMPDEST PUSH2 0x318 PUSH1 0x4 DUP1 CALLDATASIZE SUB DUP2 ADD SWAP1 PUSH2 0x313 SWAP2 SWAP1 PUSH2 0x144E JUMP JUMPDEST PUSH2 0xFCA JUMP JUMPDEST PUSH1 0x40 MLOAD PUSH2 0x325 SWAP2 SWAP1 PUSH2 0x1840 JUMP JUMPDEST PUSH1 0x40 MLOAD DUP1 SWAP2 SUB SWAP1 RETURN JUMPDEST PUSH1 0x3 PUSH1 0x20 MSTORE DUP1 PUSH1 0x0 MSTORE PUSH1 0x40 PUSH1 0x0 KECCAK256 PUSH1 0x0 SWAP2 POP SWAP1 POP DUP1 PUSH1 0x0 ADD DUP1 SLOAD PUSH2 0x351 SWAP1 PUSH2 0x1A49 JUMP JUMPDEST DUP1 PUSH1 0x1F ADD PUSH1 0x20 DUP1 SWAP2 DIV MUL PUSH1 0x20 ADD PUSH1 0x40 MLOAD SWAP1 DUP2 ADD PUSH1 0x40 MSTORE DUP1 SWAP3 SWAP2 SWAP1 DUP2 DUP2 MSTORE PUSH1 0x20 ADD DUP3 DUP1 SLOAD PUSH2 0x37D SWAP1 PUSH2 0x1A49 JUMP JUMPDEST DUP1 ISZERO PUSH2 0x3CA JUMPI DUP1 PUSH1 0x1F LT PUSH2 0x39F JUMPI PUSH2 0x100 DUP1 DUP4 SLOAD DIV MUL DUP4 MSTORE SWAP2 PUSH1 0x20 ADD SWAP2 PUSH2 0x3CA JUMP JUMPDEST DUP3 ADD SWAP2 SWAP1 PUSH1 0x0 MSTORE PUSH1 0x20 PUSH1 0x0 KECCAK256 SWAP1 JUMPDEST DUP2 SLOAD DUP2 MSTORE SWAP1 PUSH1 0x1 ADD SWAP1 PUSH1 0x20 ADD DUP1 DUP4 GT PUSH2 0x3AD JUMPI DUP3 SWAP1 SUB PUSH1 0x1F AND DUP3 ADD SWAP2 JUMPDEST POP POP POP POP POP SWAP1 DUP1 PUSH1 0x1 ADD PUSH1 0x0 SWAP1 SLOAD SWAP1 PUSH2 0x100 EXP SWAP1 DIV PUSH20 0xFFFFFFFFFFFFFFFFFFFFFFFFFFFFFFFFFFFFFFFF AND SWAP1 DUP1 PUSH1 0x1 ADD PUSH1 0x14 SWAP1 SLOAD SWAP1 PUSH2 0x100 EXP SWAP1 DIV PUSH1 0xFF AND SWAP1 POP DUP4 JUMP JUMPDEST PUSH1 0x60 PUSH1 0x0 PUSH1 0x6 SLOAD PUSH8 0xFFFFFFFFFFFFFFFF DUP2 GT ISZERO PUSH2 0x42D JUMPI PUSH2 0x42C PUSH2 0x1BB1 JUMP JUMPDEST JUMPDEST PUSH1 0x40 MLOAD SWAP1 DUP1 DUP3 MSTORE DUP1 PUSH1 0x20 MUL PUSH1 0x20 ADD DUP3 ADD PUSH1 0x40 MSTORE DUP1 ISZERO PUSH2 0x466 JUMPI DUP2 PUSH1 0x20 ADD JUMPDEST PUSH2 0x453 PUSH2 0x1186 JUMP JUMPDEST DUP2 MSTORE PUSH1 0x20 ADD SWAP1 PUSH1 0x1 SWAP1 SUB SWAP1 DUP2 PUSH2 0x44B JUMPI SWAP1 POP JUMPDEST POP SWAP1 POP PUSH1 0x0 JUMPDEST PUSH1 0x6 SLOAD DUP2 LT ISZERO PUSH2 0x64F JUMPI PUSH1 0x0 PUSH1 0x4 PUSH1 0x0 DUP4 DUP2 MSTORE PUSH1 0x20 ADD SWAP1 DUP2 MSTORE PUSH1 0x20 ADD PUSH1 0x0 KECCAK256 SWAP1 POP DUP1 PUSH1 0x40 MLOAD DUP1 PUSH1 0x80 ADD PUSH1 0x40 MSTORE SWAP1 DUP2 PUSH1 0x0 DUP3 ADD DUP1 SLOAD PUSH2 0x4A9 SWAP1 PUSH2 0x1A49 JUMP JUMPDEST DUP1 PUSH1 0x1F ADD PUSH1 0x20 DUP1 SWAP2 DIV MUL PUSH1 0x20 ADD PUSH1 0x40 MLOAD SWAP1 DUP2 ADD PUSH1 0x40 MSTORE DUP1 SWAP3 SWAP2 SWAP1 DUP2 DUP2 MSTORE PUSH1 0x20 ADD DUP3 DUP1 SLOAD PUSH2 0x4D5 SWAP1 PUSH2 0x1A49 JUMP JUMPDEST DUP1 ISZERO PUSH2 0x522 JUMPI DUP1 PUSH1 0x1F LT PUSH2 0x4F7 JUMPI PUSH2 0x100 DUP1 DUP4 SLOAD DIV MUL DUP4 MSTORE SWAP2 PUSH1 0x20 ADD SWAP2 PUSH2 0x522 JUMP JUMPDEST DUP3 ADD SWAP2 SWAP1 PUSH1 0x0 MSTORE PUSH1 0x20 PUSH1 0x0 KECCAK256 SWAP1 JUMPDEST DUP2 SLOAD DUP2 MSTORE SWAP1 PUSH1 0x1 ADD SWAP1 PUSH1 0x20 ADD DUP1 DUP4 GT PUSH2 0x505 JUMPI DUP3 SWAP1 SUB PUSH1 0x1F AND DUP3 ADD SWAP2 JUMPDEST POP POP POP POP POP DUP2 MSTORE PUSH1 0x20 ADD PUSH1 0x1 DUP3 ADD PUSH1 0x0 SWAP1 SLOAD SWAP1 PUSH2 0x100 EXP SWAP1 DIV PUSH20 0xFFFFFFFFFFFFFFFFFFFFFFFFFFFFFFFFFFFFFFFF AND PUSH20 0xFFFFFFFFFFFFFFFFFFFFFFFFFFFFFFFFFFFFFFFF AND PUSH20 0xFFFFFFFFFFFFFFFFFFFFFFFFFFFFFFFFFFFFFFFF AND DUP2 MSTORE PUSH1 0x20 ADD PUSH1 0x2 DUP3 ADD SLOAD DUP2 MSTORE PUSH1 0x20 ADD PUSH1 0x3 DUP3 ADD DUP1 SLOAD PUSH2 0x59B SWAP1 PUSH2 0x1A49 JUMP JUMPDEST DUP1 PUSH1 0x1F ADD PUSH1 0x20 DUP1 SWAP2 DIV MUL PUSH1 0x20 ADD PUSH1 0x40 MLOAD SWAP1 DUP2 ADD PUSH1 0x40 MSTORE DUP1 SWAP3 SWAP2 SWAP1 DUP2 DUP2 MSTORE PUSH1 0x20 ADD DUP3 DUP1 SLOAD PUSH2 0x5C7 SWAP1 PUSH2 0x1A49 JUMP JUMPDEST DUP1 ISZERO PUSH2 0x614 JUMPI DUP1 PUSH1 0x1F LT PUSH2 0x5E9 JUMPI PUSH2 0x100 DUP1 DUP4 SLOAD DIV MUL DUP4 MSTORE SWAP2 PUSH1 0x20 ADD SWAP2 PUSH2 0x614 JUMP JUMPDEST DUP3 ADD SWAP2 SWAP1 PUSH1 0x0 MSTORE PUSH1 0x20 PUSH1 0x0 KECCAK256 SWAP1 JUMPDEST DUP2 SLOAD DUP2 MSTORE SWAP1 PUSH1 0x1 ADD SWAP1 PUSH1 0x20 ADD DUP1 DUP4 GT PUSH2 0x5F7 JUMPI DUP3 SWAP1 SUB PUSH1 0x1F AND DUP3 ADD SWAP2 JUMPDEST POP POP POP POP POP DUP2 MSTORE POP POP DUP4 DUP4 DUP2 MLOAD DUP2 LT PUSH2 0x630 JUMPI PUSH2 0x62F PUSH2 0x1B82 JUMP JUMPDEST JUMPDEST PUSH1 0x20 MUL PUSH1 0x20 ADD ADD DUP2 SWAP1 MSTORE POP POP DUP1 DUP1 PUSH2 0x647 SWAP1 PUSH2 0x1AAC JUMP JUMPDEST SWAP2 POP POP PUSH2 0x46C JUMP JUMPDEST POP DUP1 SWAP2 POP POP SWAP1 JUMP JUMPDEST PUSH1 0x8 SLOAD DUP2 JUMP JUMPDEST PUSH1 0x0 PUSH1 0x20 MSTORE DUP1 PUSH1 0x0 MSTORE PUSH1 0x40 PUSH1 0x0 KECCAK256 PUSH1 0x0 SWAP2 POP SWAP1 POP DUP1 PUSH1 0x0 ADD DUP1 SLOAD PUSH2 0x680 SWAP1 PUSH2 0x1A49 JUMP JUMPDEST DUP1 PUSH1 0x1F ADD PUSH1 0x20 DUP1 SWAP2 DIV MUL PUSH1 0x20 ADD PUSH1 0x40 MLOAD SWAP1 DUP2 ADD PUSH1 0x40 MSTORE DUP1 SWAP3 SWAP2 SWAP1 DUP2 DUP2 MSTORE PUSH1 0x20 ADD DUP3 DUP1 SLOAD PUSH2 0x6AC SWAP1 PUSH2 0x1A49 JUMP JUMPDEST DUP1 ISZERO PUSH2 0x6F9 JUMPI DUP1 PUSH1 0x1F LT PUSH2 0x6CE JUMPI PUSH2 0x100 DUP1 DUP4 SLOAD DIV MUL DUP4 MSTORE SWAP2 PUSH1 0x20 ADD SWAP2 PUSH2 0x6F9 JUMP JUMPDEST DUP3 ADD SWAP2 SWAP1 PUSH1 0x0 MSTORE PUSH1 0x20 PUSH1 0x0 KECCAK256 SWAP1 JUMPDEST DUP2 SLOAD DUP2 MSTORE SWAP1 PUSH1 0x1 ADD SWAP1 PUSH1 0x20 ADD DUP1 DUP4 GT PUSH2 0x6DC JUMPI DUP3 SWAP1 SUB PUSH1 0x1F AND DUP3 ADD SWAP2 JUMPDEST POP POP POP POP POP SWAP1 DUP1 PUSH1 0x1 ADD PUSH1 0x0 SWAP1 SLOAD SWAP1 PUSH2 0x100 EXP SWAP1 DIV PUSH20 0xFFFFFFFFFFFFFFFFFFFFFFFFFFFFFFFFFFFFFFFF AND SWAP1 DUP1 PUSH1 0x1 ADD PUSH1 0x14 SWAP1 SLOAD SWAP1 PUSH2 0x100 EXP SWAP1 DIV PUSH1 0xFF AND SWAP1 POP DUP4 JUMP JUMPDEST PUSH1 0x6 SLOAD DUP2 JUMP JUMPDEST PUSH1 0x5 DUP2 DUP1 MLOAD PUSH1 0x20 DUP2 ADD DUP3 ADD DUP1 MLOAD DUP5 DUP3 MSTORE PUSH1 0x20 DUP4 ADD PUSH1 0x20 DUP6 ADD KECCAK256 DUP2 DUP4 MSTORE DUP1 SWAP6 POP POP POP POP POP POP PUSH1 0x0 SWAP2 POP SWAP1 POP DUP1 PUSH1 0x0 ADD DUP1 SLOAD PUSH2 0x77B SWAP1 PUSH2 0x1A49 JUMP JUMPDEST DUP1 PUSH1 0x1F ADD PUSH1 0x20 DUP1 SWAP2 DIV MUL PUSH1 0x20 ADD PUSH1 0x40 MLOAD SWAP1 DUP2 ADD PUSH1 0x40 MSTORE DUP1 SWAP3 SWAP2 SWAP1 DUP2 DUP2 MSTORE PUSH1 0x20 ADD DUP3 DUP1 SLOAD PUSH2 0x7A7 SWAP1 PUSH2 0x1A49 JUMP JUMPDEST DUP1 ISZERO PUSH2 0x7F4 JUMPI DUP1 PUSH1 0x1F LT PUSH2 0x7C9 JUMPI PUSH2 0x100 DUP1 DUP4 SLOAD DIV MUL DUP4 MSTORE SWAP2 PUSH1 0x20 ADD SWAP2 PUSH2 0x7F4 JUMP JUMPDEST DUP3 ADD SWAP2 SWAP1 PUSH1 0x0 MSTORE PUSH1 0x20 PUSH1 0x0 KECCAK256 SWAP1 JUMPDEST DUP2 SLOAD DUP2 MSTORE SWAP1 PUSH1 0x1 ADD SWAP1 PUSH1 0x20 ADD DUP1 DUP4 GT PUSH2 0x7D7 JUMPI DUP3 SWAP1 SUB PUSH1 0x1F AND DUP3 ADD SWAP2 JUMPDEST POP POP POP POP POP SWAP1 DUP1 PUSH1 0x1 ADD PUSH1 0x0 SWAP1 SLOAD SWAP1 PUSH2 0x100 EXP SWAP1 DIV PUSH20 0xFFFFFFFFFFFFFFFFFFFFFFFFFFFFFFFFFFFFFFFF AND SWAP1 DUP1 PUSH1 0x2 ADD SLOAD SWAP1 DUP1 PUSH1 0x3 ADD DUP1 SLOAD PUSH2 0x835 SWAP1 PUSH2 0x1A49 JUMP JUMPDEST DUP1 PUSH1 0x1F ADD PUSH1 0x20 DUP1 SWAP2 DIV MUL PUSH1 0x20 ADD PUSH1 0x40 MLOAD SWAP1 DUP2 ADD PUSH1 0x40 MSTORE DUP1 SWAP3 SWAP2 SWAP1 DUP2 DUP2 MSTORE PUSH1 0x20 ADD DUP3 DUP1 SLOAD PUSH2 0x861 SWAP1 PUSH2 0x1A49 JUMP JUMPDEST DUP1 ISZERO PUSH2 0x8AE JUMPI DUP1 PUSH1 0x1F LT PUSH2 0x883 JUMPI PUSH2 0x100 DUP1 DUP4 SLOAD DIV MUL DUP4 MSTORE SWAP2 PUSH1 0x20 ADD SWAP2 PUSH2 0x8AE JUMP JUMPDEST DUP3 ADD SWAP2 SWAP1 PUSH1 0x0 MSTORE PUSH1 0x20 PUSH1 0x0 KECCAK256 SWAP1 JUMPDEST DUP2 SLOAD DUP2 MSTORE SWAP1 PUSH1 0x1 ADD SWAP1 PUSH1 0x20 ADD DUP1 DUP4 GT PUSH2 0x891 JUMPI DUP3 SWAP1 SUB PUSH1 0x1F AND DUP3 ADD SWAP2 JUMPDEST POP POP POP POP POP SWAP1 POP DUP5 JUMP JUMPDEST PUSH1 0x7 SLOAD DUP2 JUMP JUMPDEST PUSH1 0x0 DUP1 PUSH1 0x2 DUP2 GT ISZERO PUSH2 0x8D3 JUMPI PUSH2 0x8D2 PUSH2 0x1B24 JUMP JUMPDEST JUMPDEST PUSH1 0x9 PUSH1 0x0 SWAP1 SLOAD SWAP1 PUSH2 0x100 EXP SWAP1 DIV PUSH1 0xFF AND PUSH1 0x2 DUP2 GT ISZERO PUSH2 0x8F5 JUMPI PUSH2 0x8F4 PUSH2 0x1B24 JUMP JUMPDEST JUMPDEST EQ PUSH2 0x8FF JUMPI PUSH1 0x0 DUP1 REVERT JUMPDEST CALLER PUSH20 0xFFFFFFFFFFFFFFFFFFFFFFFFFFFFFFFFFFFFFFFF AND PUSH1 0x9 PUSH1 0x1 SWAP1 SLOAD SWAP1 PUSH2 0x100 EXP SWAP1 DIV PUSH20 0xFFFFFFFFFFFFFFFFFFFFFFFFFFFFFFFFFFFFFFFF AND PUSH20 0xFFFFFFFFFFFFFFFFFFFFFFFFFFFFFFFFFFFFFFFF AND EQ PUSH2 0x959 JUMPI PUSH1 0x0 DUP1 REVERT JUMPDEST PUSH2 0x961 PUSH2 0x1186 JUMP JUMPDEST DUP5 DUP2 PUSH1 0x20 ADD SWAP1 PUSH20 0xFFFFFFFFFFFFFFFFFFFFFFFFFFFFFFFFFFFFFFFF AND SWAP1 DUP2 PUSH20 0xFFFFFFFFFFFFFFFFFFFFFFFFFFFFFFFFFFFFFFFF AND DUP2 MSTORE POP POP DUP4 DUP2 PUSH1 0x0 ADD DUP2 SWAP1 MSTORE POP DUP3 DUP2 PUSH1 0x60 ADD DUP2 SWAP1 MSTORE POP DUP1 PUSH1 0x4 PUSH1 0x0 PUSH1 0x6 SLOAD DUP2 MSTORE PUSH1 0x20 ADD SWAP1 DUP2 MSTORE PUSH1 0x20 ADD PUSH1 0x0 KECCAK256 PUSH1 0x0 DUP3 ADD MLOAD DUP2 PUSH1 0x0 ADD SWAP1 DUP1 MLOAD SWAP1 PUSH1 0x20 ADD SWAP1 PUSH2 0x9DD SWAP3 SWAP2 SWAP1 PUSH2 0x11C4 JUMP JUMPDEST POP PUSH1 0x20 DUP3 ADD MLOAD DUP2 PUSH1 0x1 ADD PUSH1 0x0 PUSH2 0x100 EXP DUP2 SLOAD DUP2 PUSH20 0xFFFFFFFFFFFFFFFFFFFFFFFFFFFFFFFFFFFFFFFF MUL NOT AND SWAP1 DUP4 PUSH20 0xFFFFFFFFFFFFFFFFFFFFFFFFFFFFFFFFFFFFFFFF AND MUL OR SWAP1 SSTORE POP PUSH1 0x40 DUP3 ADD MLOAD DUP2 PUSH1 0x2 ADD SSTORE PUSH1 0x60 DUP3 ADD MLOAD DUP2 PUSH1 0x3 ADD SWAP1 DUP1 MLOAD SWAP1 PUSH1 0x20 ADD SWAP1 PUSH2 0xA4B SWAP3 SWAP2 SWAP1 PUSH2 0x11C4 JUMP JUMPDEST POP SWAP1 POP POP DUP1 PUSH1 0x5 DUP5 PUSH1 0x40 MLOAD PUSH2 0xA60 SWAP2 SWAP1 PUSH2 0x171E JUMP JUMPDEST SWAP1 DUP2 MSTORE PUSH1 0x20 ADD PUSH1 0x40 MLOAD DUP1 SWAP2 SUB SWAP1 KECCAK256 PUSH1 0x0 DUP3 ADD MLOAD DUP2 PUSH1 0x0 ADD SWAP1 DUP1 MLOAD SWAP1 PUSH1 0x20 ADD SWAP1 PUSH2 0xA8A SWAP3 SWAP2 SWAP1 PUSH2 0x11C4 JUMP JUMPDEST POP PUSH1 0x20 DUP3 ADD MLOAD DUP2 PUSH1 0x1 ADD PUSH1 0x0 PUSH2 0x100 EXP DUP2 SLOAD DUP2 PUSH20 0xFFFFFFFFFFFFFFFFFFFFFFFFFFFFFFFFFFFFFFFF MUL NOT AND SWAP1 DUP4 PUSH20 0xFFFFFFFFFFFFFFFFFFFFFFFFFFFFFFFFFFFFFFFF AND MUL OR SWAP1 SSTORE POP PUSH1 0x40 DUP3 ADD MLOAD DUP2 PUSH1 0x2 ADD SSTORE PUSH1 0x60 DUP3 ADD MLOAD DUP2 PUSH1 0x3 ADD SWAP1 DUP1 MLOAD SWAP1 PUSH1 0x20 ADD SWAP1 PUSH2 0xAF8 SWAP3 SWAP2 SWAP1 PUSH2 0x11C4 JUMP JUMPDEST POP SWAP1 POP POP PUSH1 0x1 PUSH1 0x6 SLOAD PUSH2 0xB0B SWAP2 SWAP1 PUSH2 0x1944 JUMP JUMPDEST PUSH1 0x6 DUP2 SWAP1 SSTORE POP POP POP POP POP POP JUMP JUMPDEST PUSH1 0x4 PUSH1 0x20 MSTORE DUP1 PUSH1 0x0 MSTORE PUSH1 0x40 PUSH1 0x0 KECCAK256 PUSH1 0x0 SWAP2 POP SWAP1 POP DUP1 PUSH1 0x0 ADD DUP1 SLOAD PUSH2 0xB3B SWAP1 PUSH2 0x1A49 JUMP JUMPDEST DUP1 PUSH1 0x1F ADD PUSH1 0x20 DUP1 SWAP2 DIV MUL PUSH1 0x20 ADD PUSH1 0x40 MLOAD SWAP1 DUP2 ADD PUSH1 0x40 MSTORE DUP1 SWAP3 SWAP2 SWAP1 DUP2 DUP2 MSTORE PUSH1 0x20 ADD DUP3 DUP1 SLOAD PUSH2 0xB67 SWAP1 PUSH2 0x1A49 JUMP JUMPDEST DUP1 ISZERO PUSH2 0xBB4 JUMPI DUP1 PUSH1 0x1F LT PUSH2 0xB89 JUMPI PUSH2 0x100 DUP1 DUP4 SLOAD DIV MUL DUP4 MSTORE SWAP2 PUSH1 0x20 ADD SWAP2 PUSH2 0xBB4 JUMP JUMPDEST DUP3 ADD SWAP2 SWAP1 PUSH1 0x0 MSTORE PUSH1 0x20 PUSH1 0x0 KECCAK256 SWAP1 JUMPDEST DUP2 SLOAD DUP2 MSTORE SWAP1 PUSH1 0x1 ADD SWAP1 PUSH1 0x20 ADD DUP1 DUP4 GT PUSH2 0xB97 JUMPI DUP3 SWAP1 SUB PUSH1 0x1F AND DUP3 ADD SWAP2 JUMPDEST POP POP POP POP POP SWAP1 DUP1 PUSH1 0x1 ADD PUSH1 0x0 SWAP1 SLOAD SWAP1 PUSH2 0x100 EXP SWAP1 DIV PUSH20 0xFFFFFFFFFFFFFFFFFFFFFFFFFFFFFFFFFFFFFFFF AND SWAP1 DUP1 PUSH1 0x2 ADD SLOAD SWAP1 DUP1 PUSH1 0x3 ADD DUP1 SLOAD PUSH2 0xBF5 SWAP1 PUSH2 0x1A49 JUMP JUMPDEST DUP1 PUSH1 0x1F ADD PUSH1 0x20 DUP1 SWAP2 DIV MUL PUSH1 0x20 ADD PUSH1 0x40 MLOAD SWAP1 DUP2 ADD PUSH1 0x40 MSTORE DUP1 SWAP3 SWAP2 SWAP1 DUP2 DUP2 MSTORE PUSH1 0x20 ADD DUP3 DUP1 SLOAD PUSH2 0xC21 SWAP1 PUSH2 0x1A49 JUMP JUMPDEST DUP1 ISZERO PUSH2 0xC6E JUMPI DUP1 PUSH1 0x1F LT PUSH2 0xC43 JUMPI PUSH2 0x100 DUP1 DUP4 SLOAD DIV MUL DUP4 MSTORE SWAP2 PUSH1 0x20 ADD SWAP2 PUSH2 0xC6E JUMP JUMPDEST DUP3 ADD SWAP2 SWAP1 PUSH1 0x0 MSTORE PUSH1 0x20 PUSH1 0x0 KECCAK256 SWAP1 JUMPDEST DUP2 SLOAD DUP2 MSTORE SWAP1 PUSH1 0x1 ADD SWAP1 PUSH1 0x20 ADD DUP1 DUP4 GT PUSH2 0xC51 JUMPI DUP3 SWAP1 SUB PUSH1 0x1F AND DUP3 ADD SWAP2 JUMPDEST POP POP POP POP POP SWAP1 POP DUP5 JUMP JUMPDEST PUSH1 0xA DUP1 SLOAD PUSH2 0xC85 SWAP1 PUSH2 0x1A49 JUMP JUMPDEST DUP1 PUSH1 0x1F ADD PUSH1 0x20 DUP1 SWAP2 DIV MUL PUSH1 0x20 ADD PUSH1 0x40 MLOAD SWAP1 DUP2 ADD PUSH1 0x40 MSTORE DUP1 SWAP3 SWAP2 SWAP1 DUP2 DUP2 MSTORE PUSH1 0x20 ADD DUP3 DUP1 SLOAD PUSH2 0xCB1 SWAP1 PUSH2 0x1A49 JUMP JUMPDEST DUP1 ISZERO PUSH2 0xCFE JUMPI DUP1 PUSH1 0x1F LT PUSH2 0xCD3 JUMPI PUSH2 0x100 DUP1 DUP4 SLOAD DIV MUL DUP4 MSTORE SWAP2 PUSH1 0x20 ADD SWAP2 PUSH2 0xCFE JUMP JUMPDEST DUP3 ADD SWAP2 SWAP1 PUSH1 0x0 MSTORE PUSH1 0x20 PUSH1 0x0 KECCAK256 SWAP1 JUMPDEST DUP2 SLOAD DUP2 MSTORE SWAP1 PUSH1 0x1 ADD SWAP1 PUSH1 0x20 ADD DUP1 DUP4 GT PUSH2 0xCE1 JUMPI DUP3 SWAP1 SUB PUSH1 0x1F AND DUP3 ADD SWAP2 JUMPDEST POP POP POP POP POP DUP2 JUMP JUMPDEST PUSH1 0x9 PUSH1 0x1 SWAP1 SLOAD SWAP1 PUSH2 0x100 EXP SWAP1 DIV PUSH20 0xFFFFFFFFFFFFFFFFFFFFFFFFFFFFFFFFFFFFFFFF AND DUP2 JUMP JUMPDEST PUSH1 0x9 PUSH1 0x0 SWAP1 SLOAD SWAP1 PUSH2 0x100 EXP SWAP1 DIV PUSH1 0xFF AND DUP2 JUMP JUMPDEST PUSH1 0x2 PUSH1 0x20 MSTORE DUP1 PUSH1 0x0 MSTORE PUSH1 0x40 PUSH1 0x0 KECCAK256 PUSH1 0x0 SWAP2 POP SWAP1 POP SLOAD DUP2 JUMP JUMPDEST PUSH1 0x0 DUP1 PUSH1 0x2 DUP2 GT ISZERO PUSH2 0xD6C JUMPI PUSH2 0xD6B PUSH2 0x1B24 JUMP JUMPDEST JUMPDEST PUSH1 0x9 PUSH1 0x0 SWAP1 SLOAD SWAP1 PUSH2 0x100 EXP SWAP1 DIV PUSH1 0xFF AND PUSH1 0x2 DUP2 GT ISZERO PUSH2 0xD8E JUMPI PUSH2 0xD8D PUSH2 0x1B24 JUMP JUMPDEST JUMPDEST EQ PUSH2 0xD98 JUMPI PUSH1 0x0 DUP1 REVERT JUMPDEST CALLER PUSH20 0xFFFFFFFFFFFFFFFFFFFFFFFFFFFFFFFFFFFFFFFF AND PUSH1 0x9 PUSH1 0x1 SWAP1 SLOAD SWAP1 PUSH2 0x100 EXP SWAP1 DIV PUSH20 0xFFFFFFFFFFFFFFFFFFFFFFFFFFFFFFFFFFFFFFFF AND PUSH20 0xFFFFFFFFFFFFFFFFFFFFFFFFFFFFFFFFFFFFFFFF AND EQ PUSH2 0xDF2 JUMPI PUSH1 0x0 DUP1 REVERT JUMPDEST PUSH2 0xDFA PUSH2 0x124A JUMP JUMPDEST DUP4 DUP2 PUSH1 0x20 ADD SWAP1 PUSH20 0xFFFFFFFFFFFFFFFFFFFFFFFFFFFFFFFFFFFFFFFF AND SWAP1 DUP2 PUSH20 0xFFFFFFFFFFFFFFFFFFFFFFFFFFFFFFFFFFFFFFFF AND DUP2 MSTORE POP POP DUP3 DUP2 PUSH1 0x0 ADD DUP2 SWAP1 MSTORE POP PUSH1 0x0 DUP2 PUSH1 0x40 ADD SWAP1 ISZERO ISZERO SWAP1 DUP2 ISZERO ISZERO DUP2 MSTORE POP POP DUP1 PUSH1 0x0 DUP1 DUP7 PUSH20 0xFFFFFFFFFFFFFFFFFFFFFFFFFFFFFFFFFFFFFFFF AND PUSH20 0xFFFFFFFFFFFFFFFFFFFFFFFFFFFFFFFFFFFFFFFF AND DUP2 MSTORE PUSH1 0x20 ADD SWAP1 DUP2 MSTORE PUSH1 0x20 ADD PUSH1 0x0 KECCAK256 PUSH1 0x0 DUP3 ADD MLOAD DUP2 PUSH1 0x0 ADD SWAP1 DUP1 MLOAD SWAP1 PUSH1 0x20 ADD SWAP1 PUSH2 0xEA7 SWAP3 SWAP2 SWAP1 PUSH2 0x11C4 JUMP JUMPDEST POP PUSH1 0x20 DUP3 ADD MLOAD DUP2 PUSH1 0x1 ADD PUSH1 0x0 PUSH2 0x100 EXP DUP2 SLOAD DUP2 PUSH20 0xFFFFFFFFFFFFFFFFFFFFFFFFFFFFFFFFFFFFFFFF MUL NOT AND SWAP1 DUP4 PUSH20 0xFFFFFFFFFFFFFFFFFFFFFFFFFFFFFFFFFFFFFFFF AND MUL OR SWAP1 SSTORE POP PUSH1 0x40 DUP3 ADD MLOAD DUP2 PUSH1 0x1 ADD PUSH1 0x14 PUSH2 0x100 EXP DUP2 SLOAD DUP2 PUSH1 0xFF MUL NOT AND SWAP1 DUP4 ISZERO ISZERO MUL OR SWAP1 SSTORE POP SWAP1 POP POP DUP1 PUSH1 0x3 PUSH1 0x0 PUSH1 0x7 SLOAD DUP2 MSTORE PUSH1 0x20 ADD SWAP1 DUP2 MSTORE PUSH1 0x20 ADD PUSH1 0x0 KECCAK256 PUSH1 0x0 DUP3 ADD MLOAD DUP2 PUSH1 0x0 ADD SWAP1 DUP1 MLOAD SWAP1 PUSH1 0x20 ADD SWAP1 PUSH2 0xF44 SWAP3 SWAP2 SWAP1 PUSH2 0x11C4 JUMP JUMPDEST POP PUSH1 0x20 DUP3 ADD MLOAD DUP2 PUSH1 0x1 ADD PUSH1 0x0 PUSH2 0x100 EXP DUP2 SLOAD DUP2 PUSH20 0xFFFFFFFFFFFFFFFFFFFFFFFFFFFFFFFFFFFFFFFF MUL NOT AND SWAP1 DUP4 PUSH20 0xFFFFFFFFFFFFFFFFFFFFFFFFFFFFFFFFFFFFFFFF AND MUL OR SWAP1 SSTORE POP PUSH1 0x40 DUP3 ADD MLOAD DUP2 PUSH1 0x1 ADD PUSH1 0x14 PUSH2 0x100 EXP DUP2 SLOAD DUP2 PUSH1 0xFF MUL NOT AND SWAP1 DUP4 ISZERO ISZERO MUL OR SWAP1 SSTORE POP SWAP1 POP POP PUSH1 0x1 PUSH1 0x7 SLOAD PUSH2 0xFBE SWAP2 SWAP1 PUSH2 0x1944 JUMP JUMPDEST PUSH1 0x7 DUP2 SWAP1 SSTORE POP POP POP POP POP JUMP JUMPDEST PUSH2 0xFD2 PUSH2 0x1186 JUMP JUMPDEST PUSH1 0x5 DUP3 PUSH1 0x40 MLOAD PUSH2 0xFE2 SWAP2 SWAP1 PUSH2 0x171E JUMP JUMPDEST SWAP1 DUP2 MSTORE PUSH1 0x20 ADD PUSH1 0x40 MLOAD DUP1 SWAP2 SUB SWAP1 KECCAK256 PUSH1 0x40 MLOAD DUP1 PUSH1 0x80 ADD PUSH1 0x40 MSTORE SWAP1 DUP2 PUSH1 0x0 DUP3 ADD DUP1 SLOAD PUSH2 0x100B SWAP1 PUSH2 0x1A49 JUMP JUMPDEST DUP1 PUSH1 0x1F ADD PUSH1 0x20 DUP1 SWAP2 DIV MUL PUSH1 0x20 ADD PUSH1 0x40 MLOAD SWAP1 DUP2 ADD PUSH1 0x40 MSTORE DUP1 SWAP3 SWAP2 SWAP1 DUP2 DUP2 MSTORE PUSH1 0x20 ADD DUP3 DUP1 SLOAD PUSH2 0x1037 SWAP1 PUSH2 0x1A49 JUMP JUMPDEST DUP1 ISZERO PUSH2 0x1084 JUMPI DUP1 PUSH1 0x1F LT PUSH2 0x1059 JUMPI PUSH2 0x100 DUP1 DUP4 SLOAD DIV MUL DUP4 MSTORE SWAP2 PUSH1 0x20 ADD SWAP2 PUSH2 0x1084 JUMP JUMPDEST DUP3 ADD SWAP2 SWAP1 PUSH1 0x0 MSTORE PUSH1 0x20 PUSH1 0x0 KECCAK256 SWAP1 JUMPDEST DUP2 SLOAD DUP2 MSTORE SWAP1 PUSH1 0x1 ADD SWAP1 PUSH1 0x20 ADD DUP1 DUP4 GT PUSH2 0x1067 JUMPI DUP3 SWAP1 SUB PUSH1 0x1F AND DUP3 ADD SWAP2 JUMPDEST POP POP POP POP POP DUP2 MSTORE PUSH1 0x20 ADD PUSH1 0x1 DUP3 ADD PUSH1 0x0 SWAP1 SLOAD SWAP1 PUSH2 0x100 EXP SWAP1 DIV PUSH20 0xFFFFFFFFFFFFFFFFFFFFFFFFFFFFFFFFFFFFFFFF AND PUSH20 0xFFFFFFFFFFFFFFFFFFFFFFFFFFFFFFFFFFFFFFFF AND PUSH20 0xFFFFFFFFFFFFFFFFFFFFFFFFFFFFFFFFFFFFFFFF AND DUP2 MSTORE PUSH1 0x20 ADD PUSH1 0x2 DUP3 ADD SLOAD DUP2 MSTORE PUSH1 0x20 ADD PUSH1 0x3 DUP3 ADD DUP1 SLOAD PUSH2 0x10FD SWAP1 PUSH2 0x1A49 JUMP JUMPDEST DUP1 PUSH1 0x1F ADD PUSH1 0x20 DUP1 SWAP2 DIV MUL PUSH1 0x20 ADD PUSH1 0x40 MLOAD SWAP1 DUP2 ADD PUSH1 0x40 MSTORE DUP1 SWAP3 SWAP2 SWAP1 DUP2 DUP2 MSTORE PUSH1 0x20 ADD DUP3 DUP1 SLOAD PUSH2 0x1129 SWAP1 PUSH2 0x1A49 JUMP JUMPDEST DUP1 ISZERO PUSH2 0x1176 JUMPI DUP1 PUSH1 0x1F LT PUSH2 0x114B JUMPI PUSH2 0x100 DUP1 DUP4 SLOAD DIV MUL DUP4 MSTORE SWAP2 PUSH1 0x20 ADD SWAP2 PUSH2 0x1176 JUMP JUMPDEST DUP3 ADD SWAP2 SWAP1 PUSH1 0x0 MSTORE PUSH1 0x20 PUSH1 0x0 KECCAK256 SWAP1 JUMPDEST DUP2 SLOAD DUP2 MSTORE SWAP1 PUSH1 0x1 ADD SWAP1 PUSH1 0x20 ADD DUP1 DUP4 GT PUSH2 0x1159 JUMPI DUP3 SWAP1 SUB PUSH1 0x1F AND DUP3 ADD SWAP2 JUMPDEST POP POP POP POP POP DUP2 MSTORE POP POP SWAP1 POP SWAP2 SWAP1 POP JUMP JUMPDEST PUSH1 0x40 MLOAD DUP1 PUSH1 0x80 ADD PUSH1 0x40 MSTORE DUP1 PUSH1 0x60 DUP2 MSTORE PUSH1 0x20 ADD PUSH1 0x0 PUSH20 0xFFFFFFFFFFFFFFFFFFFFFFFFFFFFFFFFFFFFFFFF AND DUP2 MSTORE PUSH1 0x20 ADD PUSH1 0x0 DUP2 MSTORE PUSH1 0x20 ADD PUSH1 0x60 DUP2 MSTORE POP SWAP1 JUMP JUMPDEST DUP3 DUP1 SLOAD PUSH2 0x11D0 SWAP1 PUSH2 0x1A49 JUMP JUMPDEST SWAP1 PUSH1 0x0 MSTORE PUSH1 0x20 PUSH1 0x0 KECCAK256 SWAP1 PUSH1 0x1F ADD PUSH1 0x20 SWAP1 DIV DUP2 ADD SWAP3 DUP3 PUSH2 0x11F2 JUMPI PUSH1 0x0 DUP6 SSTORE PUSH2 0x1239 JUMP JUMPDEST DUP3 PUSH1 0x1F LT PUSH2 0x120B JUMPI DUP1 MLOAD PUSH1 0xFF NOT AND DUP4 DUP1 ADD OR DUP6 SSTORE PUSH2 0x1239 JUMP JUMPDEST DUP3 DUP1 ADD PUSH1 0x1 ADD DUP6 SSTORE DUP3 ISZERO PUSH2 0x1239 JUMPI SWAP2 DUP3 ADD JUMPDEST DUP3 DUP2 GT ISZERO PUSH2 0x1238 JUMPI DUP3 MLOAD DUP3 SSTORE SWAP2 PUSH1 0x20 ADD SWAP2 SWAP1 PUSH1 0x1 ADD SWAP1 PUSH2 0x121D JUMP JUMPDEST JUMPDEST POP SWAP1 POP PUSH2 0x1246 SWAP2 SWAP1 PUSH2 0x1283 JUMP JUMPDEST POP SWAP1 JUMP JUMPDEST PUSH1 0x40 MLOAD DUP1 PUSH1 0x60 ADD PUSH1 0x40 MSTORE DUP1 PUSH1 0x60 DUP2 MSTORE PUSH1 0x20 ADD PUSH1 0x0 PUSH20 0xFFFFFFFFFFFFFFFFFFFFFFFFFFFFFFFFFFFFFFFF AND DUP2 MSTORE PUSH1 0x20 ADD PUSH1 0x0 ISZERO ISZERO DUP2 MSTORE POP SWAP1 JUMP JUMPDEST JUMPDEST DUP1 DUP3 GT ISZERO PUSH2 0x129C JUMPI PUSH1 0x0 DUP2 PUSH1 0x0 SWAP1 SSTORE POP PUSH1 0x1 ADD PUSH2 0x1284 JUMP JUMPDEST POP SWAP1 JUMP JUMPDEST PUSH1 0x0 PUSH2 0x12B3 PUSH2 0x12AE DUP5 PUSH2 0x18A2 JUMP JUMPDEST PUSH2 0x187D JUMP JUMPDEST SWAP1 POP DUP3 DUP2 MSTORE PUSH1 0x20 DUP2 ADD DUP5 DUP5 DUP5 ADD GT ISZERO PUSH2 0x12CF JUMPI PUSH2 0x12CE PUSH2 0x1BE5 JUMP JUMPDEST JUMPDEST PUSH2 0x12DA DUP5 DUP3 DUP6 PUSH2 0x1A07 JUMP JUMPDEST POP SWAP4 SWAP3 POP POP POP JUMP JUMPDEST PUSH1 0x0 DUP2 CALLDATALOAD SWAP1 POP PUSH2 0x12F1 DUP2 PUSH2 0x1C19 JUMP JUMPDEST SWAP3 SWAP2 POP POP JUMP JUMPDEST PUSH1 0x0 DUP3 PUSH1 0x1F DUP4 ADD SLT PUSH2 0x130C JUMPI PUSH2 0x130B PUSH2 0x1BE0 JUMP JUMPDEST JUMPDEST DUP2 CALLDATALOAD PUSH2 0x131C DUP5 DUP3 PUSH1 0x20 DUP7 ADD PUSH2 0x12A0 JUMP JUMPDEST SWAP2 POP POP SWAP3 SWAP2 POP POP JUMP JUMPDEST PUSH1 0x0 DUP2 CALLDATALOAD SWAP1 POP PUSH2 0x1334 DUP2 PUSH2 0x1C30 JUMP JUMPDEST SWAP3 SWAP2 POP POP JUMP JUMPDEST PUSH1 0x0 PUSH1 0x20 DUP3 DUP5 SUB SLT ISZERO PUSH2 0x1350 JUMPI PUSH2 0x134F PUSH2 0x1BEF JUMP JUMPDEST JUMPDEST PUSH1 0x0 PUSH2 0x135E DUP5 DUP3 DUP6 ADD PUSH2 0x12E2 JUMP JUMPDEST SWAP2 POP POP SWAP3 SWAP2 POP POP JUMP JUMPDEST PUSH1 0x0 DUP1 PUSH1 0x40 DUP4 DUP6 SUB SLT ISZERO PUSH2 0x137E JUMPI PUSH2 0x137D PUSH2 0x1BEF JUMP JUMPDEST JUMPDEST PUSH1 0x0 PUSH2 0x138C DUP6 DUP3 DUP7 ADD PUSH2 0x12E2 JUMP JUMPDEST SWAP3 POP POP PUSH1 0x20 DUP4 ADD CALLDATALOAD PUSH8 0xFFFFFFFFFFFFFFFF DUP2 GT ISZERO PUSH2 0x13AD JUMPI PUSH2 0x13AC PUSH2 0x1BEA JUMP JUMPDEST JUMPDEST PUSH2 0x13B9 DUP6 DUP3 DUP7 ADD PUSH2 0x12F7 JUMP JUMPDEST SWAP2 POP POP SWAP3 POP SWAP3 SWAP1 POP JUMP JUMPDEST PUSH1 0x0 DUP1 PUSH1 0x0 PUSH1 0x60 DUP5 DUP7 SUB SLT ISZERO PUSH2 0x13DC JUMPI PUSH2 0x13DB PUSH2 0x1BEF JUMP JUMPDEST JUMPDEST PUSH1 0x0 PUSH2 0x13EA DUP7 DUP3 DUP8 ADD PUSH2 0x12E2 JUMP JUMPDEST SWAP4 POP POP PUSH1 0x20 DUP5 ADD CALLDATALOAD PUSH8 0xFFFFFFFFFFFFFFFF DUP2 GT ISZERO PUSH2 0x140B JUMPI PUSH2 0x140A PUSH2 0x1BEA JUMP JUMPDEST JUMPDEST PUSH2 0x1417 DUP7 DUP3 DUP8 ADD PUSH2 0x12F7 JUMP JUMPDEST SWAP3 POP POP PUSH1 0x40 DUP5 ADD CALLDATALOAD PUSH8 0xFFFFFFFFFFFFFFFF DUP2 GT ISZERO PUSH2 0x1438 JUMPI PUSH2 0x1437 PUSH2 0x1BEA JUMP JUMPDEST JUMPDEST PUSH2 0x1444 DUP7 DUP3 DUP8 ADD PUSH2 0x12F7 JUMP JUMPDEST SWAP2 POP POP SWAP3 POP SWAP3 POP SWAP3 JUMP JUMPDEST PUSH1 0x0 PUSH1 0x20 DUP3 DUP5 SUB SLT ISZERO PUSH2 0x1464 JUMPI PUSH2 0x1463 PUSH2 0x1BEF JUMP JUMPDEST JUMPDEST PUSH1 0x0 DUP3 ADD CALLDATALOAD PUSH8 0xFFFFFFFFFFFFFFFF DUP2 GT ISZERO PUSH2 0x1482 JUMPI PUSH2 0x1481 PUSH2 0x1BEA JUMP JUMPDEST JUMPDEST PUSH2 0x148E DUP5 DUP3 DUP6 ADD PUSH2 0x12F7 JUMP JUMPDEST SWAP2 POP POP SWAP3 SWAP2 POP POP JUMP JUMPDEST PUSH1 0x0 PUSH1 0x20 DUP3 DUP5 SUB SLT ISZERO PUSH2 0x14AD JUMPI PUSH2 0x14AC PUSH2 0x1BEF JUMP JUMPDEST JUMPDEST PUSH1 0x0 PUSH2 0x14BB DUP5 DUP3 DUP6 ADD PUSH2 0x1325 JUMP JUMPDEST SWAP2 POP POP SWAP3 SWAP2 POP POP JUMP JUMPDEST PUSH1 0x0 PUSH2 0x14D0 DUP4 DUP4 PUSH2 0x162C JUMP JUMPDEST SWAP1 POP SWAP3 SWAP2 POP POP JUMP JUMPDEST PUSH2 0x14E1 DUP2 PUSH2 0x199A JUMP JUMPDEST DUP3 MSTORE POP POP JUMP JUMPDEST PUSH2 0x14F0 DUP2 PUSH2 0x199A JUMP JUMPDEST DUP3 MSTORE POP POP JUMP JUMPDEST PUSH1 0x0 PUSH2 0x1501 DUP3 PUSH2 0x18E3 JUMP JUMPDEST PUSH2 0x150B DUP2 DUP6 PUSH2 0x1906 JUMP JUMPDEST SWAP4 POP DUP4 PUSH1 0x20 DUP3 MUL DUP6 ADD PUSH2 0x151D DUP6 PUSH2 0x18D3 JUMP JUMPDEST DUP1 PUSH1 0x0 JUMPDEST DUP6 DUP2 LT ISZERO PUSH2 0x1559 JUMPI DUP5 DUP5 SUB DUP10 MSTORE DUP2 MLOAD PUSH2 0x153A DUP6 DUP3 PUSH2 0x14C4 JUMP JUMPDEST SWAP5 POP PUSH2 0x1545 DUP4 PUSH2 0x18F9 JUMP JUMPDEST SWAP3 POP PUSH1 0x20 DUP11 ADD SWAP10 POP POP PUSH1 0x1 DUP2 ADD SWAP1 POP PUSH2 0x1521 JUMP JUMPDEST POP DUP3 SWAP8 POP DUP8 SWAP6 POP POP POP POP POP POP SWAP3 SWAP2 POP POP JUMP JUMPDEST PUSH2 0x1574 DUP2 PUSH2 0x19AC JUMP JUMPDEST DUP3 MSTORE POP POP JUMP JUMPDEST PUSH2 0x1583 DUP2 PUSH2 0x19F5 JUMP JUMPDEST DUP3 MSTORE POP POP JUMP JUMPDEST PUSH1 0x0 PUSH2 0x1594 DUP3 PUSH2 0x18EE JUMP JUMPDEST PUSH2 0x159E DUP2 DUP6 PUSH2 0x1917 JUMP JUMPDEST SWAP4 POP PUSH2 0x15AE DUP2 DUP6 PUSH1 0x20 DUP7 ADD PUSH2 0x1A16 JUMP JUMPDEST PUSH2 0x15B7 DUP2 PUSH2 0x1BF4 JUMP JUMPDEST DUP5 ADD SWAP2 POP POP SWAP3 SWAP2 POP POP JUMP JUMPDEST PUSH1 0x0 PUSH2 0x15CD DUP3 PUSH2 0x18EE JUMP JUMPDEST PUSH2 0x15D7 DUP2 DUP6 PUSH2 0x1928 JUMP JUMPDEST SWAP4 POP PUSH2 0x15E7 DUP2 DUP6 PUSH1 0x20 DUP7 ADD PUSH2 0x1A16 JUMP JUMPDEST PUSH2 0x15F0 DUP2 PUSH2 0x1BF4 JUMP JUMPDEST DUP5 ADD SWAP2 POP POP SWAP3 SWAP2 POP POP JUMP JUMPDEST PUSH1 0x0 PUSH2 0x1606 DUP3 PUSH2 0x18EE JUMP JUMPDEST PUSH2 0x1610 DUP2 DUP6 PUSH2 0x1939 JUMP JUMPDEST SWAP4 POP PUSH2 0x1620 DUP2 DUP6 PUSH1 0x20 DUP7 ADD PUSH2 0x1A16 JUMP JUMPDEST DUP1 DUP5 ADD SWAP2 POP POP SWAP3 SWAP2 POP POP JUMP JUMPDEST PUSH1 0x0 PUSH1 0x80 DUP4 ADD PUSH1 0x0 DUP4 ADD MLOAD DUP5 DUP3 SUB PUSH1 0x0 DUP7 ADD MSTORE PUSH2 0x1649 DUP3 DUP3 PUSH2 0x1589 JUMP JUMPDEST SWAP2 POP POP PUSH1 0x20 DUP4 ADD MLOAD PUSH2 0x165E PUSH1 0x20 DUP7 ADD DUP3 PUSH2 0x14D8 JUMP JUMPDEST POP PUSH1 0x40 DUP4 ADD MLOAD PUSH2 0x1671 PUSH1 0x40 DUP7 ADD DUP3 PUSH2 0x1700 JUMP JUMPDEST POP PUSH1 0x60 DUP4 ADD MLOAD DUP5 DUP3 SUB PUSH1 0x60 DUP7 ADD MSTORE PUSH2 0x1689 DUP3 DUP3 PUSH2 0x1589 JUMP JUMPDEST SWAP2 POP POP DUP1 SWAP2 POP POP SWAP3 SWAP2 POP POP JUMP JUMPDEST PUSH1 0x0 PUSH1 0x80 DUP4 ADD PUSH1 0x0 DUP4 ADD MLOAD DUP5 DUP3 SUB PUSH1 0x0 DUP7 ADD MSTORE PUSH2 0x16B3 DUP3 DUP3 PUSH2 0x1589 JUMP JUMPDEST SWAP2 POP POP PUSH1 0x20 DUP4 ADD MLOAD PUSH2 0x16C8 PUSH1 0x20 DUP7 ADD DUP3 PUSH2 0x14D8 JUMP JUMPDEST POP PUSH1 0x40 DUP4 ADD MLOAD PUSH2 0x16DB PUSH1 0x40 DUP7 ADD DUP3 PUSH2 0x1700 JUMP JUMPDEST POP PUSH1 0x60 DUP4 ADD MLOAD DUP5 DUP3 SUB PUSH1 0x60 DUP7 ADD MSTORE PUSH2 0x16F3 DUP3 DUP3 PUSH2 0x1589 JUMP JUMPDEST SWAP2 POP POP DUP1 SWAP2 POP POP SWAP3 SWAP2 POP POP JUMP JUMPDEST PUSH2 0x1709 DUP2 PUSH2 0x19EB JUMP JUMPDEST DUP3 MSTORE POP POP JUMP JUMPDEST PUSH2 0x1718 DUP2 PUSH2 0x19EB JUMP JUMPDEST DUP3 MSTORE POP POP JUMP JUMPDEST PUSH1 0x0 PUSH2 0x172A DUP3 DUP5 PUSH2 0x15FB JUMP JUMPDEST SWAP2 POP DUP2 SWAP1 POP SWAP3 SWAP2 POP POP JUMP JUMPDEST PUSH1 0x0 PUSH1 0x20 DUP3 ADD SWAP1 POP PUSH2 0x174A PUSH1 0x0 DUP4 ADD DUP5 PUSH2 0x14E7 JUMP JUMPDEST SWAP3 SWAP2 POP POP JUMP JUMPDEST PUSH1 0x0 PUSH1 0x20 DUP3 ADD SWAP1 POP DUP2 DUP2 SUB PUSH1 0x0 DUP4 ADD MSTORE PUSH2 0x176A DUP2 DUP5 PUSH2 0x14F6 JUMP JUMPDEST SWAP1 POP SWAP3 SWAP2 POP POP JUMP JUMPDEST PUSH1 0x0 PUSH1 0x20 DUP3 ADD SWAP1 POP PUSH2 0x1787 PUSH1 0x0 DUP4 ADD DUP5 PUSH2 0x157A JUMP JUMPDEST SWAP3 SWAP2 POP POP JUMP JUMPDEST PUSH1 0x0 PUSH1 0x20 DUP3 ADD SWAP1 POP DUP2 DUP2 SUB PUSH1 0x0 DUP4 ADD MSTORE PUSH2 0x17A7 DUP2 DUP5 PUSH2 0x15C2 JUMP JUMPDEST SWAP1 POP SWAP3 SWAP2 POP POP JUMP JUMPDEST PUSH1 0x0 PUSH1 0x60 DUP3 ADD SWAP1 POP DUP2 DUP2 SUB PUSH1 0x0 DUP4 ADD MSTORE PUSH2 0x17C9 DUP2 DUP7 PUSH2 0x15C2 JUMP JUMPDEST SWAP1 POP PUSH2 0x17D8 PUSH1 0x20 DUP4 ADD DUP6 PUSH2 0x14E7 JUMP JUMPDEST PUSH2 0x17E5 PUSH1 0x40 DUP4 ADD DUP5 PUSH2 0x156B JUMP JUMPDEST SWAP5 SWAP4 POP POP POP POP JUMP JUMPDEST PUSH1 0x0 PUSH1 0x80 DUP3 ADD SWAP1 POP DUP2 DUP2 SUB PUSH1 0x0 DUP4 ADD MSTORE PUSH2 0x1807 DUP2 DUP8 PUSH2 0x15C2 JUMP JUMPDEST SWAP1 POP PUSH2 0x1816 PUSH1 0x20 DUP4 ADD DUP7 PUSH2 0x14E7 JUMP JUMPDEST PUSH2 0x1823 PUSH1 0x40 DUP4 ADD DUP6 PUSH2 0x170F JUMP JUMPDEST DUP2 DUP2 SUB PUSH1 0x60 DUP4 ADD MSTORE PUSH2 0x1835 DUP2 DUP5 PUSH2 0x15C2 JUMP JUMPDEST SWAP1 POP SWAP6 SWAP5 POP POP POP POP POP JUMP JUMPDEST PUSH1 0x0 PUSH1 0x20 DUP3 ADD SWAP1 POP DUP2 DUP2 SUB PUSH1 0x0 DUP4 ADD MSTORE PUSH2 0x185A DUP2 DUP5 PUSH2 0x1696 JUMP JUMPDEST SWAP1 POP SWAP3 SWAP2 POP POP JUMP JUMPDEST PUSH1 0x0 PUSH1 0x20 DUP3 ADD SWAP1 POP PUSH2 0x1877 PUSH1 0x0 DUP4 ADD DUP5 PUSH2 0x170F JUMP JUMPDEST SWAP3 SWAP2 POP POP JUMP JUMPDEST PUSH1 0x0 PUSH2 0x1887 PUSH2 0x1898 JUMP JUMPDEST SWAP1 POP PUSH2 0x1893 DUP3 DUP3 PUSH2 0x1A7B JUMP JUMPDEST SWAP2 SWAP1 POP JUMP JUMPDEST PUSH1 0x0 PUSH1 0x40 MLOAD SWAP1 POP SWAP1 JUMP JUMPDEST PUSH1 0x0 PUSH8 0xFFFFFFFFFFFFFFFF DUP3 GT ISZERO PUSH2 0x18BD JUMPI PUSH2 0x18BC PUSH2 0x1BB1 JUMP JUMPDEST JUMPDEST PUSH2 0x18C6 DUP3 PUSH2 0x1BF4 JUMP JUMPDEST SWAP1 POP PUSH1 0x20 DUP2 ADD SWAP1 POP SWAP2 SWAP1 POP JUMP JUMPDEST PUSH1 0x0 DUP2 SWAP1 POP PUSH1 0x20 DUP3 ADD SWAP1 POP SWAP2 SWAP1 POP JUMP JUMPDEST PUSH1 0x0 DUP2 MLOAD SWAP1 POP SWAP2 SWAP1 POP JUMP JUMPDEST PUSH1 0x0 DUP2 MLOAD SWAP1 POP SWAP2 SWAP1 POP JUMP JUMPDEST PUSH1 0x0 PUSH1 0x20 DUP3 ADD SWAP1 POP SWAP2 SWAP1 POP JUMP JUMPDEST PUSH1 0x0 DUP3 DUP3 MSTORE PUSH1 0x20 DUP3 ADD SWAP1 POP SWAP3 SWAP2 POP POP JUMP JUMPDEST PUSH1 0x0 DUP3 DUP3 MSTORE PUSH1 0x20 DUP3 ADD SWAP1 POP SWAP3 SWAP2 POP POP JUMP JUMPDEST PUSH1 0x0 DUP3 DUP3 MSTORE PUSH1 0x20 DUP3 ADD SWAP1 POP SWAP3 SWAP2 POP POP JUMP JUMPDEST PUSH1 0x0 DUP2 SWAP1 POP SWAP3 SWAP2 POP POP JUMP JUMPDEST PUSH1 0x0 PUSH2 0x194F DUP3 PUSH2 0x19EB JUMP JUMPDEST SWAP2 POP PUSH2 0x195A DUP4 PUSH2 0x19EB JUMP JUMPDEST SWAP3 POP DUP3 PUSH32 0xFFFFFFFFFFFFFFFFFFFFFFFFFFFFFFFFFFFFFFFFFFFFFFFFFFFFFFFFFFFFFFFF SUB DUP3 GT ISZERO PUSH2 0x198F JUMPI PUSH2 0x198E PUSH2 0x1AF5 JUMP JUMPDEST JUMPDEST DUP3 DUP3 ADD SWAP1 POP SWAP3 SWAP2 POP POP JUMP JUMPDEST PUSH1 0x0 PUSH2 0x19A5 DUP3 PUSH2 0x19CB JUMP JUMPDEST SWAP1 POP SWAP2 SWAP1 POP JUMP JUMPDEST PUSH1 0x0 DUP2 ISZERO ISZERO SWAP1 POP SWAP2 SWAP1 POP JUMP JUMPDEST PUSH1 0x0 DUP2 SWAP1 POP PUSH2 0x19C6 DUP3 PUSH2 0x1C05 JUMP JUMPDEST SWAP2 SWAP1 POP JUMP JUMPDEST PUSH1 0x0 PUSH20 0xFFFFFFFFFFFFFFFFFFFFFFFFFFFFFFFFFFFFFFFF DUP3 AND SWAP1 POP SWAP2 SWAP1 POP JUMP JUMPDEST PUSH1 0x0 DUP2 SWAP1 POP SWAP2 SWAP1 POP JUMP JUMPDEST PUSH1 0x0 PUSH2 0x1A00 DUP3 PUSH2 0x19B8 JUMP JUMPDEST SWAP1 POP SWAP2 SWAP1 POP JUMP JUMPDEST DUP3 DUP2 DUP4 CALLDATACOPY PUSH1 0x0 DUP4 DUP4 ADD MSTORE POP POP POP JUMP JUMPDEST PUSH1 0x0 JUMPDEST DUP4 DUP2 LT ISZERO PUSH2 0x1A34 JUMPI DUP1 DUP3 ADD MLOAD DUP2 DUP5 ADD MSTORE PUSH1 0x20 DUP2 ADD SWAP1 POP PUSH2 0x1A19 JUMP JUMPDEST DUP4 DUP2 GT ISZERO PUSH2 0x1A43 JUMPI PUSH1 0x0 DUP5 DUP5 ADD MSTORE JUMPDEST POP POP POP POP JUMP JUMPDEST PUSH1 0x0 PUSH1 0x2 DUP3 DIV SWAP1 POP PUSH1 0x1 DUP3 AND DUP1 PUSH2 0x1A61 JUMPI PUSH1 0x7F DUP3 AND SWAP2 POP JUMPDEST PUSH1 0x20 DUP3 LT DUP2 EQ ISZERO PUSH2 0x1A75 JUMPI PUSH2 0x1A74 PUSH2 0x1B53 JUMP JUMPDEST JUMPDEST POP SWAP2 SWAP1 POP JUMP JUMPDEST PUSH2 0x1A84 DUP3 PUSH2 0x1BF4 JUMP JUMPDEST DUP2 ADD DUP2 DUP2 LT PUSH8 0xFFFFFFFFFFFFFFFF DUP3 GT OR ISZERO PUSH2 0x1AA3 JUMPI PUSH2 0x1AA2 PUSH2 0x1BB1 JUMP JUMPDEST JUMPDEST DUP1 PUSH1 0x40 MSTORE POP POP POP JUMP JUMPDEST PUSH1 0x0 PUSH2 0x1AB7 DUP3 PUSH2 0x19EB JUMP JUMPDEST SWAP2 POP PUSH32 0xFFFFFFFFFFFFFFFFFFFFFFFFFFFFFFFFFFFFFFFFFFFFFFFFFFFFFFFFFFFFFFFF DUP3 EQ ISZERO PUSH2 0x1AEA JUMPI PUSH2 0x1AE9 PUSH2 0x1AF5 JUMP JUMPDEST JUMPDEST PUSH1 0x1 DUP3 ADD SWAP1 POP SWAP2 SWAP1 POP JUMP JUMPDEST PUSH32 0x4E487B7100000000000000000000000000000000000000000000000000000000 PUSH1 0x0 MSTORE PUSH1 0x11 PUSH1 0x4 MSTORE PUSH1 0x24 PUSH1 0x0 REVERT JUMPDEST PUSH32 0x4E487B7100000000000000000000000000000000000000000000000000000000 PUSH1 0x0 MSTORE PUSH1 0x21 PUSH1 0x4 MSTORE PUSH1 0x24 PUSH1 0x0 REVERT JUMPDEST PUSH32 0x4E487B7100000000000000000000000000000000000000000000000000000000 PUSH1 0x0 MSTORE PUSH1 0x22 PUSH1 0x4 MSTORE PUSH1 0x24 PUSH1 0x0 REVERT JUMPDEST PUSH32 0x4E487B7100000000000000000000000000000000000000000000000000000000 PUSH1 0x0 MSTORE PUSH1 0x32 PUSH1 0x4 MSTORE PUSH1 0x24 PUSH1 0x0 REVERT JUMPDEST PUSH32 0x4E487B7100000000000000000000000000000000000000000000000000000000 PUSH1 0x0 MSTORE PUSH1 0x41 PUSH1 0x4 MSTORE PUSH1 0x24 PUSH1 0x0 REVERT JUMPDEST PUSH1 0x0 DUP1 REVERT JUMPDEST PUSH1 0x0 DUP1 REVERT JUMPDEST PUSH1 0x0 DUP1 REVERT JUMPDEST PUSH1 0x0 DUP1 REVERT JUMPDEST PUSH1 0x0 PUSH1 0x1F NOT PUSH1 0x1F DUP4 ADD AND SWAP1 POP SWAP2 SWAP1 POP JUMP JUMPDEST PUSH1 0x3 DUP2 LT PUSH2 0x1C16 JUMPI PUSH2 0x1C15 PUSH2 0x1B24 JUMP JUMPDEST JUMPDEST POP JUMP JUMPDEST PUSH2 0x1C22 DUP2 PUSH2 0x199A JUMP JUMPDEST DUP2 EQ PUSH2 0x1C2D JUMPI PUSH1 0x0 DUP1 REVERT JUMPDEST POP JUMP JUMPDEST PUSH2 0x1C39 DUP2 PUSH2 0x19EB JUMP JUMPDEST DUP2 EQ PUSH2 0x1C44 JUMPI PUSH1 0x0 DUP1 REVERT JUMPDEST POP JUMP INVALID LOG2 PUSH5 0x6970667358 0x22 SLT KECCAK256 0xE5 CALLDATACOPY SWAP4 0xA9 0xFB 0xCF SWAP16 0xC8 0xCA LOG3 GAS 0xE9 CALLCODE AND 0xB6 PUSH26 0x22B207BD7F9DE485B3088FBD75173A5D64736F6C634300080700 CALLER "
				},
				"gasEstimates": {
					"creation": {
						"codeDepositCost": "1458600",
						"executionCost": "infinite",
						"totalCost": "infinite"
					},
					"external": {
						"AddressToVoter(address)": "infinite",
						"CandidateList(uint256)": "infinite",
						"ElectionName()": "infinite",
						"OragnizerAddress()": "2653",
						"SymbolToCandidate(string)": "infinite",
						"VoteCount(address)": "2858",
						"VoterList(uint256)": "infinite",
						"addCandidates(address,string,string)": "infinite",
						"addVoter(address,string)": "infinite",
						"candidatesCount()": "2474",
						"getCandidate(string)": "infinite",
						"getCandidates()": "infinite",
						"state()": "2582",
						"totalVoters()": "2518",
						"totalVotes()": "2497"
					}
				},
				"methodIdentifiers": {
					"AddressToVoter(address)": "12c06342",
					"CandidateList(uint256)": "72753be5",
					"ElectionName()": "80843e25",
					"OragnizerAddress()": "8949e009",
					"SymbolToCandidate(string)": "46702b16",
					"VoteCount(address)": "d82d4eb9",
					"VoterList(uint256)": "03a0d535",
					"addCandidates(address,string,string)": "62c49251",
					"addVoter(address,string)": "d9e95a98",
					"candidatesCount()": "2d35a8a2",
					"getCandidate(string)": "f276669d",
					"getCandidates()": "06a49fce",
					"state()": "c19d93fb",
					"totalVoters()": "5f5300ff",
					"totalVotes()": "0d15fd77"
				}
			},
			"storageLayout": {
				"storage": [
					{
						"astId": 27,
						"contract": "Voting/contracts/Voting.sol:Voting",
						"label": "AddressToVoter",
						"offset": 0,
						"slot": "0",
						"type": "t_mapping(t_address,t_struct(Voter)8_storage)"
					},
					{
						"astId": 32,
						"contract": "Voting/contracts/Voting.sol:Voting",
						"label": "Votes",
						"offset": 0,
						"slot": "1",
						"type": "t_mapping(t_address,t_struct(Vote)13_storage)"
					},
					{
						"astId": 36,
						"contract": "Voting/contracts/Voting.sol:Voting",
						"label": "VoteCount",
						"offset": 0,
						"slot": "2",
						"type": "t_mapping(t_address,t_uint256)"
					},
					{
						"astId": 41,
						"contract": "Voting/contracts/Voting.sol:Voting",
						"label": "VoterList",
						"offset": 0,
						"slot": "3",
						"type": "t_mapping(t_uint256,t_struct(Voter)8_storage)"
					},
					{
						"astId": 46,
						"contract": "Voting/contracts/Voting.sol:Voting",
						"label": "CandidateList",
						"offset": 0,
						"slot": "4",
						"type": "t_mapping(t_uint256,t_struct(Candidate)22_storage)"
					},
					{
						"astId": 51,
						"contract": "Voting/contracts/Voting.sol:Voting",
						"label": "SymbolToCandidate",
						"offset": 0,
						"slot": "5",
						"type": "t_mapping(t_string_memory_ptr,t_struct(Candidate)22_storage)"
					},
					{
						"astId": 53,
						"contract": "Voting/contracts/Voting.sol:Voting",
						"label": "candidatesCount",
						"offset": 0,
						"slot": "6",
						"type": "t_uint256"
					},
					{
						"astId": 55,
						"contract": "Voting/contracts/Voting.sol:Voting",
						"label": "totalVoters",
						"offset": 0,
						"slot": "7",
						"type": "t_uint256"
					},
					{
						"astId": 57,
						"contract": "Voting/contracts/Voting.sol:Voting",
						"label": "totalVotes",
						"offset": 0,
						"slot": "8",
						"type": "t_uint256"
					},
					{
						"astId": 64,
						"contract": "Voting/contracts/Voting.sol:Voting",
						"label": "state",
						"offset": 0,
						"slot": "9",
						"type": "t_enum(State)61"
					},
					{
						"astId": 66,
						"contract": "Voting/contracts/Voting.sol:Voting",
						"label": "OragnizerAddress",
						"offset": 1,
						"slot": "9",
						"type": "t_address"
					},
					{
						"astId": 68,
						"contract": "Voting/contracts/Voting.sol:Voting",
						"label": "ElectionName",
						"offset": 0,
						"slot": "10",
						"type": "t_string_storage"
					}
				],
				"types": {
					"t_address": {
						"encoding": "inplace",
						"label": "address",
						"numberOfBytes": "20"
					},
					"t_bool": {
						"encoding": "inplace",
						"label": "bool",
						"numberOfBytes": "1"
					},
					"t_enum(State)61": {
						"encoding": "inplace",
						"label": "enum Voting.State",
						"numberOfBytes": "1"
					},
					"t_mapping(t_address,t_struct(Vote)13_storage)": {
						"encoding": "mapping",
						"key": "t_address",
						"label": "mapping(address => struct Voting.Vote)",
						"numberOfBytes": "32",
						"value": "t_struct(Vote)13_storage"
					},
					"t_mapping(t_address,t_struct(Voter)8_storage)": {
						"encoding": "mapping",
						"key": "t_address",
						"label": "mapping(address => struct Voting.Voter)",
						"numberOfBytes": "32",
						"value": "t_struct(Voter)8_storage"
					},
					"t_mapping(t_address,t_uint256)": {
						"encoding": "mapping",
						"key": "t_address",
						"label": "mapping(address => uint256)",
						"numberOfBytes": "32",
						"value": "t_uint256"
					},
					"t_mapping(t_string_memory_ptr,t_struct(Candidate)22_storage)": {
						"encoding": "mapping",
						"key": "t_string_memory_ptr",
						"label": "mapping(string => struct Voting.Candidate)",
						"numberOfBytes": "32",
						"value": "t_struct(Candidate)22_storage"
					},
					"t_mapping(t_uint256,t_struct(Candidate)22_storage)": {
						"encoding": "mapping",
						"key": "t_uint256",
						"label": "mapping(uint256 => struct Voting.Candidate)",
						"numberOfBytes": "32",
						"value": "t_struct(Candidate)22_storage"
					},
					"t_mapping(t_uint256,t_struct(Voter)8_storage)": {
						"encoding": "mapping",
						"key": "t_uint256",
						"label": "mapping(uint256 => struct Voting.Voter)",
						"numberOfBytes": "32",
						"value": "t_struct(Voter)8_storage"
					},
					"t_string_memory_ptr": {
						"encoding": "bytes",
						"label": "string",
						"numberOfBytes": "32"
					},
					"t_string_storage": {
						"encoding": "bytes",
						"label": "string",
						"numberOfBytes": "32"
					},
					"t_struct(Candidate)22_storage": {
						"encoding": "inplace",
						"label": "struct Voting.Candidate",
						"members": [
							{
								"astId": 15,
								"contract": "Voting/contracts/Voting.sol:Voting",
								"label": "candidateName",
								"offset": 0,
								"slot": "0",
								"type": "t_string_storage"
							},
							{
								"astId": 17,
								"contract": "Voting/contracts/Voting.sol:Voting",
								"label": "candidateAddress",
								"offset": 0,
								"slot": "1",
								"type": "t_address"
							},
							{
								"astId": 19,
								"contract": "Voting/contracts/Voting.sol:Voting",
								"label": "numberOfVotes",
								"offset": 0,
								"slot": "2",
								"type": "t_uint256"
							},
							{
								"astId": 21,
								"contract": "Voting/contracts/Voting.sol:Voting",
								"label": "symbol",
								"offset": 0,
								"slot": "3",
								"type": "t_string_storage"
							}
						],
						"numberOfBytes": "128"
					},
					"t_struct(Vote)13_storage": {
						"encoding": "inplace",
						"label": "struct Voting.Vote",
						"members": [
							{
								"astId": 10,
								"contract": "Voting/contracts/Voting.sol:Voting",
								"label": "voterAddress",
								"offset": 0,
								"slot": "0",
								"type": "t_address"
							},
							{
								"astId": 12,
								"contract": "Voting/contracts/Voting.sol:Voting",
								"label": "symbol",
								"offset": 0,
								"slot": "1",
								"type": "t_uint256"
							}
						],
						"numberOfBytes": "64"
					},
					"t_struct(Voter)8_storage": {
						"encoding": "inplace",
						"label": "struct Voting.Voter",
						"members": [
							{
								"astId": 3,
								"contract": "Voting/contracts/Voting.sol:Voting",
								"label": "voterName",
								"offset": 0,
								"slot": "0",
								"type": "t_string_storage"
							},
							{
								"astId": 5,
								"contract": "Voting/contracts/Voting.sol:Voting",
								"label": "voterAddress",
								"offset": 0,
								"slot": "1",
								"type": "t_address"
							},
							{
								"astId": 7,
								"contract": "Voting/contracts/Voting.sol:Voting",
								"label": "voted",
								"offset": 20,
								"slot": "1",
								"type": "t_bool"
							}
						],
						"numberOfBytes": "64"
					},
					"t_uint256": {
						"encoding": "inplace",
						"label": "uint256",
						"numberOfBytes": "32"
					}
				}
			},
			"userdoc": {
				"kind": "user",
				"methods": {},
				"version": 1
			}
		}
	}
}