{
	"Voting/contracts/Voting.sol": {
		"Voting": {
			"abi": [
				{
					"inputs": [
						{
							"internalType": "string",
							"name": "_electionName",
							"type": "string"
						}
					],
					"stateMutability": "nonpayable",
					"type": "constructor"
				},
				{
					"inputs": [
						{
							"internalType": "address",
							"name": "",
							"type": "address"
						}
					],
					"name": "AddressToVote",
					"outputs": [
						{
							"internalType": "address",
							"name": "voterAddress",
							"type": "address"
						},
						{
							"internalType": "string",
							"name": "symbol",
							"type": "string"
						}
					],
					"stateMutability": "view",
					"type": "function"
				},
				{
					"inputs": [
						{
							"internalType": "address",
							"name": "",
							"type": "address"
						}
					],
					"name": "AddressToVoter",
					"outputs": [
						{
							"internalType": "bool",
							"name": "isAVoter",
							"type": "bool"
						},
						{
							"internalType": "string",
							"name": "voterName",
							"type": "string"
						},
						{
							"internalType": "address",
							"name": "voterAddress",
							"type": "address"
						},
						{
							"internalType": "bool",
							"name": "voted",
							"type": "bool"
						}
					],
					"stateMutability": "view",
					"type": "function"
				},
				{
					"inputs": [
						{
							"internalType": "uint256",
							"name": "",
							"type": "uint256"
						}
					],
					"name": "CandidateList",
					"outputs": [
						{
							"internalType": "string",
							"name": "",
							"type": "string"
						}
					],
					"stateMutability": "view",
					"type": "function"
				},
				{
					"inputs": [],
					"name": "ElectionName",
					"outputs": [
						{
							"internalType": "string",
							"name": "",
							"type": "string"
						}
					],
					"stateMutability": "view",
					"type": "function"
				},
				{
					"inputs": [],
					"name": "OragnizerAddress",
					"outputs": [
						{
							"internalType": "address",
							"name": "",
							"type": "address"
						}
					],
					"stateMutability": "view",
					"type": "function"
				},
				{
					"inputs": [
						{
							"internalType": "string",
							"name": "",
							"type": "string"
						}
					],
					"name": "SymbolToCandidate",
					"outputs": [
						{
							"internalType": "string",
							"name": "candidateName",
							"type": "string"
						},
						{
							"internalType": "address",
							"name": "candidateAddress",
							"type": "address"
						},
						{
							"internalType": "uint256",
							"name": "numberOfVotes",
							"type": "uint256"
						},
						{
							"internalType": "string",
							"name": "symbol",
							"type": "string"
						}
					],
					"stateMutability": "view",
					"type": "function"
				},
				{
					"inputs": [
						{
							"internalType": "uint256",
							"name": "",
							"type": "uint256"
						}
					],
					"name": "VoterList",
					"outputs": [
						{
							"internalType": "address",
							"name": "",
							"type": "address"
						}
					],
					"stateMutability": "view",
					"type": "function"
				},
				{
					"inputs": [
						{
							"internalType": "address",
							"name": "_candidateAddress",
							"type": "address"
						},
						{
							"internalType": "string",
							"name": "_candidateName",
							"type": "string"
						},
						{
							"internalType": "string",
							"name": "_symbol",
							"type": "string"
						}
					],
					"name": "addCandidates",
					"outputs": [],
					"stateMutability": "nonpayable",
					"type": "function"
				},
				{
					"inputs": [
						{
							"internalType": "address",
							"name": "_voterAddress",
							"type": "address"
						},
						{
							"internalType": "string",
							"name": "_voterName",
							"type": "string"
						}
					],
					"name": "addVoter",
					"outputs": [],
					"stateMutability": "nonpayable",
					"type": "function"
				},
				{
					"inputs": [],
					"name": "candidatesCount",
					"outputs": [
						{
							"internalType": "uint256",
							"name": "",
							"type": "uint256"
						}
					],
					"stateMutability": "view",
					"type": "function"
				},
				{
					"inputs": [
						{
							"internalType": "string",
							"name": "_symbol",
							"type": "string"
						}
					],
					"name": "getCandidate",
					"outputs": [
						{
							"components": [
								{
									"internalType": "string",
									"name": "candidateName",
									"type": "string"
								},
								{
									"internalType": "address",
									"name": "candidateAddress",
									"type": "address"
								},
								{
									"internalType": "uint256",
									"name": "numberOfVotes",
									"type": "uint256"
								},
								{
									"internalType": "string",
									"name": "symbol",
									"type": "string"
								}
							],
							"internalType": "struct Voting.Candidate",
							"name": "",
							"type": "tuple"
						}
					],
					"stateMutability": "view",
					"type": "function"
				},
				{
					"inputs": [],
					"name": "getCandidates",
					"outputs": [
						{
							"components": [
								{
									"internalType": "string",
									"name": "candidateName",
									"type": "string"
								},
								{
									"internalType": "address",
									"name": "candidateAddress",
									"type": "address"
								},
								{
									"internalType": "uint256",
									"name": "numberOfVotes",
									"type": "uint256"
								},
								{
									"internalType": "string",
									"name": "symbol",
									"type": "string"
								}
							],
							"internalType": "struct Voting.Candidate[]",
							"name": "",
							"type": "tuple[]"
						}
					],
					"stateMutability": "view",
					"type": "function"
				},
				{
					"inputs": [
						{
							"internalType": "string",
							"name": "_voteSymbol",
							"type": "string"
						}
					],
					"name": "makeVote",
					"outputs": [],
					"stateMutability": "nonpayable",
					"type": "function"
				},
				{
					"inputs": [],
					"name": "state",
					"outputs": [
						{
							"internalType": "enum Voting.State",
							"name": "",
							"type": "uint8"
						}
					],
					"stateMutability": "view",
					"type": "function"
				},
				{
					"inputs": [
						{
							"internalType": "string",
							"name": "",
							"type": "string"
						}
					],
					"name": "symbolToVotes",
					"outputs": [
						{
							"internalType": "uint256",
							"name": "",
							"type": "uint256"
						}
					],
					"stateMutability": "view",
					"type": "function"
				},
				{
					"inputs": [],
					"name": "totalVoters",
					"outputs": [
						{
							"internalType": "uint256",
							"name": "",
							"type": "uint256"
						}
					],
					"stateMutability": "view",
					"type": "function"
				},
				{
					"inputs": [],
					"name": "totalVotes",
					"outputs": [
						{
							"internalType": "uint256",
							"name": "",
							"type": "uint256"
						}
					],
					"stateMutability": "view",
					"type": "function"
				}
			],
			"devdoc": {
				"kind": "dev",
				"methods": {},
				"version": 1
			},
			"evm": {
				"assembly": "    /* \"Voting/contracts/Voting.sol\":62:3469  contract Voting {\r... */\n  mstore(0x40, 0x80)\n    /* \"Voting/contracts/Voting.sol\":1098:1263  constructor(string memory _electionName){\r... */\n  callvalue\n  dup1\n  iszero\n  tag_1\n  jumpi\n  0x00\n  dup1\n  revert\ntag_1:\n  pop\n  mload(0x40)\n  sub(codesize, bytecodeSize)\n  dup1\n  bytecodeSize\n  dup4\n  codecopy\n  dup2\n  dup2\n  add\n  0x40\n  mstore\n  dup2\n  add\n  swap1\n  tag_2\n  swap2\n  swap1\n  tag_3\n  jump\t// in\ntag_2:\n    /* \"Voting/contracts/Voting.sol\":1168:1178  msg.sender */\n  caller\n    /* \"Voting/contracts/Voting.sol\":1149:1165  OragnizerAddress */\n  0x0a\n  0x01\n    /* \"Voting/contracts/Voting.sol\":1149:1178  OragnizerAddress = msg.sender */\n  0x0100\n  exp\n  dup2\n  sload\n  dup2\n  0xffffffffffffffffffffffffffffffffffffffff\n  mul\n  not\n  and\n  swap1\n  dup4\n  0xffffffffffffffffffffffffffffffffffffffff\n  and\n  mul\n  or\n  swap1\n  sstore\n  pop\n    /* \"Voting/contracts/Voting.sol\":1204:1217  _electionName */\n  dup1\n    /* \"Voting/contracts/Voting.sol\":1189:1201  ElectionName */\n  0x0b\n    /* \"Voting/contracts/Voting.sol\":1189:1217  ElectionName = _electionName */\n  swap1\n  dup1\n  mload\n  swap1\n  0x20\n  add\n  swap1\n  tag_6\n  swap3\n  swap2\n  swap1\n  tag_7\n  jump\t// in\ntag_6:\n  pop\n    /* \"Voting/contracts/Voting.sol\":1238:1251  State.Created */\n  0x00\n    /* \"Voting/contracts/Voting.sol\":1230:1235  state */\n  0x0a\n  0x00\n    /* \"Voting/contracts/Voting.sol\":1230:1251  state = State.Created */\n  0x0100\n  exp\n  dup2\n  sload\n  dup2\n  0xff\n  mul\n  not\n  and\n  swap1\n  dup4\n  0x02\n  dup2\n  gt\n  iszero\n  tag_8\n  jumpi\n  tag_9\n  tag_10\n  jump\t// in\ntag_9:\ntag_8:\n  mul\n  or\n  swap1\n  sstore\n  pop\n    /* \"Voting/contracts/Voting.sol\":1098:1263  constructor(string memory _electionName){\r... */\n  pop\n    /* \"Voting/contracts/Voting.sol\":62:3469  contract Voting {\r... */\n  jump(tag_11)\ntag_7:\n  dup3\n  dup1\n  sload\n  tag_12\n  swap1\n  tag_13\n  jump\t// in\ntag_12:\n  swap1\n  0x00\n  mstore\n  keccak256(0x00, 0x20)\n  swap1\n  0x1f\n  add\n  0x20\n  swap1\n  div\n  dup2\n  add\n  swap3\n  dup3\n  tag_15\n  jumpi\n  0x00\n  dup6\n  sstore\n  jump(tag_14)\ntag_15:\n  dup3\n  0x1f\n  lt\n  tag_16\n  jumpi\n  dup1\n  mload\n  not(0xff)\n  and\n  dup4\n  dup1\n  add\n  or\n  dup6\n  sstore\n  jump(tag_14)\ntag_16:\n  dup3\n  dup1\n  add\n  0x01\n  add\n  dup6\n  sstore\n  dup3\n  iszero\n  tag_14\n  jumpi\n  swap2\n  dup3\n  add\ntag_17:\n  dup3\n  dup2\n  gt\n  iszero\n  tag_18\n  jumpi\n  dup3\n  mload\n  dup3\n  sstore\n  swap2\n  0x20\n  add\n  swap2\n  swap1\n  0x01\n  add\n  swap1\n  jump(tag_17)\ntag_18:\ntag_14:\n  pop\n  swap1\n  pop\n  tag_19\n  swap2\n  swap1\n  tag_20\n  jump\t// in\ntag_19:\n  pop\n  swap1\n  jump\t// out\ntag_20:\ntag_21:\n  dup1\n  dup3\n  gt\n  iszero\n  tag_22\n  jumpi\n  0x00\n  dup2\n  0x00\n  swap1\n  sstore\n  pop\n  0x01\n  add\n  jump(tag_21)\ntag_22:\n  pop\n  swap1\n  jump\t// out\n    /* \"#utility.yul\":7:428   */\ntag_24:\n    /* \"#utility.yul\":96:101   */\n  0x00\n    /* \"#utility.yul\":121:187   */\n  tag_26\n    /* \"#utility.yul\":137:186   */\n  tag_27\n    /* \"#utility.yul\":179:185   */\n  dup5\n    /* \"#utility.yul\":137:186   */\n  tag_28\n  jump\t// in\ntag_27:\n    /* \"#utility.yul\":121:187   */\n  tag_29\n  jump\t// in\ntag_26:\n    /* \"#utility.yul\":112:187   */\n  swap1\n  pop\n    /* \"#utility.yul\":210:216   */\n  dup3\n    /* \"#utility.yul\":203:208   */\n  dup2\n    /* \"#utility.yul\":196:217   */\n  mstore\n    /* \"#utility.yul\":248:252   */\n  0x20\n    /* \"#utility.yul\":241:246   */\n  dup2\n    /* \"#utility.yul\":237:253   */\n  add\n    /* \"#utility.yul\":286:289   */\n  dup5\n    /* \"#utility.yul\":277:283   */\n  dup5\n    /* \"#utility.yul\":272:275   */\n  dup5\n    /* \"#utility.yul\":268:284   */\n  add\n    /* \"#utility.yul\":265:290   */\n  gt\n    /* \"#utility.yul\":262:374   */\n  iszero\n  tag_30\n  jumpi\n    /* \"#utility.yul\":293:372   */\n  tag_31\n  tag_32\n  jump\t// in\ntag_31:\n    /* \"#utility.yul\":262:374   */\ntag_30:\n    /* \"#utility.yul\":383:422   */\n  tag_33\n    /* \"#utility.yul\":415:421   */\n  dup5\n    /* \"#utility.yul\":410:413   */\n  dup3\n    /* \"#utility.yul\":405:408   */\n  dup6\n    /* \"#utility.yul\":383:422   */\n  tag_34\n  jump\t// in\ntag_33:\n    /* \"#utility.yul\":102:428   */\n  pop\n    /* \"#utility.yul\":7:428   */\n  swap4\n  swap3\n  pop\n  pop\n  pop\n  jump\t// out\n    /* \"#utility.yul\":448:803   */\ntag_35:\n    /* \"#utility.yul\":515:520   */\n  0x00\n    /* \"#utility.yul\":564:567   */\n  dup3\n    /* \"#utility.yul\":557:561   */\n  0x1f\n    /* \"#utility.yul\":549:555   */\n  dup4\n    /* \"#utility.yul\":545:562   */\n  add\n    /* \"#utility.yul\":541:568   */\n  slt\n    /* \"#utility.yul\":531:653   */\n  tag_37\n  jumpi\n    /* \"#utility.yul\":572:651   */\n  tag_38\n  tag_39\n  jump\t// in\ntag_38:\n    /* \"#utility.yul\":531:653   */\ntag_37:\n    /* \"#utility.yul\":682:688   */\n  dup2\n    /* \"#utility.yul\":676:689   */\n  mload\n    /* \"#utility.yul\":707:797   */\n  tag_40\n    /* \"#utility.yul\":793:796   */\n  dup5\n    /* \"#utility.yul\":785:791   */\n  dup3\n    /* \"#utility.yul\":778:782   */\n  0x20\n    /* \"#utility.yul\":770:776   */\n  dup7\n    /* \"#utility.yul\":766:783   */\n  add\n    /* \"#utility.yul\":707:797   */\n  tag_24\n  jump\t// in\ntag_40:\n    /* \"#utility.yul\":698:797   */\n  swap2\n  pop\n    /* \"#utility.yul\":521:803   */\n  pop\n    /* \"#utility.yul\":448:803   */\n  swap3\n  swap2\n  pop\n  pop\n  jump\t// out\n    /* \"#utility.yul\":809:1333   */\ntag_3:\n    /* \"#utility.yul\":889:895   */\n  0x00\n    /* \"#utility.yul\":938:940   */\n  0x20\n    /* \"#utility.yul\":926:935   */\n  dup3\n    /* \"#utility.yul\":917:924   */\n  dup5\n    /* \"#utility.yul\":913:936   */\n  sub\n    /* \"#utility.yul\":909:941   */\n  slt\n    /* \"#utility.yul\":906:1025   */\n  iszero\n  tag_42\n  jumpi\n    /* \"#utility.yul\":944:1023   */\n  tag_43\n  tag_44\n  jump\t// in\ntag_43:\n    /* \"#utility.yul\":906:1025   */\ntag_42:\n    /* \"#utility.yul\":1085:1086   */\n  0x00\n    /* \"#utility.yul\":1074:1083   */\n  dup3\n    /* \"#utility.yul\":1070:1087   */\n  add\n    /* \"#utility.yul\":1064:1088   */\n  mload\n    /* \"#utility.yul\":1115:1133   */\n  0xffffffffffffffff\n    /* \"#utility.yul\":1107:1113   */\n  dup2\n    /* \"#utility.yul\":1104:1134   */\n  gt\n    /* \"#utility.yul\":1101:1218   */\n  iszero\n  tag_45\n  jumpi\n    /* \"#utility.yul\":1137:1216   */\n  tag_46\n  tag_47\n  jump\t// in\ntag_46:\n    /* \"#utility.yul\":1101:1218   */\ntag_45:\n    /* \"#utility.yul\":1242:1316   */\n  tag_48\n    /* \"#utility.yul\":1308:1315   */\n  dup5\n    /* \"#utility.yul\":1299:1305   */\n  dup3\n    /* \"#utility.yul\":1288:1297   */\n  dup6\n    /* \"#utility.yul\":1284:1306   */\n  add\n    /* \"#utility.yul\":1242:1316   */\n  tag_35\n  jump\t// in\ntag_48:\n    /* \"#utility.yul\":1232:1316   */\n  swap2\n  pop\n    /* \"#utility.yul\":1035:1326   */\n  pop\n    /* \"#utility.yul\":809:1333   */\n  swap3\n  swap2\n  pop\n  pop\n  jump\t// out\n    /* \"#utility.yul\":1339:1468   */\ntag_29:\n    /* \"#utility.yul\":1373:1379   */\n  0x00\n    /* \"#utility.yul\":1400:1420   */\n  tag_50\n  tag_51\n  jump\t// in\ntag_50:\n    /* \"#utility.yul\":1390:1420   */\n  swap1\n  pop\n    /* \"#utility.yul\":1429:1462   */\n  tag_52\n    /* \"#utility.yul\":1457:1461   */\n  dup3\n    /* \"#utility.yul\":1449:1455   */\n  dup3\n    /* \"#utility.yul\":1429:1462   */\n  tag_53\n  jump\t// in\ntag_52:\n    /* \"#utility.yul\":1339:1468   */\n  swap2\n  swap1\n  pop\n  jump\t// out\n    /* \"#utility.yul\":1474:1549   */\ntag_51:\n    /* \"#utility.yul\":1507:1513   */\n  0x00\n    /* \"#utility.yul\":1540:1542   */\n  0x40\n    /* \"#utility.yul\":1534:1543   */\n  mload\n    /* \"#utility.yul\":1524:1543   */\n  swap1\n  pop\n    /* \"#utility.yul\":1474:1549   */\n  swap1\n  jump\t// out\n    /* \"#utility.yul\":1555:1863   */\ntag_28:\n    /* \"#utility.yul\":1617:1621   */\n  0x00\n    /* \"#utility.yul\":1707:1725   */\n  0xffffffffffffffff\n    /* \"#utility.yul\":1699:1705   */\n  dup3\n    /* \"#utility.yul\":1696:1726   */\n  gt\n    /* \"#utility.yul\":1693:1749   */\n  iszero\n  tag_56\n  jumpi\n    /* \"#utility.yul\":1729:1747   */\n  tag_57\n  tag_58\n  jump\t// in\ntag_57:\n    /* \"#utility.yul\":1693:1749   */\ntag_56:\n    /* \"#utility.yul\":1767:1796   */\n  tag_59\n    /* \"#utility.yul\":1789:1795   */\n  dup3\n    /* \"#utility.yul\":1767:1796   */\n  tag_60\n  jump\t// in\ntag_59:\n    /* \"#utility.yul\":1759:1796   */\n  swap1\n  pop\n    /* \"#utility.yul\":1851:1855   */\n  0x20\n    /* \"#utility.yul\":1845:1849   */\n  dup2\n    /* \"#utility.yul\":1841:1856   */\n  add\n    /* \"#utility.yul\":1833:1856   */\n  swap1\n  pop\n    /* \"#utility.yul\":1555:1863   */\n  swap2\n  swap1\n  pop\n  jump\t// out\n    /* \"#utility.yul\":1869:2176   */\ntag_34:\n    /* \"#utility.yul\":1937:1938   */\n  0x00\n    /* \"#utility.yul\":1947:2060   */\ntag_62:\n    /* \"#utility.yul\":1961:1967   */\n  dup4\n    /* \"#utility.yul\":1958:1959   */\n  dup2\n    /* \"#utility.yul\":1955:1968   */\n  lt\n    /* \"#utility.yul\":1947:2060   */\n  iszero\n  tag_64\n  jumpi\n    /* \"#utility.yul\":2046:2047   */\n  dup1\n    /* \"#utility.yul\":2041:2044   */\n  dup3\n    /* \"#utility.yul\":2037:2048   */\n  add\n    /* \"#utility.yul\":2031:2049   */\n  mload\n    /* \"#utility.yul\":2027:2028   */\n  dup2\n    /* \"#utility.yul\":2022:2025   */\n  dup5\n    /* \"#utility.yul\":2018:2029   */\n  add\n    /* \"#utility.yul\":2011:2050   */\n  mstore\n    /* \"#utility.yul\":1983:1985   */\n  0x20\n    /* \"#utility.yul\":1980:1981   */\n  dup2\n    /* \"#utility.yul\":1976:1986   */\n  add\n    /* \"#utility.yul\":1971:1986   */\n  swap1\n  pop\n    /* \"#utility.yul\":1947:2060   */\n  jump(tag_62)\ntag_64:\n    /* \"#utility.yul\":2078:2084   */\n  dup4\n    /* \"#utility.yul\":2075:2076   */\n  dup2\n    /* \"#utility.yul\":2072:2085   */\n  gt\n    /* \"#utility.yul\":2069:2170   */\n  iszero\n  tag_65\n  jumpi\n    /* \"#utility.yul\":2158:2159   */\n  0x00\n    /* \"#utility.yul\":2149:2155   */\n  dup5\n    /* \"#utility.yul\":2144:2147   */\n  dup5\n    /* \"#utility.yul\":2140:2156   */\n  add\n    /* \"#utility.yul\":2133:2160   */\n  mstore\n    /* \"#utility.yul\":2069:2170   */\ntag_65:\n    /* \"#utility.yul\":1918:2176   */\n  pop\n    /* \"#utility.yul\":1869:2176   */\n  pop\n  pop\n  pop\n  jump\t// out\n    /* \"#utility.yul\":2182:2502   */\ntag_13:\n    /* \"#utility.yul\":2226:2232   */\n  0x00\n    /* \"#utility.yul\":2263:2264   */\n  0x02\n    /* \"#utility.yul\":2257:2261   */\n  dup3\n    /* \"#utility.yul\":2253:2265   */\n  div\n    /* \"#utility.yul\":2243:2265   */\n  swap1\n  pop\n    /* \"#utility.yul\":2310:2311   */\n  0x01\n    /* \"#utility.yul\":2304:2308   */\n  dup3\n    /* \"#utility.yul\":2300:2312   */\n  and\n    /* \"#utility.yul\":2331:2349   */\n  dup1\n    /* \"#utility.yul\":2321:2402   */\n  tag_67\n  jumpi\n    /* \"#utility.yul\":2387:2391   */\n  0x7f\n    /* \"#utility.yul\":2379:2385   */\n  dup3\n    /* \"#utility.yul\":2375:2392   */\n  and\n    /* \"#utility.yul\":2365:2392   */\n  swap2\n  pop\n    /* \"#utility.yul\":2321:2402   */\ntag_67:\n    /* \"#utility.yul\":2449:2451   */\n  0x20\n    /* \"#utility.yul\":2441:2447   */\n  dup3\n    /* \"#utility.yul\":2438:2452   */\n  lt\n    /* \"#utility.yul\":2418:2436   */\n  dup2\n    /* \"#utility.yul\":2415:2453   */\n  eq\n    /* \"#utility.yul\":2412:2496   */\n  iszero\n  tag_68\n  jumpi\n    /* \"#utility.yul\":2468:2486   */\n  tag_69\n  tag_70\n  jump\t// in\ntag_69:\n    /* \"#utility.yul\":2412:2496   */\ntag_68:\n    /* \"#utility.yul\":2233:2502   */\n  pop\n    /* \"#utility.yul\":2182:2502   */\n  swap2\n  swap1\n  pop\n  jump\t// out\n    /* \"#utility.yul\":2508:2789   */\ntag_53:\n    /* \"#utility.yul\":2591:2618   */\n  tag_72\n    /* \"#utility.yul\":2613:2617   */\n  dup3\n    /* \"#utility.yul\":2591:2618   */\n  tag_60\n  jump\t// in\ntag_72:\n    /* \"#utility.yul\":2583:2589   */\n  dup2\n    /* \"#utility.yul\":2579:2619   */\n  add\n    /* \"#utility.yul\":2721:2727   */\n  dup2\n    /* \"#utility.yul\":2709:2719   */\n  dup2\n    /* \"#utility.yul\":2706:2728   */\n  lt\n    /* \"#utility.yul\":2685:2703   */\n  0xffffffffffffffff\n    /* \"#utility.yul\":2673:2683   */\n  dup3\n    /* \"#utility.yul\":2670:2704   */\n  gt\n    /* \"#utility.yul\":2667:2729   */\n  or\n    /* \"#utility.yul\":2664:2752   */\n  iszero\n  tag_73\n  jumpi\n    /* \"#utility.yul\":2732:2750   */\n  tag_74\n  tag_58\n  jump\t// in\ntag_74:\n    /* \"#utility.yul\":2664:2752   */\ntag_73:\n    /* \"#utility.yul\":2772:2782   */\n  dup1\n    /* \"#utility.yul\":2768:2770   */\n  0x40\n    /* \"#utility.yul\":2761:2783   */\n  mstore\n    /* \"#utility.yul\":2551:2789   */\n  pop\n    /* \"#utility.yul\":2508:2789   */\n  pop\n  pop\n  jump\t// out\n    /* \"#utility.yul\":2795:2975   */\ntag_10:\n    /* \"#utility.yul\":2843:2920   */\n  0x4e487b7100000000000000000000000000000000000000000000000000000000\n    /* \"#utility.yul\":2840:2841   */\n  0x00\n    /* \"#utility.yul\":2833:2921   */\n  mstore\n    /* \"#utility.yul\":2940:2944   */\n  0x21\n    /* \"#utility.yul\":2937:2938   */\n  0x04\n    /* \"#utility.yul\":2930:2945   */\n  mstore\n    /* \"#utility.yul\":2964:2968   */\n  0x24\n    /* \"#utility.yul\":2961:2962   */\n  0x00\n    /* \"#utility.yul\":2954:2969   */\n  revert\n    /* \"#utility.yul\":2981:3161   */\ntag_70:\n    /* \"#utility.yul\":3029:3106   */\n  0x4e487b7100000000000000000000000000000000000000000000000000000000\n    /* \"#utility.yul\":3026:3027   */\n  0x00\n    /* \"#utility.yul\":3019:3107   */\n  mstore\n    /* \"#utility.yul\":3126:3130   */\n  0x22\n    /* \"#utility.yul\":3123:3124   */\n  0x04\n    /* \"#utility.yul\":3116:3131   */\n  mstore\n    /* \"#utility.yul\":3150:3154   */\n  0x24\n    /* \"#utility.yul\":3147:3148   */\n  0x00\n    /* \"#utility.yul\":3140:3155   */\n  revert\n    /* \"#utility.yul\":3167:3347   */\ntag_58:\n    /* \"#utility.yul\":3215:3292   */\n  0x4e487b7100000000000000000000000000000000000000000000000000000000\n    /* \"#utility.yul\":3212:3213   */\n  0x00\n    /* \"#utility.yul\":3205:3293   */\n  mstore\n    /* \"#utility.yul\":3312:3316   */\n  0x41\n    /* \"#utility.yul\":3309:3310   */\n  0x04\n    /* \"#utility.yul\":3302:3317   */\n  mstore\n    /* \"#utility.yul\":3336:3340   */\n  0x24\n    /* \"#utility.yul\":3333:3334   */\n  0x00\n    /* \"#utility.yul\":3326:3341   */\n  revert\n    /* \"#utility.yul\":3353:3470   */\ntag_39:\n    /* \"#utility.yul\":3462:3463   */\n  0x00\n    /* \"#utility.yul\":3459:3460   */\n  dup1\n    /* \"#utility.yul\":3452:3464   */\n  revert\n    /* \"#utility.yul\":3476:3593   */\ntag_32:\n    /* \"#utility.yul\":3585:3586   */\n  0x00\n    /* \"#utility.yul\":3582:3583   */\n  dup1\n    /* \"#utility.yul\":3575:3587   */\n  revert\n    /* \"#utility.yul\":3599:3716   */\ntag_47:\n    /* \"#utility.yul\":3708:3709   */\n  0x00\n    /* \"#utility.yul\":3705:3706   */\n  dup1\n    /* \"#utility.yul\":3698:3710   */\n  revert\n    /* \"#utility.yul\":3722:3839   */\ntag_44:\n    /* \"#utility.yul\":3831:3832   */\n  0x00\n    /* \"#utility.yul\":3828:3829   */\n  dup1\n    /* \"#utility.yul\":3821:3833   */\n  revert\n    /* \"#utility.yul\":3845:3947   */\ntag_60:\n    /* \"#utility.yul\":3886:3892   */\n  0x00\n    /* \"#utility.yul\":3937:3939   */\n  0x1f\n    /* \"#utility.yul\":3933:3940   */\n  not\n    /* \"#utility.yul\":3928:3930   */\n  0x1f\n    /* \"#utility.yul\":3921:3926   */\n  dup4\n    /* \"#utility.yul\":3917:3931   */\n  add\n    /* \"#utility.yul\":3913:3941   */\n  and\n    /* \"#utility.yul\":3903:3941   */\n  swap1\n  pop\n    /* \"#utility.yul\":3845:3947   */\n  swap2\n  swap1\n  pop\n  jump\t// out\n    /* \"Voting/contracts/Voting.sol\":62:3469  contract Voting {\r... */\ntag_11:\n  dataSize(sub_0)\n  dup1\n  dataOffset(sub_0)\n  0x00\n  codecopy\n  0x00\n  return\nstop\n\nsub_0: assembly {\n        /* \"Voting/contracts/Voting.sol\":62:3469  contract Voting {\r... */\n      mstore(0x40, 0x80)\n      callvalue\n      dup1\n      iszero\n      tag_1\n      jumpi\n      0x00\n      dup1\n      revert\n    tag_1:\n      pop\n      jumpi(tag_2, lt(calldatasize, 0x04))\n      shr(0xe0, calldataload(0x00))\n      dup1\n      0x62c49251\n      gt\n      tag_20\n      jumpi\n      dup1\n      0xabf715fa\n      gt\n      tag_21\n      jumpi\n      dup1\n      0xabf715fa\n      eq\n      tag_15\n      jumpi\n      dup1\n      0xc19d93fb\n      eq\n      tag_16\n      jumpi\n      dup1\n      0xd9e95a98\n      eq\n      tag_17\n      jumpi\n      dup1\n      0xef002423\n      eq\n      tag_18\n      jumpi\n      dup1\n      0xf276669d\n      eq\n      tag_19\n      jumpi\n      jump(tag_2)\n    tag_21:\n      dup1\n      0x62c49251\n      eq\n      tag_11\n      jumpi\n      dup1\n      0x72753be5\n      eq\n      tag_12\n      jumpi\n      dup1\n      0x80843e25\n      eq\n      tag_13\n      jumpi\n      dup1\n      0x8949e009\n      eq\n      tag_14\n      jumpi\n      jump(tag_2)\n    tag_20:\n      dup1\n      0x27d9f76c\n      gt\n      tag_22\n      jumpi\n      dup1\n      0x27d9f76c\n      eq\n      tag_7\n      jumpi\n      dup1\n      0x2d35a8a2\n      eq\n      tag_8\n      jumpi\n      dup1\n      0x46702b16\n      eq\n      tag_9\n      jumpi\n      dup1\n      0x5f5300ff\n      eq\n      tag_10\n      jumpi\n      jump(tag_2)\n    tag_22:\n      dup1\n      0x03a0d535\n      eq\n      tag_3\n      jumpi\n      dup1\n      0x06a49fce\n      eq\n      tag_4\n      jumpi\n      dup1\n      0x0d15fd77\n      eq\n      tag_5\n      jumpi\n      dup1\n      0x12c06342\n      eq\n      tag_6\n      jumpi\n    tag_2:\n      0x00\n      dup1\n      revert\n        /* \"Voting/contracts/Voting.sol\":609:654  mapping (uint256 => address) public VoterList */\n    tag_3:\n      tag_23\n      0x04\n      dup1\n      calldatasize\n      sub\n      dup2\n      add\n      swap1\n      tag_24\n      swap2\n      swap1\n      tag_25\n      jump\t// in\n    tag_24:\n      tag_26\n      jump\t// in\n    tag_23:\n      mload(0x40)\n      tag_27\n      swap2\n      swap1\n      tag_28\n      jump\t// in\n    tag_27:\n      mload(0x40)\n      dup1\n      swap2\n      sub\n      swap1\n      return\n        /* \"Voting/contracts/Voting.sol\":1768:2107  function getCandidates() public view returns (Candidate[] memory){\r... */\n    tag_4:\n      tag_29\n      tag_30\n      jump\t// in\n    tag_29:\n      mload(0x40)\n      tag_31\n      swap2\n      swap1\n      tag_32\n      jump\t// in\n    tag_31:\n      mload(0x40)\n      dup1\n      swap2\n      sub\n      swap1\n      return\n        /* \"Voting/contracts/Voting.sol\":912:937  uint256 public totalVotes */\n    tag_5:\n      tag_33\n      tag_34\n      jump\t// in\n    tag_33:\n      mload(0x40)\n      tag_35\n      swap2\n      swap1\n      tag_36\n      jump\t// in\n    tag_35:\n      mload(0x40)\n      dup1\n      swap2\n      sub\n      swap1\n      return\n        /* \"Voting/contracts/Voting.sol\":455:503  mapping (address => Voter) public AddressToVoter */\n    tag_6:\n      tag_37\n      0x04\n      dup1\n      calldatasize\n      sub\n      dup2\n      add\n      swap1\n      tag_38\n      swap2\n      swap1\n      tag_39\n      jump\t// in\n    tag_38:\n      tag_40\n      jump\t// in\n    tag_37:\n      mload(0x40)\n      tag_41\n      swap5\n      swap4\n      swap3\n      swap2\n      swap1\n      tag_42\n      jump\t// in\n    tag_41:\n      mload(0x40)\n      dup1\n      swap2\n      sub\n      swap1\n      return\n        /* \"Voting/contracts/Voting.sol\":510:556  mapping (address => Vote) public AddressToVote */\n    tag_7:\n      tag_43\n      0x04\n      dup1\n      calldatasize\n      sub\n      dup2\n      add\n      swap1\n      tag_44\n      swap2\n      swap1\n      tag_39\n      jump\t// in\n    tag_44:\n      tag_45\n      jump\t// in\n    tag_43:\n      mload(0x40)\n      tag_46\n      swap3\n      swap2\n      swap1\n      tag_47\n      jump\t// in\n    tag_46:\n      mload(0x40)\n      dup1\n      swap2\n      sub\n      swap1\n      return\n        /* \"Voting/contracts/Voting.sol\":838:868  uint256 public candidatesCount */\n    tag_8:\n      tag_48\n      tag_49\n      jump\t// in\n    tag_48:\n      mload(0x40)\n      tag_50\n      swap2\n      swap1\n      tag_36\n      jump\t// in\n    tag_50:\n      mload(0x40)\n      dup1\n      swap2\n      sub\n      swap1\n      return\n        /* \"Voting/contracts/Voting.sol\":716:770  mapping (string => Candidate) public SymbolToCandidate */\n    tag_9:\n      tag_51\n      0x04\n      dup1\n      calldatasize\n      sub\n      dup2\n      add\n      swap1\n      tag_52\n      swap2\n      swap1\n      tag_53\n      jump\t// in\n    tag_52:\n      tag_54\n      jump\t// in\n    tag_51:\n      mload(0x40)\n      tag_55\n      swap5\n      swap4\n      swap3\n      swap2\n      swap1\n      tag_56\n      jump\t// in\n    tag_55:\n      mload(0x40)\n      dup1\n      swap2\n      sub\n      swap1\n      return\n        /* \"Voting/contracts/Voting.sol\":879:905  uint256 public totalVoters */\n    tag_10:\n      tag_57\n      tag_58\n      jump\t// in\n    tag_57:\n      mload(0x40)\n      tag_59\n      swap2\n      swap1\n      tag_36\n      jump\t// in\n    tag_59:\n      mload(0x40)\n      dup1\n      swap2\n      sub\n      swap1\n      return\n        /* \"Voting/contracts/Voting.sol\":1271:1758  function addCandidates(address _candidateAddress, string memory _candidateName, string memory _symbol) public InState(State.Created) OfficialOnly{\r... */\n    tag_11:\n      tag_60\n      0x04\n      dup1\n      calldatasize\n      sub\n      dup2\n      add\n      swap1\n      tag_61\n      swap2\n      swap1\n      tag_62\n      jump\t// in\n    tag_61:\n      tag_63\n      jump\t// in\n    tag_60:\n      stop\n        /* \"Voting/contracts/Voting.sol\":661:709  mapping (uint256 => string) public CandidateList */\n    tag_12:\n      tag_64\n      0x04\n      dup1\n      calldatasize\n      sub\n      dup2\n      add\n      swap1\n      tag_65\n      swap2\n      swap1\n      tag_25\n      jump\t// in\n    tag_65:\n      tag_66\n      jump\t// in\n    tag_64:\n      mload(0x40)\n      tag_67\n      swap2\n      swap1\n      tag_68\n      jump\t// in\n    tag_67:\n      mload(0x40)\n      dup1\n      swap2\n      sub\n      swap1\n      return\n        /* \"Voting/contracts/Voting.sol\":1060:1087  string public  ElectionName */\n    tag_13:\n      tag_69\n      tag_70\n      jump\t// in\n    tag_69:\n      mload(0x40)\n      tag_71\n      swap2\n      swap1\n      tag_68\n      jump\t// in\n    tag_71:\n      mload(0x40)\n      dup1\n      swap2\n      sub\n      swap1\n      return\n        /* \"Voting/contracts/Voting.sol\":1016:1047  address public OragnizerAddress */\n    tag_14:\n      tag_72\n      tag_73\n      jump\t// in\n    tag_72:\n      mload(0x40)\n      tag_74\n      swap2\n      swap1\n      tag_28\n      jump\t// in\n    tag_74:\n      mload(0x40)\n      dup1\n      swap2\n      sub\n      swap1\n      return\n        /* \"Voting/contracts/Voting.sol\":779:827  mapping (string => uint256) public symbolToVotes */\n    tag_15:\n      tag_75\n      0x04\n      dup1\n      calldatasize\n      sub\n      dup2\n      add\n      swap1\n      tag_76\n      swap2\n      swap1\n      tag_53\n      jump\t// in\n    tag_76:\n      tag_77\n      jump\t// in\n    tag_75:\n      mload(0x40)\n      tag_78\n      swap2\n      swap1\n      tag_36\n      jump\t// in\n    tag_78:\n      mload(0x40)\n      dup1\n      swap2\n      sub\n      swap1\n      return\n        /* \"Voting/contracts/Voting.sol\":989:1007  State public state */\n    tag_16:\n      tag_79\n      tag_80\n      jump\t// in\n    tag_79:\n      mload(0x40)\n      tag_81\n      swap2\n      swap1\n      tag_82\n      jump\t// in\n    tag_81:\n      mload(0x40)\n      dup1\n      swap2\n      sub\n      swap1\n      return\n        /* \"Voting/contracts/Voting.sol\":2259:2697  function addVoter(address _voterAddress, string memory _voterName) public InState(State.Created) OfficialOnly {\r... */\n    tag_17:\n      tag_83\n      0x04\n      dup1\n      calldatasize\n      sub\n      dup2\n      add\n      swap1\n      tag_84\n      swap2\n      swap1\n      tag_85\n      jump\t// in\n    tag_84:\n      tag_86\n      jump\t// in\n    tag_83:\n      stop\n        /* \"Voting/contracts/Voting.sol\":2707:3258  function makeVote(string memory _voteSymbol) public{\r... */\n    tag_18:\n      tag_87\n      0x04\n      dup1\n      calldatasize\n      sub\n      dup2\n      add\n      swap1\n      tag_88\n      swap2\n      swap1\n      tag_53\n      jump\t// in\n    tag_88:\n      tag_89\n      jump\t// in\n    tag_87:\n      stop\n        /* \"Voting/contracts/Voting.sol\":2117:2251  function getCandidate(string memory _symbol) public view returns(Candidate memory){\r... */\n    tag_19:\n      tag_90\n      0x04\n      dup1\n      calldatasize\n      sub\n      dup2\n      add\n      swap1\n      tag_91\n      swap2\n      swap1\n      tag_53\n      jump\t// in\n    tag_91:\n      tag_92\n      jump\t// in\n    tag_90:\n      mload(0x40)\n      tag_93\n      swap2\n      swap1\n      tag_94\n      jump\t// in\n    tag_93:\n      mload(0x40)\n      dup1\n      swap2\n      sub\n      swap1\n      return\n        /* \"Voting/contracts/Voting.sol\":609:654  mapping (uint256 => address) public VoterList */\n    tag_26:\n      mstore(0x20, 0x03)\n      dup1\n      0x00\n      mstore\n      keccak256(0x00, 0x40)\n      0x00\n      swap2\n      pop\n      sload\n      swap1\n      0x0100\n      exp\n      swap1\n      div\n      0xffffffffffffffffffffffffffffffffffffffff\n      and\n      dup2\n      jump\t// out\n        /* \"Voting/contracts/Voting.sol\":1768:2107  function getCandidates() public view returns (Candidate[] memory){\r... */\n    tag_30:\n        /* \"Voting/contracts/Voting.sol\":1814:1832  Candidate[] memory */\n      0x60\n        /* \"Voting/contracts/Voting.sol\":1842:1867  Candidate[] memory trrips */\n      0x00\n        /* \"Voting/contracts/Voting.sol\":1886:1901  candidatesCount */\n      sload(0x07)\n        /* \"Voting/contracts/Voting.sol\":1870:1902  new Candidate[](candidatesCount) */\n      0xffffffffffffffff\n      dup2\n      gt\n      iszero\n      tag_96\n      jumpi\n      tag_97\n      tag_98\n      jump\t// in\n    tag_97:\n    tag_96:\n      mload(0x40)\n      swap1\n      dup1\n      dup3\n      mstore\n      dup1\n      0x20\n      mul\n      0x20\n      add\n      dup3\n      add\n      0x40\n      mstore\n      dup1\n      iszero\n      tag_99\n      jumpi\n      dup2\n      0x20\n      add\n    tag_100:\n      tag_101\n      tag_102\n      jump\t// in\n    tag_101:\n      dup2\n      mstore\n      0x20\n      add\n      swap1\n      0x01\n      swap1\n      sub\n      swap1\n      dup2\n      tag_100\n      jumpi\n      swap1\n      pop\n    tag_99:\n      pop\n        /* \"Voting/contracts/Voting.sol\":1842:1902  Candidate[] memory trrips = new Candidate[](candidatesCount) */\n      swap1\n      pop\n        /* \"Voting/contracts/Voting.sol\":1916:1922  uint i */\n      0x00\n        /* \"Voting/contracts/Voting.sol\":1911:2076  for (uint i = 0; i < candidatesCount; i++) {\r... */\n    tag_103:\n        /* \"Voting/contracts/Voting.sol\":1932:1947  candidatesCount */\n      sload(0x07)\n        /* \"Voting/contracts/Voting.sol\":1928:1929  i */\n      dup2\n        /* \"Voting/contracts/Voting.sol\":1928:1947  i < candidatesCount */\n      lt\n        /* \"Voting/contracts/Voting.sol\":1911:2076  for (uint i = 0; i < candidatesCount; i++) {\r... */\n      iszero\n      tag_104\n      jumpi\n        /* \"Voting/contracts/Voting.sol\":1967:1994  Candidate storage candidate */\n      0x00\n        /* \"Voting/contracts/Voting.sol\":1997:2014  SymbolToCandidate */\n      0x05\n        /* \"Voting/contracts/Voting.sol\":2015:2028  CandidateList */\n      0x04\n        /* \"Voting/contracts/Voting.sol\":2015:2031  CandidateList[i] */\n      0x00\n        /* \"Voting/contracts/Voting.sol\":2029:2030  i */\n      dup5\n        /* \"Voting/contracts/Voting.sol\":2015:2031  CandidateList[i] */\n      dup2\n      mstore\n      0x20\n      add\n      swap1\n      dup2\n      mstore\n      0x20\n      add\n      0x00\n      keccak256\n        /* \"Voting/contracts/Voting.sol\":1997:2032  SymbolToCandidate[CandidateList[i]] */\n      mload(0x40)\n      tag_106\n      swap2\n      swap1\n      tag_107\n      jump\t// in\n    tag_106:\n      swap1\n      dup2\n      mstore\n      0x20\n      add\n      mload(0x40)\n      dup1\n      swap2\n      sub\n      swap1\n      keccak256\n        /* \"Voting/contracts/Voting.sol\":1967:2032  Candidate storage candidate = SymbolToCandidate[CandidateList[i]] */\n      swap1\n      pop\n        /* \"Voting/contracts/Voting.sol\":2057:2066  candidate */\n      dup1\n        /* \"Voting/contracts/Voting.sol\":2045:2066  trrips[i] = candidate */\n      mload(0x40)\n      dup1\n      0x80\n      add\n      0x40\n      mstore\n      swap1\n      dup2\n      0x00\n      dup3\n      add\n      dup1\n      sload\n      tag_108\n      swap1\n      tag_109\n      jump\t// in\n    tag_108:\n      dup1\n      0x1f\n      add\n      0x20\n      dup1\n      swap2\n      div\n      mul\n      0x20\n      add\n      mload(0x40)\n      swap1\n      dup2\n      add\n      0x40\n      mstore\n      dup1\n      swap3\n      swap2\n      swap1\n      dup2\n      dup2\n      mstore\n      0x20\n      add\n      dup3\n      dup1\n      sload\n      tag_110\n      swap1\n      tag_109\n      jump\t// in\n    tag_110:\n      dup1\n      iszero\n      tag_111\n      jumpi\n      dup1\n      0x1f\n      lt\n      tag_112\n      jumpi\n      0x0100\n      dup1\n      dup4\n      sload\n      div\n      mul\n      dup4\n      mstore\n      swap2\n      0x20\n      add\n      swap2\n      jump(tag_111)\n    tag_112:\n      dup3\n      add\n      swap2\n      swap1\n      0x00\n      mstore\n      keccak256(0x00, 0x20)\n      swap1\n    tag_113:\n      dup2\n      sload\n      dup2\n      mstore\n      swap1\n      0x01\n      add\n      swap1\n      0x20\n      add\n      dup1\n      dup4\n      gt\n      tag_113\n      jumpi\n      dup3\n      swap1\n      sub\n      0x1f\n      and\n      dup3\n      add\n      swap2\n    tag_111:\n      pop\n      pop\n      pop\n      pop\n      pop\n      dup2\n      mstore\n      0x20\n      add\n      0x01\n      dup3\n      add\n      0x00\n      swap1\n      sload\n      swap1\n      0x0100\n      exp\n      swap1\n      div\n      0xffffffffffffffffffffffffffffffffffffffff\n      and\n      0xffffffffffffffffffffffffffffffffffffffff\n      and\n      0xffffffffffffffffffffffffffffffffffffffff\n      and\n      dup2\n      mstore\n      0x20\n      add\n      0x02\n      dup3\n      add\n      sload\n      dup2\n      mstore\n      0x20\n      add\n      0x03\n      dup3\n      add\n      dup1\n      sload\n      tag_114\n      swap1\n      tag_109\n      jump\t// in\n    tag_114:\n      dup1\n      0x1f\n      add\n      0x20\n      dup1\n      swap2\n      div\n      mul\n      0x20\n      add\n      mload(0x40)\n      swap1\n      dup2\n      add\n      0x40\n      mstore\n      dup1\n      swap3\n      swap2\n      swap1\n      dup2\n      dup2\n      mstore\n      0x20\n      add\n      dup3\n      dup1\n      sload\n      tag_115\n      swap1\n      tag_109\n      jump\t// in\n    tag_115:\n      dup1\n      iszero\n      tag_116\n      jumpi\n      dup1\n      0x1f\n      lt\n      tag_117\n      jumpi\n      0x0100\n      dup1\n      dup4\n      sload\n      div\n      mul\n      dup4\n      mstore\n      swap2\n      0x20\n      add\n      swap2\n      jump(tag_116)\n    tag_117:\n      dup3\n      add\n      swap2\n      swap1\n      0x00\n      mstore\n      keccak256(0x00, 0x20)\n      swap1\n    tag_118:\n      dup2\n      sload\n      dup2\n      mstore\n      swap1\n      0x01\n      add\n      swap1\n      0x20\n      add\n      dup1\n      dup4\n      gt\n      tag_118\n      jumpi\n      dup3\n      swap1\n      sub\n      0x1f\n      and\n      dup3\n      add\n      swap2\n    tag_116:\n      pop\n      pop\n      pop\n      pop\n      pop\n      dup2\n      mstore\n      pop\n      pop\n        /* \"Voting/contracts/Voting.sol\":2045:2051  trrips */\n      dup4\n        /* \"Voting/contracts/Voting.sol\":2052:2053  i */\n      dup4\n        /* \"Voting/contracts/Voting.sol\":2045:2054  trrips[i] */\n      dup2\n      mload\n      dup2\n      lt\n      tag_119\n      jumpi\n      tag_120\n      tag_121\n      jump\t// in\n    tag_120:\n    tag_119:\n      0x20\n      mul\n      0x20\n      add\n      add\n        /* \"Voting/contracts/Voting.sol\":2045:2066  trrips[i] = candidate */\n      dup2\n      swap1\n      mstore\n      pop\n        /* \"Voting/contracts/Voting.sol\":1954:2076  {\r... */\n      pop\n        /* \"Voting/contracts/Voting.sol\":1949:1952  i++ */\n      dup1\n      dup1\n      tag_122\n      swap1\n      tag_123\n      jump\t// in\n    tag_122:\n      swap2\n      pop\n      pop\n        /* \"Voting/contracts/Voting.sol\":1911:2076  for (uint i = 0; i < candidatesCount; i++) {\r... */\n      jump(tag_103)\n    tag_104:\n      pop\n        /* \"Voting/contracts/Voting.sol\":2091:2097  trrips */\n      dup1\n        /* \"Voting/contracts/Voting.sol\":2084:2097  return trrips */\n      swap2\n      pop\n      pop\n        /* \"Voting/contracts/Voting.sol\":1768:2107  function getCandidates() public view returns (Candidate[] memory){\r... */\n      swap1\n      jump\t// out\n        /* \"Voting/contracts/Voting.sol\":912:937  uint256 public totalVotes */\n    tag_34:\n      sload(0x09)\n      dup2\n      jump\t// out\n        /* \"Voting/contracts/Voting.sol\":455:503  mapping (address => Voter) public AddressToVoter */\n    tag_40:\n      mstore(0x20, 0x00)\n      dup1\n      0x00\n      mstore\n      keccak256(0x00, 0x40)\n      0x00\n      swap2\n      pop\n      swap1\n      pop\n      dup1\n      0x00\n      add\n      0x00\n      swap1\n      sload\n      swap1\n      0x0100\n      exp\n      swap1\n      div\n      0xff\n      and\n      swap1\n      dup1\n      0x01\n      add\n      dup1\n      sload\n      tag_124\n      swap1\n      tag_109\n      jump\t// in\n    tag_124:\n      dup1\n      0x1f\n      add\n      0x20\n      dup1\n      swap2\n      div\n      mul\n      0x20\n      add\n      mload(0x40)\n      swap1\n      dup2\n      add\n      0x40\n      mstore\n      dup1\n      swap3\n      swap2\n      swap1\n      dup2\n      dup2\n      mstore\n      0x20\n      add\n      dup3\n      dup1\n      sload\n      tag_125\n      swap1\n      tag_109\n      jump\t// in\n    tag_125:\n      dup1\n      iszero\n      tag_126\n      jumpi\n      dup1\n      0x1f\n      lt\n      tag_127\n      jumpi\n      0x0100\n      dup1\n      dup4\n      sload\n      div\n      mul\n      dup4\n      mstore\n      swap2\n      0x20\n      add\n      swap2\n      jump(tag_126)\n    tag_127:\n      dup3\n      add\n      swap2\n      swap1\n      0x00\n      mstore\n      keccak256(0x00, 0x20)\n      swap1\n    tag_128:\n      dup2\n      sload\n      dup2\n      mstore\n      swap1\n      0x01\n      add\n      swap1\n      0x20\n      add\n      dup1\n      dup4\n      gt\n      tag_128\n      jumpi\n      dup3\n      swap1\n      sub\n      0x1f\n      and\n      dup3\n      add\n      swap2\n    tag_126:\n      pop\n      pop\n      pop\n      pop\n      pop\n      swap1\n      dup1\n      0x02\n      add\n      0x00\n      swap1\n      sload\n      swap1\n      0x0100\n      exp\n      swap1\n      div\n      0xffffffffffffffffffffffffffffffffffffffff\n      and\n      swap1\n      dup1\n      0x02\n      add\n      0x14\n      swap1\n      sload\n      swap1\n      0x0100\n      exp\n      swap1\n      div\n      0xff\n      and\n      swap1\n      pop\n      dup5\n      jump\t// out\n        /* \"Voting/contracts/Voting.sol\":510:556  mapping (address => Vote) public AddressToVote */\n    tag_45:\n      mstore(0x20, 0x01)\n      dup1\n      0x00\n      mstore\n      keccak256(0x00, 0x40)\n      0x00\n      swap2\n      pop\n      swap1\n      pop\n      dup1\n      0x00\n      add\n      0x00\n      swap1\n      sload\n      swap1\n      0x0100\n      exp\n      swap1\n      div\n      0xffffffffffffffffffffffffffffffffffffffff\n      and\n      swap1\n      dup1\n      0x01\n      add\n      dup1\n      sload\n      tag_129\n      swap1\n      tag_109\n      jump\t// in\n    tag_129:\n      dup1\n      0x1f\n      add\n      0x20\n      dup1\n      swap2\n      div\n      mul\n      0x20\n      add\n      mload(0x40)\n      swap1\n      dup2\n      add\n      0x40\n      mstore\n      dup1\n      swap3\n      swap2\n      swap1\n      dup2\n      dup2\n      mstore\n      0x20\n      add\n      dup3\n      dup1\n      sload\n      tag_130\n      swap1\n      tag_109\n      jump\t// in\n    tag_130:\n      dup1\n      iszero\n      tag_131\n      jumpi\n      dup1\n      0x1f\n      lt\n      tag_132\n      jumpi\n      0x0100\n      dup1\n      dup4\n      sload\n      div\n      mul\n      dup4\n      mstore\n      swap2\n      0x20\n      add\n      swap2\n      jump(tag_131)\n    tag_132:\n      dup3\n      add\n      swap2\n      swap1\n      0x00\n      mstore\n      keccak256(0x00, 0x20)\n      swap1\n    tag_133:\n      dup2\n      sload\n      dup2\n      mstore\n      swap1\n      0x01\n      add\n      swap1\n      0x20\n      add\n      dup1\n      dup4\n      gt\n      tag_133\n      jumpi\n      dup3\n      swap1\n      sub\n      0x1f\n      and\n      dup3\n      add\n      swap2\n    tag_131:\n      pop\n      pop\n      pop\n      pop\n      pop\n      swap1\n      pop\n      dup3\n      jump\t// out\n        /* \"Voting/contracts/Voting.sol\":838:868  uint256 public candidatesCount */\n    tag_49:\n      sload(0x07)\n      dup2\n      jump\t// out\n        /* \"Voting/contracts/Voting.sol\":716:770  mapping (string => Candidate) public SymbolToCandidate */\n    tag_54:\n      0x05\n      dup2\n      dup1\n      mload\n      0x20\n      dup2\n      add\n      dup3\n      add\n      dup1\n      mload\n      dup5\n      dup3\n      mstore\n      0x20\n      dup4\n      add\n      0x20\n      dup6\n      add\n      keccak256\n      dup2\n      dup4\n      mstore\n      dup1\n      swap6\n      pop\n      pop\n      pop\n      pop\n      pop\n      pop\n      0x00\n      swap2\n      pop\n      swap1\n      pop\n      dup1\n      0x00\n      add\n      dup1\n      sload\n      tag_134\n      swap1\n      tag_109\n      jump\t// in\n    tag_134:\n      dup1\n      0x1f\n      add\n      0x20\n      dup1\n      swap2\n      div\n      mul\n      0x20\n      add\n      mload(0x40)\n      swap1\n      dup2\n      add\n      0x40\n      mstore\n      dup1\n      swap3\n      swap2\n      swap1\n      dup2\n      dup2\n      mstore\n      0x20\n      add\n      dup3\n      dup1\n      sload\n      tag_135\n      swap1\n      tag_109\n      jump\t// in\n    tag_135:\n      dup1\n      iszero\n      tag_136\n      jumpi\n      dup1\n      0x1f\n      lt\n      tag_137\n      jumpi\n      0x0100\n      dup1\n      dup4\n      sload\n      div\n      mul\n      dup4\n      mstore\n      swap2\n      0x20\n      add\n      swap2\n      jump(tag_136)\n    tag_137:\n      dup3\n      add\n      swap2\n      swap1\n      0x00\n      mstore\n      keccak256(0x00, 0x20)\n      swap1\n    tag_138:\n      dup2\n      sload\n      dup2\n      mstore\n      swap1\n      0x01\n      add\n      swap1\n      0x20\n      add\n      dup1\n      dup4\n      gt\n      tag_138\n      jumpi\n      dup3\n      swap1\n      sub\n      0x1f\n      and\n      dup3\n      add\n      swap2\n    tag_136:\n      pop\n      pop\n      pop\n      pop\n      pop\n      swap1\n      dup1\n      0x01\n      add\n      0x00\n      swap1\n      sload\n      swap1\n      0x0100\n      exp\n      swap1\n      div\n      0xffffffffffffffffffffffffffffffffffffffff\n      and\n      swap1\n      dup1\n      0x02\n      add\n      sload\n      swap1\n      dup1\n      0x03\n      add\n      dup1\n      sload\n      tag_139\n      swap1\n      tag_109\n      jump\t// in\n    tag_139:\n      dup1\n      0x1f\n      add\n      0x20\n      dup1\n      swap2\n      div\n      mul\n      0x20\n      add\n      mload(0x40)\n      swap1\n      dup2\n      add\n      0x40\n      mstore\n      dup1\n      swap3\n      swap2\n      swap1\n      dup2\n      dup2\n      mstore\n      0x20\n      add\n      dup3\n      dup1\n      sload\n      tag_140\n      swap1\n      tag_109\n      jump\t// in\n    tag_140:\n      dup1\n      iszero\n      tag_141\n      jumpi\n      dup1\n      0x1f\n      lt\n      tag_142\n      jumpi\n      0x0100\n      dup1\n      dup4\n      sload\n      div\n      mul\n      dup4\n      mstore\n      swap2\n      0x20\n      add\n      swap2\n      jump(tag_141)\n    tag_142:\n      dup3\n      add\n      swap2\n      swap1\n      0x00\n      mstore\n      keccak256(0x00, 0x20)\n      swap1\n    tag_143:\n      dup2\n      sload\n      dup2\n      mstore\n      swap1\n      0x01\n      add\n      swap1\n      0x20\n      add\n      dup1\n      dup4\n      gt\n      tag_143\n      jumpi\n      dup3\n      swap1\n      sub\n      0x1f\n      and\n      dup3\n      add\n      swap2\n    tag_141:\n      pop\n      pop\n      pop\n      pop\n      pop\n      swap1\n      pop\n      dup5\n      jump\t// out\n        /* \"Voting/contracts/Voting.sol\":879:905  uint256 public totalVoters */\n    tag_58:\n      sload(0x08)\n      dup2\n      jump\t// out\n        /* \"Voting/contracts/Voting.sol\":1271:1758  function addCandidates(address _candidateAddress, string memory _candidateName, string memory _symbol) public InState(State.Created) OfficialOnly{\r... */\n    tag_63:\n        /* \"Voting/contracts/Voting.sol\":1389:1402  State.Created */\n      0x00\n        /* \"Voting/contracts/Voting.sol\":3330:3336  _state */\n      dup1\n        /* \"Voting/contracts/Voting.sol\":3321:3336  state == _state */\n      0x02\n      dup2\n      gt\n      iszero\n      tag_145\n      jumpi\n      tag_146\n      tag_147\n      jump\t// in\n    tag_146:\n    tag_145:\n        /* \"Voting/contracts/Voting.sol\":3321:3326  state */\n      0x0a\n      0x00\n      swap1\n      sload\n      swap1\n      0x0100\n      exp\n      swap1\n      div\n      0xff\n      and\n        /* \"Voting/contracts/Voting.sol\":3321:3336  state == _state */\n      0x02\n      dup2\n      gt\n      iszero\n      tag_148\n      jumpi\n      tag_149\n      tag_147\n      jump\t// in\n    tag_149:\n    tag_148:\n      eq\n        /* \"Voting/contracts/Voting.sol\":3313:3337  require(state == _state) */\n      tag_150\n      jumpi\n      0x00\n      dup1\n      revert\n    tag_150:\n        /* \"Voting/contracts/Voting.sol\":3429:3439  msg.sender */\n      caller\n        /* \"Voting/contracts/Voting.sol\":3409:3439  OragnizerAddress == msg.sender */\n      0xffffffffffffffffffffffffffffffffffffffff\n      and\n        /* \"Voting/contracts/Voting.sol\":3409:3425  OragnizerAddress */\n      0x0a\n      0x01\n      swap1\n      sload\n      swap1\n      0x0100\n      exp\n      swap1\n      div\n      0xffffffffffffffffffffffffffffffffffffffff\n      and\n        /* \"Voting/contracts/Voting.sol\":3409:3439  OragnizerAddress == msg.sender */\n      0xffffffffffffffffffffffffffffffffffffffff\n      and\n      eq\n        /* \"Voting/contracts/Voting.sol\":3400:3440  require( OragnizerAddress == msg.sender) */\n      tag_152\n      jumpi\n      0x00\n      dup1\n      revert\n    tag_152:\n        /* \"Voting/contracts/Voting.sol\":1427:1453  Candidate memory candidate */\n      tag_154\n      tag_102\n      jump\t// in\n    tag_154:\n        /* \"Voting/contracts/Voting.sol\":1493:1510  _candidateAddress */\n      dup5\n        /* \"Voting/contracts/Voting.sol\":1464:1473  candidate */\n      dup2\n        /* \"Voting/contracts/Voting.sol\":1464:1490  candidate.candidateAddress */\n      0x20\n      add\n        /* \"Voting/contracts/Voting.sol\":1464:1510  candidate.candidateAddress = _candidateAddress */\n      swap1\n      0xffffffffffffffffffffffffffffffffffffffff\n      and\n      swap1\n      dup2\n      0xffffffffffffffffffffffffffffffffffffffff\n      and\n      dup2\n      mstore\n      pop\n      pop\n        /* \"Voting/contracts/Voting.sol\":1547:1561  _candidateName */\n      dup4\n        /* \"Voting/contracts/Voting.sol\":1521:1530  candidate */\n      dup2\n        /* \"Voting/contracts/Voting.sol\":1521:1544  candidate.candidateName */\n      0x00\n      add\n        /* \"Voting/contracts/Voting.sol\":1521:1561  candidate.candidateName = _candidateName */\n      dup2\n      swap1\n      mstore\n      pop\n        /* \"Voting/contracts/Voting.sol\":1591:1598  _symbol */\n      dup3\n        /* \"Voting/contracts/Voting.sol\":1572:1581  candidate */\n      dup2\n        /* \"Voting/contracts/Voting.sol\":1572:1588  candidate.symbol */\n      0x60\n      add\n        /* \"Voting/contracts/Voting.sol\":1572:1598  candidate.symbol = _symbol */\n      dup2\n      swap1\n      mstore\n      pop\n        /* \"Voting/contracts/Voting.sol\":1642:1649  _symbol */\n      dup3\n        /* \"Voting/contracts/Voting.sol\":1609:1622  CandidateList */\n      0x04\n        /* \"Voting/contracts/Voting.sol\":1609:1639  CandidateList[candidatesCount] */\n      0x00\n        /* \"Voting/contracts/Voting.sol\":1623:1638  candidatesCount */\n      sload(0x07)\n        /* \"Voting/contracts/Voting.sol\":1609:1639  CandidateList[candidatesCount] */\n      dup2\n      mstore\n      0x20\n      add\n      swap1\n      dup2\n      mstore\n      0x20\n      add\n      0x00\n      keccak256\n        /* \"Voting/contracts/Voting.sol\":1609:1649  CandidateList[candidatesCount] = _symbol */\n      swap1\n      dup1\n      mload\n      swap1\n      0x20\n      add\n      swap1\n      tag_155\n      swap3\n      swap2\n      swap1\n      tag_156\n      jump\t// in\n    tag_155:\n      pop\n        /* \"Voting/contracts/Voting.sol\":1691:1700  candidate */\n      dup1\n        /* \"Voting/contracts/Voting.sol\":1662:1679  SymbolToCandidate */\n      0x05\n        /* \"Voting/contracts/Voting.sol\":1680:1687  _symbol */\n      dup5\n        /* \"Voting/contracts/Voting.sol\":1662:1688  SymbolToCandidate[_symbol] */\n      mload(0x40)\n      tag_157\n      swap2\n      swap1\n      tag_158\n      jump\t// in\n    tag_157:\n      swap1\n      dup2\n      mstore\n      0x20\n      add\n      mload(0x40)\n      dup1\n      swap2\n      sub\n      swap1\n      keccak256\n        /* \"Voting/contracts/Voting.sol\":1662:1700  SymbolToCandidate[_symbol] = candidate */\n      0x00\n      dup3\n      add\n      mload\n      dup2\n      0x00\n      add\n      swap1\n      dup1\n      mload\n      swap1\n      0x20\n      add\n      swap1\n      tag_159\n      swap3\n      swap2\n      swap1\n      tag_156\n      jump\t// in\n    tag_159:\n      pop\n      0x20\n      dup3\n      add\n      mload\n      dup2\n      0x01\n      add\n      exp(0x0100, 0x00)\n      dup2\n      sload\n      dup2\n      0xffffffffffffffffffffffffffffffffffffffff\n      mul\n      not\n      and\n      swap1\n      dup4\n      0xffffffffffffffffffffffffffffffffffffffff\n      and\n      mul\n      or\n      swap1\n      sstore\n      pop\n      0x40\n      dup3\n      add\n      mload\n      dup2\n      0x02\n      add\n      sstore\n      0x60\n      dup3\n      add\n      mload\n      dup2\n      0x03\n      add\n      swap1\n      dup1\n      mload\n      swap1\n      0x20\n      add\n      swap1\n      tag_160\n      swap3\n      swap2\n      swap1\n      tag_156\n      jump\t// in\n    tag_160:\n      pop\n      swap1\n      pop\n      pop\n        /* \"Voting/contracts/Voting.sol\":1747:1748  1 */\n      0x01\n        /* \"Voting/contracts/Voting.sol\":1729:1744  candidatesCount */\n      sload(0x07)\n        /* \"Voting/contracts/Voting.sol\":1729:1748  candidatesCount + 1 */\n      tag_161\n      swap2\n      swap1\n      tag_162\n      jump\t// in\n    tag_161:\n        /* \"Voting/contracts/Voting.sol\":1711:1726  candidatesCount */\n      0x07\n        /* \"Voting/contracts/Voting.sol\":1711:1748  candidatesCount = candidatesCount + 1 */\n      dup2\n      swap1\n      sstore\n      pop\n        /* \"Voting/contracts/Voting.sol\":1416:1758  {\r... */\n      pop\n        /* \"Voting/contracts/Voting.sol\":1271:1758  function addCandidates(address _candidateAddress, string memory _candidateName, string memory _symbol) public InState(State.Created) OfficialOnly{\r... */\n      pop\n      pop\n      pop\n      pop\n      jump\t// out\n        /* \"Voting/contracts/Voting.sol\":661:709  mapping (uint256 => string) public CandidateList */\n    tag_66:\n      mstore(0x20, 0x04)\n      dup1\n      0x00\n      mstore\n      keccak256(0x00, 0x40)\n      0x00\n      swap2\n      pop\n      swap1\n      pop\n      dup1\n      sload\n      tag_163\n      swap1\n      tag_109\n      jump\t// in\n    tag_163:\n      dup1\n      0x1f\n      add\n      0x20\n      dup1\n      swap2\n      div\n      mul\n      0x20\n      add\n      mload(0x40)\n      swap1\n      dup2\n      add\n      0x40\n      mstore\n      dup1\n      swap3\n      swap2\n      swap1\n      dup2\n      dup2\n      mstore\n      0x20\n      add\n      dup3\n      dup1\n      sload\n      tag_164\n      swap1\n      tag_109\n      jump\t// in\n    tag_164:\n      dup1\n      iszero\n      tag_165\n      jumpi\n      dup1\n      0x1f\n      lt\n      tag_166\n      jumpi\n      0x0100\n      dup1\n      dup4\n      sload\n      div\n      mul\n      dup4\n      mstore\n      swap2\n      0x20\n      add\n      swap2\n      jump(tag_165)\n    tag_166:\n      dup3\n      add\n      swap2\n      swap1\n      0x00\n      mstore\n      keccak256(0x00, 0x20)\n      swap1\n    tag_167:\n      dup2\n      sload\n      dup2\n      mstore\n      swap1\n      0x01\n      add\n      swap1\n      0x20\n      add\n      dup1\n      dup4\n      gt\n      tag_167\n      jumpi\n      dup3\n      swap1\n      sub\n      0x1f\n      and\n      dup3\n      add\n      swap2\n    tag_165:\n      pop\n      pop\n      pop\n      pop\n      pop\n      dup2\n      jump\t// out\n        /* \"Voting/contracts/Voting.sol\":1060:1087  string public  ElectionName */\n    tag_70:\n      0x0b\n      dup1\n      sload\n      tag_168\n      swap1\n      tag_109\n      jump\t// in\n    tag_168:\n      dup1\n      0x1f\n      add\n      0x20\n      dup1\n      swap2\n      div\n      mul\n      0x20\n      add\n      mload(0x40)\n      swap1\n      dup2\n      add\n      0x40\n      mstore\n      dup1\n      swap3\n      swap2\n      swap1\n      dup2\n      dup2\n      mstore\n      0x20\n      add\n      dup3\n      dup1\n      sload\n      tag_169\n      swap1\n      tag_109\n      jump\t// in\n    tag_169:\n      dup1\n      iszero\n      tag_170\n      jumpi\n      dup1\n      0x1f\n      lt\n      tag_171\n      jumpi\n      0x0100\n      dup1\n      dup4\n      sload\n      div\n      mul\n      dup4\n      mstore\n      swap2\n      0x20\n      add\n      swap2\n      jump(tag_170)\n    tag_171:\n      dup3\n      add\n      swap2\n      swap1\n      0x00\n      mstore\n      keccak256(0x00, 0x20)\n      swap1\n    tag_172:\n      dup2\n      sload\n      dup2\n      mstore\n      swap1\n      0x01\n      add\n      swap1\n      0x20\n      add\n      dup1\n      dup4\n      gt\n      tag_172\n      jumpi\n      dup3\n      swap1\n      sub\n      0x1f\n      and\n      dup3\n      add\n      swap2\n    tag_170:\n      pop\n      pop\n      pop\n      pop\n      pop\n      dup2\n      jump\t// out\n        /* \"Voting/contracts/Voting.sol\":1016:1047  address public OragnizerAddress */\n    tag_73:\n      0x0a\n      0x01\n      swap1\n      sload\n      swap1\n      0x0100\n      exp\n      swap1\n      div\n      0xffffffffffffffffffffffffffffffffffffffff\n      and\n      dup2\n      jump\t// out\n        /* \"Voting/contracts/Voting.sol\":779:827  mapping (string => uint256) public symbolToVotes */\n    tag_77:\n      0x06\n      dup2\n      dup1\n      mload\n      0x20\n      dup2\n      add\n      dup3\n      add\n      dup1\n      mload\n      dup5\n      dup3\n      mstore\n      0x20\n      dup4\n      add\n      0x20\n      dup6\n      add\n      keccak256\n      dup2\n      dup4\n      mstore\n      dup1\n      swap6\n      pop\n      pop\n      pop\n      pop\n      pop\n      pop\n      0x00\n      swap2\n      pop\n      swap1\n      pop\n      sload\n      dup2\n      jump\t// out\n        /* \"Voting/contracts/Voting.sol\":989:1007  State public state */\n    tag_80:\n      0x0a\n      0x00\n      swap1\n      sload\n      swap1\n      0x0100\n      exp\n      swap1\n      div\n      0xff\n      and\n      dup2\n      jump\t// out\n        /* \"Voting/contracts/Voting.sol\":2259:2697  function addVoter(address _voterAddress, string memory _voterName) public InState(State.Created) OfficialOnly {\r... */\n    tag_86:\n        /* \"Voting/contracts/Voting.sol\":2341:2354  State.Created */\n      0x00\n        /* \"Voting/contracts/Voting.sol\":3330:3336  _state */\n      dup1\n        /* \"Voting/contracts/Voting.sol\":3321:3336  state == _state */\n      0x02\n      dup2\n      gt\n      iszero\n      tag_174\n      jumpi\n      tag_175\n      tag_147\n      jump\t// in\n    tag_175:\n    tag_174:\n        /* \"Voting/contracts/Voting.sol\":3321:3326  state */\n      0x0a\n      0x00\n      swap1\n      sload\n      swap1\n      0x0100\n      exp\n      swap1\n      div\n      0xff\n      and\n        /* \"Voting/contracts/Voting.sol\":3321:3336  state == _state */\n      0x02\n      dup2\n      gt\n      iszero\n      tag_176\n      jumpi\n      tag_177\n      tag_147\n      jump\t// in\n    tag_177:\n    tag_176:\n      eq\n        /* \"Voting/contracts/Voting.sol\":3313:3337  require(state == _state) */\n      tag_178\n      jumpi\n      0x00\n      dup1\n      revert\n    tag_178:\n        /* \"Voting/contracts/Voting.sol\":3429:3439  msg.sender */\n      caller\n        /* \"Voting/contracts/Voting.sol\":3409:3439  OragnizerAddress == msg.sender */\n      0xffffffffffffffffffffffffffffffffffffffff\n      and\n        /* \"Voting/contracts/Voting.sol\":3409:3425  OragnizerAddress */\n      0x0a\n      0x01\n      swap1\n      sload\n      swap1\n      0x0100\n      exp\n      swap1\n      div\n      0xffffffffffffffffffffffffffffffffffffffff\n      and\n        /* \"Voting/contracts/Voting.sol\":3409:3439  OragnizerAddress == msg.sender */\n      0xffffffffffffffffffffffffffffffffffffffff\n      and\n      eq\n        /* \"Voting/contracts/Voting.sol\":3400:3440  require( OragnizerAddress == msg.sender) */\n      tag_180\n      jumpi\n      0x00\n      dup1\n      revert\n    tag_180:\n        /* \"Voting/contracts/Voting.sol\":2380:2398  Voter memory voter */\n      tag_182\n      tag_183\n      jump\t// in\n    tag_182:\n        /* \"Voting/contracts/Voting.sol\":2426:2430  true */\n      0x01\n        /* \"Voting/contracts/Voting.sol\":2409:2414  voter */\n      dup2\n        /* \"Voting/contracts/Voting.sol\":2409:2423  voter.isAVoter */\n      0x00\n      add\n        /* \"Voting/contracts/Voting.sol\":2409:2430  voter.isAVoter = true */\n      swap1\n      iszero\n      iszero\n      swap1\n      dup2\n      iszero\n      iszero\n      dup2\n      mstore\n      pop\n      pop\n        /* \"Voting/contracts/Voting.sol\":2462:2475  _voterAddress */\n      dup4\n        /* \"Voting/contracts/Voting.sol\":2441:2446  voter */\n      dup2\n        /* \"Voting/contracts/Voting.sol\":2441:2459  voter.voterAddress */\n      0x40\n      add\n        /* \"Voting/contracts/Voting.sol\":2441:2475  voter.voterAddress = _voterAddress */\n      swap1\n      0xffffffffffffffffffffffffffffffffffffffff\n      and\n      swap1\n      dup2\n      0xffffffffffffffffffffffffffffffffffffffff\n      and\n      dup2\n      mstore\n      pop\n      pop\n        /* \"Voting/contracts/Voting.sol\":2504:2514  _voterName */\n      dup3\n        /* \"Voting/contracts/Voting.sol\":2486:2491  voter */\n      dup2\n        /* \"Voting/contracts/Voting.sol\":2486:2501  voter.voterName */\n      0x20\n      add\n        /* \"Voting/contracts/Voting.sol\":2486:2514  voter.voterName = _voterName */\n      dup2\n      swap1\n      mstore\n      pop\n        /* \"Voting/contracts/Voting.sol\":2539:2544  false */\n      0x00\n        /* \"Voting/contracts/Voting.sol\":2525:2530  voter */\n      dup2\n        /* \"Voting/contracts/Voting.sol\":2525:2536  voter.voted */\n      0x60\n      add\n        /* \"Voting/contracts/Voting.sol\":2525:2544  voter.voted = false */\n      swap1\n      iszero\n      iszero\n      swap1\n      dup2\n      iszero\n      iszero\n      dup2\n      mstore\n      pop\n      pop\n        /* \"Voting/contracts/Voting.sol\":2589:2594  voter */\n      dup1\n        /* \"Voting/contracts/Voting.sol\":2557:2571  AddressToVoter */\n      0x00\n        /* \"Voting/contracts/Voting.sol\":2557:2586  AddressToVoter[_voterAddress] */\n      dup1\n        /* \"Voting/contracts/Voting.sol\":2572:2585  _voterAddress */\n      dup7\n        /* \"Voting/contracts/Voting.sol\":2557:2586  AddressToVoter[_voterAddress] */\n      0xffffffffffffffffffffffffffffffffffffffff\n      and\n      0xffffffffffffffffffffffffffffffffffffffff\n      and\n      dup2\n      mstore\n      0x20\n      add\n      swap1\n      dup2\n      mstore\n      0x20\n      add\n      0x00\n      keccak256\n        /* \"Voting/contracts/Voting.sol\":2557:2594  AddressToVoter[_voterAddress] = voter */\n      0x00\n      dup3\n      add\n      mload\n      dup2\n      0x00\n      add\n      exp(0x0100, 0x00)\n      dup2\n      sload\n      dup2\n      0xff\n      mul\n      not\n      and\n      swap1\n      dup4\n      iszero\n      iszero\n      mul\n      or\n      swap1\n      sstore\n      pop\n      0x20\n      dup3\n      add\n      mload\n      dup2\n      0x01\n      add\n      swap1\n      dup1\n      mload\n      swap1\n      0x20\n      add\n      swap1\n      tag_184\n      swap3\n      swap2\n      swap1\n      tag_156\n      jump\t// in\n    tag_184:\n      pop\n      0x40\n      dup3\n      add\n      mload\n      dup2\n      0x02\n      add\n      exp(0x0100, 0x00)\n      dup2\n      sload\n      dup2\n      0xffffffffffffffffffffffffffffffffffffffff\n      mul\n      not\n      and\n      swap1\n      dup4\n      0xffffffffffffffffffffffffffffffffffffffff\n      and\n      mul\n      or\n      swap1\n      sstore\n      pop\n      0x60\n      dup3\n      add\n      mload\n      dup2\n      0x02\n      add\n      exp(0x0100, 0x14)\n      dup2\n      sload\n      dup2\n      0xff\n      mul\n      not\n      and\n      swap1\n      dup4\n      iszero\n      iszero\n      mul\n      or\n      swap1\n      sstore\n      pop\n      swap1\n      pop\n      pop\n        /* \"Voting/contracts/Voting.sol\":2630:2643  _voterAddress */\n      dup4\n        /* \"Voting/contracts/Voting.sol\":2605:2614  VoterList */\n      0x03\n        /* \"Voting/contracts/Voting.sol\":2605:2627  VoterList[totalVoters] */\n      0x00\n        /* \"Voting/contracts/Voting.sol\":2615:2626  totalVoters */\n      sload(0x08)\n        /* \"Voting/contracts/Voting.sol\":2605:2627  VoterList[totalVoters] */\n      dup2\n      mstore\n      0x20\n      add\n      swap1\n      dup2\n      mstore\n      0x20\n      add\n      0x00\n      keccak256\n      0x00\n        /* \"Voting/contracts/Voting.sol\":2605:2643  VoterList[totalVoters] = _voterAddress */\n      0x0100\n      exp\n      dup2\n      sload\n      dup2\n      0xffffffffffffffffffffffffffffffffffffffff\n      mul\n      not\n      and\n      swap1\n      dup4\n      0xffffffffffffffffffffffffffffffffffffffff\n      and\n      mul\n      or\n      swap1\n      sstore\n      pop\n        /* \"Voting/contracts/Voting.sol\":2682:2683  1 */\n      0x01\n        /* \"Voting/contracts/Voting.sol\":2668:2679  totalVoters */\n      sload(0x08)\n        /* \"Voting/contracts/Voting.sol\":2668:2683  totalVoters + 1 */\n      tag_185\n      swap2\n      swap1\n      tag_162\n      jump\t// in\n    tag_185:\n        /* \"Voting/contracts/Voting.sol\":2654:2665  totalVoters */\n      0x08\n        /* \"Voting/contracts/Voting.sol\":2654:2683  totalVoters = totalVoters + 1 */\n      dup2\n      swap1\n      sstore\n      pop\n        /* \"Voting/contracts/Voting.sol\":2369:2697  {\r... */\n      pop\n        /* \"Voting/contracts/Voting.sol\":2259:2697  function addVoter(address _voterAddress, string memory _voterName) public InState(State.Created) OfficialOnly {\r... */\n      pop\n      pop\n      pop\n      jump\t// out\n        /* \"Voting/contracts/Voting.sol\":2707:3258  function makeVote(string memory _voteSymbol) public{\r... */\n    tag_89:\n        /* \"Voting/contracts/Voting.sol\":2772:2786  AddressToVoter */\n      0x00\n        /* \"Voting/contracts/Voting.sol\":2772:2798  AddressToVoter[msg.sender] */\n      dup1\n        /* \"Voting/contracts/Voting.sol\":2787:2797  msg.sender */\n      caller\n        /* \"Voting/contracts/Voting.sol\":2772:2798  AddressToVoter[msg.sender] */\n      0xffffffffffffffffffffffffffffffffffffffff\n      and\n      0xffffffffffffffffffffffffffffffffffffffff\n      and\n      dup2\n      mstore\n      0x20\n      add\n      swap1\n      dup2\n      mstore\n      0x20\n      add\n      0x00\n      keccak256\n        /* \"Voting/contracts/Voting.sol\":2772:2807  AddressToVoter[msg.sender].isAVoter */\n      0x00\n      add\n      0x00\n      swap1\n      sload\n      swap1\n      0x0100\n      exp\n      swap1\n      div\n      0xff\n      and\n        /* \"Voting/contracts/Voting.sol\":2772:2851  AddressToVoter[msg.sender].isAVoter &&AddressToVoter[msg.sender].voted == false */\n      dup1\n      iszero\n      tag_187\n      jumpi\n      pop\n        /* \"Voting/contracts/Voting.sol\":2846:2851  false */\n      0x00\n        /* \"Voting/contracts/Voting.sol\":2810:2851  AddressToVoter[msg.sender].voted == false */\n      iszero\n      iszero\n        /* \"Voting/contracts/Voting.sol\":2810:2824  AddressToVoter */\n      0x00\n        /* \"Voting/contracts/Voting.sol\":2810:2836  AddressToVoter[msg.sender] */\n      dup1\n        /* \"Voting/contracts/Voting.sol\":2825:2835  msg.sender */\n      caller\n        /* \"Voting/contracts/Voting.sol\":2810:2836  AddressToVoter[msg.sender] */\n      0xffffffffffffffffffffffffffffffffffffffff\n      and\n      0xffffffffffffffffffffffffffffffffffffffff\n      and\n      dup2\n      mstore\n      0x20\n      add\n      swap1\n      dup2\n      mstore\n      0x20\n      add\n      0x00\n      keccak256\n        /* \"Voting/contracts/Voting.sol\":2810:2842  AddressToVoter[msg.sender].voted */\n      0x02\n      add\n      0x14\n      swap1\n      sload\n      swap1\n      0x0100\n      exp\n      swap1\n      div\n      0xff\n      and\n        /* \"Voting/contracts/Voting.sol\":2810:2851  AddressToVoter[msg.sender].voted == false */\n      iszero\n      iszero\n      eq\n        /* \"Voting/contracts/Voting.sol\":2772:2851  AddressToVoter[msg.sender].isAVoter &&AddressToVoter[msg.sender].voted == false */\n    tag_187:\n        /* \"Voting/contracts/Voting.sol\":2769:3251  if(AddressToVoter[msg.sender].isAVoter &&AddressToVoter[msg.sender].voted == false){\r... */\n      iszero\n      tag_188\n      jumpi\n        /* \"Voting/contracts/Voting.sol\":2863:2879  Vote memory vote */\n      tag_189\n      tag_190\n      jump\t// in\n    tag_189:\n        /* \"Voting/contracts/Voting.sol\":2910:2920  msg.sender */\n      caller\n        /* \"Voting/contracts/Voting.sol\":2890:2894  vote */\n      dup2\n        /* \"Voting/contracts/Voting.sol\":2890:2907  vote.voterAddress */\n      0x00\n      add\n        /* \"Voting/contracts/Voting.sol\":2890:2920  vote.voterAddress = msg.sender */\n      swap1\n      0xffffffffffffffffffffffffffffffffffffffff\n      and\n      swap1\n      dup2\n      0xffffffffffffffffffffffffffffffffffffffff\n      and\n      dup2\n      mstore\n      pop\n      pop\n        /* \"Voting/contracts/Voting.sol\":2945:2956  _voteSymbol */\n      dup2\n        /* \"Voting/contracts/Voting.sol\":2931:2935  vote */\n      dup2\n        /* \"Voting/contracts/Voting.sol\":2931:2942  vote.symbol */\n      0x20\n      add\n        /* \"Voting/contracts/Voting.sol\":2931:2956  vote.symbol = _voteSymbol */\n      dup2\n      swap1\n      mstore\n      pop\n        /* \"Voting/contracts/Voting.sol\":2997:3001  vote */\n      dup1\n        /* \"Voting/contracts/Voting.sol\":2969:2982  AddressToVote */\n      0x01\n        /* \"Voting/contracts/Voting.sol\":2969:2994  AddressToVote[msg.sender] */\n      0x00\n        /* \"Voting/contracts/Voting.sol\":2983:2993  msg.sender */\n      caller\n        /* \"Voting/contracts/Voting.sol\":2969:2994  AddressToVote[msg.sender] */\n      0xffffffffffffffffffffffffffffffffffffffff\n      and\n      0xffffffffffffffffffffffffffffffffffffffff\n      and\n      dup2\n      mstore\n      0x20\n      add\n      swap1\n      dup2\n      mstore\n      0x20\n      add\n      0x00\n      keccak256\n        /* \"Voting/contracts/Voting.sol\":2969:3001  AddressToVote[msg.sender] = vote */\n      0x00\n      dup3\n      add\n      mload\n      dup2\n      0x00\n      add\n      exp(0x0100, 0x00)\n      dup2\n      sload\n      dup2\n      0xffffffffffffffffffffffffffffffffffffffff\n      mul\n      not\n      and\n      swap1\n      dup4\n      0xffffffffffffffffffffffffffffffffffffffff\n      and\n      mul\n      or\n      swap1\n      sstore\n      pop\n      0x20\n      dup3\n      add\n      mload\n      dup2\n      0x01\n      add\n      swap1\n      dup1\n      mload\n      swap1\n      0x20\n      add\n      swap1\n      tag_191\n      swap3\n      swap2\n      swap1\n      tag_156\n      jump\t// in\n    tag_191:\n      pop\n      swap1\n      pop\n      pop\n        /* \"Voting/contracts/Voting.sol\":3108:3109  1 */\n      0x01\n        /* \"Voting/contracts/Voting.sol\":3061:3078  SymbolToCandidate */\n      0x05\n        /* \"Voting/contracts/Voting.sol\":3079:3090  _voteSymbol */\n      dup4\n        /* \"Voting/contracts/Voting.sol\":3061:3091  SymbolToCandidate[_voteSymbol] */\n      mload(0x40)\n      tag_192\n      swap2\n      swap1\n      tag_158\n      jump\t// in\n    tag_192:\n      swap1\n      dup2\n      mstore\n      0x20\n      add\n      mload(0x40)\n      dup1\n      swap2\n      sub\n      swap1\n      keccak256\n        /* \"Voting/contracts/Voting.sol\":3061:3105  SymbolToCandidate[_voteSymbol].numberOfVotes */\n      0x02\n      add\n      sload\n        /* \"Voting/contracts/Voting.sol\":3061:3109  SymbolToCandidate[_voteSymbol].numberOfVotes + 1 */\n      tag_193\n      swap2\n      swap1\n      tag_162\n      jump\t// in\n    tag_193:\n        /* \"Voting/contracts/Voting.sol\":3014:3031  SymbolToCandidate */\n      0x05\n        /* \"Voting/contracts/Voting.sol\":3032:3043  _voteSymbol */\n      dup4\n        /* \"Voting/contracts/Voting.sol\":3014:3044  SymbolToCandidate[_voteSymbol] */\n      mload(0x40)\n      tag_194\n      swap2\n      swap1\n      tag_158\n      jump\t// in\n    tag_194:\n      swap1\n      dup2\n      mstore\n      0x20\n      add\n      mload(0x40)\n      dup1\n      swap2\n      sub\n      swap1\n      keccak256\n        /* \"Voting/contracts/Voting.sol\":3014:3058  SymbolToCandidate[_voteSymbol].numberOfVotes */\n      0x02\n      add\n        /* \"Voting/contracts/Voting.sol\":3014:3109  SymbolToCandidate[_voteSymbol].numberOfVotes = SymbolToCandidate[_voteSymbol].numberOfVotes + 1 */\n      dup2\n      swap1\n      sstore\n      pop\n        /* \"Voting/contracts/Voting.sol\":3178:3179  1 */\n      0x01\n        /* \"Voting/contracts/Voting.sol\":3149:3162  symbolToVotes */\n      0x06\n        /* \"Voting/contracts/Voting.sol\":3163:3174  _voteSymbol */\n      dup4\n        /* \"Voting/contracts/Voting.sol\":3149:3175  symbolToVotes[_voteSymbol] */\n      mload(0x40)\n      tag_195\n      swap2\n      swap1\n      tag_158\n      jump\t// in\n    tag_195:\n      swap1\n      dup2\n      mstore\n      0x20\n      add\n      mload(0x40)\n      dup1\n      swap2\n      sub\n      swap1\n      keccak256\n      sload\n        /* \"Voting/contracts/Voting.sol\":3149:3179  symbolToVotes[_voteSymbol] + 1 */\n      tag_196\n      swap2\n      swap1\n      tag_162\n      jump\t// in\n    tag_196:\n        /* \"Voting/contracts/Voting.sol\":3120:3133  symbolToVotes */\n      0x06\n        /* \"Voting/contracts/Voting.sol\":3134:3145  _voteSymbol */\n      dup4\n        /* \"Voting/contracts/Voting.sol\":3120:3146  symbolToVotes[_voteSymbol] */\n      mload(0x40)\n      tag_197\n      swap2\n      swap1\n      tag_158\n      jump\t// in\n    tag_197:\n      swap1\n      dup2\n      mstore\n      0x20\n      add\n      mload(0x40)\n      dup1\n      swap2\n      sub\n      swap1\n      keccak256\n        /* \"Voting/contracts/Voting.sol\":3120:3179  symbolToVotes[_voteSymbol] = symbolToVotes[_voteSymbol] + 1 */\n      dup2\n      swap1\n      sstore\n      pop\n        /* \"Voting/contracts/Voting.sol\":3235:3239  true */\n      0x01\n        /* \"Voting/contracts/Voting.sol\":3200:3214  AddressToVoter */\n      0x00\n        /* \"Voting/contracts/Voting.sol\":3200:3226  AddressToVoter[msg.sender] */\n      dup1\n        /* \"Voting/contracts/Voting.sol\":3215:3225  msg.sender */\n      caller\n        /* \"Voting/contracts/Voting.sol\":3200:3226  AddressToVoter[msg.sender] */\n      0xffffffffffffffffffffffffffffffffffffffff\n      and\n      0xffffffffffffffffffffffffffffffffffffffff\n      and\n      dup2\n      mstore\n      0x20\n      add\n      swap1\n      dup2\n      mstore\n      0x20\n      add\n      0x00\n      keccak256\n        /* \"Voting/contracts/Voting.sol\":3200:3232  AddressToVoter[msg.sender].voted */\n      0x02\n      add\n      0x14\n        /* \"Voting/contracts/Voting.sol\":3200:3239  AddressToVoter[msg.sender].voted = true */\n      0x0100\n      exp\n      dup2\n      sload\n      dup2\n      0xff\n      mul\n      not\n      and\n      swap1\n      dup4\n      iszero\n      iszero\n      mul\n      or\n      swap1\n      sstore\n      pop\n        /* \"Voting/contracts/Voting.sol\":2852:3251  {\r... */\n      pop\n        /* \"Voting/contracts/Voting.sol\":2769:3251  if(AddressToVoter[msg.sender].isAVoter &&AddressToVoter[msg.sender].voted == false){\r... */\n    tag_188:\n        /* \"Voting/contracts/Voting.sol\":2707:3258  function makeVote(string memory _voteSymbol) public{\r... */\n      pop\n      jump\t// out\n        /* \"Voting/contracts/Voting.sol\":2117:2251  function getCandidate(string memory _symbol) public view returns(Candidate memory){\r... */\n    tag_92:\n        /* \"Voting/contracts/Voting.sol\":2182:2198  Candidate memory */\n      tag_198\n      tag_102\n      jump\t// in\n    tag_198:\n        /* \"Voting/contracts/Voting.sol\":2217:2234  SymbolToCandidate */\n      0x05\n        /* \"Voting/contracts/Voting.sol\":2235:2242  _symbol */\n      dup3\n        /* \"Voting/contracts/Voting.sol\":2217:2243  SymbolToCandidate[_symbol] */\n      mload(0x40)\n      tag_200\n      swap2\n      swap1\n      tag_158\n      jump\t// in\n    tag_200:\n      swap1\n      dup2\n      mstore\n      0x20\n      add\n      mload(0x40)\n      dup1\n      swap2\n      sub\n      swap1\n      keccak256\n        /* \"Voting/contracts/Voting.sol\":2210:2243  return SymbolToCandidate[_symbol] */\n      mload(0x40)\n      dup1\n      0x80\n      add\n      0x40\n      mstore\n      swap1\n      dup2\n      0x00\n      dup3\n      add\n      dup1\n      sload\n      tag_201\n      swap1\n      tag_109\n      jump\t// in\n    tag_201:\n      dup1\n      0x1f\n      add\n      0x20\n      dup1\n      swap2\n      div\n      mul\n      0x20\n      add\n      mload(0x40)\n      swap1\n      dup2\n      add\n      0x40\n      mstore\n      dup1\n      swap3\n      swap2\n      swap1\n      dup2\n      dup2\n      mstore\n      0x20\n      add\n      dup3\n      dup1\n      sload\n      tag_202\n      swap1\n      tag_109\n      jump\t// in\n    tag_202:\n      dup1\n      iszero\n      tag_203\n      jumpi\n      dup1\n      0x1f\n      lt\n      tag_204\n      jumpi\n      0x0100\n      dup1\n      dup4\n      sload\n      div\n      mul\n      dup4\n      mstore\n      swap2\n      0x20\n      add\n      swap2\n      jump(tag_203)\n    tag_204:\n      dup3\n      add\n      swap2\n      swap1\n      0x00\n      mstore\n      keccak256(0x00, 0x20)\n      swap1\n    tag_205:\n      dup2\n      sload\n      dup2\n      mstore\n      swap1\n      0x01\n      add\n      swap1\n      0x20\n      add\n      dup1\n      dup4\n      gt\n      tag_205\n      jumpi\n      dup3\n      swap1\n      sub\n      0x1f\n      and\n      dup3\n      add\n      swap2\n    tag_203:\n      pop\n      pop\n      pop\n      pop\n      pop\n      dup2\n      mstore\n      0x20\n      add\n      0x01\n      dup3\n      add\n      0x00\n      swap1\n      sload\n      swap1\n      0x0100\n      exp\n      swap1\n      div\n      0xffffffffffffffffffffffffffffffffffffffff\n      and\n      0xffffffffffffffffffffffffffffffffffffffff\n      and\n      0xffffffffffffffffffffffffffffffffffffffff\n      and\n      dup2\n      mstore\n      0x20\n      add\n      0x02\n      dup3\n      add\n      sload\n      dup2\n      mstore\n      0x20\n      add\n      0x03\n      dup3\n      add\n      dup1\n      sload\n      tag_206\n      swap1\n      tag_109\n      jump\t// in\n    tag_206:\n      dup1\n      0x1f\n      add\n      0x20\n      dup1\n      swap2\n      div\n      mul\n      0x20\n      add\n      mload(0x40)\n      swap1\n      dup2\n      add\n      0x40\n      mstore\n      dup1\n      swap3\n      swap2\n      swap1\n      dup2\n      dup2\n      mstore\n      0x20\n      add\n      dup3\n      dup1\n      sload\n      tag_207\n      swap1\n      tag_109\n      jump\t// in\n    tag_207:\n      dup1\n      iszero\n      tag_208\n      jumpi\n      dup1\n      0x1f\n      lt\n      tag_209\n      jumpi\n      0x0100\n      dup1\n      dup4\n      sload\n      div\n      mul\n      dup4\n      mstore\n      swap2\n      0x20\n      add\n      swap2\n      jump(tag_208)\n    tag_209:\n      dup3\n      add\n      swap2\n      swap1\n      0x00\n      mstore\n      keccak256(0x00, 0x20)\n      swap1\n    tag_210:\n      dup2\n      sload\n      dup2\n      mstore\n      swap1\n      0x01\n      add\n      swap1\n      0x20\n      add\n      dup1\n      dup4\n      gt\n      tag_210\n      jumpi\n      dup3\n      swap1\n      sub\n      0x1f\n      and\n      dup3\n      add\n      swap2\n    tag_208:\n      pop\n      pop\n      pop\n      pop\n      pop\n      dup2\n      mstore\n      pop\n      pop\n      swap1\n      pop\n        /* \"Voting/contracts/Voting.sol\":2117:2251  function getCandidate(string memory _symbol) public view returns(Candidate memory){\r... */\n      swap2\n      swap1\n      pop\n      jump\t// out\n    tag_102:\n      mload(0x40)\n      dup1\n      0x80\n      add\n      0x40\n      mstore\n      dup1\n      0x60\n      dup2\n      mstore\n      0x20\n      add\n      and(0xffffffffffffffffffffffffffffffffffffffff, 0x00)\n      dup2\n      mstore\n      0x20\n      add\n      0x00\n      dup2\n      mstore\n      0x20\n      add\n      0x60\n      dup2\n      mstore\n      pop\n      swap1\n      jump\t// out\n    tag_156:\n      dup3\n      dup1\n      sload\n      tag_211\n      swap1\n      tag_109\n      jump\t// in\n    tag_211:\n      swap1\n      0x00\n      mstore\n      keccak256(0x00, 0x20)\n      swap1\n      0x1f\n      add\n      0x20\n      swap1\n      div\n      dup2\n      add\n      swap3\n      dup3\n      tag_213\n      jumpi\n      0x00\n      dup6\n      sstore\n      jump(tag_212)\n    tag_213:\n      dup3\n      0x1f\n      lt\n      tag_214\n      jumpi\n      dup1\n      mload\n      not(0xff)\n      and\n      dup4\n      dup1\n      add\n      or\n      dup6\n      sstore\n      jump(tag_212)\n    tag_214:\n      dup3\n      dup1\n      add\n      0x01\n      add\n      dup6\n      sstore\n      dup3\n      iszero\n      tag_212\n      jumpi\n      swap2\n      dup3\n      add\n    tag_215:\n      dup3\n      dup2\n      gt\n      iszero\n      tag_216\n      jumpi\n      dup3\n      mload\n      dup3\n      sstore\n      swap2\n      0x20\n      add\n      swap2\n      swap1\n      0x01\n      add\n      swap1\n      jump(tag_215)\n    tag_216:\n    tag_212:\n      pop\n      swap1\n      pop\n      tag_217\n      swap2\n      swap1\n      tag_218\n      jump\t// in\n    tag_217:\n      pop\n      swap1\n      jump\t// out\n    tag_183:\n      mload(0x40)\n      dup1\n      0x80\n      add\n      0x40\n      mstore\n      dup1\n      iszero(iszero(0x00))\n      dup2\n      mstore\n      0x20\n      add\n      0x60\n      dup2\n      mstore\n      0x20\n      add\n      and(0xffffffffffffffffffffffffffffffffffffffff, 0x00)\n      dup2\n      mstore\n      0x20\n      add\n      iszero(iszero(0x00))\n      dup2\n      mstore\n      pop\n      swap1\n      jump\t// out\n    tag_190:\n      mload(0x40)\n      dup1\n      0x40\n      add\n      0x40\n      mstore\n      dup1\n      and(0xffffffffffffffffffffffffffffffffffffffff, 0x00)\n      dup2\n      mstore\n      0x20\n      add\n      0x60\n      dup2\n      mstore\n      pop\n      swap1\n      jump\t// out\n    tag_218:\n    tag_219:\n      dup1\n      dup3\n      gt\n      iszero\n      tag_220\n      jumpi\n      0x00\n      dup2\n      0x00\n      swap1\n      sstore\n      pop\n      0x01\n      add\n      jump(tag_219)\n    tag_220:\n      pop\n      swap1\n      jump\t// out\n        /* \"#utility.yul\":7:419   */\n    tag_222:\n        /* \"#utility.yul\":85:90   */\n      0x00\n        /* \"#utility.yul\":110:176   */\n      tag_224\n        /* \"#utility.yul\":126:175   */\n      tag_225\n        /* \"#utility.yul\":168:174   */\n      dup5\n        /* \"#utility.yul\":126:175   */\n      tag_226\n      jump\t// in\n    tag_225:\n        /* \"#utility.yul\":110:176   */\n      tag_227\n      jump\t// in\n    tag_224:\n        /* \"#utility.yul\":101:176   */\n      swap1\n      pop\n        /* \"#utility.yul\":199:205   */\n      dup3\n        /* \"#utility.yul\":192:197   */\n      dup2\n        /* \"#utility.yul\":185:206   */\n      mstore\n        /* \"#utility.yul\":237:241   */\n      0x20\n        /* \"#utility.yul\":230:235   */\n      dup2\n        /* \"#utility.yul\":226:242   */\n      add\n        /* \"#utility.yul\":275:278   */\n      dup5\n        /* \"#utility.yul\":266:272   */\n      dup5\n        /* \"#utility.yul\":261:264   */\n      dup5\n        /* \"#utility.yul\":257:273   */\n      add\n        /* \"#utility.yul\":254:279   */\n      gt\n        /* \"#utility.yul\":251:363   */\n      iszero\n      tag_228\n      jumpi\n        /* \"#utility.yul\":282:361   */\n      tag_229\n      tag_230\n      jump\t// in\n    tag_229:\n        /* \"#utility.yul\":251:363   */\n    tag_228:\n        /* \"#utility.yul\":372:413   */\n      tag_231\n        /* \"#utility.yul\":406:412   */\n      dup5\n        /* \"#utility.yul\":401:404   */\n      dup3\n        /* \"#utility.yul\":396:399   */\n      dup6\n        /* \"#utility.yul\":372:413   */\n      tag_232\n      jump\t// in\n    tag_231:\n        /* \"#utility.yul\":91:419   */\n      pop\n        /* \"#utility.yul\":7:419   */\n      swap4\n      swap3\n      pop\n      pop\n      pop\n      jump\t// out\n        /* \"#utility.yul\":425:564   */\n    tag_233:\n        /* \"#utility.yul\":471:476   */\n      0x00\n        /* \"#utility.yul\":509:515   */\n      dup2\n        /* \"#utility.yul\":496:516   */\n      calldataload\n        /* \"#utility.yul\":487:516   */\n      swap1\n      pop\n        /* \"#utility.yul\":525:558   */\n      tag_235\n        /* \"#utility.yul\":552:557   */\n      dup2\n        /* \"#utility.yul\":525:558   */\n      tag_236\n      jump\t// in\n    tag_235:\n        /* \"#utility.yul\":425:564   */\n      swap3\n      swap2\n      pop\n      pop\n      jump\t// out\n        /* \"#utility.yul\":584:924   */\n    tag_237:\n        /* \"#utility.yul\":640:645   */\n      0x00\n        /* \"#utility.yul\":689:692   */\n      dup3\n        /* \"#utility.yul\":682:686   */\n      0x1f\n        /* \"#utility.yul\":674:680   */\n      dup4\n        /* \"#utility.yul\":670:687   */\n      add\n        /* \"#utility.yul\":666:693   */\n      slt\n        /* \"#utility.yul\":656:778   */\n      tag_239\n      jumpi\n        /* \"#utility.yul\":697:776   */\n      tag_240\n      tag_241\n      jump\t// in\n    tag_240:\n        /* \"#utility.yul\":656:778   */\n    tag_239:\n        /* \"#utility.yul\":814:820   */\n      dup2\n        /* \"#utility.yul\":801:821   */\n      calldataload\n        /* \"#utility.yul\":839:918   */\n      tag_242\n        /* \"#utility.yul\":914:917   */\n      dup5\n        /* \"#utility.yul\":906:912   */\n      dup3\n        /* \"#utility.yul\":899:903   */\n      0x20\n        /* \"#utility.yul\":891:897   */\n      dup7\n        /* \"#utility.yul\":887:904   */\n      add\n        /* \"#utility.yul\":839:918   */\n      tag_222\n      jump\t// in\n    tag_242:\n        /* \"#utility.yul\":830:918   */\n      swap2\n      pop\n        /* \"#utility.yul\":646:924   */\n      pop\n        /* \"#utility.yul\":584:924   */\n      swap3\n      swap2\n      pop\n      pop\n      jump\t// out\n        /* \"#utility.yul\":930:1069   */\n    tag_243:\n        /* \"#utility.yul\":976:981   */\n      0x00\n        /* \"#utility.yul\":1014:1020   */\n      dup2\n        /* \"#utility.yul\":1001:1021   */\n      calldataload\n        /* \"#utility.yul\":992:1021   */\n      swap1\n      pop\n        /* \"#utility.yul\":1030:1063   */\n      tag_245\n        /* \"#utility.yul\":1057:1062   */\n      dup2\n        /* \"#utility.yul\":1030:1063   */\n      tag_246\n      jump\t// in\n    tag_245:\n        /* \"#utility.yul\":930:1069   */\n      swap3\n      swap2\n      pop\n      pop\n      jump\t// out\n        /* \"#utility.yul\":1075:1404   */\n    tag_39:\n        /* \"#utility.yul\":1134:1140   */\n      0x00\n        /* \"#utility.yul\":1183:1185   */\n      0x20\n        /* \"#utility.yul\":1171:1180   */\n      dup3\n        /* \"#utility.yul\":1162:1169   */\n      dup5\n        /* \"#utility.yul\":1158:1181   */\n      sub\n        /* \"#utility.yul\":1154:1186   */\n      slt\n        /* \"#utility.yul\":1151:1270   */\n      iszero\n      tag_248\n      jumpi\n        /* \"#utility.yul\":1189:1268   */\n      tag_249\n      tag_250\n      jump\t// in\n    tag_249:\n        /* \"#utility.yul\":1151:1270   */\n    tag_248:\n        /* \"#utility.yul\":1309:1310   */\n      0x00\n        /* \"#utility.yul\":1334:1387   */\n      tag_251\n        /* \"#utility.yul\":1379:1386   */\n      dup5\n        /* \"#utility.yul\":1370:1376   */\n      dup3\n        /* \"#utility.yul\":1359:1368   */\n      dup6\n        /* \"#utility.yul\":1355:1377   */\n      add\n        /* \"#utility.yul\":1334:1387   */\n      tag_233\n      jump\t// in\n    tag_251:\n        /* \"#utility.yul\":1324:1387   */\n      swap2\n      pop\n        /* \"#utility.yul\":1280:1397   */\n      pop\n        /* \"#utility.yul\":1075:1404   */\n      swap3\n      swap2\n      pop\n      pop\n      jump\t// out\n        /* \"#utility.yul\":1410:2064   */\n    tag_85:\n        /* \"#utility.yul\":1488:1494   */\n      0x00\n        /* \"#utility.yul\":1496:1502   */\n      dup1\n        /* \"#utility.yul\":1545:1547   */\n      0x40\n        /* \"#utility.yul\":1533:1542   */\n      dup4\n        /* \"#utility.yul\":1524:1531   */\n      dup6\n        /* \"#utility.yul\":1520:1543   */\n      sub\n        /* \"#utility.yul\":1516:1548   */\n      slt\n        /* \"#utility.yul\":1513:1632   */\n      iszero\n      tag_253\n      jumpi\n        /* \"#utility.yul\":1551:1630   */\n      tag_254\n      tag_250\n      jump\t// in\n    tag_254:\n        /* \"#utility.yul\":1513:1632   */\n    tag_253:\n        /* \"#utility.yul\":1671:1672   */\n      0x00\n        /* \"#utility.yul\":1696:1749   */\n      tag_255\n        /* \"#utility.yul\":1741:1748   */\n      dup6\n        /* \"#utility.yul\":1732:1738   */\n      dup3\n        /* \"#utility.yul\":1721:1730   */\n      dup7\n        /* \"#utility.yul\":1717:1739   */\n      add\n        /* \"#utility.yul\":1696:1749   */\n      tag_233\n      jump\t// in\n    tag_255:\n        /* \"#utility.yul\":1686:1749   */\n      swap3\n      pop\n        /* \"#utility.yul\":1642:1759   */\n      pop\n        /* \"#utility.yul\":1826:1828   */\n      0x20\n        /* \"#utility.yul\":1815:1824   */\n      dup4\n        /* \"#utility.yul\":1811:1829   */\n      add\n        /* \"#utility.yul\":1798:1830   */\n      calldataload\n        /* \"#utility.yul\":1857:1875   */\n      0xffffffffffffffff\n        /* \"#utility.yul\":1849:1855   */\n      dup2\n        /* \"#utility.yul\":1846:1876   */\n      gt\n        /* \"#utility.yul\":1843:1960   */\n      iszero\n      tag_256\n      jumpi\n        /* \"#utility.yul\":1879:1958   */\n      tag_257\n      tag_258\n      jump\t// in\n    tag_257:\n        /* \"#utility.yul\":1843:1960   */\n    tag_256:\n        /* \"#utility.yul\":1984:2047   */\n      tag_259\n        /* \"#utility.yul\":2039:2046   */\n      dup6\n        /* \"#utility.yul\":2030:2036   */\n      dup3\n        /* \"#utility.yul\":2019:2028   */\n      dup7\n        /* \"#utility.yul\":2015:2037   */\n      add\n        /* \"#utility.yul\":1984:2047   */\n      tag_237\n      jump\t// in\n    tag_259:\n        /* \"#utility.yul\":1974:2047   */\n      swap2\n      pop\n        /* \"#utility.yul\":1769:2057   */\n      pop\n        /* \"#utility.yul\":1410:2064   */\n      swap3\n      pop\n      swap3\n      swap1\n      pop\n      jump\t// out\n        /* \"#utility.yul\":2070:3049   */\n    tag_62:\n        /* \"#utility.yul\":2167:2173   */\n      0x00\n        /* \"#utility.yul\":2175:2181   */\n      dup1\n        /* \"#utility.yul\":2183:2189   */\n      0x00\n        /* \"#utility.yul\":2232:2234   */\n      0x60\n        /* \"#utility.yul\":2220:2229   */\n      dup5\n        /* \"#utility.yul\":2211:2218   */\n      dup7\n        /* \"#utility.yul\":2207:2230   */\n      sub\n        /* \"#utility.yul\":2203:2235   */\n      slt\n        /* \"#utility.yul\":2200:2319   */\n      iszero\n      tag_261\n      jumpi\n        /* \"#utility.yul\":2238:2317   */\n      tag_262\n      tag_250\n      jump\t// in\n    tag_262:\n        /* \"#utility.yul\":2200:2319   */\n    tag_261:\n        /* \"#utility.yul\":2358:2359   */\n      0x00\n        /* \"#utility.yul\":2383:2436   */\n      tag_263\n        /* \"#utility.yul\":2428:2435   */\n      dup7\n        /* \"#utility.yul\":2419:2425   */\n      dup3\n        /* \"#utility.yul\":2408:2417   */\n      dup8\n        /* \"#utility.yul\":2404:2426   */\n      add\n        /* \"#utility.yul\":2383:2436   */\n      tag_233\n      jump\t// in\n    tag_263:\n        /* \"#utility.yul\":2373:2436   */\n      swap4\n      pop\n        /* \"#utility.yul\":2329:2446   */\n      pop\n        /* \"#utility.yul\":2513:2515   */\n      0x20\n        /* \"#utility.yul\":2502:2511   */\n      dup5\n        /* \"#utility.yul\":2498:2516   */\n      add\n        /* \"#utility.yul\":2485:2517   */\n      calldataload\n        /* \"#utility.yul\":2544:2562   */\n      0xffffffffffffffff\n        /* \"#utility.yul\":2536:2542   */\n      dup2\n        /* \"#utility.yul\":2533:2563   */\n      gt\n        /* \"#utility.yul\":2530:2647   */\n      iszero\n      tag_264\n      jumpi\n        /* \"#utility.yul\":2566:2645   */\n      tag_265\n      tag_258\n      jump\t// in\n    tag_265:\n        /* \"#utility.yul\":2530:2647   */\n    tag_264:\n        /* \"#utility.yul\":2671:2734   */\n      tag_266\n        /* \"#utility.yul\":2726:2733   */\n      dup7\n        /* \"#utility.yul\":2717:2723   */\n      dup3\n        /* \"#utility.yul\":2706:2715   */\n      dup8\n        /* \"#utility.yul\":2702:2724   */\n      add\n        /* \"#utility.yul\":2671:2734   */\n      tag_237\n      jump\t// in\n    tag_266:\n        /* \"#utility.yul\":2661:2734   */\n      swap3\n      pop\n        /* \"#utility.yul\":2456:2744   */\n      pop\n        /* \"#utility.yul\":2811:2813   */\n      0x40\n        /* \"#utility.yul\":2800:2809   */\n      dup5\n        /* \"#utility.yul\":2796:2814   */\n      add\n        /* \"#utility.yul\":2783:2815   */\n      calldataload\n        /* \"#utility.yul\":2842:2860   */\n      0xffffffffffffffff\n        /* \"#utility.yul\":2834:2840   */\n      dup2\n        /* \"#utility.yul\":2831:2861   */\n      gt\n        /* \"#utility.yul\":2828:2945   */\n      iszero\n      tag_267\n      jumpi\n        /* \"#utility.yul\":2864:2943   */\n      tag_268\n      tag_258\n      jump\t// in\n    tag_268:\n        /* \"#utility.yul\":2828:2945   */\n    tag_267:\n        /* \"#utility.yul\":2969:3032   */\n      tag_269\n        /* \"#utility.yul\":3024:3031   */\n      dup7\n        /* \"#utility.yul\":3015:3021   */\n      dup3\n        /* \"#utility.yul\":3004:3013   */\n      dup8\n        /* \"#utility.yul\":3000:3022   */\n      add\n        /* \"#utility.yul\":2969:3032   */\n      tag_237\n      jump\t// in\n    tag_269:\n        /* \"#utility.yul\":2959:3032   */\n      swap2\n      pop\n        /* \"#utility.yul\":2754:3042   */\n      pop\n        /* \"#utility.yul\":2070:3049   */\n      swap3\n      pop\n      swap3\n      pop\n      swap3\n      jump\t// out\n        /* \"#utility.yul\":3055:3564   */\n    tag_53:\n        /* \"#utility.yul\":3124:3130   */\n      0x00\n        /* \"#utility.yul\":3173:3175   */\n      0x20\n        /* \"#utility.yul\":3161:3170   */\n      dup3\n        /* \"#utility.yul\":3152:3159   */\n      dup5\n        /* \"#utility.yul\":3148:3171   */\n      sub\n        /* \"#utility.yul\":3144:3176   */\n      slt\n        /* \"#utility.yul\":3141:3260   */\n      iszero\n      tag_271\n      jumpi\n        /* \"#utility.yul\":3179:3258   */\n      tag_272\n      tag_250\n      jump\t// in\n    tag_272:\n        /* \"#utility.yul\":3141:3260   */\n    tag_271:\n        /* \"#utility.yul\":3327:3328   */\n      0x00\n        /* \"#utility.yul\":3316:3325   */\n      dup3\n        /* \"#utility.yul\":3312:3329   */\n      add\n        /* \"#utility.yul\":3299:3330   */\n      calldataload\n        /* \"#utility.yul\":3357:3375   */\n      0xffffffffffffffff\n        /* \"#utility.yul\":3349:3355   */\n      dup2\n        /* \"#utility.yul\":3346:3376   */\n      gt\n        /* \"#utility.yul\":3343:3460   */\n      iszero\n      tag_273\n      jumpi\n        /* \"#utility.yul\":3379:3458   */\n      tag_274\n      tag_258\n      jump\t// in\n    tag_274:\n        /* \"#utility.yul\":3343:3460   */\n    tag_273:\n        /* \"#utility.yul\":3484:3547   */\n      tag_275\n        /* \"#utility.yul\":3539:3546   */\n      dup5\n        /* \"#utility.yul\":3530:3536   */\n      dup3\n        /* \"#utility.yul\":3519:3528   */\n      dup6\n        /* \"#utility.yul\":3515:3537   */\n      add\n        /* \"#utility.yul\":3484:3547   */\n      tag_237\n      jump\t// in\n    tag_275:\n        /* \"#utility.yul\":3474:3547   */\n      swap2\n      pop\n        /* \"#utility.yul\":3270:3557   */\n      pop\n        /* \"#utility.yul\":3055:3564   */\n      swap3\n      swap2\n      pop\n      pop\n      jump\t// out\n        /* \"#utility.yul\":3570:3899   */\n    tag_25:\n        /* \"#utility.yul\":3629:3635   */\n      0x00\n        /* \"#utility.yul\":3678:3680   */\n      0x20\n        /* \"#utility.yul\":3666:3675   */\n      dup3\n        /* \"#utility.yul\":3657:3664   */\n      dup5\n        /* \"#utility.yul\":3653:3676   */\n      sub\n        /* \"#utility.yul\":3649:3681   */\n      slt\n        /* \"#utility.yul\":3646:3765   */\n      iszero\n      tag_277\n      jumpi\n        /* \"#utility.yul\":3684:3763   */\n      tag_278\n      tag_250\n      jump\t// in\n    tag_278:\n        /* \"#utility.yul\":3646:3765   */\n    tag_277:\n        /* \"#utility.yul\":3804:3805   */\n      0x00\n        /* \"#utility.yul\":3829:3882   */\n      tag_279\n        /* \"#utility.yul\":3874:3881   */\n      dup5\n        /* \"#utility.yul\":3865:3871   */\n      dup3\n        /* \"#utility.yul\":3854:3863   */\n      dup6\n        /* \"#utility.yul\":3850:3872   */\n      add\n        /* \"#utility.yul\":3829:3882   */\n      tag_243\n      jump\t// in\n    tag_279:\n        /* \"#utility.yul\":3819:3882   */\n      swap2\n      pop\n        /* \"#utility.yul\":3775:3892   */\n      pop\n        /* \"#utility.yul\":3570:3899   */\n      swap3\n      swap2\n      pop\n      pop\n      jump\t// out\n        /* \"#utility.yul\":3905:4161   */\n    tag_280:\n        /* \"#utility.yul\":4024:4034   */\n      0x00\n        /* \"#utility.yul\":4059:4155   */\n      tag_282\n        /* \"#utility.yul\":4151:4154   */\n      dup4\n        /* \"#utility.yul\":4143:4149   */\n      dup4\n        /* \"#utility.yul\":4059:4155   */\n      tag_283\n      jump\t// in\n    tag_282:\n        /* \"#utility.yul\":4045:4155   */\n      swap1\n      pop\n        /* \"#utility.yul\":3905:4161   */\n      swap3\n      swap2\n      pop\n      pop\n      jump\t// out\n        /* \"#utility.yul\":4167:4275   */\n    tag_284:\n        /* \"#utility.yul\":4244:4268   */\n      tag_286\n        /* \"#utility.yul\":4262:4267   */\n      dup2\n        /* \"#utility.yul\":4244:4268   */\n      tag_287\n      jump\t// in\n    tag_286:\n        /* \"#utility.yul\":4239:4242   */\n      dup3\n        /* \"#utility.yul\":4232:4269   */\n      mstore\n        /* \"#utility.yul\":4167:4275   */\n      pop\n      pop\n      jump\t// out\n        /* \"#utility.yul\":4281:4399   */\n    tag_288:\n        /* \"#utility.yul\":4368:4392   */\n      tag_290\n        /* \"#utility.yul\":4386:4391   */\n      dup2\n        /* \"#utility.yul\":4368:4392   */\n      tag_287\n      jump\t// in\n    tag_290:\n        /* \"#utility.yul\":4363:4366   */\n      dup3\n        /* \"#utility.yul\":4356:4393   */\n      mstore\n        /* \"#utility.yul\":4281:4399   */\n      pop\n      pop\n      jump\t// out\n        /* \"#utility.yul\":4467:5578   */\n    tag_291:\n        /* \"#utility.yul\":4636:4639   */\n      0x00\n        /* \"#utility.yul\":4665:4744   */\n      tag_293\n        /* \"#utility.yul\":4738:4743   */\n      dup3\n        /* \"#utility.yul\":4665:4744   */\n      tag_294\n      jump\t// in\n    tag_293:\n        /* \"#utility.yul\":4760:4871   */\n      tag_295\n        /* \"#utility.yul\":4864:4870   */\n      dup2\n        /* \"#utility.yul\":4859:4862   */\n      dup6\n        /* \"#utility.yul\":4760:4871   */\n      tag_296\n      jump\t// in\n    tag_295:\n        /* \"#utility.yul\":4753:4871   */\n      swap4\n      pop\n        /* \"#utility.yul\":4897:4900   */\n      dup4\n        /* \"#utility.yul\":4942:4946   */\n      0x20\n        /* \"#utility.yul\":4934:4940   */\n      dup3\n        /* \"#utility.yul\":4930:4947   */\n      mul\n        /* \"#utility.yul\":4925:4928   */\n      dup6\n        /* \"#utility.yul\":4921:4948   */\n      add\n        /* \"#utility.yul\":4972:5053   */\n      tag_297\n        /* \"#utility.yul\":5047:5052   */\n      dup6\n        /* \"#utility.yul\":4972:5053   */\n      tag_298\n      jump\t// in\n    tag_297:\n        /* \"#utility.yul\":5076:5083   */\n      dup1\n        /* \"#utility.yul\":5107:5108   */\n      0x00\n        /* \"#utility.yul\":5092:5533   */\n    tag_299:\n        /* \"#utility.yul\":5117:5123   */\n      dup6\n        /* \"#utility.yul\":5114:5115   */\n      dup2\n        /* \"#utility.yul\":5111:5124   */\n      lt\n        /* \"#utility.yul\":5092:5533   */\n      iszero\n      tag_301\n      jumpi\n        /* \"#utility.yul\":5188:5197   */\n      dup5\n        /* \"#utility.yul\":5182:5186   */\n      dup5\n        /* \"#utility.yul\":5178:5198   */\n      sub\n        /* \"#utility.yul\":5173:5176   */\n      dup10\n        /* \"#utility.yul\":5166:5199   */\n      mstore\n        /* \"#utility.yul\":5239:5245   */\n      dup2\n        /* \"#utility.yul\":5233:5246   */\n      mload\n        /* \"#utility.yul\":5267:5381   */\n      tag_302\n        /* \"#utility.yul\":5376:5380   */\n      dup6\n        /* \"#utility.yul\":5361:5374   */\n      dup3\n        /* \"#utility.yul\":5267:5381   */\n      tag_280\n      jump\t// in\n    tag_302:\n        /* \"#utility.yul\":5259:5381   */\n      swap5\n      pop\n        /* \"#utility.yul\":5404:5489   */\n      tag_303\n        /* \"#utility.yul\":5482:5488   */\n      dup4\n        /* \"#utility.yul\":5404:5489   */\n      tag_304\n      jump\t// in\n    tag_303:\n        /* \"#utility.yul\":5394:5489   */\n      swap3\n      pop\n        /* \"#utility.yul\":5518:5522   */\n      0x20\n        /* \"#utility.yul\":5513:5516   */\n      dup11\n        /* \"#utility.yul\":5509:5523   */\n      add\n        /* \"#utility.yul\":5502:5523   */\n      swap10\n      pop\n        /* \"#utility.yul\":5152:5533   */\n      pop\n        /* \"#utility.yul\":5139:5140   */\n      0x01\n        /* \"#utility.yul\":5136:5137   */\n      dup2\n        /* \"#utility.yul\":5132:5141   */\n      add\n        /* \"#utility.yul\":5127:5141   */\n      swap1\n      pop\n        /* \"#utility.yul\":5092:5533   */\n      jump(tag_299)\n    tag_301:\n        /* \"#utility.yul\":5096:5110   */\n      pop\n        /* \"#utility.yul\":5549:5553   */\n      dup3\n        /* \"#utility.yul\":5542:5553   */\n      swap8\n      pop\n        /* \"#utility.yul\":5569:5572   */\n      dup8\n        /* \"#utility.yul\":5562:5572   */\n      swap6\n      pop\n        /* \"#utility.yul\":4641:5578   */\n      pop\n      pop\n      pop\n      pop\n      pop\n        /* \"#utility.yul\":4467:5578   */\n      swap3\n      swap2\n      pop\n      pop\n      jump\t// out\n        /* \"#utility.yul\":5584:5693   */\n    tag_305:\n        /* \"#utility.yul\":5665:5686   */\n      tag_307\n        /* \"#utility.yul\":5680:5685   */\n      dup2\n        /* \"#utility.yul\":5665:5686   */\n      tag_308\n      jump\t// in\n    tag_307:\n        /* \"#utility.yul\":5660:5663   */\n      dup3\n        /* \"#utility.yul\":5653:5687   */\n      mstore\n        /* \"#utility.yul\":5584:5693   */\n      pop\n      pop\n      jump\t// out\n        /* \"#utility.yul\":5699:5842   */\n    tag_309:\n        /* \"#utility.yul\":5792:5835   */\n      tag_311\n        /* \"#utility.yul\":5829:5834   */\n      dup2\n        /* \"#utility.yul\":5792:5835   */\n      tag_312\n      jump\t// in\n    tag_311:\n        /* \"#utility.yul\":5787:5790   */\n      dup3\n        /* \"#utility.yul\":5780:5836   */\n      mstore\n        /* \"#utility.yul\":5699:5842   */\n      pop\n      pop\n      jump\t// out\n        /* \"#utility.yul\":5848:6192   */\n    tag_313:\n        /* \"#utility.yul\":5926:5929   */\n      0x00\n        /* \"#utility.yul\":5954:5993   */\n      tag_315\n        /* \"#utility.yul\":5987:5992   */\n      dup3\n        /* \"#utility.yul\":5954:5993   */\n      tag_316\n      jump\t// in\n    tag_315:\n        /* \"#utility.yul\":6009:6070   */\n      tag_317\n        /* \"#utility.yul\":6063:6069   */\n      dup2\n        /* \"#utility.yul\":6058:6061   */\n      dup6\n        /* \"#utility.yul\":6009:6070   */\n      tag_318\n      jump\t// in\n    tag_317:\n        /* \"#utility.yul\":6002:6070   */\n      swap4\n      pop\n        /* \"#utility.yul\":6079:6131   */\n      tag_319\n        /* \"#utility.yul\":6124:6130   */\n      dup2\n        /* \"#utility.yul\":6119:6122   */\n      dup6\n        /* \"#utility.yul\":6112:6116   */\n      0x20\n        /* \"#utility.yul\":6105:6110   */\n      dup7\n        /* \"#utility.yul\":6101:6117   */\n      add\n        /* \"#utility.yul\":6079:6131   */\n      tag_320\n      jump\t// in\n    tag_319:\n        /* \"#utility.yul\":6156:6185   */\n      tag_321\n        /* \"#utility.yul\":6178:6184   */\n      dup2\n        /* \"#utility.yul\":6156:6185   */\n      tag_322\n      jump\t// in\n    tag_321:\n        /* \"#utility.yul\":6151:6154   */\n      dup5\n        /* \"#utility.yul\":6147:6186   */\n      add\n        /* \"#utility.yul\":6140:6186   */\n      swap2\n      pop\n        /* \"#utility.yul\":5930:6192   */\n      pop\n        /* \"#utility.yul\":5848:6192   */\n      swap3\n      swap2\n      pop\n      pop\n      jump\t// out\n        /* \"#utility.yul\":6198:6562   */\n    tag_323:\n        /* \"#utility.yul\":6286:6289   */\n      0x00\n        /* \"#utility.yul\":6314:6353   */\n      tag_325\n        /* \"#utility.yul\":6347:6352   */\n      dup3\n        /* \"#utility.yul\":6314:6353   */\n      tag_316\n      jump\t// in\n    tag_325:\n        /* \"#utility.yul\":6369:6440   */\n      tag_326\n        /* \"#utility.yul\":6433:6439   */\n      dup2\n        /* \"#utility.yul\":6428:6431   */\n      dup6\n        /* \"#utility.yul\":6369:6440   */\n      tag_327\n      jump\t// in\n    tag_326:\n        /* \"#utility.yul\":6362:6440   */\n      swap4\n      pop\n        /* \"#utility.yul\":6449:6501   */\n      tag_328\n        /* \"#utility.yul\":6494:6500   */\n      dup2\n        /* \"#utility.yul\":6489:6492   */\n      dup6\n        /* \"#utility.yul\":6482:6486   */\n      0x20\n        /* \"#utility.yul\":6475:6480   */\n      dup7\n        /* \"#utility.yul\":6471:6487   */\n      add\n        /* \"#utility.yul\":6449:6501   */\n      tag_320\n      jump\t// in\n    tag_328:\n        /* \"#utility.yul\":6526:6555   */\n      tag_329\n        /* \"#utility.yul\":6548:6554   */\n      dup2\n        /* \"#utility.yul\":6526:6555   */\n      tag_322\n      jump\t// in\n    tag_329:\n        /* \"#utility.yul\":6521:6524   */\n      dup5\n        /* \"#utility.yul\":6517:6556   */\n      add\n        /* \"#utility.yul\":6510:6556   */\n      swap2\n      pop\n        /* \"#utility.yul\":6290:6562   */\n      pop\n        /* \"#utility.yul\":6198:6562   */\n      swap3\n      swap2\n      pop\n      pop\n      jump\t// out\n        /* \"#utility.yul\":6568:6945   */\n    tag_330:\n        /* \"#utility.yul\":6674:6677   */\n      0x00\n        /* \"#utility.yul\":6702:6741   */\n      tag_332\n        /* \"#utility.yul\":6735:6740   */\n      dup3\n        /* \"#utility.yul\":6702:6741   */\n      tag_316\n      jump\t// in\n    tag_332:\n        /* \"#utility.yul\":6757:6846   */\n      tag_333\n        /* \"#utility.yul\":6839:6845   */\n      dup2\n        /* \"#utility.yul\":6834:6837   */\n      dup6\n        /* \"#utility.yul\":6757:6846   */\n      tag_334\n      jump\t// in\n    tag_333:\n        /* \"#utility.yul\":6750:6846   */\n      swap4\n      pop\n        /* \"#utility.yul\":6855:6907   */\n      tag_335\n        /* \"#utility.yul\":6900:6906   */\n      dup2\n        /* \"#utility.yul\":6895:6898   */\n      dup6\n        /* \"#utility.yul\":6888:6892   */\n      0x20\n        /* \"#utility.yul\":6881:6886   */\n      dup7\n        /* \"#utility.yul\":6877:6893   */\n      add\n        /* \"#utility.yul\":6855:6907   */\n      tag_320\n      jump\t// in\n    tag_335:\n        /* \"#utility.yul\":6932:6938   */\n      dup1\n        /* \"#utility.yul\":6927:6930   */\n      dup5\n        /* \"#utility.yul\":6923:6939   */\n      add\n        /* \"#utility.yul\":6916:6939   */\n      swap2\n      pop\n        /* \"#utility.yul\":6678:6945   */\n      pop\n        /* \"#utility.yul\":6568:6945   */\n      swap3\n      swap2\n      pop\n      pop\n      jump\t// out\n        /* \"#utility.yul\":6975:7820   */\n    tag_336:\n        /* \"#utility.yul\":7078:7081   */\n      0x00\n        /* \"#utility.yul\":7115:7120   */\n      dup2\n        /* \"#utility.yul\":7109:7121   */\n      sload\n        /* \"#utility.yul\":7144:7180   */\n      tag_338\n        /* \"#utility.yul\":7170:7179   */\n      dup2\n        /* \"#utility.yul\":7144:7180   */\n      tag_109\n      jump\t// in\n    tag_338:\n        /* \"#utility.yul\":7196:7285   */\n      tag_339\n        /* \"#utility.yul\":7278:7284   */\n      dup2\n        /* \"#utility.yul\":7273:7276   */\n      dup7\n        /* \"#utility.yul\":7196:7285   */\n      tag_334\n      jump\t// in\n    tag_339:\n        /* \"#utility.yul\":7189:7285   */\n      swap5\n      pop\n        /* \"#utility.yul\":7316:7317   */\n      0x01\n        /* \"#utility.yul\":7305:7314   */\n      dup3\n        /* \"#utility.yul\":7301:7318   */\n      and\n        /* \"#utility.yul\":7332:7333   */\n      0x00\n        /* \"#utility.yul\":7327:7464   */\n      dup2\n      eq\n      tag_341\n      jumpi\n        /* \"#utility.yul\":7478:7479   */\n      0x01\n        /* \"#utility.yul\":7473:7814   */\n      dup2\n      eq\n      tag_342\n      jumpi\n        /* \"#utility.yul\":7294:7814   */\n      jump(tag_340)\n        /* \"#utility.yul\":7327:7464   */\n    tag_341:\n        /* \"#utility.yul\":7411:7415   */\n      0xff\n        /* \"#utility.yul\":7407:7416   */\n      not\n        /* \"#utility.yul\":7396:7405   */\n      dup4\n        /* \"#utility.yul\":7392:7417   */\n      and\n        /* \"#utility.yul\":7387:7390   */\n      dup7\n        /* \"#utility.yul\":7380:7418   */\n      mstore\n        /* \"#utility.yul\":7447:7453   */\n      dup2\n        /* \"#utility.yul\":7442:7445   */\n      dup7\n        /* \"#utility.yul\":7438:7454   */\n      add\n        /* \"#utility.yul\":7431:7454   */\n      swap4\n      pop\n        /* \"#utility.yul\":7327:7464   */\n      jump(tag_340)\n        /* \"#utility.yul\":7473:7814   */\n    tag_342:\n        /* \"#utility.yul\":7540:7578   */\n      tag_343\n        /* \"#utility.yul\":7572:7577   */\n      dup6\n        /* \"#utility.yul\":7540:7578   */\n      tag_344\n      jump\t// in\n    tag_343:\n        /* \"#utility.yul\":7600:7601   */\n      0x00\n        /* \"#utility.yul\":7614:7768   */\n    tag_345:\n        /* \"#utility.yul\":7628:7634   */\n      dup4\n        /* \"#utility.yul\":7625:7626   */\n      dup2\n        /* \"#utility.yul\":7622:7635   */\n      lt\n        /* \"#utility.yul\":7614:7768   */\n      iszero\n      tag_347\n      jumpi\n        /* \"#utility.yul\":7702:7709   */\n      dup2\n        /* \"#utility.yul\":7696:7710   */\n      sload\n        /* \"#utility.yul\":7692:7693   */\n      dup2\n        /* \"#utility.yul\":7687:7690   */\n      dup10\n        /* \"#utility.yul\":7683:7694   */\n      add\n        /* \"#utility.yul\":7676:7711   */\n      mstore\n        /* \"#utility.yul\":7752:7753   */\n      0x01\n        /* \"#utility.yul\":7743:7750   */\n      dup3\n        /* \"#utility.yul\":7739:7754   */\n      add\n        /* \"#utility.yul\":7728:7754   */\n      swap2\n      pop\n        /* \"#utility.yul\":7650:7654   */\n      0x20\n        /* \"#utility.yul\":7647:7648   */\n      dup2\n        /* \"#utility.yul\":7643:7655   */\n      add\n        /* \"#utility.yul\":7638:7655   */\n      swap1\n      pop\n        /* \"#utility.yul\":7614:7768   */\n      jump(tag_345)\n    tag_347:\n        /* \"#utility.yul\":7797:7803   */\n      dup4\n        /* \"#utility.yul\":7792:7795   */\n      dup9\n        /* \"#utility.yul\":7788:7804   */\n      add\n        /* \"#utility.yul\":7781:7804   */\n      swap6\n      pop\n        /* \"#utility.yul\":7480:7814   */\n      pop\n      pop\n        /* \"#utility.yul\":7294:7814   */\n    tag_340:\n      pop\n        /* \"#utility.yul\":7082:7820   */\n      pop\n      pop\n        /* \"#utility.yul\":6975:7820   */\n      swap3\n      swap2\n      pop\n      pop\n      jump\t// out\n        /* \"#utility.yul\":7884:8931   */\n    tag_283:\n        /* \"#utility.yul\":7993:7996   */\n      0x00\n        /* \"#utility.yul\":8029:8033   */\n      0x80\n        /* \"#utility.yul\":8024:8027   */\n      dup4\n        /* \"#utility.yul\":8020:8034   */\n      add\n        /* \"#utility.yul\":8125:8129   */\n      0x00\n        /* \"#utility.yul\":8118:8123   */\n      dup4\n        /* \"#utility.yul\":8114:8130   */\n      add\n        /* \"#utility.yul\":8108:8131   */\n      mload\n        /* \"#utility.yul\":8178:8181   */\n      dup5\n        /* \"#utility.yul\":8172:8176   */\n      dup3\n        /* \"#utility.yul\":8168:8182   */\n      sub\n        /* \"#utility.yul\":8161:8165   */\n      0x00\n        /* \"#utility.yul\":8156:8159   */\n      dup7\n        /* \"#utility.yul\":8152:8166   */\n      add\n        /* \"#utility.yul\":8145:8183   */\n      mstore\n        /* \"#utility.yul\":8204:8277   */\n      tag_349\n        /* \"#utility.yul\":8272:8276   */\n      dup3\n        /* \"#utility.yul\":8258:8270   */\n      dup3\n        /* \"#utility.yul\":8204:8277   */\n      tag_313\n      jump\t// in\n    tag_349:\n        /* \"#utility.yul\":8196:8277   */\n      swap2\n      pop\n        /* \"#utility.yul\":8044:8288   */\n      pop\n        /* \"#utility.yul\":8382:8386   */\n      0x20\n        /* \"#utility.yul\":8375:8380   */\n      dup4\n        /* \"#utility.yul\":8371:8387   */\n      add\n        /* \"#utility.yul\":8365:8388   */\n      mload\n        /* \"#utility.yul\":8401:8464   */\n      tag_350\n        /* \"#utility.yul\":8458:8462   */\n      0x20\n        /* \"#utility.yul\":8453:8456   */\n      dup7\n        /* \"#utility.yul\":8449:8463   */\n      add\n        /* \"#utility.yul\":8435:8447   */\n      dup3\n        /* \"#utility.yul\":8401:8464   */\n      tag_284\n      jump\t// in\n    tag_350:\n        /* \"#utility.yul\":8298:8474   */\n      pop\n        /* \"#utility.yul\":8565:8569   */\n      0x40\n        /* \"#utility.yul\":8558:8563   */\n      dup4\n        /* \"#utility.yul\":8554:8570   */\n      add\n        /* \"#utility.yul\":8548:8571   */\n      mload\n        /* \"#utility.yul\":8584:8647   */\n      tag_351\n        /* \"#utility.yul\":8641:8645   */\n      0x40\n        /* \"#utility.yul\":8636:8639   */\n      dup7\n        /* \"#utility.yul\":8632:8646   */\n      add\n        /* \"#utility.yul\":8618:8630   */\n      dup3\n        /* \"#utility.yul\":8584:8647   */\n      tag_352\n      jump\t// in\n    tag_351:\n        /* \"#utility.yul\":8484:8657   */\n      pop\n        /* \"#utility.yul\":8741:8745   */\n      0x60\n        /* \"#utility.yul\":8734:8739   */\n      dup4\n        /* \"#utility.yul\":8730:8746   */\n      add\n        /* \"#utility.yul\":8724:8747   */\n      mload\n        /* \"#utility.yul\":8794:8797   */\n      dup5\n        /* \"#utility.yul\":8788:8792   */\n      dup3\n        /* \"#utility.yul\":8784:8798   */\n      sub\n        /* \"#utility.yul\":8777:8781   */\n      0x60\n        /* \"#utility.yul\":8772:8775   */\n      dup7\n        /* \"#utility.yul\":8768:8782   */\n      add\n        /* \"#utility.yul\":8761:8799   */\n      mstore\n        /* \"#utility.yul\":8820:8893   */\n      tag_353\n        /* \"#utility.yul\":8888:8892   */\n      dup3\n        /* \"#utility.yul\":8874:8886   */\n      dup3\n        /* \"#utility.yul\":8820:8893   */\n      tag_313\n      jump\t// in\n    tag_353:\n        /* \"#utility.yul\":8812:8893   */\n      swap2\n      pop\n        /* \"#utility.yul\":8667:8904   */\n      pop\n        /* \"#utility.yul\":8921:8925   */\n      dup1\n        /* \"#utility.yul\":8914:8925   */\n      swap2\n      pop\n        /* \"#utility.yul\":7998:8931   */\n      pop\n        /* \"#utility.yul\":7884:8931   */\n      swap3\n      swap2\n      pop\n      pop\n      jump\t// out\n        /* \"#utility.yul\":8995:10052   */\n    tag_354:\n        /* \"#utility.yul\":9114:9117   */\n      0x00\n        /* \"#utility.yul\":9150:9154   */\n      0x80\n        /* \"#utility.yul\":9145:9148   */\n      dup4\n        /* \"#utility.yul\":9141:9155   */\n      add\n        /* \"#utility.yul\":9246:9250   */\n      0x00\n        /* \"#utility.yul\":9239:9244   */\n      dup4\n        /* \"#utility.yul\":9235:9251   */\n      add\n        /* \"#utility.yul\":9229:9252   */\n      mload\n        /* \"#utility.yul\":9299:9302   */\n      dup5\n        /* \"#utility.yul\":9293:9297   */\n      dup3\n        /* \"#utility.yul\":9289:9303   */\n      sub\n        /* \"#utility.yul\":9282:9286   */\n      0x00\n        /* \"#utility.yul\":9277:9280   */\n      dup7\n        /* \"#utility.yul\":9273:9287   */\n      add\n        /* \"#utility.yul\":9266:9304   */\n      mstore\n        /* \"#utility.yul\":9325:9398   */\n      tag_356\n        /* \"#utility.yul\":9393:9397   */\n      dup3\n        /* \"#utility.yul\":9379:9391   */\n      dup3\n        /* \"#utility.yul\":9325:9398   */\n      tag_313\n      jump\t// in\n    tag_356:\n        /* \"#utility.yul\":9317:9398   */\n      swap2\n      pop\n        /* \"#utility.yul\":9165:9409   */\n      pop\n        /* \"#utility.yul\":9503:9507   */\n      0x20\n        /* \"#utility.yul\":9496:9501   */\n      dup4\n        /* \"#utility.yul\":9492:9508   */\n      add\n        /* \"#utility.yul\":9486:9509   */\n      mload\n        /* \"#utility.yul\":9522:9585   */\n      tag_357\n        /* \"#utility.yul\":9579:9583   */\n      0x20\n        /* \"#utility.yul\":9574:9577   */\n      dup7\n        /* \"#utility.yul\":9570:9584   */\n      add\n        /* \"#utility.yul\":9556:9568   */\n      dup3\n        /* \"#utility.yul\":9522:9585   */\n      tag_284\n      jump\t// in\n    tag_357:\n        /* \"#utility.yul\":9419:9595   */\n      pop\n        /* \"#utility.yul\":9686:9690   */\n      0x40\n        /* \"#utility.yul\":9679:9684   */\n      dup4\n        /* \"#utility.yul\":9675:9691   */\n      add\n        /* \"#utility.yul\":9669:9692   */\n      mload\n        /* \"#utility.yul\":9705:9768   */\n      tag_358\n        /* \"#utility.yul\":9762:9766   */\n      0x40\n        /* \"#utility.yul\":9757:9760   */\n      dup7\n        /* \"#utility.yul\":9753:9767   */\n      add\n        /* \"#utility.yul\":9739:9751   */\n      dup3\n        /* \"#utility.yul\":9705:9768   */\n      tag_352\n      jump\t// in\n    tag_358:\n        /* \"#utility.yul\":9605:9778   */\n      pop\n        /* \"#utility.yul\":9862:9866   */\n      0x60\n        /* \"#utility.yul\":9855:9860   */\n      dup4\n        /* \"#utility.yul\":9851:9867   */\n      add\n        /* \"#utility.yul\":9845:9868   */\n      mload\n        /* \"#utility.yul\":9915:9918   */\n      dup5\n        /* \"#utility.yul\":9909:9913   */\n      dup3\n        /* \"#utility.yul\":9905:9919   */\n      sub\n        /* \"#utility.yul\":9898:9902   */\n      0x60\n        /* \"#utility.yul\":9893:9896   */\n      dup7\n        /* \"#utility.yul\":9889:9903   */\n      add\n        /* \"#utility.yul\":9882:9920   */\n      mstore\n        /* \"#utility.yul\":9941:10014   */\n      tag_359\n        /* \"#utility.yul\":10009:10013   */\n      dup3\n        /* \"#utility.yul\":9995:10007   */\n      dup3\n        /* \"#utility.yul\":9941:10014   */\n      tag_313\n      jump\t// in\n    tag_359:\n        /* \"#utility.yul\":9933:10014   */\n      swap2\n      pop\n        /* \"#utility.yul\":9788:10025   */\n      pop\n        /* \"#utility.yul\":10042:10046   */\n      dup1\n        /* \"#utility.yul\":10035:10046   */\n      swap2\n      pop\n        /* \"#utility.yul\":9119:10052   */\n      pop\n        /* \"#utility.yul\":8995:10052   */\n      swap3\n      swap2\n      pop\n      pop\n      jump\t// out\n        /* \"#utility.yul\":10058:10166   */\n    tag_352:\n        /* \"#utility.yul\":10135:10159   */\n      tag_361\n        /* \"#utility.yul\":10153:10158   */\n      dup2\n        /* \"#utility.yul\":10135:10159   */\n      tag_362\n      jump\t// in\n    tag_361:\n        /* \"#utility.yul\":10130:10133   */\n      dup3\n        /* \"#utility.yul\":10123:10160   */\n      mstore\n        /* \"#utility.yul\":10058:10166   */\n      pop\n      pop\n      jump\t// out\n        /* \"#utility.yul\":10172:10290   */\n    tag_363:\n        /* \"#utility.yul\":10259:10283   */\n      tag_365\n        /* \"#utility.yul\":10277:10282   */\n      dup2\n        /* \"#utility.yul\":10259:10283   */\n      tag_362\n      jump\t// in\n    tag_365:\n        /* \"#utility.yul\":10254:10257   */\n      dup3\n        /* \"#utility.yul\":10247:10284   */\n      mstore\n        /* \"#utility.yul\":10172:10290   */\n      pop\n      pop\n      jump\t// out\n        /* \"#utility.yul\":10296:10571   */\n    tag_158:\n        /* \"#utility.yul\":10428:10431   */\n      0x00\n        /* \"#utility.yul\":10450:10545   */\n      tag_367\n        /* \"#utility.yul\":10541:10544   */\n      dup3\n        /* \"#utility.yul\":10532:10538   */\n      dup5\n        /* \"#utility.yul\":10450:10545   */\n      tag_330\n      jump\t// in\n    tag_367:\n        /* \"#utility.yul\":10443:10545   */\n      swap2\n      pop\n        /* \"#utility.yul\":10562:10565   */\n      dup2\n        /* \"#utility.yul\":10555:10565   */\n      swap1\n      pop\n        /* \"#utility.yul\":10296:10571   */\n      swap3\n      swap2\n      pop\n      pop\n      jump\t// out\n        /* \"#utility.yul\":10577:10846   */\n    tag_107:\n        /* \"#utility.yul\":10706:10709   */\n      0x00\n        /* \"#utility.yul\":10728:10820   */\n      tag_369\n        /* \"#utility.yul\":10816:10819   */\n      dup3\n        /* \"#utility.yul\":10807:10813   */\n      dup5\n        /* \"#utility.yul\":10728:10820   */\n      tag_336\n      jump\t// in\n    tag_369:\n        /* \"#utility.yul\":10721:10820   */\n      swap2\n      pop\n        /* \"#utility.yul\":10837:10840   */\n      dup2\n        /* \"#utility.yul\":10830:10840   */\n      swap1\n      pop\n        /* \"#utility.yul\":10577:10846   */\n      swap3\n      swap2\n      pop\n      pop\n      jump\t// out\n        /* \"#utility.yul\":10852:11074   */\n    tag_28:\n        /* \"#utility.yul\":10945:10949   */\n      0x00\n        /* \"#utility.yul\":10983:10985   */\n      0x20\n        /* \"#utility.yul\":10972:10981   */\n      dup3\n        /* \"#utility.yul\":10968:10986   */\n      add\n        /* \"#utility.yul\":10960:10986   */\n      swap1\n      pop\n        /* \"#utility.yul\":10996:11067   */\n      tag_371\n        /* \"#utility.yul\":11064:11065   */\n      0x00\n        /* \"#utility.yul\":11053:11062   */\n      dup4\n        /* \"#utility.yul\":11049:11066   */\n      add\n        /* \"#utility.yul\":11040:11046   */\n      dup5\n        /* \"#utility.yul\":10996:11067   */\n      tag_288\n      jump\t// in\n    tag_371:\n        /* \"#utility.yul\":10852:11074   */\n      swap3\n      swap2\n      pop\n      pop\n      jump\t// out\n        /* \"#utility.yul\":11080:11503   */\n    tag_47:\n        /* \"#utility.yul\":11221:11225   */\n      0x00\n        /* \"#utility.yul\":11259:11261   */\n      0x40\n        /* \"#utility.yul\":11248:11257   */\n      dup3\n        /* \"#utility.yul\":11244:11262   */\n      add\n        /* \"#utility.yul\":11236:11262   */\n      swap1\n      pop\n        /* \"#utility.yul\":11272:11343   */\n      tag_373\n        /* \"#utility.yul\":11340:11341   */\n      0x00\n        /* \"#utility.yul\":11329:11338   */\n      dup4\n        /* \"#utility.yul\":11325:11342   */\n      add\n        /* \"#utility.yul\":11316:11322   */\n      dup6\n        /* \"#utility.yul\":11272:11343   */\n      tag_288\n      jump\t// in\n    tag_373:\n        /* \"#utility.yul\":11390:11399   */\n      dup2\n        /* \"#utility.yul\":11384:11388   */\n      dup2\n        /* \"#utility.yul\":11380:11400   */\n      sub\n        /* \"#utility.yul\":11375:11377   */\n      0x20\n        /* \"#utility.yul\":11364:11373   */\n      dup4\n        /* \"#utility.yul\":11360:11378   */\n      add\n        /* \"#utility.yul\":11353:11401   */\n      mstore\n        /* \"#utility.yul\":11418:11496   */\n      tag_374\n        /* \"#utility.yul\":11491:11495   */\n      dup2\n        /* \"#utility.yul\":11482:11488   */\n      dup5\n        /* \"#utility.yul\":11418:11496   */\n      tag_323\n      jump\t// in\n    tag_374:\n        /* \"#utility.yul\":11410:11496   */\n      swap1\n      pop\n        /* \"#utility.yul\":11080:11503   */\n      swap4\n      swap3\n      pop\n      pop\n      pop\n      jump\t// out\n        /* \"#utility.yul\":11509:11982   */\n    tag_32:\n        /* \"#utility.yul\":11702:11706   */\n      0x00\n        /* \"#utility.yul\":11740:11742   */\n      0x20\n        /* \"#utility.yul\":11729:11738   */\n      dup3\n        /* \"#utility.yul\":11725:11743   */\n      add\n        /* \"#utility.yul\":11717:11743   */\n      swap1\n      pop\n        /* \"#utility.yul\":11789:11798   */\n      dup2\n        /* \"#utility.yul\":11783:11787   */\n      dup2\n        /* \"#utility.yul\":11779:11799   */\n      sub\n        /* \"#utility.yul\":11775:11776   */\n      0x00\n        /* \"#utility.yul\":11764:11773   */\n      dup4\n        /* \"#utility.yul\":11760:11777   */\n      add\n        /* \"#utility.yul\":11753:11800   */\n      mstore\n        /* \"#utility.yul\":11817:11975   */\n      tag_376\n        /* \"#utility.yul\":11970:11974   */\n      dup2\n        /* \"#utility.yul\":11961:11967   */\n      dup5\n        /* \"#utility.yul\":11817:11975   */\n      tag_291\n      jump\t// in\n    tag_376:\n        /* \"#utility.yul\":11809:11975   */\n      swap1\n      pop\n        /* \"#utility.yul\":11509:11982   */\n      swap3\n      swap2\n      pop\n      pop\n      jump\t// out\n        /* \"#utility.yul\":11988:12608   */\n    tag_42:\n        /* \"#utility.yul\":12173:12177   */\n      0x00\n        /* \"#utility.yul\":12211:12214   */\n      0x80\n        /* \"#utility.yul\":12200:12209   */\n      dup3\n        /* \"#utility.yul\":12196:12215   */\n      add\n        /* \"#utility.yul\":12188:12215   */\n      swap1\n      pop\n        /* \"#utility.yul\":12225:12290   */\n      tag_378\n        /* \"#utility.yul\":12287:12288   */\n      0x00\n        /* \"#utility.yul\":12276:12285   */\n      dup4\n        /* \"#utility.yul\":12272:12289   */\n      add\n        /* \"#utility.yul\":12263:12269   */\n      dup8\n        /* \"#utility.yul\":12225:12290   */\n      tag_305\n      jump\t// in\n    tag_378:\n        /* \"#utility.yul\":12337:12346   */\n      dup2\n        /* \"#utility.yul\":12331:12335   */\n      dup2\n        /* \"#utility.yul\":12327:12347   */\n      sub\n        /* \"#utility.yul\":12322:12324   */\n      0x20\n        /* \"#utility.yul\":12311:12320   */\n      dup4\n        /* \"#utility.yul\":12307:12325   */\n      add\n        /* \"#utility.yul\":12300:12348   */\n      mstore\n        /* \"#utility.yul\":12365:12443   */\n      tag_379\n        /* \"#utility.yul\":12438:12442   */\n      dup2\n        /* \"#utility.yul\":12429:12435   */\n      dup7\n        /* \"#utility.yul\":12365:12443   */\n      tag_323\n      jump\t// in\n    tag_379:\n        /* \"#utility.yul\":12357:12443   */\n      swap1\n      pop\n        /* \"#utility.yul\":12453:12525   */\n      tag_380\n        /* \"#utility.yul\":12521:12523   */\n      0x40\n        /* \"#utility.yul\":12510:12519   */\n      dup4\n        /* \"#utility.yul\":12506:12524   */\n      add\n        /* \"#utility.yul\":12497:12503   */\n      dup6\n        /* \"#utility.yul\":12453:12525   */\n      tag_288\n      jump\t// in\n    tag_380:\n        /* \"#utility.yul\":12535:12601   */\n      tag_381\n        /* \"#utility.yul\":12597:12599   */\n      0x60\n        /* \"#utility.yul\":12586:12595   */\n      dup4\n        /* \"#utility.yul\":12582:12600   */\n      add\n        /* \"#utility.yul\":12573:12579   */\n      dup5\n        /* \"#utility.yul\":12535:12601   */\n      tag_305\n      jump\t// in\n    tag_381:\n        /* \"#utility.yul\":11988:12608   */\n      swap6\n      swap5\n      pop\n      pop\n      pop\n      pop\n      pop\n      jump\t// out\n        /* \"#utility.yul\":12614:12848   */\n    tag_82:\n        /* \"#utility.yul\":12713:12717   */\n      0x00\n        /* \"#utility.yul\":12751:12753   */\n      0x20\n        /* \"#utility.yul\":12740:12749   */\n      dup3\n        /* \"#utility.yul\":12736:12754   */\n      add\n        /* \"#utility.yul\":12728:12754   */\n      swap1\n      pop\n        /* \"#utility.yul\":12764:12841   */\n      tag_383\n        /* \"#utility.yul\":12838:12839   */\n      0x00\n        /* \"#utility.yul\":12827:12836   */\n      dup4\n        /* \"#utility.yul\":12823:12840   */\n      add\n        /* \"#utility.yul\":12814:12820   */\n      dup5\n        /* \"#utility.yul\":12764:12841   */\n      tag_309\n      jump\t// in\n    tag_383:\n        /* \"#utility.yul\":12614:12848   */\n      swap3\n      swap2\n      pop\n      pop\n      jump\t// out\n        /* \"#utility.yul\":12854:13167   */\n    tag_68:\n        /* \"#utility.yul\":12967:12971   */\n      0x00\n        /* \"#utility.yul\":13005:13007   */\n      0x20\n        /* \"#utility.yul\":12994:13003   */\n      dup3\n        /* \"#utility.yul\":12990:13008   */\n      add\n        /* \"#utility.yul\":12982:13008   */\n      swap1\n      pop\n        /* \"#utility.yul\":13054:13063   */\n      dup2\n        /* \"#utility.yul\":13048:13052   */\n      dup2\n        /* \"#utility.yul\":13044:13064   */\n      sub\n        /* \"#utility.yul\":13040:13041   */\n      0x00\n        /* \"#utility.yul\":13029:13038   */\n      dup4\n        /* \"#utility.yul\":13025:13042   */\n      add\n        /* \"#utility.yul\":13018:13065   */\n      mstore\n        /* \"#utility.yul\":13082:13160   */\n      tag_385\n        /* \"#utility.yul\":13155:13159   */\n      dup2\n        /* \"#utility.yul\":13146:13152   */\n      dup5\n        /* \"#utility.yul\":13082:13160   */\n      tag_323\n      jump\t// in\n    tag_385:\n        /* \"#utility.yul\":13074:13160   */\n      swap1\n      pop\n        /* \"#utility.yul\":12854:13167   */\n      swap3\n      swap2\n      pop\n      pop\n      jump\t// out\n        /* \"#utility.yul\":13173:13908   */\n    tag_56:\n        /* \"#utility.yul\":13390:13394   */\n      0x00\n        /* \"#utility.yul\":13428:13431   */\n      0x80\n        /* \"#utility.yul\":13417:13426   */\n      dup3\n        /* \"#utility.yul\":13413:13432   */\n      add\n        /* \"#utility.yul\":13405:13432   */\n      swap1\n      pop\n        /* \"#utility.yul\":13478:13487   */\n      dup2\n        /* \"#utility.yul\":13472:13476   */\n      dup2\n        /* \"#utility.yul\":13468:13488   */\n      sub\n        /* \"#utility.yul\":13464:13465   */\n      0x00\n        /* \"#utility.yul\":13453:13462   */\n      dup4\n        /* \"#utility.yul\":13449:13466   */\n      add\n        /* \"#utility.yul\":13442:13489   */\n      mstore\n        /* \"#utility.yul\":13506:13584   */\n      tag_387\n        /* \"#utility.yul\":13579:13583   */\n      dup2\n        /* \"#utility.yul\":13570:13576   */\n      dup8\n        /* \"#utility.yul\":13506:13584   */\n      tag_323\n      jump\t// in\n    tag_387:\n        /* \"#utility.yul\":13498:13584   */\n      swap1\n      pop\n        /* \"#utility.yul\":13594:13666   */\n      tag_388\n        /* \"#utility.yul\":13662:13664   */\n      0x20\n        /* \"#utility.yul\":13651:13660   */\n      dup4\n        /* \"#utility.yul\":13647:13665   */\n      add\n        /* \"#utility.yul\":13638:13644   */\n      dup7\n        /* \"#utility.yul\":13594:13666   */\n      tag_288\n      jump\t// in\n    tag_388:\n        /* \"#utility.yul\":13676:13748   */\n      tag_389\n        /* \"#utility.yul\":13744:13746   */\n      0x40\n        /* \"#utility.yul\":13733:13742   */\n      dup4\n        /* \"#utility.yul\":13729:13747   */\n      add\n        /* \"#utility.yul\":13720:13726   */\n      dup6\n        /* \"#utility.yul\":13676:13748   */\n      tag_363\n      jump\t// in\n    tag_389:\n        /* \"#utility.yul\":13795:13804   */\n      dup2\n        /* \"#utility.yul\":13789:13793   */\n      dup2\n        /* \"#utility.yul\":13785:13805   */\n      sub\n        /* \"#utility.yul\":13780:13782   */\n      0x60\n        /* \"#utility.yul\":13769:13778   */\n      dup4\n        /* \"#utility.yul\":13765:13783   */\n      add\n        /* \"#utility.yul\":13758:13806   */\n      mstore\n        /* \"#utility.yul\":13823:13901   */\n      tag_390\n        /* \"#utility.yul\":13896:13900   */\n      dup2\n        /* \"#utility.yul\":13887:13893   */\n      dup5\n        /* \"#utility.yul\":13823:13901   */\n      tag_323\n      jump\t// in\n    tag_390:\n        /* \"#utility.yul\":13815:13901   */\n      swap1\n      pop\n        /* \"#utility.yul\":13173:13908   */\n      swap6\n      swap5\n      pop\n      pop\n      pop\n      pop\n      pop\n      jump\t// out\n        /* \"#utility.yul\":13914:14287   */\n    tag_94:\n        /* \"#utility.yul\":14057:14061   */\n      0x00\n        /* \"#utility.yul\":14095:14097   */\n      0x20\n        /* \"#utility.yul\":14084:14093   */\n      dup3\n        /* \"#utility.yul\":14080:14098   */\n      add\n        /* \"#utility.yul\":14072:14098   */\n      swap1\n      pop\n        /* \"#utility.yul\":14144:14153   */\n      dup2\n        /* \"#utility.yul\":14138:14142   */\n      dup2\n        /* \"#utility.yul\":14134:14154   */\n      sub\n        /* \"#utility.yul\":14130:14131   */\n      0x00\n        /* \"#utility.yul\":14119:14128   */\n      dup4\n        /* \"#utility.yul\":14115:14132   */\n      add\n        /* \"#utility.yul\":14108:14155   */\n      mstore\n        /* \"#utility.yul\":14172:14280   */\n      tag_392\n        /* \"#utility.yul\":14275:14279   */\n      dup2\n        /* \"#utility.yul\":14266:14272   */\n      dup5\n        /* \"#utility.yul\":14172:14280   */\n      tag_354\n      jump\t// in\n    tag_392:\n        /* \"#utility.yul\":14164:14280   */\n      swap1\n      pop\n        /* \"#utility.yul\":13914:14287   */\n      swap3\n      swap2\n      pop\n      pop\n      jump\t// out\n        /* \"#utility.yul\":14293:14515   */\n    tag_36:\n        /* \"#utility.yul\":14386:14390   */\n      0x00\n        /* \"#utility.yul\":14424:14426   */\n      0x20\n        /* \"#utility.yul\":14413:14422   */\n      dup3\n        /* \"#utility.yul\":14409:14427   */\n      add\n        /* \"#utility.yul\":14401:14427   */\n      swap1\n      pop\n        /* \"#utility.yul\":14437:14508   */\n      tag_394\n        /* \"#utility.yul\":14505:14506   */\n      0x00\n        /* \"#utility.yul\":14494:14503   */\n      dup4\n        /* \"#utility.yul\":14490:14507   */\n      add\n        /* \"#utility.yul\":14481:14487   */\n      dup5\n        /* \"#utility.yul\":14437:14508   */\n      tag_363\n      jump\t// in\n    tag_394:\n        /* \"#utility.yul\":14293:14515   */\n      swap3\n      swap2\n      pop\n      pop\n      jump\t// out\n        /* \"#utility.yul\":14521:14650   */\n    tag_227:\n        /* \"#utility.yul\":14555:14561   */\n      0x00\n        /* \"#utility.yul\":14582:14602   */\n      tag_396\n      tag_397\n      jump\t// in\n    tag_396:\n        /* \"#utility.yul\":14572:14602   */\n      swap1\n      pop\n        /* \"#utility.yul\":14611:14644   */\n      tag_398\n        /* \"#utility.yul\":14639:14643   */\n      dup3\n        /* \"#utility.yul\":14631:14637   */\n      dup3\n        /* \"#utility.yul\":14611:14644   */\n      tag_399\n      jump\t// in\n    tag_398:\n        /* \"#utility.yul\":14521:14650   */\n      swap2\n      swap1\n      pop\n      jump\t// out\n        /* \"#utility.yul\":14656:14731   */\n    tag_397:\n        /* \"#utility.yul\":14689:14695   */\n      0x00\n        /* \"#utility.yul\":14722:14724   */\n      0x40\n        /* \"#utility.yul\":14716:14725   */\n      mload\n        /* \"#utility.yul\":14706:14725   */\n      swap1\n      pop\n        /* \"#utility.yul\":14656:14731   */\n      swap1\n      jump\t// out\n        /* \"#utility.yul\":14737:15045   */\n    tag_226:\n        /* \"#utility.yul\":14799:14803   */\n      0x00\n        /* \"#utility.yul\":14889:14907   */\n      0xffffffffffffffff\n        /* \"#utility.yul\":14881:14887   */\n      dup3\n        /* \"#utility.yul\":14878:14908   */\n      gt\n        /* \"#utility.yul\":14875:14931   */\n      iszero\n      tag_402\n      jumpi\n        /* \"#utility.yul\":14911:14929   */\n      tag_403\n      tag_98\n      jump\t// in\n    tag_403:\n        /* \"#utility.yul\":14875:14931   */\n    tag_402:\n        /* \"#utility.yul\":14949:14978   */\n      tag_404\n        /* \"#utility.yul\":14971:14977   */\n      dup3\n        /* \"#utility.yul\":14949:14978   */\n      tag_322\n      jump\t// in\n    tag_404:\n        /* \"#utility.yul\":14941:14978   */\n      swap1\n      pop\n        /* \"#utility.yul\":15033:15037   */\n      0x20\n        /* \"#utility.yul\":15027:15031   */\n      dup2\n        /* \"#utility.yul\":15023:15038   */\n      add\n        /* \"#utility.yul\":15015:15038   */\n      swap1\n      pop\n        /* \"#utility.yul\":14737:15045   */\n      swap2\n      swap1\n      pop\n      jump\t// out\n        /* \"#utility.yul\":15051:15208   */\n    tag_298:\n        /* \"#utility.yul\":15143:15147   */\n      0x00\n        /* \"#utility.yul\":15166:15169   */\n      dup2\n        /* \"#utility.yul\":15158:15169   */\n      swap1\n      pop\n        /* \"#utility.yul\":15196:15200   */\n      0x20\n        /* \"#utility.yul\":15191:15194   */\n      dup3\n        /* \"#utility.yul\":15187:15201   */\n      add\n        /* \"#utility.yul\":15179:15201   */\n      swap1\n      pop\n        /* \"#utility.yul\":15051:15208   */\n      swap2\n      swap1\n      pop\n      jump\t// out\n        /* \"#utility.yul\":15214:15355   */\n    tag_344:\n        /* \"#utility.yul\":15263:15267   */\n      0x00\n        /* \"#utility.yul\":15286:15289   */\n      dup2\n        /* \"#utility.yul\":15278:15289   */\n      swap1\n      pop\n        /* \"#utility.yul\":15309:15312   */\n      dup2\n        /* \"#utility.yul\":15306:15307   */\n      0x00\n        /* \"#utility.yul\":15299:15313   */\n      mstore\n        /* \"#utility.yul\":15343:15347   */\n      0x20\n        /* \"#utility.yul\":15340:15341   */\n      0x00\n        /* \"#utility.yul\":15330:15348   */\n      keccak256\n        /* \"#utility.yul\":15322:15348   */\n      swap1\n      pop\n        /* \"#utility.yul\":15214:15355   */\n      swap2\n      swap1\n      pop\n      jump\t// out\n        /* \"#utility.yul\":15361:15500   */\n    tag_294:\n        /* \"#utility.yul\":15453:15459   */\n      0x00\n        /* \"#utility.yul\":15487:15492   */\n      dup2\n        /* \"#utility.yul\":15481:15493   */\n      mload\n        /* \"#utility.yul\":15471:15493   */\n      swap1\n      pop\n        /* \"#utility.yul\":15361:15500   */\n      swap2\n      swap1\n      pop\n      jump\t// out\n        /* \"#utility.yul\":15506:15605   */\n    tag_316:\n        /* \"#utility.yul\":15558:15564   */\n      0x00\n        /* \"#utility.yul\":15592:15597   */\n      dup2\n        /* \"#utility.yul\":15586:15598   */\n      mload\n        /* \"#utility.yul\":15576:15598   */\n      swap1\n      pop\n        /* \"#utility.yul\":15506:15605   */\n      swap2\n      swap1\n      pop\n      jump\t// out\n        /* \"#utility.yul\":15611:15749   */\n    tag_304:\n        /* \"#utility.yul\":15706:15710   */\n      0x00\n        /* \"#utility.yul\":15738:15742   */\n      0x20\n        /* \"#utility.yul\":15733:15736   */\n      dup3\n        /* \"#utility.yul\":15729:15743   */\n      add\n        /* \"#utility.yul\":15721:15743   */\n      swap1\n      pop\n        /* \"#utility.yul\":15611:15749   */\n      swap2\n      swap1\n      pop\n      jump\t// out\n        /* \"#utility.yul\":15755:15964   */\n    tag_296:\n        /* \"#utility.yul\":15879:15890   */\n      0x00\n        /* \"#utility.yul\":15913:15919   */\n      dup3\n        /* \"#utility.yul\":15908:15911   */\n      dup3\n        /* \"#utility.yul\":15901:15920   */\n      mstore\n        /* \"#utility.yul\":15953:15957   */\n      0x20\n        /* \"#utility.yul\":15948:15951   */\n      dup3\n        /* \"#utility.yul\":15944:15958   */\n      add\n        /* \"#utility.yul\":15929:15958   */\n      swap1\n      pop\n        /* \"#utility.yul\":15755:15964   */\n      swap3\n      swap2\n      pop\n      pop\n      jump\t// out\n        /* \"#utility.yul\":15970:16129   */\n    tag_318:\n        /* \"#utility.yul\":16044:16055   */\n      0x00\n        /* \"#utility.yul\":16078:16084   */\n      dup3\n        /* \"#utility.yul\":16073:16076   */\n      dup3\n        /* \"#utility.yul\":16066:16085   */\n      mstore\n        /* \"#utility.yul\":16118:16122   */\n      0x20\n        /* \"#utility.yul\":16113:16116   */\n      dup3\n        /* \"#utility.yul\":16109:16123   */\n      add\n        /* \"#utility.yul\":16094:16123   */\n      swap1\n      pop\n        /* \"#utility.yul\":15970:16129   */\n      swap3\n      swap2\n      pop\n      pop\n      jump\t// out\n        /* \"#utility.yul\":16135:16304   */\n    tag_327:\n        /* \"#utility.yul\":16219:16230   */\n      0x00\n        /* \"#utility.yul\":16253:16259   */\n      dup3\n        /* \"#utility.yul\":16248:16251   */\n      dup3\n        /* \"#utility.yul\":16241:16260   */\n      mstore\n        /* \"#utility.yul\":16293:16297   */\n      0x20\n        /* \"#utility.yul\":16288:16291   */\n      dup3\n        /* \"#utility.yul\":16284:16298   */\n      add\n        /* \"#utility.yul\":16269:16298   */\n      swap1\n      pop\n        /* \"#utility.yul\":16135:16304   */\n      swap3\n      swap2\n      pop\n      pop\n      jump\t// out\n        /* \"#utility.yul\":16310:16458   */\n    tag_334:\n        /* \"#utility.yul\":16412:16423   */\n      0x00\n        /* \"#utility.yul\":16449:16452   */\n      dup2\n        /* \"#utility.yul\":16434:16452   */\n      swap1\n      pop\n        /* \"#utility.yul\":16310:16458   */\n      swap3\n      swap2\n      pop\n      pop\n      jump\t// out\n        /* \"#utility.yul\":16464:16769   */\n    tag_162:\n        /* \"#utility.yul\":16504:16507   */\n      0x00\n        /* \"#utility.yul\":16523:16543   */\n      tag_415\n        /* \"#utility.yul\":16541:16542   */\n      dup3\n        /* \"#utility.yul\":16523:16543   */\n      tag_362\n      jump\t// in\n    tag_415:\n        /* \"#utility.yul\":16518:16543   */\n      swap2\n      pop\n        /* \"#utility.yul\":16557:16577   */\n      tag_416\n        /* \"#utility.yul\":16575:16576   */\n      dup4\n        /* \"#utility.yul\":16557:16577   */\n      tag_362\n      jump\t// in\n    tag_416:\n        /* \"#utility.yul\":16552:16577   */\n      swap3\n      pop\n        /* \"#utility.yul\":16711:16712   */\n      dup3\n        /* \"#utility.yul\":16643:16709   */\n      0xffffffffffffffffffffffffffffffffffffffffffffffffffffffffffffffff\n        /* \"#utility.yul\":16639:16713   */\n      sub\n        /* \"#utility.yul\":16636:16637   */\n      dup3\n        /* \"#utility.yul\":16633:16714   */\n      gt\n        /* \"#utility.yul\":16630:16737   */\n      iszero\n      tag_417\n      jumpi\n        /* \"#utility.yul\":16717:16735   */\n      tag_418\n      tag_419\n      jump\t// in\n    tag_418:\n        /* \"#utility.yul\":16630:16737   */\n    tag_417:\n        /* \"#utility.yul\":16761:16762   */\n      dup3\n        /* \"#utility.yul\":16758:16759   */\n      dup3\n        /* \"#utility.yul\":16754:16763   */\n      add\n        /* \"#utility.yul\":16747:16763   */\n      swap1\n      pop\n        /* \"#utility.yul\":16464:16769   */\n      swap3\n      swap2\n      pop\n      pop\n      jump\t// out\n        /* \"#utility.yul\":16775:16871   */\n    tag_287:\n        /* \"#utility.yul\":16812:16819   */\n      0x00\n        /* \"#utility.yul\":16841:16865   */\n      tag_421\n        /* \"#utility.yul\":16859:16864   */\n      dup3\n        /* \"#utility.yul\":16841:16865   */\n      tag_422\n      jump\t// in\n    tag_421:\n        /* \"#utility.yul\":16830:16865   */\n      swap1\n      pop\n        /* \"#utility.yul\":16775:16871   */\n      swap2\n      swap1\n      pop\n      jump\t// out\n        /* \"#utility.yul\":16877:16967   */\n    tag_308:\n        /* \"#utility.yul\":16911:16918   */\n      0x00\n        /* \"#utility.yul\":16954:16959   */\n      dup2\n        /* \"#utility.yul\":16947:16960   */\n      iszero\n        /* \"#utility.yul\":16940:16961   */\n      iszero\n        /* \"#utility.yul\":16929:16961   */\n      swap1\n      pop\n        /* \"#utility.yul\":16877:16967   */\n      swap2\n      swap1\n      pop\n      jump\t// out\n        /* \"#utility.yul\":16973:17100   */\n    tag_424:\n        /* \"#utility.yul\":17018:17025   */\n      0x00\n        /* \"#utility.yul\":17047:17052   */\n      dup2\n        /* \"#utility.yul\":17036:17052   */\n      swap1\n      pop\n        /* \"#utility.yul\":17053:17094   */\n      tag_426\n        /* \"#utility.yul\":17088:17093   */\n      dup3\n        /* \"#utility.yul\":17053:17094   */\n      tag_427\n      jump\t// in\n    tag_426:\n        /* \"#utility.yul\":16973:17100   */\n      swap2\n      swap1\n      pop\n      jump\t// out\n        /* \"#utility.yul\":17106:17232   */\n    tag_422:\n        /* \"#utility.yul\":17143:17150   */\n      0x00\n        /* \"#utility.yul\":17183:17225   */\n      0xffffffffffffffffffffffffffffffffffffffff\n        /* \"#utility.yul\":17176:17181   */\n      dup3\n        /* \"#utility.yul\":17172:17226   */\n      and\n        /* \"#utility.yul\":17161:17226   */\n      swap1\n      pop\n        /* \"#utility.yul\":17106:17232   */\n      swap2\n      swap1\n      pop\n      jump\t// out\n        /* \"#utility.yul\":17238:17315   */\n    tag_362:\n        /* \"#utility.yul\":17275:17282   */\n      0x00\n        /* \"#utility.yul\":17304:17309   */\n      dup2\n        /* \"#utility.yul\":17293:17309   */\n      swap1\n      pop\n        /* \"#utility.yul\":17238:17315   */\n      swap2\n      swap1\n      pop\n      jump\t// out\n        /* \"#utility.yul\":17321:17448   */\n    tag_312:\n        /* \"#utility.yul\":17377:17386   */\n      0x00\n        /* \"#utility.yul\":17410:17442   */\n      tag_431\n        /* \"#utility.yul\":17436:17441   */\n      dup3\n        /* \"#utility.yul\":17410:17442   */\n      tag_424\n      jump\t// in\n    tag_431:\n        /* \"#utility.yul\":17397:17442   */\n      swap1\n      pop\n        /* \"#utility.yul\":17321:17448   */\n      swap2\n      swap1\n      pop\n      jump\t// out\n        /* \"#utility.yul\":17454:17608   */\n    tag_232:\n        /* \"#utility.yul\":17538:17544   */\n      dup3\n        /* \"#utility.yul\":17533:17536   */\n      dup2\n        /* \"#utility.yul\":17528:17531   */\n      dup4\n        /* \"#utility.yul\":17515:17545   */\n      calldatacopy\n        /* \"#utility.yul\":17600:17601   */\n      0x00\n        /* \"#utility.yul\":17591:17597   */\n      dup4\n        /* \"#utility.yul\":17586:17589   */\n      dup4\n        /* \"#utility.yul\":17582:17598   */\n      add\n        /* \"#utility.yul\":17575:17602   */\n      mstore\n        /* \"#utility.yul\":17454:17608   */\n      pop\n      pop\n      pop\n      jump\t// out\n        /* \"#utility.yul\":17614:17921   */\n    tag_320:\n        /* \"#utility.yul\":17682:17683   */\n      0x00\n        /* \"#utility.yul\":17692:17805   */\n    tag_434:\n        /* \"#utility.yul\":17706:17712   */\n      dup4\n        /* \"#utility.yul\":17703:17704   */\n      dup2\n        /* \"#utility.yul\":17700:17713   */\n      lt\n        /* \"#utility.yul\":17692:17805   */\n      iszero\n      tag_436\n      jumpi\n        /* \"#utility.yul\":17791:17792   */\n      dup1\n        /* \"#utility.yul\":17786:17789   */\n      dup3\n        /* \"#utility.yul\":17782:17793   */\n      add\n        /* \"#utility.yul\":17776:17794   */\n      mload\n        /* \"#utility.yul\":17772:17773   */\n      dup2\n        /* \"#utility.yul\":17767:17770   */\n      dup5\n        /* \"#utility.yul\":17763:17774   */\n      add\n        /* \"#utility.yul\":17756:17795   */\n      mstore\n        /* \"#utility.yul\":17728:17730   */\n      0x20\n        /* \"#utility.yul\":17725:17726   */\n      dup2\n        /* \"#utility.yul\":17721:17731   */\n      add\n        /* \"#utility.yul\":17716:17731   */\n      swap1\n      pop\n        /* \"#utility.yul\":17692:17805   */\n      jump(tag_434)\n    tag_436:\n        /* \"#utility.yul\":17823:17829   */\n      dup4\n        /* \"#utility.yul\":17820:17821   */\n      dup2\n        /* \"#utility.yul\":17817:17830   */\n      gt\n        /* \"#utility.yul\":17814:17915   */\n      iszero\n      tag_437\n      jumpi\n        /* \"#utility.yul\":17903:17904   */\n      0x00\n        /* \"#utility.yul\":17894:17900   */\n      dup5\n        /* \"#utility.yul\":17889:17892   */\n      dup5\n        /* \"#utility.yul\":17885:17901   */\n      add\n        /* \"#utility.yul\":17878:17905   */\n      mstore\n        /* \"#utility.yul\":17814:17915   */\n    tag_437:\n        /* \"#utility.yul\":17663:17921   */\n      pop\n        /* \"#utility.yul\":17614:17921   */\n      pop\n      pop\n      pop\n      jump\t// out\n        /* \"#utility.yul\":17927:18247   */\n    tag_109:\n        /* \"#utility.yul\":17971:17977   */\n      0x00\n        /* \"#utility.yul\":18008:18009   */\n      0x02\n        /* \"#utility.yul\":18002:18006   */\n      dup3\n        /* \"#utility.yul\":17998:18010   */\n      div\n        /* \"#utility.yul\":17988:18010   */\n      swap1\n      pop\n        /* \"#utility.yul\":18055:18056   */\n      0x01\n        /* \"#utility.yul\":18049:18053   */\n      dup3\n        /* \"#utility.yul\":18045:18057   */\n      and\n        /* \"#utility.yul\":18076:18094   */\n      dup1\n        /* \"#utility.yul\":18066:18147   */\n      tag_439\n      jumpi\n        /* \"#utility.yul\":18132:18136   */\n      0x7f\n        /* \"#utility.yul\":18124:18130   */\n      dup3\n        /* \"#utility.yul\":18120:18137   */\n      and\n        /* \"#utility.yul\":18110:18137   */\n      swap2\n      pop\n        /* \"#utility.yul\":18066:18147   */\n    tag_439:\n        /* \"#utility.yul\":18194:18196   */\n      0x20\n        /* \"#utility.yul\":18186:18192   */\n      dup3\n        /* \"#utility.yul\":18183:18197   */\n      lt\n        /* \"#utility.yul\":18163:18181   */\n      dup2\n        /* \"#utility.yul\":18160:18198   */\n      eq\n        /* \"#utility.yul\":18157:18241   */\n      iszero\n      tag_440\n      jumpi\n        /* \"#utility.yul\":18213:18231   */\n      tag_441\n      tag_442\n      jump\t// in\n    tag_441:\n        /* \"#utility.yul\":18157:18241   */\n    tag_440:\n        /* \"#utility.yul\":17978:18247   */\n      pop\n        /* \"#utility.yul\":17927:18247   */\n      swap2\n      swap1\n      pop\n      jump\t// out\n        /* \"#utility.yul\":18253:18534   */\n    tag_399:\n        /* \"#utility.yul\":18336:18363   */\n      tag_444\n        /* \"#utility.yul\":18358:18362   */\n      dup3\n        /* \"#utility.yul\":18336:18363   */\n      tag_322\n      jump\t// in\n    tag_444:\n        /* \"#utility.yul\":18328:18334   */\n      dup2\n        /* \"#utility.yul\":18324:18364   */\n      add\n        /* \"#utility.yul\":18466:18472   */\n      dup2\n        /* \"#utility.yul\":18454:18464   */\n      dup2\n        /* \"#utility.yul\":18451:18473   */\n      lt\n        /* \"#utility.yul\":18430:18448   */\n      0xffffffffffffffff\n        /* \"#utility.yul\":18418:18428   */\n      dup3\n        /* \"#utility.yul\":18415:18449   */\n      gt\n        /* \"#utility.yul\":18412:18474   */\n      or\n        /* \"#utility.yul\":18409:18497   */\n      iszero\n      tag_445\n      jumpi\n        /* \"#utility.yul\":18477:18495   */\n      tag_446\n      tag_98\n      jump\t// in\n    tag_446:\n        /* \"#utility.yul\":18409:18497   */\n    tag_445:\n        /* \"#utility.yul\":18517:18527   */\n      dup1\n        /* \"#utility.yul\":18513:18515   */\n      0x40\n        /* \"#utility.yul\":18506:18528   */\n      mstore\n        /* \"#utility.yul\":18296:18534   */\n      pop\n        /* \"#utility.yul\":18253:18534   */\n      pop\n      pop\n      jump\t// out\n        /* \"#utility.yul\":18540:18773   */\n    tag_123:\n        /* \"#utility.yul\":18579:18582   */\n      0x00\n        /* \"#utility.yul\":18602:18626   */\n      tag_448\n        /* \"#utility.yul\":18620:18625   */\n      dup3\n        /* \"#utility.yul\":18602:18626   */\n      tag_362\n      jump\t// in\n    tag_448:\n        /* \"#utility.yul\":18593:18626   */\n      swap2\n      pop\n        /* \"#utility.yul\":18648:18714   */\n      0xffffffffffffffffffffffffffffffffffffffffffffffffffffffffffffffff\n        /* \"#utility.yul\":18641:18646   */\n      dup3\n        /* \"#utility.yul\":18638:18715   */\n      eq\n        /* \"#utility.yul\":18635:18738   */\n      iszero\n      tag_449\n      jumpi\n        /* \"#utility.yul\":18718:18736   */\n      tag_450\n      tag_419\n      jump\t// in\n    tag_450:\n        /* \"#utility.yul\":18635:18738   */\n    tag_449:\n        /* \"#utility.yul\":18765:18766   */\n      0x01\n        /* \"#utility.yul\":18758:18763   */\n      dup3\n        /* \"#utility.yul\":18754:18767   */\n      add\n        /* \"#utility.yul\":18747:18767   */\n      swap1\n      pop\n        /* \"#utility.yul\":18540:18773   */\n      swap2\n      swap1\n      pop\n      jump\t// out\n        /* \"#utility.yul\":18779:18959   */\n    tag_419:\n        /* \"#utility.yul\":18827:18904   */\n      0x4e487b7100000000000000000000000000000000000000000000000000000000\n        /* \"#utility.yul\":18824:18825   */\n      0x00\n        /* \"#utility.yul\":18817:18905   */\n      mstore\n        /* \"#utility.yul\":18924:18928   */\n      0x11\n        /* \"#utility.yul\":18921:18922   */\n      0x04\n        /* \"#utility.yul\":18914:18929   */\n      mstore\n        /* \"#utility.yul\":18948:18952   */\n      0x24\n        /* \"#utility.yul\":18945:18946   */\n      0x00\n        /* \"#utility.yul\":18938:18953   */\n      revert\n        /* \"#utility.yul\":18965:19145   */\n    tag_147:\n        /* \"#utility.yul\":19013:19090   */\n      0x4e487b7100000000000000000000000000000000000000000000000000000000\n        /* \"#utility.yul\":19010:19011   */\n      0x00\n        /* \"#utility.yul\":19003:19091   */\n      mstore\n        /* \"#utility.yul\":19110:19114   */\n      0x21\n        /* \"#utility.yul\":19107:19108   */\n      0x04\n        /* \"#utility.yul\":19100:19115   */\n      mstore\n        /* \"#utility.yul\":19134:19138   */\n      0x24\n        /* \"#utility.yul\":19131:19132   */\n      0x00\n        /* \"#utility.yul\":19124:19139   */\n      revert\n        /* \"#utility.yul\":19151:19331   */\n    tag_442:\n        /* \"#utility.yul\":19199:19276   */\n      0x4e487b7100000000000000000000000000000000000000000000000000000000\n        /* \"#utility.yul\":19196:19197   */\n      0x00\n        /* \"#utility.yul\":19189:19277   */\n      mstore\n        /* \"#utility.yul\":19296:19300   */\n      0x22\n        /* \"#utility.yul\":19293:19294   */\n      0x04\n        /* \"#utility.yul\":19286:19301   */\n      mstore\n        /* \"#utility.yul\":19320:19324   */\n      0x24\n        /* \"#utility.yul\":19317:19318   */\n      0x00\n        /* \"#utility.yul\":19310:19325   */\n      revert\n        /* \"#utility.yul\":19337:19517   */\n    tag_121:\n        /* \"#utility.yul\":19385:19462   */\n      0x4e487b7100000000000000000000000000000000000000000000000000000000\n        /* \"#utility.yul\":19382:19383   */\n      0x00\n        /* \"#utility.yul\":19375:19463   */\n      mstore\n        /* \"#utility.yul\":19482:19486   */\n      0x32\n        /* \"#utility.yul\":19479:19480   */\n      0x04\n        /* \"#utility.yul\":19472:19487   */\n      mstore\n        /* \"#utility.yul\":19506:19510   */\n      0x24\n        /* \"#utility.yul\":19503:19504   */\n      0x00\n        /* \"#utility.yul\":19496:19511   */\n      revert\n        /* \"#utility.yul\":19523:19703   */\n    tag_98:\n        /* \"#utility.yul\":19571:19648   */\n      0x4e487b7100000000000000000000000000000000000000000000000000000000\n        /* \"#utility.yul\":19568:19569   */\n      0x00\n        /* \"#utility.yul\":19561:19649   */\n      mstore\n        /* \"#utility.yul\":19668:19672   */\n      0x41\n        /* \"#utility.yul\":19665:19666   */\n      0x04\n        /* \"#utility.yul\":19658:19673   */\n      mstore\n        /* \"#utility.yul\":19692:19696   */\n      0x24\n        /* \"#utility.yul\":19689:19690   */\n      0x00\n        /* \"#utility.yul\":19682:19697   */\n      revert\n        /* \"#utility.yul\":19709:19826   */\n    tag_241:\n        /* \"#utility.yul\":19818:19819   */\n      0x00\n        /* \"#utility.yul\":19815:19816   */\n      dup1\n        /* \"#utility.yul\":19808:19820   */\n      revert\n        /* \"#utility.yul\":19832:19949   */\n    tag_230:\n        /* \"#utility.yul\":19941:19942   */\n      0x00\n        /* \"#utility.yul\":19938:19939   */\n      dup1\n        /* \"#utility.yul\":19931:19943   */\n      revert\n        /* \"#utility.yul\":19955:20072   */\n    tag_258:\n        /* \"#utility.yul\":20064:20065   */\n      0x00\n        /* \"#utility.yul\":20061:20062   */\n      dup1\n        /* \"#utility.yul\":20054:20066   */\n      revert\n        /* \"#utility.yul\":20078:20195   */\n    tag_250:\n        /* \"#utility.yul\":20187:20188   */\n      0x00\n        /* \"#utility.yul\":20184:20185   */\n      dup1\n        /* \"#utility.yul\":20177:20189   */\n      revert\n        /* \"#utility.yul\":20201:20303   */\n    tag_322:\n        /* \"#utility.yul\":20242:20248   */\n      0x00\n        /* \"#utility.yul\":20293:20295   */\n      0x1f\n        /* \"#utility.yul\":20289:20296   */\n      not\n        /* \"#utility.yul\":20284:20286   */\n      0x1f\n        /* \"#utility.yul\":20277:20282   */\n      dup4\n        /* \"#utility.yul\":20273:20287   */\n      add\n        /* \"#utility.yul\":20269:20297   */\n      and\n        /* \"#utility.yul\":20259:20297   */\n      swap1\n      pop\n        /* \"#utility.yul\":20201:20303   */\n      swap2\n      swap1\n      pop\n      jump\t// out\n        /* \"#utility.yul\":20309:20422   */\n    tag_427:\n        /* \"#utility.yul\":20390:20391   */\n      0x03\n        /* \"#utility.yul\":20383:20388   */\n      dup2\n        /* \"#utility.yul\":20380:20392   */\n      lt\n        /* \"#utility.yul\":20370:20416   */\n      tag_462\n      jumpi\n        /* \"#utility.yul\":20396:20414   */\n      tag_463\n      tag_147\n      jump\t// in\n    tag_463:\n        /* \"#utility.yul\":20370:20416   */\n    tag_462:\n        /* \"#utility.yul\":20309:20422   */\n      pop\n      jump\t// out\n        /* \"#utility.yul\":20428:20550   */\n    tag_236:\n        /* \"#utility.yul\":20501:20525   */\n      tag_465\n        /* \"#utility.yul\":20519:20524   */\n      dup2\n        /* \"#utility.yul\":20501:20525   */\n      tag_287\n      jump\t// in\n    tag_465:\n        /* \"#utility.yul\":20494:20499   */\n      dup2\n        /* \"#utility.yul\":20491:20526   */\n      eq\n        /* \"#utility.yul\":20481:20544   */\n      tag_466\n      jumpi\n        /* \"#utility.yul\":20540:20541   */\n      0x00\n        /* \"#utility.yul\":20537:20538   */\n      dup1\n        /* \"#utility.yul\":20530:20542   */\n      revert\n        /* \"#utility.yul\":20481:20544   */\n    tag_466:\n        /* \"#utility.yul\":20428:20550   */\n      pop\n      jump\t// out\n        /* \"#utility.yul\":20556:20678   */\n    tag_246:\n        /* \"#utility.yul\":20629:20653   */\n      tag_468\n        /* \"#utility.yul\":20647:20652   */\n      dup2\n        /* \"#utility.yul\":20629:20653   */\n      tag_362\n      jump\t// in\n    tag_468:\n        /* \"#utility.yul\":20622:20627   */\n      dup2\n        /* \"#utility.yul\":20619:20654   */\n      eq\n        /* \"#utility.yul\":20609:20672   */\n      tag_469\n      jumpi\n        /* \"#utility.yul\":20668:20669   */\n      0x00\n        /* \"#utility.yul\":20665:20666   */\n      dup1\n        /* \"#utility.yul\":20658:20670   */\n      revert\n        /* \"#utility.yul\":20609:20672   */\n    tag_469:\n        /* \"#utility.yul\":20556:20678   */\n      pop\n      jump\t// out\n\n    auxdata: 0xa264697066735822122081a9d9cdc439a24e57b8bc2e828001646f76560eacb69f5afd0495a9cd7e810e64736f6c63430008070033\n}\n",
				"bytecode": {
					"linkReferences": {},
					"object": "60806040523480156200001157600080fd5b50604051620023bb380380620023bb8339818101604052810190620000379190620001f4565b33600a60016101000a81548173ffffffffffffffffffffffffffffffffffffffff021916908373ffffffffffffffffffffffffffffffffffffffff16021790555080600b908051906020019062000090929190620000c6565b506000600a60006101000a81548160ff02191690836002811115620000ba57620000b962000346565b5b021790555050620003f8565b828054620000d490620002da565b90600052602060002090601f016020900481019282620000f8576000855562000144565b82601f106200011357805160ff191683800117855562000144565b8280016001018555821562000144579182015b828111156200014357825182559160200191906001019062000126565b5b50905062000153919062000157565b5090565b5b808211156200017257600081600090555060010162000158565b5090565b60006200018d62000187846200026e565b62000245565b905082815260208101848484011115620001ac57620001ab620003d8565b5b620001b9848285620002a4565b509392505050565b600082601f830112620001d957620001d8620003d3565b5b8151620001eb84826020860162000176565b91505092915050565b6000602082840312156200020d576200020c620003e2565b5b600082015167ffffffffffffffff8111156200022e576200022d620003dd565b5b6200023c84828501620001c1565b91505092915050565b60006200025162000264565b90506200025f828262000310565b919050565b6000604051905090565b600067ffffffffffffffff8211156200028c576200028b620003a4565b5b6200029782620003e7565b9050602081019050919050565b60005b83811015620002c4578082015181840152602081019050620002a7565b83811115620002d4576000848401525b50505050565b60006002820490506001821680620002f357607f821691505b602082108114156200030a576200030962000375565b5b50919050565b6200031b82620003e7565b810181811067ffffffffffffffff821117156200033d576200033c620003a4565b5b80604052505050565b7f4e487b7100000000000000000000000000000000000000000000000000000000600052602160045260246000fd5b7f4e487b7100000000000000000000000000000000000000000000000000000000600052602260045260246000fd5b7f4e487b7100000000000000000000000000000000000000000000000000000000600052604160045260246000fd5b600080fd5b600080fd5b600080fd5b600080fd5b6000601f19601f8301169050919050565b611fb380620004086000396000f3fe608060405234801561001057600080fd5b506004361061010b5760003560e01c806362c49251116100a2578063abf715fa11610071578063abf715fa146102d7578063c19d93fb14610307578063d9e95a9814610325578063ef00242314610341578063f276669d1461035d5761010b565b806362c492511461024f57806372753be51461026b57806380843e251461029b5780638949e009146102b95761010b565b806327d9f76c116100de57806327d9f76c146101af5780632d35a8a2146101e057806346702b16146101fe5780635f5300ff146102315761010b565b806303a0d5351461011057806306a49fce146101405780630d15fd771461015e57806312c063421461017c575b600080fd5b61012a600480360381019061012591906116e4565b61038d565b6040516101379190611a18565b60405180910390f35b6101486103c0565b6040516101559190611a63565b60405180910390f35b610166610627565b6040516101739190611b83565b60405180910390f35b61019660048036038101906101919190611587565b61062d565b6040516101a69493929190611a85565b60405180910390f35b6101c960048036038101906101c49190611587565b61071f565b6040516101d7929190611a33565b60405180910390f35b6101e86107eb565b6040516101f59190611b83565b60405180910390f35b6102186004803603810190610213919061169b565b6107f1565b6040516102289493929190611b0e565b60405180910390f35b610239610967565b6040516102469190611b83565b60405180910390f35b61026960048036038101906102649190611610565b61096d565b005b610285600480360381019061028091906116e4565b610b4d565b6040516102929190611aec565b60405180910390f35b6102a3610bed565b6040516102b09190611aec565b60405180910390f35b6102c1610c7b565b6040516102ce9190611a18565b60405180910390f35b6102f160048036038101906102ec919061169b565b610ca1565b6040516102fe9190611b83565b60405180910390f35b61030f610ccf565b60405161031c9190611ad1565b60405180910390f35b61033f600480360381019061033a91906115b4565b610ce2565b005b61035b6004803603810190610356919061169b565b610f3d565b005b6103776004803603810190610372919061169b565b6111de565b6040516103849190611b61565b60405180910390f35b60036020528060005260406000206000915054906101000a900473ffffffffffffffffffffffffffffffffffffffff1681565b6060600060075467ffffffffffffffff8111156103e0576103df611ee7565b5b60405190808252806020026020018201604052801561041957816020015b61040661139a565b8152602001906001900390816103fe5790505b50905060005b60075481101561061f57600060056004600084815260200190815260200160002060405161044d9190611a01565b908152602001604051809103902090508060405180608001604052908160008201805461047990611d7f565b80601f01602080910402602001604051908101604052809291908181526020018280546104a590611d7f565b80156104f25780601f106104c7576101008083540402835291602001916104f2565b820191906000526020600020905b8154815290600101906020018083116104d557829003601f168201915b505050505081526020016001820160009054906101000a900473ffffffffffffffffffffffffffffffffffffffff1673ffffffffffffffffffffffffffffffffffffffff1673ffffffffffffffffffffffffffffffffffffffff1681526020016002820154815260200160038201805461056b90611d7f565b80601f016020809104026020016040519081016040528092919081815260200182805461059790611d7f565b80156105e45780601f106105b9576101008083540402835291602001916105e4565b820191906000526020600020905b8154815290600101906020018083116105c757829003601f168201915b505050505081525050838381518110610600576105ff611eb8565b5b602002602001018190525050808061061790611de2565b91505061041f565b508091505090565b60095481565b60006020528060005260406000206000915090508060000160009054906101000a900460ff169080600101805461066390611d7f565b80601f016020809104026020016040519081016040528092919081815260200182805461068f90611d7f565b80156106dc5780601f106106b1576101008083540402835291602001916106dc565b820191906000526020600020905b8154815290600101906020018083116106bf57829003601f168201915b5050505050908060020160009054906101000a900473ffffffffffffffffffffffffffffffffffffffff16908060020160149054906101000a900460ff16905084565b60016020528060005260406000206000915090508060000160009054906101000a900473ffffffffffffffffffffffffffffffffffffffff169080600101805461076890611d7f565b80601f016020809104026020016040519081016040528092919081815260200182805461079490611d7f565b80156107e15780601f106107b6576101008083540402835291602001916107e1565b820191906000526020600020905b8154815290600101906020018083116107c457829003601f168201915b5050505050905082565b60075481565b60058180516020810182018051848252602083016020850120818352809550505050505060009150905080600001805461082a90611d7f565b80601f016020809104026020016040519081016040528092919081815260200182805461085690611d7f565b80156108a35780601f10610878576101008083540402835291602001916108a3565b820191906000526020600020905b81548152906001019060200180831161088657829003601f168201915b5050505050908060010160009054906101000a900473ffffffffffffffffffffffffffffffffffffffff16908060020154908060030180546108e490611d7f565b80601f016020809104026020016040519081016040528092919081815260200182805461091090611d7f565b801561095d5780601f106109325761010080835404028352916020019161095d565b820191906000526020600020905b81548152906001019060200180831161094057829003601f168201915b5050505050905084565b60085481565b600080600281111561098257610981611e5a565b5b600a60009054906101000a900460ff1660028111156109a4576109a3611e5a565b5b146109ae57600080fd5b3373ffffffffffffffffffffffffffffffffffffffff16600a60019054906101000a900473ffffffffffffffffffffffffffffffffffffffff1673ffffffffffffffffffffffffffffffffffffffff1614610a0857600080fd5b610a1061139a565b84816020019073ffffffffffffffffffffffffffffffffffffffff16908173ffffffffffffffffffffffffffffffffffffffff1681525050838160000181905250828160600181905250826004600060075481526020019081526020016000209080519060200190610a839291906113d8565b5080600584604051610a9591906119ea565b90815260200160405180910390206000820151816000019080519060200190610abf9291906113d8565b5060208201518160010160006101000a81548173ffffffffffffffffffffffffffffffffffffffff021916908373ffffffffffffffffffffffffffffffffffffffff160217905550604082015181600201556060820151816003019080519060200190610b2d9291906113d8565b509050506001600754610b409190611c7a565b6007819055505050505050565b60046020528060005260406000206000915090508054610b6c90611d7f565b80601f0160208091040260200160405190810160405280929190818152602001828054610b9890611d7f565b8015610be55780601f10610bba57610100808354040283529160200191610be5565b820191906000526020600020905b815481529060010190602001808311610bc857829003601f168201915b505050505081565b600b8054610bfa90611d7f565b80601f0160208091040260200160405190810160405280929190818152602001828054610c2690611d7f565b8015610c735780601f10610c4857610100808354040283529160200191610c73565b820191906000526020600020905b815481529060010190602001808311610c5657829003601f168201915b505050505081565b600a60019054906101000a900473ffffffffffffffffffffffffffffffffffffffff1681565b6006818051602081018201805184825260208301602085012081835280955050505050506000915090505481565b600a60009054906101000a900460ff1681565b6000806002811115610cf757610cf6611e5a565b5b600a60009054906101000a900460ff166002811115610d1957610d18611e5a565b5b14610d2357600080fd5b3373ffffffffffffffffffffffffffffffffffffffff16600a60019054906101000a900473ffffffffffffffffffffffffffffffffffffffff1673ffffffffffffffffffffffffffffffffffffffff1614610d7d57600080fd5b610d8561145e565b600181600001901515908115158152505083816040019073ffffffffffffffffffffffffffffffffffffffff16908173ffffffffffffffffffffffffffffffffffffffff16815250508281602001819052506000816060019015159081151581525050806000808673ffffffffffffffffffffffffffffffffffffffff1673ffffffffffffffffffffffffffffffffffffffff16815260200190815260200160002060008201518160000160006101000a81548160ff0219169083151502179055506020820151816001019080519060200190610e639291906113d8565b5060408201518160020160006101000a81548173ffffffffffffffffffffffffffffffffffffffff021916908373ffffffffffffffffffffffffffffffffffffffff16021790555060608201518160020160146101000a81548160ff0219169083151502179055509050508360036000600854815260200190815260200160002060006101000a81548173ffffffffffffffffffffffffffffffffffffffff021916908373ffffffffffffffffffffffffffffffffffffffff1602179055506001600854610f319190611c7a565b60088190555050505050565b6000803373ffffffffffffffffffffffffffffffffffffffff1673ffffffffffffffffffffffffffffffffffffffff16815260200190815260200160002060000160009054906101000a900460ff168015610fea5750600015156000803373ffffffffffffffffffffffffffffffffffffffff1673ffffffffffffffffffffffffffffffffffffffff16815260200190815260200160002060020160149054906101000a900460ff161515145b156111db57610ff76114a0565b33816000019073ffffffffffffffffffffffffffffffffffffffff16908173ffffffffffffffffffffffffffffffffffffffff168152505081816020018190525080600160003373ffffffffffffffffffffffffffffffffffffffff1673ffffffffffffffffffffffffffffffffffffffff16815260200190815260200160002060008201518160000160006101000a81548173ffffffffffffffffffffffffffffffffffffffff021916908373ffffffffffffffffffffffffffffffffffffffff16021790555060208201518160010190805190602001906110db9291906113d8565b5090505060016005836040516110f191906119ea565b90815260200160405180910390206002015461110d9190611c7a565b60058360405161111d91906119ea565b908152602001604051809103902060020181905550600160068360405161114491906119ea565b90815260200160405180910390205461115d9190611c7a565b60068360405161116d91906119ea565b90815260200160405180910390208190555060016000803373ffffffffffffffffffffffffffffffffffffffff1673ffffffffffffffffffffffffffffffffffffffff16815260200190815260200160002060020160146101000a81548160ff021916908315150217905550505b50565b6111e661139a565b6005826040516111f691906119ea565b908152602001604051809103902060405180608001604052908160008201805461121f90611d7f565b80601f016020809104026020016040519081016040528092919081815260200182805461124b90611d7f565b80156112985780601f1061126d57610100808354040283529160200191611298565b820191906000526020600020905b81548152906001019060200180831161127b57829003601f168201915b505050505081526020016001820160009054906101000a900473ffffffffffffffffffffffffffffffffffffffff1673ffffffffffffffffffffffffffffffffffffffff1673ffffffffffffffffffffffffffffffffffffffff1681526020016002820154815260200160038201805461131190611d7f565b80601f016020809104026020016040519081016040528092919081815260200182805461133d90611d7f565b801561138a5780601f1061135f5761010080835404028352916020019161138a565b820191906000526020600020905b81548152906001019060200180831161136d57829003601f168201915b5050505050815250509050919050565b604051806080016040528060608152602001600073ffffffffffffffffffffffffffffffffffffffff16815260200160008152602001606081525090565b8280546113e490611d7f565b90600052602060002090601f016020900481019282611406576000855561144d565b82601f1061141f57805160ff191683800117855561144d565b8280016001018555821561144d579182015b8281111561144c578251825591602001919060010190611431565b5b50905061145a91906114d0565b5090565b604051806080016040528060001515815260200160608152602001600073ffffffffffffffffffffffffffffffffffffffff1681526020016000151581525090565b6040518060400160405280600073ffffffffffffffffffffffffffffffffffffffff168152602001606081525090565b5b808211156114e95760008160009055506001016114d1565b5090565b60006115006114fb84611bc3565b611b9e565b90508281526020810184848401111561151c5761151b611f1b565b5b611527848285611d3d565b509392505050565b60008135905061153e81611f4f565b92915050565b600082601f83011261155957611558611f16565b5b81356115698482602086016114ed565b91505092915050565b60008135905061158181611f66565b92915050565b60006020828403121561159d5761159c611f25565b5b60006115ab8482850161152f565b91505092915050565b600080604083850312156115cb576115ca611f25565b5b60006115d98582860161152f565b925050602083013567ffffffffffffffff8111156115fa576115f9611f20565b5b61160685828601611544565b9150509250929050565b60008060006060848603121561162957611628611f25565b5b60006116378682870161152f565b935050602084013567ffffffffffffffff81111561165857611657611f20565b5b61166486828701611544565b925050604084013567ffffffffffffffff81111561168557611684611f20565b5b61169186828701611544565b9150509250925092565b6000602082840312156116b1576116b0611f25565b5b600082013567ffffffffffffffff8111156116cf576116ce611f20565b5b6116db84828501611544565b91505092915050565b6000602082840312156116fa576116f9611f25565b5b600061170884828501611572565b91505092915050565b600061171d83836118f8565b905092915050565b61172e81611cd0565b82525050565b61173d81611cd0565b82525050565b600061174e82611c19565b6117588185611c3c565b93508360208202850161176a85611bf4565b8060005b858110156117a657848403895281516117878582611711565b945061179283611c2f565b925060208a0199505060018101905061176e565b50829750879550505050505092915050565b6117c181611ce2565b82525050565b6117d081611d2b565b82525050565b60006117e182611c24565b6117eb8185611c4d565b93506117fb818560208601611d4c565b61180481611f2a565b840191505092915050565b600061181a82611c24565b6118248185611c5e565b9350611834818560208601611d4c565b61183d81611f2a565b840191505092915050565b600061185382611c24565b61185d8185611c6f565b935061186d818560208601611d4c565b80840191505092915050565b6000815461188681611d7f565b6118908186611c6f565b945060018216600081146118ab57600181146118bc576118ef565b60ff198316865281860193506118ef565b6118c585611c04565b60005b838110156118e7578154818901526001820191506020810190506118c8565b838801955050505b50505092915050565b6000608083016000830151848203600086015261191582826117d6565b915050602083015161192a6020860182611725565b50604083015161193d60408601826119cc565b506060830151848203606086015261195582826117d6565b9150508091505092915050565b6000608083016000830151848203600086015261197f82826117d6565b91505060208301516119946020860182611725565b5060408301516119a760408601826119cc565b50606083015184820360608601526119bf82826117d6565b9150508091505092915050565b6119d581611d21565b82525050565b6119e481611d21565b82525050565b60006119f68284611848565b915081905092915050565b6000611a0d8284611879565b915081905092915050565b6000602082019050611a2d6000830184611734565b92915050565b6000604082019050611a486000830185611734565b8181036020830152611a5a818461180f565b90509392505050565b60006020820190508181036000830152611a7d8184611743565b905092915050565b6000608082019050611a9a60008301876117b8565b8181036020830152611aac818661180f565b9050611abb6040830185611734565b611ac860608301846117b8565b95945050505050565b6000602082019050611ae660008301846117c7565b92915050565b60006020820190508181036000830152611b06818461180f565b905092915050565b60006080820190508181036000830152611b28818761180f565b9050611b376020830186611734565b611b4460408301856119db565b8181036060830152611b56818461180f565b905095945050505050565b60006020820190508181036000830152611b7b8184611962565b905092915050565b6000602082019050611b9860008301846119db565b92915050565b6000611ba8611bb9565b9050611bb48282611db1565b919050565b6000604051905090565b600067ffffffffffffffff821115611bde57611bdd611ee7565b5b611be782611f2a565b9050602081019050919050565b6000819050602082019050919050565b60008190508160005260206000209050919050565b600081519050919050565b600081519050919050565b6000602082019050919050565b600082825260208201905092915050565b600082825260208201905092915050565b600082825260208201905092915050565b600081905092915050565b6000611c8582611d21565b9150611c9083611d21565b9250827fffffffffffffffffffffffffffffffffffffffffffffffffffffffffffffffff03821115611cc557611cc4611e2b565b5b828201905092915050565b6000611cdb82611d01565b9050919050565b60008115159050919050565b6000819050611cfc82611f3b565b919050565b600073ffffffffffffffffffffffffffffffffffffffff82169050919050565b6000819050919050565b6000611d3682611cee565b9050919050565b82818337600083830152505050565b60005b83811015611d6a578082015181840152602081019050611d4f565b83811115611d79576000848401525b50505050565b60006002820490506001821680611d9757607f821691505b60208210811415611dab57611daa611e89565b5b50919050565b611dba82611f2a565b810181811067ffffffffffffffff82111715611dd957611dd8611ee7565b5b80604052505050565b6000611ded82611d21565b91507fffffffffffffffffffffffffffffffffffffffffffffffffffffffffffffffff821415611e2057611e1f611e2b565b5b600182019050919050565b7f4e487b7100000000000000000000000000000000000000000000000000000000600052601160045260246000fd5b7f4e487b7100000000000000000000000000000000000000000000000000000000600052602160045260246000fd5b7f4e487b7100000000000000000000000000000000000000000000000000000000600052602260045260246000fd5b7f4e487b7100000000000000000000000000000000000000000000000000000000600052603260045260246000fd5b7f4e487b7100000000000000000000000000000000000000000000000000000000600052604160045260246000fd5b600080fd5b600080fd5b600080fd5b600080fd5b6000601f19601f8301169050919050565b60038110611f4c57611f4b611e5a565b5b50565b611f5881611cd0565b8114611f6357600080fd5b50565b611f6f81611d21565b8114611f7a57600080fd5b5056fea264697066735822122081a9d9cdc439a24e57b8bc2e828001646f76560eacb69f5afd0495a9cd7e810e64736f6c63430008070033",
					"opcodes": "PUSH1 0x80 PUSH1 0x40 MSTORE CALLVALUE DUP1 ISZERO PUSH3 0x11 JUMPI PUSH1 0x0 DUP1 REVERT JUMPDEST POP PUSH1 0x40 MLOAD PUSH3 0x23BB CODESIZE SUB DUP1 PUSH3 0x23BB DUP4 CODECOPY DUP2 DUP2 ADD PUSH1 0x40 MSTORE DUP2 ADD SWAP1 PUSH3 0x37 SWAP2 SWAP1 PUSH3 0x1F4 JUMP JUMPDEST CALLER PUSH1 0xA PUSH1 0x1 PUSH2 0x100 EXP DUP2 SLOAD DUP2 PUSH20 0xFFFFFFFFFFFFFFFFFFFFFFFFFFFFFFFFFFFFFFFF MUL NOT AND SWAP1 DUP4 PUSH20 0xFFFFFFFFFFFFFFFFFFFFFFFFFFFFFFFFFFFFFFFF AND MUL OR SWAP1 SSTORE POP DUP1 PUSH1 0xB SWAP1 DUP1 MLOAD SWAP1 PUSH1 0x20 ADD SWAP1 PUSH3 0x90 SWAP3 SWAP2 SWAP1 PUSH3 0xC6 JUMP JUMPDEST POP PUSH1 0x0 PUSH1 0xA PUSH1 0x0 PUSH2 0x100 EXP DUP2 SLOAD DUP2 PUSH1 0xFF MUL NOT AND SWAP1 DUP4 PUSH1 0x2 DUP2 GT ISZERO PUSH3 0xBA JUMPI PUSH3 0xB9 PUSH3 0x346 JUMP JUMPDEST JUMPDEST MUL OR SWAP1 SSTORE POP POP PUSH3 0x3F8 JUMP JUMPDEST DUP3 DUP1 SLOAD PUSH3 0xD4 SWAP1 PUSH3 0x2DA JUMP JUMPDEST SWAP1 PUSH1 0x0 MSTORE PUSH1 0x20 PUSH1 0x0 KECCAK256 SWAP1 PUSH1 0x1F ADD PUSH1 0x20 SWAP1 DIV DUP2 ADD SWAP3 DUP3 PUSH3 0xF8 JUMPI PUSH1 0x0 DUP6 SSTORE PUSH3 0x144 JUMP JUMPDEST DUP3 PUSH1 0x1F LT PUSH3 0x113 JUMPI DUP1 MLOAD PUSH1 0xFF NOT AND DUP4 DUP1 ADD OR DUP6 SSTORE PUSH3 0x144 JUMP JUMPDEST DUP3 DUP1 ADD PUSH1 0x1 ADD DUP6 SSTORE DUP3 ISZERO PUSH3 0x144 JUMPI SWAP2 DUP3 ADD JUMPDEST DUP3 DUP2 GT ISZERO PUSH3 0x143 JUMPI DUP3 MLOAD DUP3 SSTORE SWAP2 PUSH1 0x20 ADD SWAP2 SWAP1 PUSH1 0x1 ADD SWAP1 PUSH3 0x126 JUMP JUMPDEST JUMPDEST POP SWAP1 POP PUSH3 0x153 SWAP2 SWAP1 PUSH3 0x157 JUMP JUMPDEST POP SWAP1 JUMP JUMPDEST JUMPDEST DUP1 DUP3 GT ISZERO PUSH3 0x172 JUMPI PUSH1 0x0 DUP2 PUSH1 0x0 SWAP1 SSTORE POP PUSH1 0x1 ADD PUSH3 0x158 JUMP JUMPDEST POP SWAP1 JUMP JUMPDEST PUSH1 0x0 PUSH3 0x18D PUSH3 0x187 DUP5 PUSH3 0x26E JUMP JUMPDEST PUSH3 0x245 JUMP JUMPDEST SWAP1 POP DUP3 DUP2 MSTORE PUSH1 0x20 DUP2 ADD DUP5 DUP5 DUP5 ADD GT ISZERO PUSH3 0x1AC JUMPI PUSH3 0x1AB PUSH3 0x3D8 JUMP JUMPDEST JUMPDEST PUSH3 0x1B9 DUP5 DUP3 DUP6 PUSH3 0x2A4 JUMP JUMPDEST POP SWAP4 SWAP3 POP POP POP JUMP JUMPDEST PUSH1 0x0 DUP3 PUSH1 0x1F DUP4 ADD SLT PUSH3 0x1D9 JUMPI PUSH3 0x1D8 PUSH3 0x3D3 JUMP JUMPDEST JUMPDEST DUP2 MLOAD PUSH3 0x1EB DUP5 DUP3 PUSH1 0x20 DUP7 ADD PUSH3 0x176 JUMP JUMPDEST SWAP2 POP POP SWAP3 SWAP2 POP POP JUMP JUMPDEST PUSH1 0x0 PUSH1 0x20 DUP3 DUP5 SUB SLT ISZERO PUSH3 0x20D JUMPI PUSH3 0x20C PUSH3 0x3E2 JUMP JUMPDEST JUMPDEST PUSH1 0x0 DUP3 ADD MLOAD PUSH8 0xFFFFFFFFFFFFFFFF DUP2 GT ISZERO PUSH3 0x22E JUMPI PUSH3 0x22D PUSH3 0x3DD JUMP JUMPDEST JUMPDEST PUSH3 0x23C DUP5 DUP3 DUP6 ADD PUSH3 0x1C1 JUMP JUMPDEST SWAP2 POP POP SWAP3 SWAP2 POP POP JUMP JUMPDEST PUSH1 0x0 PUSH3 0x251 PUSH3 0x264 JUMP JUMPDEST SWAP1 POP PUSH3 0x25F DUP3 DUP3 PUSH3 0x310 JUMP JUMPDEST SWAP2 SWAP1 POP JUMP JUMPDEST PUSH1 0x0 PUSH1 0x40 MLOAD SWAP1 POP SWAP1 JUMP JUMPDEST PUSH1 0x0 PUSH8 0xFFFFFFFFFFFFFFFF DUP3 GT ISZERO PUSH3 0x28C JUMPI PUSH3 0x28B PUSH3 0x3A4 JUMP JUMPDEST JUMPDEST PUSH3 0x297 DUP3 PUSH3 0x3E7 JUMP JUMPDEST SWAP1 POP PUSH1 0x20 DUP2 ADD SWAP1 POP SWAP2 SWAP1 POP JUMP JUMPDEST PUSH1 0x0 JUMPDEST DUP4 DUP2 LT ISZERO PUSH3 0x2C4 JUMPI DUP1 DUP3 ADD MLOAD DUP2 DUP5 ADD MSTORE PUSH1 0x20 DUP2 ADD SWAP1 POP PUSH3 0x2A7 JUMP JUMPDEST DUP4 DUP2 GT ISZERO PUSH3 0x2D4 JUMPI PUSH1 0x0 DUP5 DUP5 ADD MSTORE JUMPDEST POP POP POP POP JUMP JUMPDEST PUSH1 0x0 PUSH1 0x2 DUP3 DIV SWAP1 POP PUSH1 0x1 DUP3 AND DUP1 PUSH3 0x2F3 JUMPI PUSH1 0x7F DUP3 AND SWAP2 POP JUMPDEST PUSH1 0x20 DUP3 LT DUP2 EQ ISZERO PUSH3 0x30A JUMPI PUSH3 0x309 PUSH3 0x375 JUMP JUMPDEST JUMPDEST POP SWAP2 SWAP1 POP JUMP JUMPDEST PUSH3 0x31B DUP3 PUSH3 0x3E7 JUMP JUMPDEST DUP2 ADD DUP2 DUP2 LT PUSH8 0xFFFFFFFFFFFFFFFF DUP3 GT OR ISZERO PUSH3 0x33D JUMPI PUSH3 0x33C PUSH3 0x3A4 JUMP JUMPDEST JUMPDEST DUP1 PUSH1 0x40 MSTORE POP POP POP JUMP JUMPDEST PUSH32 0x4E487B7100000000000000000000000000000000000000000000000000000000 PUSH1 0x0 MSTORE PUSH1 0x21 PUSH1 0x4 MSTORE PUSH1 0x24 PUSH1 0x0 REVERT JUMPDEST PUSH32 0x4E487B7100000000000000000000000000000000000000000000000000000000 PUSH1 0x0 MSTORE PUSH1 0x22 PUSH1 0x4 MSTORE PUSH1 0x24 PUSH1 0x0 REVERT JUMPDEST PUSH32 0x4E487B7100000000000000000000000000000000000000000000000000000000 PUSH1 0x0 MSTORE PUSH1 0x41 PUSH1 0x4 MSTORE PUSH1 0x24 PUSH1 0x0 REVERT JUMPDEST PUSH1 0x0 DUP1 REVERT JUMPDEST PUSH1 0x0 DUP1 REVERT JUMPDEST PUSH1 0x0 DUP1 REVERT JUMPDEST PUSH1 0x0 DUP1 REVERT JUMPDEST PUSH1 0x0 PUSH1 0x1F NOT PUSH1 0x1F DUP4 ADD AND SWAP1 POP SWAP2 SWAP1 POP JUMP JUMPDEST PUSH2 0x1FB3 DUP1 PUSH3 0x408 PUSH1 0x0 CODECOPY PUSH1 0x0 RETURN INVALID PUSH1 0x80 PUSH1 0x40 MSTORE CALLVALUE DUP1 ISZERO PUSH2 0x10 JUMPI PUSH1 0x0 DUP1 REVERT JUMPDEST POP PUSH1 0x4 CALLDATASIZE LT PUSH2 0x10B JUMPI PUSH1 0x0 CALLDATALOAD PUSH1 0xE0 SHR DUP1 PUSH4 0x62C49251 GT PUSH2 0xA2 JUMPI DUP1 PUSH4 0xABF715FA GT PUSH2 0x71 JUMPI DUP1 PUSH4 0xABF715FA EQ PUSH2 0x2D7 JUMPI DUP1 PUSH4 0xC19D93FB EQ PUSH2 0x307 JUMPI DUP1 PUSH4 0xD9E95A98 EQ PUSH2 0x325 JUMPI DUP1 PUSH4 0xEF002423 EQ PUSH2 0x341 JUMPI DUP1 PUSH4 0xF276669D EQ PUSH2 0x35D JUMPI PUSH2 0x10B JUMP JUMPDEST DUP1 PUSH4 0x62C49251 EQ PUSH2 0x24F JUMPI DUP1 PUSH4 0x72753BE5 EQ PUSH2 0x26B JUMPI DUP1 PUSH4 0x80843E25 EQ PUSH2 0x29B JUMPI DUP1 PUSH4 0x8949E009 EQ PUSH2 0x2B9 JUMPI PUSH2 0x10B JUMP JUMPDEST DUP1 PUSH4 0x27D9F76C GT PUSH2 0xDE JUMPI DUP1 PUSH4 0x27D9F76C EQ PUSH2 0x1AF JUMPI DUP1 PUSH4 0x2D35A8A2 EQ PUSH2 0x1E0 JUMPI DUP1 PUSH4 0x46702B16 EQ PUSH2 0x1FE JUMPI DUP1 PUSH4 0x5F5300FF EQ PUSH2 0x231 JUMPI PUSH2 0x10B JUMP JUMPDEST DUP1 PUSH4 0x3A0D535 EQ PUSH2 0x110 JUMPI DUP1 PUSH4 0x6A49FCE EQ PUSH2 0x140 JUMPI DUP1 PUSH4 0xD15FD77 EQ PUSH2 0x15E JUMPI DUP1 PUSH4 0x12C06342 EQ PUSH2 0x17C JUMPI JUMPDEST PUSH1 0x0 DUP1 REVERT JUMPDEST PUSH2 0x12A PUSH1 0x4 DUP1 CALLDATASIZE SUB DUP2 ADD SWAP1 PUSH2 0x125 SWAP2 SWAP1 PUSH2 0x16E4 JUMP JUMPDEST PUSH2 0x38D JUMP JUMPDEST PUSH1 0x40 MLOAD PUSH2 0x137 SWAP2 SWAP1 PUSH2 0x1A18 JUMP JUMPDEST PUSH1 0x40 MLOAD DUP1 SWAP2 SUB SWAP1 RETURN JUMPDEST PUSH2 0x148 PUSH2 0x3C0 JUMP JUMPDEST PUSH1 0x40 MLOAD PUSH2 0x155 SWAP2 SWAP1 PUSH2 0x1A63 JUMP JUMPDEST PUSH1 0x40 MLOAD DUP1 SWAP2 SUB SWAP1 RETURN JUMPDEST PUSH2 0x166 PUSH2 0x627 JUMP JUMPDEST PUSH1 0x40 MLOAD PUSH2 0x173 SWAP2 SWAP1 PUSH2 0x1B83 JUMP JUMPDEST PUSH1 0x40 MLOAD DUP1 SWAP2 SUB SWAP1 RETURN JUMPDEST PUSH2 0x196 PUSH1 0x4 DUP1 CALLDATASIZE SUB DUP2 ADD SWAP1 PUSH2 0x191 SWAP2 SWAP1 PUSH2 0x1587 JUMP JUMPDEST PUSH2 0x62D JUMP JUMPDEST PUSH1 0x40 MLOAD PUSH2 0x1A6 SWAP5 SWAP4 SWAP3 SWAP2 SWAP1 PUSH2 0x1A85 JUMP JUMPDEST PUSH1 0x40 MLOAD DUP1 SWAP2 SUB SWAP1 RETURN JUMPDEST PUSH2 0x1C9 PUSH1 0x4 DUP1 CALLDATASIZE SUB DUP2 ADD SWAP1 PUSH2 0x1C4 SWAP2 SWAP1 PUSH2 0x1587 JUMP JUMPDEST PUSH2 0x71F JUMP JUMPDEST PUSH1 0x40 MLOAD PUSH2 0x1D7 SWAP3 SWAP2 SWAP1 PUSH2 0x1A33 JUMP JUMPDEST PUSH1 0x40 MLOAD DUP1 SWAP2 SUB SWAP1 RETURN JUMPDEST PUSH2 0x1E8 PUSH2 0x7EB JUMP JUMPDEST PUSH1 0x40 MLOAD PUSH2 0x1F5 SWAP2 SWAP1 PUSH2 0x1B83 JUMP JUMPDEST PUSH1 0x40 MLOAD DUP1 SWAP2 SUB SWAP1 RETURN JUMPDEST PUSH2 0x218 PUSH1 0x4 DUP1 CALLDATASIZE SUB DUP2 ADD SWAP1 PUSH2 0x213 SWAP2 SWAP1 PUSH2 0x169B JUMP JUMPDEST PUSH2 0x7F1 JUMP JUMPDEST PUSH1 0x40 MLOAD PUSH2 0x228 SWAP5 SWAP4 SWAP3 SWAP2 SWAP1 PUSH2 0x1B0E JUMP JUMPDEST PUSH1 0x40 MLOAD DUP1 SWAP2 SUB SWAP1 RETURN JUMPDEST PUSH2 0x239 PUSH2 0x967 JUMP JUMPDEST PUSH1 0x40 MLOAD PUSH2 0x246 SWAP2 SWAP1 PUSH2 0x1B83 JUMP JUMPDEST PUSH1 0x40 MLOAD DUP1 SWAP2 SUB SWAP1 RETURN JUMPDEST PUSH2 0x269 PUSH1 0x4 DUP1 CALLDATASIZE SUB DUP2 ADD SWAP1 PUSH2 0x264 SWAP2 SWAP1 PUSH2 0x1610 JUMP JUMPDEST PUSH2 0x96D JUMP JUMPDEST STOP JUMPDEST PUSH2 0x285 PUSH1 0x4 DUP1 CALLDATASIZE SUB DUP2 ADD SWAP1 PUSH2 0x280 SWAP2 SWAP1 PUSH2 0x16E4 JUMP JUMPDEST PUSH2 0xB4D JUMP JUMPDEST PUSH1 0x40 MLOAD PUSH2 0x292 SWAP2 SWAP1 PUSH2 0x1AEC JUMP JUMPDEST PUSH1 0x40 MLOAD DUP1 SWAP2 SUB SWAP1 RETURN JUMPDEST PUSH2 0x2A3 PUSH2 0xBED JUMP JUMPDEST PUSH1 0x40 MLOAD PUSH2 0x2B0 SWAP2 SWAP1 PUSH2 0x1AEC JUMP JUMPDEST PUSH1 0x40 MLOAD DUP1 SWAP2 SUB SWAP1 RETURN JUMPDEST PUSH2 0x2C1 PUSH2 0xC7B JUMP JUMPDEST PUSH1 0x40 MLOAD PUSH2 0x2CE SWAP2 SWAP1 PUSH2 0x1A18 JUMP JUMPDEST PUSH1 0x40 MLOAD DUP1 SWAP2 SUB SWAP1 RETURN JUMPDEST PUSH2 0x2F1 PUSH1 0x4 DUP1 CALLDATASIZE SUB DUP2 ADD SWAP1 PUSH2 0x2EC SWAP2 SWAP1 PUSH2 0x169B JUMP JUMPDEST PUSH2 0xCA1 JUMP JUMPDEST PUSH1 0x40 MLOAD PUSH2 0x2FE SWAP2 SWAP1 PUSH2 0x1B83 JUMP JUMPDEST PUSH1 0x40 MLOAD DUP1 SWAP2 SUB SWAP1 RETURN JUMPDEST PUSH2 0x30F PUSH2 0xCCF JUMP JUMPDEST PUSH1 0x40 MLOAD PUSH2 0x31C SWAP2 SWAP1 PUSH2 0x1AD1 JUMP JUMPDEST PUSH1 0x40 MLOAD DUP1 SWAP2 SUB SWAP1 RETURN JUMPDEST PUSH2 0x33F PUSH1 0x4 DUP1 CALLDATASIZE SUB DUP2 ADD SWAP1 PUSH2 0x33A SWAP2 SWAP1 PUSH2 0x15B4 JUMP JUMPDEST PUSH2 0xCE2 JUMP JUMPDEST STOP JUMPDEST PUSH2 0x35B PUSH1 0x4 DUP1 CALLDATASIZE SUB DUP2 ADD SWAP1 PUSH2 0x356 SWAP2 SWAP1 PUSH2 0x169B JUMP JUMPDEST PUSH2 0xF3D JUMP JUMPDEST STOP JUMPDEST PUSH2 0x377 PUSH1 0x4 DUP1 CALLDATASIZE SUB DUP2 ADD SWAP1 PUSH2 0x372 SWAP2 SWAP1 PUSH2 0x169B JUMP JUMPDEST PUSH2 0x11DE JUMP JUMPDEST PUSH1 0x40 MLOAD PUSH2 0x384 SWAP2 SWAP1 PUSH2 0x1B61 JUMP JUMPDEST PUSH1 0x40 MLOAD DUP1 SWAP2 SUB SWAP1 RETURN JUMPDEST PUSH1 0x3 PUSH1 0x20 MSTORE DUP1 PUSH1 0x0 MSTORE PUSH1 0x40 PUSH1 0x0 KECCAK256 PUSH1 0x0 SWAP2 POP SLOAD SWAP1 PUSH2 0x100 EXP SWAP1 DIV PUSH20 0xFFFFFFFFFFFFFFFFFFFFFFFFFFFFFFFFFFFFFFFF AND DUP2 JUMP JUMPDEST PUSH1 0x60 PUSH1 0x0 PUSH1 0x7 SLOAD PUSH8 0xFFFFFFFFFFFFFFFF DUP2 GT ISZERO PUSH2 0x3E0 JUMPI PUSH2 0x3DF PUSH2 0x1EE7 JUMP JUMPDEST JUMPDEST PUSH1 0x40 MLOAD SWAP1 DUP1 DUP3 MSTORE DUP1 PUSH1 0x20 MUL PUSH1 0x20 ADD DUP3 ADD PUSH1 0x40 MSTORE DUP1 ISZERO PUSH2 0x419 JUMPI DUP2 PUSH1 0x20 ADD JUMPDEST PUSH2 0x406 PUSH2 0x139A JUMP JUMPDEST DUP2 MSTORE PUSH1 0x20 ADD SWAP1 PUSH1 0x1 SWAP1 SUB SWAP1 DUP2 PUSH2 0x3FE JUMPI SWAP1 POP JUMPDEST POP SWAP1 POP PUSH1 0x0 JUMPDEST PUSH1 0x7 SLOAD DUP2 LT ISZERO PUSH2 0x61F JUMPI PUSH1 0x0 PUSH1 0x5 PUSH1 0x4 PUSH1 0x0 DUP5 DUP2 MSTORE PUSH1 0x20 ADD SWAP1 DUP2 MSTORE PUSH1 0x20 ADD PUSH1 0x0 KECCAK256 PUSH1 0x40 MLOAD PUSH2 0x44D SWAP2 SWAP1 PUSH2 0x1A01 JUMP JUMPDEST SWAP1 DUP2 MSTORE PUSH1 0x20 ADD PUSH1 0x40 MLOAD DUP1 SWAP2 SUB SWAP1 KECCAK256 SWAP1 POP DUP1 PUSH1 0x40 MLOAD DUP1 PUSH1 0x80 ADD PUSH1 0x40 MSTORE SWAP1 DUP2 PUSH1 0x0 DUP3 ADD DUP1 SLOAD PUSH2 0x479 SWAP1 PUSH2 0x1D7F JUMP JUMPDEST DUP1 PUSH1 0x1F ADD PUSH1 0x20 DUP1 SWAP2 DIV MUL PUSH1 0x20 ADD PUSH1 0x40 MLOAD SWAP1 DUP2 ADD PUSH1 0x40 MSTORE DUP1 SWAP3 SWAP2 SWAP1 DUP2 DUP2 MSTORE PUSH1 0x20 ADD DUP3 DUP1 SLOAD PUSH2 0x4A5 SWAP1 PUSH2 0x1D7F JUMP JUMPDEST DUP1 ISZERO PUSH2 0x4F2 JUMPI DUP1 PUSH1 0x1F LT PUSH2 0x4C7 JUMPI PUSH2 0x100 DUP1 DUP4 SLOAD DIV MUL DUP4 MSTORE SWAP2 PUSH1 0x20 ADD SWAP2 PUSH2 0x4F2 JUMP JUMPDEST DUP3 ADD SWAP2 SWAP1 PUSH1 0x0 MSTORE PUSH1 0x20 PUSH1 0x0 KECCAK256 SWAP1 JUMPDEST DUP2 SLOAD DUP2 MSTORE SWAP1 PUSH1 0x1 ADD SWAP1 PUSH1 0x20 ADD DUP1 DUP4 GT PUSH2 0x4D5 JUMPI DUP3 SWAP1 SUB PUSH1 0x1F AND DUP3 ADD SWAP2 JUMPDEST POP POP POP POP POP DUP2 MSTORE PUSH1 0x20 ADD PUSH1 0x1 DUP3 ADD PUSH1 0x0 SWAP1 SLOAD SWAP1 PUSH2 0x100 EXP SWAP1 DIV PUSH20 0xFFFFFFFFFFFFFFFFFFFFFFFFFFFFFFFFFFFFFFFF AND PUSH20 0xFFFFFFFFFFFFFFFFFFFFFFFFFFFFFFFFFFFFFFFF AND PUSH20 0xFFFFFFFFFFFFFFFFFFFFFFFFFFFFFFFFFFFFFFFF AND DUP2 MSTORE PUSH1 0x20 ADD PUSH1 0x2 DUP3 ADD SLOAD DUP2 MSTORE PUSH1 0x20 ADD PUSH1 0x3 DUP3 ADD DUP1 SLOAD PUSH2 0x56B SWAP1 PUSH2 0x1D7F JUMP JUMPDEST DUP1 PUSH1 0x1F ADD PUSH1 0x20 DUP1 SWAP2 DIV MUL PUSH1 0x20 ADD PUSH1 0x40 MLOAD SWAP1 DUP2 ADD PUSH1 0x40 MSTORE DUP1 SWAP3 SWAP2 SWAP1 DUP2 DUP2 MSTORE PUSH1 0x20 ADD DUP3 DUP1 SLOAD PUSH2 0x597 SWAP1 PUSH2 0x1D7F JUMP JUMPDEST DUP1 ISZERO PUSH2 0x5E4 JUMPI DUP1 PUSH1 0x1F LT PUSH2 0x5B9 JUMPI PUSH2 0x100 DUP1 DUP4 SLOAD DIV MUL DUP4 MSTORE SWAP2 PUSH1 0x20 ADD SWAP2 PUSH2 0x5E4 JUMP JUMPDEST DUP3 ADD SWAP2 SWAP1 PUSH1 0x0 MSTORE PUSH1 0x20 PUSH1 0x0 KECCAK256 SWAP1 JUMPDEST DUP2 SLOAD DUP2 MSTORE SWAP1 PUSH1 0x1 ADD SWAP1 PUSH1 0x20 ADD DUP1 DUP4 GT PUSH2 0x5C7 JUMPI DUP3 SWAP1 SUB PUSH1 0x1F AND DUP3 ADD SWAP2 JUMPDEST POP POP POP POP POP DUP2 MSTORE POP POP DUP4 DUP4 DUP2 MLOAD DUP2 LT PUSH2 0x600 JUMPI PUSH2 0x5FF PUSH2 0x1EB8 JUMP JUMPDEST JUMPDEST PUSH1 0x20 MUL PUSH1 0x20 ADD ADD DUP2 SWAP1 MSTORE POP POP DUP1 DUP1 PUSH2 0x617 SWAP1 PUSH2 0x1DE2 JUMP JUMPDEST SWAP2 POP POP PUSH2 0x41F JUMP JUMPDEST POP DUP1 SWAP2 POP POP SWAP1 JUMP JUMPDEST PUSH1 0x9 SLOAD DUP2 JUMP JUMPDEST PUSH1 0x0 PUSH1 0x20 MSTORE DUP1 PUSH1 0x0 MSTORE PUSH1 0x40 PUSH1 0x0 KECCAK256 PUSH1 0x0 SWAP2 POP SWAP1 POP DUP1 PUSH1 0x0 ADD PUSH1 0x0 SWAP1 SLOAD SWAP1 PUSH2 0x100 EXP SWAP1 DIV PUSH1 0xFF AND SWAP1 DUP1 PUSH1 0x1 ADD DUP1 SLOAD PUSH2 0x663 SWAP1 PUSH2 0x1D7F JUMP JUMPDEST DUP1 PUSH1 0x1F ADD PUSH1 0x20 DUP1 SWAP2 DIV MUL PUSH1 0x20 ADD PUSH1 0x40 MLOAD SWAP1 DUP2 ADD PUSH1 0x40 MSTORE DUP1 SWAP3 SWAP2 SWAP1 DUP2 DUP2 MSTORE PUSH1 0x20 ADD DUP3 DUP1 SLOAD PUSH2 0x68F SWAP1 PUSH2 0x1D7F JUMP JUMPDEST DUP1 ISZERO PUSH2 0x6DC JUMPI DUP1 PUSH1 0x1F LT PUSH2 0x6B1 JUMPI PUSH2 0x100 DUP1 DUP4 SLOAD DIV MUL DUP4 MSTORE SWAP2 PUSH1 0x20 ADD SWAP2 PUSH2 0x6DC JUMP JUMPDEST DUP3 ADD SWAP2 SWAP1 PUSH1 0x0 MSTORE PUSH1 0x20 PUSH1 0x0 KECCAK256 SWAP1 JUMPDEST DUP2 SLOAD DUP2 MSTORE SWAP1 PUSH1 0x1 ADD SWAP1 PUSH1 0x20 ADD DUP1 DUP4 GT PUSH2 0x6BF JUMPI DUP3 SWAP1 SUB PUSH1 0x1F AND DUP3 ADD SWAP2 JUMPDEST POP POP POP POP POP SWAP1 DUP1 PUSH1 0x2 ADD PUSH1 0x0 SWAP1 SLOAD SWAP1 PUSH2 0x100 EXP SWAP1 DIV PUSH20 0xFFFFFFFFFFFFFFFFFFFFFFFFFFFFFFFFFFFFFFFF AND SWAP1 DUP1 PUSH1 0x2 ADD PUSH1 0x14 SWAP1 SLOAD SWAP1 PUSH2 0x100 EXP SWAP1 DIV PUSH1 0xFF AND SWAP1 POP DUP5 JUMP JUMPDEST PUSH1 0x1 PUSH1 0x20 MSTORE DUP1 PUSH1 0x0 MSTORE PUSH1 0x40 PUSH1 0x0 KECCAK256 PUSH1 0x0 SWAP2 POP SWAP1 POP DUP1 PUSH1 0x0 ADD PUSH1 0x0 SWAP1 SLOAD SWAP1 PUSH2 0x100 EXP SWAP1 DIV PUSH20 0xFFFFFFFFFFFFFFFFFFFFFFFFFFFFFFFFFFFFFFFF AND SWAP1 DUP1 PUSH1 0x1 ADD DUP1 SLOAD PUSH2 0x768 SWAP1 PUSH2 0x1D7F JUMP JUMPDEST DUP1 PUSH1 0x1F ADD PUSH1 0x20 DUP1 SWAP2 DIV MUL PUSH1 0x20 ADD PUSH1 0x40 MLOAD SWAP1 DUP2 ADD PUSH1 0x40 MSTORE DUP1 SWAP3 SWAP2 SWAP1 DUP2 DUP2 MSTORE PUSH1 0x20 ADD DUP3 DUP1 SLOAD PUSH2 0x794 SWAP1 PUSH2 0x1D7F JUMP JUMPDEST DUP1 ISZERO PUSH2 0x7E1 JUMPI DUP1 PUSH1 0x1F LT PUSH2 0x7B6 JUMPI PUSH2 0x100 DUP1 DUP4 SLOAD DIV MUL DUP4 MSTORE SWAP2 PUSH1 0x20 ADD SWAP2 PUSH2 0x7E1 JUMP JUMPDEST DUP3 ADD SWAP2 SWAP1 PUSH1 0x0 MSTORE PUSH1 0x20 PUSH1 0x0 KECCAK256 SWAP1 JUMPDEST DUP2 SLOAD DUP2 MSTORE SWAP1 PUSH1 0x1 ADD SWAP1 PUSH1 0x20 ADD DUP1 DUP4 GT PUSH2 0x7C4 JUMPI DUP3 SWAP1 SUB PUSH1 0x1F AND DUP3 ADD SWAP2 JUMPDEST POP POP POP POP POP SWAP1 POP DUP3 JUMP JUMPDEST PUSH1 0x7 SLOAD DUP2 JUMP JUMPDEST PUSH1 0x5 DUP2 DUP1 MLOAD PUSH1 0x20 DUP2 ADD DUP3 ADD DUP1 MLOAD DUP5 DUP3 MSTORE PUSH1 0x20 DUP4 ADD PUSH1 0x20 DUP6 ADD KECCAK256 DUP2 DUP4 MSTORE DUP1 SWAP6 POP POP POP POP POP POP PUSH1 0x0 SWAP2 POP SWAP1 POP DUP1 PUSH1 0x0 ADD DUP1 SLOAD PUSH2 0x82A SWAP1 PUSH2 0x1D7F JUMP JUMPDEST DUP1 PUSH1 0x1F ADD PUSH1 0x20 DUP1 SWAP2 DIV MUL PUSH1 0x20 ADD PUSH1 0x40 MLOAD SWAP1 DUP2 ADD PUSH1 0x40 MSTORE DUP1 SWAP3 SWAP2 SWAP1 DUP2 DUP2 MSTORE PUSH1 0x20 ADD DUP3 DUP1 SLOAD PUSH2 0x856 SWAP1 PUSH2 0x1D7F JUMP JUMPDEST DUP1 ISZERO PUSH2 0x8A3 JUMPI DUP1 PUSH1 0x1F LT PUSH2 0x878 JUMPI PUSH2 0x100 DUP1 DUP4 SLOAD DIV MUL DUP4 MSTORE SWAP2 PUSH1 0x20 ADD SWAP2 PUSH2 0x8A3 JUMP JUMPDEST DUP3 ADD SWAP2 SWAP1 PUSH1 0x0 MSTORE PUSH1 0x20 PUSH1 0x0 KECCAK256 SWAP1 JUMPDEST DUP2 SLOAD DUP2 MSTORE SWAP1 PUSH1 0x1 ADD SWAP1 PUSH1 0x20 ADD DUP1 DUP4 GT PUSH2 0x886 JUMPI DUP3 SWAP1 SUB PUSH1 0x1F AND DUP3 ADD SWAP2 JUMPDEST POP POP POP POP POP SWAP1 DUP1 PUSH1 0x1 ADD PUSH1 0x0 SWAP1 SLOAD SWAP1 PUSH2 0x100 EXP SWAP1 DIV PUSH20 0xFFFFFFFFFFFFFFFFFFFFFFFFFFFFFFFFFFFFFFFF AND SWAP1 DUP1 PUSH1 0x2 ADD SLOAD SWAP1 DUP1 PUSH1 0x3 ADD DUP1 SLOAD PUSH2 0x8E4 SWAP1 PUSH2 0x1D7F JUMP JUMPDEST DUP1 PUSH1 0x1F ADD PUSH1 0x20 DUP1 SWAP2 DIV MUL PUSH1 0x20 ADD PUSH1 0x40 MLOAD SWAP1 DUP2 ADD PUSH1 0x40 MSTORE DUP1 SWAP3 SWAP2 SWAP1 DUP2 DUP2 MSTORE PUSH1 0x20 ADD DUP3 DUP1 SLOAD PUSH2 0x910 SWAP1 PUSH2 0x1D7F JUMP JUMPDEST DUP1 ISZERO PUSH2 0x95D JUMPI DUP1 PUSH1 0x1F LT PUSH2 0x932 JUMPI PUSH2 0x100 DUP1 DUP4 SLOAD DIV MUL DUP4 MSTORE SWAP2 PUSH1 0x20 ADD SWAP2 PUSH2 0x95D JUMP JUMPDEST DUP3 ADD SWAP2 SWAP1 PUSH1 0x0 MSTORE PUSH1 0x20 PUSH1 0x0 KECCAK256 SWAP1 JUMPDEST DUP2 SLOAD DUP2 MSTORE SWAP1 PUSH1 0x1 ADD SWAP1 PUSH1 0x20 ADD DUP1 DUP4 GT PUSH2 0x940 JUMPI DUP3 SWAP1 SUB PUSH1 0x1F AND DUP3 ADD SWAP2 JUMPDEST POP POP POP POP POP SWAP1 POP DUP5 JUMP JUMPDEST PUSH1 0x8 SLOAD DUP2 JUMP JUMPDEST PUSH1 0x0 DUP1 PUSH1 0x2 DUP2 GT ISZERO PUSH2 0x982 JUMPI PUSH2 0x981 PUSH2 0x1E5A JUMP JUMPDEST JUMPDEST PUSH1 0xA PUSH1 0x0 SWAP1 SLOAD SWAP1 PUSH2 0x100 EXP SWAP1 DIV PUSH1 0xFF AND PUSH1 0x2 DUP2 GT ISZERO PUSH2 0x9A4 JUMPI PUSH2 0x9A3 PUSH2 0x1E5A JUMP JUMPDEST JUMPDEST EQ PUSH2 0x9AE JUMPI PUSH1 0x0 DUP1 REVERT JUMPDEST CALLER PUSH20 0xFFFFFFFFFFFFFFFFFFFFFFFFFFFFFFFFFFFFFFFF AND PUSH1 0xA PUSH1 0x1 SWAP1 SLOAD SWAP1 PUSH2 0x100 EXP SWAP1 DIV PUSH20 0xFFFFFFFFFFFFFFFFFFFFFFFFFFFFFFFFFFFFFFFF AND PUSH20 0xFFFFFFFFFFFFFFFFFFFFFFFFFFFFFFFFFFFFFFFF AND EQ PUSH2 0xA08 JUMPI PUSH1 0x0 DUP1 REVERT JUMPDEST PUSH2 0xA10 PUSH2 0x139A JUMP JUMPDEST DUP5 DUP2 PUSH1 0x20 ADD SWAP1 PUSH20 0xFFFFFFFFFFFFFFFFFFFFFFFFFFFFFFFFFFFFFFFF AND SWAP1 DUP2 PUSH20 0xFFFFFFFFFFFFFFFFFFFFFFFFFFFFFFFFFFFFFFFF AND DUP2 MSTORE POP POP DUP4 DUP2 PUSH1 0x0 ADD DUP2 SWAP1 MSTORE POP DUP3 DUP2 PUSH1 0x60 ADD DUP2 SWAP1 MSTORE POP DUP3 PUSH1 0x4 PUSH1 0x0 PUSH1 0x7 SLOAD DUP2 MSTORE PUSH1 0x20 ADD SWAP1 DUP2 MSTORE PUSH1 0x20 ADD PUSH1 0x0 KECCAK256 SWAP1 DUP1 MLOAD SWAP1 PUSH1 0x20 ADD SWAP1 PUSH2 0xA83 SWAP3 SWAP2 SWAP1 PUSH2 0x13D8 JUMP JUMPDEST POP DUP1 PUSH1 0x5 DUP5 PUSH1 0x40 MLOAD PUSH2 0xA95 SWAP2 SWAP1 PUSH2 0x19EA JUMP JUMPDEST SWAP1 DUP2 MSTORE PUSH1 0x20 ADD PUSH1 0x40 MLOAD DUP1 SWAP2 SUB SWAP1 KECCAK256 PUSH1 0x0 DUP3 ADD MLOAD DUP2 PUSH1 0x0 ADD SWAP1 DUP1 MLOAD SWAP1 PUSH1 0x20 ADD SWAP1 PUSH2 0xABF SWAP3 SWAP2 SWAP1 PUSH2 0x13D8 JUMP JUMPDEST POP PUSH1 0x20 DUP3 ADD MLOAD DUP2 PUSH1 0x1 ADD PUSH1 0x0 PUSH2 0x100 EXP DUP2 SLOAD DUP2 PUSH20 0xFFFFFFFFFFFFFFFFFFFFFFFFFFFFFFFFFFFFFFFF MUL NOT AND SWAP1 DUP4 PUSH20 0xFFFFFFFFFFFFFFFFFFFFFFFFFFFFFFFFFFFFFFFF AND MUL OR SWAP1 SSTORE POP PUSH1 0x40 DUP3 ADD MLOAD DUP2 PUSH1 0x2 ADD SSTORE PUSH1 0x60 DUP3 ADD MLOAD DUP2 PUSH1 0x3 ADD SWAP1 DUP1 MLOAD SWAP1 PUSH1 0x20 ADD SWAP1 PUSH2 0xB2D SWAP3 SWAP2 SWAP1 PUSH2 0x13D8 JUMP JUMPDEST POP SWAP1 POP POP PUSH1 0x1 PUSH1 0x7 SLOAD PUSH2 0xB40 SWAP2 SWAP1 PUSH2 0x1C7A JUMP JUMPDEST PUSH1 0x7 DUP2 SWAP1 SSTORE POP POP POP POP POP POP JUMP JUMPDEST PUSH1 0x4 PUSH1 0x20 MSTORE DUP1 PUSH1 0x0 MSTORE PUSH1 0x40 PUSH1 0x0 KECCAK256 PUSH1 0x0 SWAP2 POP SWAP1 POP DUP1 SLOAD PUSH2 0xB6C SWAP1 PUSH2 0x1D7F JUMP JUMPDEST DUP1 PUSH1 0x1F ADD PUSH1 0x20 DUP1 SWAP2 DIV MUL PUSH1 0x20 ADD PUSH1 0x40 MLOAD SWAP1 DUP2 ADD PUSH1 0x40 MSTORE DUP1 SWAP3 SWAP2 SWAP1 DUP2 DUP2 MSTORE PUSH1 0x20 ADD DUP3 DUP1 SLOAD PUSH2 0xB98 SWAP1 PUSH2 0x1D7F JUMP JUMPDEST DUP1 ISZERO PUSH2 0xBE5 JUMPI DUP1 PUSH1 0x1F LT PUSH2 0xBBA JUMPI PUSH2 0x100 DUP1 DUP4 SLOAD DIV MUL DUP4 MSTORE SWAP2 PUSH1 0x20 ADD SWAP2 PUSH2 0xBE5 JUMP JUMPDEST DUP3 ADD SWAP2 SWAP1 PUSH1 0x0 MSTORE PUSH1 0x20 PUSH1 0x0 KECCAK256 SWAP1 JUMPDEST DUP2 SLOAD DUP2 MSTORE SWAP1 PUSH1 0x1 ADD SWAP1 PUSH1 0x20 ADD DUP1 DUP4 GT PUSH2 0xBC8 JUMPI DUP3 SWAP1 SUB PUSH1 0x1F AND DUP3 ADD SWAP2 JUMPDEST POP POP POP POP POP DUP2 JUMP JUMPDEST PUSH1 0xB DUP1 SLOAD PUSH2 0xBFA SWAP1 PUSH2 0x1D7F JUMP JUMPDEST DUP1 PUSH1 0x1F ADD PUSH1 0x20 DUP1 SWAP2 DIV MUL PUSH1 0x20 ADD PUSH1 0x40 MLOAD SWAP1 DUP2 ADD PUSH1 0x40 MSTORE DUP1 SWAP3 SWAP2 SWAP1 DUP2 DUP2 MSTORE PUSH1 0x20 ADD DUP3 DUP1 SLOAD PUSH2 0xC26 SWAP1 PUSH2 0x1D7F JUMP JUMPDEST DUP1 ISZERO PUSH2 0xC73 JUMPI DUP1 PUSH1 0x1F LT PUSH2 0xC48 JUMPI PUSH2 0x100 DUP1 DUP4 SLOAD DIV MUL DUP4 MSTORE SWAP2 PUSH1 0x20 ADD SWAP2 PUSH2 0xC73 JUMP JUMPDEST DUP3 ADD SWAP2 SWAP1 PUSH1 0x0 MSTORE PUSH1 0x20 PUSH1 0x0 KECCAK256 SWAP1 JUMPDEST DUP2 SLOAD DUP2 MSTORE SWAP1 PUSH1 0x1 ADD SWAP1 PUSH1 0x20 ADD DUP1 DUP4 GT PUSH2 0xC56 JUMPI DUP3 SWAP1 SUB PUSH1 0x1F AND DUP3 ADD SWAP2 JUMPDEST POP POP POP POP POP DUP2 JUMP JUMPDEST PUSH1 0xA PUSH1 0x1 SWAP1 SLOAD SWAP1 PUSH2 0x100 EXP SWAP1 DIV PUSH20 0xFFFFFFFFFFFFFFFFFFFFFFFFFFFFFFFFFFFFFFFF AND DUP2 JUMP JUMPDEST PUSH1 0x6 DUP2 DUP1 MLOAD PUSH1 0x20 DUP2 ADD DUP3 ADD DUP1 MLOAD DUP5 DUP3 MSTORE PUSH1 0x20 DUP4 ADD PUSH1 0x20 DUP6 ADD KECCAK256 DUP2 DUP4 MSTORE DUP1 SWAP6 POP POP POP POP POP POP PUSH1 0x0 SWAP2 POP SWAP1 POP SLOAD DUP2 JUMP JUMPDEST PUSH1 0xA PUSH1 0x0 SWAP1 SLOAD SWAP1 PUSH2 0x100 EXP SWAP1 DIV PUSH1 0xFF AND DUP2 JUMP JUMPDEST PUSH1 0x0 DUP1 PUSH1 0x2 DUP2 GT ISZERO PUSH2 0xCF7 JUMPI PUSH2 0xCF6 PUSH2 0x1E5A JUMP JUMPDEST JUMPDEST PUSH1 0xA PUSH1 0x0 SWAP1 SLOAD SWAP1 PUSH2 0x100 EXP SWAP1 DIV PUSH1 0xFF AND PUSH1 0x2 DUP2 GT ISZERO PUSH2 0xD19 JUMPI PUSH2 0xD18 PUSH2 0x1E5A JUMP JUMPDEST JUMPDEST EQ PUSH2 0xD23 JUMPI PUSH1 0x0 DUP1 REVERT JUMPDEST CALLER PUSH20 0xFFFFFFFFFFFFFFFFFFFFFFFFFFFFFFFFFFFFFFFF AND PUSH1 0xA PUSH1 0x1 SWAP1 SLOAD SWAP1 PUSH2 0x100 EXP SWAP1 DIV PUSH20 0xFFFFFFFFFFFFFFFFFFFFFFFFFFFFFFFFFFFFFFFF AND PUSH20 0xFFFFFFFFFFFFFFFFFFFFFFFFFFFFFFFFFFFFFFFF AND EQ PUSH2 0xD7D JUMPI PUSH1 0x0 DUP1 REVERT JUMPDEST PUSH2 0xD85 PUSH2 0x145E JUMP JUMPDEST PUSH1 0x1 DUP2 PUSH1 0x0 ADD SWAP1 ISZERO ISZERO SWAP1 DUP2 ISZERO ISZERO DUP2 MSTORE POP POP DUP4 DUP2 PUSH1 0x40 ADD SWAP1 PUSH20 0xFFFFFFFFFFFFFFFFFFFFFFFFFFFFFFFFFFFFFFFF AND SWAP1 DUP2 PUSH20 0xFFFFFFFFFFFFFFFFFFFFFFFFFFFFFFFFFFFFFFFF AND DUP2 MSTORE POP POP DUP3 DUP2 PUSH1 0x20 ADD DUP2 SWAP1 MSTORE POP PUSH1 0x0 DUP2 PUSH1 0x60 ADD SWAP1 ISZERO ISZERO SWAP1 DUP2 ISZERO ISZERO DUP2 MSTORE POP POP DUP1 PUSH1 0x0 DUP1 DUP7 PUSH20 0xFFFFFFFFFFFFFFFFFFFFFFFFFFFFFFFFFFFFFFFF AND PUSH20 0xFFFFFFFFFFFFFFFFFFFFFFFFFFFFFFFFFFFFFFFF AND DUP2 MSTORE PUSH1 0x20 ADD SWAP1 DUP2 MSTORE PUSH1 0x20 ADD PUSH1 0x0 KECCAK256 PUSH1 0x0 DUP3 ADD MLOAD DUP2 PUSH1 0x0 ADD PUSH1 0x0 PUSH2 0x100 EXP DUP2 SLOAD DUP2 PUSH1 0xFF MUL NOT AND SWAP1 DUP4 ISZERO ISZERO MUL OR SWAP1 SSTORE POP PUSH1 0x20 DUP3 ADD MLOAD DUP2 PUSH1 0x1 ADD SWAP1 DUP1 MLOAD SWAP1 PUSH1 0x20 ADD SWAP1 PUSH2 0xE63 SWAP3 SWAP2 SWAP1 PUSH2 0x13D8 JUMP JUMPDEST POP PUSH1 0x40 DUP3 ADD MLOAD DUP2 PUSH1 0x2 ADD PUSH1 0x0 PUSH2 0x100 EXP DUP2 SLOAD DUP2 PUSH20 0xFFFFFFFFFFFFFFFFFFFFFFFFFFFFFFFFFFFFFFFF MUL NOT AND SWAP1 DUP4 PUSH20 0xFFFFFFFFFFFFFFFFFFFFFFFFFFFFFFFFFFFFFFFF AND MUL OR SWAP1 SSTORE POP PUSH1 0x60 DUP3 ADD MLOAD DUP2 PUSH1 0x2 ADD PUSH1 0x14 PUSH2 0x100 EXP DUP2 SLOAD DUP2 PUSH1 0xFF MUL NOT AND SWAP1 DUP4 ISZERO ISZERO MUL OR SWAP1 SSTORE POP SWAP1 POP POP DUP4 PUSH1 0x3 PUSH1 0x0 PUSH1 0x8 SLOAD DUP2 MSTORE PUSH1 0x20 ADD SWAP1 DUP2 MSTORE PUSH1 0x20 ADD PUSH1 0x0 KECCAK256 PUSH1 0x0 PUSH2 0x100 EXP DUP2 SLOAD DUP2 PUSH20 0xFFFFFFFFFFFFFFFFFFFFFFFFFFFFFFFFFFFFFFFF MUL NOT AND SWAP1 DUP4 PUSH20 0xFFFFFFFFFFFFFFFFFFFFFFFFFFFFFFFFFFFFFFFF AND MUL OR SWAP1 SSTORE POP PUSH1 0x1 PUSH1 0x8 SLOAD PUSH2 0xF31 SWAP2 SWAP1 PUSH2 0x1C7A JUMP JUMPDEST PUSH1 0x8 DUP2 SWAP1 SSTORE POP POP POP POP POP JUMP JUMPDEST PUSH1 0x0 DUP1 CALLER PUSH20 0xFFFFFFFFFFFFFFFFFFFFFFFFFFFFFFFFFFFFFFFF AND PUSH20 0xFFFFFFFFFFFFFFFFFFFFFFFFFFFFFFFFFFFFFFFF AND DUP2 MSTORE PUSH1 0x20 ADD SWAP1 DUP2 MSTORE PUSH1 0x20 ADD PUSH1 0x0 KECCAK256 PUSH1 0x0 ADD PUSH1 0x0 SWAP1 SLOAD SWAP1 PUSH2 0x100 EXP SWAP1 DIV PUSH1 0xFF AND DUP1 ISZERO PUSH2 0xFEA JUMPI POP PUSH1 0x0 ISZERO ISZERO PUSH1 0x0 DUP1 CALLER PUSH20 0xFFFFFFFFFFFFFFFFFFFFFFFFFFFFFFFFFFFFFFFF AND PUSH20 0xFFFFFFFFFFFFFFFFFFFFFFFFFFFFFFFFFFFFFFFF AND DUP2 MSTORE PUSH1 0x20 ADD SWAP1 DUP2 MSTORE PUSH1 0x20 ADD PUSH1 0x0 KECCAK256 PUSH1 0x2 ADD PUSH1 0x14 SWAP1 SLOAD SWAP1 PUSH2 0x100 EXP SWAP1 DIV PUSH1 0xFF AND ISZERO ISZERO EQ JUMPDEST ISZERO PUSH2 0x11DB JUMPI PUSH2 0xFF7 PUSH2 0x14A0 JUMP JUMPDEST CALLER DUP2 PUSH1 0x0 ADD SWAP1 PUSH20 0xFFFFFFFFFFFFFFFFFFFFFFFFFFFFFFFFFFFFFFFF AND SWAP1 DUP2 PUSH20 0xFFFFFFFFFFFFFFFFFFFFFFFFFFFFFFFFFFFFFFFF AND DUP2 MSTORE POP POP DUP2 DUP2 PUSH1 0x20 ADD DUP2 SWAP1 MSTORE POP DUP1 PUSH1 0x1 PUSH1 0x0 CALLER PUSH20 0xFFFFFFFFFFFFFFFFFFFFFFFFFFFFFFFFFFFFFFFF AND PUSH20 0xFFFFFFFFFFFFFFFFFFFFFFFFFFFFFFFFFFFFFFFF AND DUP2 MSTORE PUSH1 0x20 ADD SWAP1 DUP2 MSTORE PUSH1 0x20 ADD PUSH1 0x0 KECCAK256 PUSH1 0x0 DUP3 ADD MLOAD DUP2 PUSH1 0x0 ADD PUSH1 0x0 PUSH2 0x100 EXP DUP2 SLOAD DUP2 PUSH20 0xFFFFFFFFFFFFFFFFFFFFFFFFFFFFFFFFFFFFFFFF MUL NOT AND SWAP1 DUP4 PUSH20 0xFFFFFFFFFFFFFFFFFFFFFFFFFFFFFFFFFFFFFFFF AND MUL OR SWAP1 SSTORE POP PUSH1 0x20 DUP3 ADD MLOAD DUP2 PUSH1 0x1 ADD SWAP1 DUP1 MLOAD SWAP1 PUSH1 0x20 ADD SWAP1 PUSH2 0x10DB SWAP3 SWAP2 SWAP1 PUSH2 0x13D8 JUMP JUMPDEST POP SWAP1 POP POP PUSH1 0x1 PUSH1 0x5 DUP4 PUSH1 0x40 MLOAD PUSH2 0x10F1 SWAP2 SWAP1 PUSH2 0x19EA JUMP JUMPDEST SWAP1 DUP2 MSTORE PUSH1 0x20 ADD PUSH1 0x40 MLOAD DUP1 SWAP2 SUB SWAP1 KECCAK256 PUSH1 0x2 ADD SLOAD PUSH2 0x110D SWAP2 SWAP1 PUSH2 0x1C7A JUMP JUMPDEST PUSH1 0x5 DUP4 PUSH1 0x40 MLOAD PUSH2 0x111D SWAP2 SWAP1 PUSH2 0x19EA JUMP JUMPDEST SWAP1 DUP2 MSTORE PUSH1 0x20 ADD PUSH1 0x40 MLOAD DUP1 SWAP2 SUB SWAP1 KECCAK256 PUSH1 0x2 ADD DUP2 SWAP1 SSTORE POP PUSH1 0x1 PUSH1 0x6 DUP4 PUSH1 0x40 MLOAD PUSH2 0x1144 SWAP2 SWAP1 PUSH2 0x19EA JUMP JUMPDEST SWAP1 DUP2 MSTORE PUSH1 0x20 ADD PUSH1 0x40 MLOAD DUP1 SWAP2 SUB SWAP1 KECCAK256 SLOAD PUSH2 0x115D SWAP2 SWAP1 PUSH2 0x1C7A JUMP JUMPDEST PUSH1 0x6 DUP4 PUSH1 0x40 MLOAD PUSH2 0x116D SWAP2 SWAP1 PUSH2 0x19EA JUMP JUMPDEST SWAP1 DUP2 MSTORE PUSH1 0x20 ADD PUSH1 0x40 MLOAD DUP1 SWAP2 SUB SWAP1 KECCAK256 DUP2 SWAP1 SSTORE POP PUSH1 0x1 PUSH1 0x0 DUP1 CALLER PUSH20 0xFFFFFFFFFFFFFFFFFFFFFFFFFFFFFFFFFFFFFFFF AND PUSH20 0xFFFFFFFFFFFFFFFFFFFFFFFFFFFFFFFFFFFFFFFF AND DUP2 MSTORE PUSH1 0x20 ADD SWAP1 DUP2 MSTORE PUSH1 0x20 ADD PUSH1 0x0 KECCAK256 PUSH1 0x2 ADD PUSH1 0x14 PUSH2 0x100 EXP DUP2 SLOAD DUP2 PUSH1 0xFF MUL NOT AND SWAP1 DUP4 ISZERO ISZERO MUL OR SWAP1 SSTORE POP POP JUMPDEST POP JUMP JUMPDEST PUSH2 0x11E6 PUSH2 0x139A JUMP JUMPDEST PUSH1 0x5 DUP3 PUSH1 0x40 MLOAD PUSH2 0x11F6 SWAP2 SWAP1 PUSH2 0x19EA JUMP JUMPDEST SWAP1 DUP2 MSTORE PUSH1 0x20 ADD PUSH1 0x40 MLOAD DUP1 SWAP2 SUB SWAP1 KECCAK256 PUSH1 0x40 MLOAD DUP1 PUSH1 0x80 ADD PUSH1 0x40 MSTORE SWAP1 DUP2 PUSH1 0x0 DUP3 ADD DUP1 SLOAD PUSH2 0x121F SWAP1 PUSH2 0x1D7F JUMP JUMPDEST DUP1 PUSH1 0x1F ADD PUSH1 0x20 DUP1 SWAP2 DIV MUL PUSH1 0x20 ADD PUSH1 0x40 MLOAD SWAP1 DUP2 ADD PUSH1 0x40 MSTORE DUP1 SWAP3 SWAP2 SWAP1 DUP2 DUP2 MSTORE PUSH1 0x20 ADD DUP3 DUP1 SLOAD PUSH2 0x124B SWAP1 PUSH2 0x1D7F JUMP JUMPDEST DUP1 ISZERO PUSH2 0x1298 JUMPI DUP1 PUSH1 0x1F LT PUSH2 0x126D JUMPI PUSH2 0x100 DUP1 DUP4 SLOAD DIV MUL DUP4 MSTORE SWAP2 PUSH1 0x20 ADD SWAP2 PUSH2 0x1298 JUMP JUMPDEST DUP3 ADD SWAP2 SWAP1 PUSH1 0x0 MSTORE PUSH1 0x20 PUSH1 0x0 KECCAK256 SWAP1 JUMPDEST DUP2 SLOAD DUP2 MSTORE SWAP1 PUSH1 0x1 ADD SWAP1 PUSH1 0x20 ADD DUP1 DUP4 GT PUSH2 0x127B JUMPI DUP3 SWAP1 SUB PUSH1 0x1F AND DUP3 ADD SWAP2 JUMPDEST POP POP POP POP POP DUP2 MSTORE PUSH1 0x20 ADD PUSH1 0x1 DUP3 ADD PUSH1 0x0 SWAP1 SLOAD SWAP1 PUSH2 0x100 EXP SWAP1 DIV PUSH20 0xFFFFFFFFFFFFFFFFFFFFFFFFFFFFFFFFFFFFFFFF AND PUSH20 0xFFFFFFFFFFFFFFFFFFFFFFFFFFFFFFFFFFFFFFFF AND PUSH20 0xFFFFFFFFFFFFFFFFFFFFFFFFFFFFFFFFFFFFFFFF AND DUP2 MSTORE PUSH1 0x20 ADD PUSH1 0x2 DUP3 ADD SLOAD DUP2 MSTORE PUSH1 0x20 ADD PUSH1 0x3 DUP3 ADD DUP1 SLOAD PUSH2 0x1311 SWAP1 PUSH2 0x1D7F JUMP JUMPDEST DUP1 PUSH1 0x1F ADD PUSH1 0x20 DUP1 SWAP2 DIV MUL PUSH1 0x20 ADD PUSH1 0x40 MLOAD SWAP1 DUP2 ADD PUSH1 0x40 MSTORE DUP1 SWAP3 SWAP2 SWAP1 DUP2 DUP2 MSTORE PUSH1 0x20 ADD DUP3 DUP1 SLOAD PUSH2 0x133D SWAP1 PUSH2 0x1D7F JUMP JUMPDEST DUP1 ISZERO PUSH2 0x138A JUMPI DUP1 PUSH1 0x1F LT PUSH2 0x135F JUMPI PUSH2 0x100 DUP1 DUP4 SLOAD DIV MUL DUP4 MSTORE SWAP2 PUSH1 0x20 ADD SWAP2 PUSH2 0x138A JUMP JUMPDEST DUP3 ADD SWAP2 SWAP1 PUSH1 0x0 MSTORE PUSH1 0x20 PUSH1 0x0 KECCAK256 SWAP1 JUMPDEST DUP2 SLOAD DUP2 MSTORE SWAP1 PUSH1 0x1 ADD SWAP1 PUSH1 0x20 ADD DUP1 DUP4 GT PUSH2 0x136D JUMPI DUP3 SWAP1 SUB PUSH1 0x1F AND DUP3 ADD SWAP2 JUMPDEST POP POP POP POP POP DUP2 MSTORE POP POP SWAP1 POP SWAP2 SWAP1 POP JUMP JUMPDEST PUSH1 0x40 MLOAD DUP1 PUSH1 0x80 ADD PUSH1 0x40 MSTORE DUP1 PUSH1 0x60 DUP2 MSTORE PUSH1 0x20 ADD PUSH1 0x0 PUSH20 0xFFFFFFFFFFFFFFFFFFFFFFFFFFFFFFFFFFFFFFFF AND DUP2 MSTORE PUSH1 0x20 ADD PUSH1 0x0 DUP2 MSTORE PUSH1 0x20 ADD PUSH1 0x60 DUP2 MSTORE POP SWAP1 JUMP JUMPDEST DUP3 DUP1 SLOAD PUSH2 0x13E4 SWAP1 PUSH2 0x1D7F JUMP JUMPDEST SWAP1 PUSH1 0x0 MSTORE PUSH1 0x20 PUSH1 0x0 KECCAK256 SWAP1 PUSH1 0x1F ADD PUSH1 0x20 SWAP1 DIV DUP2 ADD SWAP3 DUP3 PUSH2 0x1406 JUMPI PUSH1 0x0 DUP6 SSTORE PUSH2 0x144D JUMP JUMPDEST DUP3 PUSH1 0x1F LT PUSH2 0x141F JUMPI DUP1 MLOAD PUSH1 0xFF NOT AND DUP4 DUP1 ADD OR DUP6 SSTORE PUSH2 0x144D JUMP JUMPDEST DUP3 DUP1 ADD PUSH1 0x1 ADD DUP6 SSTORE DUP3 ISZERO PUSH2 0x144D JUMPI SWAP2 DUP3 ADD JUMPDEST DUP3 DUP2 GT ISZERO PUSH2 0x144C JUMPI DUP3 MLOAD DUP3 SSTORE SWAP2 PUSH1 0x20 ADD SWAP2 SWAP1 PUSH1 0x1 ADD SWAP1 PUSH2 0x1431 JUMP JUMPDEST JUMPDEST POP SWAP1 POP PUSH2 0x145A SWAP2 SWAP1 PUSH2 0x14D0 JUMP JUMPDEST POP SWAP1 JUMP JUMPDEST PUSH1 0x40 MLOAD DUP1 PUSH1 0x80 ADD PUSH1 0x40 MSTORE DUP1 PUSH1 0x0 ISZERO ISZERO DUP2 MSTORE PUSH1 0x20 ADD PUSH1 0x60 DUP2 MSTORE PUSH1 0x20 ADD PUSH1 0x0 PUSH20 0xFFFFFFFFFFFFFFFFFFFFFFFFFFFFFFFFFFFFFFFF AND DUP2 MSTORE PUSH1 0x20 ADD PUSH1 0x0 ISZERO ISZERO DUP2 MSTORE POP SWAP1 JUMP JUMPDEST PUSH1 0x40 MLOAD DUP1 PUSH1 0x40 ADD PUSH1 0x40 MSTORE DUP1 PUSH1 0x0 PUSH20 0xFFFFFFFFFFFFFFFFFFFFFFFFFFFFFFFFFFFFFFFF AND DUP2 MSTORE PUSH1 0x20 ADD PUSH1 0x60 DUP2 MSTORE POP SWAP1 JUMP JUMPDEST JUMPDEST DUP1 DUP3 GT ISZERO PUSH2 0x14E9 JUMPI PUSH1 0x0 DUP2 PUSH1 0x0 SWAP1 SSTORE POP PUSH1 0x1 ADD PUSH2 0x14D1 JUMP JUMPDEST POP SWAP1 JUMP JUMPDEST PUSH1 0x0 PUSH2 0x1500 PUSH2 0x14FB DUP5 PUSH2 0x1BC3 JUMP JUMPDEST PUSH2 0x1B9E JUMP JUMPDEST SWAP1 POP DUP3 DUP2 MSTORE PUSH1 0x20 DUP2 ADD DUP5 DUP5 DUP5 ADD GT ISZERO PUSH2 0x151C JUMPI PUSH2 0x151B PUSH2 0x1F1B JUMP JUMPDEST JUMPDEST PUSH2 0x1527 DUP5 DUP3 DUP6 PUSH2 0x1D3D JUMP JUMPDEST POP SWAP4 SWAP3 POP POP POP JUMP JUMPDEST PUSH1 0x0 DUP2 CALLDATALOAD SWAP1 POP PUSH2 0x153E DUP2 PUSH2 0x1F4F JUMP JUMPDEST SWAP3 SWAP2 POP POP JUMP JUMPDEST PUSH1 0x0 DUP3 PUSH1 0x1F DUP4 ADD SLT PUSH2 0x1559 JUMPI PUSH2 0x1558 PUSH2 0x1F16 JUMP JUMPDEST JUMPDEST DUP2 CALLDATALOAD PUSH2 0x1569 DUP5 DUP3 PUSH1 0x20 DUP7 ADD PUSH2 0x14ED JUMP JUMPDEST SWAP2 POP POP SWAP3 SWAP2 POP POP JUMP JUMPDEST PUSH1 0x0 DUP2 CALLDATALOAD SWAP1 POP PUSH2 0x1581 DUP2 PUSH2 0x1F66 JUMP JUMPDEST SWAP3 SWAP2 POP POP JUMP JUMPDEST PUSH1 0x0 PUSH1 0x20 DUP3 DUP5 SUB SLT ISZERO PUSH2 0x159D JUMPI PUSH2 0x159C PUSH2 0x1F25 JUMP JUMPDEST JUMPDEST PUSH1 0x0 PUSH2 0x15AB DUP5 DUP3 DUP6 ADD PUSH2 0x152F JUMP JUMPDEST SWAP2 POP POP SWAP3 SWAP2 POP POP JUMP JUMPDEST PUSH1 0x0 DUP1 PUSH1 0x40 DUP4 DUP6 SUB SLT ISZERO PUSH2 0x15CB JUMPI PUSH2 0x15CA PUSH2 0x1F25 JUMP JUMPDEST JUMPDEST PUSH1 0x0 PUSH2 0x15D9 DUP6 DUP3 DUP7 ADD PUSH2 0x152F JUMP JUMPDEST SWAP3 POP POP PUSH1 0x20 DUP4 ADD CALLDATALOAD PUSH8 0xFFFFFFFFFFFFFFFF DUP2 GT ISZERO PUSH2 0x15FA JUMPI PUSH2 0x15F9 PUSH2 0x1F20 JUMP JUMPDEST JUMPDEST PUSH2 0x1606 DUP6 DUP3 DUP7 ADD PUSH2 0x1544 JUMP JUMPDEST SWAP2 POP POP SWAP3 POP SWAP3 SWAP1 POP JUMP JUMPDEST PUSH1 0x0 DUP1 PUSH1 0x0 PUSH1 0x60 DUP5 DUP7 SUB SLT ISZERO PUSH2 0x1629 JUMPI PUSH2 0x1628 PUSH2 0x1F25 JUMP JUMPDEST JUMPDEST PUSH1 0x0 PUSH2 0x1637 DUP7 DUP3 DUP8 ADD PUSH2 0x152F JUMP JUMPDEST SWAP4 POP POP PUSH1 0x20 DUP5 ADD CALLDATALOAD PUSH8 0xFFFFFFFFFFFFFFFF DUP2 GT ISZERO PUSH2 0x1658 JUMPI PUSH2 0x1657 PUSH2 0x1F20 JUMP JUMPDEST JUMPDEST PUSH2 0x1664 DUP7 DUP3 DUP8 ADD PUSH2 0x1544 JUMP JUMPDEST SWAP3 POP POP PUSH1 0x40 DUP5 ADD CALLDATALOAD PUSH8 0xFFFFFFFFFFFFFFFF DUP2 GT ISZERO PUSH2 0x1685 JUMPI PUSH2 0x1684 PUSH2 0x1F20 JUMP JUMPDEST JUMPDEST PUSH2 0x1691 DUP7 DUP3 DUP8 ADD PUSH2 0x1544 JUMP JUMPDEST SWAP2 POP POP SWAP3 POP SWAP3 POP SWAP3 JUMP JUMPDEST PUSH1 0x0 PUSH1 0x20 DUP3 DUP5 SUB SLT ISZERO PUSH2 0x16B1 JUMPI PUSH2 0x16B0 PUSH2 0x1F25 JUMP JUMPDEST JUMPDEST PUSH1 0x0 DUP3 ADD CALLDATALOAD PUSH8 0xFFFFFFFFFFFFFFFF DUP2 GT ISZERO PUSH2 0x16CF JUMPI PUSH2 0x16CE PUSH2 0x1F20 JUMP JUMPDEST JUMPDEST PUSH2 0x16DB DUP5 DUP3 DUP6 ADD PUSH2 0x1544 JUMP JUMPDEST SWAP2 POP POP SWAP3 SWAP2 POP POP JUMP JUMPDEST PUSH1 0x0 PUSH1 0x20 DUP3 DUP5 SUB SLT ISZERO PUSH2 0x16FA JUMPI PUSH2 0x16F9 PUSH2 0x1F25 JUMP JUMPDEST JUMPDEST PUSH1 0x0 PUSH2 0x1708 DUP5 DUP3 DUP6 ADD PUSH2 0x1572 JUMP JUMPDEST SWAP2 POP POP SWAP3 SWAP2 POP POP JUMP JUMPDEST PUSH1 0x0 PUSH2 0x171D DUP4 DUP4 PUSH2 0x18F8 JUMP JUMPDEST SWAP1 POP SWAP3 SWAP2 POP POP JUMP JUMPDEST PUSH2 0x172E DUP2 PUSH2 0x1CD0 JUMP JUMPDEST DUP3 MSTORE POP POP JUMP JUMPDEST PUSH2 0x173D DUP2 PUSH2 0x1CD0 JUMP JUMPDEST DUP3 MSTORE POP POP JUMP JUMPDEST PUSH1 0x0 PUSH2 0x174E DUP3 PUSH2 0x1C19 JUMP JUMPDEST PUSH2 0x1758 DUP2 DUP6 PUSH2 0x1C3C JUMP JUMPDEST SWAP4 POP DUP4 PUSH1 0x20 DUP3 MUL DUP6 ADD PUSH2 0x176A DUP6 PUSH2 0x1BF4 JUMP JUMPDEST DUP1 PUSH1 0x0 JUMPDEST DUP6 DUP2 LT ISZERO PUSH2 0x17A6 JUMPI DUP5 DUP5 SUB DUP10 MSTORE DUP2 MLOAD PUSH2 0x1787 DUP6 DUP3 PUSH2 0x1711 JUMP JUMPDEST SWAP5 POP PUSH2 0x1792 DUP4 PUSH2 0x1C2F JUMP JUMPDEST SWAP3 POP PUSH1 0x20 DUP11 ADD SWAP10 POP POP PUSH1 0x1 DUP2 ADD SWAP1 POP PUSH2 0x176E JUMP JUMPDEST POP DUP3 SWAP8 POP DUP8 SWAP6 POP POP POP POP POP POP SWAP3 SWAP2 POP POP JUMP JUMPDEST PUSH2 0x17C1 DUP2 PUSH2 0x1CE2 JUMP JUMPDEST DUP3 MSTORE POP POP JUMP JUMPDEST PUSH2 0x17D0 DUP2 PUSH2 0x1D2B JUMP JUMPDEST DUP3 MSTORE POP POP JUMP JUMPDEST PUSH1 0x0 PUSH2 0x17E1 DUP3 PUSH2 0x1C24 JUMP JUMPDEST PUSH2 0x17EB DUP2 DUP6 PUSH2 0x1C4D JUMP JUMPDEST SWAP4 POP PUSH2 0x17FB DUP2 DUP6 PUSH1 0x20 DUP7 ADD PUSH2 0x1D4C JUMP JUMPDEST PUSH2 0x1804 DUP2 PUSH2 0x1F2A JUMP JUMPDEST DUP5 ADD SWAP2 POP POP SWAP3 SWAP2 POP POP JUMP JUMPDEST PUSH1 0x0 PUSH2 0x181A DUP3 PUSH2 0x1C24 JUMP JUMPDEST PUSH2 0x1824 DUP2 DUP6 PUSH2 0x1C5E JUMP JUMPDEST SWAP4 POP PUSH2 0x1834 DUP2 DUP6 PUSH1 0x20 DUP7 ADD PUSH2 0x1D4C JUMP JUMPDEST PUSH2 0x183D DUP2 PUSH2 0x1F2A JUMP JUMPDEST DUP5 ADD SWAP2 POP POP SWAP3 SWAP2 POP POP JUMP JUMPDEST PUSH1 0x0 PUSH2 0x1853 DUP3 PUSH2 0x1C24 JUMP JUMPDEST PUSH2 0x185D DUP2 DUP6 PUSH2 0x1C6F JUMP JUMPDEST SWAP4 POP PUSH2 0x186D DUP2 DUP6 PUSH1 0x20 DUP7 ADD PUSH2 0x1D4C JUMP JUMPDEST DUP1 DUP5 ADD SWAP2 POP POP SWAP3 SWAP2 POP POP JUMP JUMPDEST PUSH1 0x0 DUP2 SLOAD PUSH2 0x1886 DUP2 PUSH2 0x1D7F JUMP JUMPDEST PUSH2 0x1890 DUP2 DUP7 PUSH2 0x1C6F JUMP JUMPDEST SWAP5 POP PUSH1 0x1 DUP3 AND PUSH1 0x0 DUP2 EQ PUSH2 0x18AB JUMPI PUSH1 0x1 DUP2 EQ PUSH2 0x18BC JUMPI PUSH2 0x18EF JUMP JUMPDEST PUSH1 0xFF NOT DUP4 AND DUP7 MSTORE DUP2 DUP7 ADD SWAP4 POP PUSH2 0x18EF JUMP JUMPDEST PUSH2 0x18C5 DUP6 PUSH2 0x1C04 JUMP JUMPDEST PUSH1 0x0 JUMPDEST DUP4 DUP2 LT ISZERO PUSH2 0x18E7 JUMPI DUP2 SLOAD DUP2 DUP10 ADD MSTORE PUSH1 0x1 DUP3 ADD SWAP2 POP PUSH1 0x20 DUP2 ADD SWAP1 POP PUSH2 0x18C8 JUMP JUMPDEST DUP4 DUP9 ADD SWAP6 POP POP POP JUMPDEST POP POP POP SWAP3 SWAP2 POP POP JUMP JUMPDEST PUSH1 0x0 PUSH1 0x80 DUP4 ADD PUSH1 0x0 DUP4 ADD MLOAD DUP5 DUP3 SUB PUSH1 0x0 DUP7 ADD MSTORE PUSH2 0x1915 DUP3 DUP3 PUSH2 0x17D6 JUMP JUMPDEST SWAP2 POP POP PUSH1 0x20 DUP4 ADD MLOAD PUSH2 0x192A PUSH1 0x20 DUP7 ADD DUP3 PUSH2 0x1725 JUMP JUMPDEST POP PUSH1 0x40 DUP4 ADD MLOAD PUSH2 0x193D PUSH1 0x40 DUP7 ADD DUP3 PUSH2 0x19CC JUMP JUMPDEST POP PUSH1 0x60 DUP4 ADD MLOAD DUP5 DUP3 SUB PUSH1 0x60 DUP7 ADD MSTORE PUSH2 0x1955 DUP3 DUP3 PUSH2 0x17D6 JUMP JUMPDEST SWAP2 POP POP DUP1 SWAP2 POP POP SWAP3 SWAP2 POP POP JUMP JUMPDEST PUSH1 0x0 PUSH1 0x80 DUP4 ADD PUSH1 0x0 DUP4 ADD MLOAD DUP5 DUP3 SUB PUSH1 0x0 DUP7 ADD MSTORE PUSH2 0x197F DUP3 DUP3 PUSH2 0x17D6 JUMP JUMPDEST SWAP2 POP POP PUSH1 0x20 DUP4 ADD MLOAD PUSH2 0x1994 PUSH1 0x20 DUP7 ADD DUP3 PUSH2 0x1725 JUMP JUMPDEST POP PUSH1 0x40 DUP4 ADD MLOAD PUSH2 0x19A7 PUSH1 0x40 DUP7 ADD DUP3 PUSH2 0x19CC JUMP JUMPDEST POP PUSH1 0x60 DUP4 ADD MLOAD DUP5 DUP3 SUB PUSH1 0x60 DUP7 ADD MSTORE PUSH2 0x19BF DUP3 DUP3 PUSH2 0x17D6 JUMP JUMPDEST SWAP2 POP POP DUP1 SWAP2 POP POP SWAP3 SWAP2 POP POP JUMP JUMPDEST PUSH2 0x19D5 DUP2 PUSH2 0x1D21 JUMP JUMPDEST DUP3 MSTORE POP POP JUMP JUMPDEST PUSH2 0x19E4 DUP2 PUSH2 0x1D21 JUMP JUMPDEST DUP3 MSTORE POP POP JUMP JUMPDEST PUSH1 0x0 PUSH2 0x19F6 DUP3 DUP5 PUSH2 0x1848 JUMP JUMPDEST SWAP2 POP DUP2 SWAP1 POP SWAP3 SWAP2 POP POP JUMP JUMPDEST PUSH1 0x0 PUSH2 0x1A0D DUP3 DUP5 PUSH2 0x1879 JUMP JUMPDEST SWAP2 POP DUP2 SWAP1 POP SWAP3 SWAP2 POP POP JUMP JUMPDEST PUSH1 0x0 PUSH1 0x20 DUP3 ADD SWAP1 POP PUSH2 0x1A2D PUSH1 0x0 DUP4 ADD DUP5 PUSH2 0x1734 JUMP JUMPDEST SWAP3 SWAP2 POP POP JUMP JUMPDEST PUSH1 0x0 PUSH1 0x40 DUP3 ADD SWAP1 POP PUSH2 0x1A48 PUSH1 0x0 DUP4 ADD DUP6 PUSH2 0x1734 JUMP JUMPDEST DUP2 DUP2 SUB PUSH1 0x20 DUP4 ADD MSTORE PUSH2 0x1A5A DUP2 DUP5 PUSH2 0x180F JUMP JUMPDEST SWAP1 POP SWAP4 SWAP3 POP POP POP JUMP JUMPDEST PUSH1 0x0 PUSH1 0x20 DUP3 ADD SWAP1 POP DUP2 DUP2 SUB PUSH1 0x0 DUP4 ADD MSTORE PUSH2 0x1A7D DUP2 DUP5 PUSH2 0x1743 JUMP JUMPDEST SWAP1 POP SWAP3 SWAP2 POP POP JUMP JUMPDEST PUSH1 0x0 PUSH1 0x80 DUP3 ADD SWAP1 POP PUSH2 0x1A9A PUSH1 0x0 DUP4 ADD DUP8 PUSH2 0x17B8 JUMP JUMPDEST DUP2 DUP2 SUB PUSH1 0x20 DUP4 ADD MSTORE PUSH2 0x1AAC DUP2 DUP7 PUSH2 0x180F JUMP JUMPDEST SWAP1 POP PUSH2 0x1ABB PUSH1 0x40 DUP4 ADD DUP6 PUSH2 0x1734 JUMP JUMPDEST PUSH2 0x1AC8 PUSH1 0x60 DUP4 ADD DUP5 PUSH2 0x17B8 JUMP JUMPDEST SWAP6 SWAP5 POP POP POP POP POP JUMP JUMPDEST PUSH1 0x0 PUSH1 0x20 DUP3 ADD SWAP1 POP PUSH2 0x1AE6 PUSH1 0x0 DUP4 ADD DUP5 PUSH2 0x17C7 JUMP JUMPDEST SWAP3 SWAP2 POP POP JUMP JUMPDEST PUSH1 0x0 PUSH1 0x20 DUP3 ADD SWAP1 POP DUP2 DUP2 SUB PUSH1 0x0 DUP4 ADD MSTORE PUSH2 0x1B06 DUP2 DUP5 PUSH2 0x180F JUMP JUMPDEST SWAP1 POP SWAP3 SWAP2 POP POP JUMP JUMPDEST PUSH1 0x0 PUSH1 0x80 DUP3 ADD SWAP1 POP DUP2 DUP2 SUB PUSH1 0x0 DUP4 ADD MSTORE PUSH2 0x1B28 DUP2 DUP8 PUSH2 0x180F JUMP JUMPDEST SWAP1 POP PUSH2 0x1B37 PUSH1 0x20 DUP4 ADD DUP7 PUSH2 0x1734 JUMP JUMPDEST PUSH2 0x1B44 PUSH1 0x40 DUP4 ADD DUP6 PUSH2 0x19DB JUMP JUMPDEST DUP2 DUP2 SUB PUSH1 0x60 DUP4 ADD MSTORE PUSH2 0x1B56 DUP2 DUP5 PUSH2 0x180F JUMP JUMPDEST SWAP1 POP SWAP6 SWAP5 POP POP POP POP POP JUMP JUMPDEST PUSH1 0x0 PUSH1 0x20 DUP3 ADD SWAP1 POP DUP2 DUP2 SUB PUSH1 0x0 DUP4 ADD MSTORE PUSH2 0x1B7B DUP2 DUP5 PUSH2 0x1962 JUMP JUMPDEST SWAP1 POP SWAP3 SWAP2 POP POP JUMP JUMPDEST PUSH1 0x0 PUSH1 0x20 DUP3 ADD SWAP1 POP PUSH2 0x1B98 PUSH1 0x0 DUP4 ADD DUP5 PUSH2 0x19DB JUMP JUMPDEST SWAP3 SWAP2 POP POP JUMP JUMPDEST PUSH1 0x0 PUSH2 0x1BA8 PUSH2 0x1BB9 JUMP JUMPDEST SWAP1 POP PUSH2 0x1BB4 DUP3 DUP3 PUSH2 0x1DB1 JUMP JUMPDEST SWAP2 SWAP1 POP JUMP JUMPDEST PUSH1 0x0 PUSH1 0x40 MLOAD SWAP1 POP SWAP1 JUMP JUMPDEST PUSH1 0x0 PUSH8 0xFFFFFFFFFFFFFFFF DUP3 GT ISZERO PUSH2 0x1BDE JUMPI PUSH2 0x1BDD PUSH2 0x1EE7 JUMP JUMPDEST JUMPDEST PUSH2 0x1BE7 DUP3 PUSH2 0x1F2A JUMP JUMPDEST SWAP1 POP PUSH1 0x20 DUP2 ADD SWAP1 POP SWAP2 SWAP1 POP JUMP JUMPDEST PUSH1 0x0 DUP2 SWAP1 POP PUSH1 0x20 DUP3 ADD SWAP1 POP SWAP2 SWAP1 POP JUMP JUMPDEST PUSH1 0x0 DUP2 SWAP1 POP DUP2 PUSH1 0x0 MSTORE PUSH1 0x20 PUSH1 0x0 KECCAK256 SWAP1 POP SWAP2 SWAP1 POP JUMP JUMPDEST PUSH1 0x0 DUP2 MLOAD SWAP1 POP SWAP2 SWAP1 POP JUMP JUMPDEST PUSH1 0x0 DUP2 MLOAD SWAP1 POP SWAP2 SWAP1 POP JUMP JUMPDEST PUSH1 0x0 PUSH1 0x20 DUP3 ADD SWAP1 POP SWAP2 SWAP1 POP JUMP JUMPDEST PUSH1 0x0 DUP3 DUP3 MSTORE PUSH1 0x20 DUP3 ADD SWAP1 POP SWAP3 SWAP2 POP POP JUMP JUMPDEST PUSH1 0x0 DUP3 DUP3 MSTORE PUSH1 0x20 DUP3 ADD SWAP1 POP SWAP3 SWAP2 POP POP JUMP JUMPDEST PUSH1 0x0 DUP3 DUP3 MSTORE PUSH1 0x20 DUP3 ADD SWAP1 POP SWAP3 SWAP2 POP POP JUMP JUMPDEST PUSH1 0x0 DUP2 SWAP1 POP SWAP3 SWAP2 POP POP JUMP JUMPDEST PUSH1 0x0 PUSH2 0x1C85 DUP3 PUSH2 0x1D21 JUMP JUMPDEST SWAP2 POP PUSH2 0x1C90 DUP4 PUSH2 0x1D21 JUMP JUMPDEST SWAP3 POP DUP3 PUSH32 0xFFFFFFFFFFFFFFFFFFFFFFFFFFFFFFFFFFFFFFFFFFFFFFFFFFFFFFFFFFFFFFFF SUB DUP3 GT ISZERO PUSH2 0x1CC5 JUMPI PUSH2 0x1CC4 PUSH2 0x1E2B JUMP JUMPDEST JUMPDEST DUP3 DUP3 ADD SWAP1 POP SWAP3 SWAP2 POP POP JUMP JUMPDEST PUSH1 0x0 PUSH2 0x1CDB DUP3 PUSH2 0x1D01 JUMP JUMPDEST SWAP1 POP SWAP2 SWAP1 POP JUMP JUMPDEST PUSH1 0x0 DUP2 ISZERO ISZERO SWAP1 POP SWAP2 SWAP1 POP JUMP JUMPDEST PUSH1 0x0 DUP2 SWAP1 POP PUSH2 0x1CFC DUP3 PUSH2 0x1F3B JUMP JUMPDEST SWAP2 SWAP1 POP JUMP JUMPDEST PUSH1 0x0 PUSH20 0xFFFFFFFFFFFFFFFFFFFFFFFFFFFFFFFFFFFFFFFF DUP3 AND SWAP1 POP SWAP2 SWAP1 POP JUMP JUMPDEST PUSH1 0x0 DUP2 SWAP1 POP SWAP2 SWAP1 POP JUMP JUMPDEST PUSH1 0x0 PUSH2 0x1D36 DUP3 PUSH2 0x1CEE JUMP JUMPDEST SWAP1 POP SWAP2 SWAP1 POP JUMP JUMPDEST DUP3 DUP2 DUP4 CALLDATACOPY PUSH1 0x0 DUP4 DUP4 ADD MSTORE POP POP POP JUMP JUMPDEST PUSH1 0x0 JUMPDEST DUP4 DUP2 LT ISZERO PUSH2 0x1D6A JUMPI DUP1 DUP3 ADD MLOAD DUP2 DUP5 ADD MSTORE PUSH1 0x20 DUP2 ADD SWAP1 POP PUSH2 0x1D4F JUMP JUMPDEST DUP4 DUP2 GT ISZERO PUSH2 0x1D79 JUMPI PUSH1 0x0 DUP5 DUP5 ADD MSTORE JUMPDEST POP POP POP POP JUMP JUMPDEST PUSH1 0x0 PUSH1 0x2 DUP3 DIV SWAP1 POP PUSH1 0x1 DUP3 AND DUP1 PUSH2 0x1D97 JUMPI PUSH1 0x7F DUP3 AND SWAP2 POP JUMPDEST PUSH1 0x20 DUP3 LT DUP2 EQ ISZERO PUSH2 0x1DAB JUMPI PUSH2 0x1DAA PUSH2 0x1E89 JUMP JUMPDEST JUMPDEST POP SWAP2 SWAP1 POP JUMP JUMPDEST PUSH2 0x1DBA DUP3 PUSH2 0x1F2A JUMP JUMPDEST DUP2 ADD DUP2 DUP2 LT PUSH8 0xFFFFFFFFFFFFFFFF DUP3 GT OR ISZERO PUSH2 0x1DD9 JUMPI PUSH2 0x1DD8 PUSH2 0x1EE7 JUMP JUMPDEST JUMPDEST DUP1 PUSH1 0x40 MSTORE POP POP POP JUMP JUMPDEST PUSH1 0x0 PUSH2 0x1DED DUP3 PUSH2 0x1D21 JUMP JUMPDEST SWAP2 POP PUSH32 0xFFFFFFFFFFFFFFFFFFFFFFFFFFFFFFFFFFFFFFFFFFFFFFFFFFFFFFFFFFFFFFFF DUP3 EQ ISZERO PUSH2 0x1E20 JUMPI PUSH2 0x1E1F PUSH2 0x1E2B JUMP JUMPDEST JUMPDEST PUSH1 0x1 DUP3 ADD SWAP1 POP SWAP2 SWAP1 POP JUMP JUMPDEST PUSH32 0x4E487B7100000000000000000000000000000000000000000000000000000000 PUSH1 0x0 MSTORE PUSH1 0x11 PUSH1 0x4 MSTORE PUSH1 0x24 PUSH1 0x0 REVERT JUMPDEST PUSH32 0x4E487B7100000000000000000000000000000000000000000000000000000000 PUSH1 0x0 MSTORE PUSH1 0x21 PUSH1 0x4 MSTORE PUSH1 0x24 PUSH1 0x0 REVERT JUMPDEST PUSH32 0x4E487B7100000000000000000000000000000000000000000000000000000000 PUSH1 0x0 MSTORE PUSH1 0x22 PUSH1 0x4 MSTORE PUSH1 0x24 PUSH1 0x0 REVERT JUMPDEST PUSH32 0x4E487B7100000000000000000000000000000000000000000000000000000000 PUSH1 0x0 MSTORE PUSH1 0x32 PUSH1 0x4 MSTORE PUSH1 0x24 PUSH1 0x0 REVERT JUMPDEST PUSH32 0x4E487B7100000000000000000000000000000000000000000000000000000000 PUSH1 0x0 MSTORE PUSH1 0x41 PUSH1 0x4 MSTORE PUSH1 0x24 PUSH1 0x0 REVERT JUMPDEST PUSH1 0x0 DUP1 REVERT JUMPDEST PUSH1 0x0 DUP1 REVERT JUMPDEST PUSH1 0x0 DUP1 REVERT JUMPDEST PUSH1 0x0 DUP1 REVERT JUMPDEST PUSH1 0x0 PUSH1 0x1F NOT PUSH1 0x1F DUP4 ADD AND SWAP1 POP SWAP2 SWAP1 POP JUMP JUMPDEST PUSH1 0x3 DUP2 LT PUSH2 0x1F4C JUMPI PUSH2 0x1F4B PUSH2 0x1E5A JUMP JUMPDEST JUMPDEST POP JUMP JUMPDEST PUSH2 0x1F58 DUP2 PUSH2 0x1CD0 JUMP JUMPDEST DUP2 EQ PUSH2 0x1F63 JUMPI PUSH1 0x0 DUP1 REVERT JUMPDEST POP JUMP JUMPDEST PUSH2 0x1F6F DUP2 PUSH2 0x1D21 JUMP JUMPDEST DUP2 EQ PUSH2 0x1F7A JUMPI PUSH1 0x0 DUP1 REVERT JUMPDEST POP JUMP INVALID LOG2 PUSH5 0x6970667358 0x22 SLT KECCAK256 DUP2 0xA9 0xD9 0xCD 0xC4 CODECOPY LOG2 0x4E JUMPI 0xB8 0xBC 0x2E DUP3 DUP1 ADD PUSH5 0x6F76560EAC 0xB6 SWAP16 GAS REVERT DIV SWAP6 0xA9 0xCD PUSH31 0x810E64736F6C63430008070033000000000000000000000000000000000000 "
				},
				"gasEstimates": {
					"creation": {
						"codeDepositCost": "1623000",
						"executionCost": "infinite",
						"totalCost": "infinite"
					},
					"external": {
						"AddressToVote(address)": "infinite",
						"AddressToVoter(address)": "infinite",
						"CandidateList(uint256)": "infinite",
						"ElectionName()": "infinite",
						"OragnizerAddress()": "2653",
						"SymbolToCandidate(string)": "infinite",
						"VoterList(uint256)": "2863",
						"addCandidates(address,string,string)": "infinite",
						"addVoter(address,string)": "infinite",
						"candidatesCount()": "2474",
						"getCandidate(string)": "infinite",
						"getCandidates()": "infinite",
						"makeVote(string)": "infinite",
						"state()": "2604",
						"symbolToVotes(string)": "infinite",
						"totalVoters()": "2518",
						"totalVotes()": "2497"
					}
				},
				"methodIdentifiers": {
					"AddressToVote(address)": "27d9f76c",
					"AddressToVoter(address)": "12c06342",
					"CandidateList(uint256)": "72753be5",
					"ElectionName()": "80843e25",
					"OragnizerAddress()": "8949e009",
					"SymbolToCandidate(string)": "46702b16",
					"VoterList(uint256)": "03a0d535",
					"addCandidates(address,string,string)": "62c49251",
					"addVoter(address,string)": "d9e95a98",
					"candidatesCount()": "2d35a8a2",
					"getCandidate(string)": "f276669d",
					"getCandidates()": "06a49fce",
					"makeVote(string)": "ef002423",
					"state()": "c19d93fb",
					"symbolToVotes(string)": "abf715fa",
					"totalVoters()": "5f5300ff",
					"totalVotes()": "0d15fd77"
				}
			},
			"storageLayout": {
				"storage": [
					{
						"astId": 29,
						"contract": "Voting/contracts/Voting.sol:Voting",
						"label": "AddressToVoter",
						"offset": 0,
						"slot": "0",
						"type": "t_mapping(t_address,t_struct(Voter)10_storage)"
					},
					{
						"astId": 34,
						"contract": "Voting/contracts/Voting.sol:Voting",
						"label": "AddressToVote",
						"offset": 0,
						"slot": "1",
						"type": "t_mapping(t_address,t_struct(Vote)15_storage)"
					},
					{
						"astId": 39,
						"contract": "Voting/contracts/Voting.sol:Voting",
						"label": "Votes",
						"offset": 0,
						"slot": "2",
						"type": "t_mapping(t_uint256,t_struct(Vote)15_storage)"
					},
					{
						"astId": 43,
						"contract": "Voting/contracts/Voting.sol:Voting",
						"label": "VoterList",
						"offset": 0,
						"slot": "3",
						"type": "t_mapping(t_uint256,t_address)"
					},
					{
						"astId": 47,
						"contract": "Voting/contracts/Voting.sol:Voting",
						"label": "CandidateList",
						"offset": 0,
						"slot": "4",
						"type": "t_mapping(t_uint256,t_string_storage)"
					},
					{
						"astId": 52,
						"contract": "Voting/contracts/Voting.sol:Voting",
						"label": "SymbolToCandidate",
						"offset": 0,
						"slot": "5",
						"type": "t_mapping(t_string_memory_ptr,t_struct(Candidate)24_storage)"
					},
					{
						"astId": 56,
						"contract": "Voting/contracts/Voting.sol:Voting",
						"label": "symbolToVotes",
						"offset": 0,
						"slot": "6",
						"type": "t_mapping(t_string_memory_ptr,t_uint256)"
					},
					{
						"astId": 58,
						"contract": "Voting/contracts/Voting.sol:Voting",
						"label": "candidatesCount",
						"offset": 0,
						"slot": "7",
						"type": "t_uint256"
					},
					{
						"astId": 60,
						"contract": "Voting/contracts/Voting.sol:Voting",
						"label": "totalVoters",
						"offset": 0,
						"slot": "8",
						"type": "t_uint256"
					},
					{
						"astId": 62,
						"contract": "Voting/contracts/Voting.sol:Voting",
						"label": "totalVotes",
						"offset": 0,
						"slot": "9",
						"type": "t_uint256"
					},
					{
						"astId": 69,
						"contract": "Voting/contracts/Voting.sol:Voting",
						"label": "state",
						"offset": 0,
						"slot": "10",
						"type": "t_enum(State)66"
					},
					{
						"astId": 71,
						"contract": "Voting/contracts/Voting.sol:Voting",
						"label": "OragnizerAddress",
						"offset": 1,
						"slot": "10",
						"type": "t_address"
					},
					{
						"astId": 73,
						"contract": "Voting/contracts/Voting.sol:Voting",
						"label": "ElectionName",
						"offset": 0,
						"slot": "11",
						"type": "t_string_storage"
					}
				],
				"types": {
					"t_address": {
						"encoding": "inplace",
						"label": "address",
						"numberOfBytes": "20"
					},
					"t_bool": {
						"encoding": "inplace",
						"label": "bool",
						"numberOfBytes": "1"
					},
					"t_enum(State)66": {
						"encoding": "inplace",
						"label": "enum Voting.State",
						"numberOfBytes": "1"
					},
					"t_mapping(t_address,t_struct(Vote)15_storage)": {
						"encoding": "mapping",
						"key": "t_address",
						"label": "mapping(address => struct Voting.Vote)",
						"numberOfBytes": "32",
						"value": "t_struct(Vote)15_storage"
					},
					"t_mapping(t_address,t_struct(Voter)10_storage)": {
						"encoding": "mapping",
						"key": "t_address",
						"label": "mapping(address => struct Voting.Voter)",
						"numberOfBytes": "32",
						"value": "t_struct(Voter)10_storage"
					},
					"t_mapping(t_string_memory_ptr,t_struct(Candidate)24_storage)": {
						"encoding": "mapping",
						"key": "t_string_memory_ptr",
						"label": "mapping(string => struct Voting.Candidate)",
						"numberOfBytes": "32",
						"value": "t_struct(Candidate)24_storage"
					},
					"t_mapping(t_string_memory_ptr,t_uint256)": {
						"encoding": "mapping",
						"key": "t_string_memory_ptr",
						"label": "mapping(string => uint256)",
						"numberOfBytes": "32",
						"value": "t_uint256"
					},
					"t_mapping(t_uint256,t_address)": {
						"encoding": "mapping",
						"key": "t_uint256",
						"label": "mapping(uint256 => address)",
						"numberOfBytes": "32",
						"value": "t_address"
					},
					"t_mapping(t_uint256,t_string_storage)": {
						"encoding": "mapping",
						"key": "t_uint256",
						"label": "mapping(uint256 => string)",
						"numberOfBytes": "32",
						"value": "t_string_storage"
					},
					"t_mapping(t_uint256,t_struct(Vote)15_storage)": {
						"encoding": "mapping",
						"key": "t_uint256",
						"label": "mapping(uint256 => struct Voting.Vote)",
						"numberOfBytes": "32",
						"value": "t_struct(Vote)15_storage"
					},
					"t_string_memory_ptr": {
						"encoding": "bytes",
						"label": "string",
						"numberOfBytes": "32"
					},
					"t_string_storage": {
						"encoding": "bytes",
						"label": "string",
						"numberOfBytes": "32"
					},
					"t_struct(Candidate)24_storage": {
						"encoding": "inplace",
						"label": "struct Voting.Candidate",
						"members": [
							{
								"astId": 17,
								"contract": "Voting/contracts/Voting.sol:Voting",
								"label": "candidateName",
								"offset": 0,
								"slot": "0",
								"type": "t_string_storage"
							},
							{
								"astId": 19,
								"contract": "Voting/contracts/Voting.sol:Voting",
								"label": "candidateAddress",
								"offset": 0,
								"slot": "1",
								"type": "t_address"
							},
							{
								"astId": 21,
								"contract": "Voting/contracts/Voting.sol:Voting",
								"label": "numberOfVotes",
								"offset": 0,
								"slot": "2",
								"type": "t_uint256"
							},
							{
								"astId": 23,
								"contract": "Voting/contracts/Voting.sol:Voting",
								"label": "symbol",
								"offset": 0,
								"slot": "3",
								"type": "t_string_storage"
							}
						],
						"numberOfBytes": "128"
					},
					"t_struct(Vote)15_storage": {
						"encoding": "inplace",
						"label": "struct Voting.Vote",
						"members": [
							{
								"astId": 12,
								"contract": "Voting/contracts/Voting.sol:Voting",
								"label": "voterAddress",
								"offset": 0,
								"slot": "0",
								"type": "t_address"
							},
							{
								"astId": 14,
								"contract": "Voting/contracts/Voting.sol:Voting",
								"label": "symbol",
								"offset": 0,
								"slot": "1",
								"type": "t_string_storage"
							}
						],
						"numberOfBytes": "64"
					},
					"t_struct(Voter)10_storage": {
						"encoding": "inplace",
						"label": "struct Voting.Voter",
						"members": [
							{
								"astId": 3,
								"contract": "Voting/contracts/Voting.sol:Voting",
								"label": "isAVoter",
								"offset": 0,
								"slot": "0",
								"type": "t_bool"
							},
							{
								"astId": 5,
								"contract": "Voting/contracts/Voting.sol:Voting",
								"label": "voterName",
								"offset": 0,
								"slot": "1",
								"type": "t_string_storage"
							},
							{
								"astId": 7,
								"contract": "Voting/contracts/Voting.sol:Voting",
								"label": "voterAddress",
								"offset": 0,
								"slot": "2",
								"type": "t_address"
							},
							{
								"astId": 9,
								"contract": "Voting/contracts/Voting.sol:Voting",
								"label": "voted",
								"offset": 20,
								"slot": "2",
								"type": "t_bool"
							}
						],
						"numberOfBytes": "96"
					},
					"t_uint256": {
						"encoding": "inplace",
						"label": "uint256",
						"numberOfBytes": "32"
					}
				}
			},
			"userdoc": {
				"kind": "user",
				"methods": {},
				"version": 1
			}
		}
	}
}