{
	"contracts/Voting.sol": {
		"Voting": {
			"abi": [
				{
					"inputs": [
						{
							"internalType": "string",
							"name": "_electionName",
							"type": "string"
						}
					],
					"stateMutability": "nonpayable",
					"type": "constructor"
				},
				{
					"inputs": [
						{
							"internalType": "address",
							"name": "",
							"type": "address"
						}
					],
					"name": "AddressToVoter",
					"outputs": [
						{
							"internalType": "string",
							"name": "voterName",
							"type": "string"
						},
						{
							"internalType": "bool",
							"name": "voted",
							"type": "bool"
						}
					],
					"stateMutability": "view",
					"type": "function"
				},
				{
					"inputs": [
						{
							"internalType": "uint256",
							"name": "",
							"type": "uint256"
						}
					],
					"name": "CandidateList",
					"outputs": [
						{
							"internalType": "string",
							"name": "candidateName",
							"type": "string"
						},
						{
							"internalType": "address",
							"name": "candidateAddress",
							"type": "address"
						},
						{
							"internalType": "uint256",
							"name": "numberOfVotes",
							"type": "uint256"
						},
						{
							"internalType": "string",
							"name": "symbol",
							"type": "string"
						}
					],
					"stateMutability": "view",
					"type": "function"
				},
				{
					"inputs": [],
					"name": "ElectionName",
					"outputs": [
						{
							"internalType": "string",
							"name": "",
							"type": "string"
						}
					],
					"stateMutability": "view",
					"type": "function"
				},
				{
					"inputs": [],
					"name": "OragnizerAddress",
					"outputs": [
						{
							"internalType": "address",
							"name": "",
							"type": "address"
						}
					],
					"stateMutability": "view",
					"type": "function"
				},
				{
					"inputs": [
						{
							"internalType": "string",
							"name": "",
							"type": "string"
						}
					],
					"name": "SymbolToCandidate",
					"outputs": [
						{
							"internalType": "string",
							"name": "candidateName",
							"type": "string"
						},
						{
							"internalType": "address",
							"name": "candidateAddress",
							"type": "address"
						},
						{
							"internalType": "uint256",
							"name": "numberOfVotes",
							"type": "uint256"
						},
						{
							"internalType": "string",
							"name": "symbol",
							"type": "string"
						}
					],
					"stateMutability": "view",
					"type": "function"
				},
				{
					"inputs": [
						{
							"internalType": "uint256",
							"name": "",
							"type": "uint256"
						}
					],
					"name": "VoteCount",
					"outputs": [
						{
							"internalType": "uint256",
							"name": "",
							"type": "uint256"
						}
					],
					"stateMutability": "view",
					"type": "function"
				},
				{
					"inputs": [
						{
							"internalType": "address",
							"name": "_candidateAddress",
							"type": "address"
						},
						{
							"internalType": "string",
							"name": "_candidateName",
							"type": "string"
						}
					],
					"name": "addCandidates",
					"outputs": [],
					"stateMutability": "nonpayable",
					"type": "function"
				},
				{
					"inputs": [
						{
							"internalType": "address",
							"name": "_voterAddress",
							"type": "address"
						},
						{
							"internalType": "string",
							"name": "_voterName",
							"type": "string"
						}
					],
					"name": "addVoter",
					"outputs": [],
					"stateMutability": "nonpayable",
					"type": "function"
				},
				{
					"inputs": [],
					"name": "candidatesCount",
					"outputs": [
						{
							"internalType": "uint256",
							"name": "",
							"type": "uint256"
						}
					],
					"stateMutability": "view",
					"type": "function"
				},
				{
					"inputs": [],
					"name": "state",
					"outputs": [
						{
							"internalType": "enum Voting.State",
							"name": "",
							"type": "uint8"
						}
					],
					"stateMutability": "view",
					"type": "function"
				},
				{
					"inputs": [],
					"name": "totalVoters",
					"outputs": [
						{
							"internalType": "uint256",
							"name": "",
							"type": "uint256"
						}
					],
					"stateMutability": "view",
					"type": "function"
				},
				{
					"inputs": [],
					"name": "totalVotes",
					"outputs": [
						{
							"internalType": "uint256",
							"name": "",
							"type": "uint256"
						}
					],
					"stateMutability": "view",
					"type": "function"
				}
			],
			"devdoc": {
				"kind": "dev",
				"methods": {},
				"version": 1
			},
			"evm": {
				"assembly": "    /* \"contracts/Voting.sol\":62:1816  contract Voting {\r... */\n  mstore(0x40, 0x80)\n    /* \"contracts/Voting.sol\":930:1095  constructor(string memory _electionName){\r... */\n  callvalue\n  dup1\n  iszero\n  tag_1\n  jumpi\n  0x00\n  dup1\n  revert\ntag_1:\n  pop\n  mload(0x40)\n  sub(codesize, bytecodeSize)\n  dup1\n  bytecodeSize\n  dup4\n  codecopy\n  dup2\n  dup2\n  add\n  0x40\n  mstore\n  dup2\n  add\n  swap1\n  tag_2\n  swap2\n  swap1\n  tag_3\n  jump\t// in\ntag_2:\n    /* \"contracts/Voting.sol\":1000:1010  msg.sender */\n  caller\n    /* \"contracts/Voting.sol\":981:997  OragnizerAddress */\n  0x08\n  0x01\n    /* \"contracts/Voting.sol\":981:1010  OragnizerAddress = msg.sender */\n  0x0100\n  exp\n  dup2\n  sload\n  dup2\n  0xffffffffffffffffffffffffffffffffffffffff\n  mul\n  not\n  and\n  swap1\n  dup4\n  0xffffffffffffffffffffffffffffffffffffffff\n  and\n  mul\n  or\n  swap1\n  sstore\n  pop\n    /* \"contracts/Voting.sol\":1036:1049  _electionName */\n  dup1\n    /* \"contracts/Voting.sol\":1021:1033  ElectionName */\n  0x09\n    /* \"contracts/Voting.sol\":1021:1049  ElectionName = _electionName */\n  swap1\n  dup1\n  mload\n  swap1\n  0x20\n  add\n  swap1\n  tag_6\n  swap3\n  swap2\n  swap1\n  tag_7\n  jump\t// in\ntag_6:\n  pop\n    /* \"contracts/Voting.sol\":1070:1083  State.Created */\n  0x00\n    /* \"contracts/Voting.sol\":1062:1067  state */\n  0x08\n  0x00\n    /* \"contracts/Voting.sol\":1062:1083  state = State.Created */\n  0x0100\n  exp\n  dup2\n  sload\n  dup2\n  0xff\n  mul\n  not\n  and\n  swap1\n  dup4\n  0x02\n  dup2\n  gt\n  iszero\n  tag_8\n  jumpi\n  tag_9\n  tag_10\n  jump\t// in\ntag_9:\ntag_8:\n  mul\n  or\n  swap1\n  sstore\n  pop\n    /* \"contracts/Voting.sol\":930:1095  constructor(string memory _electionName){\r... */\n  pop\n    /* \"contracts/Voting.sol\":62:1816  contract Voting {\r... */\n  jump(tag_11)\ntag_7:\n  dup3\n  dup1\n  sload\n  tag_12\n  swap1\n  tag_13\n  jump\t// in\ntag_12:\n  swap1\n  0x00\n  mstore\n  keccak256(0x00, 0x20)\n  swap1\n  0x1f\n  add\n  0x20\n  swap1\n  div\n  dup2\n  add\n  swap3\n  dup3\n  tag_15\n  jumpi\n  0x00\n  dup6\n  sstore\n  jump(tag_14)\ntag_15:\n  dup3\n  0x1f\n  lt\n  tag_16\n  jumpi\n  dup1\n  mload\n  not(0xff)\n  and\n  dup4\n  dup1\n  add\n  or\n  dup6\n  sstore\n  jump(tag_14)\ntag_16:\n  dup3\n  dup1\n  add\n  0x01\n  add\n  dup6\n  sstore\n  dup3\n  iszero\n  tag_14\n  jumpi\n  swap2\n  dup3\n  add\ntag_17:\n  dup3\n  dup2\n  gt\n  iszero\n  tag_18\n  jumpi\n  dup3\n  mload\n  dup3\n  sstore\n  swap2\n  0x20\n  add\n  swap2\n  swap1\n  0x01\n  add\n  swap1\n  jump(tag_17)\ntag_18:\ntag_14:\n  pop\n  swap1\n  pop\n  tag_19\n  swap2\n  swap1\n  tag_20\n  jump\t// in\ntag_19:\n  pop\n  swap1\n  jump\t// out\ntag_20:\ntag_21:\n  dup1\n  dup3\n  gt\n  iszero\n  tag_22\n  jumpi\n  0x00\n  dup2\n  0x00\n  swap1\n  sstore\n  pop\n  0x01\n  add\n  jump(tag_21)\ntag_22:\n  pop\n  swap1\n  jump\t// out\n    /* \"#utility.yul\":7:428   */\ntag_24:\n    /* \"#utility.yul\":96:101   */\n  0x00\n    /* \"#utility.yul\":121:187   */\n  tag_26\n    /* \"#utility.yul\":137:186   */\n  tag_27\n    /* \"#utility.yul\":179:185   */\n  dup5\n    /* \"#utility.yul\":137:186   */\n  tag_28\n  jump\t// in\ntag_27:\n    /* \"#utility.yul\":121:187   */\n  tag_29\n  jump\t// in\ntag_26:\n    /* \"#utility.yul\":112:187   */\n  swap1\n  pop\n    /* \"#utility.yul\":210:216   */\n  dup3\n    /* \"#utility.yul\":203:208   */\n  dup2\n    /* \"#utility.yul\":196:217   */\n  mstore\n    /* \"#utility.yul\":248:252   */\n  0x20\n    /* \"#utility.yul\":241:246   */\n  dup2\n    /* \"#utility.yul\":237:253   */\n  add\n    /* \"#utility.yul\":286:289   */\n  dup5\n    /* \"#utility.yul\":277:283   */\n  dup5\n    /* \"#utility.yul\":272:275   */\n  dup5\n    /* \"#utility.yul\":268:284   */\n  add\n    /* \"#utility.yul\":265:290   */\n  gt\n    /* \"#utility.yul\":262:374   */\n  iszero\n  tag_30\n  jumpi\n    /* \"#utility.yul\":293:372   */\n  tag_31\n  tag_32\n  jump\t// in\ntag_31:\n    /* \"#utility.yul\":262:374   */\ntag_30:\n    /* \"#utility.yul\":383:422   */\n  tag_33\n    /* \"#utility.yul\":415:421   */\n  dup5\n    /* \"#utility.yul\":410:413   */\n  dup3\n    /* \"#utility.yul\":405:408   */\n  dup6\n    /* \"#utility.yul\":383:422   */\n  tag_34\n  jump\t// in\ntag_33:\n    /* \"#utility.yul\":102:428   */\n  pop\n    /* \"#utility.yul\":7:428   */\n  swap4\n  swap3\n  pop\n  pop\n  pop\n  jump\t// out\n    /* \"#utility.yul\":448:803   */\ntag_35:\n    /* \"#utility.yul\":515:520   */\n  0x00\n    /* \"#utility.yul\":564:567   */\n  dup3\n    /* \"#utility.yul\":557:561   */\n  0x1f\n    /* \"#utility.yul\":549:555   */\n  dup4\n    /* \"#utility.yul\":545:562   */\n  add\n    /* \"#utility.yul\":541:568   */\n  slt\n    /* \"#utility.yul\":531:653   */\n  tag_37\n  jumpi\n    /* \"#utility.yul\":572:651   */\n  tag_38\n  tag_39\n  jump\t// in\ntag_38:\n    /* \"#utility.yul\":531:653   */\ntag_37:\n    /* \"#utility.yul\":682:688   */\n  dup2\n    /* \"#utility.yul\":676:689   */\n  mload\n    /* \"#utility.yul\":707:797   */\n  tag_40\n    /* \"#utility.yul\":793:796   */\n  dup5\n    /* \"#utility.yul\":785:791   */\n  dup3\n    /* \"#utility.yul\":778:782   */\n  0x20\n    /* \"#utility.yul\":770:776   */\n  dup7\n    /* \"#utility.yul\":766:783   */\n  add\n    /* \"#utility.yul\":707:797   */\n  tag_24\n  jump\t// in\ntag_40:\n    /* \"#utility.yul\":698:797   */\n  swap2\n  pop\n    /* \"#utility.yul\":521:803   */\n  pop\n    /* \"#utility.yul\":448:803   */\n  swap3\n  swap2\n  pop\n  pop\n  jump\t// out\n    /* \"#utility.yul\":809:1333   */\ntag_3:\n    /* \"#utility.yul\":889:895   */\n  0x00\n    /* \"#utility.yul\":938:940   */\n  0x20\n    /* \"#utility.yul\":926:935   */\n  dup3\n    /* \"#utility.yul\":917:924   */\n  dup5\n    /* \"#utility.yul\":913:936   */\n  sub\n    /* \"#utility.yul\":909:941   */\n  slt\n    /* \"#utility.yul\":906:1025   */\n  iszero\n  tag_42\n  jumpi\n    /* \"#utility.yul\":944:1023   */\n  tag_43\n  tag_44\n  jump\t// in\ntag_43:\n    /* \"#utility.yul\":906:1025   */\ntag_42:\n    /* \"#utility.yul\":1085:1086   */\n  0x00\n    /* \"#utility.yul\":1074:1083   */\n  dup3\n    /* \"#utility.yul\":1070:1087   */\n  add\n    /* \"#utility.yul\":1064:1088   */\n  mload\n    /* \"#utility.yul\":1115:1133   */\n  0xffffffffffffffff\n    /* \"#utility.yul\":1107:1113   */\n  dup2\n    /* \"#utility.yul\":1104:1134   */\n  gt\n    /* \"#utility.yul\":1101:1218   */\n  iszero\n  tag_45\n  jumpi\n    /* \"#utility.yul\":1137:1216   */\n  tag_46\n  tag_47\n  jump\t// in\ntag_46:\n    /* \"#utility.yul\":1101:1218   */\ntag_45:\n    /* \"#utility.yul\":1242:1316   */\n  tag_48\n    /* \"#utility.yul\":1308:1315   */\n  dup5\n    /* \"#utility.yul\":1299:1305   */\n  dup3\n    /* \"#utility.yul\":1288:1297   */\n  dup6\n    /* \"#utility.yul\":1284:1306   */\n  add\n    /* \"#utility.yul\":1242:1316   */\n  tag_35\n  jump\t// in\ntag_48:\n    /* \"#utility.yul\":1232:1316   */\n  swap2\n  pop\n    /* \"#utility.yul\":1035:1326   */\n  pop\n    /* \"#utility.yul\":809:1333   */\n  swap3\n  swap2\n  pop\n  pop\n  jump\t// out\n    /* \"#utility.yul\":1339:1468   */\ntag_29:\n    /* \"#utility.yul\":1373:1379   */\n  0x00\n    /* \"#utility.yul\":1400:1420   */\n  tag_50\n  tag_51\n  jump\t// in\ntag_50:\n    /* \"#utility.yul\":1390:1420   */\n  swap1\n  pop\n    /* \"#utility.yul\":1429:1462   */\n  tag_52\n    /* \"#utility.yul\":1457:1461   */\n  dup3\n    /* \"#utility.yul\":1449:1455   */\n  dup3\n    /* \"#utility.yul\":1429:1462   */\n  tag_53\n  jump\t// in\ntag_52:\n    /* \"#utility.yul\":1339:1468   */\n  swap2\n  swap1\n  pop\n  jump\t// out\n    /* \"#utility.yul\":1474:1549   */\ntag_51:\n    /* \"#utility.yul\":1507:1513   */\n  0x00\n    /* \"#utility.yul\":1540:1542   */\n  0x40\n    /* \"#utility.yul\":1534:1543   */\n  mload\n    /* \"#utility.yul\":1524:1543   */\n  swap1\n  pop\n    /* \"#utility.yul\":1474:1549   */\n  swap1\n  jump\t// out\n    /* \"#utility.yul\":1555:1863   */\ntag_28:\n    /* \"#utility.yul\":1617:1621   */\n  0x00\n    /* \"#utility.yul\":1707:1725   */\n  0xffffffffffffffff\n    /* \"#utility.yul\":1699:1705   */\n  dup3\n    /* \"#utility.yul\":1696:1726   */\n  gt\n    /* \"#utility.yul\":1693:1749   */\n  iszero\n  tag_56\n  jumpi\n    /* \"#utility.yul\":1729:1747   */\n  tag_57\n  tag_58\n  jump\t// in\ntag_57:\n    /* \"#utility.yul\":1693:1749   */\ntag_56:\n    /* \"#utility.yul\":1767:1796   */\n  tag_59\n    /* \"#utility.yul\":1789:1795   */\n  dup3\n    /* \"#utility.yul\":1767:1796   */\n  tag_60\n  jump\t// in\ntag_59:\n    /* \"#utility.yul\":1759:1796   */\n  swap1\n  pop\n    /* \"#utility.yul\":1851:1855   */\n  0x20\n    /* \"#utility.yul\":1845:1849   */\n  dup2\n    /* \"#utility.yul\":1841:1856   */\n  add\n    /* \"#utility.yul\":1833:1856   */\n  swap1\n  pop\n    /* \"#utility.yul\":1555:1863   */\n  swap2\n  swap1\n  pop\n  jump\t// out\n    /* \"#utility.yul\":1869:2176   */\ntag_34:\n    /* \"#utility.yul\":1937:1938   */\n  0x00\n    /* \"#utility.yul\":1947:2060   */\ntag_62:\n    /* \"#utility.yul\":1961:1967   */\n  dup4\n    /* \"#utility.yul\":1958:1959   */\n  dup2\n    /* \"#utility.yul\":1955:1968   */\n  lt\n    /* \"#utility.yul\":1947:2060   */\n  iszero\n  tag_64\n  jumpi\n    /* \"#utility.yul\":2046:2047   */\n  dup1\n    /* \"#utility.yul\":2041:2044   */\n  dup3\n    /* \"#utility.yul\":2037:2048   */\n  add\n    /* \"#utility.yul\":2031:2049   */\n  mload\n    /* \"#utility.yul\":2027:2028   */\n  dup2\n    /* \"#utility.yul\":2022:2025   */\n  dup5\n    /* \"#utility.yul\":2018:2029   */\n  add\n    /* \"#utility.yul\":2011:2050   */\n  mstore\n    /* \"#utility.yul\":1983:1985   */\n  0x20\n    /* \"#utility.yul\":1980:1981   */\n  dup2\n    /* \"#utility.yul\":1976:1986   */\n  add\n    /* \"#utility.yul\":1971:1986   */\n  swap1\n  pop\n    /* \"#utility.yul\":1947:2060   */\n  jump(tag_62)\ntag_64:\n    /* \"#utility.yul\":2078:2084   */\n  dup4\n    /* \"#utility.yul\":2075:2076   */\n  dup2\n    /* \"#utility.yul\":2072:2085   */\n  gt\n    /* \"#utility.yul\":2069:2170   */\n  iszero\n  tag_65\n  jumpi\n    /* \"#utility.yul\":2158:2159   */\n  0x00\n    /* \"#utility.yul\":2149:2155   */\n  dup5\n    /* \"#utility.yul\":2144:2147   */\n  dup5\n    /* \"#utility.yul\":2140:2156   */\n  add\n    /* \"#utility.yul\":2133:2160   */\n  mstore\n    /* \"#utility.yul\":2069:2170   */\ntag_65:\n    /* \"#utility.yul\":1918:2176   */\n  pop\n    /* \"#utility.yul\":1869:2176   */\n  pop\n  pop\n  pop\n  jump\t// out\n    /* \"#utility.yul\":2182:2502   */\ntag_13:\n    /* \"#utility.yul\":2226:2232   */\n  0x00\n    /* \"#utility.yul\":2263:2264   */\n  0x02\n    /* \"#utility.yul\":2257:2261   */\n  dup3\n    /* \"#utility.yul\":2253:2265   */\n  div\n    /* \"#utility.yul\":2243:2265   */\n  swap1\n  pop\n    /* \"#utility.yul\":2310:2311   */\n  0x01\n    /* \"#utility.yul\":2304:2308   */\n  dup3\n    /* \"#utility.yul\":2300:2312   */\n  and\n    /* \"#utility.yul\":2331:2349   */\n  dup1\n    /* \"#utility.yul\":2321:2402   */\n  tag_67\n  jumpi\n    /* \"#utility.yul\":2387:2391   */\n  0x7f\n    /* \"#utility.yul\":2379:2385   */\n  dup3\n    /* \"#utility.yul\":2375:2392   */\n  and\n    /* \"#utility.yul\":2365:2392   */\n  swap2\n  pop\n    /* \"#utility.yul\":2321:2402   */\ntag_67:\n    /* \"#utility.yul\":2449:2451   */\n  0x20\n    /* \"#utility.yul\":2441:2447   */\n  dup3\n    /* \"#utility.yul\":2438:2452   */\n  lt\n    /* \"#utility.yul\":2418:2436   */\n  dup2\n    /* \"#utility.yul\":2415:2453   */\n  eq\n    /* \"#utility.yul\":2412:2496   */\n  iszero\n  tag_68\n  jumpi\n    /* \"#utility.yul\":2468:2486   */\n  tag_69\n  tag_70\n  jump\t// in\ntag_69:\n    /* \"#utility.yul\":2412:2496   */\ntag_68:\n    /* \"#utility.yul\":2233:2502   */\n  pop\n    /* \"#utility.yul\":2182:2502   */\n  swap2\n  swap1\n  pop\n  jump\t// out\n    /* \"#utility.yul\":2508:2789   */\ntag_53:\n    /* \"#utility.yul\":2591:2618   */\n  tag_72\n    /* \"#utility.yul\":2613:2617   */\n  dup3\n    /* \"#utility.yul\":2591:2618   */\n  tag_60\n  jump\t// in\ntag_72:\n    /* \"#utility.yul\":2583:2589   */\n  dup2\n    /* \"#utility.yul\":2579:2619   */\n  add\n    /* \"#utility.yul\":2721:2727   */\n  dup2\n    /* \"#utility.yul\":2709:2719   */\n  dup2\n    /* \"#utility.yul\":2706:2728   */\n  lt\n    /* \"#utility.yul\":2685:2703   */\n  0xffffffffffffffff\n    /* \"#utility.yul\":2673:2683   */\n  dup3\n    /* \"#utility.yul\":2670:2704   */\n  gt\n    /* \"#utility.yul\":2667:2729   */\n  or\n    /* \"#utility.yul\":2664:2752   */\n  iszero\n  tag_73\n  jumpi\n    /* \"#utility.yul\":2732:2750   */\n  tag_74\n  tag_58\n  jump\t// in\ntag_74:\n    /* \"#utility.yul\":2664:2752   */\ntag_73:\n    /* \"#utility.yul\":2772:2782   */\n  dup1\n    /* \"#utility.yul\":2768:2770   */\n  0x40\n    /* \"#utility.yul\":2761:2783   */\n  mstore\n    /* \"#utility.yul\":2551:2789   */\n  pop\n    /* \"#utility.yul\":2508:2789   */\n  pop\n  pop\n  jump\t// out\n    /* \"#utility.yul\":2795:2975   */\ntag_10:\n    /* \"#utility.yul\":2843:2920   */\n  0x4e487b7100000000000000000000000000000000000000000000000000000000\n    /* \"#utility.yul\":2840:2841   */\n  0x00\n    /* \"#utility.yul\":2833:2921   */\n  mstore\n    /* \"#utility.yul\":2940:2944   */\n  0x21\n    /* \"#utility.yul\":2937:2938   */\n  0x04\n    /* \"#utility.yul\":2930:2945   */\n  mstore\n    /* \"#utility.yul\":2964:2968   */\n  0x24\n    /* \"#utility.yul\":2961:2962   */\n  0x00\n    /* \"#utility.yul\":2954:2969   */\n  revert\n    /* \"#utility.yul\":2981:3161   */\ntag_70:\n    /* \"#utility.yul\":3029:3106   */\n  0x4e487b7100000000000000000000000000000000000000000000000000000000\n    /* \"#utility.yul\":3026:3027   */\n  0x00\n    /* \"#utility.yul\":3019:3107   */\n  mstore\n    /* \"#utility.yul\":3126:3130   */\n  0x22\n    /* \"#utility.yul\":3123:3124   */\n  0x04\n    /* \"#utility.yul\":3116:3131   */\n  mstore\n    /* \"#utility.yul\":3150:3154   */\n  0x24\n    /* \"#utility.yul\":3147:3148   */\n  0x00\n    /* \"#utility.yul\":3140:3155   */\n  revert\n    /* \"#utility.yul\":3167:3347   */\ntag_58:\n    /* \"#utility.yul\":3215:3292   */\n  0x4e487b7100000000000000000000000000000000000000000000000000000000\n    /* \"#utility.yul\":3212:3213   */\n  0x00\n    /* \"#utility.yul\":3205:3293   */\n  mstore\n    /* \"#utility.yul\":3312:3316   */\n  0x41\n    /* \"#utility.yul\":3309:3310   */\n  0x04\n    /* \"#utility.yul\":3302:3317   */\n  mstore\n    /* \"#utility.yul\":3336:3340   */\n  0x24\n    /* \"#utility.yul\":3333:3334   */\n  0x00\n    /* \"#utility.yul\":3326:3341   */\n  revert\n    /* \"#utility.yul\":3353:3470   */\ntag_39:\n    /* \"#utility.yul\":3462:3463   */\n  0x00\n    /* \"#utility.yul\":3459:3460   */\n  dup1\n    /* \"#utility.yul\":3452:3464   */\n  revert\n    /* \"#utility.yul\":3476:3593   */\ntag_32:\n    /* \"#utility.yul\":3585:3586   */\n  0x00\n    /* \"#utility.yul\":3582:3583   */\n  dup1\n    /* \"#utility.yul\":3575:3587   */\n  revert\n    /* \"#utility.yul\":3599:3716   */\ntag_47:\n    /* \"#utility.yul\":3708:3709   */\n  0x00\n    /* \"#utility.yul\":3705:3706   */\n  dup1\n    /* \"#utility.yul\":3698:3710   */\n  revert\n    /* \"#utility.yul\":3722:3839   */\ntag_44:\n    /* \"#utility.yul\":3831:3832   */\n  0x00\n    /* \"#utility.yul\":3828:3829   */\n  dup1\n    /* \"#utility.yul\":3821:3833   */\n  revert\n    /* \"#utility.yul\":3845:3947   */\ntag_60:\n    /* \"#utility.yul\":3886:3892   */\n  0x00\n    /* \"#utility.yul\":3937:3939   */\n  0x1f\n    /* \"#utility.yul\":3933:3940   */\n  not\n    /* \"#utility.yul\":3928:3930   */\n  0x1f\n    /* \"#utility.yul\":3921:3926   */\n  dup4\n    /* \"#utility.yul\":3917:3931   */\n  add\n    /* \"#utility.yul\":3913:3941   */\n  and\n    /* \"#utility.yul\":3903:3941   */\n  swap1\n  pop\n    /* \"#utility.yul\":3845:3947   */\n  swap2\n  swap1\n  pop\n  jump\t// out\n    /* \"contracts/Voting.sol\":62:1816  contract Voting {\r... */\ntag_11:\n  dataSize(sub_0)\n  dup1\n  dataOffset(sub_0)\n  0x00\n  codecopy\n  0x00\n  return\nstop\n\nsub_0: assembly {\n        /* \"contracts/Voting.sol\":62:1816  contract Voting {\r... */\n      mstore(0x40, 0x80)\n      callvalue\n      dup1\n      iszero\n      tag_1\n      jumpi\n      0x00\n      dup1\n      revert\n    tag_1:\n      pop\n      jumpi(tag_2, lt(calldatasize, 0x04))\n      shr(0xe0, calldataload(0x00))\n      dup1\n      0x72753be5\n      gt\n      tag_15\n      jumpi\n      dup1\n      0x72753be5\n      eq\n      tag_9\n      jumpi\n      dup1\n      0x7f611349\n      eq\n      tag_10\n      jumpi\n      dup1\n      0x80843e25\n      eq\n      tag_11\n      jumpi\n      dup1\n      0x8949e009\n      eq\n      tag_12\n      jumpi\n      dup1\n      0xc19d93fb\n      eq\n      tag_13\n      jumpi\n      dup1\n      0xd9e95a98\n      eq\n      tag_14\n      jumpi\n      jump(tag_2)\n    tag_15:\n      dup1\n      0x0132be09\n      eq\n      tag_3\n      jumpi\n      dup1\n      0x0d15fd77\n      eq\n      tag_4\n      jumpi\n      dup1\n      0x12c06342\n      eq\n      tag_5\n      jumpi\n      dup1\n      0x2d35a8a2\n      eq\n      tag_6\n      jumpi\n      dup1\n      0x46702b16\n      eq\n      tag_7\n      jumpi\n      dup1\n      0x5f5300ff\n      eq\n      tag_8\n      jumpi\n    tag_2:\n      0x00\n      dup1\n      revert\n        /* \"contracts/Voting.sol\":495:540  mapping (uint256 => uint256) public VoteCount */\n    tag_3:\n      tag_16\n      0x04\n      dup1\n      calldatasize\n      sub\n      dup2\n      add\n      swap1\n      tag_17\n      swap2\n      swap1\n      tag_18\n      jump\t// in\n    tag_17:\n      tag_19\n      jump\t// in\n    tag_16:\n      mload(0x40)\n      tag_20\n      swap2\n      swap1\n      tag_21\n      jump\t// in\n    tag_20:\n      mload(0x40)\n      dup1\n      swap2\n      sub\n      swap1\n      return\n        /* \"contracts/Voting.sol\":744:769  uint256 public totalVotes */\n    tag_4:\n      tag_22\n      tag_23\n      jump\t// in\n    tag_22:\n      mload(0x40)\n      tag_24\n      swap2\n      swap1\n      tag_21\n      jump\t// in\n    tag_24:\n      mload(0x40)\n      dup1\n      swap2\n      sub\n      swap1\n      return\n        /* \"contracts/Voting.sol\":402:450  mapping (address => Voter) public AddressToVoter */\n    tag_5:\n      tag_25\n      0x04\n      dup1\n      calldatasize\n      sub\n      dup2\n      add\n      swap1\n      tag_26\n      swap2\n      swap1\n      tag_27\n      jump\t// in\n    tag_26:\n      tag_28\n      jump\t// in\n    tag_25:\n      mload(0x40)\n      tag_29\n      swap3\n      swap2\n      swap1\n      tag_30\n      jump\t// in\n    tag_29:\n      mload(0x40)\n      dup1\n      swap2\n      sub\n      swap1\n      return\n        /* \"contracts/Voting.sol\":670:700  uint256 public candidatesCount */\n    tag_6:\n      tag_31\n      tag_32\n      jump\t// in\n    tag_31:\n      mload(0x40)\n      tag_33\n      swap2\n      swap1\n      tag_21\n      jump\t// in\n    tag_33:\n      mload(0x40)\n      dup1\n      swap2\n      sub\n      swap1\n      return\n        /* \"contracts/Voting.sol\":605:659  mapping (string => Candidate) public SymbolToCandidate */\n    tag_7:\n      tag_34\n      0x04\n      dup1\n      calldatasize\n      sub\n      dup2\n      add\n      swap1\n      tag_35\n      swap2\n      swap1\n      tag_36\n      jump\t// in\n    tag_35:\n      tag_37\n      jump\t// in\n    tag_34:\n      mload(0x40)\n      tag_38\n      swap5\n      swap4\n      swap3\n      swap2\n      swap1\n      tag_39\n      jump\t// in\n    tag_38:\n      mload(0x40)\n      dup1\n      swap2\n      sub\n      swap1\n      return\n        /* \"contracts/Voting.sol\":711:737  uint256 public totalVoters */\n    tag_8:\n      tag_40\n      tag_41\n      jump\t// in\n    tag_40:\n      mload(0x40)\n      tag_42\n      swap2\n      swap1\n      tag_21\n      jump\t// in\n    tag_42:\n      mload(0x40)\n      dup1\n      swap2\n      sub\n      swap1\n      return\n        /* \"contracts/Voting.sol\":547:598  mapping (uint256 => Candidate) public CandidateList */\n    tag_9:\n      tag_43\n      0x04\n      dup1\n      calldatasize\n      sub\n      dup2\n      add\n      swap1\n      tag_44\n      swap2\n      swap1\n      tag_18\n      jump\t// in\n    tag_44:\n      tag_45\n      jump\t// in\n    tag_43:\n      mload(0x40)\n      tag_46\n      swap5\n      swap4\n      swap3\n      swap2\n      swap1\n      tag_39\n      jump\t// in\n    tag_46:\n      mload(0x40)\n      dup1\n      swap2\n      sub\n      swap1\n      return\n        /* \"contracts/Voting.sol\":1103:1479  function addCandidates(address _candidateAddress, string memory _candidateName) public InState(State.Created) OfficialOnly{\r... */\n    tag_10:\n      tag_47\n      0x04\n      dup1\n      calldatasize\n      sub\n      dup2\n      add\n      swap1\n      tag_48\n      swap2\n      swap1\n      tag_49\n      jump\t// in\n    tag_48:\n      tag_50\n      jump\t// in\n    tag_47:\n      stop\n        /* \"contracts/Voting.sol\":892:919  string public  ElectionName */\n    tag_11:\n      tag_51\n      tag_52\n      jump\t// in\n    tag_51:\n      mload(0x40)\n      tag_53\n      swap2\n      swap1\n      tag_54\n      jump\t// in\n    tag_53:\n      mload(0x40)\n      dup1\n      swap2\n      sub\n      swap1\n      return\n        /* \"contracts/Voting.sol\":848:879  address public OragnizerAddress */\n    tag_12:\n      tag_55\n      tag_56\n      jump\t// in\n    tag_55:\n      mload(0x40)\n      tag_57\n      swap2\n      swap1\n      tag_58\n      jump\t// in\n    tag_57:\n      mload(0x40)\n      dup1\n      swap2\n      sub\n      swap1\n      return\n        /* \"contracts/Voting.sol\":821:839  State public state */\n    tag_13:\n      tag_59\n      tag_60\n      jump\t// in\n    tag_59:\n      mload(0x40)\n      tag_61\n      swap2\n      swap1\n      tag_62\n      jump\t// in\n    tag_61:\n      mload(0x40)\n      dup1\n      swap2\n      sub\n      swap1\n      return\n        /* \"contracts/Voting.sol\":1489:1609  function addVoter(address _voterAddress, string memory _voterName) public InState(State.Created) OfficialOnly {\r... */\n    tag_14:\n      tag_63\n      0x04\n      dup1\n      calldatasize\n      sub\n      dup2\n      add\n      swap1\n      tag_64\n      swap2\n      swap1\n      tag_49\n      jump\t// in\n    tag_64:\n      tag_65\n      jump\t// in\n    tag_63:\n      stop\n        /* \"contracts/Voting.sol\":495:540  mapping (uint256 => uint256) public VoteCount */\n    tag_19:\n      mstore(0x20, 0x02)\n      dup1\n      0x00\n      mstore\n      keccak256(0x00, 0x40)\n      0x00\n      swap2\n      pop\n      swap1\n      pop\n      sload\n      dup2\n      jump\t// out\n        /* \"contracts/Voting.sol\":744:769  uint256 public totalVotes */\n    tag_23:\n      sload(0x07)\n      dup2\n      jump\t// out\n        /* \"contracts/Voting.sol\":402:450  mapping (address => Voter) public AddressToVoter */\n    tag_28:\n      mstore(0x20, 0x00)\n      dup1\n      0x00\n      mstore\n      keccak256(0x00, 0x40)\n      0x00\n      swap2\n      pop\n      swap1\n      pop\n      dup1\n      0x00\n      add\n      dup1\n      sload\n      tag_66\n      swap1\n      tag_67\n      jump\t// in\n    tag_66:\n      dup1\n      0x1f\n      add\n      0x20\n      dup1\n      swap2\n      div\n      mul\n      0x20\n      add\n      mload(0x40)\n      swap1\n      dup2\n      add\n      0x40\n      mstore\n      dup1\n      swap3\n      swap2\n      swap1\n      dup2\n      dup2\n      mstore\n      0x20\n      add\n      dup3\n      dup1\n      sload\n      tag_68\n      swap1\n      tag_67\n      jump\t// in\n    tag_68:\n      dup1\n      iszero\n      tag_69\n      jumpi\n      dup1\n      0x1f\n      lt\n      tag_70\n      jumpi\n      0x0100\n      dup1\n      dup4\n      sload\n      div\n      mul\n      dup4\n      mstore\n      swap2\n      0x20\n      add\n      swap2\n      jump(tag_69)\n    tag_70:\n      dup3\n      add\n      swap2\n      swap1\n      0x00\n      mstore\n      keccak256(0x00, 0x20)\n      swap1\n    tag_71:\n      dup2\n      sload\n      dup2\n      mstore\n      swap1\n      0x01\n      add\n      swap1\n      0x20\n      add\n      dup1\n      dup4\n      gt\n      tag_71\n      jumpi\n      dup3\n      swap1\n      sub\n      0x1f\n      and\n      dup3\n      add\n      swap2\n    tag_69:\n      pop\n      pop\n      pop\n      pop\n      pop\n      swap1\n      dup1\n      0x01\n      add\n      0x00\n      swap1\n      sload\n      swap1\n      0x0100\n      exp\n      swap1\n      div\n      0xff\n      and\n      swap1\n      pop\n      dup3\n      jump\t// out\n        /* \"contracts/Voting.sol\":670:700  uint256 public candidatesCount */\n    tag_32:\n      sload(0x05)\n      dup2\n      jump\t// out\n        /* \"contracts/Voting.sol\":605:659  mapping (string => Candidate) public SymbolToCandidate */\n    tag_37:\n      0x04\n      dup2\n      dup1\n      mload\n      0x20\n      dup2\n      add\n      dup3\n      add\n      dup1\n      mload\n      dup5\n      dup3\n      mstore\n      0x20\n      dup4\n      add\n      0x20\n      dup6\n      add\n      keccak256\n      dup2\n      dup4\n      mstore\n      dup1\n      swap6\n      pop\n      pop\n      pop\n      pop\n      pop\n      pop\n      0x00\n      swap2\n      pop\n      swap1\n      pop\n      dup1\n      0x00\n      add\n      dup1\n      sload\n      tag_72\n      swap1\n      tag_67\n      jump\t// in\n    tag_72:\n      dup1\n      0x1f\n      add\n      0x20\n      dup1\n      swap2\n      div\n      mul\n      0x20\n      add\n      mload(0x40)\n      swap1\n      dup2\n      add\n      0x40\n      mstore\n      dup1\n      swap3\n      swap2\n      swap1\n      dup2\n      dup2\n      mstore\n      0x20\n      add\n      dup3\n      dup1\n      sload\n      tag_73\n      swap1\n      tag_67\n      jump\t// in\n    tag_73:\n      dup1\n      iszero\n      tag_74\n      jumpi\n      dup1\n      0x1f\n      lt\n      tag_75\n      jumpi\n      0x0100\n      dup1\n      dup4\n      sload\n      div\n      mul\n      dup4\n      mstore\n      swap2\n      0x20\n      add\n      swap2\n      jump(tag_74)\n    tag_75:\n      dup3\n      add\n      swap2\n      swap1\n      0x00\n      mstore\n      keccak256(0x00, 0x20)\n      swap1\n    tag_76:\n      dup2\n      sload\n      dup2\n      mstore\n      swap1\n      0x01\n      add\n      swap1\n      0x20\n      add\n      dup1\n      dup4\n      gt\n      tag_76\n      jumpi\n      dup3\n      swap1\n      sub\n      0x1f\n      and\n      dup3\n      add\n      swap2\n    tag_74:\n      pop\n      pop\n      pop\n      pop\n      pop\n      swap1\n      dup1\n      0x01\n      add\n      0x00\n      swap1\n      sload\n      swap1\n      0x0100\n      exp\n      swap1\n      div\n      0xffffffffffffffffffffffffffffffffffffffff\n      and\n      swap1\n      dup1\n      0x02\n      add\n      sload\n      swap1\n      dup1\n      0x03\n      add\n      dup1\n      sload\n      tag_77\n      swap1\n      tag_67\n      jump\t// in\n    tag_77:\n      dup1\n      0x1f\n      add\n      0x20\n      dup1\n      swap2\n      div\n      mul\n      0x20\n      add\n      mload(0x40)\n      swap1\n      dup2\n      add\n      0x40\n      mstore\n      dup1\n      swap3\n      swap2\n      swap1\n      dup2\n      dup2\n      mstore\n      0x20\n      add\n      dup3\n      dup1\n      sload\n      tag_78\n      swap1\n      tag_67\n      jump\t// in\n    tag_78:\n      dup1\n      iszero\n      tag_79\n      jumpi\n      dup1\n      0x1f\n      lt\n      tag_80\n      jumpi\n      0x0100\n      dup1\n      dup4\n      sload\n      div\n      mul\n      dup4\n      mstore\n      swap2\n      0x20\n      add\n      swap2\n      jump(tag_79)\n    tag_80:\n      dup3\n      add\n      swap2\n      swap1\n      0x00\n      mstore\n      keccak256(0x00, 0x20)\n      swap1\n    tag_81:\n      dup2\n      sload\n      dup2\n      mstore\n      swap1\n      0x01\n      add\n      swap1\n      0x20\n      add\n      dup1\n      dup4\n      gt\n      tag_81\n      jumpi\n      dup3\n      swap1\n      sub\n      0x1f\n      and\n      dup3\n      add\n      swap2\n    tag_79:\n      pop\n      pop\n      pop\n      pop\n      pop\n      swap1\n      pop\n      dup5\n      jump\t// out\n        /* \"contracts/Voting.sol\":711:737  uint256 public totalVoters */\n    tag_41:\n      sload(0x06)\n      dup2\n      jump\t// out\n        /* \"contracts/Voting.sol\":547:598  mapping (uint256 => Candidate) public CandidateList */\n    tag_45:\n      mstore(0x20, 0x03)\n      dup1\n      0x00\n      mstore\n      keccak256(0x00, 0x40)\n      0x00\n      swap2\n      pop\n      swap1\n      pop\n      dup1\n      0x00\n      add\n      dup1\n      sload\n      tag_82\n      swap1\n      tag_67\n      jump\t// in\n    tag_82:\n      dup1\n      0x1f\n      add\n      0x20\n      dup1\n      swap2\n      div\n      mul\n      0x20\n      add\n      mload(0x40)\n      swap1\n      dup2\n      add\n      0x40\n      mstore\n      dup1\n      swap3\n      swap2\n      swap1\n      dup2\n      dup2\n      mstore\n      0x20\n      add\n      dup3\n      dup1\n      sload\n      tag_83\n      swap1\n      tag_67\n      jump\t// in\n    tag_83:\n      dup1\n      iszero\n      tag_84\n      jumpi\n      dup1\n      0x1f\n      lt\n      tag_85\n      jumpi\n      0x0100\n      dup1\n      dup4\n      sload\n      div\n      mul\n      dup4\n      mstore\n      swap2\n      0x20\n      add\n      swap2\n      jump(tag_84)\n    tag_85:\n      dup3\n      add\n      swap2\n      swap1\n      0x00\n      mstore\n      keccak256(0x00, 0x20)\n      swap1\n    tag_86:\n      dup2\n      sload\n      dup2\n      mstore\n      swap1\n      0x01\n      add\n      swap1\n      0x20\n      add\n      dup1\n      dup4\n      gt\n      tag_86\n      jumpi\n      dup3\n      swap1\n      sub\n      0x1f\n      and\n      dup3\n      add\n      swap2\n    tag_84:\n      pop\n      pop\n      pop\n      pop\n      pop\n      swap1\n      dup1\n      0x01\n      add\n      0x00\n      swap1\n      sload\n      swap1\n      0x0100\n      exp\n      swap1\n      div\n      0xffffffffffffffffffffffffffffffffffffffff\n      and\n      swap1\n      dup1\n      0x02\n      add\n      sload\n      swap1\n      dup1\n      0x03\n      add\n      dup1\n      sload\n      tag_87\n      swap1\n      tag_67\n      jump\t// in\n    tag_87:\n      dup1\n      0x1f\n      add\n      0x20\n      dup1\n      swap2\n      div\n      mul\n      0x20\n      add\n      mload(0x40)\n      swap1\n      dup2\n      add\n      0x40\n      mstore\n      dup1\n      swap3\n      swap2\n      swap1\n      dup2\n      dup2\n      mstore\n      0x20\n      add\n      dup3\n      dup1\n      sload\n      tag_88\n      swap1\n      tag_67\n      jump\t// in\n    tag_88:\n      dup1\n      iszero\n      tag_89\n      jumpi\n      dup1\n      0x1f\n      lt\n      tag_90\n      jumpi\n      0x0100\n      dup1\n      dup4\n      sload\n      div\n      mul\n      dup4\n      mstore\n      swap2\n      0x20\n      add\n      swap2\n      jump(tag_89)\n    tag_90:\n      dup3\n      add\n      swap2\n      swap1\n      0x00\n      mstore\n      keccak256(0x00, 0x20)\n      swap1\n    tag_91:\n      dup2\n      sload\n      dup2\n      mstore\n      swap1\n      0x01\n      add\n      swap1\n      0x20\n      add\n      dup1\n      dup4\n      gt\n      tag_91\n      jumpi\n      dup3\n      swap1\n      sub\n      0x1f\n      and\n      dup3\n      add\n      swap2\n    tag_89:\n      pop\n      pop\n      pop\n      pop\n      pop\n      swap1\n      pop\n      dup5\n      jump\t// out\n        /* \"contracts/Voting.sol\":1103:1479  function addCandidates(address _candidateAddress, string memory _candidateName) public InState(State.Created) OfficialOnly{\r... */\n    tag_50:\n        /* \"contracts/Voting.sol\":1198:1211  State.Created */\n      0x00\n        /* \"contracts/Voting.sol\":1677:1683  _state */\n      dup1\n        /* \"contracts/Voting.sol\":1668:1683  state == _state */\n      0x02\n      dup2\n      gt\n      iszero\n      tag_93\n      jumpi\n      tag_94\n      tag_95\n      jump\t// in\n    tag_94:\n    tag_93:\n        /* \"contracts/Voting.sol\":1668:1673  state */\n      0x08\n      0x00\n      swap1\n      sload\n      swap1\n      0x0100\n      exp\n      swap1\n      div\n      0xff\n      and\n        /* \"contracts/Voting.sol\":1668:1683  state == _state */\n      0x02\n      dup2\n      gt\n      iszero\n      tag_96\n      jumpi\n      tag_97\n      tag_95\n      jump\t// in\n    tag_97:\n    tag_96:\n      eq\n        /* \"contracts/Voting.sol\":1660:1684  require(state == _state) */\n      tag_98\n      jumpi\n      0x00\n      dup1\n      revert\n    tag_98:\n        /* \"contracts/Voting.sol\":1776:1786  msg.sender */\n      caller\n        /* \"contracts/Voting.sol\":1756:1786  OragnizerAddress == msg.sender */\n      0xffffffffffffffffffffffffffffffffffffffff\n      and\n        /* \"contracts/Voting.sol\":1756:1772  OragnizerAddress */\n      0x08\n      0x01\n      swap1\n      sload\n      swap1\n      0x0100\n      exp\n      swap1\n      div\n      0xffffffffffffffffffffffffffffffffffffffff\n      and\n        /* \"contracts/Voting.sol\":1756:1786  OragnizerAddress == msg.sender */\n      0xffffffffffffffffffffffffffffffffffffffff\n      and\n      eq\n        /* \"contracts/Voting.sol\":1747:1787  require( OragnizerAddress == msg.sender) */\n      tag_100\n      jumpi\n      0x00\n      dup1\n      revert\n    tag_100:\n        /* \"contracts/Voting.sol\":1236:1262  Candidate memory candidate */\n      tag_102\n      tag_103\n      jump\t// in\n    tag_102:\n        /* \"contracts/Voting.sol\":1302:1319  _candidateAddress */\n      dup4\n        /* \"contracts/Voting.sol\":1273:1282  candidate */\n      dup2\n        /* \"contracts/Voting.sol\":1273:1299  candidate.candidateAddress */\n      0x20\n      add\n        /* \"contracts/Voting.sol\":1273:1319  candidate.candidateAddress = _candidateAddress */\n      swap1\n      0xffffffffffffffffffffffffffffffffffffffff\n      and\n      swap1\n      dup2\n      0xffffffffffffffffffffffffffffffffffffffff\n      and\n      dup2\n      mstore\n      pop\n      pop\n        /* \"contracts/Voting.sol\":1356:1370  _candidateName */\n      dup3\n        /* \"contracts/Voting.sol\":1330:1339  candidate */\n      dup2\n        /* \"contracts/Voting.sol\":1330:1353  candidate.candidateName */\n      0x00\n      add\n        /* \"contracts/Voting.sol\":1330:1370  candidate.candidateName = _candidateName */\n      dup2\n      swap1\n      mstore\n      pop\n        /* \"contracts/Voting.sol\":1414:1423  candidate */\n      dup1\n        /* \"contracts/Voting.sol\":1381:1394  CandidateList */\n      0x03\n        /* \"contracts/Voting.sol\":1381:1411  CandidateList[candidatesCount] */\n      0x00\n        /* \"contracts/Voting.sol\":1395:1410  candidatesCount */\n      sload(0x05)\n        /* \"contracts/Voting.sol\":1381:1411  CandidateList[candidatesCount] */\n      dup2\n      mstore\n      0x20\n      add\n      swap1\n      dup2\n      mstore\n      0x20\n      add\n      0x00\n      keccak256\n        /* \"contracts/Voting.sol\":1381:1423  CandidateList[candidatesCount] = candidate */\n      0x00\n      dup3\n      add\n      mload\n      dup2\n      0x00\n      add\n      swap1\n      dup1\n      mload\n      swap1\n      0x20\n      add\n      swap1\n      tag_104\n      swap3\n      swap2\n      swap1\n      tag_105\n      jump\t// in\n    tag_104:\n      pop\n      0x20\n      dup3\n      add\n      mload\n      dup2\n      0x01\n      add\n      exp(0x0100, 0x00)\n      dup2\n      sload\n      dup2\n      0xffffffffffffffffffffffffffffffffffffffff\n      mul\n      not\n      and\n      swap1\n      dup4\n      0xffffffffffffffffffffffffffffffffffffffff\n      and\n      mul\n      or\n      swap1\n      sstore\n      pop\n      0x40\n      dup3\n      add\n      mload\n      dup2\n      0x02\n      add\n      sstore\n      0x60\n      dup3\n      add\n      mload\n      dup2\n      0x03\n      add\n      swap1\n      dup1\n      mload\n      swap1\n      0x20\n      add\n      swap1\n      tag_106\n      swap3\n      swap2\n      swap1\n      tag_105\n      jump\t// in\n    tag_106:\n      pop\n      swap1\n      pop\n      pop\n        /* \"contracts/Voting.sol\":1470:1471  1 */\n      0x01\n        /* \"contracts/Voting.sol\":1452:1467  candidatesCount */\n      sload(0x05)\n        /* \"contracts/Voting.sol\":1452:1471  candidatesCount + 1 */\n      tag_107\n      swap2\n      swap1\n      tag_108\n      jump\t// in\n    tag_107:\n        /* \"contracts/Voting.sol\":1434:1449  candidatesCount */\n      0x05\n        /* \"contracts/Voting.sol\":1434:1471  candidatesCount = candidatesCount + 1 */\n      dup2\n      swap1\n      sstore\n      pop\n        /* \"contracts/Voting.sol\":1225:1479  {\r... */\n      pop\n        /* \"contracts/Voting.sol\":1103:1479  function addCandidates(address _candidateAddress, string memory _candidateName) public InState(State.Created) OfficialOnly{\r... */\n      pop\n      pop\n      pop\n      jump\t// out\n        /* \"contracts/Voting.sol\":892:919  string public  ElectionName */\n    tag_52:\n      0x09\n      dup1\n      sload\n      tag_109\n      swap1\n      tag_67\n      jump\t// in\n    tag_109:\n      dup1\n      0x1f\n      add\n      0x20\n      dup1\n      swap2\n      div\n      mul\n      0x20\n      add\n      mload(0x40)\n      swap1\n      dup2\n      add\n      0x40\n      mstore\n      dup1\n      swap3\n      swap2\n      swap1\n      dup2\n      dup2\n      mstore\n      0x20\n      add\n      dup3\n      dup1\n      sload\n      tag_110\n      swap1\n      tag_67\n      jump\t// in\n    tag_110:\n      dup1\n      iszero\n      tag_111\n      jumpi\n      dup1\n      0x1f\n      lt\n      tag_112\n      jumpi\n      0x0100\n      dup1\n      dup4\n      sload\n      div\n      mul\n      dup4\n      mstore\n      swap2\n      0x20\n      add\n      swap2\n      jump(tag_111)\n    tag_112:\n      dup3\n      add\n      swap2\n      swap1\n      0x00\n      mstore\n      keccak256(0x00, 0x20)\n      swap1\n    tag_113:\n      dup2\n      sload\n      dup2\n      mstore\n      swap1\n      0x01\n      add\n      swap1\n      0x20\n      add\n      dup1\n      dup4\n      gt\n      tag_113\n      jumpi\n      dup3\n      swap1\n      sub\n      0x1f\n      and\n      dup3\n      add\n      swap2\n    tag_111:\n      pop\n      pop\n      pop\n      pop\n      pop\n      dup2\n      jump\t// out\n        /* \"contracts/Voting.sol\":848:879  address public OragnizerAddress */\n    tag_56:\n      0x08\n      0x01\n      swap1\n      sload\n      swap1\n      0x0100\n      exp\n      swap1\n      div\n      0xffffffffffffffffffffffffffffffffffffffff\n      and\n      dup2\n      jump\t// out\n        /* \"contracts/Voting.sol\":821:839  State public state */\n    tag_60:\n      0x08\n      0x00\n      swap1\n      sload\n      swap1\n      0x0100\n      exp\n      swap1\n      div\n      0xff\n      and\n      dup2\n      jump\t// out\n        /* \"contracts/Voting.sol\":1489:1609  function addVoter(address _voterAddress, string memory _voterName) public InState(State.Created) OfficialOnly {\r... */\n    tag_65:\n        /* \"contracts/Voting.sol\":1571:1584  State.Created */\n      0x00\n        /* \"contracts/Voting.sol\":1677:1683  _state */\n      dup1\n        /* \"contracts/Voting.sol\":1668:1683  state == _state */\n      0x02\n      dup2\n      gt\n      iszero\n      tag_115\n      jumpi\n      tag_116\n      tag_95\n      jump\t// in\n    tag_116:\n    tag_115:\n        /* \"contracts/Voting.sol\":1668:1673  state */\n      0x08\n      0x00\n      swap1\n      sload\n      swap1\n      0x0100\n      exp\n      swap1\n      div\n      0xff\n      and\n        /* \"contracts/Voting.sol\":1668:1683  state == _state */\n      0x02\n      dup2\n      gt\n      iszero\n      tag_117\n      jumpi\n      tag_118\n      tag_95\n      jump\t// in\n    tag_118:\n    tag_117:\n      eq\n        /* \"contracts/Voting.sol\":1660:1684  require(state == _state) */\n      tag_119\n      jumpi\n      0x00\n      dup1\n      revert\n    tag_119:\n        /* \"contracts/Voting.sol\":1776:1786  msg.sender */\n      caller\n        /* \"contracts/Voting.sol\":1756:1786  OragnizerAddress == msg.sender */\n      0xffffffffffffffffffffffffffffffffffffffff\n      and\n        /* \"contracts/Voting.sol\":1756:1772  OragnizerAddress */\n      0x08\n      0x01\n      swap1\n      sload\n      swap1\n      0x0100\n      exp\n      swap1\n      div\n      0xffffffffffffffffffffffffffffffffffffffff\n      and\n        /* \"contracts/Voting.sol\":1756:1786  OragnizerAddress == msg.sender */\n      0xffffffffffffffffffffffffffffffffffffffff\n      and\n      eq\n        /* \"contracts/Voting.sol\":1747:1787  require( OragnizerAddress == msg.sender) */\n      tag_121\n      jumpi\n      0x00\n      dup1\n      revert\n    tag_121:\n        /* \"contracts/Voting.sol\":1489:1609  function addVoter(address _voterAddress, string memory _voterName) public InState(State.Created) OfficialOnly {\r... */\n      pop\n      pop\n      pop\n      jump\t// out\n    tag_103:\n      mload(0x40)\n      dup1\n      0x80\n      add\n      0x40\n      mstore\n      dup1\n      0x60\n      dup2\n      mstore\n      0x20\n      add\n      and(0xffffffffffffffffffffffffffffffffffffffff, 0x00)\n      dup2\n      mstore\n      0x20\n      add\n      0x00\n      dup2\n      mstore\n      0x20\n      add\n      0x60\n      dup2\n      mstore\n      pop\n      swap1\n      jump\t// out\n    tag_105:\n      dup3\n      dup1\n      sload\n      tag_123\n      swap1\n      tag_67\n      jump\t// in\n    tag_123:\n      swap1\n      0x00\n      mstore\n      keccak256(0x00, 0x20)\n      swap1\n      0x1f\n      add\n      0x20\n      swap1\n      div\n      dup2\n      add\n      swap3\n      dup3\n      tag_125\n      jumpi\n      0x00\n      dup6\n      sstore\n      jump(tag_124)\n    tag_125:\n      dup3\n      0x1f\n      lt\n      tag_126\n      jumpi\n      dup1\n      mload\n      not(0xff)\n      and\n      dup4\n      dup1\n      add\n      or\n      dup6\n      sstore\n      jump(tag_124)\n    tag_126:\n      dup3\n      dup1\n      add\n      0x01\n      add\n      dup6\n      sstore\n      dup3\n      iszero\n      tag_124\n      jumpi\n      swap2\n      dup3\n      add\n    tag_127:\n      dup3\n      dup2\n      gt\n      iszero\n      tag_128\n      jumpi\n      dup3\n      mload\n      dup3\n      sstore\n      swap2\n      0x20\n      add\n      swap2\n      swap1\n      0x01\n      add\n      swap1\n      jump(tag_127)\n    tag_128:\n    tag_124:\n      pop\n      swap1\n      pop\n      tag_129\n      swap2\n      swap1\n      tag_130\n      jump\t// in\n    tag_129:\n      pop\n      swap1\n      jump\t// out\n    tag_130:\n    tag_131:\n      dup1\n      dup3\n      gt\n      iszero\n      tag_132\n      jumpi\n      0x00\n      dup2\n      0x00\n      swap1\n      sstore\n      pop\n      0x01\n      add\n      jump(tag_131)\n    tag_132:\n      pop\n      swap1\n      jump\t// out\n        /* \"#utility.yul\":7:419   */\n    tag_134:\n        /* \"#utility.yul\":85:90   */\n      0x00\n        /* \"#utility.yul\":110:176   */\n      tag_136\n        /* \"#utility.yul\":126:175   */\n      tag_137\n        /* \"#utility.yul\":168:174   */\n      dup5\n        /* \"#utility.yul\":126:175   */\n      tag_138\n      jump\t// in\n    tag_137:\n        /* \"#utility.yul\":110:176   */\n      tag_139\n      jump\t// in\n    tag_136:\n        /* \"#utility.yul\":101:176   */\n      swap1\n      pop\n        /* \"#utility.yul\":199:205   */\n      dup3\n        /* \"#utility.yul\":192:197   */\n      dup2\n        /* \"#utility.yul\":185:206   */\n      mstore\n        /* \"#utility.yul\":237:241   */\n      0x20\n        /* \"#utility.yul\":230:235   */\n      dup2\n        /* \"#utility.yul\":226:242   */\n      add\n        /* \"#utility.yul\":275:278   */\n      dup5\n        /* \"#utility.yul\":266:272   */\n      dup5\n        /* \"#utility.yul\":261:264   */\n      dup5\n        /* \"#utility.yul\":257:273   */\n      add\n        /* \"#utility.yul\":254:279   */\n      gt\n        /* \"#utility.yul\":251:363   */\n      iszero\n      tag_140\n      jumpi\n        /* \"#utility.yul\":282:361   */\n      tag_141\n      tag_142\n      jump\t// in\n    tag_141:\n        /* \"#utility.yul\":251:363   */\n    tag_140:\n        /* \"#utility.yul\":372:413   */\n      tag_143\n        /* \"#utility.yul\":406:412   */\n      dup5\n        /* \"#utility.yul\":401:404   */\n      dup3\n        /* \"#utility.yul\":396:399   */\n      dup6\n        /* \"#utility.yul\":372:413   */\n      tag_144\n      jump\t// in\n    tag_143:\n        /* \"#utility.yul\":91:419   */\n      pop\n        /* \"#utility.yul\":7:419   */\n      swap4\n      swap3\n      pop\n      pop\n      pop\n      jump\t// out\n        /* \"#utility.yul\":425:564   */\n    tag_145:\n        /* \"#utility.yul\":471:476   */\n      0x00\n        /* \"#utility.yul\":509:515   */\n      dup2\n        /* \"#utility.yul\":496:516   */\n      calldataload\n        /* \"#utility.yul\":487:516   */\n      swap1\n      pop\n        /* \"#utility.yul\":525:558   */\n      tag_147\n        /* \"#utility.yul\":552:557   */\n      dup2\n        /* \"#utility.yul\":525:558   */\n      tag_148\n      jump\t// in\n    tag_147:\n        /* \"#utility.yul\":425:564   */\n      swap3\n      swap2\n      pop\n      pop\n      jump\t// out\n        /* \"#utility.yul\":584:924   */\n    tag_149:\n        /* \"#utility.yul\":640:645   */\n      0x00\n        /* \"#utility.yul\":689:692   */\n      dup3\n        /* \"#utility.yul\":682:686   */\n      0x1f\n        /* \"#utility.yul\":674:680   */\n      dup4\n        /* \"#utility.yul\":670:687   */\n      add\n        /* \"#utility.yul\":666:693   */\n      slt\n        /* \"#utility.yul\":656:778   */\n      tag_151\n      jumpi\n        /* \"#utility.yul\":697:776   */\n      tag_152\n      tag_153\n      jump\t// in\n    tag_152:\n        /* \"#utility.yul\":656:778   */\n    tag_151:\n        /* \"#utility.yul\":814:820   */\n      dup2\n        /* \"#utility.yul\":801:821   */\n      calldataload\n        /* \"#utility.yul\":839:918   */\n      tag_154\n        /* \"#utility.yul\":914:917   */\n      dup5\n        /* \"#utility.yul\":906:912   */\n      dup3\n        /* \"#utility.yul\":899:903   */\n      0x20\n        /* \"#utility.yul\":891:897   */\n      dup7\n        /* \"#utility.yul\":887:904   */\n      add\n        /* \"#utility.yul\":839:918   */\n      tag_134\n      jump\t// in\n    tag_154:\n        /* \"#utility.yul\":830:918   */\n      swap2\n      pop\n        /* \"#utility.yul\":646:924   */\n      pop\n        /* \"#utility.yul\":584:924   */\n      swap3\n      swap2\n      pop\n      pop\n      jump\t// out\n        /* \"#utility.yul\":930:1069   */\n    tag_155:\n        /* \"#utility.yul\":976:981   */\n      0x00\n        /* \"#utility.yul\":1014:1020   */\n      dup2\n        /* \"#utility.yul\":1001:1021   */\n      calldataload\n        /* \"#utility.yul\":992:1021   */\n      swap1\n      pop\n        /* \"#utility.yul\":1030:1063   */\n      tag_157\n        /* \"#utility.yul\":1057:1062   */\n      dup2\n        /* \"#utility.yul\":1030:1063   */\n      tag_158\n      jump\t// in\n    tag_157:\n        /* \"#utility.yul\":930:1069   */\n      swap3\n      swap2\n      pop\n      pop\n      jump\t// out\n        /* \"#utility.yul\":1075:1404   */\n    tag_27:\n        /* \"#utility.yul\":1134:1140   */\n      0x00\n        /* \"#utility.yul\":1183:1185   */\n      0x20\n        /* \"#utility.yul\":1171:1180   */\n      dup3\n        /* \"#utility.yul\":1162:1169   */\n      dup5\n        /* \"#utility.yul\":1158:1181   */\n      sub\n        /* \"#utility.yul\":1154:1186   */\n      slt\n        /* \"#utility.yul\":1151:1270   */\n      iszero\n      tag_160\n      jumpi\n        /* \"#utility.yul\":1189:1268   */\n      tag_161\n      tag_162\n      jump\t// in\n    tag_161:\n        /* \"#utility.yul\":1151:1270   */\n    tag_160:\n        /* \"#utility.yul\":1309:1310   */\n      0x00\n        /* \"#utility.yul\":1334:1387   */\n      tag_163\n        /* \"#utility.yul\":1379:1386   */\n      dup5\n        /* \"#utility.yul\":1370:1376   */\n      dup3\n        /* \"#utility.yul\":1359:1368   */\n      dup6\n        /* \"#utility.yul\":1355:1377   */\n      add\n        /* \"#utility.yul\":1334:1387   */\n      tag_145\n      jump\t// in\n    tag_163:\n        /* \"#utility.yul\":1324:1387   */\n      swap2\n      pop\n        /* \"#utility.yul\":1280:1397   */\n      pop\n        /* \"#utility.yul\":1075:1404   */\n      swap3\n      swap2\n      pop\n      pop\n      jump\t// out\n        /* \"#utility.yul\":1410:2064   */\n    tag_49:\n        /* \"#utility.yul\":1488:1494   */\n      0x00\n        /* \"#utility.yul\":1496:1502   */\n      dup1\n        /* \"#utility.yul\":1545:1547   */\n      0x40\n        /* \"#utility.yul\":1533:1542   */\n      dup4\n        /* \"#utility.yul\":1524:1531   */\n      dup6\n        /* \"#utility.yul\":1520:1543   */\n      sub\n        /* \"#utility.yul\":1516:1548   */\n      slt\n        /* \"#utility.yul\":1513:1632   */\n      iszero\n      tag_165\n      jumpi\n        /* \"#utility.yul\":1551:1630   */\n      tag_166\n      tag_162\n      jump\t// in\n    tag_166:\n        /* \"#utility.yul\":1513:1632   */\n    tag_165:\n        /* \"#utility.yul\":1671:1672   */\n      0x00\n        /* \"#utility.yul\":1696:1749   */\n      tag_167\n        /* \"#utility.yul\":1741:1748   */\n      dup6\n        /* \"#utility.yul\":1732:1738   */\n      dup3\n        /* \"#utility.yul\":1721:1730   */\n      dup7\n        /* \"#utility.yul\":1717:1739   */\n      add\n        /* \"#utility.yul\":1696:1749   */\n      tag_145\n      jump\t// in\n    tag_167:\n        /* \"#utility.yul\":1686:1749   */\n      swap3\n      pop\n        /* \"#utility.yul\":1642:1759   */\n      pop\n        /* \"#utility.yul\":1826:1828   */\n      0x20\n        /* \"#utility.yul\":1815:1824   */\n      dup4\n        /* \"#utility.yul\":1811:1829   */\n      add\n        /* \"#utility.yul\":1798:1830   */\n      calldataload\n        /* \"#utility.yul\":1857:1875   */\n      0xffffffffffffffff\n        /* \"#utility.yul\":1849:1855   */\n      dup2\n        /* \"#utility.yul\":1846:1876   */\n      gt\n        /* \"#utility.yul\":1843:1960   */\n      iszero\n      tag_168\n      jumpi\n        /* \"#utility.yul\":1879:1958   */\n      tag_169\n      tag_170\n      jump\t// in\n    tag_169:\n        /* \"#utility.yul\":1843:1960   */\n    tag_168:\n        /* \"#utility.yul\":1984:2047   */\n      tag_171\n        /* \"#utility.yul\":2039:2046   */\n      dup6\n        /* \"#utility.yul\":2030:2036   */\n      dup3\n        /* \"#utility.yul\":2019:2028   */\n      dup7\n        /* \"#utility.yul\":2015:2037   */\n      add\n        /* \"#utility.yul\":1984:2047   */\n      tag_149\n      jump\t// in\n    tag_171:\n        /* \"#utility.yul\":1974:2047   */\n      swap2\n      pop\n        /* \"#utility.yul\":1769:2057   */\n      pop\n        /* \"#utility.yul\":1410:2064   */\n      swap3\n      pop\n      swap3\n      swap1\n      pop\n      jump\t// out\n        /* \"#utility.yul\":2070:2579   */\n    tag_36:\n        /* \"#utility.yul\":2139:2145   */\n      0x00\n        /* \"#utility.yul\":2188:2190   */\n      0x20\n        /* \"#utility.yul\":2176:2185   */\n      dup3\n        /* \"#utility.yul\":2167:2174   */\n      dup5\n        /* \"#utility.yul\":2163:2186   */\n      sub\n        /* \"#utility.yul\":2159:2191   */\n      slt\n        /* \"#utility.yul\":2156:2275   */\n      iszero\n      tag_173\n      jumpi\n        /* \"#utility.yul\":2194:2273   */\n      tag_174\n      tag_162\n      jump\t// in\n    tag_174:\n        /* \"#utility.yul\":2156:2275   */\n    tag_173:\n        /* \"#utility.yul\":2342:2343   */\n      0x00\n        /* \"#utility.yul\":2331:2340   */\n      dup3\n        /* \"#utility.yul\":2327:2344   */\n      add\n        /* \"#utility.yul\":2314:2345   */\n      calldataload\n        /* \"#utility.yul\":2372:2390   */\n      0xffffffffffffffff\n        /* \"#utility.yul\":2364:2370   */\n      dup2\n        /* \"#utility.yul\":2361:2391   */\n      gt\n        /* \"#utility.yul\":2358:2475   */\n      iszero\n      tag_175\n      jumpi\n        /* \"#utility.yul\":2394:2473   */\n      tag_176\n      tag_170\n      jump\t// in\n    tag_176:\n        /* \"#utility.yul\":2358:2475   */\n    tag_175:\n        /* \"#utility.yul\":2499:2562   */\n      tag_177\n        /* \"#utility.yul\":2554:2561   */\n      dup5\n        /* \"#utility.yul\":2545:2551   */\n      dup3\n        /* \"#utility.yul\":2534:2543   */\n      dup6\n        /* \"#utility.yul\":2530:2552   */\n      add\n        /* \"#utility.yul\":2499:2562   */\n      tag_149\n      jump\t// in\n    tag_177:\n        /* \"#utility.yul\":2489:2562   */\n      swap2\n      pop\n        /* \"#utility.yul\":2285:2572   */\n      pop\n        /* \"#utility.yul\":2070:2579   */\n      swap3\n      swap2\n      pop\n      pop\n      jump\t// out\n        /* \"#utility.yul\":2585:2914   */\n    tag_18:\n        /* \"#utility.yul\":2644:2650   */\n      0x00\n        /* \"#utility.yul\":2693:2695   */\n      0x20\n        /* \"#utility.yul\":2681:2690   */\n      dup3\n        /* \"#utility.yul\":2672:2679   */\n      dup5\n        /* \"#utility.yul\":2668:2691   */\n      sub\n        /* \"#utility.yul\":2664:2696   */\n      slt\n        /* \"#utility.yul\":2661:2780   */\n      iszero\n      tag_179\n      jumpi\n        /* \"#utility.yul\":2699:2778   */\n      tag_180\n      tag_162\n      jump\t// in\n    tag_180:\n        /* \"#utility.yul\":2661:2780   */\n    tag_179:\n        /* \"#utility.yul\":2819:2820   */\n      0x00\n        /* \"#utility.yul\":2844:2897   */\n      tag_181\n        /* \"#utility.yul\":2889:2896   */\n      dup5\n        /* \"#utility.yul\":2880:2886   */\n      dup3\n        /* \"#utility.yul\":2869:2878   */\n      dup6\n        /* \"#utility.yul\":2865:2887   */\n      add\n        /* \"#utility.yul\":2844:2897   */\n      tag_155\n      jump\t// in\n    tag_181:\n        /* \"#utility.yul\":2834:2897   */\n      swap2\n      pop\n        /* \"#utility.yul\":2790:2907   */\n      pop\n        /* \"#utility.yul\":2585:2914   */\n      swap3\n      swap2\n      pop\n      pop\n      jump\t// out\n        /* \"#utility.yul\":2920:3038   */\n    tag_182:\n        /* \"#utility.yul\":3007:3031   */\n      tag_184\n        /* \"#utility.yul\":3025:3030   */\n      dup2\n        /* \"#utility.yul\":3007:3031   */\n      tag_185\n      jump\t// in\n    tag_184:\n        /* \"#utility.yul\":3002:3005   */\n      dup3\n        /* \"#utility.yul\":2995:3032   */\n      mstore\n        /* \"#utility.yul\":2920:3038   */\n      pop\n      pop\n      jump\t// out\n        /* \"#utility.yul\":3044:3153   */\n    tag_186:\n        /* \"#utility.yul\":3125:3146   */\n      tag_188\n        /* \"#utility.yul\":3140:3145   */\n      dup2\n        /* \"#utility.yul\":3125:3146   */\n      tag_189\n      jump\t// in\n    tag_188:\n        /* \"#utility.yul\":3120:3123   */\n      dup3\n        /* \"#utility.yul\":3113:3147   */\n      mstore\n        /* \"#utility.yul\":3044:3153   */\n      pop\n      pop\n      jump\t// out\n        /* \"#utility.yul\":3159:3302   */\n    tag_190:\n        /* \"#utility.yul\":3252:3295   */\n      tag_192\n        /* \"#utility.yul\":3289:3294   */\n      dup2\n        /* \"#utility.yul\":3252:3295   */\n      tag_193\n      jump\t// in\n    tag_192:\n        /* \"#utility.yul\":3247:3250   */\n      dup3\n        /* \"#utility.yul\":3240:3296   */\n      mstore\n        /* \"#utility.yul\":3159:3302   */\n      pop\n      pop\n      jump\t// out\n        /* \"#utility.yul\":3308:3672   */\n    tag_194:\n        /* \"#utility.yul\":3396:3399   */\n      0x00\n        /* \"#utility.yul\":3424:3463   */\n      tag_196\n        /* \"#utility.yul\":3457:3462   */\n      dup3\n        /* \"#utility.yul\":3424:3463   */\n      tag_197\n      jump\t// in\n    tag_196:\n        /* \"#utility.yul\":3479:3550   */\n      tag_198\n        /* \"#utility.yul\":3543:3549   */\n      dup2\n        /* \"#utility.yul\":3538:3541   */\n      dup6\n        /* \"#utility.yul\":3479:3550   */\n      tag_199\n      jump\t// in\n    tag_198:\n        /* \"#utility.yul\":3472:3550   */\n      swap4\n      pop\n        /* \"#utility.yul\":3559:3611   */\n      tag_200\n        /* \"#utility.yul\":3604:3610   */\n      dup2\n        /* \"#utility.yul\":3599:3602   */\n      dup6\n        /* \"#utility.yul\":3592:3596   */\n      0x20\n        /* \"#utility.yul\":3585:3590   */\n      dup7\n        /* \"#utility.yul\":3581:3597   */\n      add\n        /* \"#utility.yul\":3559:3611   */\n      tag_201\n      jump\t// in\n    tag_200:\n        /* \"#utility.yul\":3636:3665   */\n      tag_202\n        /* \"#utility.yul\":3658:3664   */\n      dup2\n        /* \"#utility.yul\":3636:3665   */\n      tag_203\n      jump\t// in\n    tag_202:\n        /* \"#utility.yul\":3631:3634   */\n      dup5\n        /* \"#utility.yul\":3627:3666   */\n      add\n        /* \"#utility.yul\":3620:3666   */\n      swap2\n      pop\n        /* \"#utility.yul\":3400:3672   */\n      pop\n        /* \"#utility.yul\":3308:3672   */\n      swap3\n      swap2\n      pop\n      pop\n      jump\t// out\n        /* \"#utility.yul\":3678:3796   */\n    tag_204:\n        /* \"#utility.yul\":3765:3789   */\n      tag_206\n        /* \"#utility.yul\":3783:3788   */\n      dup2\n        /* \"#utility.yul\":3765:3789   */\n      tag_207\n      jump\t// in\n    tag_206:\n        /* \"#utility.yul\":3760:3763   */\n      dup3\n        /* \"#utility.yul\":3753:3790   */\n      mstore\n        /* \"#utility.yul\":3678:3796   */\n      pop\n      pop\n      jump\t// out\n        /* \"#utility.yul\":3802:4024   */\n    tag_58:\n        /* \"#utility.yul\":3895:3899   */\n      0x00\n        /* \"#utility.yul\":3933:3935   */\n      0x20\n        /* \"#utility.yul\":3922:3931   */\n      dup3\n        /* \"#utility.yul\":3918:3936   */\n      add\n        /* \"#utility.yul\":3910:3936   */\n      swap1\n      pop\n        /* \"#utility.yul\":3946:4017   */\n      tag_209\n        /* \"#utility.yul\":4014:4015   */\n      0x00\n        /* \"#utility.yul\":4003:4012   */\n      dup4\n        /* \"#utility.yul\":3999:4016   */\n      add\n        /* \"#utility.yul\":3990:3996   */\n      dup5\n        /* \"#utility.yul\":3946:4017   */\n      tag_182\n      jump\t// in\n    tag_209:\n        /* \"#utility.yul\":3802:4024   */\n      swap3\n      swap2\n      pop\n      pop\n      jump\t// out\n        /* \"#utility.yul\":4030:4264   */\n    tag_62:\n        /* \"#utility.yul\":4129:4133   */\n      0x00\n        /* \"#utility.yul\":4167:4169   */\n      0x20\n        /* \"#utility.yul\":4156:4165   */\n      dup3\n        /* \"#utility.yul\":4152:4170   */\n      add\n        /* \"#utility.yul\":4144:4170   */\n      swap1\n      pop\n        /* \"#utility.yul\":4180:4257   */\n      tag_211\n        /* \"#utility.yul\":4254:4255   */\n      0x00\n        /* \"#utility.yul\":4243:4252   */\n      dup4\n        /* \"#utility.yul\":4239:4256   */\n      add\n        /* \"#utility.yul\":4230:4236   */\n      dup5\n        /* \"#utility.yul\":4180:4257   */\n      tag_190\n      jump\t// in\n    tag_211:\n        /* \"#utility.yul\":4030:4264   */\n      swap3\n      swap2\n      pop\n      pop\n      jump\t// out\n        /* \"#utility.yul\":4270:4583   */\n    tag_54:\n        /* \"#utility.yul\":4383:4387   */\n      0x00\n        /* \"#utility.yul\":4421:4423   */\n      0x20\n        /* \"#utility.yul\":4410:4419   */\n      dup3\n        /* \"#utility.yul\":4406:4424   */\n      add\n        /* \"#utility.yul\":4398:4424   */\n      swap1\n      pop\n        /* \"#utility.yul\":4470:4479   */\n      dup2\n        /* \"#utility.yul\":4464:4468   */\n      dup2\n        /* \"#utility.yul\":4460:4480   */\n      sub\n        /* \"#utility.yul\":4456:4457   */\n      0x00\n        /* \"#utility.yul\":4445:4454   */\n      dup4\n        /* \"#utility.yul\":4441:4458   */\n      add\n        /* \"#utility.yul\":4434:4481   */\n      mstore\n        /* \"#utility.yul\":4498:4576   */\n      tag_213\n        /* \"#utility.yul\":4571:4575   */\n      dup2\n        /* \"#utility.yul\":4562:4568   */\n      dup5\n        /* \"#utility.yul\":4498:4576   */\n      tag_194\n      jump\t// in\n    tag_213:\n        /* \"#utility.yul\":4490:4576   */\n      swap1\n      pop\n        /* \"#utility.yul\":4270:4583   */\n      swap3\n      swap2\n      pop\n      pop\n      jump\t// out\n        /* \"#utility.yul\":4589:5324   */\n    tag_39:\n        /* \"#utility.yul\":4806:4810   */\n      0x00\n        /* \"#utility.yul\":4844:4847   */\n      0x80\n        /* \"#utility.yul\":4833:4842   */\n      dup3\n        /* \"#utility.yul\":4829:4848   */\n      add\n        /* \"#utility.yul\":4821:4848   */\n      swap1\n      pop\n        /* \"#utility.yul\":4894:4903   */\n      dup2\n        /* \"#utility.yul\":4888:4892   */\n      dup2\n        /* \"#utility.yul\":4884:4904   */\n      sub\n        /* \"#utility.yul\":4880:4881   */\n      0x00\n        /* \"#utility.yul\":4869:4878   */\n      dup4\n        /* \"#utility.yul\":4865:4882   */\n      add\n        /* \"#utility.yul\":4858:4905   */\n      mstore\n        /* \"#utility.yul\":4922:5000   */\n      tag_215\n        /* \"#utility.yul\":4995:4999   */\n      dup2\n        /* \"#utility.yul\":4986:4992   */\n      dup8\n        /* \"#utility.yul\":4922:5000   */\n      tag_194\n      jump\t// in\n    tag_215:\n        /* \"#utility.yul\":4914:5000   */\n      swap1\n      pop\n        /* \"#utility.yul\":5010:5082   */\n      tag_216\n        /* \"#utility.yul\":5078:5080   */\n      0x20\n        /* \"#utility.yul\":5067:5076   */\n      dup4\n        /* \"#utility.yul\":5063:5081   */\n      add\n        /* \"#utility.yul\":5054:5060   */\n      dup7\n        /* \"#utility.yul\":5010:5082   */\n      tag_182\n      jump\t// in\n    tag_216:\n        /* \"#utility.yul\":5092:5164   */\n      tag_217\n        /* \"#utility.yul\":5160:5162   */\n      0x40\n        /* \"#utility.yul\":5149:5158   */\n      dup4\n        /* \"#utility.yul\":5145:5163   */\n      add\n        /* \"#utility.yul\":5136:5142   */\n      dup6\n        /* \"#utility.yul\":5092:5164   */\n      tag_204\n      jump\t// in\n    tag_217:\n        /* \"#utility.yul\":5211:5220   */\n      dup2\n        /* \"#utility.yul\":5205:5209   */\n      dup2\n        /* \"#utility.yul\":5201:5221   */\n      sub\n        /* \"#utility.yul\":5196:5198   */\n      0x60\n        /* \"#utility.yul\":5185:5194   */\n      dup4\n        /* \"#utility.yul\":5181:5199   */\n      add\n        /* \"#utility.yul\":5174:5222   */\n      mstore\n        /* \"#utility.yul\":5239:5317   */\n      tag_218\n        /* \"#utility.yul\":5312:5316   */\n      dup2\n        /* \"#utility.yul\":5303:5309   */\n      dup5\n        /* \"#utility.yul\":5239:5317   */\n      tag_194\n      jump\t// in\n    tag_218:\n        /* \"#utility.yul\":5231:5317   */\n      swap1\n      pop\n        /* \"#utility.yul\":4589:5324   */\n      swap6\n      swap5\n      pop\n      pop\n      pop\n      pop\n      pop\n      jump\t// out\n        /* \"#utility.yul\":5330:5741   */\n    tag_30:\n        /* \"#utility.yul\":5465:5469   */\n      0x00\n        /* \"#utility.yul\":5503:5505   */\n      0x40\n        /* \"#utility.yul\":5492:5501   */\n      dup3\n        /* \"#utility.yul\":5488:5506   */\n      add\n        /* \"#utility.yul\":5480:5506   */\n      swap1\n      pop\n        /* \"#utility.yul\":5552:5561   */\n      dup2\n        /* \"#utility.yul\":5546:5550   */\n      dup2\n        /* \"#utility.yul\":5542:5562   */\n      sub\n        /* \"#utility.yul\":5538:5539   */\n      0x00\n        /* \"#utility.yul\":5527:5536   */\n      dup4\n        /* \"#utility.yul\":5523:5540   */\n      add\n        /* \"#utility.yul\":5516:5563   */\n      mstore\n        /* \"#utility.yul\":5580:5658   */\n      tag_220\n        /* \"#utility.yul\":5653:5657   */\n      dup2\n        /* \"#utility.yul\":5644:5650   */\n      dup6\n        /* \"#utility.yul\":5580:5658   */\n      tag_194\n      jump\t// in\n    tag_220:\n        /* \"#utility.yul\":5572:5658   */\n      swap1\n      pop\n        /* \"#utility.yul\":5668:5734   */\n      tag_221\n        /* \"#utility.yul\":5730:5732   */\n      0x20\n        /* \"#utility.yul\":5719:5728   */\n      dup4\n        /* \"#utility.yul\":5715:5733   */\n      add\n        /* \"#utility.yul\":5706:5712   */\n      dup5\n        /* \"#utility.yul\":5668:5734   */\n      tag_186\n      jump\t// in\n    tag_221:\n        /* \"#utility.yul\":5330:5741   */\n      swap4\n      swap3\n      pop\n      pop\n      pop\n      jump\t// out\n        /* \"#utility.yul\":5747:5969   */\n    tag_21:\n        /* \"#utility.yul\":5840:5844   */\n      0x00\n        /* \"#utility.yul\":5878:5880   */\n      0x20\n        /* \"#utility.yul\":5867:5876   */\n      dup3\n        /* \"#utility.yul\":5863:5881   */\n      add\n        /* \"#utility.yul\":5855:5881   */\n      swap1\n      pop\n        /* \"#utility.yul\":5891:5962   */\n      tag_223\n        /* \"#utility.yul\":5959:5960   */\n      0x00\n        /* \"#utility.yul\":5948:5957   */\n      dup4\n        /* \"#utility.yul\":5944:5961   */\n      add\n        /* \"#utility.yul\":5935:5941   */\n      dup5\n        /* \"#utility.yul\":5891:5962   */\n      tag_204\n      jump\t// in\n    tag_223:\n        /* \"#utility.yul\":5747:5969   */\n      swap3\n      swap2\n      pop\n      pop\n      jump\t// out\n        /* \"#utility.yul\":5975:6104   */\n    tag_139:\n        /* \"#utility.yul\":6009:6015   */\n      0x00\n        /* \"#utility.yul\":6036:6056   */\n      tag_225\n      tag_226\n      jump\t// in\n    tag_225:\n        /* \"#utility.yul\":6026:6056   */\n      swap1\n      pop\n        /* \"#utility.yul\":6065:6098   */\n      tag_227\n        /* \"#utility.yul\":6093:6097   */\n      dup3\n        /* \"#utility.yul\":6085:6091   */\n      dup3\n        /* \"#utility.yul\":6065:6098   */\n      tag_228\n      jump\t// in\n    tag_227:\n        /* \"#utility.yul\":5975:6104   */\n      swap2\n      swap1\n      pop\n      jump\t// out\n        /* \"#utility.yul\":6110:6185   */\n    tag_226:\n        /* \"#utility.yul\":6143:6149   */\n      0x00\n        /* \"#utility.yul\":6176:6178   */\n      0x40\n        /* \"#utility.yul\":6170:6179   */\n      mload\n        /* \"#utility.yul\":6160:6179   */\n      swap1\n      pop\n        /* \"#utility.yul\":6110:6185   */\n      swap1\n      jump\t// out\n        /* \"#utility.yul\":6191:6499   */\n    tag_138:\n        /* \"#utility.yul\":6253:6257   */\n      0x00\n        /* \"#utility.yul\":6343:6361   */\n      0xffffffffffffffff\n        /* \"#utility.yul\":6335:6341   */\n      dup3\n        /* \"#utility.yul\":6332:6362   */\n      gt\n        /* \"#utility.yul\":6329:6385   */\n      iszero\n      tag_231\n      jumpi\n        /* \"#utility.yul\":6365:6383   */\n      tag_232\n      tag_233\n      jump\t// in\n    tag_232:\n        /* \"#utility.yul\":6329:6385   */\n    tag_231:\n        /* \"#utility.yul\":6403:6432   */\n      tag_234\n        /* \"#utility.yul\":6425:6431   */\n      dup3\n        /* \"#utility.yul\":6403:6432   */\n      tag_203\n      jump\t// in\n    tag_234:\n        /* \"#utility.yul\":6395:6432   */\n      swap1\n      pop\n        /* \"#utility.yul\":6487:6491   */\n      0x20\n        /* \"#utility.yul\":6481:6485   */\n      dup2\n        /* \"#utility.yul\":6477:6492   */\n      add\n        /* \"#utility.yul\":6469:6492   */\n      swap1\n      pop\n        /* \"#utility.yul\":6191:6499   */\n      swap2\n      swap1\n      pop\n      jump\t// out\n        /* \"#utility.yul\":6505:6604   */\n    tag_197:\n        /* \"#utility.yul\":6557:6563   */\n      0x00\n        /* \"#utility.yul\":6591:6596   */\n      dup2\n        /* \"#utility.yul\":6585:6597   */\n      mload\n        /* \"#utility.yul\":6575:6597   */\n      swap1\n      pop\n        /* \"#utility.yul\":6505:6604   */\n      swap2\n      swap1\n      pop\n      jump\t// out\n        /* \"#utility.yul\":6610:6779   */\n    tag_199:\n        /* \"#utility.yul\":6694:6705   */\n      0x00\n        /* \"#utility.yul\":6728:6734   */\n      dup3\n        /* \"#utility.yul\":6723:6726   */\n      dup3\n        /* \"#utility.yul\":6716:6735   */\n      mstore\n        /* \"#utility.yul\":6768:6772   */\n      0x20\n        /* \"#utility.yul\":6763:6766   */\n      dup3\n        /* \"#utility.yul\":6759:6773   */\n      add\n        /* \"#utility.yul\":6744:6773   */\n      swap1\n      pop\n        /* \"#utility.yul\":6610:6779   */\n      swap3\n      swap2\n      pop\n      pop\n      jump\t// out\n        /* \"#utility.yul\":6785:7090   */\n    tag_108:\n        /* \"#utility.yul\":6825:6828   */\n      0x00\n        /* \"#utility.yul\":6844:6864   */\n      tag_238\n        /* \"#utility.yul\":6862:6863   */\n      dup3\n        /* \"#utility.yul\":6844:6864   */\n      tag_207\n      jump\t// in\n    tag_238:\n        /* \"#utility.yul\":6839:6864   */\n      swap2\n      pop\n        /* \"#utility.yul\":6878:6898   */\n      tag_239\n        /* \"#utility.yul\":6896:6897   */\n      dup4\n        /* \"#utility.yul\":6878:6898   */\n      tag_207\n      jump\t// in\n    tag_239:\n        /* \"#utility.yul\":6873:6898   */\n      swap3\n      pop\n        /* \"#utility.yul\":7032:7033   */\n      dup3\n        /* \"#utility.yul\":6964:7030   */\n      0xffffffffffffffffffffffffffffffffffffffffffffffffffffffffffffffff\n        /* \"#utility.yul\":6960:7034   */\n      sub\n        /* \"#utility.yul\":6957:6958   */\n      dup3\n        /* \"#utility.yul\":6954:7035   */\n      gt\n        /* \"#utility.yul\":6951:7058   */\n      iszero\n      tag_240\n      jumpi\n        /* \"#utility.yul\":7038:7056   */\n      tag_241\n      tag_242\n      jump\t// in\n    tag_241:\n        /* \"#utility.yul\":6951:7058   */\n    tag_240:\n        /* \"#utility.yul\":7082:7083   */\n      dup3\n        /* \"#utility.yul\":7079:7080   */\n      dup3\n        /* \"#utility.yul\":7075:7084   */\n      add\n        /* \"#utility.yul\":7068:7084   */\n      swap1\n      pop\n        /* \"#utility.yul\":6785:7090   */\n      swap3\n      swap2\n      pop\n      pop\n      jump\t// out\n        /* \"#utility.yul\":7096:7192   */\n    tag_185:\n        /* \"#utility.yul\":7133:7140   */\n      0x00\n        /* \"#utility.yul\":7162:7186   */\n      tag_244\n        /* \"#utility.yul\":7180:7185   */\n      dup3\n        /* \"#utility.yul\":7162:7186   */\n      tag_245\n      jump\t// in\n    tag_244:\n        /* \"#utility.yul\":7151:7186   */\n      swap1\n      pop\n        /* \"#utility.yul\":7096:7192   */\n      swap2\n      swap1\n      pop\n      jump\t// out\n        /* \"#utility.yul\":7198:7288   */\n    tag_189:\n        /* \"#utility.yul\":7232:7239   */\n      0x00\n        /* \"#utility.yul\":7275:7280   */\n      dup2\n        /* \"#utility.yul\":7268:7281   */\n      iszero\n        /* \"#utility.yul\":7261:7282   */\n      iszero\n        /* \"#utility.yul\":7250:7282   */\n      swap1\n      pop\n        /* \"#utility.yul\":7198:7288   */\n      swap2\n      swap1\n      pop\n      jump\t// out\n        /* \"#utility.yul\":7294:7421   */\n    tag_247:\n        /* \"#utility.yul\":7339:7346   */\n      0x00\n        /* \"#utility.yul\":7368:7373   */\n      dup2\n        /* \"#utility.yul\":7357:7373   */\n      swap1\n      pop\n        /* \"#utility.yul\":7374:7415   */\n      tag_249\n        /* \"#utility.yul\":7409:7414   */\n      dup3\n        /* \"#utility.yul\":7374:7415   */\n      tag_250\n      jump\t// in\n    tag_249:\n        /* \"#utility.yul\":7294:7421   */\n      swap2\n      swap1\n      pop\n      jump\t// out\n        /* \"#utility.yul\":7427:7553   */\n    tag_245:\n        /* \"#utility.yul\":7464:7471   */\n      0x00\n        /* \"#utility.yul\":7504:7546   */\n      0xffffffffffffffffffffffffffffffffffffffff\n        /* \"#utility.yul\":7497:7502   */\n      dup3\n        /* \"#utility.yul\":7493:7547   */\n      and\n        /* \"#utility.yul\":7482:7547   */\n      swap1\n      pop\n        /* \"#utility.yul\":7427:7553   */\n      swap2\n      swap1\n      pop\n      jump\t// out\n        /* \"#utility.yul\":7559:7636   */\n    tag_207:\n        /* \"#utility.yul\":7596:7603   */\n      0x00\n        /* \"#utility.yul\":7625:7630   */\n      dup2\n        /* \"#utility.yul\":7614:7630   */\n      swap1\n      pop\n        /* \"#utility.yul\":7559:7636   */\n      swap2\n      swap1\n      pop\n      jump\t// out\n        /* \"#utility.yul\":7642:7769   */\n    tag_193:\n        /* \"#utility.yul\":7698:7707   */\n      0x00\n        /* \"#utility.yul\":7731:7763   */\n      tag_254\n        /* \"#utility.yul\":7757:7762   */\n      dup3\n        /* \"#utility.yul\":7731:7763   */\n      tag_247\n      jump\t// in\n    tag_254:\n        /* \"#utility.yul\":7718:7763   */\n      swap1\n      pop\n        /* \"#utility.yul\":7642:7769   */\n      swap2\n      swap1\n      pop\n      jump\t// out\n        /* \"#utility.yul\":7775:7929   */\n    tag_144:\n        /* \"#utility.yul\":7859:7865   */\n      dup3\n        /* \"#utility.yul\":7854:7857   */\n      dup2\n        /* \"#utility.yul\":7849:7852   */\n      dup4\n        /* \"#utility.yul\":7836:7866   */\n      calldatacopy\n        /* \"#utility.yul\":7921:7922   */\n      0x00\n        /* \"#utility.yul\":7912:7918   */\n      dup4\n        /* \"#utility.yul\":7907:7910   */\n      dup4\n        /* \"#utility.yul\":7903:7919   */\n      add\n        /* \"#utility.yul\":7896:7923   */\n      mstore\n        /* \"#utility.yul\":7775:7929   */\n      pop\n      pop\n      pop\n      jump\t// out\n        /* \"#utility.yul\":7935:8242   */\n    tag_201:\n        /* \"#utility.yul\":8003:8004   */\n      0x00\n        /* \"#utility.yul\":8013:8126   */\n    tag_257:\n        /* \"#utility.yul\":8027:8033   */\n      dup4\n        /* \"#utility.yul\":8024:8025   */\n      dup2\n        /* \"#utility.yul\":8021:8034   */\n      lt\n        /* \"#utility.yul\":8013:8126   */\n      iszero\n      tag_259\n      jumpi\n        /* \"#utility.yul\":8112:8113   */\n      dup1\n        /* \"#utility.yul\":8107:8110   */\n      dup3\n        /* \"#utility.yul\":8103:8114   */\n      add\n        /* \"#utility.yul\":8097:8115   */\n      mload\n        /* \"#utility.yul\":8093:8094   */\n      dup2\n        /* \"#utility.yul\":8088:8091   */\n      dup5\n        /* \"#utility.yul\":8084:8095   */\n      add\n        /* \"#utility.yul\":8077:8116   */\n      mstore\n        /* \"#utility.yul\":8049:8051   */\n      0x20\n        /* \"#utility.yul\":8046:8047   */\n      dup2\n        /* \"#utility.yul\":8042:8052   */\n      add\n        /* \"#utility.yul\":8037:8052   */\n      swap1\n      pop\n        /* \"#utility.yul\":8013:8126   */\n      jump(tag_257)\n    tag_259:\n        /* \"#utility.yul\":8144:8150   */\n      dup4\n        /* \"#utility.yul\":8141:8142   */\n      dup2\n        /* \"#utility.yul\":8138:8151   */\n      gt\n        /* \"#utility.yul\":8135:8236   */\n      iszero\n      tag_260\n      jumpi\n        /* \"#utility.yul\":8224:8225   */\n      0x00\n        /* \"#utility.yul\":8215:8221   */\n      dup5\n        /* \"#utility.yul\":8210:8213   */\n      dup5\n        /* \"#utility.yul\":8206:8222   */\n      add\n        /* \"#utility.yul\":8199:8226   */\n      mstore\n        /* \"#utility.yul\":8135:8236   */\n    tag_260:\n        /* \"#utility.yul\":7984:8242   */\n      pop\n        /* \"#utility.yul\":7935:8242   */\n      pop\n      pop\n      pop\n      jump\t// out\n        /* \"#utility.yul\":8248:8568   */\n    tag_67:\n        /* \"#utility.yul\":8292:8298   */\n      0x00\n        /* \"#utility.yul\":8329:8330   */\n      0x02\n        /* \"#utility.yul\":8323:8327   */\n      dup3\n        /* \"#utility.yul\":8319:8331   */\n      div\n        /* \"#utility.yul\":8309:8331   */\n      swap1\n      pop\n        /* \"#utility.yul\":8376:8377   */\n      0x01\n        /* \"#utility.yul\":8370:8374   */\n      dup3\n        /* \"#utility.yul\":8366:8378   */\n      and\n        /* \"#utility.yul\":8397:8415   */\n      dup1\n        /* \"#utility.yul\":8387:8468   */\n      tag_262\n      jumpi\n        /* \"#utility.yul\":8453:8457   */\n      0x7f\n        /* \"#utility.yul\":8445:8451   */\n      dup3\n        /* \"#utility.yul\":8441:8458   */\n      and\n        /* \"#utility.yul\":8431:8458   */\n      swap2\n      pop\n        /* \"#utility.yul\":8387:8468   */\n    tag_262:\n        /* \"#utility.yul\":8515:8517   */\n      0x20\n        /* \"#utility.yul\":8507:8513   */\n      dup3\n        /* \"#utility.yul\":8504:8518   */\n      lt\n        /* \"#utility.yul\":8484:8502   */\n      dup2\n        /* \"#utility.yul\":8481:8519   */\n      eq\n        /* \"#utility.yul\":8478:8562   */\n      iszero\n      tag_263\n      jumpi\n        /* \"#utility.yul\":8534:8552   */\n      tag_264\n      tag_265\n      jump\t// in\n    tag_264:\n        /* \"#utility.yul\":8478:8562   */\n    tag_263:\n        /* \"#utility.yul\":8299:8568   */\n      pop\n        /* \"#utility.yul\":8248:8568   */\n      swap2\n      swap1\n      pop\n      jump\t// out\n        /* \"#utility.yul\":8574:8855   */\n    tag_228:\n        /* \"#utility.yul\":8657:8684   */\n      tag_267\n        /* \"#utility.yul\":8679:8683   */\n      dup3\n        /* \"#utility.yul\":8657:8684   */\n      tag_203\n      jump\t// in\n    tag_267:\n        /* \"#utility.yul\":8649:8655   */\n      dup2\n        /* \"#utility.yul\":8645:8685   */\n      add\n        /* \"#utility.yul\":8787:8793   */\n      dup2\n        /* \"#utility.yul\":8775:8785   */\n      dup2\n        /* \"#utility.yul\":8772:8794   */\n      lt\n        /* \"#utility.yul\":8751:8769   */\n      0xffffffffffffffff\n        /* \"#utility.yul\":8739:8749   */\n      dup3\n        /* \"#utility.yul\":8736:8770   */\n      gt\n        /* \"#utility.yul\":8733:8795   */\n      or\n        /* \"#utility.yul\":8730:8818   */\n      iszero\n      tag_268\n      jumpi\n        /* \"#utility.yul\":8798:8816   */\n      tag_269\n      tag_233\n      jump\t// in\n    tag_269:\n        /* \"#utility.yul\":8730:8818   */\n    tag_268:\n        /* \"#utility.yul\":8838:8848   */\n      dup1\n        /* \"#utility.yul\":8834:8836   */\n      0x40\n        /* \"#utility.yul\":8827:8849   */\n      mstore\n        /* \"#utility.yul\":8617:8855   */\n      pop\n        /* \"#utility.yul\":8574:8855   */\n      pop\n      pop\n      jump\t// out\n        /* \"#utility.yul\":8861:9041   */\n    tag_242:\n        /* \"#utility.yul\":8909:8986   */\n      0x4e487b7100000000000000000000000000000000000000000000000000000000\n        /* \"#utility.yul\":8906:8907   */\n      0x00\n        /* \"#utility.yul\":8899:8987   */\n      mstore\n        /* \"#utility.yul\":9006:9010   */\n      0x11\n        /* \"#utility.yul\":9003:9004   */\n      0x04\n        /* \"#utility.yul\":8996:9011   */\n      mstore\n        /* \"#utility.yul\":9030:9034   */\n      0x24\n        /* \"#utility.yul\":9027:9028   */\n      0x00\n        /* \"#utility.yul\":9020:9035   */\n      revert\n        /* \"#utility.yul\":9047:9227   */\n    tag_95:\n        /* \"#utility.yul\":9095:9172   */\n      0x4e487b7100000000000000000000000000000000000000000000000000000000\n        /* \"#utility.yul\":9092:9093   */\n      0x00\n        /* \"#utility.yul\":9085:9173   */\n      mstore\n        /* \"#utility.yul\":9192:9196   */\n      0x21\n        /* \"#utility.yul\":9189:9190   */\n      0x04\n        /* \"#utility.yul\":9182:9197   */\n      mstore\n        /* \"#utility.yul\":9216:9220   */\n      0x24\n        /* \"#utility.yul\":9213:9214   */\n      0x00\n        /* \"#utility.yul\":9206:9221   */\n      revert\n        /* \"#utility.yul\":9233:9413   */\n    tag_265:\n        /* \"#utility.yul\":9281:9358   */\n      0x4e487b7100000000000000000000000000000000000000000000000000000000\n        /* \"#utility.yul\":9278:9279   */\n      0x00\n        /* \"#utility.yul\":9271:9359   */\n      mstore\n        /* \"#utility.yul\":9378:9382   */\n      0x22\n        /* \"#utility.yul\":9375:9376   */\n      0x04\n        /* \"#utility.yul\":9368:9383   */\n      mstore\n        /* \"#utility.yul\":9402:9406   */\n      0x24\n        /* \"#utility.yul\":9399:9400   */\n      0x00\n        /* \"#utility.yul\":9392:9407   */\n      revert\n        /* \"#utility.yul\":9419:9599   */\n    tag_233:\n        /* \"#utility.yul\":9467:9544   */\n      0x4e487b7100000000000000000000000000000000000000000000000000000000\n        /* \"#utility.yul\":9464:9465   */\n      0x00\n        /* \"#utility.yul\":9457:9545   */\n      mstore\n        /* \"#utility.yul\":9564:9568   */\n      0x41\n        /* \"#utility.yul\":9561:9562   */\n      0x04\n        /* \"#utility.yul\":9554:9569   */\n      mstore\n        /* \"#utility.yul\":9588:9592   */\n      0x24\n        /* \"#utility.yul\":9585:9586   */\n      0x00\n        /* \"#utility.yul\":9578:9593   */\n      revert\n        /* \"#utility.yul\":9605:9722   */\n    tag_153:\n        /* \"#utility.yul\":9714:9715   */\n      0x00\n        /* \"#utility.yul\":9711:9712   */\n      dup1\n        /* \"#utility.yul\":9704:9716   */\n      revert\n        /* \"#utility.yul\":9728:9845   */\n    tag_142:\n        /* \"#utility.yul\":9837:9838   */\n      0x00\n        /* \"#utility.yul\":9834:9835   */\n      dup1\n        /* \"#utility.yul\":9827:9839   */\n      revert\n        /* \"#utility.yul\":9851:9968   */\n    tag_170:\n        /* \"#utility.yul\":9960:9961   */\n      0x00\n        /* \"#utility.yul\":9957:9958   */\n      dup1\n        /* \"#utility.yul\":9950:9962   */\n      revert\n        /* \"#utility.yul\":9974:10091   */\n    tag_162:\n        /* \"#utility.yul\":10083:10084   */\n      0x00\n        /* \"#utility.yul\":10080:10081   */\n      dup1\n        /* \"#utility.yul\":10073:10085   */\n      revert\n        /* \"#utility.yul\":10097:10199   */\n    tag_203:\n        /* \"#utility.yul\":10138:10144   */\n      0x00\n        /* \"#utility.yul\":10189:10191   */\n      0x1f\n        /* \"#utility.yul\":10185:10192   */\n      not\n        /* \"#utility.yul\":10180:10182   */\n      0x1f\n        /* \"#utility.yul\":10173:10178   */\n      dup4\n        /* \"#utility.yul\":10169:10183   */\n      add\n        /* \"#utility.yul\":10165:10193   */\n      and\n        /* \"#utility.yul\":10155:10193   */\n      swap1\n      pop\n        /* \"#utility.yul\":10097:10199   */\n      swap2\n      swap1\n      pop\n      jump\t// out\n        /* \"#utility.yul\":10205:10318   */\n    tag_250:\n        /* \"#utility.yul\":10286:10287   */\n      0x03\n        /* \"#utility.yul\":10279:10284   */\n      dup2\n        /* \"#utility.yul\":10276:10288   */\n      lt\n        /* \"#utility.yul\":10266:10312   */\n      tag_280\n      jumpi\n        /* \"#utility.yul\":10292:10310   */\n      tag_281\n      tag_95\n      jump\t// in\n    tag_281:\n        /* \"#utility.yul\":10266:10312   */\n    tag_280:\n        /* \"#utility.yul\":10205:10318   */\n      pop\n      jump\t// out\n        /* \"#utility.yul\":10324:10446   */\n    tag_148:\n        /* \"#utility.yul\":10397:10421   */\n      tag_283\n        /* \"#utility.yul\":10415:10420   */\n      dup2\n        /* \"#utility.yul\":10397:10421   */\n      tag_185\n      jump\t// in\n    tag_283:\n        /* \"#utility.yul\":10390:10395   */\n      dup2\n        /* \"#utility.yul\":10387:10422   */\n      eq\n        /* \"#utility.yul\":10377:10440   */\n      tag_284\n      jumpi\n        /* \"#utility.yul\":10436:10437   */\n      0x00\n        /* \"#utility.yul\":10433:10434   */\n      dup1\n        /* \"#utility.yul\":10426:10438   */\n      revert\n        /* \"#utility.yul\":10377:10440   */\n    tag_284:\n        /* \"#utility.yul\":10324:10446   */\n      pop\n      jump\t// out\n        /* \"#utility.yul\":10452:10574   */\n    tag_158:\n        /* \"#utility.yul\":10525:10549   */\n      tag_286\n        /* \"#utility.yul\":10543:10548   */\n      dup2\n        /* \"#utility.yul\":10525:10549   */\n      tag_207\n      jump\t// in\n    tag_286:\n        /* \"#utility.yul\":10518:10523   */\n      dup2\n        /* \"#utility.yul\":10515:10550   */\n      eq\n        /* \"#utility.yul\":10505:10568   */\n      tag_287\n      jumpi\n        /* \"#utility.yul\":10564:10565   */\n      0x00\n        /* \"#utility.yul\":10561:10562   */\n      dup1\n        /* \"#utility.yul\":10554:10566   */\n      revert\n        /* \"#utility.yul\":10505:10568   */\n    tag_287:\n        /* \"#utility.yul\":10452:10574   */\n      pop\n      jump\t// out\n\n    auxdata: 0xa2646970667358221220bd46500b6a0f881243c3b722f2371371cf383c06f1b1a0bc20a178ff0d72f53e64736f6c63430008070033\n}\n",
				"bytecode": {
					"linkReferences": {},
					"object": "60806040523480156200001157600080fd5b506040516200144f3803806200144f8339818101604052810190620000379190620001f4565b33600860016101000a81548173ffffffffffffffffffffffffffffffffffffffff021916908373ffffffffffffffffffffffffffffffffffffffff160217905550806009908051906020019062000090929190620000c6565b506000600860006101000a81548160ff02191690836002811115620000ba57620000b962000346565b5b021790555050620003f8565b828054620000d490620002da565b90600052602060002090601f016020900481019282620000f8576000855562000144565b82601f106200011357805160ff191683800117855562000144565b8280016001018555821562000144579182015b828111156200014357825182559160200191906001019062000126565b5b50905062000153919062000157565b5090565b5b808211156200017257600081600090555060010162000158565b5090565b60006200018d62000187846200026e565b62000245565b905082815260208101848484011115620001ac57620001ab620003d8565b5b620001b9848285620002a4565b509392505050565b600082601f830112620001d957620001d8620003d3565b5b8151620001eb84826020860162000176565b91505092915050565b6000602082840312156200020d576200020c620003e2565b5b600082015167ffffffffffffffff8111156200022e576200022d620003dd565b5b6200023c84828501620001c1565b91505092915050565b60006200025162000264565b90506200025f828262000310565b919050565b6000604051905090565b600067ffffffffffffffff8211156200028c576200028b620003a4565b5b6200029782620003e7565b9050602081019050919050565b60005b83811015620002c4578082015181840152602081019050620002a7565b83811115620002d4576000848401525b50505050565b60006002820490506001821680620002f357607f821691505b602082108114156200030a576200030962000375565b5b50919050565b6200031b82620003e7565b810181811067ffffffffffffffff821117156200033d576200033c620003a4565b5b80604052505050565b7f4e487b7100000000000000000000000000000000000000000000000000000000600052602160045260246000fd5b7f4e487b7100000000000000000000000000000000000000000000000000000000600052602260045260246000fd5b7f4e487b7100000000000000000000000000000000000000000000000000000000600052604160045260246000fd5b600080fd5b600080fd5b600080fd5b600080fd5b6000601f19601f8301169050919050565b61104780620004086000396000f3fe608060405234801561001057600080fd5b50600436106100b45760003560e01c806372753be51161007157806372753be5146101a75780637f611349146101da57806380843e25146101f65780638949e00914610214578063c19d93fb14610232578063d9e95a9814610250576100b4565b80630132be09146100b95780630d15fd77146100e957806312c06342146101075780632d35a8a21461013857806346702b16146101565780635f5300ff14610189575b600080fd5b6100d360048036038101906100ce9190610b7c565b61026c565b6040516100e09190610cf9565b60405180910390f35b6100f1610284565b6040516100fe9190610cf9565b60405180910390f35b610121600480360381019061011c9190610aaa565b61028a565b60405161012f929190610cc9565b60405180910390f35b610140610343565b60405161014d9190610cf9565b60405180910390f35b610170600480360381019061016b9190610b33565b610349565b6040516101809493929190610c76565b60405180910390f35b6101916104bf565b60405161019e9190610cf9565b60405180910390f35b6101c160048036038101906101bc9190610b7c565b6104c5565b6040516101d19493929190610c76565b60405180910390f35b6101f460048036038101906101ef9190610ad7565b610625565b005b6101fe6107c8565b60405161020b9190610c54565b60405180910390f35b61021c610856565b6040516102299190610c1e565b60405180910390f35b61023a61087c565b6040516102479190610c39565b60405180910390f35b61026a60048036038101906102659190610ad7565b61088f565b005b60026020528060005260406000206000915090505481565b60075481565b60006020528060005260406000206000915090508060000180546102ad90610e8b565b80601f01602080910402602001604051908101604052809291908181526020018280546102d990610e8b565b80156103265780601f106102fb57610100808354040283529160200191610326565b820191906000526020600020905b81548152906001019060200180831161030957829003601f168201915b5050505050908060010160009054906101000a900460ff16905082565b60055481565b60048180516020810182018051848252602083016020850120818352809550505050505060009150905080600001805461038290610e8b565b80601f01602080910402602001604051908101604052809291908181526020018280546103ae90610e8b565b80156103fb5780601f106103d0576101008083540402835291602001916103fb565b820191906000526020600020905b8154815290600101906020018083116103de57829003601f168201915b5050505050908060010160009054906101000a900473ffffffffffffffffffffffffffffffffffffffff169080600201549080600301805461043c90610e8b565b80601f016020809104026020016040519081016040528092919081815260200182805461046890610e8b565b80156104b55780601f1061048a576101008083540402835291602001916104b5565b820191906000526020600020905b81548152906001019060200180831161049857829003601f168201915b5050505050905084565b60065481565b60036020528060005260406000206000915090508060000180546104e890610e8b565b80601f016020809104026020016040519081016040528092919081815260200182805461051490610e8b565b80156105615780601f1061053657610100808354040283529160200191610561565b820191906000526020600020905b81548152906001019060200180831161054457829003601f168201915b5050505050908060010160009054906101000a900473ffffffffffffffffffffffffffffffffffffffff16908060020154908060030180546105a290610e8b565b80601f01602080910402602001604051908101604052809291908181526020018280546105ce90610e8b565b801561061b5780601f106105f05761010080835404028352916020019161061b565b820191906000526020600020905b8154815290600101906020018083116105fe57829003601f168201915b5050505050905084565b600080600281111561063a57610639610f1d565b5b600860009054906101000a900460ff16600281111561065c5761065b610f1d565b5b1461066657600080fd5b3373ffffffffffffffffffffffffffffffffffffffff16600860019054906101000a900473ffffffffffffffffffffffffffffffffffffffff1673ffffffffffffffffffffffffffffffffffffffff16146106c057600080fd5b6106c861092f565b83816020019073ffffffffffffffffffffffffffffffffffffffff16908173ffffffffffffffffffffffffffffffffffffffff168152505082816000018190525080600360006005548152602001908152602001600020600082015181600001908051906020019061073b92919061096d565b5060208201518160010160006101000a81548173ffffffffffffffffffffffffffffffffffffffff021916908373ffffffffffffffffffffffffffffffffffffffff1602179055506040820151816002015560608201518160030190805190602001906107a992919061096d565b5090505060016005546107bc9190610d86565b60058190555050505050565b600980546107d590610e8b565b80601f016020809104026020016040519081016040528092919081815260200182805461080190610e8b565b801561084e5780601f106108235761010080835404028352916020019161084e565b820191906000526020600020905b81548152906001019060200180831161083157829003601f168201915b505050505081565b600860019054906101000a900473ffffffffffffffffffffffffffffffffffffffff1681565b600860009054906101000a900460ff1681565b60008060028111156108a4576108a3610f1d565b5b600860009054906101000a900460ff1660028111156108c6576108c5610f1d565b5b146108d057600080fd5b3373ffffffffffffffffffffffffffffffffffffffff16600860019054906101000a900473ffffffffffffffffffffffffffffffffffffffff1673ffffffffffffffffffffffffffffffffffffffff161461092a57600080fd5b505050565b604051806080016040528060608152602001600073ffffffffffffffffffffffffffffffffffffffff16815260200160008152602001606081525090565b82805461097990610e8b565b90600052602060002090601f01602090048101928261099b57600085556109e2565b82601f106109b457805160ff19168380011785556109e2565b828001600101855582156109e2579182015b828111156109e15782518255916020019190600101906109c6565b5b5090506109ef91906109f3565b5090565b5b80821115610a0c5760008160009055506001016109f4565b5090565b6000610a23610a1e84610d39565b610d14565b905082815260208101848484011115610a3f57610a3e610faf565b5b610a4a848285610e49565b509392505050565b600081359050610a6181610fe3565b92915050565b600082601f830112610a7c57610a7b610faa565b5b8135610a8c848260208601610a10565b91505092915050565b600081359050610aa481610ffa565b92915050565b600060208284031215610ac057610abf610fb9565b5b6000610ace84828501610a52565b91505092915050565b60008060408385031215610aee57610aed610fb9565b5b6000610afc85828601610a52565b925050602083013567ffffffffffffffff811115610b1d57610b1c610fb4565b5b610b2985828601610a67565b9150509250929050565b600060208284031215610b4957610b48610fb9565b5b600082013567ffffffffffffffff811115610b6757610b66610fb4565b5b610b7384828501610a67565b91505092915050565b600060208284031215610b9257610b91610fb9565b5b6000610ba084828501610a95565b91505092915050565b610bb281610ddc565b82525050565b610bc181610dee565b82525050565b610bd081610e37565b82525050565b6000610be182610d6a565b610beb8185610d75565b9350610bfb818560208601610e58565b610c0481610fbe565b840191505092915050565b610c1881610e2d565b82525050565b6000602082019050610c336000830184610ba9565b92915050565b6000602082019050610c4e6000830184610bc7565b92915050565b60006020820190508181036000830152610c6e8184610bd6565b905092915050565b60006080820190508181036000830152610c908187610bd6565b9050610c9f6020830186610ba9565b610cac6040830185610c0f565b8181036060830152610cbe8184610bd6565b905095945050505050565b60006040820190508181036000830152610ce38185610bd6565b9050610cf26020830184610bb8565b9392505050565b6000602082019050610d0e6000830184610c0f565b92915050565b6000610d1e610d2f565b9050610d2a8282610ebd565b919050565b6000604051905090565b600067ffffffffffffffff821115610d5457610d53610f7b565b5b610d5d82610fbe565b9050602081019050919050565b600081519050919050565b600082825260208201905092915050565b6000610d9182610e2d565b9150610d9c83610e2d565b9250827fffffffffffffffffffffffffffffffffffffffffffffffffffffffffffffffff03821115610dd157610dd0610eee565b5b828201905092915050565b6000610de782610e0d565b9050919050565b60008115159050919050565b6000819050610e0882610fcf565b919050565b600073ffffffffffffffffffffffffffffffffffffffff82169050919050565b6000819050919050565b6000610e4282610dfa565b9050919050565b82818337600083830152505050565b60005b83811015610e76578082015181840152602081019050610e5b565b83811115610e85576000848401525b50505050565b60006002820490506001821680610ea357607f821691505b60208210811415610eb757610eb6610f4c565b5b50919050565b610ec682610fbe565b810181811067ffffffffffffffff82111715610ee557610ee4610f7b565b5b80604052505050565b7f4e487b7100000000000000000000000000000000000000000000000000000000600052601160045260246000fd5b7f4e487b7100000000000000000000000000000000000000000000000000000000600052602160045260246000fd5b7f4e487b7100000000000000000000000000000000000000000000000000000000600052602260045260246000fd5b7f4e487b7100000000000000000000000000000000000000000000000000000000600052604160045260246000fd5b600080fd5b600080fd5b600080fd5b600080fd5b6000601f19601f8301169050919050565b60038110610fe057610fdf610f1d565b5b50565b610fec81610ddc565b8114610ff757600080fd5b50565b61100381610e2d565b811461100e57600080fd5b5056fea2646970667358221220bd46500b6a0f881243c3b722f2371371cf383c06f1b1a0bc20a178ff0d72f53e64736f6c63430008070033",
					"opcodes": "PUSH1 0x80 PUSH1 0x40 MSTORE CALLVALUE DUP1 ISZERO PUSH3 0x11 JUMPI PUSH1 0x0 DUP1 REVERT JUMPDEST POP PUSH1 0x40 MLOAD PUSH3 0x144F CODESIZE SUB DUP1 PUSH3 0x144F DUP4 CODECOPY DUP2 DUP2 ADD PUSH1 0x40 MSTORE DUP2 ADD SWAP1 PUSH3 0x37 SWAP2 SWAP1 PUSH3 0x1F4 JUMP JUMPDEST CALLER PUSH1 0x8 PUSH1 0x1 PUSH2 0x100 EXP DUP2 SLOAD DUP2 PUSH20 0xFFFFFFFFFFFFFFFFFFFFFFFFFFFFFFFFFFFFFFFF MUL NOT AND SWAP1 DUP4 PUSH20 0xFFFFFFFFFFFFFFFFFFFFFFFFFFFFFFFFFFFFFFFF AND MUL OR SWAP1 SSTORE POP DUP1 PUSH1 0x9 SWAP1 DUP1 MLOAD SWAP1 PUSH1 0x20 ADD SWAP1 PUSH3 0x90 SWAP3 SWAP2 SWAP1 PUSH3 0xC6 JUMP JUMPDEST POP PUSH1 0x0 PUSH1 0x8 PUSH1 0x0 PUSH2 0x100 EXP DUP2 SLOAD DUP2 PUSH1 0xFF MUL NOT AND SWAP1 DUP4 PUSH1 0x2 DUP2 GT ISZERO PUSH3 0xBA JUMPI PUSH3 0xB9 PUSH3 0x346 JUMP JUMPDEST JUMPDEST MUL OR SWAP1 SSTORE POP POP PUSH3 0x3F8 JUMP JUMPDEST DUP3 DUP1 SLOAD PUSH3 0xD4 SWAP1 PUSH3 0x2DA JUMP JUMPDEST SWAP1 PUSH1 0x0 MSTORE PUSH1 0x20 PUSH1 0x0 KECCAK256 SWAP1 PUSH1 0x1F ADD PUSH1 0x20 SWAP1 DIV DUP2 ADD SWAP3 DUP3 PUSH3 0xF8 JUMPI PUSH1 0x0 DUP6 SSTORE PUSH3 0x144 JUMP JUMPDEST DUP3 PUSH1 0x1F LT PUSH3 0x113 JUMPI DUP1 MLOAD PUSH1 0xFF NOT AND DUP4 DUP1 ADD OR DUP6 SSTORE PUSH3 0x144 JUMP JUMPDEST DUP3 DUP1 ADD PUSH1 0x1 ADD DUP6 SSTORE DUP3 ISZERO PUSH3 0x144 JUMPI SWAP2 DUP3 ADD JUMPDEST DUP3 DUP2 GT ISZERO PUSH3 0x143 JUMPI DUP3 MLOAD DUP3 SSTORE SWAP2 PUSH1 0x20 ADD SWAP2 SWAP1 PUSH1 0x1 ADD SWAP1 PUSH3 0x126 JUMP JUMPDEST JUMPDEST POP SWAP1 POP PUSH3 0x153 SWAP2 SWAP1 PUSH3 0x157 JUMP JUMPDEST POP SWAP1 JUMP JUMPDEST JUMPDEST DUP1 DUP3 GT ISZERO PUSH3 0x172 JUMPI PUSH1 0x0 DUP2 PUSH1 0x0 SWAP1 SSTORE POP PUSH1 0x1 ADD PUSH3 0x158 JUMP JUMPDEST POP SWAP1 JUMP JUMPDEST PUSH1 0x0 PUSH3 0x18D PUSH3 0x187 DUP5 PUSH3 0x26E JUMP JUMPDEST PUSH3 0x245 JUMP JUMPDEST SWAP1 POP DUP3 DUP2 MSTORE PUSH1 0x20 DUP2 ADD DUP5 DUP5 DUP5 ADD GT ISZERO PUSH3 0x1AC JUMPI PUSH3 0x1AB PUSH3 0x3D8 JUMP JUMPDEST JUMPDEST PUSH3 0x1B9 DUP5 DUP3 DUP6 PUSH3 0x2A4 JUMP JUMPDEST POP SWAP4 SWAP3 POP POP POP JUMP JUMPDEST PUSH1 0x0 DUP3 PUSH1 0x1F DUP4 ADD SLT PUSH3 0x1D9 JUMPI PUSH3 0x1D8 PUSH3 0x3D3 JUMP JUMPDEST JUMPDEST DUP2 MLOAD PUSH3 0x1EB DUP5 DUP3 PUSH1 0x20 DUP7 ADD PUSH3 0x176 JUMP JUMPDEST SWAP2 POP POP SWAP3 SWAP2 POP POP JUMP JUMPDEST PUSH1 0x0 PUSH1 0x20 DUP3 DUP5 SUB SLT ISZERO PUSH3 0x20D JUMPI PUSH3 0x20C PUSH3 0x3E2 JUMP JUMPDEST JUMPDEST PUSH1 0x0 DUP3 ADD MLOAD PUSH8 0xFFFFFFFFFFFFFFFF DUP2 GT ISZERO PUSH3 0x22E JUMPI PUSH3 0x22D PUSH3 0x3DD JUMP JUMPDEST JUMPDEST PUSH3 0x23C DUP5 DUP3 DUP6 ADD PUSH3 0x1C1 JUMP JUMPDEST SWAP2 POP POP SWAP3 SWAP2 POP POP JUMP JUMPDEST PUSH1 0x0 PUSH3 0x251 PUSH3 0x264 JUMP JUMPDEST SWAP1 POP PUSH3 0x25F DUP3 DUP3 PUSH3 0x310 JUMP JUMPDEST SWAP2 SWAP1 POP JUMP JUMPDEST PUSH1 0x0 PUSH1 0x40 MLOAD SWAP1 POP SWAP1 JUMP JUMPDEST PUSH1 0x0 PUSH8 0xFFFFFFFFFFFFFFFF DUP3 GT ISZERO PUSH3 0x28C JUMPI PUSH3 0x28B PUSH3 0x3A4 JUMP JUMPDEST JUMPDEST PUSH3 0x297 DUP3 PUSH3 0x3E7 JUMP JUMPDEST SWAP1 POP PUSH1 0x20 DUP2 ADD SWAP1 POP SWAP2 SWAP1 POP JUMP JUMPDEST PUSH1 0x0 JUMPDEST DUP4 DUP2 LT ISZERO PUSH3 0x2C4 JUMPI DUP1 DUP3 ADD MLOAD DUP2 DUP5 ADD MSTORE PUSH1 0x20 DUP2 ADD SWAP1 POP PUSH3 0x2A7 JUMP JUMPDEST DUP4 DUP2 GT ISZERO PUSH3 0x2D4 JUMPI PUSH1 0x0 DUP5 DUP5 ADD MSTORE JUMPDEST POP POP POP POP JUMP JUMPDEST PUSH1 0x0 PUSH1 0x2 DUP3 DIV SWAP1 POP PUSH1 0x1 DUP3 AND DUP1 PUSH3 0x2F3 JUMPI PUSH1 0x7F DUP3 AND SWAP2 POP JUMPDEST PUSH1 0x20 DUP3 LT DUP2 EQ ISZERO PUSH3 0x30A JUMPI PUSH3 0x309 PUSH3 0x375 JUMP JUMPDEST JUMPDEST POP SWAP2 SWAP1 POP JUMP JUMPDEST PUSH3 0x31B DUP3 PUSH3 0x3E7 JUMP JUMPDEST DUP2 ADD DUP2 DUP2 LT PUSH8 0xFFFFFFFFFFFFFFFF DUP3 GT OR ISZERO PUSH3 0x33D JUMPI PUSH3 0x33C PUSH3 0x3A4 JUMP JUMPDEST JUMPDEST DUP1 PUSH1 0x40 MSTORE POP POP POP JUMP JUMPDEST PUSH32 0x4E487B7100000000000000000000000000000000000000000000000000000000 PUSH1 0x0 MSTORE PUSH1 0x21 PUSH1 0x4 MSTORE PUSH1 0x24 PUSH1 0x0 REVERT JUMPDEST PUSH32 0x4E487B7100000000000000000000000000000000000000000000000000000000 PUSH1 0x0 MSTORE PUSH1 0x22 PUSH1 0x4 MSTORE PUSH1 0x24 PUSH1 0x0 REVERT JUMPDEST PUSH32 0x4E487B7100000000000000000000000000000000000000000000000000000000 PUSH1 0x0 MSTORE PUSH1 0x41 PUSH1 0x4 MSTORE PUSH1 0x24 PUSH1 0x0 REVERT JUMPDEST PUSH1 0x0 DUP1 REVERT JUMPDEST PUSH1 0x0 DUP1 REVERT JUMPDEST PUSH1 0x0 DUP1 REVERT JUMPDEST PUSH1 0x0 DUP1 REVERT JUMPDEST PUSH1 0x0 PUSH1 0x1F NOT PUSH1 0x1F DUP4 ADD AND SWAP1 POP SWAP2 SWAP1 POP JUMP JUMPDEST PUSH2 0x1047 DUP1 PUSH3 0x408 PUSH1 0x0 CODECOPY PUSH1 0x0 RETURN INVALID PUSH1 0x80 PUSH1 0x40 MSTORE CALLVALUE DUP1 ISZERO PUSH2 0x10 JUMPI PUSH1 0x0 DUP1 REVERT JUMPDEST POP PUSH1 0x4 CALLDATASIZE LT PUSH2 0xB4 JUMPI PUSH1 0x0 CALLDATALOAD PUSH1 0xE0 SHR DUP1 PUSH4 0x72753BE5 GT PUSH2 0x71 JUMPI DUP1 PUSH4 0x72753BE5 EQ PUSH2 0x1A7 JUMPI DUP1 PUSH4 0x7F611349 EQ PUSH2 0x1DA JUMPI DUP1 PUSH4 0x80843E25 EQ PUSH2 0x1F6 JUMPI DUP1 PUSH4 0x8949E009 EQ PUSH2 0x214 JUMPI DUP1 PUSH4 0xC19D93FB EQ PUSH2 0x232 JUMPI DUP1 PUSH4 0xD9E95A98 EQ PUSH2 0x250 JUMPI PUSH2 0xB4 JUMP JUMPDEST DUP1 PUSH4 0x132BE09 EQ PUSH2 0xB9 JUMPI DUP1 PUSH4 0xD15FD77 EQ PUSH2 0xE9 JUMPI DUP1 PUSH4 0x12C06342 EQ PUSH2 0x107 JUMPI DUP1 PUSH4 0x2D35A8A2 EQ PUSH2 0x138 JUMPI DUP1 PUSH4 0x46702B16 EQ PUSH2 0x156 JUMPI DUP1 PUSH4 0x5F5300FF EQ PUSH2 0x189 JUMPI JUMPDEST PUSH1 0x0 DUP1 REVERT JUMPDEST PUSH2 0xD3 PUSH1 0x4 DUP1 CALLDATASIZE SUB DUP2 ADD SWAP1 PUSH2 0xCE SWAP2 SWAP1 PUSH2 0xB7C JUMP JUMPDEST PUSH2 0x26C JUMP JUMPDEST PUSH1 0x40 MLOAD PUSH2 0xE0 SWAP2 SWAP1 PUSH2 0xCF9 JUMP JUMPDEST PUSH1 0x40 MLOAD DUP1 SWAP2 SUB SWAP1 RETURN JUMPDEST PUSH2 0xF1 PUSH2 0x284 JUMP JUMPDEST PUSH1 0x40 MLOAD PUSH2 0xFE SWAP2 SWAP1 PUSH2 0xCF9 JUMP JUMPDEST PUSH1 0x40 MLOAD DUP1 SWAP2 SUB SWAP1 RETURN JUMPDEST PUSH2 0x121 PUSH1 0x4 DUP1 CALLDATASIZE SUB DUP2 ADD SWAP1 PUSH2 0x11C SWAP2 SWAP1 PUSH2 0xAAA JUMP JUMPDEST PUSH2 0x28A JUMP JUMPDEST PUSH1 0x40 MLOAD PUSH2 0x12F SWAP3 SWAP2 SWAP1 PUSH2 0xCC9 JUMP JUMPDEST PUSH1 0x40 MLOAD DUP1 SWAP2 SUB SWAP1 RETURN JUMPDEST PUSH2 0x140 PUSH2 0x343 JUMP JUMPDEST PUSH1 0x40 MLOAD PUSH2 0x14D SWAP2 SWAP1 PUSH2 0xCF9 JUMP JUMPDEST PUSH1 0x40 MLOAD DUP1 SWAP2 SUB SWAP1 RETURN JUMPDEST PUSH2 0x170 PUSH1 0x4 DUP1 CALLDATASIZE SUB DUP2 ADD SWAP1 PUSH2 0x16B SWAP2 SWAP1 PUSH2 0xB33 JUMP JUMPDEST PUSH2 0x349 JUMP JUMPDEST PUSH1 0x40 MLOAD PUSH2 0x180 SWAP5 SWAP4 SWAP3 SWAP2 SWAP1 PUSH2 0xC76 JUMP JUMPDEST PUSH1 0x40 MLOAD DUP1 SWAP2 SUB SWAP1 RETURN JUMPDEST PUSH2 0x191 PUSH2 0x4BF JUMP JUMPDEST PUSH1 0x40 MLOAD PUSH2 0x19E SWAP2 SWAP1 PUSH2 0xCF9 JUMP JUMPDEST PUSH1 0x40 MLOAD DUP1 SWAP2 SUB SWAP1 RETURN JUMPDEST PUSH2 0x1C1 PUSH1 0x4 DUP1 CALLDATASIZE SUB DUP2 ADD SWAP1 PUSH2 0x1BC SWAP2 SWAP1 PUSH2 0xB7C JUMP JUMPDEST PUSH2 0x4C5 JUMP JUMPDEST PUSH1 0x40 MLOAD PUSH2 0x1D1 SWAP5 SWAP4 SWAP3 SWAP2 SWAP1 PUSH2 0xC76 JUMP JUMPDEST PUSH1 0x40 MLOAD DUP1 SWAP2 SUB SWAP1 RETURN JUMPDEST PUSH2 0x1F4 PUSH1 0x4 DUP1 CALLDATASIZE SUB DUP2 ADD SWAP1 PUSH2 0x1EF SWAP2 SWAP1 PUSH2 0xAD7 JUMP JUMPDEST PUSH2 0x625 JUMP JUMPDEST STOP JUMPDEST PUSH2 0x1FE PUSH2 0x7C8 JUMP JUMPDEST PUSH1 0x40 MLOAD PUSH2 0x20B SWAP2 SWAP1 PUSH2 0xC54 JUMP JUMPDEST PUSH1 0x40 MLOAD DUP1 SWAP2 SUB SWAP1 RETURN JUMPDEST PUSH2 0x21C PUSH2 0x856 JUMP JUMPDEST PUSH1 0x40 MLOAD PUSH2 0x229 SWAP2 SWAP1 PUSH2 0xC1E JUMP JUMPDEST PUSH1 0x40 MLOAD DUP1 SWAP2 SUB SWAP1 RETURN JUMPDEST PUSH2 0x23A PUSH2 0x87C JUMP JUMPDEST PUSH1 0x40 MLOAD PUSH2 0x247 SWAP2 SWAP1 PUSH2 0xC39 JUMP JUMPDEST PUSH1 0x40 MLOAD DUP1 SWAP2 SUB SWAP1 RETURN JUMPDEST PUSH2 0x26A PUSH1 0x4 DUP1 CALLDATASIZE SUB DUP2 ADD SWAP1 PUSH2 0x265 SWAP2 SWAP1 PUSH2 0xAD7 JUMP JUMPDEST PUSH2 0x88F JUMP JUMPDEST STOP JUMPDEST PUSH1 0x2 PUSH1 0x20 MSTORE DUP1 PUSH1 0x0 MSTORE PUSH1 0x40 PUSH1 0x0 KECCAK256 PUSH1 0x0 SWAP2 POP SWAP1 POP SLOAD DUP2 JUMP JUMPDEST PUSH1 0x7 SLOAD DUP2 JUMP JUMPDEST PUSH1 0x0 PUSH1 0x20 MSTORE DUP1 PUSH1 0x0 MSTORE PUSH1 0x40 PUSH1 0x0 KECCAK256 PUSH1 0x0 SWAP2 POP SWAP1 POP DUP1 PUSH1 0x0 ADD DUP1 SLOAD PUSH2 0x2AD SWAP1 PUSH2 0xE8B JUMP JUMPDEST DUP1 PUSH1 0x1F ADD PUSH1 0x20 DUP1 SWAP2 DIV MUL PUSH1 0x20 ADD PUSH1 0x40 MLOAD SWAP1 DUP2 ADD PUSH1 0x40 MSTORE DUP1 SWAP3 SWAP2 SWAP1 DUP2 DUP2 MSTORE PUSH1 0x20 ADD DUP3 DUP1 SLOAD PUSH2 0x2D9 SWAP1 PUSH2 0xE8B JUMP JUMPDEST DUP1 ISZERO PUSH2 0x326 JUMPI DUP1 PUSH1 0x1F LT PUSH2 0x2FB JUMPI PUSH2 0x100 DUP1 DUP4 SLOAD DIV MUL DUP4 MSTORE SWAP2 PUSH1 0x20 ADD SWAP2 PUSH2 0x326 JUMP JUMPDEST DUP3 ADD SWAP2 SWAP1 PUSH1 0x0 MSTORE PUSH1 0x20 PUSH1 0x0 KECCAK256 SWAP1 JUMPDEST DUP2 SLOAD DUP2 MSTORE SWAP1 PUSH1 0x1 ADD SWAP1 PUSH1 0x20 ADD DUP1 DUP4 GT PUSH2 0x309 JUMPI DUP3 SWAP1 SUB PUSH1 0x1F AND DUP3 ADD SWAP2 JUMPDEST POP POP POP POP POP SWAP1 DUP1 PUSH1 0x1 ADD PUSH1 0x0 SWAP1 SLOAD SWAP1 PUSH2 0x100 EXP SWAP1 DIV PUSH1 0xFF AND SWAP1 POP DUP3 JUMP JUMPDEST PUSH1 0x5 SLOAD DUP2 JUMP JUMPDEST PUSH1 0x4 DUP2 DUP1 MLOAD PUSH1 0x20 DUP2 ADD DUP3 ADD DUP1 MLOAD DUP5 DUP3 MSTORE PUSH1 0x20 DUP4 ADD PUSH1 0x20 DUP6 ADD KECCAK256 DUP2 DUP4 MSTORE DUP1 SWAP6 POP POP POP POP POP POP PUSH1 0x0 SWAP2 POP SWAP1 POP DUP1 PUSH1 0x0 ADD DUP1 SLOAD PUSH2 0x382 SWAP1 PUSH2 0xE8B JUMP JUMPDEST DUP1 PUSH1 0x1F ADD PUSH1 0x20 DUP1 SWAP2 DIV MUL PUSH1 0x20 ADD PUSH1 0x40 MLOAD SWAP1 DUP2 ADD PUSH1 0x40 MSTORE DUP1 SWAP3 SWAP2 SWAP1 DUP2 DUP2 MSTORE PUSH1 0x20 ADD DUP3 DUP1 SLOAD PUSH2 0x3AE SWAP1 PUSH2 0xE8B JUMP JUMPDEST DUP1 ISZERO PUSH2 0x3FB JUMPI DUP1 PUSH1 0x1F LT PUSH2 0x3D0 JUMPI PUSH2 0x100 DUP1 DUP4 SLOAD DIV MUL DUP4 MSTORE SWAP2 PUSH1 0x20 ADD SWAP2 PUSH2 0x3FB JUMP JUMPDEST DUP3 ADD SWAP2 SWAP1 PUSH1 0x0 MSTORE PUSH1 0x20 PUSH1 0x0 KECCAK256 SWAP1 JUMPDEST DUP2 SLOAD DUP2 MSTORE SWAP1 PUSH1 0x1 ADD SWAP1 PUSH1 0x20 ADD DUP1 DUP4 GT PUSH2 0x3DE JUMPI DUP3 SWAP1 SUB PUSH1 0x1F AND DUP3 ADD SWAP2 JUMPDEST POP POP POP POP POP SWAP1 DUP1 PUSH1 0x1 ADD PUSH1 0x0 SWAP1 SLOAD SWAP1 PUSH2 0x100 EXP SWAP1 DIV PUSH20 0xFFFFFFFFFFFFFFFFFFFFFFFFFFFFFFFFFFFFFFFF AND SWAP1 DUP1 PUSH1 0x2 ADD SLOAD SWAP1 DUP1 PUSH1 0x3 ADD DUP1 SLOAD PUSH2 0x43C SWAP1 PUSH2 0xE8B JUMP JUMPDEST DUP1 PUSH1 0x1F ADD PUSH1 0x20 DUP1 SWAP2 DIV MUL PUSH1 0x20 ADD PUSH1 0x40 MLOAD SWAP1 DUP2 ADD PUSH1 0x40 MSTORE DUP1 SWAP3 SWAP2 SWAP1 DUP2 DUP2 MSTORE PUSH1 0x20 ADD DUP3 DUP1 SLOAD PUSH2 0x468 SWAP1 PUSH2 0xE8B JUMP JUMPDEST DUP1 ISZERO PUSH2 0x4B5 JUMPI DUP1 PUSH1 0x1F LT PUSH2 0x48A JUMPI PUSH2 0x100 DUP1 DUP4 SLOAD DIV MUL DUP4 MSTORE SWAP2 PUSH1 0x20 ADD SWAP2 PUSH2 0x4B5 JUMP JUMPDEST DUP3 ADD SWAP2 SWAP1 PUSH1 0x0 MSTORE PUSH1 0x20 PUSH1 0x0 KECCAK256 SWAP1 JUMPDEST DUP2 SLOAD DUP2 MSTORE SWAP1 PUSH1 0x1 ADD SWAP1 PUSH1 0x20 ADD DUP1 DUP4 GT PUSH2 0x498 JUMPI DUP3 SWAP1 SUB PUSH1 0x1F AND DUP3 ADD SWAP2 JUMPDEST POP POP POP POP POP SWAP1 POP DUP5 JUMP JUMPDEST PUSH1 0x6 SLOAD DUP2 JUMP JUMPDEST PUSH1 0x3 PUSH1 0x20 MSTORE DUP1 PUSH1 0x0 MSTORE PUSH1 0x40 PUSH1 0x0 KECCAK256 PUSH1 0x0 SWAP2 POP SWAP1 POP DUP1 PUSH1 0x0 ADD DUP1 SLOAD PUSH2 0x4E8 SWAP1 PUSH2 0xE8B JUMP JUMPDEST DUP1 PUSH1 0x1F ADD PUSH1 0x20 DUP1 SWAP2 DIV MUL PUSH1 0x20 ADD PUSH1 0x40 MLOAD SWAP1 DUP2 ADD PUSH1 0x40 MSTORE DUP1 SWAP3 SWAP2 SWAP1 DUP2 DUP2 MSTORE PUSH1 0x20 ADD DUP3 DUP1 SLOAD PUSH2 0x514 SWAP1 PUSH2 0xE8B JUMP JUMPDEST DUP1 ISZERO PUSH2 0x561 JUMPI DUP1 PUSH1 0x1F LT PUSH2 0x536 JUMPI PUSH2 0x100 DUP1 DUP4 SLOAD DIV MUL DUP4 MSTORE SWAP2 PUSH1 0x20 ADD SWAP2 PUSH2 0x561 JUMP JUMPDEST DUP3 ADD SWAP2 SWAP1 PUSH1 0x0 MSTORE PUSH1 0x20 PUSH1 0x0 KECCAK256 SWAP1 JUMPDEST DUP2 SLOAD DUP2 MSTORE SWAP1 PUSH1 0x1 ADD SWAP1 PUSH1 0x20 ADD DUP1 DUP4 GT PUSH2 0x544 JUMPI DUP3 SWAP1 SUB PUSH1 0x1F AND DUP3 ADD SWAP2 JUMPDEST POP POP POP POP POP SWAP1 DUP1 PUSH1 0x1 ADD PUSH1 0x0 SWAP1 SLOAD SWAP1 PUSH2 0x100 EXP SWAP1 DIV PUSH20 0xFFFFFFFFFFFFFFFFFFFFFFFFFFFFFFFFFFFFFFFF AND SWAP1 DUP1 PUSH1 0x2 ADD SLOAD SWAP1 DUP1 PUSH1 0x3 ADD DUP1 SLOAD PUSH2 0x5A2 SWAP1 PUSH2 0xE8B JUMP JUMPDEST DUP1 PUSH1 0x1F ADD PUSH1 0x20 DUP1 SWAP2 DIV MUL PUSH1 0x20 ADD PUSH1 0x40 MLOAD SWAP1 DUP2 ADD PUSH1 0x40 MSTORE DUP1 SWAP3 SWAP2 SWAP1 DUP2 DUP2 MSTORE PUSH1 0x20 ADD DUP3 DUP1 SLOAD PUSH2 0x5CE SWAP1 PUSH2 0xE8B JUMP JUMPDEST DUP1 ISZERO PUSH2 0x61B JUMPI DUP1 PUSH1 0x1F LT PUSH2 0x5F0 JUMPI PUSH2 0x100 DUP1 DUP4 SLOAD DIV MUL DUP4 MSTORE SWAP2 PUSH1 0x20 ADD SWAP2 PUSH2 0x61B JUMP JUMPDEST DUP3 ADD SWAP2 SWAP1 PUSH1 0x0 MSTORE PUSH1 0x20 PUSH1 0x0 KECCAK256 SWAP1 JUMPDEST DUP2 SLOAD DUP2 MSTORE SWAP1 PUSH1 0x1 ADD SWAP1 PUSH1 0x20 ADD DUP1 DUP4 GT PUSH2 0x5FE JUMPI DUP3 SWAP1 SUB PUSH1 0x1F AND DUP3 ADD SWAP2 JUMPDEST POP POP POP POP POP SWAP1 POP DUP5 JUMP JUMPDEST PUSH1 0x0 DUP1 PUSH1 0x2 DUP2 GT ISZERO PUSH2 0x63A JUMPI PUSH2 0x639 PUSH2 0xF1D JUMP JUMPDEST JUMPDEST PUSH1 0x8 PUSH1 0x0 SWAP1 SLOAD SWAP1 PUSH2 0x100 EXP SWAP1 DIV PUSH1 0xFF AND PUSH1 0x2 DUP2 GT ISZERO PUSH2 0x65C JUMPI PUSH2 0x65B PUSH2 0xF1D JUMP JUMPDEST JUMPDEST EQ PUSH2 0x666 JUMPI PUSH1 0x0 DUP1 REVERT JUMPDEST CALLER PUSH20 0xFFFFFFFFFFFFFFFFFFFFFFFFFFFFFFFFFFFFFFFF AND PUSH1 0x8 PUSH1 0x1 SWAP1 SLOAD SWAP1 PUSH2 0x100 EXP SWAP1 DIV PUSH20 0xFFFFFFFFFFFFFFFFFFFFFFFFFFFFFFFFFFFFFFFF AND PUSH20 0xFFFFFFFFFFFFFFFFFFFFFFFFFFFFFFFFFFFFFFFF AND EQ PUSH2 0x6C0 JUMPI PUSH1 0x0 DUP1 REVERT JUMPDEST PUSH2 0x6C8 PUSH2 0x92F JUMP JUMPDEST DUP4 DUP2 PUSH1 0x20 ADD SWAP1 PUSH20 0xFFFFFFFFFFFFFFFFFFFFFFFFFFFFFFFFFFFFFFFF AND SWAP1 DUP2 PUSH20 0xFFFFFFFFFFFFFFFFFFFFFFFFFFFFFFFFFFFFFFFF AND DUP2 MSTORE POP POP DUP3 DUP2 PUSH1 0x0 ADD DUP2 SWAP1 MSTORE POP DUP1 PUSH1 0x3 PUSH1 0x0 PUSH1 0x5 SLOAD DUP2 MSTORE PUSH1 0x20 ADD SWAP1 DUP2 MSTORE PUSH1 0x20 ADD PUSH1 0x0 KECCAK256 PUSH1 0x0 DUP3 ADD MLOAD DUP2 PUSH1 0x0 ADD SWAP1 DUP1 MLOAD SWAP1 PUSH1 0x20 ADD SWAP1 PUSH2 0x73B SWAP3 SWAP2 SWAP1 PUSH2 0x96D JUMP JUMPDEST POP PUSH1 0x20 DUP3 ADD MLOAD DUP2 PUSH1 0x1 ADD PUSH1 0x0 PUSH2 0x100 EXP DUP2 SLOAD DUP2 PUSH20 0xFFFFFFFFFFFFFFFFFFFFFFFFFFFFFFFFFFFFFFFF MUL NOT AND SWAP1 DUP4 PUSH20 0xFFFFFFFFFFFFFFFFFFFFFFFFFFFFFFFFFFFFFFFF AND MUL OR SWAP1 SSTORE POP PUSH1 0x40 DUP3 ADD MLOAD DUP2 PUSH1 0x2 ADD SSTORE PUSH1 0x60 DUP3 ADD MLOAD DUP2 PUSH1 0x3 ADD SWAP1 DUP1 MLOAD SWAP1 PUSH1 0x20 ADD SWAP1 PUSH2 0x7A9 SWAP3 SWAP2 SWAP1 PUSH2 0x96D JUMP JUMPDEST POP SWAP1 POP POP PUSH1 0x1 PUSH1 0x5 SLOAD PUSH2 0x7BC SWAP2 SWAP1 PUSH2 0xD86 JUMP JUMPDEST PUSH1 0x5 DUP2 SWAP1 SSTORE POP POP POP POP POP JUMP JUMPDEST PUSH1 0x9 DUP1 SLOAD PUSH2 0x7D5 SWAP1 PUSH2 0xE8B JUMP JUMPDEST DUP1 PUSH1 0x1F ADD PUSH1 0x20 DUP1 SWAP2 DIV MUL PUSH1 0x20 ADD PUSH1 0x40 MLOAD SWAP1 DUP2 ADD PUSH1 0x40 MSTORE DUP1 SWAP3 SWAP2 SWAP1 DUP2 DUP2 MSTORE PUSH1 0x20 ADD DUP3 DUP1 SLOAD PUSH2 0x801 SWAP1 PUSH2 0xE8B JUMP JUMPDEST DUP1 ISZERO PUSH2 0x84E JUMPI DUP1 PUSH1 0x1F LT PUSH2 0x823 JUMPI PUSH2 0x100 DUP1 DUP4 SLOAD DIV MUL DUP4 MSTORE SWAP2 PUSH1 0x20 ADD SWAP2 PUSH2 0x84E JUMP JUMPDEST DUP3 ADD SWAP2 SWAP1 PUSH1 0x0 MSTORE PUSH1 0x20 PUSH1 0x0 KECCAK256 SWAP1 JUMPDEST DUP2 SLOAD DUP2 MSTORE SWAP1 PUSH1 0x1 ADD SWAP1 PUSH1 0x20 ADD DUP1 DUP4 GT PUSH2 0x831 JUMPI DUP3 SWAP1 SUB PUSH1 0x1F AND DUP3 ADD SWAP2 JUMPDEST POP POP POP POP POP DUP2 JUMP JUMPDEST PUSH1 0x8 PUSH1 0x1 SWAP1 SLOAD SWAP1 PUSH2 0x100 EXP SWAP1 DIV PUSH20 0xFFFFFFFFFFFFFFFFFFFFFFFFFFFFFFFFFFFFFFFF AND DUP2 JUMP JUMPDEST PUSH1 0x8 PUSH1 0x0 SWAP1 SLOAD SWAP1 PUSH2 0x100 EXP SWAP1 DIV PUSH1 0xFF AND DUP2 JUMP JUMPDEST PUSH1 0x0 DUP1 PUSH1 0x2 DUP2 GT ISZERO PUSH2 0x8A4 JUMPI PUSH2 0x8A3 PUSH2 0xF1D JUMP JUMPDEST JUMPDEST PUSH1 0x8 PUSH1 0x0 SWAP1 SLOAD SWAP1 PUSH2 0x100 EXP SWAP1 DIV PUSH1 0xFF AND PUSH1 0x2 DUP2 GT ISZERO PUSH2 0x8C6 JUMPI PUSH2 0x8C5 PUSH2 0xF1D JUMP JUMPDEST JUMPDEST EQ PUSH2 0x8D0 JUMPI PUSH1 0x0 DUP1 REVERT JUMPDEST CALLER PUSH20 0xFFFFFFFFFFFFFFFFFFFFFFFFFFFFFFFFFFFFFFFF AND PUSH1 0x8 PUSH1 0x1 SWAP1 SLOAD SWAP1 PUSH2 0x100 EXP SWAP1 DIV PUSH20 0xFFFFFFFFFFFFFFFFFFFFFFFFFFFFFFFFFFFFFFFF AND PUSH20 0xFFFFFFFFFFFFFFFFFFFFFFFFFFFFFFFFFFFFFFFF AND EQ PUSH2 0x92A JUMPI PUSH1 0x0 DUP1 REVERT JUMPDEST POP POP POP JUMP JUMPDEST PUSH1 0x40 MLOAD DUP1 PUSH1 0x80 ADD PUSH1 0x40 MSTORE DUP1 PUSH1 0x60 DUP2 MSTORE PUSH1 0x20 ADD PUSH1 0x0 PUSH20 0xFFFFFFFFFFFFFFFFFFFFFFFFFFFFFFFFFFFFFFFF AND DUP2 MSTORE PUSH1 0x20 ADD PUSH1 0x0 DUP2 MSTORE PUSH1 0x20 ADD PUSH1 0x60 DUP2 MSTORE POP SWAP1 JUMP JUMPDEST DUP3 DUP1 SLOAD PUSH2 0x979 SWAP1 PUSH2 0xE8B JUMP JUMPDEST SWAP1 PUSH1 0x0 MSTORE PUSH1 0x20 PUSH1 0x0 KECCAK256 SWAP1 PUSH1 0x1F ADD PUSH1 0x20 SWAP1 DIV DUP2 ADD SWAP3 DUP3 PUSH2 0x99B JUMPI PUSH1 0x0 DUP6 SSTORE PUSH2 0x9E2 JUMP JUMPDEST DUP3 PUSH1 0x1F LT PUSH2 0x9B4 JUMPI DUP1 MLOAD PUSH1 0xFF NOT AND DUP4 DUP1 ADD OR DUP6 SSTORE PUSH2 0x9E2 JUMP JUMPDEST DUP3 DUP1 ADD PUSH1 0x1 ADD DUP6 SSTORE DUP3 ISZERO PUSH2 0x9E2 JUMPI SWAP2 DUP3 ADD JUMPDEST DUP3 DUP2 GT ISZERO PUSH2 0x9E1 JUMPI DUP3 MLOAD DUP3 SSTORE SWAP2 PUSH1 0x20 ADD SWAP2 SWAP1 PUSH1 0x1 ADD SWAP1 PUSH2 0x9C6 JUMP JUMPDEST JUMPDEST POP SWAP1 POP PUSH2 0x9EF SWAP2 SWAP1 PUSH2 0x9F3 JUMP JUMPDEST POP SWAP1 JUMP JUMPDEST JUMPDEST DUP1 DUP3 GT ISZERO PUSH2 0xA0C JUMPI PUSH1 0x0 DUP2 PUSH1 0x0 SWAP1 SSTORE POP PUSH1 0x1 ADD PUSH2 0x9F4 JUMP JUMPDEST POP SWAP1 JUMP JUMPDEST PUSH1 0x0 PUSH2 0xA23 PUSH2 0xA1E DUP5 PUSH2 0xD39 JUMP JUMPDEST PUSH2 0xD14 JUMP JUMPDEST SWAP1 POP DUP3 DUP2 MSTORE PUSH1 0x20 DUP2 ADD DUP5 DUP5 DUP5 ADD GT ISZERO PUSH2 0xA3F JUMPI PUSH2 0xA3E PUSH2 0xFAF JUMP JUMPDEST JUMPDEST PUSH2 0xA4A DUP5 DUP3 DUP6 PUSH2 0xE49 JUMP JUMPDEST POP SWAP4 SWAP3 POP POP POP JUMP JUMPDEST PUSH1 0x0 DUP2 CALLDATALOAD SWAP1 POP PUSH2 0xA61 DUP2 PUSH2 0xFE3 JUMP JUMPDEST SWAP3 SWAP2 POP POP JUMP JUMPDEST PUSH1 0x0 DUP3 PUSH1 0x1F DUP4 ADD SLT PUSH2 0xA7C JUMPI PUSH2 0xA7B PUSH2 0xFAA JUMP JUMPDEST JUMPDEST DUP2 CALLDATALOAD PUSH2 0xA8C DUP5 DUP3 PUSH1 0x20 DUP7 ADD PUSH2 0xA10 JUMP JUMPDEST SWAP2 POP POP SWAP3 SWAP2 POP POP JUMP JUMPDEST PUSH1 0x0 DUP2 CALLDATALOAD SWAP1 POP PUSH2 0xAA4 DUP2 PUSH2 0xFFA JUMP JUMPDEST SWAP3 SWAP2 POP POP JUMP JUMPDEST PUSH1 0x0 PUSH1 0x20 DUP3 DUP5 SUB SLT ISZERO PUSH2 0xAC0 JUMPI PUSH2 0xABF PUSH2 0xFB9 JUMP JUMPDEST JUMPDEST PUSH1 0x0 PUSH2 0xACE DUP5 DUP3 DUP6 ADD PUSH2 0xA52 JUMP JUMPDEST SWAP2 POP POP SWAP3 SWAP2 POP POP JUMP JUMPDEST PUSH1 0x0 DUP1 PUSH1 0x40 DUP4 DUP6 SUB SLT ISZERO PUSH2 0xAEE JUMPI PUSH2 0xAED PUSH2 0xFB9 JUMP JUMPDEST JUMPDEST PUSH1 0x0 PUSH2 0xAFC DUP6 DUP3 DUP7 ADD PUSH2 0xA52 JUMP JUMPDEST SWAP3 POP POP PUSH1 0x20 DUP4 ADD CALLDATALOAD PUSH8 0xFFFFFFFFFFFFFFFF DUP2 GT ISZERO PUSH2 0xB1D JUMPI PUSH2 0xB1C PUSH2 0xFB4 JUMP JUMPDEST JUMPDEST PUSH2 0xB29 DUP6 DUP3 DUP7 ADD PUSH2 0xA67 JUMP JUMPDEST SWAP2 POP POP SWAP3 POP SWAP3 SWAP1 POP JUMP JUMPDEST PUSH1 0x0 PUSH1 0x20 DUP3 DUP5 SUB SLT ISZERO PUSH2 0xB49 JUMPI PUSH2 0xB48 PUSH2 0xFB9 JUMP JUMPDEST JUMPDEST PUSH1 0x0 DUP3 ADD CALLDATALOAD PUSH8 0xFFFFFFFFFFFFFFFF DUP2 GT ISZERO PUSH2 0xB67 JUMPI PUSH2 0xB66 PUSH2 0xFB4 JUMP JUMPDEST JUMPDEST PUSH2 0xB73 DUP5 DUP3 DUP6 ADD PUSH2 0xA67 JUMP JUMPDEST SWAP2 POP POP SWAP3 SWAP2 POP POP JUMP JUMPDEST PUSH1 0x0 PUSH1 0x20 DUP3 DUP5 SUB SLT ISZERO PUSH2 0xB92 JUMPI PUSH2 0xB91 PUSH2 0xFB9 JUMP JUMPDEST JUMPDEST PUSH1 0x0 PUSH2 0xBA0 DUP5 DUP3 DUP6 ADD PUSH2 0xA95 JUMP JUMPDEST SWAP2 POP POP SWAP3 SWAP2 POP POP JUMP JUMPDEST PUSH2 0xBB2 DUP2 PUSH2 0xDDC JUMP JUMPDEST DUP3 MSTORE POP POP JUMP JUMPDEST PUSH2 0xBC1 DUP2 PUSH2 0xDEE JUMP JUMPDEST DUP3 MSTORE POP POP JUMP JUMPDEST PUSH2 0xBD0 DUP2 PUSH2 0xE37 JUMP JUMPDEST DUP3 MSTORE POP POP JUMP JUMPDEST PUSH1 0x0 PUSH2 0xBE1 DUP3 PUSH2 0xD6A JUMP JUMPDEST PUSH2 0xBEB DUP2 DUP6 PUSH2 0xD75 JUMP JUMPDEST SWAP4 POP PUSH2 0xBFB DUP2 DUP6 PUSH1 0x20 DUP7 ADD PUSH2 0xE58 JUMP JUMPDEST PUSH2 0xC04 DUP2 PUSH2 0xFBE JUMP JUMPDEST DUP5 ADD SWAP2 POP POP SWAP3 SWAP2 POP POP JUMP JUMPDEST PUSH2 0xC18 DUP2 PUSH2 0xE2D JUMP JUMPDEST DUP3 MSTORE POP POP JUMP JUMPDEST PUSH1 0x0 PUSH1 0x20 DUP3 ADD SWAP1 POP PUSH2 0xC33 PUSH1 0x0 DUP4 ADD DUP5 PUSH2 0xBA9 JUMP JUMPDEST SWAP3 SWAP2 POP POP JUMP JUMPDEST PUSH1 0x0 PUSH1 0x20 DUP3 ADD SWAP1 POP PUSH2 0xC4E PUSH1 0x0 DUP4 ADD DUP5 PUSH2 0xBC7 JUMP JUMPDEST SWAP3 SWAP2 POP POP JUMP JUMPDEST PUSH1 0x0 PUSH1 0x20 DUP3 ADD SWAP1 POP DUP2 DUP2 SUB PUSH1 0x0 DUP4 ADD MSTORE PUSH2 0xC6E DUP2 DUP5 PUSH2 0xBD6 JUMP JUMPDEST SWAP1 POP SWAP3 SWAP2 POP POP JUMP JUMPDEST PUSH1 0x0 PUSH1 0x80 DUP3 ADD SWAP1 POP DUP2 DUP2 SUB PUSH1 0x0 DUP4 ADD MSTORE PUSH2 0xC90 DUP2 DUP8 PUSH2 0xBD6 JUMP JUMPDEST SWAP1 POP PUSH2 0xC9F PUSH1 0x20 DUP4 ADD DUP7 PUSH2 0xBA9 JUMP JUMPDEST PUSH2 0xCAC PUSH1 0x40 DUP4 ADD DUP6 PUSH2 0xC0F JUMP JUMPDEST DUP2 DUP2 SUB PUSH1 0x60 DUP4 ADD MSTORE PUSH2 0xCBE DUP2 DUP5 PUSH2 0xBD6 JUMP JUMPDEST SWAP1 POP SWAP6 SWAP5 POP POP POP POP POP JUMP JUMPDEST PUSH1 0x0 PUSH1 0x40 DUP3 ADD SWAP1 POP DUP2 DUP2 SUB PUSH1 0x0 DUP4 ADD MSTORE PUSH2 0xCE3 DUP2 DUP6 PUSH2 0xBD6 JUMP JUMPDEST SWAP1 POP PUSH2 0xCF2 PUSH1 0x20 DUP4 ADD DUP5 PUSH2 0xBB8 JUMP JUMPDEST SWAP4 SWAP3 POP POP POP JUMP JUMPDEST PUSH1 0x0 PUSH1 0x20 DUP3 ADD SWAP1 POP PUSH2 0xD0E PUSH1 0x0 DUP4 ADD DUP5 PUSH2 0xC0F JUMP JUMPDEST SWAP3 SWAP2 POP POP JUMP JUMPDEST PUSH1 0x0 PUSH2 0xD1E PUSH2 0xD2F JUMP JUMPDEST SWAP1 POP PUSH2 0xD2A DUP3 DUP3 PUSH2 0xEBD JUMP JUMPDEST SWAP2 SWAP1 POP JUMP JUMPDEST PUSH1 0x0 PUSH1 0x40 MLOAD SWAP1 POP SWAP1 JUMP JUMPDEST PUSH1 0x0 PUSH8 0xFFFFFFFFFFFFFFFF DUP3 GT ISZERO PUSH2 0xD54 JUMPI PUSH2 0xD53 PUSH2 0xF7B JUMP JUMPDEST JUMPDEST PUSH2 0xD5D DUP3 PUSH2 0xFBE JUMP JUMPDEST SWAP1 POP PUSH1 0x20 DUP2 ADD SWAP1 POP SWAP2 SWAP1 POP JUMP JUMPDEST PUSH1 0x0 DUP2 MLOAD SWAP1 POP SWAP2 SWAP1 POP JUMP JUMPDEST PUSH1 0x0 DUP3 DUP3 MSTORE PUSH1 0x20 DUP3 ADD SWAP1 POP SWAP3 SWAP2 POP POP JUMP JUMPDEST PUSH1 0x0 PUSH2 0xD91 DUP3 PUSH2 0xE2D JUMP JUMPDEST SWAP2 POP PUSH2 0xD9C DUP4 PUSH2 0xE2D JUMP JUMPDEST SWAP3 POP DUP3 PUSH32 0xFFFFFFFFFFFFFFFFFFFFFFFFFFFFFFFFFFFFFFFFFFFFFFFFFFFFFFFFFFFFFFFF SUB DUP3 GT ISZERO PUSH2 0xDD1 JUMPI PUSH2 0xDD0 PUSH2 0xEEE JUMP JUMPDEST JUMPDEST DUP3 DUP3 ADD SWAP1 POP SWAP3 SWAP2 POP POP JUMP JUMPDEST PUSH1 0x0 PUSH2 0xDE7 DUP3 PUSH2 0xE0D JUMP JUMPDEST SWAP1 POP SWAP2 SWAP1 POP JUMP JUMPDEST PUSH1 0x0 DUP2 ISZERO ISZERO SWAP1 POP SWAP2 SWAP1 POP JUMP JUMPDEST PUSH1 0x0 DUP2 SWAP1 POP PUSH2 0xE08 DUP3 PUSH2 0xFCF JUMP JUMPDEST SWAP2 SWAP1 POP JUMP JUMPDEST PUSH1 0x0 PUSH20 0xFFFFFFFFFFFFFFFFFFFFFFFFFFFFFFFFFFFFFFFF DUP3 AND SWAP1 POP SWAP2 SWAP1 POP JUMP JUMPDEST PUSH1 0x0 DUP2 SWAP1 POP SWAP2 SWAP1 POP JUMP JUMPDEST PUSH1 0x0 PUSH2 0xE42 DUP3 PUSH2 0xDFA JUMP JUMPDEST SWAP1 POP SWAP2 SWAP1 POP JUMP JUMPDEST DUP3 DUP2 DUP4 CALLDATACOPY PUSH1 0x0 DUP4 DUP4 ADD MSTORE POP POP POP JUMP JUMPDEST PUSH1 0x0 JUMPDEST DUP4 DUP2 LT ISZERO PUSH2 0xE76 JUMPI DUP1 DUP3 ADD MLOAD DUP2 DUP5 ADD MSTORE PUSH1 0x20 DUP2 ADD SWAP1 POP PUSH2 0xE5B JUMP JUMPDEST DUP4 DUP2 GT ISZERO PUSH2 0xE85 JUMPI PUSH1 0x0 DUP5 DUP5 ADD MSTORE JUMPDEST POP POP POP POP JUMP JUMPDEST PUSH1 0x0 PUSH1 0x2 DUP3 DIV SWAP1 POP PUSH1 0x1 DUP3 AND DUP1 PUSH2 0xEA3 JUMPI PUSH1 0x7F DUP3 AND SWAP2 POP JUMPDEST PUSH1 0x20 DUP3 LT DUP2 EQ ISZERO PUSH2 0xEB7 JUMPI PUSH2 0xEB6 PUSH2 0xF4C JUMP JUMPDEST JUMPDEST POP SWAP2 SWAP1 POP JUMP JUMPDEST PUSH2 0xEC6 DUP3 PUSH2 0xFBE JUMP JUMPDEST DUP2 ADD DUP2 DUP2 LT PUSH8 0xFFFFFFFFFFFFFFFF DUP3 GT OR ISZERO PUSH2 0xEE5 JUMPI PUSH2 0xEE4 PUSH2 0xF7B JUMP JUMPDEST JUMPDEST DUP1 PUSH1 0x40 MSTORE POP POP POP JUMP JUMPDEST PUSH32 0x4E487B7100000000000000000000000000000000000000000000000000000000 PUSH1 0x0 MSTORE PUSH1 0x11 PUSH1 0x4 MSTORE PUSH1 0x24 PUSH1 0x0 REVERT JUMPDEST PUSH32 0x4E487B7100000000000000000000000000000000000000000000000000000000 PUSH1 0x0 MSTORE PUSH1 0x21 PUSH1 0x4 MSTORE PUSH1 0x24 PUSH1 0x0 REVERT JUMPDEST PUSH32 0x4E487B7100000000000000000000000000000000000000000000000000000000 PUSH1 0x0 MSTORE PUSH1 0x22 PUSH1 0x4 MSTORE PUSH1 0x24 PUSH1 0x0 REVERT JUMPDEST PUSH32 0x4E487B7100000000000000000000000000000000000000000000000000000000 PUSH1 0x0 MSTORE PUSH1 0x41 PUSH1 0x4 MSTORE PUSH1 0x24 PUSH1 0x0 REVERT JUMPDEST PUSH1 0x0 DUP1 REVERT JUMPDEST PUSH1 0x0 DUP1 REVERT JUMPDEST PUSH1 0x0 DUP1 REVERT JUMPDEST PUSH1 0x0 DUP1 REVERT JUMPDEST PUSH1 0x0 PUSH1 0x1F NOT PUSH1 0x1F DUP4 ADD AND SWAP1 POP SWAP2 SWAP1 POP JUMP JUMPDEST PUSH1 0x3 DUP2 LT PUSH2 0xFE0 JUMPI PUSH2 0xFDF PUSH2 0xF1D JUMP JUMPDEST JUMPDEST POP JUMP JUMPDEST PUSH2 0xFEC DUP2 PUSH2 0xDDC JUMP JUMPDEST DUP2 EQ PUSH2 0xFF7 JUMPI PUSH1 0x0 DUP1 REVERT JUMPDEST POP JUMP JUMPDEST PUSH2 0x1003 DUP2 PUSH2 0xE2D JUMP JUMPDEST DUP2 EQ PUSH2 0x100E JUMPI PUSH1 0x0 DUP1 REVERT JUMPDEST POP JUMP INVALID LOG2 PUSH5 0x6970667358 0x22 SLT KECCAK256 0xBD CHAINID POP SIGNEXTEND PUSH11 0xF881243C3B722F2371371 0xCF CODESIZE EXTCODECOPY MOD CALL 0xB1 LOG0 0xBC KECCAK256 LOG1 PUSH25 0xFF0D72F53E64736F6C63430008070033000000000000000000 "
				},
				"gasEstimates": {
					"creation": {
						"codeDepositCost": "833400",
						"executionCost": "infinite",
						"totalCost": "infinite"
					},
					"external": {
						"AddressToVoter(address)": "infinite",
						"CandidateList(uint256)": "infinite",
						"ElectionName()": "infinite",
						"OragnizerAddress()": "2630",
						"SymbolToCandidate(string)": "infinite",
						"VoteCount(uint256)": "infinite",
						"addCandidates(address,string)": "infinite",
						"addVoter(address,string)": "infinite",
						"candidatesCount()": "2496",
						"state()": "2648",
						"totalVoters()": "2540",
						"totalVotes()": "2452"
					}
				},
				"methodIdentifiers": {
					"AddressToVoter(address)": "12c06342",
					"CandidateList(uint256)": "72753be5",
					"ElectionName()": "80843e25",
					"OragnizerAddress()": "8949e009",
					"SymbolToCandidate(string)": "46702b16",
					"VoteCount(uint256)": "0132be09",
					"addCandidates(address,string)": "7f611349",
					"addVoter(address,string)": "d9e95a98",
					"candidatesCount()": "2d35a8a2",
					"state()": "c19d93fb",
					"totalVoters()": "5f5300ff",
					"totalVotes()": "0d15fd77"
				}
			},
			"storageLayout": {
				"storage": [
					{
						"astId": 25,
						"contract": "contracts/Voting.sol:Voting",
						"label": "AddressToVoter",
						"offset": 0,
						"slot": "0",
						"type": "t_mapping(t_address,t_struct(Voter)11_storage)"
					},
					{
						"astId": 30,
						"contract": "contracts/Voting.sol:Voting",
						"label": "Votes",
						"offset": 0,
						"slot": "1",
						"type": "t_mapping(t_uint256,t_struct(Vote)6_storage)"
					},
					{
						"astId": 34,
						"contract": "contracts/Voting.sol:Voting",
						"label": "VoteCount",
						"offset": 0,
						"slot": "2",
						"type": "t_mapping(t_uint256,t_uint256)"
					},
					{
						"astId": 39,
						"contract": "contracts/Voting.sol:Voting",
						"label": "CandidateList",
						"offset": 0,
						"slot": "3",
						"type": "t_mapping(t_uint256,t_struct(Candidate)20_storage)"
					},
					{
						"astId": 44,
						"contract": "contracts/Voting.sol:Voting",
						"label": "SymbolToCandidate",
						"offset": 0,
						"slot": "4",
						"type": "t_mapping(t_string_memory_ptr,t_struct(Candidate)20_storage)"
					},
					{
						"astId": 46,
						"contract": "contracts/Voting.sol:Voting",
						"label": "candidatesCount",
						"offset": 0,
						"slot": "5",
						"type": "t_uint256"
					},
					{
						"astId": 48,
						"contract": "contracts/Voting.sol:Voting",
						"label": "totalVoters",
						"offset": 0,
						"slot": "6",
						"type": "t_uint256"
					},
					{
						"astId": 50,
						"contract": "contracts/Voting.sol:Voting",
						"label": "totalVotes",
						"offset": 0,
						"slot": "7",
						"type": "t_uint256"
					},
					{
						"astId": 57,
						"contract": "contracts/Voting.sol:Voting",
						"label": "state",
						"offset": 0,
						"slot": "8",
						"type": "t_enum(State)54"
					},
					{
						"astId": 59,
						"contract": "contracts/Voting.sol:Voting",
						"label": "OragnizerAddress",
						"offset": 1,
						"slot": "8",
						"type": "t_address"
					},
					{
						"astId": 61,
						"contract": "contracts/Voting.sol:Voting",
						"label": "ElectionName",
						"offset": 0,
						"slot": "9",
						"type": "t_string_storage"
					}
				],
				"types": {
					"t_address": {
						"encoding": "inplace",
						"label": "address",
						"numberOfBytes": "20"
					},
					"t_bool": {
						"encoding": "inplace",
						"label": "bool",
						"numberOfBytes": "1"
					},
					"t_enum(State)54": {
						"encoding": "inplace",
						"label": "enum Voting.State",
						"numberOfBytes": "1"
					},
					"t_mapping(t_address,t_struct(Voter)11_storage)": {
						"encoding": "mapping",
						"key": "t_address",
						"label": "mapping(address => struct Voting.Voter)",
						"numberOfBytes": "32",
						"value": "t_struct(Voter)11_storage"
					},
					"t_mapping(t_string_memory_ptr,t_struct(Candidate)20_storage)": {
						"encoding": "mapping",
						"key": "t_string_memory_ptr",
						"label": "mapping(string => struct Voting.Candidate)",
						"numberOfBytes": "32",
						"value": "t_struct(Candidate)20_storage"
					},
					"t_mapping(t_uint256,t_struct(Candidate)20_storage)": {
						"encoding": "mapping",
						"key": "t_uint256",
						"label": "mapping(uint256 => struct Voting.Candidate)",
						"numberOfBytes": "32",
						"value": "t_struct(Candidate)20_storage"
					},
					"t_mapping(t_uint256,t_struct(Vote)6_storage)": {
						"encoding": "mapping",
						"key": "t_uint256",
						"label": "mapping(uint256 => struct Voting.Vote)",
						"numberOfBytes": "32",
						"value": "t_struct(Vote)6_storage"
					},
					"t_mapping(t_uint256,t_uint256)": {
						"encoding": "mapping",
						"key": "t_uint256",
						"label": "mapping(uint256 => uint256)",
						"numberOfBytes": "32",
						"value": "t_uint256"
					},
					"t_string_memory_ptr": {
						"encoding": "bytes",
						"label": "string",
						"numberOfBytes": "32"
					},
					"t_string_storage": {
						"encoding": "bytes",
						"label": "string",
						"numberOfBytes": "32"
					},
					"t_struct(Candidate)20_storage": {
						"encoding": "inplace",
						"label": "struct Voting.Candidate",
						"members": [
							{
								"astId": 13,
								"contract": "contracts/Voting.sol:Voting",
								"label": "candidateName",
								"offset": 0,
								"slot": "0",
								"type": "t_string_storage"
							},
							{
								"astId": 15,
								"contract": "contracts/Voting.sol:Voting",
								"label": "candidateAddress",
								"offset": 0,
								"slot": "1",
								"type": "t_address"
							},
							{
								"astId": 17,
								"contract": "contracts/Voting.sol:Voting",
								"label": "numberOfVotes",
								"offset": 0,
								"slot": "2",
								"type": "t_uint256"
							},
							{
								"astId": 19,
								"contract": "contracts/Voting.sol:Voting",
								"label": "symbol",
								"offset": 0,
								"slot": "3",
								"type": "t_string_storage"
							}
						],
						"numberOfBytes": "128"
					},
					"t_struct(Vote)6_storage": {
						"encoding": "inplace",
						"label": "struct Voting.Vote",
						"members": [
							{
								"astId": 3,
								"contract": "contracts/Voting.sol:Voting",
								"label": "voterAddress",
								"offset": 0,
								"slot": "0",
								"type": "t_address"
							},
							{
								"astId": 5,
								"contract": "contracts/Voting.sol:Voting",
								"label": "symbol",
								"offset": 0,
								"slot": "1",
								"type": "t_uint256"
							}
						],
						"numberOfBytes": "64"
					},
					"t_struct(Voter)11_storage": {
						"encoding": "inplace",
						"label": "struct Voting.Voter",
						"members": [
							{
								"astId": 8,
								"contract": "contracts/Voting.sol:Voting",
								"label": "voterName",
								"offset": 0,
								"slot": "0",
								"type": "t_string_storage"
							},
							{
								"astId": 10,
								"contract": "contracts/Voting.sol:Voting",
								"label": "voted",
								"offset": 0,
								"slot": "1",
								"type": "t_bool"
							}
						],
						"numberOfBytes": "64"
					},
					"t_uint256": {
						"encoding": "inplace",
						"label": "uint256",
						"numberOfBytes": "32"
					}
				}
			},
			"userdoc": {
				"kind": "user",
				"methods": {},
				"version": 1
			}
		}
	}
}