{
	"contracts/Voting.sol": {
		"Voting": {
			"abi": [
				{
					"inputs": [
						{
							"internalType": "address",
							"name": "",
							"type": "address"
						}
					],
					"name": "AddressToVoter",
					"outputs": [
						{
							"internalType": "string",
							"name": "voterName",
							"type": "string"
						},
						{
							"internalType": "bool",
							"name": "voted",
							"type": "bool"
						}
					],
					"stateMutability": "view",
					"type": "function"
				},
				{
					"inputs": [
						{
							"internalType": "uint256",
							"name": "",
							"type": "uint256"
						}
					],
					"name": "VoteCount",
					"outputs": [
						{
							"internalType": "uint256",
							"name": "",
							"type": "uint256"
						}
					],
					"stateMutability": "view",
					"type": "function"
				}
			],
			"devdoc": {
				"kind": "dev",
				"methods": {},
				"version": 1
			},
			"evm": {
				"assembly": "    /* \"contracts/Voting.sol\":62:396  contract Voting {\r... */\n  mstore(0x40, 0x80)\n  callvalue\n  dup1\n  iszero\n  tag_1\n  jumpi\n  0x00\n  dup1\n  revert\ntag_1:\n  pop\n  dataSize(sub_0)\n  dup1\n  dataOffset(sub_0)\n  0x00\n  codecopy\n  0x00\n  return\nstop\n\nsub_0: assembly {\n        /* \"contracts/Voting.sol\":62:396  contract Voting {\r... */\n      mstore(0x40, 0x80)\n      callvalue\n      dup1\n      iszero\n      tag_1\n      jumpi\n      0x00\n      dup1\n      revert\n    tag_1:\n      pop\n      jumpi(tag_2, lt(calldatasize, 0x04))\n      shr(0xe0, calldataload(0x00))\n      dup1\n      0x0132be09\n      eq\n      tag_3\n      jumpi\n      dup1\n      0x12c06342\n      eq\n      tag_4\n      jumpi\n    tag_2:\n      0x00\n      dup1\n      revert\n        /* \"contracts/Voting.sol\":341:386  mapping (uint256 => uint256) public VoteCount */\n    tag_3:\n      tag_5\n      0x04\n      dup1\n      calldatasize\n      sub\n      dup2\n      add\n      swap1\n      tag_6\n      swap2\n      swap1\n      tag_7\n      jump\t// in\n    tag_6:\n      tag_8\n      jump\t// in\n    tag_5:\n      mload(0x40)\n      tag_9\n      swap2\n      swap1\n      tag_10\n      jump\t// in\n    tag_9:\n      mload(0x40)\n      dup1\n      swap2\n      sub\n      swap1\n      return\n        /* \"contracts/Voting.sol\":248:296  mapping (address => Voter) public AddressToVoter */\n    tag_4:\n      tag_11\n      0x04\n      dup1\n      calldatasize\n      sub\n      dup2\n      add\n      swap1\n      tag_12\n      swap2\n      swap1\n      tag_13\n      jump\t// in\n    tag_12:\n      tag_14\n      jump\t// in\n    tag_11:\n      mload(0x40)\n      tag_15\n      swap3\n      swap2\n      swap1\n      tag_16\n      jump\t// in\n    tag_15:\n      mload(0x40)\n      dup1\n      swap2\n      sub\n      swap1\n      return\n        /* \"contracts/Voting.sol\":341:386  mapping (uint256 => uint256) public VoteCount */\n    tag_8:\n      mstore(0x20, 0x02)\n      dup1\n      0x00\n      mstore\n      keccak256(0x00, 0x40)\n      0x00\n      swap2\n      pop\n      swap1\n      pop\n      sload\n      dup2\n      jump\t// out\n        /* \"contracts/Voting.sol\":248:296  mapping (address => Voter) public AddressToVoter */\n    tag_14:\n      mstore(0x20, 0x00)\n      dup1\n      0x00\n      mstore\n      keccak256(0x00, 0x40)\n      0x00\n      swap2\n      pop\n      swap1\n      pop\n      dup1\n      0x00\n      add\n      dup1\n      sload\n      tag_17\n      swap1\n      tag_18\n      jump\t// in\n    tag_17:\n      dup1\n      0x1f\n      add\n      0x20\n      dup1\n      swap2\n      div\n      mul\n      0x20\n      add\n      mload(0x40)\n      swap1\n      dup2\n      add\n      0x40\n      mstore\n      dup1\n      swap3\n      swap2\n      swap1\n      dup2\n      dup2\n      mstore\n      0x20\n      add\n      dup3\n      dup1\n      sload\n      tag_19\n      swap1\n      tag_18\n      jump\t// in\n    tag_19:\n      dup1\n      iszero\n      tag_20\n      jumpi\n      dup1\n      0x1f\n      lt\n      tag_21\n      jumpi\n      0x0100\n      dup1\n      dup4\n      sload\n      div\n      mul\n      dup4\n      mstore\n      swap2\n      0x20\n      add\n      swap2\n      jump(tag_20)\n    tag_21:\n      dup3\n      add\n      swap2\n      swap1\n      0x00\n      mstore\n      keccak256(0x00, 0x20)\n      swap1\n    tag_22:\n      dup2\n      sload\n      dup2\n      mstore\n      swap1\n      0x01\n      add\n      swap1\n      0x20\n      add\n      dup1\n      dup4\n      gt\n      tag_22\n      jumpi\n      dup3\n      swap1\n      sub\n      0x1f\n      and\n      dup3\n      add\n      swap2\n    tag_20:\n      pop\n      pop\n      pop\n      pop\n      pop\n      swap1\n      dup1\n      0x01\n      add\n      0x00\n      swap1\n      sload\n      swap1\n      0x0100\n      exp\n      swap1\n      div\n      0xff\n      and\n      swap1\n      pop\n      dup3\n      jump\t// out\n        /* \"#utility.yul\":7:146   */\n    tag_24:\n        /* \"#utility.yul\":53:58   */\n      0x00\n        /* \"#utility.yul\":91:97   */\n      dup2\n        /* \"#utility.yul\":78:98   */\n      calldataload\n        /* \"#utility.yul\":69:98   */\n      swap1\n      pop\n        /* \"#utility.yul\":107:140   */\n      tag_26\n        /* \"#utility.yul\":134:139   */\n      dup2\n        /* \"#utility.yul\":107:140   */\n      tag_27\n      jump\t// in\n    tag_26:\n        /* \"#utility.yul\":7:146   */\n      swap3\n      swap2\n      pop\n      pop\n      jump\t// out\n        /* \"#utility.yul\":152:291   */\n    tag_28:\n        /* \"#utility.yul\":198:203   */\n      0x00\n        /* \"#utility.yul\":236:242   */\n      dup2\n        /* \"#utility.yul\":223:243   */\n      calldataload\n        /* \"#utility.yul\":214:243   */\n      swap1\n      pop\n        /* \"#utility.yul\":252:285   */\n      tag_30\n        /* \"#utility.yul\":279:284   */\n      dup2\n        /* \"#utility.yul\":252:285   */\n      tag_31\n      jump\t// in\n    tag_30:\n        /* \"#utility.yul\":152:291   */\n      swap3\n      swap2\n      pop\n      pop\n      jump\t// out\n        /* \"#utility.yul\":297:626   */\n    tag_13:\n        /* \"#utility.yul\":356:362   */\n      0x00\n        /* \"#utility.yul\":405:407   */\n      0x20\n        /* \"#utility.yul\":393:402   */\n      dup3\n        /* \"#utility.yul\":384:391   */\n      dup5\n        /* \"#utility.yul\":380:403   */\n      sub\n        /* \"#utility.yul\":376:408   */\n      slt\n        /* \"#utility.yul\":373:492   */\n      iszero\n      tag_33\n      jumpi\n        /* \"#utility.yul\":411:490   */\n      tag_34\n      tag_35\n      jump\t// in\n    tag_34:\n        /* \"#utility.yul\":373:492   */\n    tag_33:\n        /* \"#utility.yul\":531:532   */\n      0x00\n        /* \"#utility.yul\":556:609   */\n      tag_36\n        /* \"#utility.yul\":601:608   */\n      dup5\n        /* \"#utility.yul\":592:598   */\n      dup3\n        /* \"#utility.yul\":581:590   */\n      dup6\n        /* \"#utility.yul\":577:599   */\n      add\n        /* \"#utility.yul\":556:609   */\n      tag_24\n      jump\t// in\n    tag_36:\n        /* \"#utility.yul\":546:609   */\n      swap2\n      pop\n        /* \"#utility.yul\":502:619   */\n      pop\n        /* \"#utility.yul\":297:626   */\n      swap3\n      swap2\n      pop\n      pop\n      jump\t// out\n        /* \"#utility.yul\":632:961   */\n    tag_7:\n        /* \"#utility.yul\":691:697   */\n      0x00\n        /* \"#utility.yul\":740:742   */\n      0x20\n        /* \"#utility.yul\":728:737   */\n      dup3\n        /* \"#utility.yul\":719:726   */\n      dup5\n        /* \"#utility.yul\":715:738   */\n      sub\n        /* \"#utility.yul\":711:743   */\n      slt\n        /* \"#utility.yul\":708:827   */\n      iszero\n      tag_38\n      jumpi\n        /* \"#utility.yul\":746:825   */\n      tag_39\n      tag_35\n      jump\t// in\n    tag_39:\n        /* \"#utility.yul\":708:827   */\n    tag_38:\n        /* \"#utility.yul\":866:867   */\n      0x00\n        /* \"#utility.yul\":891:944   */\n      tag_40\n        /* \"#utility.yul\":936:943   */\n      dup5\n        /* \"#utility.yul\":927:933   */\n      dup3\n        /* \"#utility.yul\":916:925   */\n      dup6\n        /* \"#utility.yul\":912:934   */\n      add\n        /* \"#utility.yul\":891:944   */\n      tag_28\n      jump\t// in\n    tag_40:\n        /* \"#utility.yul\":881:944   */\n      swap2\n      pop\n        /* \"#utility.yul\":837:954   */\n      pop\n        /* \"#utility.yul\":632:961   */\n      swap3\n      swap2\n      pop\n      pop\n      jump\t// out\n        /* \"#utility.yul\":967:1076   */\n    tag_41:\n        /* \"#utility.yul\":1048:1069   */\n      tag_43\n        /* \"#utility.yul\":1063:1068   */\n      dup2\n        /* \"#utility.yul\":1048:1069   */\n      tag_44\n      jump\t// in\n    tag_43:\n        /* \"#utility.yul\":1043:1046   */\n      dup3\n        /* \"#utility.yul\":1036:1070   */\n      mstore\n        /* \"#utility.yul\":967:1076   */\n      pop\n      pop\n      jump\t// out\n        /* \"#utility.yul\":1082:1446   */\n    tag_45:\n        /* \"#utility.yul\":1170:1173   */\n      0x00\n        /* \"#utility.yul\":1198:1237   */\n      tag_47\n        /* \"#utility.yul\":1231:1236   */\n      dup3\n        /* \"#utility.yul\":1198:1237   */\n      tag_48\n      jump\t// in\n    tag_47:\n        /* \"#utility.yul\":1253:1324   */\n      tag_49\n        /* \"#utility.yul\":1317:1323   */\n      dup2\n        /* \"#utility.yul\":1312:1315   */\n      dup6\n        /* \"#utility.yul\":1253:1324   */\n      tag_50\n      jump\t// in\n    tag_49:\n        /* \"#utility.yul\":1246:1324   */\n      swap4\n      pop\n        /* \"#utility.yul\":1333:1385   */\n      tag_51\n        /* \"#utility.yul\":1378:1384   */\n      dup2\n        /* \"#utility.yul\":1373:1376   */\n      dup6\n        /* \"#utility.yul\":1366:1370   */\n      0x20\n        /* \"#utility.yul\":1359:1364   */\n      dup7\n        /* \"#utility.yul\":1355:1371   */\n      add\n        /* \"#utility.yul\":1333:1385   */\n      tag_52\n      jump\t// in\n    tag_51:\n        /* \"#utility.yul\":1410:1439   */\n      tag_53\n        /* \"#utility.yul\":1432:1438   */\n      dup2\n        /* \"#utility.yul\":1410:1439   */\n      tag_54\n      jump\t// in\n    tag_53:\n        /* \"#utility.yul\":1405:1408   */\n      dup5\n        /* \"#utility.yul\":1401:1440   */\n      add\n        /* \"#utility.yul\":1394:1440   */\n      swap2\n      pop\n        /* \"#utility.yul\":1174:1446   */\n      pop\n        /* \"#utility.yul\":1082:1446   */\n      swap3\n      swap2\n      pop\n      pop\n      jump\t// out\n        /* \"#utility.yul\":1452:1570   */\n    tag_55:\n        /* \"#utility.yul\":1539:1563   */\n      tag_57\n        /* \"#utility.yul\":1557:1562   */\n      dup2\n        /* \"#utility.yul\":1539:1563   */\n      tag_58\n      jump\t// in\n    tag_57:\n        /* \"#utility.yul\":1534:1537   */\n      dup3\n        /* \"#utility.yul\":1527:1564   */\n      mstore\n        /* \"#utility.yul\":1452:1570   */\n      pop\n      pop\n      jump\t// out\n        /* \"#utility.yul\":1576:1987   */\n    tag_16:\n        /* \"#utility.yul\":1711:1715   */\n      0x00\n        /* \"#utility.yul\":1749:1751   */\n      0x40\n        /* \"#utility.yul\":1738:1747   */\n      dup3\n        /* \"#utility.yul\":1734:1752   */\n      add\n        /* \"#utility.yul\":1726:1752   */\n      swap1\n      pop\n        /* \"#utility.yul\":1798:1807   */\n      dup2\n        /* \"#utility.yul\":1792:1796   */\n      dup2\n        /* \"#utility.yul\":1788:1808   */\n      sub\n        /* \"#utility.yul\":1784:1785   */\n      0x00\n        /* \"#utility.yul\":1773:1782   */\n      dup4\n        /* \"#utility.yul\":1769:1786   */\n      add\n        /* \"#utility.yul\":1762:1809   */\n      mstore\n        /* \"#utility.yul\":1826:1904   */\n      tag_60\n        /* \"#utility.yul\":1899:1903   */\n      dup2\n        /* \"#utility.yul\":1890:1896   */\n      dup6\n        /* \"#utility.yul\":1826:1904   */\n      tag_45\n      jump\t// in\n    tag_60:\n        /* \"#utility.yul\":1818:1904   */\n      swap1\n      pop\n        /* \"#utility.yul\":1914:1980   */\n      tag_61\n        /* \"#utility.yul\":1976:1978   */\n      0x20\n        /* \"#utility.yul\":1965:1974   */\n      dup4\n        /* \"#utility.yul\":1961:1979   */\n      add\n        /* \"#utility.yul\":1952:1958   */\n      dup5\n        /* \"#utility.yul\":1914:1980   */\n      tag_41\n      jump\t// in\n    tag_61:\n        /* \"#utility.yul\":1576:1987   */\n      swap4\n      swap3\n      pop\n      pop\n      pop\n      jump\t// out\n        /* \"#utility.yul\":1993:2215   */\n    tag_10:\n        /* \"#utility.yul\":2086:2090   */\n      0x00\n        /* \"#utility.yul\":2124:2126   */\n      0x20\n        /* \"#utility.yul\":2113:2122   */\n      dup3\n        /* \"#utility.yul\":2109:2127   */\n      add\n        /* \"#utility.yul\":2101:2127   */\n      swap1\n      pop\n        /* \"#utility.yul\":2137:2208   */\n      tag_63\n        /* \"#utility.yul\":2205:2206   */\n      0x00\n        /* \"#utility.yul\":2194:2203   */\n      dup4\n        /* \"#utility.yul\":2190:2207   */\n      add\n        /* \"#utility.yul\":2181:2187   */\n      dup5\n        /* \"#utility.yul\":2137:2208   */\n      tag_55\n      jump\t// in\n    tag_63:\n        /* \"#utility.yul\":1993:2215   */\n      swap3\n      swap2\n      pop\n      pop\n      jump\t// out\n        /* \"#utility.yul\":2302:2401   */\n    tag_48:\n        /* \"#utility.yul\":2354:2360   */\n      0x00\n        /* \"#utility.yul\":2388:2393   */\n      dup2\n        /* \"#utility.yul\":2382:2394   */\n      mload\n        /* \"#utility.yul\":2372:2394   */\n      swap1\n      pop\n        /* \"#utility.yul\":2302:2401   */\n      swap2\n      swap1\n      pop\n      jump\t// out\n        /* \"#utility.yul\":2407:2576   */\n    tag_50:\n        /* \"#utility.yul\":2491:2502   */\n      0x00\n        /* \"#utility.yul\":2525:2531   */\n      dup3\n        /* \"#utility.yul\":2520:2523   */\n      dup3\n        /* \"#utility.yul\":2513:2532   */\n      mstore\n        /* \"#utility.yul\":2565:2569   */\n      0x20\n        /* \"#utility.yul\":2560:2563   */\n      dup3\n        /* \"#utility.yul\":2556:2570   */\n      add\n        /* \"#utility.yul\":2541:2570   */\n      swap1\n      pop\n        /* \"#utility.yul\":2407:2576   */\n      swap3\n      swap2\n      pop\n      pop\n      jump\t// out\n        /* \"#utility.yul\":2582:2678   */\n    tag_68:\n        /* \"#utility.yul\":2619:2626   */\n      0x00\n        /* \"#utility.yul\":2648:2672   */\n      tag_70\n        /* \"#utility.yul\":2666:2671   */\n      dup3\n        /* \"#utility.yul\":2648:2672   */\n      tag_71\n      jump\t// in\n    tag_70:\n        /* \"#utility.yul\":2637:2672   */\n      swap1\n      pop\n        /* \"#utility.yul\":2582:2678   */\n      swap2\n      swap1\n      pop\n      jump\t// out\n        /* \"#utility.yul\":2684:2774   */\n    tag_44:\n        /* \"#utility.yul\":2718:2725   */\n      0x00\n        /* \"#utility.yul\":2761:2766   */\n      dup2\n        /* \"#utility.yul\":2754:2767   */\n      iszero\n        /* \"#utility.yul\":2747:2768   */\n      iszero\n        /* \"#utility.yul\":2736:2768   */\n      swap1\n      pop\n        /* \"#utility.yul\":2684:2774   */\n      swap2\n      swap1\n      pop\n      jump\t// out\n        /* \"#utility.yul\":2780:2906   */\n    tag_71:\n        /* \"#utility.yul\":2817:2824   */\n      0x00\n        /* \"#utility.yul\":2857:2899   */\n      0xffffffffffffffffffffffffffffffffffffffff\n        /* \"#utility.yul\":2850:2855   */\n      dup3\n        /* \"#utility.yul\":2846:2900   */\n      and\n        /* \"#utility.yul\":2835:2900   */\n      swap1\n      pop\n        /* \"#utility.yul\":2780:2906   */\n      swap2\n      swap1\n      pop\n      jump\t// out\n        /* \"#utility.yul\":2912:2989   */\n    tag_58:\n        /* \"#utility.yul\":2949:2956   */\n      0x00\n        /* \"#utility.yul\":2978:2983   */\n      dup2\n        /* \"#utility.yul\":2967:2983   */\n      swap1\n      pop\n        /* \"#utility.yul\":2912:2989   */\n      swap2\n      swap1\n      pop\n      jump\t// out\n        /* \"#utility.yul\":2995:3302   */\n    tag_52:\n        /* \"#utility.yul\":3063:3064   */\n      0x00\n        /* \"#utility.yul\":3073:3186   */\n    tag_76:\n        /* \"#utility.yul\":3087:3093   */\n      dup4\n        /* \"#utility.yul\":3084:3085   */\n      dup2\n        /* \"#utility.yul\":3081:3094   */\n      lt\n        /* \"#utility.yul\":3073:3186   */\n      iszero\n      tag_78\n      jumpi\n        /* \"#utility.yul\":3172:3173   */\n      dup1\n        /* \"#utility.yul\":3167:3170   */\n      dup3\n        /* \"#utility.yul\":3163:3174   */\n      add\n        /* \"#utility.yul\":3157:3175   */\n      mload\n        /* \"#utility.yul\":3153:3154   */\n      dup2\n        /* \"#utility.yul\":3148:3151   */\n      dup5\n        /* \"#utility.yul\":3144:3155   */\n      add\n        /* \"#utility.yul\":3137:3176   */\n      mstore\n        /* \"#utility.yul\":3109:3111   */\n      0x20\n        /* \"#utility.yul\":3106:3107   */\n      dup2\n        /* \"#utility.yul\":3102:3112   */\n      add\n        /* \"#utility.yul\":3097:3112   */\n      swap1\n      pop\n        /* \"#utility.yul\":3073:3186   */\n      jump(tag_76)\n    tag_78:\n        /* \"#utility.yul\":3204:3210   */\n      dup4\n        /* \"#utility.yul\":3201:3202   */\n      dup2\n        /* \"#utility.yul\":3198:3211   */\n      gt\n        /* \"#utility.yul\":3195:3296   */\n      iszero\n      tag_79\n      jumpi\n        /* \"#utility.yul\":3284:3285   */\n      0x00\n        /* \"#utility.yul\":3275:3281   */\n      dup5\n        /* \"#utility.yul\":3270:3273   */\n      dup5\n        /* \"#utility.yul\":3266:3282   */\n      add\n        /* \"#utility.yul\":3259:3286   */\n      mstore\n        /* \"#utility.yul\":3195:3296   */\n    tag_79:\n        /* \"#utility.yul\":3044:3302   */\n      pop\n        /* \"#utility.yul\":2995:3302   */\n      pop\n      pop\n      pop\n      jump\t// out\n        /* \"#utility.yul\":3308:3628   */\n    tag_18:\n        /* \"#utility.yul\":3352:3358   */\n      0x00\n        /* \"#utility.yul\":3389:3390   */\n      0x02\n        /* \"#utility.yul\":3383:3387   */\n      dup3\n        /* \"#utility.yul\":3379:3391   */\n      div\n        /* \"#utility.yul\":3369:3391   */\n      swap1\n      pop\n        /* \"#utility.yul\":3436:3437   */\n      0x01\n        /* \"#utility.yul\":3430:3434   */\n      dup3\n        /* \"#utility.yul\":3426:3438   */\n      and\n        /* \"#utility.yul\":3457:3475   */\n      dup1\n        /* \"#utility.yul\":3447:3528   */\n      tag_81\n      jumpi\n        /* \"#utility.yul\":3513:3517   */\n      0x7f\n        /* \"#utility.yul\":3505:3511   */\n      dup3\n        /* \"#utility.yul\":3501:3518   */\n      and\n        /* \"#utility.yul\":3491:3518   */\n      swap2\n      pop\n        /* \"#utility.yul\":3447:3528   */\n    tag_81:\n        /* \"#utility.yul\":3575:3577   */\n      0x20\n        /* \"#utility.yul\":3567:3573   */\n      dup3\n        /* \"#utility.yul\":3564:3578   */\n      lt\n        /* \"#utility.yul\":3544:3562   */\n      dup2\n        /* \"#utility.yul\":3541:3579   */\n      eq\n        /* \"#utility.yul\":3538:3622   */\n      iszero\n      tag_82\n      jumpi\n        /* \"#utility.yul\":3594:3612   */\n      tag_83\n      tag_84\n      jump\t// in\n    tag_83:\n        /* \"#utility.yul\":3538:3622   */\n    tag_82:\n        /* \"#utility.yul\":3359:3628   */\n      pop\n        /* \"#utility.yul\":3308:3628   */\n      swap2\n      swap1\n      pop\n      jump\t// out\n        /* \"#utility.yul\":3634:3814   */\n    tag_84:\n        /* \"#utility.yul\":3682:3759   */\n      0x4e487b7100000000000000000000000000000000000000000000000000000000\n        /* \"#utility.yul\":3679:3680   */\n      0x00\n        /* \"#utility.yul\":3672:3760   */\n      mstore\n        /* \"#utility.yul\":3779:3783   */\n      0x22\n        /* \"#utility.yul\":3776:3777   */\n      0x04\n        /* \"#utility.yul\":3769:3784   */\n      mstore\n        /* \"#utility.yul\":3803:3807   */\n      0x24\n        /* \"#utility.yul\":3800:3801   */\n      0x00\n        /* \"#utility.yul\":3793:3808   */\n      revert\n        /* \"#utility.yul\":3943:4060   */\n    tag_35:\n        /* \"#utility.yul\":4052:4053   */\n      0x00\n        /* \"#utility.yul\":4049:4050   */\n      dup1\n        /* \"#utility.yul\":4042:4054   */\n      revert\n        /* \"#utility.yul\":4066:4168   */\n    tag_54:\n        /* \"#utility.yul\":4107:4113   */\n      0x00\n        /* \"#utility.yul\":4158:4160   */\n      0x1f\n        /* \"#utility.yul\":4154:4161   */\n      not\n        /* \"#utility.yul\":4149:4151   */\n      0x1f\n        /* \"#utility.yul\":4142:4147   */\n      dup4\n        /* \"#utility.yul\":4138:4152   */\n      add\n        /* \"#utility.yul\":4134:4162   */\n      and\n        /* \"#utility.yul\":4124:4162   */\n      swap1\n      pop\n        /* \"#utility.yul\":4066:4168   */\n      swap2\n      swap1\n      pop\n      jump\t// out\n        /* \"#utility.yul\":4174:4296   */\n    tag_27:\n        /* \"#utility.yul\":4247:4271   */\n      tag_91\n        /* \"#utility.yul\":4265:4270   */\n      dup2\n        /* \"#utility.yul\":4247:4271   */\n      tag_68\n      jump\t// in\n    tag_91:\n        /* \"#utility.yul\":4240:4245   */\n      dup2\n        /* \"#utility.yul\":4237:4272   */\n      eq\n        /* \"#utility.yul\":4227:4290   */\n      tag_92\n      jumpi\n        /* \"#utility.yul\":4286:4287   */\n      0x00\n        /* \"#utility.yul\":4283:4284   */\n      dup1\n        /* \"#utility.yul\":4276:4288   */\n      revert\n        /* \"#utility.yul\":4227:4290   */\n    tag_92:\n        /* \"#utility.yul\":4174:4296   */\n      pop\n      jump\t// out\n        /* \"#utility.yul\":4302:4424   */\n    tag_31:\n        /* \"#utility.yul\":4375:4399   */\n      tag_94\n        /* \"#utility.yul\":4393:4398   */\n      dup2\n        /* \"#utility.yul\":4375:4399   */\n      tag_58\n      jump\t// in\n    tag_94:\n        /* \"#utility.yul\":4368:4373   */\n      dup2\n        /* \"#utility.yul\":4365:4400   */\n      eq\n        /* \"#utility.yul\":4355:4418   */\n      tag_95\n      jumpi\n        /* \"#utility.yul\":4414:4415   */\n      0x00\n        /* \"#utility.yul\":4411:4412   */\n      dup1\n        /* \"#utility.yul\":4404:4416   */\n      revert\n        /* \"#utility.yul\":4355:4418   */\n    tag_95:\n        /* \"#utility.yul\":4302:4424   */\n      pop\n      jump\t// out\n\n    auxdata: 0xa2646970667358221220cc3633faeccc24db19fe6243c2249071ad0181025b93395a520f00ebc4bf70a964736f6c63430008070033\n}\n",
				"bytecode": {
					"linkReferences": {},
					"object": "608060405234801561001057600080fd5b50610405806100206000396000f3fe608060405234801561001057600080fd5b50600436106100365760003560e01c80630132be091461003b57806312c063421461006b575b600080fd5b610055600480360381019061005091906101c4565b61009c565b6040516100629190610278565b60405180910390f35b61008560048036038101906100809190610197565b6100b4565b604051610093929190610248565b60405180910390f35b60026020528060005260406000206000915090505481565b60006020528060005260406000206000915090508060000180546100d79061032a565b80601f01602080910402602001604051908101604052809291908181526020018280546101039061032a565b80156101505780601f1061012557610100808354040283529160200191610150565b820191906000526020600020905b81548152906001019060200180831161013357829003601f168201915b5050505050908060010160009054906101000a900460ff16905082565b60008135905061017c816103a1565b92915050565b600081359050610191816103b8565b92915050565b6000602082840312156101ad576101ac61038b565b5b60006101bb8482850161016d565b91505092915050565b6000602082840312156101da576101d961038b565b5b60006101e884828501610182565b91505092915050565b6101fa816102c1565b82525050565b600061020b82610293565b610215818561029e565b93506102258185602086016102f7565b61022e81610390565b840191505092915050565b610242816102ed565b82525050565b600060408201905081810360008301526102628185610200565b905061027160208301846101f1565b9392505050565b600060208201905061028d6000830184610239565b92915050565b600081519050919050565b600082825260208201905092915050565b60006102ba826102cd565b9050919050565b60008115159050919050565b600073ffffffffffffffffffffffffffffffffffffffff82169050919050565b6000819050919050565b60005b838110156103155780820151818401526020810190506102fa565b83811115610324576000848401525b50505050565b6000600282049050600182168061034257607f821691505b602082108114156103565761035561035c565b5b50919050565b7f4e487b7100000000000000000000000000000000000000000000000000000000600052602260045260246000fd5b600080fd5b6000601f19601f8301169050919050565b6103aa816102af565b81146103b557600080fd5b50565b6103c1816102ed565b81146103cc57600080fd5b5056fea2646970667358221220cc3633faeccc24db19fe6243c2249071ad0181025b93395a520f00ebc4bf70a964736f6c63430008070033",
					"opcodes": "PUSH1 0x80 PUSH1 0x40 MSTORE CALLVALUE DUP1 ISZERO PUSH2 0x10 JUMPI PUSH1 0x0 DUP1 REVERT JUMPDEST POP PUSH2 0x405 DUP1 PUSH2 0x20 PUSH1 0x0 CODECOPY PUSH1 0x0 RETURN INVALID PUSH1 0x80 PUSH1 0x40 MSTORE CALLVALUE DUP1 ISZERO PUSH2 0x10 JUMPI PUSH1 0x0 DUP1 REVERT JUMPDEST POP PUSH1 0x4 CALLDATASIZE LT PUSH2 0x36 JUMPI PUSH1 0x0 CALLDATALOAD PUSH1 0xE0 SHR DUP1 PUSH4 0x132BE09 EQ PUSH2 0x3B JUMPI DUP1 PUSH4 0x12C06342 EQ PUSH2 0x6B JUMPI JUMPDEST PUSH1 0x0 DUP1 REVERT JUMPDEST PUSH2 0x55 PUSH1 0x4 DUP1 CALLDATASIZE SUB DUP2 ADD SWAP1 PUSH2 0x50 SWAP2 SWAP1 PUSH2 0x1C4 JUMP JUMPDEST PUSH2 0x9C JUMP JUMPDEST PUSH1 0x40 MLOAD PUSH2 0x62 SWAP2 SWAP1 PUSH2 0x278 JUMP JUMPDEST PUSH1 0x40 MLOAD DUP1 SWAP2 SUB SWAP1 RETURN JUMPDEST PUSH2 0x85 PUSH1 0x4 DUP1 CALLDATASIZE SUB DUP2 ADD SWAP1 PUSH2 0x80 SWAP2 SWAP1 PUSH2 0x197 JUMP JUMPDEST PUSH2 0xB4 JUMP JUMPDEST PUSH1 0x40 MLOAD PUSH2 0x93 SWAP3 SWAP2 SWAP1 PUSH2 0x248 JUMP JUMPDEST PUSH1 0x40 MLOAD DUP1 SWAP2 SUB SWAP1 RETURN JUMPDEST PUSH1 0x2 PUSH1 0x20 MSTORE DUP1 PUSH1 0x0 MSTORE PUSH1 0x40 PUSH1 0x0 KECCAK256 PUSH1 0x0 SWAP2 POP SWAP1 POP SLOAD DUP2 JUMP JUMPDEST PUSH1 0x0 PUSH1 0x20 MSTORE DUP1 PUSH1 0x0 MSTORE PUSH1 0x40 PUSH1 0x0 KECCAK256 PUSH1 0x0 SWAP2 POP SWAP1 POP DUP1 PUSH1 0x0 ADD DUP1 SLOAD PUSH2 0xD7 SWAP1 PUSH2 0x32A JUMP JUMPDEST DUP1 PUSH1 0x1F ADD PUSH1 0x20 DUP1 SWAP2 DIV MUL PUSH1 0x20 ADD PUSH1 0x40 MLOAD SWAP1 DUP2 ADD PUSH1 0x40 MSTORE DUP1 SWAP3 SWAP2 SWAP1 DUP2 DUP2 MSTORE PUSH1 0x20 ADD DUP3 DUP1 SLOAD PUSH2 0x103 SWAP1 PUSH2 0x32A JUMP JUMPDEST DUP1 ISZERO PUSH2 0x150 JUMPI DUP1 PUSH1 0x1F LT PUSH2 0x125 JUMPI PUSH2 0x100 DUP1 DUP4 SLOAD DIV MUL DUP4 MSTORE SWAP2 PUSH1 0x20 ADD SWAP2 PUSH2 0x150 JUMP JUMPDEST DUP3 ADD SWAP2 SWAP1 PUSH1 0x0 MSTORE PUSH1 0x20 PUSH1 0x0 KECCAK256 SWAP1 JUMPDEST DUP2 SLOAD DUP2 MSTORE SWAP1 PUSH1 0x1 ADD SWAP1 PUSH1 0x20 ADD DUP1 DUP4 GT PUSH2 0x133 JUMPI DUP3 SWAP1 SUB PUSH1 0x1F AND DUP3 ADD SWAP2 JUMPDEST POP POP POP POP POP SWAP1 DUP1 PUSH1 0x1 ADD PUSH1 0x0 SWAP1 SLOAD SWAP1 PUSH2 0x100 EXP SWAP1 DIV PUSH1 0xFF AND SWAP1 POP DUP3 JUMP JUMPDEST PUSH1 0x0 DUP2 CALLDATALOAD SWAP1 POP PUSH2 0x17C DUP2 PUSH2 0x3A1 JUMP JUMPDEST SWAP3 SWAP2 POP POP JUMP JUMPDEST PUSH1 0x0 DUP2 CALLDATALOAD SWAP1 POP PUSH2 0x191 DUP2 PUSH2 0x3B8 JUMP JUMPDEST SWAP3 SWAP2 POP POP JUMP JUMPDEST PUSH1 0x0 PUSH1 0x20 DUP3 DUP5 SUB SLT ISZERO PUSH2 0x1AD JUMPI PUSH2 0x1AC PUSH2 0x38B JUMP JUMPDEST JUMPDEST PUSH1 0x0 PUSH2 0x1BB DUP5 DUP3 DUP6 ADD PUSH2 0x16D JUMP JUMPDEST SWAP2 POP POP SWAP3 SWAP2 POP POP JUMP JUMPDEST PUSH1 0x0 PUSH1 0x20 DUP3 DUP5 SUB SLT ISZERO PUSH2 0x1DA JUMPI PUSH2 0x1D9 PUSH2 0x38B JUMP JUMPDEST JUMPDEST PUSH1 0x0 PUSH2 0x1E8 DUP5 DUP3 DUP6 ADD PUSH2 0x182 JUMP JUMPDEST SWAP2 POP POP SWAP3 SWAP2 POP POP JUMP JUMPDEST PUSH2 0x1FA DUP2 PUSH2 0x2C1 JUMP JUMPDEST DUP3 MSTORE POP POP JUMP JUMPDEST PUSH1 0x0 PUSH2 0x20B DUP3 PUSH2 0x293 JUMP JUMPDEST PUSH2 0x215 DUP2 DUP6 PUSH2 0x29E JUMP JUMPDEST SWAP4 POP PUSH2 0x225 DUP2 DUP6 PUSH1 0x20 DUP7 ADD PUSH2 0x2F7 JUMP JUMPDEST PUSH2 0x22E DUP2 PUSH2 0x390 JUMP JUMPDEST DUP5 ADD SWAP2 POP POP SWAP3 SWAP2 POP POP JUMP JUMPDEST PUSH2 0x242 DUP2 PUSH2 0x2ED JUMP JUMPDEST DUP3 MSTORE POP POP JUMP JUMPDEST PUSH1 0x0 PUSH1 0x40 DUP3 ADD SWAP1 POP DUP2 DUP2 SUB PUSH1 0x0 DUP4 ADD MSTORE PUSH2 0x262 DUP2 DUP6 PUSH2 0x200 JUMP JUMPDEST SWAP1 POP PUSH2 0x271 PUSH1 0x20 DUP4 ADD DUP5 PUSH2 0x1F1 JUMP JUMPDEST SWAP4 SWAP3 POP POP POP JUMP JUMPDEST PUSH1 0x0 PUSH1 0x20 DUP3 ADD SWAP1 POP PUSH2 0x28D PUSH1 0x0 DUP4 ADD DUP5 PUSH2 0x239 JUMP JUMPDEST SWAP3 SWAP2 POP POP JUMP JUMPDEST PUSH1 0x0 DUP2 MLOAD SWAP1 POP SWAP2 SWAP1 POP JUMP JUMPDEST PUSH1 0x0 DUP3 DUP3 MSTORE PUSH1 0x20 DUP3 ADD SWAP1 POP SWAP3 SWAP2 POP POP JUMP JUMPDEST PUSH1 0x0 PUSH2 0x2BA DUP3 PUSH2 0x2CD JUMP JUMPDEST SWAP1 POP SWAP2 SWAP1 POP JUMP JUMPDEST PUSH1 0x0 DUP2 ISZERO ISZERO SWAP1 POP SWAP2 SWAP1 POP JUMP JUMPDEST PUSH1 0x0 PUSH20 0xFFFFFFFFFFFFFFFFFFFFFFFFFFFFFFFFFFFFFFFF DUP3 AND SWAP1 POP SWAP2 SWAP1 POP JUMP JUMPDEST PUSH1 0x0 DUP2 SWAP1 POP SWAP2 SWAP1 POP JUMP JUMPDEST PUSH1 0x0 JUMPDEST DUP4 DUP2 LT ISZERO PUSH2 0x315 JUMPI DUP1 DUP3 ADD MLOAD DUP2 DUP5 ADD MSTORE PUSH1 0x20 DUP2 ADD SWAP1 POP PUSH2 0x2FA JUMP JUMPDEST DUP4 DUP2 GT ISZERO PUSH2 0x324 JUMPI PUSH1 0x0 DUP5 DUP5 ADD MSTORE JUMPDEST POP POP POP POP JUMP JUMPDEST PUSH1 0x0 PUSH1 0x2 DUP3 DIV SWAP1 POP PUSH1 0x1 DUP3 AND DUP1 PUSH2 0x342 JUMPI PUSH1 0x7F DUP3 AND SWAP2 POP JUMPDEST PUSH1 0x20 DUP3 LT DUP2 EQ ISZERO PUSH2 0x356 JUMPI PUSH2 0x355 PUSH2 0x35C JUMP JUMPDEST JUMPDEST POP SWAP2 SWAP1 POP JUMP JUMPDEST PUSH32 0x4E487B7100000000000000000000000000000000000000000000000000000000 PUSH1 0x0 MSTORE PUSH1 0x22 PUSH1 0x4 MSTORE PUSH1 0x24 PUSH1 0x0 REVERT JUMPDEST PUSH1 0x0 DUP1 REVERT JUMPDEST PUSH1 0x0 PUSH1 0x1F NOT PUSH1 0x1F DUP4 ADD AND SWAP1 POP SWAP2 SWAP1 POP JUMP JUMPDEST PUSH2 0x3AA DUP2 PUSH2 0x2AF JUMP JUMPDEST DUP2 EQ PUSH2 0x3B5 JUMPI PUSH1 0x0 DUP1 REVERT JUMPDEST POP JUMP JUMPDEST PUSH2 0x3C1 DUP2 PUSH2 0x2ED JUMP JUMPDEST DUP2 EQ PUSH2 0x3CC JUMPI PUSH1 0x0 DUP1 REVERT JUMPDEST POP JUMP INVALID LOG2 PUSH5 0x6970667358 0x22 SLT KECCAK256 0xCC CALLDATASIZE CALLER STATICCALL 0xEC 0xCC 0x24 0xDB NOT INVALID PUSH3 0x43C224 SWAP1 PUSH18 0xAD0181025B93395A520F00EBC4BF70A96473 PUSH16 0x6C634300080700330000000000000000 "
				},
				"gasEstimates": {
					"creation": {
						"codeDepositCost": "205800",
						"executionCost": "251",
						"totalCost": "206051"
					},
					"external": {
						"AddressToVoter(address)": "infinite",
						"VoteCount(uint256)": "infinite"
					}
				},
				"methodIdentifiers": {
					"AddressToVoter(address)": "12c06342",
					"VoteCount(uint256)": "0132be09"
				}
			},
			"storageLayout": {
				"storage": [
					{
						"astId": 16,
						"contract": "contracts/Voting.sol:Voting",
						"label": "AddressToVoter",
						"offset": 0,
						"slot": "0",
						"type": "t_mapping(t_address,t_struct(Voter)11_storage)"
					},
					{
						"astId": 21,
						"contract": "contracts/Voting.sol:Voting",
						"label": "Votes",
						"offset": 0,
						"slot": "1",
						"type": "t_mapping(t_uint256,t_struct(Vote)6_storage)"
					},
					{
						"astId": 25,
						"contract": "contracts/Voting.sol:Voting",
						"label": "VoteCount",
						"offset": 0,
						"slot": "2",
						"type": "t_mapping(t_uint256,t_uint256)"
					}
				],
				"types": {
					"t_address": {
						"encoding": "inplace",
						"label": "address",
						"numberOfBytes": "20"
					},
					"t_bool": {
						"encoding": "inplace",
						"label": "bool",
						"numberOfBytes": "1"
					},
					"t_mapping(t_address,t_struct(Voter)11_storage)": {
						"encoding": "mapping",
						"key": "t_address",
						"label": "mapping(address => struct Voting.Voter)",
						"numberOfBytes": "32",
						"value": "t_struct(Voter)11_storage"
					},
					"t_mapping(t_uint256,t_struct(Vote)6_storage)": {
						"encoding": "mapping",
						"key": "t_uint256",
						"label": "mapping(uint256 => struct Voting.Vote)",
						"numberOfBytes": "32",
						"value": "t_struct(Vote)6_storage"
					},
					"t_mapping(t_uint256,t_uint256)": {
						"encoding": "mapping",
						"key": "t_uint256",
						"label": "mapping(uint256 => uint256)",
						"numberOfBytes": "32",
						"value": "t_uint256"
					},
					"t_string_storage": {
						"encoding": "bytes",
						"label": "string",
						"numberOfBytes": "32"
					},
					"t_struct(Vote)6_storage": {
						"encoding": "inplace",
						"label": "struct Voting.Vote",
						"members": [
							{
								"astId": 3,
								"contract": "contracts/Voting.sol:Voting",
								"label": "voterAddress",
								"offset": 0,
								"slot": "0",
								"type": "t_address"
							},
							{
								"astId": 5,
								"contract": "contracts/Voting.sol:Voting",
								"label": "choice",
								"offset": 0,
								"slot": "1",
								"type": "t_uint256"
							}
						],
						"numberOfBytes": "64"
					},
					"t_struct(Voter)11_storage": {
						"encoding": "inplace",
						"label": "struct Voting.Voter",
						"members": [
							{
								"astId": 8,
								"contract": "contracts/Voting.sol:Voting",
								"label": "voterName",
								"offset": 0,
								"slot": "0",
								"type": "t_string_storage"
							},
							{
								"astId": 10,
								"contract": "contracts/Voting.sol:Voting",
								"label": "voted",
								"offset": 0,
								"slot": "1",
								"type": "t_bool"
							}
						],
						"numberOfBytes": "64"
					},
					"t_uint256": {
						"encoding": "inplace",
						"label": "uint256",
						"numberOfBytes": "32"
					}
				}
			},
			"userdoc": {
				"kind": "user",
				"methods": {},
				"version": 1
			}
		}
	}
}