{
	"contracts/Voting.sol": {
		"Voting": {
			"abi": [
				{
					"inputs": [
						{
							"internalType": "address",
							"name": "",
							"type": "address"
						}
					],
					"name": "AddressToVoter",
					"outputs": [
						{
							"internalType": "string",
							"name": "voterName",
							"type": "string"
						},
						{
							"internalType": "bool",
							"name": "voted",
							"type": "bool"
						}
					],
					"stateMutability": "view",
					"type": "function"
				},
				{
					"inputs": [
						{
							"internalType": "uint256",
							"name": "",
							"type": "uint256"
						}
					],
					"name": "VoteCount",
					"outputs": [
						{
							"internalType": "uint256",
							"name": "",
							"type": "uint256"
						}
					],
					"stateMutability": "view",
					"type": "function"
				},
				{
					"inputs": [
						{
							"internalType": "address",
							"name": "_voterAddress",
							"type": "address"
						},
						{
							"internalType": "string",
							"name": "_voterName",
							"type": "string"
						}
					],
					"name": "addVoter",
					"outputs": [],
					"stateMutability": "nonpayable",
					"type": "function"
				},
				{
					"inputs": [],
					"name": "ballotOfficialAddress",
					"outputs": [
						{
							"internalType": "address",
							"name": "",
							"type": "address"
						}
					],
					"stateMutability": "view",
					"type": "function"
				},
				{
					"inputs": [],
					"name": "ballotOfficialName",
					"outputs": [
						{
							"internalType": "string",
							"name": "",
							"type": "string"
						}
					],
					"stateMutability": "view",
					"type": "function"
				},
				{
					"inputs": [],
					"name": "state",
					"outputs": [
						{
							"internalType": "enum Voting.State",
							"name": "",
							"type": "uint8"
						}
					],
					"stateMutability": "view",
					"type": "function"
				},
				{
					"inputs": [],
					"name": "totalVoters",
					"outputs": [
						{
							"internalType": "uint256",
							"name": "",
							"type": "uint256"
						}
					],
					"stateMutability": "view",
					"type": "function"
				},
				{
					"inputs": [],
					"name": "totalVotes",
					"outputs": [
						{
							"internalType": "uint256",
							"name": "",
							"type": "uint256"
						}
					],
					"stateMutability": "view",
					"type": "function"
				}
			],
			"devdoc": {
				"kind": "dev",
				"methods": {},
				"version": 1
			},
			"evm": {
				"assembly": "    /* \"contracts/Voting.sol\":62:812  contract Voting {\r... */\n  mstore(0x40, 0x80)\n  callvalue\n  dup1\n  iszero\n  tag_1\n  jumpi\n  0x00\n  dup1\n  revert\ntag_1:\n  pop\n  dataSize(sub_0)\n  dup1\n  dataOffset(sub_0)\n  0x00\n  codecopy\n  0x00\n  return\nstop\n\nsub_0: assembly {\n        /* \"contracts/Voting.sol\":62:812  contract Voting {\r... */\n      mstore(0x40, 0x80)\n      callvalue\n      dup1\n      iszero\n      tag_1\n      jumpi\n      0x00\n      dup1\n      revert\n    tag_1:\n      pop\n      jumpi(tag_2, lt(calldatasize, 0x04))\n      shr(0xe0, calldataload(0x00))\n      dup1\n      0x90949747\n      gt\n      tag_11\n      jumpi\n      dup1\n      0x90949747\n      eq\n      tag_7\n      jumpi\n      dup1\n      0xc19d93fb\n      eq\n      tag_8\n      jumpi\n      dup1\n      0xd9e95a98\n      eq\n      tag_9\n      jumpi\n      dup1\n      0xde975d18\n      eq\n      tag_10\n      jumpi\n      jump(tag_2)\n    tag_11:\n      dup1\n      0x0132be09\n      eq\n      tag_3\n      jumpi\n      dup1\n      0x0d15fd77\n      eq\n      tag_4\n      jumpi\n      dup1\n      0x12c06342\n      eq\n      tag_5\n      jumpi\n      dup1\n      0x5f5300ff\n      eq\n      tag_6\n      jumpi\n    tag_2:\n      0x00\n      dup1\n      revert\n        /* \"contracts/Voting.sol\":341:386  mapping (uint256 => uint256) public VoteCount */\n    tag_3:\n      tag_12\n      0x04\n      dup1\n      calldatasize\n      sub\n      dup2\n      add\n      swap1\n      tag_13\n      swap2\n      swap1\n      tag_14\n      jump\t// in\n    tag_13:\n      tag_15\n      jump\t// in\n    tag_12:\n      mload(0x40)\n      tag_16\n      swap2\n      swap1\n      tag_17\n      jump\t// in\n    tag_16:\n      mload(0x40)\n      dup1\n      swap2\n      sub\n      swap1\n      return\n        /* \"contracts/Voting.sol\":428:453  uint256 public totalVotes */\n    tag_4:\n      tag_18\n      tag_19\n      jump\t// in\n    tag_18:\n      mload(0x40)\n      tag_20\n      swap2\n      swap1\n      tag_17\n      jump\t// in\n    tag_20:\n      mload(0x40)\n      dup1\n      swap2\n      sub\n      swap1\n      return\n        /* \"contracts/Voting.sol\":248:296  mapping (address => Voter) public AddressToVoter */\n    tag_5:\n      tag_21\n      0x04\n      dup1\n      calldatasize\n      sub\n      dup2\n      add\n      swap1\n      tag_22\n      swap2\n      swap1\n      tag_23\n      jump\t// in\n    tag_22:\n      tag_24\n      jump\t// in\n    tag_21:\n      mload(0x40)\n      tag_25\n      swap3\n      swap2\n      swap1\n      tag_26\n      jump\t// in\n    tag_25:\n      mload(0x40)\n      dup1\n      swap2\n      sub\n      swap1\n      return\n        /* \"contracts/Voting.sol\":395:421  uint256 public totalVoters */\n    tag_6:\n      tag_27\n      tag_28\n      jump\t// in\n    tag_27:\n      mload(0x40)\n      tag_29\n      swap2\n      swap1\n      tag_17\n      jump\t// in\n    tag_29:\n      mload(0x40)\n      dup1\n      swap2\n      sub\n      swap1\n      return\n        /* \"contracts/Voting.sol\":532:568  address public ballotOfficialAddress */\n    tag_7:\n      tag_30\n      tag_31\n      jump\t// in\n    tag_30:\n      mload(0x40)\n      tag_32\n      swap2\n      swap1\n      tag_33\n      jump\t// in\n    tag_32:\n      mload(0x40)\n      dup1\n      swap2\n      sub\n      swap1\n      return\n        /* \"contracts/Voting.sol\":505:523  State public state */\n    tag_8:\n      tag_34\n      tag_35\n      jump\t// in\n    tag_34:\n      mload(0x40)\n      tag_36\n      swap2\n      swap1\n      tag_37\n      jump\t// in\n    tag_36:\n      mload(0x40)\n      dup1\n      swap2\n      sub\n      swap1\n      return\n        /* \"contracts/Voting.sol\":624:708  function addVoter(address _voterAddress, string memory _voterName) public {\r... */\n    tag_9:\n      tag_38\n      0x04\n      dup1\n      calldatasize\n      sub\n      dup2\n      add\n      swap1\n      tag_39\n      swap2\n      swap1\n      tag_40\n      jump\t// in\n    tag_39:\n      tag_41\n      jump\t// in\n    tag_38:\n      stop\n        /* \"contracts/Voting.sol\":581:613  string public ballotOfficialName */\n    tag_10:\n      tag_42\n      tag_43\n      jump\t// in\n    tag_42:\n      mload(0x40)\n      tag_44\n      swap2\n      swap1\n      tag_45\n      jump\t// in\n    tag_44:\n      mload(0x40)\n      dup1\n      swap2\n      sub\n      swap1\n      return\n        /* \"contracts/Voting.sol\":341:386  mapping (uint256 => uint256) public VoteCount */\n    tag_15:\n      mstore(0x20, 0x02)\n      dup1\n      0x00\n      mstore\n      keccak256(0x00, 0x40)\n      0x00\n      swap2\n      pop\n      swap1\n      pop\n      sload\n      dup2\n      jump\t// out\n        /* \"contracts/Voting.sol\":428:453  uint256 public totalVotes */\n    tag_19:\n      sload(0x04)\n      dup2\n      jump\t// out\n        /* \"contracts/Voting.sol\":248:296  mapping (address => Voter) public AddressToVoter */\n    tag_24:\n      mstore(0x20, 0x00)\n      dup1\n      0x00\n      mstore\n      keccak256(0x00, 0x40)\n      0x00\n      swap2\n      pop\n      swap1\n      pop\n      dup1\n      0x00\n      add\n      dup1\n      sload\n      tag_46\n      swap1\n      tag_47\n      jump\t// in\n    tag_46:\n      dup1\n      0x1f\n      add\n      0x20\n      dup1\n      swap2\n      div\n      mul\n      0x20\n      add\n      mload(0x40)\n      swap1\n      dup2\n      add\n      0x40\n      mstore\n      dup1\n      swap3\n      swap2\n      swap1\n      dup2\n      dup2\n      mstore\n      0x20\n      add\n      dup3\n      dup1\n      sload\n      tag_48\n      swap1\n      tag_47\n      jump\t// in\n    tag_48:\n      dup1\n      iszero\n      tag_49\n      jumpi\n      dup1\n      0x1f\n      lt\n      tag_50\n      jumpi\n      0x0100\n      dup1\n      dup4\n      sload\n      div\n      mul\n      dup4\n      mstore\n      swap2\n      0x20\n      add\n      swap2\n      jump(tag_49)\n    tag_50:\n      dup3\n      add\n      swap2\n      swap1\n      0x00\n      mstore\n      keccak256(0x00, 0x20)\n      swap1\n    tag_51:\n      dup2\n      sload\n      dup2\n      mstore\n      swap1\n      0x01\n      add\n      swap1\n      0x20\n      add\n      dup1\n      dup4\n      gt\n      tag_51\n      jumpi\n      dup3\n      swap1\n      sub\n      0x1f\n      and\n      dup3\n      add\n      swap2\n    tag_49:\n      pop\n      pop\n      pop\n      pop\n      pop\n      swap1\n      dup1\n      0x01\n      add\n      0x00\n      swap1\n      sload\n      swap1\n      0x0100\n      exp\n      swap1\n      div\n      0xff\n      and\n      swap1\n      pop\n      dup3\n      jump\t// out\n        /* \"contracts/Voting.sol\":395:421  uint256 public totalVoters */\n    tag_28:\n      sload(0x03)\n      dup2\n      jump\t// out\n        /* \"contracts/Voting.sol\":532:568  address public ballotOfficialAddress */\n    tag_31:\n      0x05\n      0x01\n      swap1\n      sload\n      swap1\n      0x0100\n      exp\n      swap1\n      div\n      0xffffffffffffffffffffffffffffffffffffffff\n      and\n      dup2\n      jump\t// out\n        /* \"contracts/Voting.sol\":505:523  State public state */\n    tag_35:\n      0x05\n      0x00\n      swap1\n      sload\n      swap1\n      0x0100\n      exp\n      swap1\n      div\n      0xff\n      and\n      dup2\n      jump\t// out\n        /* \"contracts/Voting.sol\":624:708  function addVoter(address _voterAddress, string memory _voterName) public {\r... */\n    tag_41:\n      pop\n      pop\n      jump\t// out\n        /* \"contracts/Voting.sol\":581:613  string public ballotOfficialName */\n    tag_43:\n      0x06\n      dup1\n      sload\n      tag_53\n      swap1\n      tag_47\n      jump\t// in\n    tag_53:\n      dup1\n      0x1f\n      add\n      0x20\n      dup1\n      swap2\n      div\n      mul\n      0x20\n      add\n      mload(0x40)\n      swap1\n      dup2\n      add\n      0x40\n      mstore\n      dup1\n      swap3\n      swap2\n      swap1\n      dup2\n      dup2\n      mstore\n      0x20\n      add\n      dup3\n      dup1\n      sload\n      tag_54\n      swap1\n      tag_47\n      jump\t// in\n    tag_54:\n      dup1\n      iszero\n      tag_55\n      jumpi\n      dup1\n      0x1f\n      lt\n      tag_56\n      jumpi\n      0x0100\n      dup1\n      dup4\n      sload\n      div\n      mul\n      dup4\n      mstore\n      swap2\n      0x20\n      add\n      swap2\n      jump(tag_55)\n    tag_56:\n      dup3\n      add\n      swap2\n      swap1\n      0x00\n      mstore\n      keccak256(0x00, 0x20)\n      swap1\n    tag_57:\n      dup2\n      sload\n      dup2\n      mstore\n      swap1\n      0x01\n      add\n      swap1\n      0x20\n      add\n      dup1\n      dup4\n      gt\n      tag_57\n      jumpi\n      dup3\n      swap1\n      sub\n      0x1f\n      and\n      dup3\n      add\n      swap2\n    tag_55:\n      pop\n      pop\n      pop\n      pop\n      pop\n      dup2\n      jump\t// out\n        /* \"#utility.yul\":7:419   */\n    tag_59:\n        /* \"#utility.yul\":85:90   */\n      0x00\n        /* \"#utility.yul\":110:176   */\n      tag_61\n        /* \"#utility.yul\":126:175   */\n      tag_62\n        /* \"#utility.yul\":168:174   */\n      dup5\n        /* \"#utility.yul\":126:175   */\n      tag_63\n      jump\t// in\n    tag_62:\n        /* \"#utility.yul\":110:176   */\n      tag_64\n      jump\t// in\n    tag_61:\n        /* \"#utility.yul\":101:176   */\n      swap1\n      pop\n        /* \"#utility.yul\":199:205   */\n      dup3\n        /* \"#utility.yul\":192:197   */\n      dup2\n        /* \"#utility.yul\":185:206   */\n      mstore\n        /* \"#utility.yul\":237:241   */\n      0x20\n        /* \"#utility.yul\":230:235   */\n      dup2\n        /* \"#utility.yul\":226:242   */\n      add\n        /* \"#utility.yul\":275:278   */\n      dup5\n        /* \"#utility.yul\":266:272   */\n      dup5\n        /* \"#utility.yul\":261:264   */\n      dup5\n        /* \"#utility.yul\":257:273   */\n      add\n        /* \"#utility.yul\":254:279   */\n      gt\n        /* \"#utility.yul\":251:363   */\n      iszero\n      tag_65\n      jumpi\n        /* \"#utility.yul\":282:361   */\n      tag_66\n      tag_67\n      jump\t// in\n    tag_66:\n        /* \"#utility.yul\":251:363   */\n    tag_65:\n        /* \"#utility.yul\":372:413   */\n      tag_68\n        /* \"#utility.yul\":406:412   */\n      dup5\n        /* \"#utility.yul\":401:404   */\n      dup3\n        /* \"#utility.yul\":396:399   */\n      dup6\n        /* \"#utility.yul\":372:413   */\n      tag_69\n      jump\t// in\n    tag_68:\n        /* \"#utility.yul\":91:419   */\n      pop\n        /* \"#utility.yul\":7:419   */\n      swap4\n      swap3\n      pop\n      pop\n      pop\n      jump\t// out\n        /* \"#utility.yul\":425:564   */\n    tag_70:\n        /* \"#utility.yul\":471:476   */\n      0x00\n        /* \"#utility.yul\":509:515   */\n      dup2\n        /* \"#utility.yul\":496:516   */\n      calldataload\n        /* \"#utility.yul\":487:516   */\n      swap1\n      pop\n        /* \"#utility.yul\":525:558   */\n      tag_72\n        /* \"#utility.yul\":552:557   */\n      dup2\n        /* \"#utility.yul\":525:558   */\n      tag_73\n      jump\t// in\n    tag_72:\n        /* \"#utility.yul\":425:564   */\n      swap3\n      swap2\n      pop\n      pop\n      jump\t// out\n        /* \"#utility.yul\":584:924   */\n    tag_74:\n        /* \"#utility.yul\":640:645   */\n      0x00\n        /* \"#utility.yul\":689:692   */\n      dup3\n        /* \"#utility.yul\":682:686   */\n      0x1f\n        /* \"#utility.yul\":674:680   */\n      dup4\n        /* \"#utility.yul\":670:687   */\n      add\n        /* \"#utility.yul\":666:693   */\n      slt\n        /* \"#utility.yul\":656:778   */\n      tag_76\n      jumpi\n        /* \"#utility.yul\":697:776   */\n      tag_77\n      tag_78\n      jump\t// in\n    tag_77:\n        /* \"#utility.yul\":656:778   */\n    tag_76:\n        /* \"#utility.yul\":814:820   */\n      dup2\n        /* \"#utility.yul\":801:821   */\n      calldataload\n        /* \"#utility.yul\":839:918   */\n      tag_79\n        /* \"#utility.yul\":914:917   */\n      dup5\n        /* \"#utility.yul\":906:912   */\n      dup3\n        /* \"#utility.yul\":899:903   */\n      0x20\n        /* \"#utility.yul\":891:897   */\n      dup7\n        /* \"#utility.yul\":887:904   */\n      add\n        /* \"#utility.yul\":839:918   */\n      tag_59\n      jump\t// in\n    tag_79:\n        /* \"#utility.yul\":830:918   */\n      swap2\n      pop\n        /* \"#utility.yul\":646:924   */\n      pop\n        /* \"#utility.yul\":584:924   */\n      swap3\n      swap2\n      pop\n      pop\n      jump\t// out\n        /* \"#utility.yul\":930:1069   */\n    tag_80:\n        /* \"#utility.yul\":976:981   */\n      0x00\n        /* \"#utility.yul\":1014:1020   */\n      dup2\n        /* \"#utility.yul\":1001:1021   */\n      calldataload\n        /* \"#utility.yul\":992:1021   */\n      swap1\n      pop\n        /* \"#utility.yul\":1030:1063   */\n      tag_82\n        /* \"#utility.yul\":1057:1062   */\n      dup2\n        /* \"#utility.yul\":1030:1063   */\n      tag_83\n      jump\t// in\n    tag_82:\n        /* \"#utility.yul\":930:1069   */\n      swap3\n      swap2\n      pop\n      pop\n      jump\t// out\n        /* \"#utility.yul\":1075:1404   */\n    tag_23:\n        /* \"#utility.yul\":1134:1140   */\n      0x00\n        /* \"#utility.yul\":1183:1185   */\n      0x20\n        /* \"#utility.yul\":1171:1180   */\n      dup3\n        /* \"#utility.yul\":1162:1169   */\n      dup5\n        /* \"#utility.yul\":1158:1181   */\n      sub\n        /* \"#utility.yul\":1154:1186   */\n      slt\n        /* \"#utility.yul\":1151:1270   */\n      iszero\n      tag_85\n      jumpi\n        /* \"#utility.yul\":1189:1268   */\n      tag_86\n      tag_87\n      jump\t// in\n    tag_86:\n        /* \"#utility.yul\":1151:1270   */\n    tag_85:\n        /* \"#utility.yul\":1309:1310   */\n      0x00\n        /* \"#utility.yul\":1334:1387   */\n      tag_88\n        /* \"#utility.yul\":1379:1386   */\n      dup5\n        /* \"#utility.yul\":1370:1376   */\n      dup3\n        /* \"#utility.yul\":1359:1368   */\n      dup6\n        /* \"#utility.yul\":1355:1377   */\n      add\n        /* \"#utility.yul\":1334:1387   */\n      tag_70\n      jump\t// in\n    tag_88:\n        /* \"#utility.yul\":1324:1387   */\n      swap2\n      pop\n        /* \"#utility.yul\":1280:1397   */\n      pop\n        /* \"#utility.yul\":1075:1404   */\n      swap3\n      swap2\n      pop\n      pop\n      jump\t// out\n        /* \"#utility.yul\":1410:2064   */\n    tag_40:\n        /* \"#utility.yul\":1488:1494   */\n      0x00\n        /* \"#utility.yul\":1496:1502   */\n      dup1\n        /* \"#utility.yul\":1545:1547   */\n      0x40\n        /* \"#utility.yul\":1533:1542   */\n      dup4\n        /* \"#utility.yul\":1524:1531   */\n      dup6\n        /* \"#utility.yul\":1520:1543   */\n      sub\n        /* \"#utility.yul\":1516:1548   */\n      slt\n        /* \"#utility.yul\":1513:1632   */\n      iszero\n      tag_90\n      jumpi\n        /* \"#utility.yul\":1551:1630   */\n      tag_91\n      tag_87\n      jump\t// in\n    tag_91:\n        /* \"#utility.yul\":1513:1632   */\n    tag_90:\n        /* \"#utility.yul\":1671:1672   */\n      0x00\n        /* \"#utility.yul\":1696:1749   */\n      tag_92\n        /* \"#utility.yul\":1741:1748   */\n      dup6\n        /* \"#utility.yul\":1732:1738   */\n      dup3\n        /* \"#utility.yul\":1721:1730   */\n      dup7\n        /* \"#utility.yul\":1717:1739   */\n      add\n        /* \"#utility.yul\":1696:1749   */\n      tag_70\n      jump\t// in\n    tag_92:\n        /* \"#utility.yul\":1686:1749   */\n      swap3\n      pop\n        /* \"#utility.yul\":1642:1759   */\n      pop\n        /* \"#utility.yul\":1826:1828   */\n      0x20\n        /* \"#utility.yul\":1815:1824   */\n      dup4\n        /* \"#utility.yul\":1811:1829   */\n      add\n        /* \"#utility.yul\":1798:1830   */\n      calldataload\n        /* \"#utility.yul\":1857:1875   */\n      0xffffffffffffffff\n        /* \"#utility.yul\":1849:1855   */\n      dup2\n        /* \"#utility.yul\":1846:1876   */\n      gt\n        /* \"#utility.yul\":1843:1960   */\n      iszero\n      tag_93\n      jumpi\n        /* \"#utility.yul\":1879:1958   */\n      tag_94\n      tag_95\n      jump\t// in\n    tag_94:\n        /* \"#utility.yul\":1843:1960   */\n    tag_93:\n        /* \"#utility.yul\":1984:2047   */\n      tag_96\n        /* \"#utility.yul\":2039:2046   */\n      dup6\n        /* \"#utility.yul\":2030:2036   */\n      dup3\n        /* \"#utility.yul\":2019:2028   */\n      dup7\n        /* \"#utility.yul\":2015:2037   */\n      add\n        /* \"#utility.yul\":1984:2047   */\n      tag_74\n      jump\t// in\n    tag_96:\n        /* \"#utility.yul\":1974:2047   */\n      swap2\n      pop\n        /* \"#utility.yul\":1769:2057   */\n      pop\n        /* \"#utility.yul\":1410:2064   */\n      swap3\n      pop\n      swap3\n      swap1\n      pop\n      jump\t// out\n        /* \"#utility.yul\":2070:2399   */\n    tag_14:\n        /* \"#utility.yul\":2129:2135   */\n      0x00\n        /* \"#utility.yul\":2178:2180   */\n      0x20\n        /* \"#utility.yul\":2166:2175   */\n      dup3\n        /* \"#utility.yul\":2157:2164   */\n      dup5\n        /* \"#utility.yul\":2153:2176   */\n      sub\n        /* \"#utility.yul\":2149:2181   */\n      slt\n        /* \"#utility.yul\":2146:2265   */\n      iszero\n      tag_98\n      jumpi\n        /* \"#utility.yul\":2184:2263   */\n      tag_99\n      tag_87\n      jump\t// in\n    tag_99:\n        /* \"#utility.yul\":2146:2265   */\n    tag_98:\n        /* \"#utility.yul\":2304:2305   */\n      0x00\n        /* \"#utility.yul\":2329:2382   */\n      tag_100\n        /* \"#utility.yul\":2374:2381   */\n      dup5\n        /* \"#utility.yul\":2365:2371   */\n      dup3\n        /* \"#utility.yul\":2354:2363   */\n      dup6\n        /* \"#utility.yul\":2350:2372   */\n      add\n        /* \"#utility.yul\":2329:2382   */\n      tag_80\n      jump\t// in\n    tag_100:\n        /* \"#utility.yul\":2319:2382   */\n      swap2\n      pop\n        /* \"#utility.yul\":2275:2392   */\n      pop\n        /* \"#utility.yul\":2070:2399   */\n      swap3\n      swap2\n      pop\n      pop\n      jump\t// out\n        /* \"#utility.yul\":2405:2523   */\n    tag_101:\n        /* \"#utility.yul\":2492:2516   */\n      tag_103\n        /* \"#utility.yul\":2510:2515   */\n      dup2\n        /* \"#utility.yul\":2492:2516   */\n      tag_104\n      jump\t// in\n    tag_103:\n        /* \"#utility.yul\":2487:2490   */\n      dup3\n        /* \"#utility.yul\":2480:2517   */\n      mstore\n        /* \"#utility.yul\":2405:2523   */\n      pop\n      pop\n      jump\t// out\n        /* \"#utility.yul\":2529:2638   */\n    tag_105:\n        /* \"#utility.yul\":2610:2631   */\n      tag_107\n        /* \"#utility.yul\":2625:2630   */\n      dup2\n        /* \"#utility.yul\":2610:2631   */\n      tag_108\n      jump\t// in\n    tag_107:\n        /* \"#utility.yul\":2605:2608   */\n      dup3\n        /* \"#utility.yul\":2598:2632   */\n      mstore\n        /* \"#utility.yul\":2529:2638   */\n      pop\n      pop\n      jump\t// out\n        /* \"#utility.yul\":2644:2787   */\n    tag_109:\n        /* \"#utility.yul\":2737:2780   */\n      tag_111\n        /* \"#utility.yul\":2774:2779   */\n      dup2\n        /* \"#utility.yul\":2737:2780   */\n      tag_112\n      jump\t// in\n    tag_111:\n        /* \"#utility.yul\":2732:2735   */\n      dup3\n        /* \"#utility.yul\":2725:2781   */\n      mstore\n        /* \"#utility.yul\":2644:2787   */\n      pop\n      pop\n      jump\t// out\n        /* \"#utility.yul\":2793:3157   */\n    tag_113:\n        /* \"#utility.yul\":2881:2884   */\n      0x00\n        /* \"#utility.yul\":2909:2948   */\n      tag_115\n        /* \"#utility.yul\":2942:2947   */\n      dup3\n        /* \"#utility.yul\":2909:2948   */\n      tag_116\n      jump\t// in\n    tag_115:\n        /* \"#utility.yul\":2964:3035   */\n      tag_117\n        /* \"#utility.yul\":3028:3034   */\n      dup2\n        /* \"#utility.yul\":3023:3026   */\n      dup6\n        /* \"#utility.yul\":2964:3035   */\n      tag_118\n      jump\t// in\n    tag_117:\n        /* \"#utility.yul\":2957:3035   */\n      swap4\n      pop\n        /* \"#utility.yul\":3044:3096   */\n      tag_119\n        /* \"#utility.yul\":3089:3095   */\n      dup2\n        /* \"#utility.yul\":3084:3087   */\n      dup6\n        /* \"#utility.yul\":3077:3081   */\n      0x20\n        /* \"#utility.yul\":3070:3075   */\n      dup7\n        /* \"#utility.yul\":3066:3082   */\n      add\n        /* \"#utility.yul\":3044:3096   */\n      tag_120\n      jump\t// in\n    tag_119:\n        /* \"#utility.yul\":3121:3150   */\n      tag_121\n        /* \"#utility.yul\":3143:3149   */\n      dup2\n        /* \"#utility.yul\":3121:3150   */\n      tag_122\n      jump\t// in\n    tag_121:\n        /* \"#utility.yul\":3116:3119   */\n      dup5\n        /* \"#utility.yul\":3112:3151   */\n      add\n        /* \"#utility.yul\":3105:3151   */\n      swap2\n      pop\n        /* \"#utility.yul\":2885:3157   */\n      pop\n        /* \"#utility.yul\":2793:3157   */\n      swap3\n      swap2\n      pop\n      pop\n      jump\t// out\n        /* \"#utility.yul\":3163:3281   */\n    tag_123:\n        /* \"#utility.yul\":3250:3274   */\n      tag_125\n        /* \"#utility.yul\":3268:3273   */\n      dup2\n        /* \"#utility.yul\":3250:3274   */\n      tag_126\n      jump\t// in\n    tag_125:\n        /* \"#utility.yul\":3245:3248   */\n      dup3\n        /* \"#utility.yul\":3238:3275   */\n      mstore\n        /* \"#utility.yul\":3163:3281   */\n      pop\n      pop\n      jump\t// out\n        /* \"#utility.yul\":3287:3509   */\n    tag_33:\n        /* \"#utility.yul\":3380:3384   */\n      0x00\n        /* \"#utility.yul\":3418:3420   */\n      0x20\n        /* \"#utility.yul\":3407:3416   */\n      dup3\n        /* \"#utility.yul\":3403:3421   */\n      add\n        /* \"#utility.yul\":3395:3421   */\n      swap1\n      pop\n        /* \"#utility.yul\":3431:3502   */\n      tag_128\n        /* \"#utility.yul\":3499:3500   */\n      0x00\n        /* \"#utility.yul\":3488:3497   */\n      dup4\n        /* \"#utility.yul\":3484:3501   */\n      add\n        /* \"#utility.yul\":3475:3481   */\n      dup5\n        /* \"#utility.yul\":3431:3502   */\n      tag_101\n      jump\t// in\n    tag_128:\n        /* \"#utility.yul\":3287:3509   */\n      swap3\n      swap2\n      pop\n      pop\n      jump\t// out\n        /* \"#utility.yul\":3515:3749   */\n    tag_37:\n        /* \"#utility.yul\":3614:3618   */\n      0x00\n        /* \"#utility.yul\":3652:3654   */\n      0x20\n        /* \"#utility.yul\":3641:3650   */\n      dup3\n        /* \"#utility.yul\":3637:3655   */\n      add\n        /* \"#utility.yul\":3629:3655   */\n      swap1\n      pop\n        /* \"#utility.yul\":3665:3742   */\n      tag_130\n        /* \"#utility.yul\":3739:3740   */\n      0x00\n        /* \"#utility.yul\":3728:3737   */\n      dup4\n        /* \"#utility.yul\":3724:3741   */\n      add\n        /* \"#utility.yul\":3715:3721   */\n      dup5\n        /* \"#utility.yul\":3665:3742   */\n      tag_109\n      jump\t// in\n    tag_130:\n        /* \"#utility.yul\":3515:3749   */\n      swap3\n      swap2\n      pop\n      pop\n      jump\t// out\n        /* \"#utility.yul\":3755:4068   */\n    tag_45:\n        /* \"#utility.yul\":3868:3872   */\n      0x00\n        /* \"#utility.yul\":3906:3908   */\n      0x20\n        /* \"#utility.yul\":3895:3904   */\n      dup3\n        /* \"#utility.yul\":3891:3909   */\n      add\n        /* \"#utility.yul\":3883:3909   */\n      swap1\n      pop\n        /* \"#utility.yul\":3955:3964   */\n      dup2\n        /* \"#utility.yul\":3949:3953   */\n      dup2\n        /* \"#utility.yul\":3945:3965   */\n      sub\n        /* \"#utility.yul\":3941:3942   */\n      0x00\n        /* \"#utility.yul\":3930:3939   */\n      dup4\n        /* \"#utility.yul\":3926:3943   */\n      add\n        /* \"#utility.yul\":3919:3966   */\n      mstore\n        /* \"#utility.yul\":3983:4061   */\n      tag_132\n        /* \"#utility.yul\":4056:4060   */\n      dup2\n        /* \"#utility.yul\":4047:4053   */\n      dup5\n        /* \"#utility.yul\":3983:4061   */\n      tag_113\n      jump\t// in\n    tag_132:\n        /* \"#utility.yul\":3975:4061   */\n      swap1\n      pop\n        /* \"#utility.yul\":3755:4068   */\n      swap3\n      swap2\n      pop\n      pop\n      jump\t// out\n        /* \"#utility.yul\":4074:4485   */\n    tag_26:\n        /* \"#utility.yul\":4209:4213   */\n      0x00\n        /* \"#utility.yul\":4247:4249   */\n      0x40\n        /* \"#utility.yul\":4236:4245   */\n      dup3\n        /* \"#utility.yul\":4232:4250   */\n      add\n        /* \"#utility.yul\":4224:4250   */\n      swap1\n      pop\n        /* \"#utility.yul\":4296:4305   */\n      dup2\n        /* \"#utility.yul\":4290:4294   */\n      dup2\n        /* \"#utility.yul\":4286:4306   */\n      sub\n        /* \"#utility.yul\":4282:4283   */\n      0x00\n        /* \"#utility.yul\":4271:4280   */\n      dup4\n        /* \"#utility.yul\":4267:4284   */\n      add\n        /* \"#utility.yul\":4260:4307   */\n      mstore\n        /* \"#utility.yul\":4324:4402   */\n      tag_134\n        /* \"#utility.yul\":4397:4401   */\n      dup2\n        /* \"#utility.yul\":4388:4394   */\n      dup6\n        /* \"#utility.yul\":4324:4402   */\n      tag_113\n      jump\t// in\n    tag_134:\n        /* \"#utility.yul\":4316:4402   */\n      swap1\n      pop\n        /* \"#utility.yul\":4412:4478   */\n      tag_135\n        /* \"#utility.yul\":4474:4476   */\n      0x20\n        /* \"#utility.yul\":4463:4472   */\n      dup4\n        /* \"#utility.yul\":4459:4477   */\n      add\n        /* \"#utility.yul\":4450:4456   */\n      dup5\n        /* \"#utility.yul\":4412:4478   */\n      tag_105\n      jump\t// in\n    tag_135:\n        /* \"#utility.yul\":4074:4485   */\n      swap4\n      swap3\n      pop\n      pop\n      pop\n      jump\t// out\n        /* \"#utility.yul\":4491:4713   */\n    tag_17:\n        /* \"#utility.yul\":4584:4588   */\n      0x00\n        /* \"#utility.yul\":4622:4624   */\n      0x20\n        /* \"#utility.yul\":4611:4620   */\n      dup3\n        /* \"#utility.yul\":4607:4625   */\n      add\n        /* \"#utility.yul\":4599:4625   */\n      swap1\n      pop\n        /* \"#utility.yul\":4635:4706   */\n      tag_137\n        /* \"#utility.yul\":4703:4704   */\n      0x00\n        /* \"#utility.yul\":4692:4701   */\n      dup4\n        /* \"#utility.yul\":4688:4705   */\n      add\n        /* \"#utility.yul\":4679:4685   */\n      dup5\n        /* \"#utility.yul\":4635:4706   */\n      tag_123\n      jump\t// in\n    tag_137:\n        /* \"#utility.yul\":4491:4713   */\n      swap3\n      swap2\n      pop\n      pop\n      jump\t// out\n        /* \"#utility.yul\":4719:4848   */\n    tag_64:\n        /* \"#utility.yul\":4753:4759   */\n      0x00\n        /* \"#utility.yul\":4780:4800   */\n      tag_139\n      tag_140\n      jump\t// in\n    tag_139:\n        /* \"#utility.yul\":4770:4800   */\n      swap1\n      pop\n        /* \"#utility.yul\":4809:4842   */\n      tag_141\n        /* \"#utility.yul\":4837:4841   */\n      dup3\n        /* \"#utility.yul\":4829:4835   */\n      dup3\n        /* \"#utility.yul\":4809:4842   */\n      tag_142\n      jump\t// in\n    tag_141:\n        /* \"#utility.yul\":4719:4848   */\n      swap2\n      swap1\n      pop\n      jump\t// out\n        /* \"#utility.yul\":4854:4929   */\n    tag_140:\n        /* \"#utility.yul\":4887:4893   */\n      0x00\n        /* \"#utility.yul\":4920:4922   */\n      0x40\n        /* \"#utility.yul\":4914:4923   */\n      mload\n        /* \"#utility.yul\":4904:4923   */\n      swap1\n      pop\n        /* \"#utility.yul\":4854:4929   */\n      swap1\n      jump\t// out\n        /* \"#utility.yul\":4935:5243   */\n    tag_63:\n        /* \"#utility.yul\":4997:5001   */\n      0x00\n        /* \"#utility.yul\":5087:5105   */\n      0xffffffffffffffff\n        /* \"#utility.yul\":5079:5085   */\n      dup3\n        /* \"#utility.yul\":5076:5106   */\n      gt\n        /* \"#utility.yul\":5073:5129   */\n      iszero\n      tag_145\n      jumpi\n        /* \"#utility.yul\":5109:5127   */\n      tag_146\n      tag_147\n      jump\t// in\n    tag_146:\n        /* \"#utility.yul\":5073:5129   */\n    tag_145:\n        /* \"#utility.yul\":5147:5176   */\n      tag_148\n        /* \"#utility.yul\":5169:5175   */\n      dup3\n        /* \"#utility.yul\":5147:5176   */\n      tag_122\n      jump\t// in\n    tag_148:\n        /* \"#utility.yul\":5139:5176   */\n      swap1\n      pop\n        /* \"#utility.yul\":5231:5235   */\n      0x20\n        /* \"#utility.yul\":5225:5229   */\n      dup2\n        /* \"#utility.yul\":5221:5236   */\n      add\n        /* \"#utility.yul\":5213:5236   */\n      swap1\n      pop\n        /* \"#utility.yul\":4935:5243   */\n      swap2\n      swap1\n      pop\n      jump\t// out\n        /* \"#utility.yul\":5249:5348   */\n    tag_116:\n        /* \"#utility.yul\":5301:5307   */\n      0x00\n        /* \"#utility.yul\":5335:5340   */\n      dup2\n        /* \"#utility.yul\":5329:5341   */\n      mload\n        /* \"#utility.yul\":5319:5341   */\n      swap1\n      pop\n        /* \"#utility.yul\":5249:5348   */\n      swap2\n      swap1\n      pop\n      jump\t// out\n        /* \"#utility.yul\":5354:5523   */\n    tag_118:\n        /* \"#utility.yul\":5438:5449   */\n      0x00\n        /* \"#utility.yul\":5472:5478   */\n      dup3\n        /* \"#utility.yul\":5467:5470   */\n      dup3\n        /* \"#utility.yul\":5460:5479   */\n      mstore\n        /* \"#utility.yul\":5512:5516   */\n      0x20\n        /* \"#utility.yul\":5507:5510   */\n      dup3\n        /* \"#utility.yul\":5503:5517   */\n      add\n        /* \"#utility.yul\":5488:5517   */\n      swap1\n      pop\n        /* \"#utility.yul\":5354:5523   */\n      swap3\n      swap2\n      pop\n      pop\n      jump\t// out\n        /* \"#utility.yul\":5529:5625   */\n    tag_104:\n        /* \"#utility.yul\":5566:5573   */\n      0x00\n        /* \"#utility.yul\":5595:5619   */\n      tag_152\n        /* \"#utility.yul\":5613:5618   */\n      dup3\n        /* \"#utility.yul\":5595:5619   */\n      tag_153\n      jump\t// in\n    tag_152:\n        /* \"#utility.yul\":5584:5619   */\n      swap1\n      pop\n        /* \"#utility.yul\":5529:5625   */\n      swap2\n      swap1\n      pop\n      jump\t// out\n        /* \"#utility.yul\":5631:5721   */\n    tag_108:\n        /* \"#utility.yul\":5665:5672   */\n      0x00\n        /* \"#utility.yul\":5708:5713   */\n      dup2\n        /* \"#utility.yul\":5701:5714   */\n      iszero\n        /* \"#utility.yul\":5694:5715   */\n      iszero\n        /* \"#utility.yul\":5683:5715   */\n      swap1\n      pop\n        /* \"#utility.yul\":5631:5721   */\n      swap2\n      swap1\n      pop\n      jump\t// out\n        /* \"#utility.yul\":5727:5854   */\n    tag_155:\n        /* \"#utility.yul\":5772:5779   */\n      0x00\n        /* \"#utility.yul\":5801:5806   */\n      dup2\n        /* \"#utility.yul\":5790:5806   */\n      swap1\n      pop\n        /* \"#utility.yul\":5807:5848   */\n      tag_157\n        /* \"#utility.yul\":5842:5847   */\n      dup3\n        /* \"#utility.yul\":5807:5848   */\n      tag_158\n      jump\t// in\n    tag_157:\n        /* \"#utility.yul\":5727:5854   */\n      swap2\n      swap1\n      pop\n      jump\t// out\n        /* \"#utility.yul\":5860:5986   */\n    tag_153:\n        /* \"#utility.yul\":5897:5904   */\n      0x00\n        /* \"#utility.yul\":5937:5979   */\n      0xffffffffffffffffffffffffffffffffffffffff\n        /* \"#utility.yul\":5930:5935   */\n      dup3\n        /* \"#utility.yul\":5926:5980   */\n      and\n        /* \"#utility.yul\":5915:5980   */\n      swap1\n      pop\n        /* \"#utility.yul\":5860:5986   */\n      swap2\n      swap1\n      pop\n      jump\t// out\n        /* \"#utility.yul\":5992:6069   */\n    tag_126:\n        /* \"#utility.yul\":6029:6036   */\n      0x00\n        /* \"#utility.yul\":6058:6063   */\n      dup2\n        /* \"#utility.yul\":6047:6063   */\n      swap1\n      pop\n        /* \"#utility.yul\":5992:6069   */\n      swap2\n      swap1\n      pop\n      jump\t// out\n        /* \"#utility.yul\":6075:6202   */\n    tag_112:\n        /* \"#utility.yul\":6131:6140   */\n      0x00\n        /* \"#utility.yul\":6164:6196   */\n      tag_162\n        /* \"#utility.yul\":6190:6195   */\n      dup3\n        /* \"#utility.yul\":6164:6196   */\n      tag_155\n      jump\t// in\n    tag_162:\n        /* \"#utility.yul\":6151:6196   */\n      swap1\n      pop\n        /* \"#utility.yul\":6075:6202   */\n      swap2\n      swap1\n      pop\n      jump\t// out\n        /* \"#utility.yul\":6208:6362   */\n    tag_69:\n        /* \"#utility.yul\":6292:6298   */\n      dup3\n        /* \"#utility.yul\":6287:6290   */\n      dup2\n        /* \"#utility.yul\":6282:6285   */\n      dup4\n        /* \"#utility.yul\":6269:6299   */\n      calldatacopy\n        /* \"#utility.yul\":6354:6355   */\n      0x00\n        /* \"#utility.yul\":6345:6351   */\n      dup4\n        /* \"#utility.yul\":6340:6343   */\n      dup4\n        /* \"#utility.yul\":6336:6352   */\n      add\n        /* \"#utility.yul\":6329:6356   */\n      mstore\n        /* \"#utility.yul\":6208:6362   */\n      pop\n      pop\n      pop\n      jump\t// out\n        /* \"#utility.yul\":6368:6675   */\n    tag_120:\n        /* \"#utility.yul\":6436:6437   */\n      0x00\n        /* \"#utility.yul\":6446:6559   */\n    tag_165:\n        /* \"#utility.yul\":6460:6466   */\n      dup4\n        /* \"#utility.yul\":6457:6458   */\n      dup2\n        /* \"#utility.yul\":6454:6467   */\n      lt\n        /* \"#utility.yul\":6446:6559   */\n      iszero\n      tag_167\n      jumpi\n        /* \"#utility.yul\":6545:6546   */\n      dup1\n        /* \"#utility.yul\":6540:6543   */\n      dup3\n        /* \"#utility.yul\":6536:6547   */\n      add\n        /* \"#utility.yul\":6530:6548   */\n      mload\n        /* \"#utility.yul\":6526:6527   */\n      dup2\n        /* \"#utility.yul\":6521:6524   */\n      dup5\n        /* \"#utility.yul\":6517:6528   */\n      add\n        /* \"#utility.yul\":6510:6549   */\n      mstore\n        /* \"#utility.yul\":6482:6484   */\n      0x20\n        /* \"#utility.yul\":6479:6480   */\n      dup2\n        /* \"#utility.yul\":6475:6485   */\n      add\n        /* \"#utility.yul\":6470:6485   */\n      swap1\n      pop\n        /* \"#utility.yul\":6446:6559   */\n      jump(tag_165)\n    tag_167:\n        /* \"#utility.yul\":6577:6583   */\n      dup4\n        /* \"#utility.yul\":6574:6575   */\n      dup2\n        /* \"#utility.yul\":6571:6584   */\n      gt\n        /* \"#utility.yul\":6568:6669   */\n      iszero\n      tag_168\n      jumpi\n        /* \"#utility.yul\":6657:6658   */\n      0x00\n        /* \"#utility.yul\":6648:6654   */\n      dup5\n        /* \"#utility.yul\":6643:6646   */\n      dup5\n        /* \"#utility.yul\":6639:6655   */\n      add\n        /* \"#utility.yul\":6632:6659   */\n      mstore\n        /* \"#utility.yul\":6568:6669   */\n    tag_168:\n        /* \"#utility.yul\":6417:6675   */\n      pop\n        /* \"#utility.yul\":6368:6675   */\n      pop\n      pop\n      pop\n      jump\t// out\n        /* \"#utility.yul\":6681:7001   */\n    tag_47:\n        /* \"#utility.yul\":6725:6731   */\n      0x00\n        /* \"#utility.yul\":6762:6763   */\n      0x02\n        /* \"#utility.yul\":6756:6760   */\n      dup3\n        /* \"#utility.yul\":6752:6764   */\n      div\n        /* \"#utility.yul\":6742:6764   */\n      swap1\n      pop\n        /* \"#utility.yul\":6809:6810   */\n      0x01\n        /* \"#utility.yul\":6803:6807   */\n      dup3\n        /* \"#utility.yul\":6799:6811   */\n      and\n        /* \"#utility.yul\":6830:6848   */\n      dup1\n        /* \"#utility.yul\":6820:6901   */\n      tag_170\n      jumpi\n        /* \"#utility.yul\":6886:6890   */\n      0x7f\n        /* \"#utility.yul\":6878:6884   */\n      dup3\n        /* \"#utility.yul\":6874:6891   */\n      and\n        /* \"#utility.yul\":6864:6891   */\n      swap2\n      pop\n        /* \"#utility.yul\":6820:6901   */\n    tag_170:\n        /* \"#utility.yul\":6948:6950   */\n      0x20\n        /* \"#utility.yul\":6940:6946   */\n      dup3\n        /* \"#utility.yul\":6937:6951   */\n      lt\n        /* \"#utility.yul\":6917:6935   */\n      dup2\n        /* \"#utility.yul\":6914:6952   */\n      eq\n        /* \"#utility.yul\":6911:6995   */\n      iszero\n      tag_171\n      jumpi\n        /* \"#utility.yul\":6967:6985   */\n      tag_172\n      tag_173\n      jump\t// in\n    tag_172:\n        /* \"#utility.yul\":6911:6995   */\n    tag_171:\n        /* \"#utility.yul\":6732:7001   */\n      pop\n        /* \"#utility.yul\":6681:7001   */\n      swap2\n      swap1\n      pop\n      jump\t// out\n        /* \"#utility.yul\":7007:7288   */\n    tag_142:\n        /* \"#utility.yul\":7090:7117   */\n      tag_175\n        /* \"#utility.yul\":7112:7116   */\n      dup3\n        /* \"#utility.yul\":7090:7117   */\n      tag_122\n      jump\t// in\n    tag_175:\n        /* \"#utility.yul\":7082:7088   */\n      dup2\n        /* \"#utility.yul\":7078:7118   */\n      add\n        /* \"#utility.yul\":7220:7226   */\n      dup2\n        /* \"#utility.yul\":7208:7218   */\n      dup2\n        /* \"#utility.yul\":7205:7227   */\n      lt\n        /* \"#utility.yul\":7184:7202   */\n      0xffffffffffffffff\n        /* \"#utility.yul\":7172:7182   */\n      dup3\n        /* \"#utility.yul\":7169:7203   */\n      gt\n        /* \"#utility.yul\":7166:7228   */\n      or\n        /* \"#utility.yul\":7163:7251   */\n      iszero\n      tag_176\n      jumpi\n        /* \"#utility.yul\":7231:7249   */\n      tag_177\n      tag_147\n      jump\t// in\n    tag_177:\n        /* \"#utility.yul\":7163:7251   */\n    tag_176:\n        /* \"#utility.yul\":7271:7281   */\n      dup1\n        /* \"#utility.yul\":7267:7269   */\n      0x40\n        /* \"#utility.yul\":7260:7282   */\n      mstore\n        /* \"#utility.yul\":7050:7288   */\n      pop\n        /* \"#utility.yul\":7007:7288   */\n      pop\n      pop\n      jump\t// out\n        /* \"#utility.yul\":7294:7474   */\n    tag_178:\n        /* \"#utility.yul\":7342:7419   */\n      0x4e487b7100000000000000000000000000000000000000000000000000000000\n        /* \"#utility.yul\":7339:7340   */\n      0x00\n        /* \"#utility.yul\":7332:7420   */\n      mstore\n        /* \"#utility.yul\":7439:7443   */\n      0x21\n        /* \"#utility.yul\":7436:7437   */\n      0x04\n        /* \"#utility.yul\":7429:7444   */\n      mstore\n        /* \"#utility.yul\":7463:7467   */\n      0x24\n        /* \"#utility.yul\":7460:7461   */\n      0x00\n        /* \"#utility.yul\":7453:7468   */\n      revert\n        /* \"#utility.yul\":7480:7660   */\n    tag_173:\n        /* \"#utility.yul\":7528:7605   */\n      0x4e487b7100000000000000000000000000000000000000000000000000000000\n        /* \"#utility.yul\":7525:7526   */\n      0x00\n        /* \"#utility.yul\":7518:7606   */\n      mstore\n        /* \"#utility.yul\":7625:7629   */\n      0x22\n        /* \"#utility.yul\":7622:7623   */\n      0x04\n        /* \"#utility.yul\":7615:7630   */\n      mstore\n        /* \"#utility.yul\":7649:7653   */\n      0x24\n        /* \"#utility.yul\":7646:7647   */\n      0x00\n        /* \"#utility.yul\":7639:7654   */\n      revert\n        /* \"#utility.yul\":7666:7846   */\n    tag_147:\n        /* \"#utility.yul\":7714:7791   */\n      0x4e487b7100000000000000000000000000000000000000000000000000000000\n        /* \"#utility.yul\":7711:7712   */\n      0x00\n        /* \"#utility.yul\":7704:7792   */\n      mstore\n        /* \"#utility.yul\":7811:7815   */\n      0x41\n        /* \"#utility.yul\":7808:7809   */\n      0x04\n        /* \"#utility.yul\":7801:7816   */\n      mstore\n        /* \"#utility.yul\":7835:7839   */\n      0x24\n        /* \"#utility.yul\":7832:7833   */\n      0x00\n        /* \"#utility.yul\":7825:7840   */\n      revert\n        /* \"#utility.yul\":7852:7969   */\n    tag_78:\n        /* \"#utility.yul\":7961:7962   */\n      0x00\n        /* \"#utility.yul\":7958:7959   */\n      dup1\n        /* \"#utility.yul\":7951:7963   */\n      revert\n        /* \"#utility.yul\":7975:8092   */\n    tag_67:\n        /* \"#utility.yul\":8084:8085   */\n      0x00\n        /* \"#utility.yul\":8081:8082   */\n      dup1\n        /* \"#utility.yul\":8074:8086   */\n      revert\n        /* \"#utility.yul\":8098:8215   */\n    tag_95:\n        /* \"#utility.yul\":8207:8208   */\n      0x00\n        /* \"#utility.yul\":8204:8205   */\n      dup1\n        /* \"#utility.yul\":8197:8209   */\n      revert\n        /* \"#utility.yul\":8221:8338   */\n    tag_87:\n        /* \"#utility.yul\":8330:8331   */\n      0x00\n        /* \"#utility.yul\":8327:8328   */\n      dup1\n        /* \"#utility.yul\":8320:8332   */\n      revert\n        /* \"#utility.yul\":8344:8446   */\n    tag_122:\n        /* \"#utility.yul\":8385:8391   */\n      0x00\n        /* \"#utility.yul\":8436:8438   */\n      0x1f\n        /* \"#utility.yul\":8432:8439   */\n      not\n        /* \"#utility.yul\":8427:8429   */\n      0x1f\n        /* \"#utility.yul\":8420:8425   */\n      dup4\n        /* \"#utility.yul\":8416:8430   */\n      add\n        /* \"#utility.yul\":8412:8440   */\n      and\n        /* \"#utility.yul\":8402:8440   */\n      swap1\n      pop\n        /* \"#utility.yul\":8344:8446   */\n      swap2\n      swap1\n      pop\n      jump\t// out\n        /* \"#utility.yul\":8452:8565   */\n    tag_158:\n        /* \"#utility.yul\":8533:8534   */\n      0x03\n        /* \"#utility.yul\":8526:8531   */\n      dup2\n        /* \"#utility.yul\":8523:8535   */\n      lt\n        /* \"#utility.yul\":8513:8559   */\n      tag_188\n      jumpi\n        /* \"#utility.yul\":8539:8557   */\n      tag_189\n      tag_178\n      jump\t// in\n    tag_189:\n        /* \"#utility.yul\":8513:8559   */\n    tag_188:\n        /* \"#utility.yul\":8452:8565   */\n      pop\n      jump\t// out\n        /* \"#utility.yul\":8571:8693   */\n    tag_73:\n        /* \"#utility.yul\":8644:8668   */\n      tag_191\n        /* \"#utility.yul\":8662:8667   */\n      dup2\n        /* \"#utility.yul\":8644:8668   */\n      tag_104\n      jump\t// in\n    tag_191:\n        /* \"#utility.yul\":8637:8642   */\n      dup2\n        /* \"#utility.yul\":8634:8669   */\n      eq\n        /* \"#utility.yul\":8624:8687   */\n      tag_192\n      jumpi\n        /* \"#utility.yul\":8683:8684   */\n      0x00\n        /* \"#utility.yul\":8680:8681   */\n      dup1\n        /* \"#utility.yul\":8673:8685   */\n      revert\n        /* \"#utility.yul\":8624:8687   */\n    tag_192:\n        /* \"#utility.yul\":8571:8693   */\n      pop\n      jump\t// out\n        /* \"#utility.yul\":8699:8821   */\n    tag_83:\n        /* \"#utility.yul\":8772:8796   */\n      tag_194\n        /* \"#utility.yul\":8790:8795   */\n      dup2\n        /* \"#utility.yul\":8772:8796   */\n      tag_126\n      jump\t// in\n    tag_194:\n        /* \"#utility.yul\":8765:8770   */\n      dup2\n        /* \"#utility.yul\":8762:8797   */\n      eq\n        /* \"#utility.yul\":8752:8815   */\n      tag_195\n      jumpi\n        /* \"#utility.yul\":8811:8812   */\n      0x00\n        /* \"#utility.yul\":8808:8809   */\n      dup1\n        /* \"#utility.yul\":8801:8813   */\n      revert\n        /* \"#utility.yul\":8752:8815   */\n    tag_195:\n        /* \"#utility.yul\":8699:8821   */\n      pop\n      jump\t// out\n\n    auxdata: 0xa264697066735822122009f35cf3ca3be124147c66e1e78ceadff6d60a74bd0380af22aee127e4308a9364736f6c63430008070033\n}\n",
				"bytecode": {
					"linkReferences": {},
					"object": "608060405234801561001057600080fd5b5061085e806100206000396000f3fe608060405234801561001057600080fd5b50600436106100885760003560e01c8063909497471161005b578063909497471461012a578063c19d93fb14610148578063d9e95a9814610166578063de975d181461018257610088565b80630132be091461008d5780630d15fd77146100bd57806312c06342146100db5780635f5300ff1461010c575b600080fd5b6100a760048036038101906100a2919061046b565b6101a0565b6040516100b49190610595565b60405180910390f35b6100c56101b8565b6040516100d29190610595565b60405180910390f35b6100f560048036038101906100f091906103e2565b6101be565b604051610103929190610565565b60405180910390f35b610114610277565b6040516101219190610595565b60405180910390f35b61013261027d565b60405161013f919061050d565b60405180910390f35b6101506102a3565b60405161015d9190610528565b60405180910390f35b610180600480360381019061017b919061040f565b6102b6565b005b61018a6102ba565b6040516101979190610543565b60405180910390f35b60026020528060005260406000206000915090505481565b60045481565b60006020528060005260406000206000915090508060000180546101e1906106d1565b80601f016020809104026020016040519081016040528092919081815260200182805461020d906106d1565b801561025a5780601f1061022f5761010080835404028352916020019161025a565b820191906000526020600020905b81548152906001019060200180831161023d57829003601f168201915b5050505050908060010160009054906101000a900460ff16905082565b60035481565b600560019054906101000a900473ffffffffffffffffffffffffffffffffffffffff1681565b600560009054906101000a900460ff1681565b5050565b600680546102c7906106d1565b80601f01602080910402602001604051908101604052809291908181526020018280546102f3906106d1565b80156103405780601f1061031557610100808354040283529160200191610340565b820191906000526020600020905b81548152906001019060200180831161032357829003601f168201915b505050505081565b600061035b610356846105d5565b6105b0565b905082815260208101848484011115610377576103766107c6565b5b61038284828561068f565b509392505050565b600081359050610399816107fa565b92915050565b600082601f8301126103b4576103b36107c1565b5b81356103c4848260208601610348565b91505092915050565b6000813590506103dc81610811565b92915050565b6000602082840312156103f8576103f76107d0565b5b60006104068482850161038a565b91505092915050565b60008060408385031215610426576104256107d0565b5b60006104348582860161038a565b925050602083013567ffffffffffffffff811115610455576104546107cb565b5b6104618582860161039f565b9150509250929050565b600060208284031215610481576104806107d0565b5b600061048f848285016103cd565b91505092915050565b6104a181610622565b82525050565b6104b081610634565b82525050565b6104bf8161067d565b82525050565b60006104d082610606565b6104da8185610611565b93506104ea81856020860161069e565b6104f3816107d5565b840191505092915050565b61050781610673565b82525050565b60006020820190506105226000830184610498565b92915050565b600060208201905061053d60008301846104b6565b92915050565b6000602082019050818103600083015261055d81846104c5565b905092915050565b6000604082019050818103600083015261057f81856104c5565b905061058e60208301846104a7565b9392505050565b60006020820190506105aa60008301846104fe565b92915050565b60006105ba6105cb565b90506105c68282610703565b919050565b6000604051905090565b600067ffffffffffffffff8211156105f0576105ef610792565b5b6105f9826107d5565b9050602081019050919050565b600081519050919050565b600082825260208201905092915050565b600061062d82610653565b9050919050565b60008115159050919050565b600081905061064e826107e6565b919050565b600073ffffffffffffffffffffffffffffffffffffffff82169050919050565b6000819050919050565b600061068882610640565b9050919050565b82818337600083830152505050565b60005b838110156106bc5780820151818401526020810190506106a1565b838111156106cb576000848401525b50505050565b600060028204905060018216806106e957607f821691505b602082108114156106fd576106fc610763565b5b50919050565b61070c826107d5565b810181811067ffffffffffffffff8211171561072b5761072a610792565b5b80604052505050565b7f4e487b7100000000000000000000000000000000000000000000000000000000600052602160045260246000fd5b7f4e487b7100000000000000000000000000000000000000000000000000000000600052602260045260246000fd5b7f4e487b7100000000000000000000000000000000000000000000000000000000600052604160045260246000fd5b600080fd5b600080fd5b600080fd5b600080fd5b6000601f19601f8301169050919050565b600381106107f7576107f6610734565b5b50565b61080381610622565b811461080e57600080fd5b50565b61081a81610673565b811461082557600080fd5b5056fea264697066735822122009f35cf3ca3be124147c66e1e78ceadff6d60a74bd0380af22aee127e4308a9364736f6c63430008070033",
					"opcodes": "PUSH1 0x80 PUSH1 0x40 MSTORE CALLVALUE DUP1 ISZERO PUSH2 0x10 JUMPI PUSH1 0x0 DUP1 REVERT JUMPDEST POP PUSH2 0x85E DUP1 PUSH2 0x20 PUSH1 0x0 CODECOPY PUSH1 0x0 RETURN INVALID PUSH1 0x80 PUSH1 0x40 MSTORE CALLVALUE DUP1 ISZERO PUSH2 0x10 JUMPI PUSH1 0x0 DUP1 REVERT JUMPDEST POP PUSH1 0x4 CALLDATASIZE LT PUSH2 0x88 JUMPI PUSH1 0x0 CALLDATALOAD PUSH1 0xE0 SHR DUP1 PUSH4 0x90949747 GT PUSH2 0x5B JUMPI DUP1 PUSH4 0x90949747 EQ PUSH2 0x12A JUMPI DUP1 PUSH4 0xC19D93FB EQ PUSH2 0x148 JUMPI DUP1 PUSH4 0xD9E95A98 EQ PUSH2 0x166 JUMPI DUP1 PUSH4 0xDE975D18 EQ PUSH2 0x182 JUMPI PUSH2 0x88 JUMP JUMPDEST DUP1 PUSH4 0x132BE09 EQ PUSH2 0x8D JUMPI DUP1 PUSH4 0xD15FD77 EQ PUSH2 0xBD JUMPI DUP1 PUSH4 0x12C06342 EQ PUSH2 0xDB JUMPI DUP1 PUSH4 0x5F5300FF EQ PUSH2 0x10C JUMPI JUMPDEST PUSH1 0x0 DUP1 REVERT JUMPDEST PUSH2 0xA7 PUSH1 0x4 DUP1 CALLDATASIZE SUB DUP2 ADD SWAP1 PUSH2 0xA2 SWAP2 SWAP1 PUSH2 0x46B JUMP JUMPDEST PUSH2 0x1A0 JUMP JUMPDEST PUSH1 0x40 MLOAD PUSH2 0xB4 SWAP2 SWAP1 PUSH2 0x595 JUMP JUMPDEST PUSH1 0x40 MLOAD DUP1 SWAP2 SUB SWAP1 RETURN JUMPDEST PUSH2 0xC5 PUSH2 0x1B8 JUMP JUMPDEST PUSH1 0x40 MLOAD PUSH2 0xD2 SWAP2 SWAP1 PUSH2 0x595 JUMP JUMPDEST PUSH1 0x40 MLOAD DUP1 SWAP2 SUB SWAP1 RETURN JUMPDEST PUSH2 0xF5 PUSH1 0x4 DUP1 CALLDATASIZE SUB DUP2 ADD SWAP1 PUSH2 0xF0 SWAP2 SWAP1 PUSH2 0x3E2 JUMP JUMPDEST PUSH2 0x1BE JUMP JUMPDEST PUSH1 0x40 MLOAD PUSH2 0x103 SWAP3 SWAP2 SWAP1 PUSH2 0x565 JUMP JUMPDEST PUSH1 0x40 MLOAD DUP1 SWAP2 SUB SWAP1 RETURN JUMPDEST PUSH2 0x114 PUSH2 0x277 JUMP JUMPDEST PUSH1 0x40 MLOAD PUSH2 0x121 SWAP2 SWAP1 PUSH2 0x595 JUMP JUMPDEST PUSH1 0x40 MLOAD DUP1 SWAP2 SUB SWAP1 RETURN JUMPDEST PUSH2 0x132 PUSH2 0x27D JUMP JUMPDEST PUSH1 0x40 MLOAD PUSH2 0x13F SWAP2 SWAP1 PUSH2 0x50D JUMP JUMPDEST PUSH1 0x40 MLOAD DUP1 SWAP2 SUB SWAP1 RETURN JUMPDEST PUSH2 0x150 PUSH2 0x2A3 JUMP JUMPDEST PUSH1 0x40 MLOAD PUSH2 0x15D SWAP2 SWAP1 PUSH2 0x528 JUMP JUMPDEST PUSH1 0x40 MLOAD DUP1 SWAP2 SUB SWAP1 RETURN JUMPDEST PUSH2 0x180 PUSH1 0x4 DUP1 CALLDATASIZE SUB DUP2 ADD SWAP1 PUSH2 0x17B SWAP2 SWAP1 PUSH2 0x40F JUMP JUMPDEST PUSH2 0x2B6 JUMP JUMPDEST STOP JUMPDEST PUSH2 0x18A PUSH2 0x2BA JUMP JUMPDEST PUSH1 0x40 MLOAD PUSH2 0x197 SWAP2 SWAP1 PUSH2 0x543 JUMP JUMPDEST PUSH1 0x40 MLOAD DUP1 SWAP2 SUB SWAP1 RETURN JUMPDEST PUSH1 0x2 PUSH1 0x20 MSTORE DUP1 PUSH1 0x0 MSTORE PUSH1 0x40 PUSH1 0x0 KECCAK256 PUSH1 0x0 SWAP2 POP SWAP1 POP SLOAD DUP2 JUMP JUMPDEST PUSH1 0x4 SLOAD DUP2 JUMP JUMPDEST PUSH1 0x0 PUSH1 0x20 MSTORE DUP1 PUSH1 0x0 MSTORE PUSH1 0x40 PUSH1 0x0 KECCAK256 PUSH1 0x0 SWAP2 POP SWAP1 POP DUP1 PUSH1 0x0 ADD DUP1 SLOAD PUSH2 0x1E1 SWAP1 PUSH2 0x6D1 JUMP JUMPDEST DUP1 PUSH1 0x1F ADD PUSH1 0x20 DUP1 SWAP2 DIV MUL PUSH1 0x20 ADD PUSH1 0x40 MLOAD SWAP1 DUP2 ADD PUSH1 0x40 MSTORE DUP1 SWAP3 SWAP2 SWAP1 DUP2 DUP2 MSTORE PUSH1 0x20 ADD DUP3 DUP1 SLOAD PUSH2 0x20D SWAP1 PUSH2 0x6D1 JUMP JUMPDEST DUP1 ISZERO PUSH2 0x25A JUMPI DUP1 PUSH1 0x1F LT PUSH2 0x22F JUMPI PUSH2 0x100 DUP1 DUP4 SLOAD DIV MUL DUP4 MSTORE SWAP2 PUSH1 0x20 ADD SWAP2 PUSH2 0x25A JUMP JUMPDEST DUP3 ADD SWAP2 SWAP1 PUSH1 0x0 MSTORE PUSH1 0x20 PUSH1 0x0 KECCAK256 SWAP1 JUMPDEST DUP2 SLOAD DUP2 MSTORE SWAP1 PUSH1 0x1 ADD SWAP1 PUSH1 0x20 ADD DUP1 DUP4 GT PUSH2 0x23D JUMPI DUP3 SWAP1 SUB PUSH1 0x1F AND DUP3 ADD SWAP2 JUMPDEST POP POP POP POP POP SWAP1 DUP1 PUSH1 0x1 ADD PUSH1 0x0 SWAP1 SLOAD SWAP1 PUSH2 0x100 EXP SWAP1 DIV PUSH1 0xFF AND SWAP1 POP DUP3 JUMP JUMPDEST PUSH1 0x3 SLOAD DUP2 JUMP JUMPDEST PUSH1 0x5 PUSH1 0x1 SWAP1 SLOAD SWAP1 PUSH2 0x100 EXP SWAP1 DIV PUSH20 0xFFFFFFFFFFFFFFFFFFFFFFFFFFFFFFFFFFFFFFFF AND DUP2 JUMP JUMPDEST PUSH1 0x5 PUSH1 0x0 SWAP1 SLOAD SWAP1 PUSH2 0x100 EXP SWAP1 DIV PUSH1 0xFF AND DUP2 JUMP JUMPDEST POP POP JUMP JUMPDEST PUSH1 0x6 DUP1 SLOAD PUSH2 0x2C7 SWAP1 PUSH2 0x6D1 JUMP JUMPDEST DUP1 PUSH1 0x1F ADD PUSH1 0x20 DUP1 SWAP2 DIV MUL PUSH1 0x20 ADD PUSH1 0x40 MLOAD SWAP1 DUP2 ADD PUSH1 0x40 MSTORE DUP1 SWAP3 SWAP2 SWAP1 DUP2 DUP2 MSTORE PUSH1 0x20 ADD DUP3 DUP1 SLOAD PUSH2 0x2F3 SWAP1 PUSH2 0x6D1 JUMP JUMPDEST DUP1 ISZERO PUSH2 0x340 JUMPI DUP1 PUSH1 0x1F LT PUSH2 0x315 JUMPI PUSH2 0x100 DUP1 DUP4 SLOAD DIV MUL DUP4 MSTORE SWAP2 PUSH1 0x20 ADD SWAP2 PUSH2 0x340 JUMP JUMPDEST DUP3 ADD SWAP2 SWAP1 PUSH1 0x0 MSTORE PUSH1 0x20 PUSH1 0x0 KECCAK256 SWAP1 JUMPDEST DUP2 SLOAD DUP2 MSTORE SWAP1 PUSH1 0x1 ADD SWAP1 PUSH1 0x20 ADD DUP1 DUP4 GT PUSH2 0x323 JUMPI DUP3 SWAP1 SUB PUSH1 0x1F AND DUP3 ADD SWAP2 JUMPDEST POP POP POP POP POP DUP2 JUMP JUMPDEST PUSH1 0x0 PUSH2 0x35B PUSH2 0x356 DUP5 PUSH2 0x5D5 JUMP JUMPDEST PUSH2 0x5B0 JUMP JUMPDEST SWAP1 POP DUP3 DUP2 MSTORE PUSH1 0x20 DUP2 ADD DUP5 DUP5 DUP5 ADD GT ISZERO PUSH2 0x377 JUMPI PUSH2 0x376 PUSH2 0x7C6 JUMP JUMPDEST JUMPDEST PUSH2 0x382 DUP5 DUP3 DUP6 PUSH2 0x68F JUMP JUMPDEST POP SWAP4 SWAP3 POP POP POP JUMP JUMPDEST PUSH1 0x0 DUP2 CALLDATALOAD SWAP1 POP PUSH2 0x399 DUP2 PUSH2 0x7FA JUMP JUMPDEST SWAP3 SWAP2 POP POP JUMP JUMPDEST PUSH1 0x0 DUP3 PUSH1 0x1F DUP4 ADD SLT PUSH2 0x3B4 JUMPI PUSH2 0x3B3 PUSH2 0x7C1 JUMP JUMPDEST JUMPDEST DUP2 CALLDATALOAD PUSH2 0x3C4 DUP5 DUP3 PUSH1 0x20 DUP7 ADD PUSH2 0x348 JUMP JUMPDEST SWAP2 POP POP SWAP3 SWAP2 POP POP JUMP JUMPDEST PUSH1 0x0 DUP2 CALLDATALOAD SWAP1 POP PUSH2 0x3DC DUP2 PUSH2 0x811 JUMP JUMPDEST SWAP3 SWAP2 POP POP JUMP JUMPDEST PUSH1 0x0 PUSH1 0x20 DUP3 DUP5 SUB SLT ISZERO PUSH2 0x3F8 JUMPI PUSH2 0x3F7 PUSH2 0x7D0 JUMP JUMPDEST JUMPDEST PUSH1 0x0 PUSH2 0x406 DUP5 DUP3 DUP6 ADD PUSH2 0x38A JUMP JUMPDEST SWAP2 POP POP SWAP3 SWAP2 POP POP JUMP JUMPDEST PUSH1 0x0 DUP1 PUSH1 0x40 DUP4 DUP6 SUB SLT ISZERO PUSH2 0x426 JUMPI PUSH2 0x425 PUSH2 0x7D0 JUMP JUMPDEST JUMPDEST PUSH1 0x0 PUSH2 0x434 DUP6 DUP3 DUP7 ADD PUSH2 0x38A JUMP JUMPDEST SWAP3 POP POP PUSH1 0x20 DUP4 ADD CALLDATALOAD PUSH8 0xFFFFFFFFFFFFFFFF DUP2 GT ISZERO PUSH2 0x455 JUMPI PUSH2 0x454 PUSH2 0x7CB JUMP JUMPDEST JUMPDEST PUSH2 0x461 DUP6 DUP3 DUP7 ADD PUSH2 0x39F JUMP JUMPDEST SWAP2 POP POP SWAP3 POP SWAP3 SWAP1 POP JUMP JUMPDEST PUSH1 0x0 PUSH1 0x20 DUP3 DUP5 SUB SLT ISZERO PUSH2 0x481 JUMPI PUSH2 0x480 PUSH2 0x7D0 JUMP JUMPDEST JUMPDEST PUSH1 0x0 PUSH2 0x48F DUP5 DUP3 DUP6 ADD PUSH2 0x3CD JUMP JUMPDEST SWAP2 POP POP SWAP3 SWAP2 POP POP JUMP JUMPDEST PUSH2 0x4A1 DUP2 PUSH2 0x622 JUMP JUMPDEST DUP3 MSTORE POP POP JUMP JUMPDEST PUSH2 0x4B0 DUP2 PUSH2 0x634 JUMP JUMPDEST DUP3 MSTORE POP POP JUMP JUMPDEST PUSH2 0x4BF DUP2 PUSH2 0x67D JUMP JUMPDEST DUP3 MSTORE POP POP JUMP JUMPDEST PUSH1 0x0 PUSH2 0x4D0 DUP3 PUSH2 0x606 JUMP JUMPDEST PUSH2 0x4DA DUP2 DUP6 PUSH2 0x611 JUMP JUMPDEST SWAP4 POP PUSH2 0x4EA DUP2 DUP6 PUSH1 0x20 DUP7 ADD PUSH2 0x69E JUMP JUMPDEST PUSH2 0x4F3 DUP2 PUSH2 0x7D5 JUMP JUMPDEST DUP5 ADD SWAP2 POP POP SWAP3 SWAP2 POP POP JUMP JUMPDEST PUSH2 0x507 DUP2 PUSH2 0x673 JUMP JUMPDEST DUP3 MSTORE POP POP JUMP JUMPDEST PUSH1 0x0 PUSH1 0x20 DUP3 ADD SWAP1 POP PUSH2 0x522 PUSH1 0x0 DUP4 ADD DUP5 PUSH2 0x498 JUMP JUMPDEST SWAP3 SWAP2 POP POP JUMP JUMPDEST PUSH1 0x0 PUSH1 0x20 DUP3 ADD SWAP1 POP PUSH2 0x53D PUSH1 0x0 DUP4 ADD DUP5 PUSH2 0x4B6 JUMP JUMPDEST SWAP3 SWAP2 POP POP JUMP JUMPDEST PUSH1 0x0 PUSH1 0x20 DUP3 ADD SWAP1 POP DUP2 DUP2 SUB PUSH1 0x0 DUP4 ADD MSTORE PUSH2 0x55D DUP2 DUP5 PUSH2 0x4C5 JUMP JUMPDEST SWAP1 POP SWAP3 SWAP2 POP POP JUMP JUMPDEST PUSH1 0x0 PUSH1 0x40 DUP3 ADD SWAP1 POP DUP2 DUP2 SUB PUSH1 0x0 DUP4 ADD MSTORE PUSH2 0x57F DUP2 DUP6 PUSH2 0x4C5 JUMP JUMPDEST SWAP1 POP PUSH2 0x58E PUSH1 0x20 DUP4 ADD DUP5 PUSH2 0x4A7 JUMP JUMPDEST SWAP4 SWAP3 POP POP POP JUMP JUMPDEST PUSH1 0x0 PUSH1 0x20 DUP3 ADD SWAP1 POP PUSH2 0x5AA PUSH1 0x0 DUP4 ADD DUP5 PUSH2 0x4FE JUMP JUMPDEST SWAP3 SWAP2 POP POP JUMP JUMPDEST PUSH1 0x0 PUSH2 0x5BA PUSH2 0x5CB JUMP JUMPDEST SWAP1 POP PUSH2 0x5C6 DUP3 DUP3 PUSH2 0x703 JUMP JUMPDEST SWAP2 SWAP1 POP JUMP JUMPDEST PUSH1 0x0 PUSH1 0x40 MLOAD SWAP1 POP SWAP1 JUMP JUMPDEST PUSH1 0x0 PUSH8 0xFFFFFFFFFFFFFFFF DUP3 GT ISZERO PUSH2 0x5F0 JUMPI PUSH2 0x5EF PUSH2 0x792 JUMP JUMPDEST JUMPDEST PUSH2 0x5F9 DUP3 PUSH2 0x7D5 JUMP JUMPDEST SWAP1 POP PUSH1 0x20 DUP2 ADD SWAP1 POP SWAP2 SWAP1 POP JUMP JUMPDEST PUSH1 0x0 DUP2 MLOAD SWAP1 POP SWAP2 SWAP1 POP JUMP JUMPDEST PUSH1 0x0 DUP3 DUP3 MSTORE PUSH1 0x20 DUP3 ADD SWAP1 POP SWAP3 SWAP2 POP POP JUMP JUMPDEST PUSH1 0x0 PUSH2 0x62D DUP3 PUSH2 0x653 JUMP JUMPDEST SWAP1 POP SWAP2 SWAP1 POP JUMP JUMPDEST PUSH1 0x0 DUP2 ISZERO ISZERO SWAP1 POP SWAP2 SWAP1 POP JUMP JUMPDEST PUSH1 0x0 DUP2 SWAP1 POP PUSH2 0x64E DUP3 PUSH2 0x7E6 JUMP JUMPDEST SWAP2 SWAP1 POP JUMP JUMPDEST PUSH1 0x0 PUSH20 0xFFFFFFFFFFFFFFFFFFFFFFFFFFFFFFFFFFFFFFFF DUP3 AND SWAP1 POP SWAP2 SWAP1 POP JUMP JUMPDEST PUSH1 0x0 DUP2 SWAP1 POP SWAP2 SWAP1 POP JUMP JUMPDEST PUSH1 0x0 PUSH2 0x688 DUP3 PUSH2 0x640 JUMP JUMPDEST SWAP1 POP SWAP2 SWAP1 POP JUMP JUMPDEST DUP3 DUP2 DUP4 CALLDATACOPY PUSH1 0x0 DUP4 DUP4 ADD MSTORE POP POP POP JUMP JUMPDEST PUSH1 0x0 JUMPDEST DUP4 DUP2 LT ISZERO PUSH2 0x6BC JUMPI DUP1 DUP3 ADD MLOAD DUP2 DUP5 ADD MSTORE PUSH1 0x20 DUP2 ADD SWAP1 POP PUSH2 0x6A1 JUMP JUMPDEST DUP4 DUP2 GT ISZERO PUSH2 0x6CB JUMPI PUSH1 0x0 DUP5 DUP5 ADD MSTORE JUMPDEST POP POP POP POP JUMP JUMPDEST PUSH1 0x0 PUSH1 0x2 DUP3 DIV SWAP1 POP PUSH1 0x1 DUP3 AND DUP1 PUSH2 0x6E9 JUMPI PUSH1 0x7F DUP3 AND SWAP2 POP JUMPDEST PUSH1 0x20 DUP3 LT DUP2 EQ ISZERO PUSH2 0x6FD JUMPI PUSH2 0x6FC PUSH2 0x763 JUMP JUMPDEST JUMPDEST POP SWAP2 SWAP1 POP JUMP JUMPDEST PUSH2 0x70C DUP3 PUSH2 0x7D5 JUMP JUMPDEST DUP2 ADD DUP2 DUP2 LT PUSH8 0xFFFFFFFFFFFFFFFF DUP3 GT OR ISZERO PUSH2 0x72B JUMPI PUSH2 0x72A PUSH2 0x792 JUMP JUMPDEST JUMPDEST DUP1 PUSH1 0x40 MSTORE POP POP POP JUMP JUMPDEST PUSH32 0x4E487B7100000000000000000000000000000000000000000000000000000000 PUSH1 0x0 MSTORE PUSH1 0x21 PUSH1 0x4 MSTORE PUSH1 0x24 PUSH1 0x0 REVERT JUMPDEST PUSH32 0x4E487B7100000000000000000000000000000000000000000000000000000000 PUSH1 0x0 MSTORE PUSH1 0x22 PUSH1 0x4 MSTORE PUSH1 0x24 PUSH1 0x0 REVERT JUMPDEST PUSH32 0x4E487B7100000000000000000000000000000000000000000000000000000000 PUSH1 0x0 MSTORE PUSH1 0x41 PUSH1 0x4 MSTORE PUSH1 0x24 PUSH1 0x0 REVERT JUMPDEST PUSH1 0x0 DUP1 REVERT JUMPDEST PUSH1 0x0 DUP1 REVERT JUMPDEST PUSH1 0x0 DUP1 REVERT JUMPDEST PUSH1 0x0 DUP1 REVERT JUMPDEST PUSH1 0x0 PUSH1 0x1F NOT PUSH1 0x1F DUP4 ADD AND SWAP1 POP SWAP2 SWAP1 POP JUMP JUMPDEST PUSH1 0x3 DUP2 LT PUSH2 0x7F7 JUMPI PUSH2 0x7F6 PUSH2 0x734 JUMP JUMPDEST JUMPDEST POP JUMP JUMPDEST PUSH2 0x803 DUP2 PUSH2 0x622 JUMP JUMPDEST DUP2 EQ PUSH2 0x80E JUMPI PUSH1 0x0 DUP1 REVERT JUMPDEST POP JUMP JUMPDEST PUSH2 0x81A DUP2 PUSH2 0x673 JUMP JUMPDEST DUP2 EQ PUSH2 0x825 JUMPI PUSH1 0x0 DUP1 REVERT JUMPDEST POP JUMP INVALID LOG2 PUSH5 0x6970667358 0x22 SLT KECCAK256 MULMOD RETURN 0x5C RETURN 0xCA EXTCODESIZE 0xE1 0x24 EQ PUSH29 0x66E1E78CEADFF6D60A74BD0380AF22AEE127E4308A9364736F6C634300 ADDMOD SMOD STOP CALLER "
				},
				"gasEstimates": {
					"creation": {
						"codeDepositCost": "428400",
						"executionCost": "461",
						"totalCost": "428861"
					},
					"external": {
						"AddressToVoter(address)": "infinite",
						"VoteCount(uint256)": "infinite",
						"addVoter(address,string)": "infinite",
						"ballotOfficialAddress()": "2564",
						"ballotOfficialName()": "infinite",
						"state()": "2582",
						"totalVoters()": "2496",
						"totalVotes()": "2452"
					}
				},
				"methodIdentifiers": {
					"AddressToVoter(address)": "12c06342",
					"VoteCount(uint256)": "0132be09",
					"addVoter(address,string)": "d9e95a98",
					"ballotOfficialAddress()": "90949747",
					"ballotOfficialName()": "de975d18",
					"state()": "c19d93fb",
					"totalVoters()": "5f5300ff",
					"totalVotes()": "0d15fd77"
				}
			},
			"storageLayout": {
				"storage": [
					{
						"astId": 16,
						"contract": "contracts/Voting.sol:Voting",
						"label": "AddressToVoter",
						"offset": 0,
						"slot": "0",
						"type": "t_mapping(t_address,t_struct(Voter)11_storage)"
					},
					{
						"astId": 21,
						"contract": "contracts/Voting.sol:Voting",
						"label": "votes",
						"offset": 0,
						"slot": "1",
						"type": "t_mapping(t_uint256,t_struct(Vote)6_storage)"
					},
					{
						"astId": 25,
						"contract": "contracts/Voting.sol:Voting",
						"label": "VoteCount",
						"offset": 0,
						"slot": "2",
						"type": "t_mapping(t_uint256,t_uint256)"
					},
					{
						"astId": 27,
						"contract": "contracts/Voting.sol:Voting",
						"label": "totalVoters",
						"offset": 0,
						"slot": "3",
						"type": "t_uint256"
					},
					{
						"astId": 29,
						"contract": "contracts/Voting.sol:Voting",
						"label": "totalVotes",
						"offset": 0,
						"slot": "4",
						"type": "t_uint256"
					},
					{
						"astId": 36,
						"contract": "contracts/Voting.sol:Voting",
						"label": "state",
						"offset": 0,
						"slot": "5",
						"type": "t_enum(State)33"
					},
					{
						"astId": 38,
						"contract": "contracts/Voting.sol:Voting",
						"label": "ballotOfficialAddress",
						"offset": 1,
						"slot": "5",
						"type": "t_address"
					},
					{
						"astId": 40,
						"contract": "contracts/Voting.sol:Voting",
						"label": "ballotOfficialName",
						"offset": 0,
						"slot": "6",
						"type": "t_string_storage"
					}
				],
				"types": {
					"t_address": {
						"encoding": "inplace",
						"label": "address",
						"numberOfBytes": "20"
					},
					"t_bool": {
						"encoding": "inplace",
						"label": "bool",
						"numberOfBytes": "1"
					},
					"t_enum(State)33": {
						"encoding": "inplace",
						"label": "enum Voting.State",
						"numberOfBytes": "1"
					},
					"t_mapping(t_address,t_struct(Voter)11_storage)": {
						"encoding": "mapping",
						"key": "t_address",
						"label": "mapping(address => struct Voting.Voter)",
						"numberOfBytes": "32",
						"value": "t_struct(Voter)11_storage"
					},
					"t_mapping(t_uint256,t_struct(Vote)6_storage)": {
						"encoding": "mapping",
						"key": "t_uint256",
						"label": "mapping(uint256 => struct Voting.Vote)",
						"numberOfBytes": "32",
						"value": "t_struct(Vote)6_storage"
					},
					"t_mapping(t_uint256,t_uint256)": {
						"encoding": "mapping",
						"key": "t_uint256",
						"label": "mapping(uint256 => uint256)",
						"numberOfBytes": "32",
						"value": "t_uint256"
					},
					"t_string_storage": {
						"encoding": "bytes",
						"label": "string",
						"numberOfBytes": "32"
					},
					"t_struct(Vote)6_storage": {
						"encoding": "inplace",
						"label": "struct Voting.Vote",
						"members": [
							{
								"astId": 3,
								"contract": "contracts/Voting.sol:Voting",
								"label": "voterAddress",
								"offset": 0,
								"slot": "0",
								"type": "t_address"
							},
							{
								"astId": 5,
								"contract": "contracts/Voting.sol:Voting",
								"label": "choice",
								"offset": 0,
								"slot": "1",
								"type": "t_uint256"
							}
						],
						"numberOfBytes": "64"
					},
					"t_struct(Voter)11_storage": {
						"encoding": "inplace",
						"label": "struct Voting.Voter",
						"members": [
							{
								"astId": 8,
								"contract": "contracts/Voting.sol:Voting",
								"label": "voterName",
								"offset": 0,
								"slot": "0",
								"type": "t_string_storage"
							},
							{
								"astId": 10,
								"contract": "contracts/Voting.sol:Voting",
								"label": "voted",
								"offset": 0,
								"slot": "1",
								"type": "t_bool"
							}
						],
						"numberOfBytes": "64"
					},
					"t_uint256": {
						"encoding": "inplace",
						"label": "uint256",
						"numberOfBytes": "32"
					}
				}
			},
			"userdoc": {
				"kind": "user",
				"methods": {},
				"version": 1
			}
		}
	}
}